00COTAHIST.2020BOVESPA 20200918                                                                                                                                                                                                                      
012020091802A1AP34      010ADVANCE AUTODRN ED       R$  000000002059800000000205980000000020598000000002059800000000205980000000000000000000002216000001000000000000003710000000000076418580000000000000009999123100000010000000000000BRA1APBDR001103
012020091802A1BM34      010ABIOMED INC DRN          R$  000000003541100000000354110000000035411000000003541100000000354110000000000000000000000000000001000000000000000070000000000002478770000000000000009999123100000010000000000000BRA1BMBDR006100
012020091802A1ES34      010AES CORP    DRN          R$  000000000993900000000099390000000009939000000000993900000000099390000000000000000000000000000001000000000000000100000000000000993900000000000000009999123100000010000000000000BRA1ESBDR007103
012020091802A1LX34      010ALEXION PHARDRN          R$  000000002988600000000298860000000029886000000002988600000000298860000000000000000000000000000001000000000000001740000000000052001640000000000000009999123100000010000000000000BRA1LXBDR002100
012020091802A1MD34      010ADVANCED MICDRN          R$  000000004055800000000405580000000040231000000004039400000000402310000000000000000000005250000002000000000000000020000000000000807890000000000000009999123100000010000000000000BRA1MDBDR002100
012020091802A1UT34      010AUTODESK INCDRN          R$  000000002973000000000297300000000029730000000002973000000000297300000000000000000000000000000001000000000000000020000000000000594600000000000000009999123100000010000000000000BRA1UTBDR001100
012020091802AALL34      010AMERICAN AIRDRN          R$  000000000706000000000070790000000007060000000000707000000000070790000000005333000000000850000004000000000000000750000000000005302600000000000000009999123100000010000000000000BRAALLBDR003115
012020091802AALR3       010ALLIAR      ON      NM   R$  000000000115600000000011560000000001104000000000112200000000011140000000001113000000000111801097000000000000397400000000000445998400000000000000009999123100000010000000000000BRAALRACNOR6102
012020091802AAPL34      010APPLE       DRN          R$  000000000582600000000059000000000005680000000000575200000000058020000000005800000000000580200406000000000000160420000000000922876410000000000000009999123100000010000000000000BRAAPLBDR004135
012020091802ABBV34      010ABBVIE      DRN          R$  000000004846200000000484620000000048462000000004846200000000484620000000000000000000000000000001000000000000000200000000000009692400000000000000009999123100000010000000000000BRABBVBDR001118
012020091802ABCB4       010ABC BRASIL  PN      N2   R$  000000000131600000000013220000000001288000000000130300000000013000000000001300000000000130102781000000000000455400000000000593492100000000000000009999123100000010000000000000BRABCBACNPR4134
012020091802ABEV3       010AMBEV S/A   ON           R$  000000000131100000000013170000000001279000000000129300000000012790000000001279000000000128049019000000000046869000000000060646605900000000000000009999123100000010000000000000BRABEVACNOR1122
012020091802ACNB34      010ACCENTURE   DRN          R$  000000012574700000001257470000000125747000000012574700000001257470000000000000000000000000000001000000000000000020000000000002514940000000000000009999123100000010000000000000BRACNBBDR006112
012020091802ADBE34      010ADOBE INC   DRN          R$  000000004959800000000495980000000048721000000004945800000000487210000000000000000000000000000004000000000000003470000000000171622450000000000000009999123100000010000000000000BRADBEBDR003100
012020091802ADHM3       010ADVANCED-DH ON           R$  000000000020500000000002050000000000203000000000020400000000002040000000000203000000000020400015000000000000009600000000000001962700000000000000009999123100000010000000000000BRADHMACNOR9102
012020091802AFLT3       010AFLUENTE T  ON           R$  000000000099300000000009930000000000976000000000098300000000009770000000000976000000000098500011000000000000001600000000000001572900000000000000009999123100000010000000000000BRAFLTACNOR1115
012020091802AGRO3       010BRASILAGRO  ON      NM   R$  000000000223400000000022450000000002217000000000222900000000022250000000002225000000000223000506000000000000103800000000000231426600000000000000009999123100000010000000000000BRAGROACNOR7109
012020091802AHEB6       010SPTURIS     PNB          R$  000000000264900000000026490000000002300000000000254900000000023000000000002100000000000260000004000000000000000400000000000001019700000000000000009999123100000010000000000000BRAHEBACNPB1106
012020091802ALPA3       010ALPARGATAS  ON      N1   R$  000000000326000000000032600000000003200000000000321800000000032020000000003201000000000325700009000000000000000900000000000002896400000000000000009999123100000010000000000000BRALPAACNOR0229
012020091802ALPA4       010ALPARGATAS  PN      N1   R$  000000000360600000000036210000000003492000000000352700000000035000000000003499000000000350705606000000000002340500000000008256217800000000000000009999123100000010000000000000BRALPAACNPR7229
012020091802ALPK3       010ESTAPAR     ON      NM   R$  000000000093600000000009360000000000925000000000093000000000009320000000000932000000000094000037000000000000005500000000000005116600000000000000009999123100000010000000000000BRALPKACNOR9100
012020091802ALSO3       010ALIANSCSONAEON      NM   R$  000000000274500000000027450000000002647000000000267100000000026550000000002655000000000265605638000000000001157600000000003093090800000000000000009999123100000010000000000000BRALSOACNOR5100
012020091802ALUP3       010ALUPAR      ON      N2   R$  000000000095000000000009620000000000950000000000095600000000009610000000000955000000000096100029000000000000004400000000000004206500000000000000009999123100000010000000000000BRALUPACNOR8111
012020091802ALUP4       010ALUPAR      PN      N2   R$  000000000070900000000007200000000000697000000000070500000000007000000000000700000000000070900057000000000000008300000000000005856600000000000000009999123100000010000000000000BRALUPACNPR5111
012020091802ALUP11      010ALUPAR      UNT     N2   R$  000000000238100000000023900000000002347000000000236300000000023560000000002356000000000235703043000000000000713000000000001685249400000000000000009999123100000010000000000000BRALUPCDAM15111
012020091802AMAR3       010LOJAS MARISAON      NM   R$  000000000082500000000008300000000000798000000000081500000000008240000000000822000000000082405620000000000003884700000000003168685500000000000000009999123100000010000000000000BRAMARACNOR4112
012020091802AMBP3       010AMBIPAR     ON      NM   R$  000000000314600000000031460000000003021000000000306300000000030810000000003060000000000308201236000000000000324700000000000994729100000000000000009999123100000010000000000000BRAMBPACNOR6100
012020091802AMGN34      010AMGEN       DRN          R$  000000013159000000001317700000000131590000000013159000000001317700000000000000000000000000000002000000000000006840000000000900079200000000000000009999123100000010000000000000BRAMGNBDR004135
012020091802AMZO34      010AMAZON      DRN          R$  000000080440000000008044000000000782228000000078728100000007912970000000789000000000079150000029000000000000000970000000000763663000000000000000009999123100000010000000000000BRAMZOBDR002101
012020091802ANIM3       010ANIMA       ON      NM   R$  000000000294900000000029520000000002840000000000289700000000028800000000002874000000000288002330000000000000489900000000001419276500000000000000009999123100000010000000000000BRANIMACNOR6106
012020091802APER3       010ALPER S.A.  ON      NM   R$  000000000313900000000032470000000003091000000000316600000000031710000000003078000000000317100174000000000000026900000000000085189200000000000000009999123100000010000000000000BRAPERACNOR9102
012020091802ARMT34      010ARCELOR     DRN          R$  000000000359700000000037590000000003597000000000375100000000037590000000002764000000000000000002000000000000000210000000000000787770000000000000009999123100000010000000000000BRARMTBDR008117
012020091802ARZZ3       010AREZZO CO   ON      NM   R$  000000000563800000000056380000000005415000000000549700000000054500000000005445000000000545002001000000000000279700000000001537790000000000000000009999123100000010000000000000BRARZZACNOR3137
012020091802ATOM3       010ATOMPAR     ON           R$  000000000028700000000002980000000000277000000000028600000000002910000000000283000000000029100127000000000000078600000000000022553800000000000000009999123100000010000000000000BRATOMACNOR1103
012020091802ATTB34      010ATT INC     DRN          R$  000000001560600000000156060000000015606000000001560600000000156060000000015200000000001560600001000000000000000050000000000000780300000000000000009999123100000010000000000000BRATTBBDR007132
012020091802ATVI34      010ACTIVISION  DRN          R$  000000004299900000000429990000000042000000000004249900000000420000000000041100000000000000000002000000000000000020000000000000849990000000000000009999123100000010000000000000BRATVIBDR008101
012020091802AURA32      010AURA 360    DR2          R$  000000000659000000000065900000000006406000000000650300000000065690000000006413000000000656900063000000000000009100000000000059181900000000000000009999123100000010000000000000BRAURABDR001102
012020091802AVGO34      010BROADCOM INCDRN          R$  000000003875500000000387550000000038755000000003875500000000387550000000000000000000000000000001000000000000000100000000000003875500000000000000009999123100000010000000000000BRAVGOBDR003105
012020091802AXPB34      010AMERICAN EXPDRN          R$  000000005610600000000561060000000056106000000005610600000000561060000000047700000000000000000001000000000000001270000000000071254620000000000000009999123100000010000000000000BRAXPBBDR007133
012020091802AZEV3       010AZEVEDO     ON           R$  000000000107000000000010700000000001000000000000105800000000010000000000000994000000000106000013000000000000002000000000000002116600000000000000009999123100000010000000000000BRAZEVACNOR0117
012020091802AZEV4       010AZEVEDO     PN           R$  000000000035000000000003500000000000330000000000033500000000003400000000000341000000000034600040000000000000009300000000000003124400000000000000009999123100000010000000000000BRAZEVACNPR7117
012020091802AZUL4       010AZUL        PN      N2   R$  000000000289000000000029340000000002790000000000284500000000028200000000002817000000000282031794000000000015884500000000045200008900000000000000009999123100000010000000000000BRAZULACNPR4100
012020091802B1MR34      010BIOMARIN PHADRN          R$  000000002003500000000210290000000020035000000002101400000000210290000000016720000000000000000002000000000000050720000000001065875200000000000000009999123100000010000000000000BRB1MRBDR001100
012020091802B3SA3       010B3          ON      NM   R$  000000000561600000000057900000000005551000000000565100000000056130000000005610000000000561350942000000000016975100000000095941531700000000000000009999123100000010000000000000BRB3SAACNOR6111
012020091802BABA34      010ALIBABAGR   DRN          R$  000000014889000000001488900000000145250000000014612100000001471070000000143600000000014730000011000000000000000710000000000103746430000000000000009999123100000010000000000000BRBABABDR005100
012020091802BAHI3       010BAHEMA      ON      MA   R$  000000001150000000000115000000000011200000000001131600000000112000000000011100000000001139900006000000000000000600000000000006790100000000000000009999123100000010000000000000BRBAHIACNOR1071
012020091802BALM3       010BAUMER      ON           R$  000000000160000000000017480000000001600000000000168400000000017480000000001531000000000170000011000000000000001100000000000001852700000000000000009999123100000010000000000000BRBALMACNOR5050
012020091802BALM4       010BAUMER      PN           R$  000000000139700000000014500000000001370000000000141000000000014400000000001440000000000145000054000000000000009300000000000013116900000000000000009999123100000010000000000000BRBALMACNPR2051
012020091802BAUH4       010EXCELSIOR   PN           R$  000000000835000000000085000000000008350000000000841800000000085000000000008203000000000889800006000000000000001100000000000009260000000000000000009999123100000010000000000000BRBAUHACNPR3115
012020091802BAZA3       010AMAZONIA    ON           R$  000000000392000000000039200000000003885000000000390400000000039190000000003840000000000391900005000000000000000900000000000003513800000000000000009999123100000010000000000000BRBAZAACNOR0174
012020091802BBAS3       010BRASIL      ON  EJ  NM   R$  000000000319500000000032020000000003115000000000315200000000031340000000003132000000000313431887000000000015967500000000050344330100000000000000009999123100000010000000000000BRBBASACNOR3293
012020091802BBDC3       010BRADESCO    ON      N1   R$  000000000189100000000018940000000001855000000000187300000000018770000000001876000000000187714397000000000010505100000000019683605800000000000000009999123100000010000000000000BRBBDCACNOR1715
012020091802BBDC4       010BRADESCO    PN      N1   R$  000000000204700000000020510000000002004000000000202100000000020080000000002008000000000200952341000000000062911700000000127149610500000000000000009999123100000010000000000000BRBBDCACNPR8715
012020091802BBRK3       010BR BROKERS  ON      NM   R$  000000000016700000000001670000000000158000000000016200000000001600000000000160000000000016100283000000000000248100000000000040263000000000000000009999123100000010000000000000BRBBRKACNOR4113
012020091802BBSE3       010BBSEGURIDADEON      NM   R$  000000000259500000000026040000000002540000000000255600000000025600000000002557000000000256028788000000000006042400000000015449574500000000000000009999123100000010000000000000BRBBSEACNOR5117
012020091802BCSA34      010SANTANDER   DRN          R$  000000000109000000000010900000000001060000000000107100000000010800000000001069000000000108000041000000000000008780000000000009408050000000000000009999123100000010000000000000BRBCSABDR005101
012020091802BEEF3       010MINERVA     ON      NM   R$  000000000131800000000013690000000001303000000000132600000000013140000000001313000000000131418170000000000007200000000000009550569800000000000000009999123100000010000000000000BRBEEFACNOR6108
012020091802BEES3       010BANESTES    ON           R$  000000000051300000000005130000000000506000000000050900000000005100000000000508000000000051000107000000000000025700000000000013086800000000000000009999123100000010000000000000BRBEESACNOR9339
012020091802BEES4       010BANESTES    PN           R$  000000000054400000000005440000000000525000000000054000000000005310000000000525000000000054000020000000000000004500000000000002431600000000000000009999123100000010000000000000BRBEESACNPR6264
012020091802BERK34      010BERKSHIRE   DRN          R$  000000011671800000001175990000000116718000000011724600000001175990000000113200000000011759900011000000000000000170000000000019931870000000000000009999123100000010000000000000BRBERKBDR002100
012020091802BGIP3       010BANESE      ON           R$  000000000444400000000044440000000004444000000000444400000000044440000000002701000000000480000002000000000000000200000000000000888800000000000000009999123100000010000000000000BRBGIPACNOR1199
012020091802BGIP4       010BANESE      PN           R$  000000000251100000000025160000000002500000000000250200000000025050000000002505000000000256000012000000000000002300000000000005755900000000000000009999123100000010000000000000BRBGIPACNPR8199
012020091802BIDI3       010BANCO INTER ON      N2   R$  000000000183000000000018520000000001704000000000175800000000017040000000001700000000000172805019000000000001127500000000001983239300000000000000009999123100000010000000000000BRBIDIACNOR3107
012020091802BIDI4       010BANCO INTER PN      N2   R$  000000000196200000000019780000000001825000000000186500000000018490000000001849000000000185013575000000000005658400000000010557934000000000000000009999123100000010000000000000BRBIDIACNPR0111
012020091802BIDI11      010BANCO INTER UNT     N2   R$  000000000580000000000058410000000005443000000000553800000000054540000000005454000000000545606548000000000001124300000000006227102600000000000000009999123100000010000000000000BRBIDICDAXX3106
012020091802BIOM3       010BIOMM       ON      MA   R$  000000000165100000000016650000000001618000000000163700000000016180000000001618000000000163000038000000000000004700000000000007696000000000000000009999123100000010000000000000BRBIOMACNOR2107
012020091802BKBR3       010BK BRASIL   ON      NM   R$  000000000112800000000011640000000001127000000000114500000000011640000000001161000000000116407747000000000001997300000000002288776900000000000000009999123100000010000000000000BRBKBRACNOR4103
012020091802BKNG34      010BOOKING     DRN          R$  000000003738000000000374120000000036900000000003737000000000374120000000036500000000005000000012000000000000001550000000000057924130000000000000009999123100000010000000000000BRBKNGBDR006100
012020091802BLAK34      010BLACKROCK   DRN          R$  000000004908000000000490800000000049080000000004908000000000490800000000000000000000000000000001000000000000000020000000000000981600000000000000009999123100000010000000000000BRBLAKBDR003118
012020091802BMEB3       010MERC BRASIL ON           R$  000000000183900000000019500000000001755000000000184600000000019000000000001755000000000191000012000000000000001400000000000002585500000000000000009999123100000010000000000000BRBMEBACNOR8196
012020091802BMEB4       010MERC BRASIL PN           R$  000000000160800000000016940000000001600000000000163300000000016500000000001640000000000165000069000000000000030600000000000049998200000000000000009999123100000010000000000000BRBMEBACNPR5201
012020091802BMGB4       010BANCO BMG   PN      N1   R$  000000000050600000000005100000000000496000000000050200000000005000000000000500000000000050503658000000000001631600000000000820097900000000000000009999123100000010000000000000BRBMGBACNPR0101
012020091802BMIN3       010MERC INVEST ON           R$  000000000198000000000020400000000001970000000000198500000000020400000000001970000000000230000006000000000000000600000000000001191400000000000000009999123100000010000000000000BRBMINACNOR4168
012020091802BMIN4       010MERC INVEST PN           R$  000000000189500000000018950000000001800000000000183100000000018000000000001845000000000193000007000000000000001000000000000001831400000000000000009999123100000010000000000000BRBMINACNPR1171
012020091802BMKS3       010BIC MONARK  ON           R$  000000002141000000000234000000000021410000000002301400000000231000000000021601000000002290000005000000000000000014000000000000322200000000000000009999123100000010000000000000BRBMKSACNOR9162
012020091802BNBR3       010NORD BRASIL ON           R$  000000000750000000000075000000000007500000000000750000000000075000000000007001000000000775900002000000000000000200000000000001500000000000000000009999123100000010000000000000BRBNBRACNOR8200
012020091802BOAC34      010BANK AMERICADRN          R$  000000001354600000000136280000000013546000000001355400000000136280000000012800000000001362800004000000000000000690000000000009352720000000000000009999123100000010000000000000BRBOACBDR004140
012020091802BOBR4       010BOMBRIL     PN           R$  000000000019700000000002100000000000196000000000020100000000002010000000000201000000000020500287000000000000295300000000000059545600000000000000009999123100000010000000000000BRBOBRACNPR3128
012020091802BOEI34      010BOEING      DRN          R$  000000008792000000000879200000000086800000000008769600000000868000000000000000000000010850000002000000000000000050000000000004384800000000000000009999123100000010000000000000BRBOEIBDR003132
012020091802BONY34      010BNY MELLON  DRN          R$  000000001879900000000187990000000018799000000001879900000000187990000000018800000000000000000001000000000000000160000000000003007840000000000000009999123100000010000000000000BRBONYBDR001120
012020091802BPAC3       010BTGP BANCO  ON      N2   R$  000000000427300000000042730000000003906000000000408900000000040490000000004039000000000405000122000000000000013900000000000056850800000000000000009999123100000010000000000000BRBPACACNOR7122
012020091802BPAC5       010BTGP BANCO  PNA     N2   R$  000000000184000000000018800000000001755000000000180000000000017700000000001740000000000179900087000000000000015500000000000027903000000000000000009999123100000010000000000000BRBPACACNPA0122
012020091802BPAC11      010BTGP BANCO  UNT     N2   R$  000000000790000000000079750000000007576000000000769500000000075760000000007576000000000758020055000000000005495900000000042293469700000000000000009999123100000010000000000000BRBPACUNT006107
012020091802BPAN4       010BANCO PAN   PN      N1   R$  000000000086700000000008750000000000833000000000084700000000008470000000000846000000000084711744000000000003572800000000003026692800000000000000009999123100000010000000000000BRBPANACNPR1109
012020091802BRAP3       010BRADESPAR   ON      N1   R$  000000000405000000000040650000000003992000000000402000000000040250000000003986000000000402500096000000000000017900000000000071967100000000000000009999123100000010000000000000BRBRAPACNOR5136
012020091802BRAP4       010BRADESPAR   PN      N1   R$  000000000457700000000046400000000004538000000000458100000000045660000000004563000000000456611018000000000002279400000000010444189300000000000000009999123100000010000000000000BRBRAPACNPR2136
012020091802BRDT3       010PETROBRAS BRON      NM   R$  000000000219100000000021980000000002128000000000215200000000021400000000002140000000000214218485000000000007551100000000016254716500000000000000009999123100000010000000000000BRBRDTACNOR1120
012020091802BRFS3       010BRF SA      ON      NM   R$  000000000213800000000022040000000002079000000000213200000000020940000000002090000000000209424332000000000010730500000000022883276300000000000000009999123100000010000000000000BRBRFSACNOR8119
012020091802BRGE3       010ALFA CONSORCON           R$  000000000096000000000009600000000000960000000000096000000000009600000000000960000000000102000001000000000000000100000000000000096000000000000000009999123100000010000000000000BRBRGEACNOR6202
012020091802BRGE5       010ALFA CONSORCPNA          R$  000000000139100000000013910000000001391000000000139100000000013910000000000700000000000165000002000000000000000300000000000000417300000000000000009999123100000010000000000000BRBRGEACNPA9211
012020091802BRGE12      010ALFA CONSORCPNF          R$  000000000064800000000006480000000000600000000000061800000000006120000000000612000000000063400004000000000000000500000000000000309400000000000000009999123100000010000000000000BRBRGEACNPF8096
012020091802BRIV3       010ALFA INVEST ON           R$  000000000087100000000008710000000000871000000000087100000000008710000000000871000000000092000001000000000000000100000000000000087100000000000000009999123100000010000000000000BRBRIVACNOR6205
012020091802BRIV4       010ALFA INVEST PN           R$  000000000086500000000008740000000000827000000000084600000000008270000000000827000000000086600008000000000000003100000000000002623800000000000000009999123100000010000000000000BRBRIVACNPR3211
012020091802BRKM3       010BRASKEM     ON      N1   R$  000000000225200000000022520000000002190000000000223200000000022100000000002175000000000225000047000000000000008600000000000019203300000000000000009999123100000010000000000000BRBRKMACNOR1117
012020091802BRKM5       010BRASKEM     PNA     N1   R$  000000000224500000000022620000000002169000000000220400000000021810000000002181000000000218209409000000000002133600000000004704104100000000000000009999123100000010000000000000BRBRKMACNPA4117
012020091802BRML3       010BR MALLS PARON      NM   R$  000000000097300000000009760000000000938000000000094800000000009400000000000940000000000094228901000000000018439800000000017494243700000000000000009999123100000010000000000000BRBRMLACNOR9115
012020091802BRPR3       010BR PROPERT  ON      NM   R$  000000000097100000000009710000000000946000000000095500000000009460000000000946000000000094809145000000000002747300000000002624785200000000000000009999123100000010000000000000BRBRPRACNOR9119
012020091802BRSR3       010BANRISUL    ON      N1   R$  000000000144200000000014600000000001435000000000144200000000014400000000001435000000000145000027000000000000004100000000000005913100000000000000009999123100000010000000000000BRBRSRACNOR3168
012020091802BRSR6       010BANRISUL    PNB     N1   R$  000000000125900000000012610000000001226000000000124100000000012440000000001235000000000124411614000000000002800800000000003476309900000000000000009999123100000010000000000000BRBRSRACNPB4171
012020091802BSEV3       010BIOSEV      ON      NM   R$  000000000049400000000005080000000000480000000000049200000000004820000000000481000000000048200421000000000000156800000000000077236500000000000000009999123100000010000000000000BRBSEVACNOR3102
012020091802BTOW3       010B2W DIGITAL ON      NM   R$  000000000966900000000098700000000009305000000000948900000000094190000000009396000000000941920274000000000003494800000000033164314800000000000000009999123100000010000000000000BRBTOWACNOR8111
012020091802BTTL3       010BATTISTELLA ON           R$  000000000130000000000013300000000001240000000000132000000000013300000000001327000000000133000135000000000000031200000000000041201600000000000000009999123100000010000000000000BRBTTLACNOR0108
012020091802C1HR34      010CH ROBINSON DRN          R$  000000002770800000000277960000000027708000000002771000000000277960000000000000000000000000000002000000000000001570000000000043505080000000000000009999123100000010000000000000BRC1HRBDR000103
012020091802C1IC34      010CIGNA CORP  DRN          R$  000000002252800000000227000000000022528000000002260300000000227000000000000000000000000000000004000000000000000870000000000019665300000000000000009999123100000010000000000000BRC1ICBDR000101
012020091802C1NC34      010CENTENE CORPDRN          R$  000000003240000000000326110000000032400000000003250800000000326100000000000000000000000000000004000000000000000600000000000019505300000000000000009999123100000010000000000000BRC1NCBDR000100
012020091802CAMB3       010CAMBUCI     ON           R$  000000000041600000000004300000000000412000000000042000000000004190000000000412000000000042000089000000000000047300000000000019868300000000000000009999123100000010000000000000BRCAMBACNOR4119
012020091802CAML3       010CAMIL       ON      NM   R$  000000000138000000000013820000000001337000000000135800000000013450000000001345000000000134606606000000000001703400000000002313926000000000000000009999123100000010000000000000BRCAMLACNOR3111
012020091802CARD3       010CSU CARDSYSTON      NM   R$  000000000145600000000014600000000001408000000000143500000000014600000000001452000000000146000884000000000000228100000000000327406600000000000000009999123100000010000000000000BRCARDACNOR9118
012020091802CATP34      010CATERPILLAR DRN          R$  000000008210000000000821000000000082100000000008210000000000821000000000000000000000000000000001000000000000000200000000000016420000000000000000009999123100000010000000000000BRCATPBDR003136
012020091802CBEE3       010AMPLA ENERG ON           R$  000000000161100000000016500000000001601000000000162800000000016010000000001600000000000168500005000000000000000600000000000000977300000000000000009999123100000010000000000000BRCBEEACNOR3155
012020091802CCPR3       010CYRE COM-CCPON      NM   R$  000000000142000000000014360000000001414000000000142300000000014240000000001410000000000142401513000000000000444500000000000632724000000000000000009999123100000010000000000000BRCCPRACNOR9114
012020091802CCRO3       010CCR SA      ON      NM   R$  000000000140700000000014140000000001375000000000138900000000013840000000001383000000000138416882000000000009516400000000013219025800000000000000009999123100000010000000000000BRCCROACNOR2137
012020091802CEAB3       010CEA MODAS   ON      NM   R$  000000000132300000000013230000000001284000000000130000000000012980000000001296000000000129811579000000000006503200000000008454278700000000000000009999123100000010000000000000BRCEABACNOR1101
012020091802CEBR3       010CEB         ON           R$  000000000650000000000066000000000006401000000000642300000000066000000000006260000000000675000004000000000000001800000000000011561500000000000000009999123100000010000000000000BRCEBRACNOR5118
012020091802CEDO3       010CEDRO       ON      N1   R$  000000000096000000000009610000000000900000000000094400000000009000000000000853000000000090000018000000000000003100000000000002926600000000000000009999123100000010000000000000BRCEDOACNOR8096
012020091802CEDO4       010CEDRO       PN      N1   R$  000000000056000000000006150000000000517000000000056000000000005350000000000523000000000055000060000000000000015400000000000008630600000000000000009999123100000010000000000000BRCEDOACNPR5128
012020091802CEEB3       010COELBA      ON           R$  000000000429000000000042990000000003965000000000420800000000042000000000003758000000000420000004000000000000000500000000000002104400000000000000009999123100000010000000000000BRCEEBACNOR3179
012020091802CEPE5       010CELPE       PNA          R$  000000000289900000000029000000000002502000000000277000000000025020000000002501000000000290000011000000000000001100000000000003047600000000000000009999123100000010000000000000BRCEPEACNPA6163
012020091802CESP3       010CESP        ON      N1   R$  000000000318000000000032770000000003166000000000322000000000032770000000003166000000000333800022000000000000005300000000000017067900000000000000009999123100000010000000000000BRCESPACNOR3169
012020091802CESP6       010CESP        PNB     N1   R$  000000000286500000000028780000000002830000000000285200000000028640000000002851000000000286409164000000000003232100000000009220861300000000000000009999123100000010000000000000BRCESPACNPB4128
012020091802CGAS5       010COMGAS      PNA          R$  000000001840000000000184860000000017750000000001827600000000184000000000018400000000001880000023000000000000002500000000000045690000000000000000009999123100000010000000000000BRCGASACNPA3148
012020091802CGRA3       010GRAZZIOTIN  ON           R$  000000000263100000000026310000000002631000000000263100000000026310000000002604000000000267200004000000000000000400000000000001052400000000000000009999123100000010000000000000BRCGRAACNOR2071
012020091802CGRA4       010GRAZZIOTIN  PN           R$  000000000262000000000026200000000002551000000000257900000000025510000000002551000000000255700154000000000000024200000000000062426400000000000000009999123100000010000000000000BRCGRAACNPR9071
012020091802CHVX34      010CHEVRON     DRN          R$  000000002108100000000210810000000021081000000002108100000000210810000000019880000000002108100001000000000000000030000000000000632430000000000000009999123100000010000000000000BRCHVXBDR008138
012020091802CIEL3       010CIELO       ON      NM   R$  000000000045200000000004540000000000425000000000043400000000004260000000000425000000000042654771000000000148664800000000064650970100000000000000009999123100000010000000000000BRCIELACNOR3142
012020091802CLSC4       010CELESC      PN      N2   R$  000000000541000000000054100000000005350000000000536800000000053500000000005350000000000539800018000000000000002400000000000012885100000000000000009999123100000010000000000000BRCLSCACNPR3115
012020091802CMCS34      010COMCAST     DRN          R$  000000002389000000000243680000000023793000000002386600000000243680000000022000000000002436800004000000000000002430000000000057995360000000000000009999123100000010000000000000BRCMCSBDR008135
012020091802CMIG3       010CEMIG       ON      N1   R$  000000000115400000000011560000000001112000000000113700000000011120000000001111000000000111206517000000000008652300000000009844033600000000000000009999123100000010000000000000BRCMIGACNOR6224
012020091802CMIG4       010CEMIG       PN      N1   R$  000000000108200000000010840000000001057000000000106800000000010630000000001063000000000106531370000000000019414400000000020751834800000000000000009999123100000010000000000000BRCMIGACNPR3225
012020091802CNTO3       010CENTAURO    ON      NM   R$  000000000283600000000028550000000002720000000000276200000000027470000000002747000000000275006272000000000001344400000000003713684100000000000000009999123100000010000000000000BRCNTOACNOR5100
012020091802COCA34      010COCA COLA   DRN ED       R$  000000002691100000000270080000000026911000000002697400000000269110000000026400000000002720000004000000000000000080000000000002157970000000000000009999123100000010000000000000BRCOCABDR002136
012020091802COCE3       010COELCE      ON           R$  000000000651100000000065110000000006511000000000651100000000065110000000006511000000000748300001000000000000000100000000000000651100000000000000009999123100000010000000000000BRCOCEACNOR0139
012020091802COCE5       010COELCE      PNA          R$  000000000584200000000058890000000005805000000000582300000000058050000000005805000000000583700075000000000000012700000000000073955700000000000000009999123100000010000000000000BRCOCEACNPA3140
012020091802COGN3       010COGNA ON    ON      NM   R$  000000000057700000000005790000000000550000000000055900000000005530000000000552000000000055344015000000000063076400000000035292818000000000000000009999123100000010000000000000BRCOGNACNOR2101
012020091802COTY34      010COTY INC    DRN          R$  000000000083000000000008400000000000825000000000082900000000008270000000000801000000000096000019000000000000025400000000000021065680000000000000009999123100000010000000000000BRCOTYBDR006116
012020091802COWC34      010COSTCO      DRN          R$  000000004493100000000454190000000044931000000004501200000000454190000000044000000000004600000002000000000000000060000000000002700740000000000000009999123100000010000000000000BRCOWCBDR006119
012020091802CPFE3       010CPFL ENERGIAON      NM   R$  000000000298500000000029850000000002890000000000292000000000029000000000002899000000000290009798000000000002597200000000007584201900000000000000009999123100000010000000000000BRCPFEACNOR0130
012020091802CPLE3       010COPEL       ON      N1   R$  000000000639600000000063990000000006139000000000619900000000061390000000006139000000000614002497000000000000481100000000002982516900000000000000009999123100000010000000000000BRCPLEACNOR8139
012020091802CPLE6       010COPEL       PNB     N1   R$  000000000657100000000066140000000006350000000000643500000000064000000000006400000000000640207087000000000001240100000000007981128700000000000000009999123100000010000000000000BRCPLEACNPB9136
012020091802CRFB3       010CARREFOUR BRON      NM   R$  000000000213700000000021430000000002090000000000211200000000021180000000002111000000000211816392000000000004569400000000009652315700000000000000009999123100000010000000000000BRCRFBACNOR2107
012020091802CRIV3       010ALFA FINANC ON           R$  000000000064000000000006400000000000610000000000061800000000006290000000000611000000000063000027000000000000010100000000000006250600000000000000009999123100000010000000000000BRCRIVACNOR4194
012020091802CRIV4       010ALFA FINANC PN           R$  000000000060900000000006480000000000607000000000062700000000006480000000000608000000000064700013000000000000001800000000000001130100000000000000009999123100000010000000000000BRCRIVACNPR1204
012020091802CRPG5       010CRISTAL     PNA          R$  000000000200100000000020320000000001985000000000200300000000020000000000001995000000000201100022000000000000002500000000000005007900000000000000009999123100000010000000000000BRCRPGACNPA3108
012020091802CRPG6       010CRISTAL     PNB          R$  000000000202000000000020200000000001900000000000193400000000019990000000001902000000000199900010000000000000004900000000000009476600000000000000009999123100000010000000000000BRCRPGACNPB1108
012020091802CSAN3       010COSAN       ON      NM   R$  000000000761600000000076170000000007343000000000744300000000074050000000007405000000000743909984000000000001968700000000014653224600000000000000009999123100000010000000000000BRCSANACNOR6120
012020091802CSCO34      010CISCO       DRN          R$  000000002121000000000212100000000021210000000002121000000000212100000000020100000000000000000001000000000000000060000000000001272600000000000000009999123100000010000000000000BRCSCOBDR004138
012020091802CSMG3       010COPASA      ON      NM   R$  000000000495300000000049800000000004834000000000489400000000049100000000004902000000000491004257000000000000783600000000003835150500000000000000009999123100000010000000000000BRCSMGACNOR5156
012020091802CSNA3       010SID NACIONALON           R$  000000000167100000000016880000000001631000000000165700000000016400000000001638000000000164019460000000000008950300000000014835784900000000000000009999123100000010000000000000BRCSNAACNOR6252
012020091802CSRN3       010COSERN      ON           R$  000000000170400000000017800000000001704000000000174200000000017800000000001707000000000178800002000000000000000200000000000000348400000000000000009999123100000010000000000000BRCSRNACNOR0172
012020091802CSRN5       010COSERN      PNA          R$  000000000178900000000017890000000001680000000000173400000000016800000000001679000000000178000002000000000000000200000000000000346900000000000000009999123100000010000000000000BRCSRNACNPA3172
012020091802CSRN6       010COSERN      PNB          R$  000000000180400000000018040000000001614000000000169300000000016620000000001662000000000180300003000000000000000300000000000000508000000000000000009999123100000010000000000000BRCSRNACNPB1173
012020091802CTGP34      010CITIGROUP   DRN          R$  000000002416300000000241630000000024163000000002416300000000241630000000020466000000002416300001000000000000000010000000000000241630000000000000009999123100000010000000000000BRCTGPBDR000139
012020091802CTKA3       010KARSTEN     ON           R$  000000000145000000000014500000000001401000000000142800000000014500000000001403000000000149900005000000000000000600000000000000857200000000000000009999123100000010000000000000BRCTKAACNOR0043
012020091802CTKA4       010KARSTEN     PN           R$  000000000123700000000012490000000001220000000000123700000000012390000000001161000000000123800009000000000000001200000000000001484400000000000000009999123100000010000000000000BRCTKAACNPR7043
012020091802CTNM3       010COTEMINAS   ON           R$  000000000108500000000010850000000001085000000000108500000000010850000000001085000000000111500005000000000000003100000000000003363500000000000000009999123100000010000000000000BRCTNMACNOR9130
012020091802CTNM4       010COTEMINAS   PN           R$  000000000056600000000005690000000000550000000000055900000000005530000000000553000000000055400051000000000000023000000000000012867800000000000000009999123100000010000000000000BRCTNMACNPR6129
012020091802CTSA3       010SANTANENSE  ON           R$  000000000025000000000002500000000000240000000000024600000000002500000000000240000000000025000028000000000000007200000000000001771800000000000000009999123100000010000000000000BRCTSAACNOR3060
012020091802CTSA4       010SANTANENSE  PN           R$  000000000022200000000002220000000000215000000000021800000000002200000000000216000000000022000015000000000000002800000000000000611600000000000000009999123100000010000000000000BRCTSAACNPR0060
012020091802CVCB3       010CVC BRASIL  ON      NM   R$  000000000177600000000017780000000001708000000000172900000000017280000000001728000000000172914653000000000006618500000000011445941700000000000000009999123100000010000000000000BRCVCBACNOR1113
012020091802CVSH34      010CVS HEALTH  DRN          R$  000000001565800000000156580000000015609000000001562100000000156090000000000000000000001690000002000000000000000120000000000001874550000000000000009999123100000010000000000000BRCVSHBDR008117
012020091802CYRE3       010CYRELA REALTON      NM   R$  000000000236900000000023710000000002268000000000230900000000023020000000002299000000000230227038000000000007362800000000017002279400000000000000009999123100000010000000000000BRCYREACNOR7134
012020091802D1OM34      010DOMINION ENEDRN          R$  000000002101300000000210900000000021013000000002105100000000210900000000000000000000000000000002000000000000000140000000000002947210000000000000009999123100000010000000000000BRD1OMBDR006103
012020091802D1XC34      010DXC TECHNOLODRN          R$  000000000990100000000099010000000009901000000000990100000000099010000000009901000000000000000001000000000000000010000000000000099010000000000000009999123100000010000000000000BRD1XCBDR008101
012020091802DASA3       010DASA        ON           R$  000000000666000000000066600000000006300000000000645500000000063000000000006000000000000664900010000000000000001000000000000006455000000000000000009999123100000010000000000000BRDASAACNOR1119
012020091802DBAG34      010DEUTSCHE AK DRN          R$  000000000481600000000048160000000004816000000000481600000000048160000000000000000000000000000002000000000000000250000000000001204000000000000000009999123100000010000000000000BRDBAGBDR008100
012020091802DEEC34      010DEERE CO    DRN          R$  000000005776000000000577600000000057760000000005776000000000577600000000000000000000000000000001000000000000000010000000000000577600000000000000009999123100000010000000000000BRDEECBDR003105
012020091802DGCO34      010DOLLAR GENERDRN          R$  000000005510000000000551000000000055100000000005510000000000551000000000000000000000000000000001000000000000000020000000000001102000000000000000009999123100000010000000000000BRDGCOBDR007105
012020091802DIRR3       010DIRECIONAL  ON      NM   R$  000000000147400000000014740000000001390000000000141800000000014200000000001417000000000142003986000000000000888200000000001260071900000000000000009999123100000010000000000000BRDIRRACNOR0112
012020091802DISB34      010WALT DISNEY DRN          R$  000000006875000000000693800000000068631000000006887700000000693800000000068020000000006980000011000000000000001220000000000084030930000000000000009999123100000010000000000000BRDISBBDR006114
012020091802DLTR34      010DOLLAR TREE DRN          R$  000000002345800000000234580000000023458000000002345800000000234580000000000000000000000000000001000000000000000200000000000004691600000000000000009999123100000010000000000000BRDLTRBDR004100
012020091802DMMO3       010DOMMO       ON           R$  000000000011800000000001190000000000116000000000011700000000001170000000000117000000000011800868000000000001412300000000000165613300000000000000009999123100000010000000000000BRDMMOACNOR0102
012020091802DMVF3       010D1000VFARMA ON      NM   R$  000000000105400000000010890000000000995000000000102000000000010000000000001000000000000101401689000000000000598200000000000610470100000000000000009999123100000010000000000000BRDMVFACNOR9100
012020091802DOHL3       010DOHLER      ON           R$  000000000131600000000014000000000001316000000000136300000000014000000000001330000000000150000007000000000000000700000000000000954700000000000000009999123100000010000000000000BRDOHLACNOR2058
012020091802DOHL4       010DOHLER      PN           R$  000000000049600000000004960000000000485000000000048900000000004900000000000490000000000049300027000000000000004400000000000002155300000000000000009999123100000010000000000000BRDOHLACNPR9061
012020091802DTCY3       010DTCOM-DIRECTON           R$  000000000064800000000006480000000000647000000000064700000000006470000000000647000000000066000002000000000000000400000000000000259100000000000000009999123100000010000000000000BRDTCYACNOR5109
012020091802DTEX3       010DURATEX     ON      NM   R$  000000000174100000000017840000000001712000000000174800000000017440000000001742000000000174407492000000000001988700000000003477573300000000000000009999123100000010000000000000BRDTEXACNOR3128
012020091802DUKB34      010DUKE ENERGY DRN          R$  000000004467100000000446710000000044671000000004467100000000446710000000042000000000000000000001000000000000000010000000000000446710000000000000009999123100000010000000000000BRDUKBBDR008116
012020091802DVAI34      010DAVITA INC  DRN          R$  000000004671700000000467170000000046717000000004671700000000467170000000000000000000000000000001000000000000000300000000000014015100000000000000009999123100000010000000000000BRDVAIBDR002100
012020091802E1IX34      010EDISON INTERDRN          R$  000000001383800000000138380000000013838000000001383800000000138380000000000000000000000000000001000000000000000040000000000000553520000000000000009999123100000010000000000000BRE1IXBDR004103
012020091802E1WL34      010EDWARDS LIFEDRN          R$  000000001102300000000110230000000011023000000001102300000000110230000000000000000000001200000001000000000000000100000000000001102300000000000000009999123100000010000000000000BRE1WLBDR000101
012020091802EAIN34      010ELECTR ARTS DRN          R$  000000003329900000000332990000000033299000000003329900000000332990000000033280000000003650000001000000000000000010000000000000332990000000000000009999123100000010000000000000BREAINBDR007100
012020091802EALT3       010ACO ALTONA  ON           R$  000000000119400000000011940000000001191000000000119200000000011910000000001191000000000121800003000000000000000500000000000000596100000000000000009999123100000010000000000000BREALTACNOR4133
012020091802EALT4       010ACO ALTONA  PN           R$  000000000050800000000005180000000000485000000000050200000000005130000000000506000000000051300143000000000000072300000000000036294800000000000000009999123100000010000000000000BREALTACNPR1133
012020091802ECOR3       010ECORODOVIAS ON      NM   R$  000000000130400000000013090000000001282000000000129600000000012990000000001297000000000129911909000000000004184400000000005423972600000000000000009999123100000010000000000000BRECORACNOR8116
012020091802EGIE3       010ENGIE BRASILON      NM   R$  000000000426900000000042900000000004202000000000422500000000042110000000004211000000000421408212000000000001742600000000007362870600000000000000009999123100000010000000000000BREGIEACNOR9113
012020091802EKTR4       010ELEKTRO     PN           R$  000000000209900000000020990000000002099000000000209900000000020990000000001900000000000210000001000000000000000100000000000000209900000000000000009999123100000010000000000000BREKTRACNPR7144
012020091802ELET3       010ELETROBRAS  ON      N1   R$  000000000331100000000033620000000003204000000000326800000000032390000000003235000000000323920532000000000005502300000000017982765400000000000000009999123100000010000000000000BRELETACNOR6155
012020091802ELET6       010ELETROBRAS  PNB     N1   R$  000000000341400000000034620000000003310000000000336300000000033500000000003349000000000335011636000000000002375400000000007990159900000000000000009999123100000010000000000000BRELETACNPB7072
012020091802EMAE4       010EMAE        PN           R$  000000000338100000000034200000000003321000000000336600000000034000000000003342000000000345500022000000000000003000000000000010098500000000000000009999123100000010000000000000BREMAEACNPR1114
012020091802EMBR3       010EMBRAER     ON      NM   R$  000000000069200000000006930000000000662000000000067400000000006680000000000667000000000066822224000000000017063700000000011508761500000000000000009999123100000010000000000000BREMBRACNOR4189
012020091802ENAT3       010ENAUTA PART ON      NM   R$  000000000107300000000011120000000001073000000000109400000000010900000000001086000000000109005153000000000001359900000000001487866800000000000000009999123100000010000000000000BRENATACNOR0101
012020091802ENBR3       010ENERGIAS BR ON      NM   R$  000000000185000000000018530000000001807000000000182100000000018080000000001808000000000181511278000000000002939200000000005352771000000000000000009999123100000010000000000000BRENBRACNOR2129
012020091802ENEV3       010ENEVA       ON      NM   R$  000000000498000000000052100000000004959000000000509600000000050880000000005087000000000508814377000000000003466800000000017667017100000000000000009999123100000010000000000000BRENEVACNOR8104
012020091802ENGI3       010ENERGISA    ON      N2   R$  000000000131500000000013150000000001260000000000127000000000012610000000001260000000000127300175000000000000018400000000000023373300000000000000009999123100000010000000000000BRENGIACNOR0138
012020091802ENGI4       010ENERGISA    PN      N2   R$  000000000080900000000008090000000000755000000000076600000000007590000000000759000000000076200308000000000000066000000000000050560100000000000000009999123100000010000000000000BRENGIACNPR7134
012020091802ENGI11      010ENERGISA    UNT     N2   R$  000000000448300000000045080000000004280000000000431200000000043000000000004300000000000430316839000000000007009700000000030227261000000000000000009999123100000010000000000000BRENGICDAM16128
012020091802ENMT3       010ENERGISA MT ON           R$  000000000299000000000029900000000002990000000000299000000000029900000000002600000000000299000005000000000000000600000000000001794000000000000000009999123100000010000000000000BRENMTACNOR5111
012020091802EQIX34      010EQUINIX INC DRN          R$  000000007980000000000798000000000079800000000007980000000000798000000000000000000000000000000001000000000000000850000000000067830000000000000000009999123100000010000000000000BREQIXBDR002106
012020091802EQPA3       010EQTL PARA   ON           R$  000000000032900000000003290000000000313000000000032000000000003200000000000318000000000032400069000000000000053600000000000017162200000000000000009999123100000010000000000000BREQPAACNOR1101
012020091802EQPA5       010EQTL PARA   PNA          R$  000000000060800000000006080000000000608000000000060800000000006080000000000470000000000060800001000000000000000100000000000000060800000000000000009999123100000010000000000000BREQPAACNPA4101
012020091802EQPA7       010EQTL PARA   PNC          R$  000000000056000000000005600000000000560000000000056000000000005600000000000560000000000058000002000000000000000500000000000000280000000000000000009999123100000010000000000000BREQPAACNPC0101
012020091802EQTL3       010EQUATORIAL  ON      NM   R$  000000000230300000000023250000000002263000000000228200000000022780000000002277000000000227824307000000000007532800000000017193297900000000000000009999123100000010000000000000BREQTLACNOR0126
012020091802ESTR4       010ESTRELA     PN           R$  000000000292000000000029590000000002900000000000292900000000029540000000002800000000000295500006000000000000000700000000000002050300000000000000009999123100000010000000000000BRESTRACNPR0143
012020091802EUCA3       010EUCATEX     ON      N1   R$  000000000228000000000022800000000002228000000000223400000000022280000000002210000000000223000010000000000000001000000000000002234800000000000000009999123100000010000000000000BREUCAACNOR1151
012020091802EUCA4       010EUCATEX     PN      N1   R$  000000000069000000000006990000000000672000000000069000000000006950000000000680000000000069500103000000000000038100000000000026298100000000000000009999123100000010000000000000BREUCAACNPR8038
012020091802EVEN3       010EVEN        ON      NM   R$  000000000120500000000012230000000001151000000000117500000000011690000000001169000000000117008811000000000002189000000000002573622700000000000000009999123100000010000000000000BREVENACNOR8112
012020091802EXXO34      010EXXON MOBIL DRN          R$  000000000499800000000050090000000004995000000000499600000000050090000000004890000000000500900004000000000000001660000000000008294940000000000000009999123100000010000000000000BREXXOBDR006140
012020091802EZTC3       010EZTEC       ON      NM   R$  000000000393000000000039300000000003781000000000381700000000037810000000003780000000000378913079000000000003354900000000012807187300000000000000009999123100000010000000000000BREZTCACNOR0114
012020091802F1IS34      010FISERV INC  DRN          R$  000000002750000000000275000000000027500000000002750000000000275000000000000000000000000000000001000000000000000240000000000006600000000000000000009999123100000010000000000000BRF1ISBDR003100
012020091802F1NI34      010FIDELITY NATDRN ED       R$  000000001967000000000196700000000019500000000001966000000000195000000000000000000000000000000002000000000000005720000000000112456300000000000000009999123100000010000000000000BRF1NIBDR004103
012020091802FBOK34      010FACEBOOK    DRN          R$  000000006840000000000685000000000067192000000006778300000000678030000000067432000000006990000312000000000000012480000000000845941240000000000000009999123100000010000000000000BRFBOKBDR006100
012020091802FCXO34      010FREEPORT    DRN          R$  000000000916000000000091750000000009160000000000916400000000091750000000000000000000000000000002000000000000000360000000000003299250000000000000009999123100000010000000000000BRFCXOBDR007132
012020091802FDXB34      010FEDEX CORP  DRN          R$  000000013076100000001307610000000130761000000013076100000001307610000000000000000000000000000001000000000000000010000000000001307610000000000000009999123100000010000000000000BRFDXBBDR002128
012020091802FESA4       010FERBASA     PN      N1   R$  000000000188000000000019140000000001817000000000185900000000018170000000001817000000000182001322000000000000294600000000000547845000000000000000009999123100000010000000000000BRFESAACNPR5067
012020091802FLRY3       010FLEURY      ON      NM   R$  000000000294200000000029680000000002878000000000292400000000029320000000002924000000000293210870000000000001849100000000005408504700000000000000009999123100000010000000000000BRFLRYACNOR5127
012020091802FRAS3       010FRAS-LE     ON      N1   R$  000000000054900000000005490000000000530000000000053500000000005340000000000532000000000053400393000000000000130700000000000069935900000000000000009999123100000010000000000000BRFRASACNOR0149
012020091802FSLR34      010FIRST SOLAR DRN          R$  000000001647600000000165000000000016476000000001649700000000165000000000013533000000000000000002000000000000000220000000000003629520000000000000009999123100000010000000000000BRFSLRBDR001100
012020091802G1WW34      010WW GRAINGER DRN          R$  000000003770600000000377060000000037706000000003770600000000377060000000000000000000000000000001000000000000001220000000000046001320000000000000009999123100000010000000000000BRG1WWBDR005103
012020091802GEOO34      010GE          DRN          R$  000000000371300000000037130000000003713000000000371300000000037130000000002989000000000371300001000000000000000060000000000000222780000000000000009999123100000010000000000000BRGEOOBDR000140
012020091802GEPA4       010GER PARANAP PN           R$  000000000456400000000045640000000004564000000000456400000000045640000000004588000000000462000001000000000000000100000000000000456400000000000000009999123100000010000000000000BRGEPAACNPR9153
012020091802GFSA3       010GAFISA      ON      NM   R$  000000000045000000000004530000000000430000000000043700000000004310000000000430000000000043104776000000000005301900000000002317259400000000000000009999123100000010000000000000BRGFSAACNOR3119
012020091802GGBR3       010GERDAU      ON      N1   R$  000000000179400000000017980000000001713000000000173500000000017160000000001716000000000172800298000000000000118500000000000205670100000000000000009999123100000010000000000000BRGGBRACNOR1173
012020091802GGBR4       010GERDAU      PN      N1   R$  000000000213800000000021770000000002080000000000212300000000020960000000002093000000000209645066000000000022467700000000047714238400000000000000009999123100000010000000000000BRGGBRACNPR8173
012020091802GMCO34      010GENERAL MOT DRN          R$  000000001679900000000169460000000016799000000001682300000000169460000000016800000000000000000002000000000000000060000000000001009410000000000000009999123100000010000000000000BRGMCOBDR008115
012020091802GNDI3       010INTERMEDICA ON      NM   R$  000000000690100000000070190000000006737000000000690700000000069430000000006932000000000694316595000000000004261500000000029437296600000000000000009999123100000010000000000000BRGNDIACNOR2102
012020091802GOAU3       010GERDAU MET  ON      N1   R$  000000000083500000000008500000000000825000000000083900000000008250000000000825000000000083400186000000000000051900000000000043554000000000000000009999123100000010000000000000BRGOAUACNOR1250
012020091802GOAU4       010GERDAU MET  PN      N1   R$  000000000095100000000009750000000000940000000000095600000000009440000000000944000000000094519355000000000022761300000000021772649700000000000000009999123100000010000000000000BRGOAUACNPR8251
012020091802GOGL34      010ALPHABET    DRN A        R$  000000003151700000000316110000000030750000000003104200000000310630000000030900000000003106300085000000000000011280000000000350153980000000000000009999123100000010000000000000BRGOGLBDR001100
012020091802GOGL35      010ALPHABET    DRN C        R$  000000003098000000000312450000000030950000000003105100000000312450000000000000000000003124500014000000000000004910000000000152461450000000000000009999123100000010000000000000BRGOGLBDR019100
012020091802GOLL4       010GOL         PN      N2   R$  000000000210700000000021280000000001988000000000203300000000020100000000002009000000000201032494000000000013846900000000028163631300000000000000009999123100000010000000000000BRGOLLACNPR4125
012020091802GPAR3       010CELGPAR     ON           R$  000000000299900000000031410000000002750000000000298600000000027500000000002750000000000304600016000000000000001600000000000004778900000000000000009999123100000010000000000000BRGPARACNOR4104
012020091802GPIV33      010GP INVEST   DR3          R$  000000000049500000000005010000000000476000000000049000000000004920000000000492000000000049500089000000000000091000000000000044676400000000000000009999123100000010000000000000BRGPIVBDR003104
012020091802GRND3       010GRENDENE    ON      NM   R$  000000000078800000000007880000000000737000000000075700000000007520000000000752000000000075308268000000000003632600000000002752894400000000000000009999123100000010000000000000BRGRNDACNOR3158
012020091802GSGI34      010GOLDMANSACHSDRN          R$  000000001034700000000105780000000010347000000001037400000000105780000000000000000000001063000003000000000000000200000000000002074930000000000000009999123100000010000000000000BRGSGIBDR008140
012020091802GUAR3       010GUARARAPES  ON           R$  000000000168700000000016910000000001616000000000163200000000016160000000001616000000000162303574000000000001087300000000001775068000000000000000009999123100000010000000000000BRGUARACNOR4165
012020091802HAGA3       010HAGA S/A    ON           R$  000000000034500000000003450000000000327000000000033000000000003340000000000325000000000033300024000000000000009400000000000003106900000000000000009999123100000010000000000000BRHAGAACNOR7103
012020091802HAGA4       010HAGA S/A    PN           R$  000000000019300000000001930000000000187000000000018900000000001880000000000188000000000019100104000000000000053700000000000010177300000000000000009999123100000010000000000000BRHAGAACNPR4103
012020091802HALI34      010HALLIBURTON DRN          R$  000000000774200000000077420000000007742000000000774200000000077420000000006040000000000000000001000000000000000050000000000000387100000000000000009999123100000010000000000000BRHALIBDR004135
012020091802HAPV3       010HAPVIDA     ON  EJ  NM   R$  000000000643600000000064610000000006210000000000631800000000062740000000006274000000000627609133000000000001715400000000010839481200000000000000009999123100000010000000000000BRHAPVACNOR4106
012020091802HBOR3       010HELBOR      ON      NM   R$  000000000115100000000011530000000001095000000000112000000000010950000000001095000000000110002820000000000001710100000000001916029600000000000000009999123100000010000000000000BRHBORACNOR3114
012020091802HETA4       010HERCULES    PN           R$  000000000079900000000008070000000000755000000000079000000000007550000000000756000000000080600004000000000000000400000000000000316100000000000000009999123100000010000000000000BRHETAACNPR9136
012020091802HGTX3       010CIA HERING  ON      NM   R$  000000000184000000000018510000000001790000000000181400000000018100000000001810000000000181208573000000000002372700000000004305139300000000000000009999123100000010000000000000BRHGTXACNOR9151
012020091802HOME34      010HOME DEPOT  DRN          R$  000000007336800000000735410000000073368000000007353600000000735410000000000000000000000000000002000000000000001230000000000090450240000000000000009999123100000010000000000000BRHOMEBDR002134
012020091802HYPE3       010HYPERA      ON      NM   R$  000000000311200000000031280000000003018000000000305700000000030220000000003021000000000302416282000000000003260900000000009969919600000000000000009999123100000010000000000000BRHYPEACNOR0122
012020091802I1CE34      010INTERCONTINEDRN ED       R$  000000002640000000000264000000000026400000000002640000000000264000000000000000000000000000000001000000000000000030000000000000792000000000000000009999123100000010000000000000BRI1CEBDR003103
012020091802I1LM34      010ILLUMINA INCDRN          R$  000000003172200000000317220000000031722000000003172200000000317220000000000000000000000000000002000000000000000200000000000006344400000000000000009999123100000010000000000000BRI1LMBDR007100
012020091802I1NF34      010IHS MARKIT LDRN          R$  000000002097200000000209720000000020972000000002097200000000209720000000000000000000000000000001000000000000002670000000000055995240000000000000009999123100000010000000000000BRI1NFBDR007103
012020091802IBMB34      010IBM         DRN          R$  000000006619900000000661990000000066199000000006619900000000661990000000060000000000000000000001000000000000000010000000000000661990000000000000009999123100000010000000000000BRIBMBBDR003135
012020091802IDVL3       010INDUSVAL    ON      N2   R$  000000000025000000000002580000000000247000000000025200000000002530000000000246000000000025400036000000000000030500000000000007716200000000000000009999123100000010000000000000BRIDVLACNOR5130
012020091802IDVL4       010INDUSVAL    PN      N2   R$  000000000025200000000002590000000000249000000000025000000000002490000000000249000000000025400043000000000000019900000000000004976500000000000000009999123100000010000000000000BRIDVLACNPR2130
012020091802IGTA3       010IGUATEMI    ON      NM   R$  000000000363700000000036370000000003503000000000354700000000035450000000003532000000000354509785000000000001846200000000006548912500000000000000009999123100000010000000000000BRIGTAACNOR5124
012020091802IRBR3       010IRBBRASIL REON      NM   R$  000000000059300000000005930000000000556000000000057200000000005620000000000562000000000056328500000000000029544800000000016910758900000000000000009999123100000010000000000000BRIRBRACNOR4108
012020091802ISBC34      010INVEST BCORPDRN          R$  000000000421400000000042140000000004214000000000421400000000042140000000000000000000000000000004000000000000001000000000000004214000000000000000009999123100000010000000000000BRISBCBDR008104
012020091802ITLC34      010INTEL       DRN          R$  000000002660800000000268520000000026475000000002663500000000268520000000026249000000002685200003000000000000000040000000000001065430000000000000009999123100000010000000000000BRITLCBDR005139
012020091802ITSA3       010ITAUSA      ON      N1   R$  000000000106500000000010660000000001030000000000104400000000010320000000001031000000000103300849000000000000283500000000000296192200000000000000009999123100000010000000000000BRITSAACNOR0401
012020091802ITSA4       010ITAUSA      PN      N1   R$  000000000092100000000009230000000000899000000000090600000000008990000000000899000000000090041755000000000036580000000000033154463100000000000000009999123100000010000000000000BRITSAACNPR7401
012020091802ITUB3       010ITAUUNIBANCOON      N1   R$  000000000223300000000022370000000002190000000000220200000000022010000000002200000000000220102130000000000000945500000000002082912000000000000000009999123100000010000000000000BRITUBACNOR4273
012020091802ITUB4       010ITAUUNIBANCOPN      N1   R$  000000000235000000000023620000000002303000000000232000000000023100000000002310000000000231159317000000000039088400000000090704715200000000000000009999123100000010000000000000BRITUBACNPR1273
012020091802JBDU3       010J B DUARTE  ON           R$  000000000020100000000002850000000000201000000000026000000000002500000000000250000000000026000268000000000000092800000000000024174200000000000000009999123100000010000000000000BRJBDUACNOR6142
012020091802JBDU4       010J B DUARTE  PN           R$  000000000012200000000001560000000000122000000000014600000000001400000000000140000000000014300984000000000000726500000000000106424700000000000000009999123100000010000000000000BRJBDUACNPR3142
012020091802JBSS3       010JBS         ON      NM   R$  000000000233000000000024010000000002297000000000233900000000023270000000002325000000000232732718000000000015176400000000035508076700000000000000009999123100000010000000000000BRJBSSACNOR8115
012020091802JDCO34      010JD COM      DRN          R$  000000004002500000000400250000000040025000000004002500000000400250000000000000000000004700000001000000000000000010000000000000400250000000000000009999123100000010000000000000BRJDCOBDR001100
012020091802JHSF3       010JHSF PART   ON      NM   R$  000000000076000000000007740000000000733000000000074700000000007450000000000742000000000074512852000000000008556700000000006397366500000000000000009999123100000010000000000000BRJHSFACNOR2116
012020091802JNJB34      010JOHNSON     DRN          R$  000000007810000000000798000000000078100000000007827200000000798000000000000000000000008500000005000000000000025930000000002029603000000000000000009999123100000010000000000000BRJNJBBDR002135
012020091802JOPA3       010JOSAPAR     ON           R$  000000000335000000000033500000000003350000000000335000000000033500000000002801000000000335000001000000000000000100000000000000335000000000000000009999123100000010000000000000BRJOPAACNOR5131
012020091802JPMC34      010JPMORGAN    DRN          R$  000000002599800000000265790000000025998000000002633400000000265790000000025600000000002657900011000000000000000840000000000022121300000000000000009999123100000010000000000000BRJPMCBDR009134
012020091802JPSA3       010JEREISSATI  ON           R$  000000000236200000000023620000000002253000000000228300000000022530000000002253000000000228000805000000000000164300000000000375159000000000000000009999123100000010000000000000BRJPSAACNOR6103
012020091802JSLG11      010JSL         ON  P   NM   R$  000000000093500000000009400000000000882000000000091000000000009050000000000905000000000090600735000000000000748500000000000681396800000000000000009999123100000010000000000000BRJSLGA02OR1100
012020091802K1RC34      010KROGER CO   DRN          R$  000000001735200000000173520000000017352000000001735200000000173520000000000000000000000000000001000000000000000080000000000001388160000000000000009999123100000010000000000000BRK1RCBDR001103
012020091802KEPL3       010KEPLER WEBERON           R$  000000000427700000000042770000000004041000000000411600000000040970000000004074000000000409900559000000000000094700000000000389790400000000000000009999123100000010000000000000BRKEPLACNOR1049
012020091802KHCB34      010KRAFT HEINZ DRN          R$  000000001580000000000158000000000015800000000001580000000000158000000000000000000000001950000001000000000000000100000000000001580000000000000000009999123100000010000000000000BRKHCBBDR007121
012020091802KLBN3       010KLABIN S/A  ON      N2   R$  000000000053800000000005520000000000528000000000053900000000005340000000000529000000000053700906000000000000316300000000000170722300000000000000009999123100000010000000000000BRKLBNACNOR2156
012020091802KLBN4       010KLABIN S/A  PN      N2   R$  000000000050300000000005190000000000495000000000050600000000004970000000000496000000000049802358000000000001471700000000000746124900000000000000009999123100000010000000000000BRKLBNACNPR9156
012020091802KLBN11      010KLABIN S/A  UNT     N2   R$  000000000254200000000026320000000002507000000000254400000000025190000000002519000000000252029617000000000012444300000000031659018500000000000000009999123100000010000000000000BRKLBNCDAM18128
012020091802L1UL34      010LULULEMON ATDRN          R$  000000003899900000000389990000000038999000000003899900000000389990000000000000000000000000000001000000000000000010000000000000389990000000000000009999123100000010000000000000BRL1ULBDR005100
012020091802LAME3       010LOJAS AMERICON      N1   R$  000000000257300000000025970000000002501000000000254300000000025320000000002526000000000253209921000000000003295900000000008383008700000000000000009999123100000010000000000000BRLAMEACNOR9202
012020091802LAME4       010LOJAS AMERICPN      N1   R$  000000000299000000000030350000000002905000000000295300000000029400000000002937000000000294028966000000000008496000000000025091780100000000000000009999123100000010000000000000BRLAMEACNPR6202
012020091802LAVV3       010LAVVI       ON      NM   R$  000000000080900000000008090000000000762000000000078400000000008050000000000805000000000081003301000000000001999600000000001568890300000000000000009999123100000010000000000000BRLAVVACNOR4100
012020091802LBRN34      010L BRANDS    DRN          R$  000000000400000000000040000000000004000000000000400000000000040000000000000000000000000000000001000000000000000120000000000000480000000000000000009999123100000010000000000000BRLBRNBDR001119
012020091802LCAM3       010LOCAMERICA  ON      NM   R$  000000000219900000000022150000000002140000000000217600000000021770000000002176000000000217706403000000000001764200000000003839205000000000000000009999123100000010000000000000BRLCAMACNOR3133
012020091802LEVE3       010METAL LEVE  ON      NM   R$  000000000180100000000018010000000001742000000000176100000000017460000000001746000000000174902189000000000000449200000000000791327600000000000000009999123100000010000000000000BRLEVEACNOR2187
012020091802LIGT3       010LIGHT S/A   ON      NM   R$  000000000150700000000015150000000001448000000000146900000000014590000000001458000000000145908862000000000002222200000000003266598100000000000000009999123100000010000000000000BRLIGTACNOR2120
012020091802LILY34      010LILLY       DRN          R$  000000004120000000000412000000000041200000000004120000000000412000000000000000000000000000000001000000000000000030000000000001236000000000000000009999123100000010000000000000BRLILYBDR006134
012020091802LINX3       010LINX        ON      NM   R$  000000000354900000000035900000000003510000000000354500000000035720000000003563000000000357205256000000000000936100000000003319173000000000000000009999123100000010000000000000BRLINXACNOR0118
012020091802LJQQ3       010QUERO-QUERO ON      NM   R$  000000000150300000000015150000000001468000000000148700000000014900000000001485000000000149002164000000000000575600000000000856002500000000000000009999123100000010000000000000BRLJQQACNOR5100
012020091802LOGG3       010LOG COM PROPON      NM   R$  000000000318100000000033900000000003181000000000325400000000032020000000003202000000000322404583000000000000956600000000003113502200000000000000009999123100000010000000000000BRLOGGACNOR7103
012020091802LOGN3       010LOG-IN      ON      NM   R$  000000000179000000000017970000000001724000000000174700000000017450000000001744000000000174603376000000000000771500000000001348267500000000000000009999123100000010000000000000BRLOGNACNOR3104
012020091802LPSB3       010LOPES BRASILON      NM   R$  000000000057200000000005760000000000553000000000056200000000005590000000000557000000000055901599000000000000654900000000000368603500000000000000009999123100000010000000000000BRLPSBACNOR0111
012020091802LREN3       010LOJAS RENNERON      NM   R$  000000000440700000000044470000000004224000000000428400000000042240000000004224000000000422933494000000000010378800000000044470792800000000000000009999123100000010000000000000BRLRENACNOR1203
012020091802LWSA3       010LOCAWEB     ON      NM   R$  000000000594000000000060190000000005820000000000592200000000058700000000005869000000000587005225000000000000962600000000005701395200000000000000009999123100000010000000000000BRLWSAACNOR8100
012020091802M1CH34      010MICROCHIP TEDRN          R$  000000002750000000000275000000000027500000000002750000000000275000000000000000000000000000000001000000000000000070000000000001925000000000000000009999123100000010000000000000BRM1CHBDR000103
012020091802M1GM34      010MGM RESORTS DRN ED       R$  000000001177900000000117790000000011779000000001177900000000117790000000000000000000000000000001000000000000000020000000000000235580000000000000009999123100000010000000000000BRM1GMBDR019103
012020091802M1NS34      010MONSTER BEVEDRN EB       R$  000000000525900000000052590000000005259000000000525900000000052590000000000000000000000000000002000000000000009120000000000047962080000000000000009999123100000010000000000000BRM1NSBDR004101
012020091802MCDC34      010MCDONALDS   DRN          R$  000000002960000000000296100000000029600000000002960900000000296100000000000000000000000000000002000000000000000840000000000024872000000000000000009999123100000010000000000000BRMCDCBDR000140
012020091802MDIA3       010M.DIASBRANCOON      NM   R$  000000000378600000000038280000000003696000000000374600000000037230000000003717000000000372304872000000000000746400000000002796294600000000000000009999123100000010000000000000BRMDIAACNOR7118
012020091802MDNE3       010MOURA DUBEUXON      NM   R$  000000000087900000000008820000000000825000000000085300000000008550000000000847000000000085501655000000000000475000000000000405613200000000000000009999123100000010000000000000BRMDNEACNOR9100
012020091802MDTC34      010MEDTRONIC   DRN          R$  000000002870800000000289790000000028708000000002888800000000289790000000000000000000000000000003000000000000000030000000000000866660000000000000009999123100000010000000000000BRMDTCBDR004117
012020091802MEAL3       010IMC S/A     ON      NM   R$  000000000036000000000003630000000000339000000000034900000000003410000000000341000000000034214149000000000026404400000000009218085000000000000000009999123100000010000000000000BRMEALACNOR9105
012020091802MELI34      010MERCADOLIBREDRN          R$  000000005200000000000537900000000051840000000005274100000000536010000000053010000000005360100073000000000000005970000000000314868260000000000000009999123100000010000000000000BRMELIBDR006100
012020091802METB34      010METLIFE INC DRN          R$  000000002130000000000213000000000021300000000002130000000000213000000000000000000000000000000001000000000000000040000000000000852000000000000000009999123100000010000000000000BRMETBBDR004121
012020091802MGEL4       010MANGELS INDLPN           R$  000000000058000000000005950000000000580000000000059200000000005950000000000595000000000061500010000000000000018100000000000010728500000000000000009999123100000010000000000000BRMGELACNPR3147
012020091802MGLU3       010MAGAZ LUIZA ON      NM   R$  000000000876000000000089550000000008604000000000876400000000087160000000008715000000000871653171000000000015117100000000132496931300000000000000009999123100000010000000000000BRMGLUACNOR2116
012020091802MILS3       010MILLS       ON      NM   R$  000000000066700000000006690000000000653000000000065800000000006530000000000653000000000065603319000000000001473300000000000970267900000000000000009999123100000010000000000000BRMILSACNOR2112
012020091802MNDL3       010MUNDIAL     ON           R$  000000000232000000000023200000000002320000000000232000000000023200000000002320000000000245000001000000000000000200000000000000464000000000000000009999123100000010000000000000BRMNDLACNOR4107
012020091802MNPR3       010MINUPAR     ON           R$  000000000057500000000005980000000000575000000000058600000000005980000000000585000000000059000015000000000000009100000000000005333500000000000000009999123100000010000000000000BRMNPRACNOR5122
012020091802MOOO34      010ALTRIA GROUPDRN ED       R$  000000002140000000000214000000000021400000000002140000000000214000000000000000000000000000000001000000000000000010000000000000214000000000000000009999123100000010000000000000BRMOOOBDR007105
012020091802MOVI3       010MOVIDA      ON      NM   R$  000000000176400000000017940000000001721000000000175300000000017450000000001738000000000174505179000000000001363200000000002390606000000000000000009999123100000010000000000000BRMOVIACNOR0111
012020091802MRCK34      010MERCK       DRN ED       R$  000000004550000000000457720000000045500000000004570900000000457720000000000000000000000000000002000000000000000260000000000011884400000000000000009999123100000010000000000000BRMRCKBDR003140
012020091802MRFG3       010MARFRIG     ON      NM   R$  000000000164700000000017100000000001629000000000165900000000016430000000001641000000000164332642000000000012215900000000020276647600000000000000009999123100000010000000000000BRMRFGACNOR0109
012020091802MRVE3       010MRV         ON      NM   R$  000000000169700000000016970000000001627000000000165100000000016270000000001627000000000163020738000000000006764300000000011170780500000000000000009999123100000010000000000000BRMRVEACNOR2120
012020091802MSBR34      010MORGAN STAN DRN          R$  000000002698000000000272100000000026980000000002701800000000272100000000000000000000000000000002000000000000000060000000000001621100000000000000009999123100000010000000000000BRMSBRBDR008129
012020091802MSCD34      010MASTERCARD  DRN          R$  000000017990000000001817700000000179900000000018052300000001817700000000151600000000000000000002000000000000000030000000000005415700000000000000009999123100000010000000000000BRMSCDBDR006137
012020091802MSFT34      010MICROSOFT   DRN          R$  000000010676400000001076610000000105520000000010614200000001075500000000105000000000010782700110000000000000009700000000001029582770000000000000009999123100000010000000000000BRMSFTBDR005139
012020091802MTRE3       010MITRE REALTYON      NM   R$  000000000151500000000015220000000001427000000000145600000000014650000000001453000000000146503396000000000000799800000000001165030100000000000000009999123100000010000000000000BRMTREACNOR6100
012020091802MTSA4       010METISA      PN           R$  000000000271000000000027880000000002521000000000262800000000026350000000002600000000000278000031000000000000010000000000000026282000000000000000009999123100000010000000000000BRMTSAACNPR9056
012020091802MULT3       010MULTIPLAN   ON      N2   R$  000000000229100000000022910000000002188000000000221800000000022070000000002207000000000220822483000000000004670100000000010361990100000000000000009999123100000010000000000000BRMULTACNOR5127
012020091802MYPK3       010IOCHP-MAXIONON      NM   R$  000000000132400000000014330000000001318000000000140100000000014150000000001412000000000141519762000000000006385300000000008946464500000000000000009999123100000010000000000000BRMYPKACNOR7148
012020091802N1EM34      010NEWMONT GOLDDRN ED       R$  000000003470000000000352290000000034700000000003509300000000350000000000033000000000000000000077000000000000016070000000000563949090000000000000009999123100000010000000000000BRN1EMBDR005103
012020091802N1XP34      010NXP SEMICONDDRN ED       R$  000000003329000000000332900000000033290000000003329000000000332900000000000000000000000000000001000000000000001320000000000043942800000000000000009999123100000010000000000000BRN1XPBDR008103
012020091802NEOE3       010NEOENERGIA  ON      NM   R$  000000000180100000000018150000000001780000000000179300000000017900000000001786000000000179005182000000000001688500000000003027482200000000000000009999123100000010000000000000BRNEOEACNOR3111
012020091802NFLX34      010NETFLIX     DRN          R$  000000024884800000002514900000000248848000000025060900000002514900000000235000000000027500000002000000000000000060000000000015036560000000000000009999123100000010000000000000BRNFLXBDR000101
012020091802NIKE34      010NIKE        DRN          R$  000000006199000000000619900000000061679000000006188600000000616790000000061841000000000000000002000000000000000030000000000001856590000000000000009999123100000010000000000000BRNIKEBDR006139
012020091802NORD3       010NORDON MET  ON           R$  000000000049600000000005480000000000496000000000052000000000005430000000000470000000000053900005000000000000000600000000000000312400000000000000009999123100000010000000000000BRNORDACNOR7135
012020091802NTCO3       010GRUPO NATURAON      NM   R$  000000000522400000000053100000000005113000000000520600000000052050000000005200000000000520520629000000000006398400000000033316438300000000000000009999123100000010000000000000BRNTCOACNOR5101
012020091802NVDC34      010NVIDIA CORP DRN          R$  000000006539500000000662290000000064698000000006520000000000662290000000066000000000006910000023000000000000002800000000000182562100000000000000009999123100000010000000000000BRNVDCBDR008106
012020091802ODPV3       010ODONTOPREV  ON  EJ  NM   R$  000000000127300000000012850000000001261000000000127000000000012670000000001265000000000126707115000000000002502200000000003180131100000000000000009999123100000010000000000000BRODPVACNOR4179
012020091802OFSA3       010OUROFINO S/AON      NM   R$  000000000288900000000029000000000002865000000000288700000000029000000000002895000000000290600059000000000000024700000000000071331700000000000000009999123100000010000000000000BROFSAACNOR7109
012020091802OMGE3       010OMEGA GER   ON      NM   R$  000000000393500000000039500000000003853000000000388600000000038680000000003868000000000388402604000000000000439000000000001706226200000000000000009999123100000010000000000000BROMGEACNOR0101
012020091802ORCL34      010ORACLE      DRN          R$  000000003188900000000320970000000031889000000003190700000000320970000000000000000000000000000002000000000000000110000000000003509870000000000000009999123100000010000000000000BRORCLBDR007134
012020091802OXYP34      010OCCIDENT PTRDRN ED       R$  000000000318500000000031850000000003105000000000316500000000031050000000000000000000000851300002000000000000000040000000000000126600000000000000009999123100000010000000000000BROXYPBDR000106
012020091802P1SX34      010PHILLIPS 66 DRN          R$  000000001562000000000156230000000015620000000001562100000000156230000000000000000000000000000002000000000000000200000000000003124210000000000000009999123100000010000000000000BRP1SXBDR000103
012020091802PARD3       010IHPARDINI   ON  EJ  NM   R$  000000000236400000000024230000000002335000000000237100000000023730000000002362000000000237305331000000000001197900000000002841198700000000000000009999123100000010000000000000BRPARDACNOR1115
012020091802PATI3       010PANATLANTICAON           R$  000000000220000000000022000000000002200000000000220000000000022000000000001980000000000218600001000000000000000200000000000000440000000000000000009999123100000010000000000000BRPATIACNOR6060
012020091802PCAR3       010P.ACUCAR-CBDON      NM   R$  000000000760000000000076210000000007460000000000752000000000075300000000007518000000000753009061000000000001805700000000013580466100000000000000009999123100000010000000000000BRPCARACNOR3163
012020091802PDTC3       010PADTEC      ON           R$  000000000053100000000005500000000000523000000000053900000000005450000000000531000000000054500075000000000000021000000000000011322400000000000000009999123100000010000000000000BRPDTCACNOR3100
012020091802PEAB3       010PAR AL BAHIAON           R$  000000000610700000000061070000000006107000000000610700000000061070000000006106000000000800000001000000000000000100000000000000610700000000000000009999123100000010000000000000BRPEABACNOR3124
012020091802PEPB34      010PEPSICO INC DRN          R$  000000007062700000000706270000000070627000000007062700000000706270000000065100000000000000000001000000000000000200000000000014125400000000000000009999123100000010000000000000BRPEPBBDR005132
012020091802PETR3       010PETROBRAS   ON      N2   R$  000000000221900000000022400000000002179000000000220600000000021940000000002194000000000219535379000000000028690200000000063297919500000000000000009999123100000010000000000000BRPETRACNOR9191
012020091802PETR4       010PETROBRAS   PN      N2   R$  000000000219900000000022150000000002155000000000218000000000021650000000002165000000000216763257000000000064243500000000140078607300000000000000009999123100000010000000000000BRPETRACNPR6197
012020091802PETZ3       010PETZ        ON      NM   R$  000000000154100000000015990000000001520000000000156300000000015240000000001523000000000152408576000000000005370600000000008396426300000000000000009999123100000010000000000000BRPETZACNOR2100
012020091802PFIZ34      010PFIZER      DRN          R$  000000001944500000000197650000000019445000000001971700000000197650000000019462000000001976500020000000000000001410000000000027801370000000000000009999123100000010000000000000BRPFIZBDR006140
012020091802PFRM3       010PROFARMA    ON      NM   R$  000000000049500000000004970000000000465000000000047500000000004800000000000476000000000048002739000000000001283300000000000610353600000000000000009999123100000010000000000000BRPFRMACNOR1112
012020091802PGCO34      010PG          DRN          R$  000000007300000000000740560000000073000000000007315000000000740560000000000000000000007405600002000000000000000070000000000005120560000000000000009999123100000010000000000000BRPGCOBDR001139
012020091802PGMN3       010PAGUE MENOS ON      NM   R$  000000000095900000000009600000000000938000000000094600000000009380000000000938000000000093900958000000000000338200000000000320123800000000000000009999123100000010000000000000BRPGMNACNOR8100
012020091802PINE4       010PINE        PN      N2   R$  000000000027400000000002740000000000265000000000026700000000002670000000000266000000000026700231000000000000103100000000000027599900000000000000009999123100000010000000000000BRPINEACNPR8144
012020091802PLAS3       010PLASCAR PARTON           R$  000000000044500000000004590000000000443000000000044700000000004590000000000442000000000045900006000000000000001000000000000000447700000000000000009999123100000010000000000000BRPLASACNOR2106
012020091802PLPL3       010PLANOEPLANO ON      NM   R$  000000000094000000000009480000000000860000000000089600000000009000000000000893000000000090005319000000000006292000000000005640719300000000000000009999123100000010000000000000BRPLPLACNOR5100
012020091802PMAM3       010PARANAPANEMAON      NM   R$  000000000117500000000011750000000001106000000000112300000000011060000000001106000000000113000302000000000000083200000000000093459500000000000000009999123100000010000000000000BRPMAMACNOR3037
012020091802PNVL3       010DIMED       ON           R$  000000000240300000000024620000000002391000000000241600000000024130000000002400000000000241302687000000000000632400000000001528102800000000000000009999123100000010000000000000BRPNVLACNOR9196
012020091802PNVL4       010DIMED       PN           R$  000000000214000000000021620000000002091000000000210800000000021200000000002099000000000212000111000000000000022500000000000047434500000000000000009999123100000010000000000000BRPNVLACNPR6196
012020091802POMO3       010MARCOPOLO   ON      N2   R$  000000000027800000000002780000000000271000000000027400000000002720000000000271000000000027200259000000000000105100000000000028855100000000000000009999123100000010000000000000BRPOMOACNOR0087
012020091802POMO4       010MARCOPOLO   PN      N2   R$  000000000029600000000002970000000000289000000000029200000000002910000000000291000000000029203558000000000005340800000000001564244400000000000000009999123100000010000000000000BRPOMOACNPR7087
012020091802POSI3       010POSITIVO TECON      NM   R$  000000000048300000000004850000000000469000000000047600000000004700000000000470000000000047302662000000000001161900000000000554004100000000000000009999123100000010000000000000BRPOSIACNOR9112
012020091802PPLA11      010PPLA        UNT          R$  000000000163800000000016380000000001550000000000156800000000015690000000001552000000000157000025000000000000004000000000000006273300000000000000009999123100000010000000000000BRPPLAUNT007101
012020091802PRIO3       010PETRORIO    ON      NM   R$  000000000388100000000039800000000003753000000000385700000000038110000000003800000000000381109721000000000002380200000000009182450600000000000000009999123100000010000000000000BRPRIOACNOR1102
012020091802PRNR3       010PRINER      ON      NM   R$  000000000094800000000009800000000000924000000000095900000000009800000000000942000000000098000313000000000000182500000000000175182400000000000000009999123100000010000000000000BRPRNRACNOR4105
012020091802PSSA3       010PORTO SEGUROON      NM   R$  000000000512600000000051410000000005028000000000507000000000050280000000005028000000000503304433000000000000741300000000003759052600000000000000009999123100000010000000000000BRPSSAACNOR7142
012020091802PTBL3       010PORTOBELLO  ON      NM   R$  000000000055200000000005550000000000536000000000054600000000005500000000000547000000000055001559000000000001190200000000000650358000000000000000009999123100000010000000000000BRPTBLACNOR8125
012020091802PTNT3       010PETTENATI   ON           R$  000000000058000000000005800000000000573000000000057600000000005730000000000560000000000057300007000000000000002800000000000001614800000000000000009999123100000010000000000000BRPTNTACNOR6039
012020091802PTNT4       010PETTENATI   PN           R$  000000000047200000000004840000000000470000000000047400000000004720000000000472000000000047900040000000000000005800000000000002750600000000000000009999123100000010000000000000BRPTNTACNPR3044
012020091802PYPL34      010PAYPAL HOLD DRN          R$  000000004696000000000473670000000046413000000004679200000000473670000000043500000000005000000007000000000000000120000000000005615110000000000000009999123100000010000000000000BRPYPLBDR002101
012020091802QCOM34      010QUALCOMM    DRN          R$  000000005965000000000596500000000059439000000005964500000000594390000000000000000000000000000002000000000000001440000000000085889670000000000000009999123100000010000000000000BRQCOMBDR007135
012020091802QUAL3       010QUALICORP   ON      NM   R$  000000000325000000000032510000000003156000000000319000000000031970000000003190000000000319711688000000000002863400000000009135362900000000000000009999123100000010000000000000BRQUALACNOR6113
012020091802RADL3       010RAIADROGASILON      NM   R$  000000001140300000000116950000000011400000000001152800000000115470000000011531000000001154708714000000000001837700000000021186755600000000000000009999123100000010000000000000BRRADLACNOR0136
012020091802RAIL3       010RUMO S.A.   ON      NM   R$  000000000217500000000021830000000002114000000000214100000000021350000000002135000000000213622447000000000010195700000000021830560700000000000000009999123100000010000000000000BRRAILACNOR9101
012020091802RANI3       010IRANI       ON           R$  000000000051100000000005140000000000490000000000050300000000005050000000000504000000000050503803000000000002349200000000001181886700000000000000009999123100000010000000000000BRRANIACNOR5053
012020091802RANI4       010IRANI       PN           R$  000000000088500000000008990000000000856000000000087600000000008620000000000858000000000086200054000000000000009500000000000008329900000000000000009999123100000010000000000000BRRANIACNPR2054
012020091802RAPT3       010RANDON PART ON      N1   R$  000000000094500000000009970000000000938000000000095700000000009690000000000951000000000096100041000000000000007600000000000007277800000000000000009999123100000010000000000000BRRAPTACNOR7153
012020091802RAPT4       010RANDON PART PN      N1   R$  000000000120400000000012330000000001189000000000121400000000012050000000001204000000000120508973000000000003391400000000004118257200000000000000009999123100000010000000000000BRRAPTACNPR4153
012020091802RCSL3       010RECRUSUL    ON           R$  000000000019600000000002090000000000196000000000019900000000002000000000000196000000000020000054000000000000022600000000000004509700000000000000009999123100000010000000000000BRRCSLACNOR4130
012020091802RCSL4       010RECRUSUL    PN           R$  000000000015200000000001600000000000141000000000015100000000001440000000000144000000000014511247000000000011442400000000001728596900000000000000009999123100000010000000000000BRRCSLACNPR1130
012020091802RDNI3       010RNI         ON      NM   R$  000000000101000000000010380000000000996000000000100100000000010380000000001000000000000103800043000000000000078700000000000078839900000000000000009999123100000010000000000000BRRDNIACNOR9113
012020091802REDE3       010REDE ENERGIAON           R$  000000000105000000000010500000000001050000000000105000000000010500000000001033000000000104700001000000000000000100000000000000105000000000000000009999123100000010000000000000BRREDEACNOR7115
012020091802REGN34      010REGENERON PHDRN          R$  000000005856100000000597590000000058561000000005916000000000597590000000000000000000005976800002000000000000000020000000000001183200000000000000009999123100000010000000000000BRREGNBDR005100
012020091802RENT3       010LOCALIZA    ON  EJ  NM   R$  000000000525800000000053390000000005218000000000527000000000052700000000005256000000000527015397000000000005774600000000030436686400000000000000009999123100000010000000000000BRRENTACNOR4179
012020091802RIGG34      010TRANSOCEAN  DRN          R$  000000000060000000000006000000000000552000000000056800000000005660000000000552000000000059500004000000000000000840000000000000477300000000000000009999123100000010000000000000BRRIGGBDR000100
012020091802RLOG3       010COSAN LOG   ON      NM   R$  000000000203900000000020430000000001987000000000201000000000020100000000002010000000000201402333000000000000614600000000001235366100000000000000009999123100000010000000000000BRRLOGACNOR4106
012020091802ROMI3       010INDS ROMI   ON      NM   R$  000000000125000000000012750000000001194000000000122700000000012000000000001200000000000121002444000000000000475300000000000583282400000000000000009999123100000010000000000000BRROMIACNOR8173
012020091802RPAD3       010ALFA HOLDINGON           R$  000000000061600000000006160000000000615000000000061500000000006150000000000609000000000065000003000000000000001100000000000000677400000000000000009999123100000010000000000000BRRPADACNOR1197
012020091802RPAD5       010ALFA HOLDINGPNA          R$  000000000089000000000008900000000000890000000000089000000000008900000000000885000000000094300001000000000000000100000000000000089000000000000000009999123100000010000000000000BRRPADACNPA4211
012020091802RSID3       010ROSSI RESID ON      NM   R$  000000000052800000000005280000000000510000000000051700000000005120000000000512000000000051800171000000000000061000000000000031580000000000000000009999123100000010000000000000BRRSIDACNOR8119
012020091802RYTT34      010RAYTHEONTECHDRN          R$  000000003352700000000335270000000033527000000003352700000000335270000000000000000000000000000001000000000000002110000000000070741970000000000000009999123100000010000000000000BRRYTTBDR003102
012020091802S1PO34      010SPOTIFY TECHDRN          R$  000000003096100000000311000000000030961000000003106500000000311000000000000000000000000000000002000000000000000040000000000001242610000000000000009999123100000010000000000000BRS1POBDR002100
012020091802SANB3       010SANTANDER BRON           R$  000000000132100000000013290000000001286000000000129800000000012990000000001295000000000129901786000000000000367300000000000477057200000000000000009999123100000010000000000000BRSANBACNOR8153
012020091802SANB4       010SANTANDER BRPN           R$  000000000148000000000015000000000001436000000000144900000000014420000000001442000000000145102121000000000000428400000000000621178200000000000000009999123100000010000000000000BRSANBACNPR5153
012020091802SANB11      010SANTANDER BRUNT          R$  000000000278600000000027890000000002720000000000274000000000027340000000002732000000000273415418000000000003897300000000010678606400000000000000009999123100000010000000000000BRSANBCDAM13146
012020091802SAPP34      010SAP SE      DRN          R$  000000008548200000000854820000000085482000000008548200000000854820000000000000000000000000000001000000000000000020000000000001709640000000000000009999123100000010000000000000BRSAPPBDR007101
012020091802SAPR3       010SANEPAR     ON      N2   R$  000000000056400000000005660000000000545000000000055500000000005500000000000550000000000055100745000000000000201500000000000111891900000000000000009999123100000010000000000000BRSAPRACNOR9150
012020091802SAPR4       010SANEPAR     PN      N2   R$  000000000053300000000005370000000000525000000000053100000000005330000000000532000000000053304735000000000003357200000000001784950200000000000000009999123100000010000000000000BRSAPRACNPR6150
012020091802SAPR11      010SANEPAR     UNT     N2   R$  000000000268700000000027100000000002637000000000267100000000026730000000002671000000000267406985000000000002202800000000005885636000000000000000009999123100000010000000000000BRSAPRCDAM13109
012020091802SBSP3       010SABESP      ON      NM   R$  000000000476700000000048430000000004638000000000474900000000047470000000004745000000000474718430000000000004997800000000023739207600000000000000009999123100000010000000000000BRSBSPACNOR5157
012020091802SCAR3       010SAO CARLOS  ON      NM   R$  000000000384900000000039330000000003849000000000388900000000039010000000003881000000000390400027000000000000004600000000000017892100000000000000009999123100000010000000000000BRSCARACNOR7128
012020091802SEER3       010SER EDUCA   ON      NM   R$  000000000161400000000016440000000001596000000000161700000000016050000000001602000000000160507923000000000001595500000000002581384500000000000000009999123100000010000000000000BRSEERACNOR5115
012020091802SGPS3       010SPRINGS     ON      NM   R$  000000000071800000000007180000000000692000000000070200000000007110000000000700000000000071100296000000000000106300000000000074641400000000000000009999123100000010000000000000BRSGPSACNOR4104
012020091802SHOW3       010TIME FOR FUNON      NM   R$  000000000028500000000002860000000000278000000000028200000000002840000000000284000000000028500593000000000000366300000000000103579800000000000000009999123100000010000000000000BRSHOWACNOR7105
012020091802SHUL4       010SCHULZ      PN           R$  000000000133100000000013340000000001262000000000129800000000012620000000001262000000000126501450000000000000312600000000000405866600000000000000009999123100000010000000000000BRSHULACNPR4136
012020091802SIMH3       010SIMPAR      ON      NM   R$  000000000302000000000031000000000002851000000000294200000000029400000000002913000000000294000778000000000000269700000000000793636700000000000000009999123100000010000000000000BRSIMHACNOR0100
012020091802SIMN34      010SIMON PROP  DRN          R$  000000000942100000000094690000000009421000000000942900000000094690000000006666000000000000000002000000000000000120000000000001131480000000000000009999123100000010000000000000BRSIMNBDR002104
012020091802SLCE3       010SLC AGRICOLAON      NM   R$  000000000257600000000026690000000002570000000000263500000000026500000000002640000000000265007959000000000002220300000000005850813900000000000000009999123100000010000000000000BRSLCEACNOR2115
012020091802SMLS3       010SMILES      ON      NM   R$  000000000165200000000016690000000001600000000000162800000000016300000000001623000000000163008001000000000001928200000000003139468600000000000000009999123100000010000000000000BRSMLSACNOR1109
012020091802SMTO3       010SAO MARTINHOON      NM   R$  000000000236500000000023990000000002319000000000235000000000023460000000002337000000000234605115000000000000854900000000002009358300000000000000009999123100000010000000000000BRSMTOACNOR3117
012020091802SOMA3       010GRUPO SOMA  ON      NM   R$  000000000104200000000010690000000001037000000000104600000000010450000000001036000000000104501538000000000000737700000000000772069900000000000000009999123100000010000000000000BRSOMAACNOR3100
012020091802SOND5       010SONDOTECNICAPNA          R$  000000000749900000000074990000000007294000000000744700000000072940000000005000000000000700000003000000000000000500000000000003723900000000000000009999123100000010000000000000BRSONDACNPA8161
012020091802SOND6       010SONDOTECNICAPNB          R$  000000000480000000000048000000000004800000000000480000000000048000000000003702000000000550000001000000000000000100000000000000480000000000000000009999123100000010000000000000BRSONDACNPB6161
012020091802SQIA3       010SINQIA      ON      NM   R$  000000000234400000000023500000000002279000000000230800000000023160000000002300000000000231602666000000000000442000000000001020411200000000000000009999123100000010000000000000BRSQIAACNOR6102
