00COTAHIST.2020BOVESPA 20200901                                                                                                                                                                                                                      
012020090102A1AP34      010ADVANCE AUTODRN          R$  000000002104000000000211220000000021040000000002104000000000211220000000000000000000000000000003000000000000003140000000000066067240000000000000009999123100000010000000000000BRA1APBDR001102
012020090102A1BM34      010ABIOMED INC DRN          R$  000000004104200000000410420000000041042000000004104200000000410420000000000000000000000000000010000000000000000100000000000004104200000000000000009999123100000010000000000000BRA1BMBDR006100
012020090102A1IV34      010APARTMENT INDRN          R$  000000001926000000000192600000000019222000000001924100000000192220000000000000000000000000000002000000000000000060000000000001154460000000000000009999123100000010000000000000BRA1IVBDR002103
012020090102A1LB34      010ALBEMARLE CODRN          R$  000000005000000000000521000000000050000000000005125100000000521000000000000000000000000000000029000000000000004010000000000205519600000000000000009999123100000010000000000000BRA1LBBDR008102
012020090102A1LX34      010ALEXION PHARDRN          R$  000000003096900000000309690000000030522000000003059800000000305220000000000000000000000000000002000000000000001750000000000053547600000000000000009999123100000010000000000000BRA1LXBDR002100
012020090102A1MB34      010AMERISOURCEBDRN          R$  000000002529400000000252940000000025294000000002529400000000252940000000000000000000000000000001000000000000000010000000000000252940000000000000009999123100000010000000000000BRA1MBBDR006103
012020090102A1MD34      010ADVANCED MICDRN          R$  000000004975800000000497580000000049072000000004907700000000490720000000000000000000000000000004000000000000004160000000000204161360000000000000009999123100000010000000000000BRA1MDBDR002100
012020090102A1PA34      010APACHE CORP DRN          R$  000000000791900000000079410000000007919000000000793000000000079410000000000000000000000000000010000000000000000190000000000001506810000000000000009999123100000010000000000000BRA1PABDR001103
012020090102A1VB34      010AVALONBAY CODRN          R$  000000002123800000000212380000000021238000000002123800000000212380000000000000000000000000000001000000000000000020000000000000424760000000000000009999123100000010000000000000BRA1VBBDR007102
012020090102AALL34      010AMERICAN AIRDRN          R$  000000000693000000000070990000000006911000000000697800000000070990000000005333000000000840000007000000000000000570000000000003977660000000000000009999123100000010000000000000BRAALLBDR003115
012020090102AALR3       010ALLIAR      ON      NM   R$  000000000121000000000012200000000001173000000000118800000000011800000000001177000000000118201805000000000000459300000000000546025400000000000000009999123100000010000000000000BRAALRACNOR6102
012020090102AAPL34      010APPLE       DRN EB       R$  000000000708000000000072500000000007030000000000712400000000072350000000007230000000000723500646000000000000146520000000001043857770000000000000009999123100000010000000000000BRAAPLBDR004135
012020090102ABBV34      010ABBVIE      DRN          R$  000000004900000000000497470000000049000000000004948200000000497470000000000000000000000000000004000000000000000280000000000013855040000000000000009999123100000010000000000000BRABBVBDR001118
012020090102ABCB4       010ABC BRASIL  PN      N2   R$  000000000135000000000013840000000001350000000000137300000000013800000000001380000000000138203864000000000000628800000000000863877300000000000000009999123100000010000000000000BRABCBACNPR4134
012020090102ABEV3       010AMBEV S/A   ON           R$  000000000125000000000012680000000001244000000000125700000000012650000000001261000000000126554315000000000031742100000000039925239900000000000000009999123100000010000000000000BRABEVACNOR1122
012020090102ABTT34      010ABBOTT      DRN          R$  000000001430100000000143010000000014301000000001430100000000143010000000000000000000001799500001000000000000000030000000000000429030000000000000009999123100000010000000000000BRABTTBDR007135
012020090102ABUD34      010AB INBEV    DRN          R$  000000003114200000000311420000000030781000000003093700000000309080000000000000000000000000000005000000000000000170000000000005259390000000000000009999123100000010000000000000BRABUDBDR009102
012020090102ADBE34      010ADOBE INC   DRN          R$  000000005654600000000565850000000056433000000005644300000000564330000000000000000000000000000003000000000000001610000000000090873460000000000000009999123100000010000000000000BRADBEBDR003100
012020090102ADHM3       010ADVANCED-DH ON           R$  000000000021900000000002230000000000215000000000021600000000002150000000000218000000000021900021000000000000010600000000000002300000000000000000009999123100000010000000000000BRADHMACNOR9102
012020090102AFLT3       010AFLUENTE T  ON           R$  000000000099700000000010560000000000970000000000100800000000010560000000001010000000000105000019000000000000003000000000000003025500000000000000009999123100000010000000000000BRAFLTACNOR1115
012020090102AGRO3       010BRASILAGRO  ON      NM   R$  000000000210000000000021180000000002084000000000210300000000021180000000002106000000000211800747000000000000144300000000000303522000000000000000009999123100000010000000000000BRAGROACNOR7109
012020090102AHEB3       010SPTURIS     ON           R$  000000000285000000000028500000000002580000000000265400000000026350000000002500000000000289500006000000000000000600000000000001592500000000000000009999123100000010000000000000BRAHEBACNOR0106
012020090102ALPA3       010ALPARGATAS  ON      N1   R$  000000000325500000000035500000000003255000000000346100000000034960000000003495000000000354700018000000000000002300000000000007962500000000000000009999123100000010000000000000BRALPAACNOR0229
012020090102ALPA4       010ALPARGATAS  PN      N1   R$  000000000373100000000038080000000003721000000000377700000000037900000000003790000000000379308150000000000002207600000000008340165500000000000000009999123100000010000000000000BRALPAACNPR7229
012020090102ALPK3       010ESTAPAR     ON      NM   R$  000000000098000000000009940000000000979000000000098800000000009850000000000985000000000099000212000000000000120800000000000119375400000000000000009999123100000010000000000000BRALPKACNOR9100
012020090102ALSO3       010ALIANSCSONAEON      NM   R$  000000000267800000000027770000000002659000000000272900000000027380000000002736000000000273807788000000000001597200000000004359850200000000000000009999123100000010000000000000BRALSOACNOR5100
012020090102ALUP3       010ALUPAR      ON      N2   R$  000000000095700000000009640000000000945000000000095600000000009580000000000952000000000096000106000000000000014900000000000014246300000000000000009999123100000010000000000000BRALUPACNOR8111
012020090102ALUP4       010ALUPAR      PN      N2   R$  000000000069200000000007060000000000692000000000069800000000006940000000000694000000000069800129000000000000021200000000000014811800000000000000009999123100000010000000000000BRALUPACNPR5111
012020090102ALUP11      010ALUPAR      UNT     N2   R$  000000000235200000000023770000000002337000000000235900000000023680000000002362000000000236804385000000000000739000000000001743784700000000000000009999123100000010000000000000BRALUPCDAM15111
012020090102AMAR3       010LOJAS MARISAON      NM   R$  000000000085300000000008640000000000842000000000085500000000008540000000000854000000000085606240000000000003003300000000002570218500000000000000009999123100000010000000000000BRAMARACNOR4112
012020090102AMBP3       010AMBIPAR     ON      NM   R$  000000000315800000000031680000000003106000000000314000000000031350000000003135000000000313901001000000000000687200000000002157881100000000000000009999123100000010000000000000BRAMBPACNOR6100
012020090102AMGN34      010AMGEN       DRN          R$  000000013499900000001355610000000134999000000013530600000001350410000000000000000000000000000006000000000000000850000000000115010350000000000000009999123100000010000000000000BRAMGNBDR004135
012020090102AMZO34      010AMAZON      DRN          R$  000000094371900000009446000000000935500000000094042500000009440000000000889200000000107500000014000000000000000550000000000517233960000000000000009999123100000010000000000000BRAMZOBDR002101
012020090102ANIM3       010ANIMA       ON      NM   R$  000000000300000000000030230000000002913000000000294200000000029250000000002920000000000292906236000000000001048200000000003084299100000000000000009999123100000010000000000000BRANIMACNOR6106
012020090102APER3       010ALPER S.A.  ON      NM   R$  000000000274000000000028070000000002700000000000274800000000027590000000002750000000000277000066000000000000010400000000000028580500000000000000009999123100000010000000000000BRAPERACNOR9102
012020090102ARMT34      010ARCELOR     DRN          R$  000000000331100000000033170000000003308000000000331300000000033170000000002764000000000000000014000000000000010500000000000034794000000000000000009999123100000010000000000000BRARMTBDR008117
012020090102ARZZ3       010AREZZO CO   ON      NM   R$  000000000561500000000059520000000005600000000000587500000000058870000000005871000000000588705129000000000001588700000000009334900200000000000000009999123100000010000000000000BRARZZACNOR3137
012020090102ATOM3       010ATOMPAR     ON           R$  000000000028000000000002860000000000277000000000028000000000002790000000000279000000000028200185000000000000089700000000000025182900000000000000009999123100000010000000000000BRATOMACNOR1103
012020090102ATTB34      010ATT INC     DRN          R$  000000001600000000000160000000000015732000000001583400000000158810000000015000000000001588100014000000000000000720000000000011401090000000000000009999123100000010000000000000BRATTBBDR007132
012020090102ATVI34      010ACTIVISION  DRN          R$  000000004538900000000453890000000044308000000004508300000000443080000000044301000000000000000005000000000000000090000000000004057480000000000000009999123100000010000000000000BRATVIBDR008101
012020090102AURA32      010AURA 360    DR2 EB       R$  000000000664900000000066490000000006476000000000656100000000065500000000006491000000000655000244000000000000056100000000000368080500000000000000009999123100000010000000000000BRAURABDR001102
012020090102AVGO34      010BROADCOM INCDRN          R$  000000003861400000000386140000000038614000000003861400000000386140000000000000000000000000000001000000000000000800000000000030891200000000000000009999123100000010000000000000BRAVGOBDR003105
012020090102AZEV3       010AZEVEDO     ON           R$  000000000105500000000011000000000001055000000000107900000000010700000000001073000000000110000009000000000000001500000000000001619300000000000000009999123100000010000000000000BRAZEVACNOR0117
012020090102AZEV4       010AZEVEDO     PN           R$  000000000038600000000003960000000000385000000000038900000000003900000000000390000000000039500049000000000000015900000000000006187100000000000000009999123100000010000000000000BRAZEVACNPR7117
012020090102AZUL4       010AZUL        PN      N2   R$  000000000223600000000023140000000002211000000000227700000000022910000000002291000000000229228181000000000012297600000000028008334100000000000000009999123100000010000000000000BRAZULACNPR4100
012020090102B1BT34      010TRUIST FINANDRN          R$  000000002085800000000208580000000020858000000002085800000000208580000000000000000000000000000002000000000000000300000000000006257400000000000000009999123100000010000000000000BRB1BTBDR000103
012020090102B3SA3       010B3          ON      NM   R$  000000000593400000000060290000000005926000000000599100000000060050000000006002000000000600533111000000000012563900000000075278947200000000000000009999123100000010000000000000BRB3SAACNOR6111
012020090102BABA34      010ALIBABAGR   DRN          R$  000000015759900000001601540000000157599000000015919200000001601540000000159400000000016500000024000000000000001140000000000181479380000000000000009999123100000010000000000000BRBABABDR005100
012020090102BAHI3       010BAHEMA      ON      MA   R$  000000001250100000000126300000000012501000000001259600000000126280000000011700000000001262800004000000000000000400000000000005038700000000000000009999123100000010000000000000BRBAHIACNOR1071
012020090102BALM3       010BAUMER      ON           R$  000000000184500000000019000000000001830000000000186200000000018400000000001702000000000190000007000000000000000800000000000001490000000000000000009999123100000010000000000000BRBALMACNOR5050
012020090102BALM4       010BAUMER      PN           R$  000000000115000000000012400000000001139000000000115700000000011400000000001140000000000118000027000000000000003300000000000003818600000000000000009999123100000010000000000000BRBALMACNPR2051
012020090102BAUH4       010EXCELSIOR   PN           R$  000000000900000000000090000000000008801000000000896400000000089990000000008500000000000900000010000000000000001400000000000012550400000000000000009999123100000010000000000000BRBAUHACNPR3115
012020090102BAZA3       010AMAZONIA    ON           R$  000000000399900000000042000000000003999000000000409300000000040390000000003956000000000403900031000000000000004000000000000016372700000000000000009999123100000010000000000000BRBAZAACNOR0174
012020090102BBAS3       010BRASIL      ON  EJ  NM   R$  000000000331500000000033590000000003292000000000332700000000033210000000003320000000000332234169000000000012354600000000041110732200000000000000009999123100000010000000000000BRBBASACNOR3292
012020090102BBDC3       010BRADESCO    ON      N1   R$  000000000194100000000019700000000001937000000000195800000000019620000000001961000000000196213477000000000005110000000000010008387400000000000000009999123100000010000000000000BRBBDCACNOR1714
012020090102BBDC4       010BRADESCO    PN      N1   R$  000000000210500000000021320000000002097000000000211400000000021160000000002116000000000211754424000000000041339100000000087417095000000000000000009999123100000010000000000000BRBBDCACNPR8714
012020090102BBRK3       010BR BROKERS  ON      NM   R$  000000000017300000000001740000000000169000000000017000000000001710000000000171000000000017300401000000000000544500000000000093052400000000000000009999123100000010000000000000BRBBRKACNOR4113
012020090102BBSE3       010BBSEGURIDADEON      NM   R$  000000000267600000000027260000000002673000000000269600000000026900000000002689000000000269322721000000000006693100000000018050310400000000000000009999123100000010000000000000BRBBSEACNOR5117
012020090102BBYY34      010BEST BUY    DRN          R$  000000006135900000000613590000000061359000000006135900000000613590000000000000000000006200000001000000000000000010000000000000613590000000000000009999123100000010000000000000BRBBYYBDR005113
012020090102BCSA34      010SANTANDER   DRN          R$  000000000122400000000012240000000001180000000000119300000000011860000000001187000000000119400135000000000000064610000000000077095420000000000000009999123100000010000000000000BRBCSABDR005101
012020090102BEEF3       010MINERVA     ON      NM   R$  000000000131700000000013180000000001282000000000129200000000012910000000001290000000000129118352000000000006913500000000008933682300000000000000009999123100000010000000000000BRBEEFACNOR6108
012020090102BEES3       010BANESTES    ON  EJ       R$  000000000054700000000005510000000000539000000000054300000000005410000000000541000000000054200227000000000000059500000000000032319600000000000000009999123100000010000000000000BRBEESACNOR9339
012020090102BEES4       010BANESTES    PN  EJ       R$  000000000056500000000005690000000000560000000000056600000000005660000000000566000000000057100036000000000000006000000000000003396600000000000000009999123100000010000000000000BRBEESACNPR6264
012020090102BERK34      010BERKSHIRE   DRN          R$  000000011900000000001190000000000116000000000011692100000001173090000000115000000000011730900075000000000000001670000000000195258140000000000000009999123100000010000000000000BRBERKBDR002100
012020090102BGIP3       010BANESE      ON           R$  000000000499000000000049900000000004500000000000471300000000046000000000004400000000000470000029000000000000002900000000000013668900000000000000009999123100000010000000000000BRBGIPACNOR1199
012020090102BGIP4       010BANESE      PN           R$  000000000270000000000027890000000002700000000000274300000000027340000000002615000000000272200004000000000000000400000000000001097200000000000000009999123100000010000000000000BRBGIPACNPR8199
012020090102BIDI3       010BANCO INTER ON      N2   R$  000000000204400000000020440000000001982000000000200400000000020120000000002000000000000201202695000000000000429800000000000861423200000000000000009999123100000010000000000000BRBIDIACNOR3107
012020090102BIDI4       010BANCO INTER PN      N2   R$  000000000227500000000022800000000002181000000000224300000000022590000000002257000000000225908944000000000003128900000000007018794200000000000000009999123100000010000000000000BRBIDIACNPR0111
012020090102BIDI11      010BANCO INTER UNT     N2   R$  000000000652100000000065800000000006361000000000646100000000065150000000006476000000000651503674000000000004968000000000032098275100000000000000009999123100000010000000000000BRBIDICDAXX3106
012020090102BIDU34      010BAIDU INC   DRN          R$  000000006860000000000686000000000068600000000006860000000000686000000000000000000000000000000001000000000000000020000000000001372000000000000000009999123100000010000000000000BRBIDUBDR002100
012020090102BIOM3       010BIOMM       ON      MA   R$  000000000161900000000016250000000001590000000000161100000000016040000000001600000000000161000067000000000000011500000000000018537200000000000000009999123100000010000000000000BRBIOMACNOR2107
012020090102BKBR3       010BK BRASIL   ON      NM   R$  000000000110800000000011400000000001085000000000112900000000011400000000001131000000000114103709000000000002974800000000003360800600000000000000009999123100000010000000000000BRBKBRACNOR4103
012020090102BKNG34      010BOOKING     DRN          R$  000000004200000000000420000000000041000000000004145200000000416990000000041006000000004490000019000000000000000610000000000025286040000000000000009999123100000010000000000000BRBKNGBDR006100
012020090102BLAK34      010BLACKROCK   DRN          R$  000000005296100000000529610000000052961000000005296100000000529610000000042369000000000000000001000000000000000010000000000000529610000000000000009999123100000010000000000000BRBLAKBDR003117
012020090102BMEB4       010MERC BRASIL PN           R$  000000000154000000000016400000000001540000000000158100000000015600000000001560000000000158000024000000000000004800000000000007589000000000000000009999123100000010000000000000BRBMEBACNPR5201
012020090102BMGB4       010BANCO BMG   PN      N1   R$  000000000052800000000005450000000000522000000000053800000000005440000000000543000000000054404899000000000001726100000000000929727600000000000000009999123100000010000000000000BRBMGBACNPR0101
012020090102BMIN3       010MERC INVEST ON           R$  000000000237800000000023780000000002292000000000233300000000023700000000002292000000000237000004000000000000000400000000000000933200000000000000009999123100000010000000000000BRBMINACNOR4168
012020090102BMIN4       010MERC INVEST PN           R$  000000000214900000000022500000000002040000000000210500000000020400000000002040000000000210000011000000000000001100000000000002316400000000000000009999123100000010000000000000BRBMINACNPR1171
012020090102BMKS3       010BIC MONARK  ON           R$  000000002400000000000240000000000023000000000002395600000000230000000000022710000000002300000004000000000000000023000000000000551000000000000000009999123100000010000000000000BRBMKSACNOR9162
012020090102BMYB34      010BRISTOLMYERSDRN          R$  000000003269100000000327280000000032691000000003272400000000327280000000028400000000000000000002000000000000000220000000000007199420000000000000009999123100000010000000000000BRBMYBBDR000127
012020090102BNBR3       010NORD BRASIL ON           R$  000000000817600000000084890000000008100000000000824900000000082000000000007828000000000848800035000000000000003500000000000028873800000000000000009999123100000010000000000000BRBNBRACNOR8200
012020090102BOAC34      010BANK AMERICADRN          R$  000000001380000000000138570000000013716000000001380900000000138570000000013792000000001385700008000000000000002140000000000029553170000000000000009999123100000010000000000000BRBOACBDR004139
012020090102BOBR4       010BOMBRIL     PN           R$  000000000021100000000002110000000000205000000000020600000000002090000000000207000000000020900312000000000000098400000000000020320800000000000000009999123100000010000000000000BRBOBRACNPR3128
012020090102BONY34      010BNY MELLON  DRN          R$  000000002006000000000200600000000020060000000002006000000000200600000000018600000000000000000001000000000000000200000000000004012000000000000000009999123100000010000000000000BRBONYBDR001120
012020090102BOXP34      010BOSTON PROP DRN          R$  000000000463600000000046360000000004587000000000459900000000045870000000004588000000000592000002000000000000000040000000000000183970000000000000009999123100000010000000000000BRBOXPBDR008120
012020090102BPAC3       010BTGP BANCO  ON      N2   R$  000000000463000000000047120000000004563000000000464200000000046230000000004621000000000466000037000000000000003900000000000018104500000000000000009999123100000010000000000000BRBPACACNOR7122
012020090102BPAC5       010BTGP BANCO  PNA     N2   R$  000000000176000000000018700000000001760000000000182800000000018450000000001806000000000186800026000000000000003900000000000007131000000000000000009999123100000010000000000000BRBPACACNPA0122
012020090102BPAC11      010BTGP BANCO  UNT     N2   R$  000000000801100000000083860000000008011000000000827800000000083860000000008356000000000838620683000000000004784500000000039609363500000000000000009999123100000010000000000000BRBPACUNT006107
012020090102BPAN4       010BANCO PAN   PN      N1   R$  000000000084700000000008750000000000847000000000086000000000008730000000000870000000000087309615000000000005149900000000004432606700000000000000009999123100000010000000000000BRBPANACNPR1109
012020090102BRAP3       010BRADESPAR   ON      N1   R$  000000000400100000000040440000000003994000000000401900000000040050000000003975000000000403400062000000000000009500000000000038185900000000000000009999123100000010000000000000BRBRAPACNOR5136
012020090102BRAP4       010BRADESPAR   PN      N1   R$  000000000441700000000045440000000004412000000000450200000000045180000000004518000000000452011706000000000001904600000000008575711400000000000000009999123100000010000000000000BRBRAPACNPR2136
012020090102BRDT3       010PETROBRAS BRON      NM   R$  000000000215200000000022360000000002149000000000220900000000022200000000002220000000000222127601000000000007807700000000017253763200000000000000009999123100000010000000000000BRBRDTACNOR1120
012020090102BRFS3       010BRF SA      ON      NM   R$  000000000198000000000019960000000001951000000000197100000000019880000000001986000000000198826706000000000014278800000000028150549800000000000000009999123100000010000000000000BRBRFSACNOR8119
012020090102BRGE3       010ALFA CONSORCON           R$  000000000090500000000009440000000000905000000000091300000000009060000000000905000000000094400004000000000000000500000000000000456600000000000000009999123100000010000000000000BRBRGEACNOR6202
012020090102BRGE8       010ALFA CONSORCPND          R$  000000000084000000000008680000000000790000000000081800000000008680000000000750000000000085000016000000000000001800000000000001473500000000000000009999123100000010000000000000BRBRGEACNPD3214
012020090102BRGE12      010ALFA CONSORCPNF          R$  000000000065000000000006500000000000640000000000064200000000006410000000000525000000000064900003000000000000000600000000000000385400000000000000009999123100000010000000000000BRBRGEACNPF8096
012020090102BRIV3       010ALFA INVEST ON           R$  000000000075600000000008000000000000756000000000079600000000008000000000000761000000000080000010000000000000001800000000000001433000000000000000009999123100000010000000000000BRBRIVACNOR6205
012020090102BRIV4       010ALFA INVEST PN           R$  000000000074700000000007500000000000737000000000074600000000007380000000000738000000000074900016000000000000006900000000000005153200000000000000009999123100000010000000000000BRBRIVACNPR3211
012020090102BRKM3       010BRASKEM     ON      N1   R$  000000000222000000000022600000000002215000000000223000000000022300000000002230000000000224700043000000000000008100000000000018069300000000000000009999123100000010000000000000BRBRKMACNOR1117
012020090102BRKM5       010BRASKEM     PNA     N1   R$  000000000213000000000021800000000002112000000000214300000000021500000000002146000000000215009116000000000002027900000000004345825900000000000000009999123100000010000000000000BRBRKMACNPA4117
012020090102BRML3       010BR MALLS PARON      NM   R$  000000000094200000000009670000000000936000000000095600000000009670000000000967000000000096839998000000000018775600000000017960085700000000000000009999123100000010000000000000BRBRMLACNOR9115
012020090102BRPR3       010BR PROPERT  ON      NM   R$  000000000091500000000009460000000000914000000000093700000000009440000000000942000000000094406779000000000001684300000000001578699100000000000000009999123100000010000000000000BRBRPRACNOR9119
012020090102BRSR3       010BANRISUL    ON      N1   R$  000000000151000000000015100000000001476000000000150000000000015000000000001492000000000150000030000000000000004800000000000007202700000000000000009999123100000010000000000000BRBRSRACNOR3168
012020090102BRSR6       010BANRISUL    PNB     N1   R$  000000000132800000000013290000000001313000000000132100000000013270000000001325000000000132712126000000000002228500000000002946005500000000000000009999123100000010000000000000BRBRSRACNPB4171
012020090102BSEV3       010BIOSEV      ON      NM   R$  000000000045500000000004680000000000435000000000045000000000004630000000000440000000000046300585000000000000254700000000000114665800000000000000009999123100000010000000000000BRBSEVACNOR3102
012020090102BSLI4       010BRB BANCO   PN           R$  000000001127000000000112700000000011270000000001127000000000112700000000010200000000001999000001000000000000000100000000000001127000000000000000009999123100000010000000000000BRBSLIACNPR2176
012020090102BTOW3       010B2W DIGITAL ON      NM   R$  000000001131000000000115630000000011220000000001137600000000113510000000011345000000001135110950000000000002691600000000030621726100000000000000009999123100000010000000000000BRBTOWACNOR8111
012020090102BTTL3       010BATTISTELLA ON           R$  000000000100000000000010670000000000910000000000097000000000010580000000001040000000000106000188000000000000038700000000000037546900000000000000009999123100000010000000000000BRBTTLACNOR0108
012020090102C1BO34      010CBOE GLOBAL DRN ED       R$  000000002382800000000238280000000023828000000002382800000000238280000000000000000000000000000001000000000000000020000000000000476560000000000000009999123100000010000000000000BRC1BOBDR000103
012020090102C1HR34      010CH ROBINSON DRN          R$  000000002663700000000266370000000026637000000002663700000000266370000000000000000000000000000001000000000000001700000000000045282900000000000000009999123100000010000000000000BRC1HRBDR000102
012020090102C1IC34      010CIGNA CORP  DRN          R$  000000002366600000000236660000000023666000000002366600000000236660000000000000000000000000000001000000000000000090000000000002129940000000000000009999123100000010000000000000BRC1ICBDR000101
012020090102C1MG34      010CHIPOTLE MEXDRN          R$  000000003640000000000364000000000036400000000003640000000000364000000000000000000000000000000001000000000000000010000000000000364000000000000000009999123100000010000000000000BRC1MGBDR003100
012020090102C1TA34      010CINTAS CORP DRN          R$  000000003584400000000358440000000035844000000003584400000000358440000000000000000000000000000001000000000000000160000000000005735040000000000000009999123100000010000000000000BRC1TABDR001100
012020090102CAMB3       010CAMBUCI     ON           R$  000000000044400000000004500000000000434000000000043800000000004350000000000435000000000044000223000000000000058100000000000025494000000000000000009999123100000010000000000000BRCAMBACNOR4119
012020090102CAML3       010CAMIL       ON      NM   R$  000000000128100000000012940000000001261000000000127500000000012670000000001266000000000126705930000000000001394100000000001778626900000000000000009999123100000010000000000000BRCAMLACNOR3110
012020090102CARD3       010CSU CARDSYSTON      NM   R$  000000000165100000000016700000000001628000000000165100000000016600000000001655000000000166001077000000000000230500000000000380723000000000000000009999123100000010000000000000BRCARDACNOR9118
012020090102CBEE3       010AMPLA ENERG ON           R$  000000000165000000000017000000000001650000000000165700000000017000000000001651000000000179000005000000000000000700000000000001160000000000000000009999123100000010000000000000BRCBEEACNOR3155
012020090102CCPR3       010CYRE COM-CCPON      NM   R$  000000000148100000000015070000000001475000000000148900000000014750000000001473000000000150001560000000000000262500000000000391012800000000000000009999123100000010000000000000BRCCPRACNOR9114
012020090102CCRO3       010CCR SA      ON      NM   R$  000000000135100000000014140000000001337000000000139500000000014050000000001405000000000140636603000000000010531400000000014693001300000000000000009999123100000010000000000000BRCCROACNOR2137
012020090102CEAB3       010CEA MODAS   ON      NM   R$  000000000121600000000012790000000001196000000000124600000000012790000000001275000000000127910820000000000003676800000000004582640800000000000000009999123100000010000000000000BRCEABACNOR1101
012020090102CEBR3       010CEB         ON           R$  000000000737500000000073750000000006550000000000685200000000066000000000006400000000000682500045000000000000005800000000000039742600000000000000009999123100000010000000000000BRCEBRACNOR5118
012020090102CEBR6       010CEB         PNB          R$  000000000670000000000071990000000006700000000000701600000000071990000000006900000000000719900003000000000000000300000000000002104900000000000000009999123100000010000000000000BRCEBRACNPB6117
012020090102CEDO3       010CEDRO       ON      N1   R$  000000000106000000000011450000000001051000000000107500000000011220000000001051000000000110600012000000000000002100000000000002257500000000000000009999123100000010000000000000BRCEDOACNOR8096
012020090102CEDO4       010CEDRO       PN      N1   R$  000000000057900000000005790000000000563000000000056600000000005630000000000563000000000059000007000000000000001600000000000000906200000000000000009999123100000010000000000000BRCEDOACNPR5128
012020090102CEED3       010CEEE-D      ON      N1   R$  000000000569000000000056900000000005400000000000550000000000054050000000004900000000000550000007000000000000000700000000000003850000000000000000009999123100000010000000000000BRCEEDACNOR9102
012020090102CESP3       010CESP        ON      N1   R$  000000000351200000000035120000000003431000000000346800000000034600000000003440000000000346000069000000000000017200000000000059657800000000000000009999123100000010000000000000BRCESPACNOR3169
012020090102CESP5       010CESP        PNA     N1   R$  000000000325400000000032540000000003254000000000325400000000032540000000003308000000000370000001000000000000000100000000000000325400000000000000009999123100000010000000000000BRCESPACNPA6116
012020090102CESP6       010CESP        PNB     N1   R$  000000000302300000000030450000000003010000000000302300000000030210000000003021000000000302312870000000000002576300000000007789181400000000000000009999123100000010000000000000BRCESPACNPB4128
012020090102CGAS3       010COMGAS      ON           R$  000000001730000000000173010000000017300000000001730000000000173010000000017310000000001740000002000000000000000200000000000003460100000000000000009999123100000010000000000000BRCGASACNOR0151
012020090102CGAS5       010COMGAS      PNA          R$  000000001870000000000190680000000018700000000001897300000000190680000000018952000000001906800019000000000000003200000000000060714100000000000000009999123100000010000000000000BRCGASACNPA3148
012020090102CGRA3       010GRAZZIOTIN  ON           R$  000000000271900000000027260000000002606000000000267300000000026120000000002612000000000265700075000000000000016800000000000044921400000000000000009999123100000010000000000000BRCGRAACNOR2071
012020090102CGRA4       010GRAZZIOTIN  PN           R$  000000000275000000000027500000000002700000000000272000000000027200000000002720000000000273000152000000000000029300000000000079702400000000000000009999123100000010000000000000BRCGRAACNPR9071
012020090102CHME34      010CME GROUP   DRN          R$  000000002334400000000233440000000023344000000002334400000000233440000000000000000000000000000001000000000000000010000000000000233440000000000000009999123100000010000000000000BRCHMEBDR007105
012020090102CHVX34      010CHEVRON     DRN          R$  000000002280000000000228000000000022290000000002242100000000224200000000021000000000002242000007000000000000001570000000000035202220000000000000009999123100000010000000000000BRCHVXBDR008138
012020090102CIEL3       010CIELO       ON      NM   R$  000000000045700000000004660000000000453000000000045900000000004550000000000455000000000045634096000000000049886300000000022933533700000000000000009999123100000010000000000000BRCIELACNOR3142
012020090102CLSC3       010CELESC      ON      N2   R$  000000000639400000000063940000000005900000000000617800000000062990000000005900000000000639400005000000000000000500000000000003089300000000000000009999123100000010000000000000BRCLSCACNOR6136
012020090102CLSC4       010CELESC      PN      N2   R$  000000000559000000000056990000000005528000000000562000000000056850000000005529000000000568600026000000000000002900000000000016300600000000000000009999123100000010000000000000BRCLSCACNPR3115
012020090102CMCS34      010COMCAST     DRN          R$  000000002402700000000242760000000023951000000002419900000000242760000000000000000000002427600008000000000000005140000000000124384780000000000000009999123100000010000000000000BRCMCSBDR008135
012020090102CMIG3       010CEMIG       ON      N1   R$  000000000106200000000011050000000001060000000000109500000000010960000000001096000000000109805977000000000002926500000000003206271900000000000000009999123100000010000000000000BRCMIGACNOR6224
012020090102CMIG4       010CEMIG       PN      N1   R$  000000000106500000000010900000000001058000000000107700000000010840000000001084000000000108534124000000000011304000000000012177658700000000000000009999123100000010000000000000BRCMIGACNPR3225
012020090102CNTO3       010CENTAURO    ON      NM   R$  000000000305300000000032180000000003015000000000317300000000032130000000003210000000000321311363000000000003041200000000009652682300000000000000009999123100000010000000000000BRCNTOACNOR5100
012020090102COCA34      010COCA COLA   DRN          R$  000000002654900000000265490000000026115000000002635000000000263710000000026400000000000000000013000000000000000490000000000012911720000000000000009999123100000010000000000000BRCOCABDR002135
012020090102COCE3       010COELCE      ON           R$  000000000788800000000078880000000007300000000000759900000000074010000000007400000000000780000019000000000000001900000000000014438600000000000000009999123100000010000000000000BRCOCEACNOR0139
012020090102COCE5       010COELCE      PNA          R$  000000000613400000000062470000000005995000000000608500000000061490000000006051000000000614900208000000000000027300000000000166145800000000000000009999123100000010000000000000BRCOCEACNPA3140
012020090102COGN3       010COGNA ON    ON      NM   R$  000000000057800000000006020000000000574000000000059200000000005950000000000595000000000059643990000000000068815100000000040753711600000000000000009999123100000010000000000000BRCOGNACNOR2101
012020090102COPH34      010COPHILLIPS  DRN          R$  000000000499100000000049910000000004991000000000499100000000049910000000004500000000000000000002000000000000000040000000000000199640000000000000009999123100000010000000000000BRCOPHBDR009135
012020090102COTY34      010COTY INC    DRN          R$  000000000096300000000009630000000000954000000000095900000000009540000000000955000000000101900003000000000000002370000000000002273100000000000000009999123100000010000000000000BRCOTYBDR006116
012020090102COWC34      010COSTCO      DRN          R$  000000004679900000000473940000000046799000000004682700000000473940000000000000000000000000000006000000000000001150000000000053851400000000000000009999123100000010000000000000BRCOWCBDR006119
012020090102CPFE3       010CPFL ENERGIAON      NM   R$  000000000289800000000029380000000002861000000000290600000000029260000000002926000000000292714742000000000002611800000000007590147100000000000000009999123100000010000000000000BRCPFEACNOR0130
012020090102CPLE3       010COPEL       ON      N1   R$  000000000612300000000061600000000006068000000000611900000000061600000000006133000000000616003275000000000000603400000000003692723600000000000000009999123100000010000000000000BRCPLEACNOR8139
012020090102CPLE6       010COPEL       PNB     N1   R$  000000000626400000000063400000000006224000000000629100000000063280000000006328000000000633007816000000000001268000000000007977541500000000000000009999123100000010000000000000BRCPLEACNPB9136
012020090102CRFB3       010CARREFOUR BRON  EJ  NM   R$  000000000196300000000020200000000001954000000000199800000000020200000000002014000000000202019521000000000010390300000000020768970700000000000000009999123100000010000000000000BRCRFBACNOR2107
012020090102CRIV3       010ALFA FINANC ON           R$  000000000059900000000005990000000000553000000000056300000000005750000000000555000000000057700008000000000000002400000000000001353200000000000000009999123100000010000000000000BRCRIVACNOR4194
012020090102CRIV4       010ALFA FINANC PN           R$  000000000061000000000006450000000000610000000000063800000000006450000000000614000000000064300006000000000000001300000000000000830000000000000000009999123100000010000000000000BRCRIVACNPR1204
012020090102CRPG5       010CRISTAL     PNA          R$  000000000211000000000021210000000002030000000000205400000000020300000000002001000000000207000120000000000000015200000000000031231800000000000000009999123100000010000000000000BRCRPGACNPA3108
012020090102CRPG6       010CRISTAL     PNB          R$  000000000210000000000021000000000001996000000000200500000000020450000000001995000000000204500070000000000000023000000000000046132500000000000000009999123100000010000000000000BRCRPGACNPB1108
012020090102CSAB3       010SEG AL BAHIAON           R$  000000000509900000000051500000000004850000000000501200000000051440000000004511000000000513900022000000000000002200000000000011028300000000000000009999123100000010000000000000BRCSABACNOR1058
012020090102CSAN3       010COSAN       ON      NM   R$  000000000840700000000085480000000008134000000000826700000000081690000000008169000000000817913011000000000002177700000000018003507900000000000000009999123100000010000000000000BRCSANACNOR6120
012020090102CSCO34      010CISCO       DRN          R$  000000002237800000000223780000000022378000000002237800000000223780000000022000000000000000000001000000000000000010000000000000223780000000000000009999123100000010000000000000BRCSCOBDR004138
012020090102CSMG3       010COPASA      ON      NM   R$  000000000480100000000049060000000004761000000000486000000000048950000000004885000000000489506208000000000000987400000000004799420200000000000000009999123100000010000000000000BRCSMGACNOR5156
012020090102CSNA3       010SID NACIONALON           R$  000000000154200000000015640000000001529000000000154600000000015470000000001544000000000154725660000000000009473600000000014654089400000000000000009999123100000010000000000000BRCSNAACNOR6252
012020090102CSRN3       010COSERN      ON           R$  000000000179000000000017900000000001690000000000173200000000017500000000001701000000000178900005000000000000001600000000000002772000000000000000009999123100000010000000000000BRCSRNACNOR0172
012020090102CTGP34      010CITIGROUP   DRN          R$  000000002736300000000275690000000027363000000002746600000000275690000000027000000000002756900002000000000000000140000000000003845240000000000000009999123100000010000000000000BRCTGPBDR000139
012020090102CTKA3       010KARSTEN     ON           R$  000000000153500000000015350000000001535000000000153500000000015350000000001531000000000169900002000000000000000500000000000000767500000000000000009999123100000010000000000000BRCTKAACNOR0043
012020090102CTKA4       010KARSTEN     PN           R$  000000000121000000000012150000000001162000000000119400000000011880000000001171000000000118800014000000000000001900000000000002269700000000000000009999123100000010000000000000BRCTKAACNPR7043
012020090102CTNM3       010COTEMINAS   ON           R$  000000000108600000000011500000000001085000000000110800000000011500000000001102000000000115000012000000000000002600000000000002882300000000000000009999123100000010000000000000BRCTNMACNOR9130
012020090102CTNM4       010COTEMINAS   PN           R$  000000000059500000000005950000000000580000000000058400000000005830000000000582000000000058300063000000000000021400000000000012514600000000000000009999123100000010000000000000BRCTNMACNPR6129
012020090102CTSA3       010SANTANENSE  ON           R$  000000000027500000000002750000000000268000000000027100000000002730000000000268000000000027300033000000000000005500000000000001490500000000000000009999123100000010000000000000BRCTSAACNOR3060
012020090102CTSA4       010SANTANENSE  PN           R$  000000000023000000000002450000000000230000000000023600000000002350000000000233000000000023500029000000000000011100000000000002627300000000000000009999123100000010000000000000BRCTSAACNPR0060
012020090102CVCB3       010CVC BRASIL  ON      NM   R$  000000000184400000000019070000000001840000000000187800000000018700000000001869000000000187010942000000000003711800000000006972131700000000000000009999123100000010000000000000BRCVCBACNOR1113
012020090102CVSH34      010CVS HEALTH  DRN          R$  000000001614900000000168990000000016100000000001625100000000168990000000013833000000001689900008000000000000001220000000000019826600000000000000009999123100000010000000000000BRCVSHBDR008117
012020090102CYRE3       010CYRELA REALTON      NM   R$  000000000243700000000024890000000002412000000000245200000000024530000000002451000000000245330984000000000007124400000000017471319800000000000000009999123100000010000000000000BRCYREACNOR7134
012020090102D1HI34      010DR HORTON INDRN          R$  000000003876000000000387600000000038760000000003876000000000387600000000000000000000000000000001000000000000000140000000000005426400000000000000009999123100000010000000000000BRD1HIBDR008103
012020090102D1LR34      010DIGITAL REALDRN          R$  000000002105900000000210590000000020628000000002075200000000206280000000000000000000000000000003000000000000000040000000000000830080000000000000009999123100000010000000000000BRD1LRBDR001102
012020090102D1OM34      010DOMINION ENEDRN          R$  000000002103500000000210350000000020886000000002093200000000208860000000000000000000000000000005000000000000000870000000000018211300000000000000009999123100000010000000000000BRD1OMBDR006102
012020090102D1XC34      010DXC TECHNOLODRN          R$  000000001060100000000107530000000010601000000001065100000000107530000000000000000000000000000002000000000000000030000000000000319550000000000000009999123100000010000000000000BRD1XCBDR008101
012020090102DBAG34      010DEUTSCHE AK DRN          R$  000000000512900000000051290000000005129000000000512900000000051290000000000000000000000000000002000000000000000360000000000001846440000000000000009999123100000010000000000000BRDBAGBDR008100
012020090102DEAI34      010DELTA       DRN          R$  000000001692000000000169200000000016300000000001656600000000165600000000011500000000002300000023000000000000002630000000000043569100000000000000009999123100000010000000000000BRDEAIBDR008116
012020090102DGCO34      010DOLLAR GENERDRN          R$  000000005425500000000542550000000054255000000005425500000000542550000000000000000000000000000002000000000000000030000000000001627650000000000000009999123100000010000000000000BRDGCOBDR007105
012020090102DHER34      010DANAHER CORPDRN          R$  000000002793000000000279300000000027930000000002793000000000279300000000000000000000000000000001000000000000000020000000000000558600000000000000009999123100000010000000000000BRDHERBDR004121
012020090102DIRR3       010DIRECIONAL  ON      NM   R$  000000000150900000000015470000000001491000000000152600000000015460000000001540000000000154604125000000000001014400000000001548891900000000000000009999123100000010000000000000BRDIRRACNOR0112
012020090102DISB34      010WALT DISNEY DRN          R$  000000007260000000000726000000000070601000000007121000000000718360000000071500000000000000000035000000000000000850000000000060529210000000000000009999123100000010000000000000BRDISBBDR006114
012020090102DMMO3       010DOMMO       ON           R$  000000000012700000000001300000000000125000000000012700000000001260000000000126000000000012701386000000000004367700000000000558212100000000000000009999123100000010000000000000BRDMMOACNOR0102
012020090102DMVF3       010D1000VFARMA ON      NM   R$  000000000121000000000012260000000001205000000000121500000000012180000000001208000000000121800714000000000000213500000000000259608500000000000000009999123100000010000000000000BRDMVFACNOR9100
012020090102DOHL3       010DOHLER      ON           R$  000000000145000000000014500000000001450000000000145000000000014500000000000800000000000239000001000000000000000100000000000000145000000000000000009999123100000010000000000000BRDOHLACNOR2058
012020090102DOHL4       010DOHLER      PN           R$  000000000051900000000005200000000000512000000000051400000000005150000000000514000000000051900018000000000000006300000000000003243600000000000000009999123100000010000000000000BRDOHLACNPR9061
012020090102DTCY3       010DTCOM-DIRECTON           R$  000000000071000000000007100000000000667000000000068000000000006800000000000679000000000068400048000000000000021000000000000014284700000000000000009999123100000010000000000000BRDTCYACNOR5109
012020090102DTEX3       010DURATEX     ON      NM   R$  000000000161300000000017300000000001613000000000170300000000017210000000001721000000000172216317000000000006340700000000010802963900000000000000009999123100000010000000000000BRDTEXACNOR3128
012020090102E1QR34      010EQUITY RESIDDRN          R$  000000001517800000000151780000000015178000000001517800000000151780000000000000000000000000000001000000000000000020000000000000303560000000000000009999123100000010000000000000BRE1QRBDR009101
012020090102E1SS34      010ESSEX PROPERDRN          R$  000000001152200000000115400000000011522000000001152900000000115400000000000000000000000000000002000000000000000870000000000010030800000000000000009999123100000010000000000000BRE1SSBDR003102
012020090102E1XC34      010EXELON CORP DRN          R$  000000001956000000000195600000000019560000000001956000000000195600000000000000000000000000000001000000000000000010000000000000195600000000000000009999123100000010000000000000BRE1XCBDR007103
012020090102E1XR34      010EXTRA SPACE DRN          R$  000000001440200000000144380000000014341000000001438000000000143410000000000000000000000000000003000000000000000080000000000001150440000000000000009999123100000010000000000000BRE1XRBDR005102
012020090102EAIN34      010ELECTR ARTS DRN          R$  000000003755200000000375520000000036930000000003707600000000371720000000036000000000000000000003000000000000000160000000000005932300000000000000009999123100000010000000000000BREAINBDR007100
012020090102EALT3       010ACO ALTONA  ON           R$  000000000122100000000012350000000001221000000000122800000000012350000000001210000000000125100002000000000000000200000000000000245600000000000000009999123100000010000000000000BREALTACNOR4133
012020090102EALT4       010ACO ALTONA  PN           R$  000000000054900000000005600000000000535000000000054900000000005550000000000555000000000056000163000000000000083300000000000045745300000000000000009999123100000010000000000000BREALTACNPR1133
012020090102EBAY34      010EBAY        DRN ED       R$  000000001512000000000151200000000014523000000001461900000000145230000000000000000000000000000003000000000000000090000000000001315760000000000000009999123100000010000000000000BREBAYBDR009108
012020090102ECOR3       010ECORODOVIAS ON      NM   R$  000000000130800000000013500000000001294000000000133100000000013410000000001340000000000134113076000000000005093400000000006783642000000000000000009999123100000010000000000000BRECORACNOR8116
012020090102ECPR4       010ENCORPAR    PN           R$  000000000750000000000075000000000007500000000000750000000000075000000000000000000000000850000001000000000000000100000000000000750000000000000000009999123100000010000000000000BRECPRACNPR2111
012020090102EEEL4       010CEEE-GT     PN      N1   R$  000000003999900000000399990000000039999000000003999900000000399990000000010000000000003999900001000000000000000100000000000003999900000000000000009999123100000010000000000000BREEELACNPR5107
012020090102EGIE3       010ENGIE BRASILON      NM   R$  000000000429200000000044080000000004292000000000434400000000043610000000004361000000000436411864000000000002004400000000008707326800000000000000009999123100000010000000000000BREGIEACNOR9113
012020090102ELET3       010ELETROBRAS  ON      N1   R$  000000000361000000000036780000000003583000000000363200000000036500000000003649000000000365019564000000000004651700000000016896653900000000000000009999123100000010000000000000BRELETACNOR6155
012020090102ELET6       010ELETROBRAS  PNB     N1   R$  000000000363900000000037030000000003615000000000367000000000036890000000003687000000000368911205000000000002192800000000008048268600000000000000009999123100000010000000000000BRELETACNPB7072
012020090102EMAE4       010EMAE        PN           R$  000000000296600000000029950000000002941000000000297000000000029790000000002892000000000298000018000000000000002600000000000007724000000000000000009999123100000010000000000000BREMAEACNPR1114
012020090102EMBR3       010EMBRAER     ON      NM   R$  000000000074400000000007800000000000732000000000076200000000007670000000000766000000000076734324000000000016221100000000012374572300000000000000009999123100000010000000000000BREMBRACNOR4189
012020090102ENAT3       010ENAUTA PART ON      NM   R$  000000000113900000000011670000000001120000000000114300000000011460000000001144000000000114606581000000000001777200000000002032016800000000000000009999123100000010000000000000BRENATACNOR0101
012020090102ENBR3       010ENERGIAS BR ON      NM   R$  000000000187700000000019730000000001877000000000191000000000018990000000001898000000000189921431000000000005170600000000009880946200000000000000009999123100000010000000000000BRENBRACNOR2129
012020090102ENEV3       010ENEVA       ON      NM   R$  000000000495600000000050280000000004878000000000495100000000049860000000004980000000000498610627000000000001702800000000008431544300000000000000009999123100000010000000000000BRENEVACNOR8104
012020090102ENGI3       010ENERGISA    ON      N2   R$  000000000128400000000013290000000001284000000000131800000000013080000000001308000000000131700040000000000000004600000000000006063300000000000000009999123100000010000000000000BRENGIACNOR0138
012020090102ENGI4       010ENERGISA    PN      N2   R$  000000000077300000000007910000000000756000000000077900000000007710000000000770000000000078900054000000000000010100000000000007871700000000000000009999123100000010000000000000BRENGIACNPR7134
012020090102ENGI11      010ENERGISA    UNT     N2   R$  000000000438100000000044920000000004353000000000444100000000044280000000004428000000000443812671000000000002173100000000009651913500000000000000009999123100000010000000000000BRENGICDAM16128
012020090102ENMT3       010ENERGISA MT ON           R$  000000000299000000000029900000000002990000000000299000000000029900000000002610000000000299000001000000000000000100000000000000299000000000000000009999123100000010000000000000BRENMTACNOR5111
012020090102ENMT4       010ENERGISA MT PN           R$  000000000299000000000029900000000002990000000000299000000000029900000000002610000000000298900001000000000000000100000000000000299000000000000000009999123100000010000000000000BRENMTACNPR2114
012020090102EQIX34      010EQUINIX INC DRN          R$  000000008414500000000841450000000084145000000008414500000000841450000000000000000000000000000001000000000000001200000000000100974000000000000000009999123100000010000000000000BREQIXBDR002106
012020090102EQPA3       010EQTL PARA   ON           R$  000000000033900000000003440000000000332000000000033700000000003400000000000336000000000034000100000000000000034300000000000011587600000000000000009999123100000010000000000000BREQPAACNOR1101
012020090102EQPA7       010EQTL PARA   PNC          R$  000000000057500000000005750000000000570000000000057400000000005700000000000530000000000057500009000000000000003000000000000001724100000000000000009999123100000010000000000000BREQPAACNPC0101
012020090102EQTL3       010EQUATORIAL  ON      NM   R$  000000000234600000000024070000000002340000000000238400000000023970000000002396000000000239722317000000000006667800000000015899249600000000000000009999123100000010000000000000BREQTLACNOR0126
012020090102EUCA3       010EUCATEX     ON      N1   R$  000000000230000000000023600000000002285000000000233700000000023600000000002292000000000235500009000000000000001200000000000002804800000000000000009999123100000010000000000000BREUCAACNOR1151
012020090102EUCA4       010EUCATEX     PN      N1   R$  000000000065400000000006540000000000638000000000064800000000006490000000000640000000000064900306000000000000150100000000000097349100000000000000009999123100000010000000000000BREUCAACNPR8038
012020090102EVEN3       010EVEN        ON      NM   R$  000000000130600000000013300000000001271000000000129600000000013000000000001300000000000130109706000000000002764100000000003584961500000000000000009999123100000010000000000000BREVENACNOR8112
012020090102EXXO34      010EXXON MOBIL DRN          R$  000000000534200000000053420000000005279000000000530300000000053120000000005200000000000531200019000000000000002770000000000014690730000000000000009999123100000010000000000000BREXXOBDR006140
012020090102EZTC3       010EZTEC       ON      NM   R$  000000000386000000000039990000000003860000000000394100000000039850000000003985000000000398721876000000000005098400000000020095926600000000000000009999123100000010000000000000BREZTCACNOR0114
012020090102F1NI34      010FIDELITY NATDRN          R$  000000002036000000000203600000000020309000000002035900000000203090000000000000000000000000000002000000000000002020000000000041126180000000000000009999123100000010000000000000BRF1NIBDR004102
012020090102F1RI34      010FEDERAL REALDRN          R$  000000001059900000000108190000000010599000000001073700000000106890000000000000000000001208000010000000000000000680000000000007301660000000000000009999123100000010000000000000BRF1RIBDR005102
012020090102FBOK34      010FACEBOOK    DRN          R$  000000008149000000000814900000000079200000000008015300000000795270000000079000000000007966000059000000000000005630000000000451266430000000000000009999123100000010000000000000BRFBOKBDR006100
012020090102FDMO34      010FORD MOTORS DRN          R$  000000000366100000000036610000000003661000000000366100000000036610000000002911000000000000000001000000000000000100000000000000366100000000000000009999123100000010000000000000BRFDMOBDR008133
012020090102FESA4       010FERBASA     PN      N1   R$  000000000178900000000018540000000001787000000000183100000000018470000000001844000000000184701320000000000000307300000000000562670500000000000000009999123100000010000000000000BRFESAACNPR5066
012020090102FLRY3       010FLEURY      ON      NM   R$  000000000265100000000026900000000002612000000000264900000000026490000000002647000000000264923592000000000003871400000000010258612800000000000000009999123100000010000000000000BRFLRYACNOR5127
012020090102FRAS3       010FRAS-LE     ON      N1   R$  000000000051900000000005270000000000508000000000051900000000005240000000000520000000000052400335000000000000066600000000000034611300000000000000009999123100000010000000000000BRFRASACNOR0149
012020090102G1WW34      010WW GRAINGER DRN          R$  000000003935800000000394850000000039358000000003942500000000394850000000000000000000000000000004000000000000000970000000000038243050000000000000009999123100000010000000000000BRG1WWBDR005103
012020090102GEOO34      010GE          DRN          R$  000000000334200000000033420000000003342000000000334200000000033420000000003340000000000334200001000000000000000300000000000001002600000000000000009999123100000010000000000000BRGEOOBDR000140
012020090102GEPA3       010GER PARANAP ON           R$  000000000410400000000042000000000004020000000000413400000000042000000000004200000000000438500004000000000000000700000000000002894400000000000000009999123100000010000000000000BRGEPAACNOR2146
012020090102GEPA4       010GER PARANAP PN           R$  000000000468000000000047900000000004680000000000474800000000047020000000004700000000000489900008000000000000000800000000000003799100000000000000009999123100000010000000000000BRGEPAACNPR9153
012020090102GFSA3       010GAFISA      ON  ES  NM   R$  000000000049600000000005020000000000488000000000049300000000004940000000000493000000000049405321000000000004581600000000002259641900000000000000009999123100000010000000000000BRGFSAACNOR3119
012020090102GGBR3       010GERDAU      ON      N1   R$  000000000160300000000016680000000001588000000000164300000000016650000000001665000000000166800359000000000000115800000000000190301300000000000000009999123100000010000000000000BRGGBRACNOR1173
012020090102GGBR4       010GERDAU      PN      N1   R$  000000000192500000000020000000000001916000000000197200000000020000000000002000000000000200124855000000000012963400000000025569592000000000000000009999123100000010000000000000BRGGBRACNPR8173
012020090102GMCO34      010GENERAL MOT DRN          R$  000000001588700000000159110000000015887000000001588700000000159110000000010000000000000000000002000000000000000410000000000006513910000000000000009999123100000010000000000000BRGMCOBDR008115
012020090102GNDI3       010INTERMEDICA ON      NM   R$  000000000746100000000075810000000007438000000000749700000000074530000000007453000000000746320426000000000004695700000000035205135400000000000000009999123100000010000000000000BRGNDIACNOR2102
012020090102GOAU3       010GERDAU MET  ON      N1   R$  000000000077900000000008000000000000765000000000078700000000008000000000000790000000000080000256000000000000099200000000000078087000000000000000009999123100000010000000000000BRGOAUACNOR1250
012020090102GOAU4       010GERDAU MET  PN      N1   R$  000000000088200000000009140000000000879000000000090000000000009140000000000912000000000091421537000000000014169200000000012758880600000000000000009999123100000010000000000000BRGOAUACNPR8251
012020090102GOGL34      010ALPHABET    DRN A        R$  000000003660000000000366000000000035048000000003544000000000356990000000035600000000003700000155000000000000014120000000000500423720000000000000009999123100000010000000000000BRGOGLBDR001100
012020090102GOGL35      010ALPHABET    DRN C        R$  000000003543000000000359000000000035425000000003570300000000358440000000000000000000003584400021000000000000009560000000000341330030000000000000009999123100000010000000000000BRGOGLBDR019100
012020090102GOLL4       010GOL         PN      N2   R$  000000000184100000000019030000000001824000000000186900000000018820000000001882000000000188324242000000000012889100000000024102571800000000000000009999123100000010000000000000BRGOLLACNPR4125
012020090102GPIV33      010GP INVEST   DR3          R$  000000000053100000000005800000000000531000000000055900000000005680000000000553000000000056800255000000000000135600000000000075889800000000000000009999123100000010000000000000BRGPIVBDR003104
012020090102GRND3       010GRENDENE    ON      NM   R$  000000000076700000000007980000000000762000000000078900000000007980000000000793000000000079803422000000000001158600000000000915225600000000000000009999123100000010000000000000BRGRNDACNOR3158
012020090102GSGI34      010GOLDMANSACHSDRN ED       R$  000000001101000000000110790000000010929000000001098600000000110790000000000000000000000000000004000000000000000090000000000000988800000000000000009999123100000010000000000000BRGSGIBDR008140
012020090102GSHP3       010GENERALSHOPPON      NM   R$  000000000479000000000047910000000004790000000000479000000000047910000000004790000000000570000002000000000000000200000000000000958100000000000000009999123100000010000000000000BRGSHPACNOR7102
012020090102GUAR3       010GUARARAPES  ON           R$  000000000176500000000018020000000001756000000000178600000000018020000000001796000000000180203010000000000000848600000000001516136300000000000000009999123100000010000000000000BRGUARACNOR4165
012020090102H1FC34      010HOLLYFRONTIEDRN          R$  000000001287500000000128750000000012700000000001278700000000127000000000000000000000000000000002000000000000000440000000000005626500000000000000009999123100000010000000000000BRH1FCBDR001103
012020090102H1LT34      010HILTON WORLDDRN          R$  000000002454100000000245410000000024541000000002454100000000245410000000000000000000000000000001000000000000000090000000000002208690000000000000009999123100000010000000000000BRH1LTBDR003101
012020090102H1OG34      010HARLEY-DAVIDDRN          R$  000000001454800000000151310000000014548000000001456200000000151310000000000000000000000000000003000000000000000410000000000005970510000000000000009999123100000010000000000000BRH1OGBDR004102
012020090102HAGA3       010HAGA S/A    ON           R$  000000000032400000000003400000000000318000000000033400000000003320000000000332000000000033500066000000000000023000000000000007703400000000000000009999123100000010000000000000BRHAGAACNOR7103
012020090102HAGA4       010HAGA S/A    PN           R$  000000000020300000000002120000000000199000000000020600000000002050000000000205000000000020800830000000000000262900000000000054167200000000000000009999123100000010000000000000BRHAGAACNPR4103
012020090102HALI34      010HALLIBURTON DRN ED       R$  000000000878500000000088070000000008785000000000879900000000088070000000000000000000000000000003000000000000000030000000000000263990000000000000009999123100000010000000000000BRHALIBDR004135
012020090102HAPV3       010HAPVIDA     ON      NM   R$  000000000655000000000069560000000006495000000000684300000000068990000000006899000000000690020962000000000004072800000000027872926300000000000000009999123100000010000000000000BRHAPVACNOR4105
012020090102HBOR3       010HELBOR      ON      NM   R$  000000000120300000000012430000000001160000000000120300000000012370000000001235000000000123707408000000000004061700000000004886415400000000000000009999123100000010000000000000BRHBORACNOR3114
012020090102HBTS5       010HABITASUL   PNA          R$  000000000289900000000028990000000002899000000000289900000000028990000000002002000000000288800001000000000000000100000000000000289900000000000000009999123100000010000000000000BRHBTSACNPA3124
012020090102HGTX3       010CIA HERING  ON      NM   R$  000000000183300000000019950000000001833000000000195800000000019940000000001992000000000199425592000000000009620300000000018839199800000000000000009999123100000010000000000000BRHGTXACNOR9151
012020090102HOME34      010HOME DEPOT  DRN          R$  000000007591000000000772550000000075910000000007655500000000772550000000073500000000000000000002000000000000000250000000000019138900000000000000009999123100000010000000000000BRHOMEBDR002133
012020090102HONB34      010HONEYWELL   DRN          R$  000000008943700000000894370000000089437000000008943700000000894370000000000000000000000000000001000000000000000100000000000008943700000000000000009999123100000010000000000000BRHONBBDR006127
012020090102HOND34      010HONDA MO    DRN          R$  000000001369900000000137000000000013699000000001369900000000137000000000000000000000000000000002000000000000000040000000000000547970000000000000009999123100000010000000000000BRHONDBDR002103
012020090102HYPE3       010HYPERA      ON      NM   R$  000000000320600000000032530000000003168000000000322300000000032160000000003216000000000322418637000000000003383900000000010908984200000000000000009999123100000010000000000000BRHYPEACNOR0122
012020090102I1LM34      010ILLUMINA INCDRN          R$  000000003740000000000374000000000037400000000003740000000000374000000000000000000000000000000018000000000000003400000000000127160000000000000000009999123100000010000000000000BRI1LMBDR007100
012020090102I1NF34      010IHS MARKIT LDRN          R$  000000002167300000000216730000000021673000000002167300000000216730000000000000000000000000000001000000000000003000000000000065019000000000000000009999123100000010000000000000BRI1NFBDR007103
012020090102I1RM34      010IRON MOUNTAIDRN          R$  000000001615900000000161590000000016081000000001612000000000160810000000000000000000000000000002000000000000000060000000000000967200000000000000009999123100000010000000000000BRI1RMBDR004102
012020090102IBMB34      010IBM         DRN          R$  000000006633000000000663300000000066330000000006633000000000663300000000065000000000000000000018000000000000001800000000000119394000000000000000009999123100000010000000000000BRIBMBBDR003135
012020090102IDVL3       010INDUSVAL    ON      N2   R$  000000000024900000000002510000000000247000000000024800000000002510000000000248000000000025000048000000000000024800000000000006160500000000000000009999123100000010000000000000BRIDVLACNOR5130
012020090102IDVL4       010INDUSVAL    PN      N2   R$  000000000026500000000002650000000000255000000000025600000000002560000000000256000000000026100040000000000000021100000000000005412400000000000000009999123100000010000000000000BRIDVLACNPR2130
012020090102IGTA3       010IGUATEMI    ON      NM   R$  000000000330100000000034970000000003301000000000344000000000034800000000003469000000000348013890000000000002927800000000010073796400000000000000009999123100000010000000000000BRIGTAACNOR5124
012020090102IRBR3       010IRBBRASIL REON      NM   R$  000000000072000000000007230000000000691000000000070200000000006970000000000697000000000069838624000000000032354200000000022730768600000000000000009999123100000010000000000000BRIRBRACNOR4108
012020090102ITLC34      010INTEL       DRN          R$  000000002715000000000273640000000027100000000002719700000000273640000000027200000000002736400006000000000000000250000000000006799260000000000000009999123100000010000000000000BRITLCBDR005139
012020090102ITSA3       010ITAUSA      ON  ED  N1   R$  000000000108800000000010880000000001070000000000107700000000010700000000001070000000000108001041000000000000332000000000000357605100000000000000009999123100000010000000000000BRITSAACNOR0401
012020090102ITSA4       010ITAUSA      PN  ED  N1   R$  000000000095400000000009720000000000952000000000096300000000009720000000000970000000000097232443000000000025321400000000024398582500000000000000009999123100000010000000000000BRITSAACNPR7401
012020090102ITUB3       010ITAUUNIBANCOON  ED  N1   R$  000000000228700000000023160000000002275000000000230700000000023160000000002316000000000231802113000000000000654100000000001509036700000000000000009999123100000010000000000000BRITUBACNOR4273
012020090102ITUB4       010ITAUUNIBANCOPN  ED  N1   R$  000000000238700000000024340000000002373000000000241200000000024340000000002433000000000243469705000000000056182800000000135513830100000000000000009999123100000010000000000000BRITUBACNPR1273
012020090102JBDU3       010J B DUARTE  ON           R$  000000000024700000000002470000000000245000000000024500000000002450000000000245000000000024700011000000000000003000000000000000737700000000000000009999123100000010000000000000BRJBDUACNOR6142
012020090102JBDU4       010J B DUARTE  PN           R$  000000000013100000000001370000000000130000000000013100000000001330000000000133000000000013400094000000000000046800000000000006159200000000000000009999123100000010000000000000BRJBDUACNPR3142
012020090102JBSS3       010JBS         ON      NM   R$  000000000224800000000022740000000002203000000000222400000000022300000000002229000000000223037371000000000018770900000000041749656000000000000000009999123100000010000000000000BRJBSSACNOR8115
012020090102JDCO34      010JD COM      DRN          R$  000000004283900000000443110000000042839000000004427000000000443110000000044311000000000000000022000000000000003150000000000139450650000000000000009999123100000010000000000000BRJDCOBDR001100
012020090102JHSF3       010JHSF PART   ON      NM   R$  000000000071500000000007370000000000707000000000072200000000007310000000000731000000000073214708000000000011193200000000008089136300000000000000009999123100000010000000000000BRJHSFACNOR2116
012020090102JNJB34      010JOHNSON     DRN ED       R$  000000008300000000000830000000000081358000000008141700000000816410000000080000000000008164100017000000000000003730000000000303687590000000000000009999123100000010000000000000BRJNJBBDR002135
012020090102JOPA3       010JOSAPAR     ON           R$  000000000300000000000034970000000002900000000000330900000000030510000000003050000000000335000036000000000000004400000000000014559700000000000000009999123100000010000000000000BRJOPAACNOR5131
012020090102JPMC34      010JPMORGAN    DRN          R$  000000002701300000000271490000000026659000000002688200000000269620000000026700000000002696200019000000000000002660000000000071506610000000000000009999123100000010000000000000BRJPMCBDR009134
012020090102JPSA3       010JEREISSATI  ON           R$  000000000235400000000024500000000002354000000000241400000000023810000000002381000000000239701446000000000000265400000000000640692900000000000000009999123100000010000000000000BRJPSAACNOR6103
012020090102JSLG3       010JSL         ON      NM   R$  000000000319900000000032270000000003142000000000318200000000032270000000003222000000000322709426000000000001515500000000004823499300000000000000009999123100000010000000000000BRJSLGACNOR2114
012020090102K1RC34      010KROGER CO   DRN          R$  000000001890000000000189000000000018894000000001889800000000188940000000000000000000000000000002000000000000000030000000000000566940000000000000009999123100000010000000000000BRK1RCBDR001103
012020090102KEPL3       010KEPLER WEBERON           R$  000000000449300000000045060000000004424000000000446900000000044350000000004435000000000447000635000000000000142700000000000637793300000000000000009999123100000010000000000000BRKEPLACNOR1049
012020090102KLBN3       010KLABIN S/A  ON      N2   R$  000000000054400000000005600000000000538000000000055400000000005580000000000558000000000055900915000000000000278000000000000154030500000000000000009999123100000010000000000000BRKLBNACNOR2156
012020090102KLBN4       010KLABIN S/A  PN      N2   R$  000000000050300000000005150000000000503000000000051000000000005130000000000513000000000051402500000000000001816500000000000928112800000000000000009999123100000010000000000000BRKLBNACNPR9156
012020090102KLBN11      010KLABIN S/A  UNT     N2   R$  000000000258900000000026210000000002561000000000260300000000026090000000002608000000000260919177000000000003728100000000009705484800000000000000009999123100000010000000000000BRKLBNCDAM18128
012020090102KMBB34      010KIMBERLY CL DRN          R$  000000008350000000000835000000000083500000000008350000000000835000000000000000000000000000000001000000000000000010000000000000835000000000000000009999123100000010000000000000BRKMBBBDR009120
012020090102LAME3       010LOJAS AMERICON      N1   R$  000000000275000000000027980000000002735000000000275100000000027680000000002759000000000276810780000000000002741900000000007544467400000000000000009999123100000010000000000000BRLAMEACNOR9202
012020090102LAME4       010LOJAS AMERICPN      N1   R$  000000000325000000000033040000000003237000000000327600000000033000000000003290000000000330035700000000000007869900000000025789183300000000000000009999123100000010000000000000BRLAMEACNPR6202
012020090102LBRN34      010L BRANDS    DRN          R$  000000000414500000000041590000000004145000000000415800000000041590000000000000000000000000000015000000000000002410000000000010021650000000000000009999123100000010000000000000BRLBRNBDR001119
012020090102LCAM3       010LOCAMERICA  ON      NM   R$  000000000204800000000020760000000002021000000000205600000000020700000000002066000000000207014630000000000003967800000000008158293500000000000000009999123100000010000000000000BRLCAMACNOR3133
012020090102LEVE3       010METAL LEVE  ON      NM   R$  000000000170500000000017210000000001669000000000167900000000016690000000001668000000000166902131000000000001504800000000002526881100000000000000009999123100000010000000000000BRLEVEACNOR2187
012020090102LIGT3       010LIGHT S/A   ON      NM   R$  000000000151900000000015980000000001513000000000156700000000015980000000001595000000000159915939000000000004580300000000007181870700000000000000009999123100000010000000000000BRLIGTACNOR2120
012020090102LINX3       010LINX        ON      NM   R$  000000000362400000000037350000000003624000000000370000000000037150000000003713000000000371813448000000000002904100000000010745665100000000000000009999123100000010000000000000BRLINXACNOR0118
012020090102LIPR3       010ELETROPAR   ON           R$  000000000740000000000074000000000007100000000000724800000000073000000000007100000000000739900007000000000000000700000000000005074000000000000000009999123100000010000000000000BRLIPRACNOR7117
012020090102LJQQ3       010QUERO-QUERO ON      NM   R$  000000000135800000000014430000000001358000000000140700000000014320000000001427000000000143203743000000000001635900000000002302587000000000000000009999123100000010000000000000BRLJQQACNOR5100
012020090102LMTB34      010LOCKHEED    DRN ED       R$  000000020851000000002085100000000208200000000020846500000002082000000000000000000000000000000003000000000000000700000000000145926000000000000000009999123100000010000000000000BRLMTBBDR009134
012020090102LOGG3       010LOG COM PROPON      NM   R$  000000000308100000000032490000000003075000000000319500000000032280000000003226000000000322802568000000000000413500000000001321406400000000000000009999123100000010000000000000BRLOGGACNOR7103
012020090102LOGN3       010LOG-IN      ON      NM   R$  000000000188900000000019690000000001872000000000193000000000019490000000001937000000000194903743000000000000993200000000001917727900000000000000009999123100000010000000000000BRLOGNACNOR3104
012020090102LOWC34      010LOWES COMPA DRN          R$  000000004458100000000445810000000044581000000004458100000000445810000000000000000000000000000001000000000000000010000000000000445810000000000000009999123100000010000000000000BRLOWCBDR007105
012020090102LPSB3       010LOPES BRASILON      NM   R$  000000000047400000000004980000000000474000000000048700000000004810000000000481000000000048701316000000000000634200000000000309352000000000000000009999123100000010000000000000BRLPSBACNOR0111
012020090102LREN3       010LOJAS RENNERON      NM   R$  000000000444000000000046050000000004374000000000453000000000045470000000004547000000000454849589000000000015052800000000068201116400000000000000009999123100000010000000000000BRLRENACNOR1203
012020090102LUXM4       010TREVISA     PN           R$  000000000475500000000047550000000004630000000000467600000000046900000000004650000000000469000018000000000000002000000000000009352600000000000000009999123100000010000000000000BRLUXMACNPR4047
012020090102LWSA3       010LOCAWEB     ON      NM   R$  000000000623000000000064840000000006180000000000636800000000064450000000006445000000000644812136000000000002121200000000013508961200000000000000009999123100000010000000000000BRLWSAACNOR8100
012020090102M1GM34      010MGM RESORTS DRN          R$  000000001186000000000118600000000011860000000001186000000000118600000000000000000000000000000001000000000000000500000000000005930000000000000000009999123100000010000000000000BRM1GMBDR019102
012020090102MACY34      010MACY S      DRN          R$  000000000370000000000037790000000003653000000000368700000000037790000000002600000000000890000010000000000000002100000000000007744300000000000000009999123100000010000000000000BRMACYBDR000116
012020090102MAPT4       010CEMEPE      PN           R$  000000000500000000000054000000000004450000000000486500000000045500000000004401000000000494000133000000000000019100000000000092923000000000000000009999123100000010000000000000BRMAPTACNPR5106
012020090102MCDC34      010MCDONALDS   DRN ED       R$  000000002861500000000286150000000028561000000002858800000000285610000000000000000000000000000002000000000000000080000000000002287040000000000000009999123100000010000000000000BRMCDCBDR000140
012020090102MDIA3       010M.DIASBRANCOON      NM   R$  000000000359800000000036000000000003555000000000357700000000036000000000003590000000000360204546000000000000734900000000002629185000000000000000009999123100000010000000000000BRMDIAACNOR7118
012020090102MDLZ34      010MONDELEZ INTDRN          R$  000000001556600000000155660000000015566000000001556600000000155660000000000000000000001610000001000000000000000010000000000000155660000000000000009999123100000010000000000000BRMDLZBDR002120
012020090102MDNE3       010MOURA DUBEUXON      NM   R$  000000000089000000000009290000000000889000000000091600000000009290000000000911000000000092901804000000000000519300000000000476117200000000000000009999123100000010000000000000BRMDNEACNOR9100
012020090102MDTC34      010MEDTRONIC   DRN          R$  000000002865200000000289790000000028619000000002865100000000289790000000000000000000000000000003000000000000000230000000000006589900000000000000009999123100000010000000000000BRMDTCBDR004117
012020090102MEAL3       010IMC S/A     ON      NM   R$  000000000037500000000003810000000000370000000000037600000000003800000000000379000000000038009073000000000008942900000000003365459700000000000000009999123100000010000000000000BRMEALACNOR9105
012020090102MELI34      010MERCADOLIBREDRN          R$  000000006495900000000656650000000064300000000006515000000000654400000000065200000000006544000135000000000000007970000000000519246390000000000000009999123100000010000000000000BRMELIBDR006100
012020090102MERC4       010MERC FINANC PN           R$  000000000119400000000011940000000001194000000000119400000000011940000000001190000000000130800001000000000000000100000000000000119400000000000000009999123100000010000000000000BRMERCACNPR9173
012020090102MGEL4       010MANGELS INDLPN           R$  000000000055100000000005510000000000521000000000054400000000005400000000000536000000000054900057000000000000024600000000000013395100000000000000009999123100000010000000000000BRMGELACNPR3147
012020090102MGLU3       010MAGAZ LUIZA ON      NM   R$  000000000942000000000096250000000009367000000000954100000000095330000000009532000000000953336151000000000008807100000000084030988100000000000000009999123100000010000000000000BRMGLUACNOR2116
012020090102MILS3       010MILLS       ON      NM   R$  000000000068900000000007020000000000676000000000069100000000006950000000000695000000000069603528000000000001551700000000001073209700000000000000009999123100000010000000000000BRMILSACNOR2112
012020090102MMMC34      0103M          DRN ED       R$  000000002200000000000220000000000022000000000002200000000000220000000000022000000000000000000001000000000000000010000000000000220000000000000000009999123100000010000000000000BRMMMCBDR000134
012020090102MNDL3       010MUNDIAL     ON           R$  000000000239000000000024500000000002301000000000231900000000023010000000002301000000000233900042000000000000023400000000000054274400000000000000009999123100000010000000000000BRMNDLACNOR4107
012020090102MNPR3       010MINUPAR     ON           R$  000000000056600000000005800000000000554000000000056300000000005650000000000559000000000056500028000000000000007600000000000004284700000000000000009999123100000010000000000000BRMNPRACNOR5122
012020090102MOAR3       010MONT ARANHA ON           R$  000000002000000000000200000000000018700000000001975000000000199000000000019000000000002048800006000000000000000600000000000011850000000000000000009999123100000010000000000000BRMOARACNOR5212
012020090102MOVI3       010MOVIDA      ON      NM   R$  000000000164000000000016780000000001630000000000165700000000016600000000001660000000000166308874000000000002165800000000003590126900000000000000009999123100000010000000000000BRMOVIACNOR0111
012020090102MRCK34      010MERCK       DRN          R$  000000004520000000000454510000000045000000000004537700000000454510000000000000000000000000000003000000000000000380000000000017243300000000000000009999123100000010000000000000BRMRCKBDR003139
012020090102MRFG3       010MARFRIG     ON      NM   R$  000000000179500000000018030000000001711000000000173700000000017200000000001720000000000172135974000000000014235600000000024737592900000000000000009999123100000010000000000000BRMRFGACNOR0109
012020090102MRVE3       010MRV         ON      NM   R$  000000000181500000000018590000000001813000000000183000000000018320000000001829000000000183213630000000000003212000000000005878684200000000000000009999123100000010000000000000BRMRVEACNOR2120
012020090102MSCD34      010MASTERCARD  DRN          R$  000000019240000000001924000000000192400000000019240000000001924000000000151600000000000000000001000000000000000300000000000057720000000000000000009999123100000010000000000000BRMSCDBDR006137
012020090102MSFT34      010MICROSOFT   DRN          R$  000000012670000000001267000000000120590000000012134400000001224600000000120000000000012246000054000000000000009150000000001110299160000000000000009999123100000010000000000000BRMSFTBDR005139
012020090102MSPA4       010MELHOR SP   PN           R$  000000000457000000000045700000000004510000000000454200000000045100000000004501000000000485000004000000000000000400000000000001816800000000000000009999123100000010000000000000BRMSPAACNPR7125
012020090102MTRE3       010MITRE REALTYON      NM   R$  000000000144100000000014810000000001430000000000145500000000014600000000001459000000000146001968000000000000294200000000000428323300000000000000009999123100000010000000000000BRMTREACNOR6100
012020090102MTSA4       010METISA      PN           R$  000000000244000000000024990000000002440000000000246400000000024400000000002440000000000248000044000000000000011000000000000027108700000000000000009999123100000010000000000000BRMTSAACNPR9056
012020090102MULT3       010MULTIPLAN   ON      N2   R$  000000000210300000000022070000000002103000000000218100000000022070000000002204000000000220725426000000000006473500000000014122587900000000000000009999123100000010000000000000BRMULTACNOR5127
012020090102MYPK3       010IOCHP-MAXIONON      NM   R$  000000000116100000000011620000000001142000000000114900000000011440000000001144000000000114506249000000000001633800000000001877559800000000000000009999123100000010000000000000BRMYPKACNOR7148
012020090102N1DA34      010NASDAQ INC  DRN          R$  000000003635300000000363530000000035879000000003600400000000358920000000035000000000000000000004000000000000000040000000000001440160000000000000009999123100000010000000000000BRN1DABDR002102
012020090102N1EM34      010NEWMONT GOLDDRN          R$  000000003570000000000357000000000035699000000003569900000000356990000000035000000000003850000002000000000000000030000000000001070980000000000000009999123100000010000000000000BRN1EMBDR005102
012020090102NEOE3       010NEOENERGIA  ON      NM   R$  000000000186400000000019050000000001864000000000188600000000018810000000001881000000000188409248000000000002198500000000004146585500000000000000009999123100000010000000000000BRNEOEACNOR3111
012020090102NEXT34      010NEXTERA ENERDRN ED       R$  000000003704900000000370490000000037049000000003704900000000370490000000000000000000000000000001000000000000000010000000000000370490000000000000009999123100000010000000000000BRNEXTBDR006105
012020090102NFLX34      010NETFLIX     DRN          R$  000000029441700000002990000000000294417000000029640700000002990000000000295321000000034500000009000000000000000370000000000109670890000000000000009999123100000010000000000000BRNFLXBDR000101
012020090102NOKI34      010NOKIA CORP  DRN          R$  000000000255000000000025500000000002550000000000255000000000025500000000000000000000000000000001000000000000000100000000000000255000000000000000009999123100000010000000000000BRNOKIBDR005100
012020090102NORD3       010NORDON MET  ON           R$  000000000051000000000005290000000000510000000000052400000000005290000000000517000000000052900005000000000000000700000000000000366800000000000000009999123100000010000000000000BRNORDACNOR7135
012020090102NTCO3       010GRUPO NATURAON      NM   R$  000000000498200000000051310000000004949000000000506900000000050860000000005085000000000508623817000000000004643500000000023539054300000000000000009999123100000010000000000000BRNTCOACNOR5101
012020090102NVDC34      010NVIDIA CORP DRN ED       R$  000000007300000000000755000000000071700000000007412900000000749000000000074400000000007500000022000000000000003320000000000246109220000000000000009999123100000010000000000000BRNVDCBDR008106
012020090102ODPV3       010ODONTOPREV  ON      NM   R$  000000000128100000000012960000000001264000000000127500000000012750000000001274000000000127506547000000000001711900000000002183749000000000000000009999123100000010000000000000BRODPVACNOR4178
012020090102OFSA3       010OUROFINO S/AON      NM   R$  000000000279900000000028210000000002780000000000279500000000027960000000002781000000000279600089000000000000018700000000000052268500000000000000009999123100000010000000000000BROFSAACNOR7109
012020090102OMGE3       010OMEGA GER   ON      NM   R$  000000000406200000000040960000000003893000000000392500000000039120000000003912000000000392307581000000000001289600000000005062391800000000000000009999123100000010000000000000BROMGEACNOR0101
012020090102ORCL34      010ORACLE      DRN          R$  000000003090000000000309000000000030900000000003090000000000309000000000030000000000000000000001000000000000000040000000000001236000000000000000009999123100000010000000000000BRORCLBDR007134
012020090102OXYP34      010OCCIDENT PTRDRN          R$  000000000335500000000033550000000003336000000000334500000000033360000000003311000000000000000002000000000000000400000000000001338200000000000000009999123100000010000000000000BROXYPBDR000105
012020090102P1EA34      010HEALTHPEAK PDRN          R$  000000001520000000000152000000000015200000000001520000000000152000000000013000000000000000000001000000000000000020000000000000304000000000000000009999123100000010000000000000BRP1EABDR008103
012020090102P1LD34      010PROLOGIS INCDRN          R$  000000002741800000000274180000000027151000000002725400000000271510000000000000000000000000000003000000000000000040000000000001090190000000000000009999123100000010000000000000BRP1LDBDR007102
012020090102P1SA34      010PUBLIC STORADRN          R$  000000002282800000000228880000000022778000000002282800000000227780000000000000000000000000000005000000000000000070000000000001597970000000000000009999123100000010000000000000BRP1SABDR008102
012020090102P1SX34      010PHILLIPS 66 DRN          R$  000000001564400000000157830000000015644000000001569900000000157760000000000000000000000000000005000000000000000500000000000007849520000000000000009999123100000010000000000000BRP1SXBDR000103
012020090102PARD3       010IHPARDINI   ON      NM   R$  000000000258000000000026560000000002535000000000262400000000026190000000002616000000000261908618000000000001314400000000003450154900000000000000009999123100000010000000000000BRPARDACNOR1114
012020090102PATI3       010PANATLANTICAON           R$  000000000219100000000021910000000002115000000000213900000000021350000000002150000000000219900006000000000000000700000000000001497700000000000000009999123100000010000000000000BRPATIACNOR6060
012020090102PATI4       010PANATLANTICAPN           R$  000000000305000000000030500000000002781000000000293500000000028790000000002781000000000288000050000000000000009300000000000027303100000000000000009999123100000010000000000000BRPATIACNPR3060
012020090102PCAR3       010P.ACUCAR-CBDON      NM   R$  000000000642000000000064900000000006358000000000645100000000064840000000006475000000000648407817000000000001131500000000007300032400000000000000009999123100000010000000000000BRPCARACNOR3163
012020090102PDTC3       010PADTEC      ON           R$  000000000059000000000005910000000000570000000000058000000000005800000000000580000000000058100220000000000000091500000000000053112100000000000000009999123100000010000000000000BRPDTCACNOR3100
012020090102PETR3       010PETROBRAS   ON      N2   R$  000000000226500000000023420000000002258000000000231900000000023360000000002333000000000233628105000000000016551800000000038393415400000000000000009999123100000010000000000000BRPETRACNOR9191
012020090102PETR4       010PETROBRAS   PN      N2   R$  000000000222000000000022890000000002212000000000226200000000022870000000002286000000000228762859000000000066299700000000149982589400000000000000009999123100000010000000000000BRPETRACNPR6197
012020090102PFIZ34      010PFIZER      DRN          R$  000000002070100000000207010000000019547000000001979900000000198550000000019770000000001985500032000000000000002900000000000057417710000000000000009999123100000010000000000000BRPFIZBDR006140
012020090102PFRM3       010PROFARMA    ON      NM   R$  000000000052000000000005270000000000510000000000051700000000005230000000000515000000000052301717000000000000623800000000000323040400000000000000009999123100000010000000000000BRPFRMACNOR1112
012020090102PGCO34      010PG          DRN          R$  000000007400000000000744700000000074000000000007435200000000744700000000000000000000007447000002000000000000000040000000000002974100000000000000009999123100000010000000000000BRPGCOBDR001139
012020090102PHMO34      010PHILIP MORRIDRN          R$  000000002122800000000212690000000021170000000002120000000000212690000000020000000000000000000024000000000000006050000000000128264450000000000000009999123100000010000000000000BRPHMOBDR008113
012020090102PINE4       010PINE        PN      N2   R$  000000000028000000000002820000000000279000000000027900000000002800000000000279000000000028000359000000000000237300000000000066416900000000000000009999123100000010000000000000BRPINEACNPR8144
012020090102PLAS3       010PLASCAR PARTON           R$  000000000045200000000004520000000000450000000000045000000000004510000000000450000000000046600005000000000000003600000000000001622100000000000000009999123100000010000000000000BRPLASACNOR2106
012020090102PMAM3       010PARANAPANEMAON      NM   R$  000000000113000000000012220000000001120000000000118200000000011910000000001191000000000119300591000000000000179100000000000211732300000000000000009999123100000010000000000000BRPMAMACNOR3037
012020090102PNVL3       010DIMED       ON           R$  000000000251000000000026540000000002507000000000261200000000026540000000002641000000000265407632000000000001651600000000004315342400000000000000009999123100000010000000000000BRPNVLACNOR9196
012020090102PNVL4       010DIMED       PN           R$  000000000227000000000023200000000002180000000000228300000000023060000000002301000000000230600438000000000000100000000000000228394500000000000000009999123100000010000000000000BRPNVLACNPR6196
012020090102POMO3       010MARCOPOLO   ON      N2   R$  000000000027000000000002710000000000266000000000026800000000002690000000000268000000000026900463000000000000233400000000000062769000000000000000009999123100000010000000000000BRPOMOACNOR0087
012020090102POMO4       010MARCOPOLO   PN      N2   R$  000000000028500000000002880000000000283000000000028600000000002860000000000286000000000028703823000000000005156000000000001475000500000000000000009999123100000010000000000000BRPOMOACNPR7087
012020090102POSI3       010POSITIVO TECON      NM   R$  000000000049200000000005030000000000486000000000049600000000004970000000000497000000000049802479000000000001839200000000000913681100000000000000009999123100000010000000000000BRPOSIACNOR9112
012020090102PPLA11      010PPLA        UNT          R$  000000000147200000000014720000000001382000000000140900000000014400000000001405000000000144000026000000000000003100000000000004368100000000000000009999123100000010000000000000BRPPLAUNT007101
012020090102PRIO3       010PETRORIO    ON      NM   R$  000000000423000000000044200000000004141000000000431700000000044000000000004396000000000440016925000000000004335300000000018715946300000000000000009999123100000010000000000000BRPRIOACNOR1102
012020090102PRNR3       010PRINER      ON      NM   R$  000000000094300000000009690000000000942000000000095200000000009550000000000951000000000095500434000000000000128400000000000122364200000000000000009999123100000010000000000000BRPRNRACNOR4105
012020090102PSSA3       010PORTO SEGUROON      NM   R$  000000000531300000000053800000000005264000000000533900000000053630000000005353000000000536311189000000000001648600000000008803117500000000000000009999123100000010000000000000BRPSSAACNOR7142
012020090102PTBL3       010PORTOBELLO  ON      NM   R$  000000000045400000000004900000000000452000000000047700000000004900000000000489000000000049008740000000000004064900000000001939565100000000000000009999123100000010000000000000BRPTBLACNOR8125
012020090102PTNT3       010PETTENATI   ON           R$  000000000066500000000007500000000000602000000000065600000000006170000000000617000000000062500354000000000000102800000000000067449400000000000000009999123100000010000000000000BRPTNTACNOR6039
012020090102PTNT4       010PETTENATI   PN           R$  000000000049300000000005160000000000479000000000049700000000004900000000000481000000000049000108000000000000033900000000000016881100000000000000009999123100000010000000000000BRPTNTACNPR3044
012020090102PYPL34      010PAYPAL HOLD DRN          R$  000000005599700000000563890000000055841000000005625900000000563000000000055000000000000000000004000000000000000300000000000016877740000000000000009999123100000010000000000000BRPYPLBDR002101
012020090102QCOM34      010QUALCOMM    DRN          R$  000000006556000000000655600000000065560000000006556000000000655600000000000000000000000000000001000000000000000050000000000003278000000000000000009999123100000010000000000000BRQCOMBDR007134
012020090102QUAL3       010QUALICORP   ON      NM   R$  000000000313700000000031960000000003089000000000313400000000031320000000003131000000000313218309000000000004623800000000014492120600000000000000009999123100000010000000000000BRQUALACNOR6113
012020090102R1CL34      010ROYAL CARIBBDRN          R$  000000001824500000000182450000000018245000000001824500000000182450000000000000000000000000000001000000000000000020000000000000364900000000000000009999123100000010000000000000BRR1CLBDR007101
012020090102R1IN34      010REALTY INCOMDRN ED       R$  000000001667800000000169190000000016678000000001680200000000167810000000000000000000000000000014000000000000000880000000000014785790000000000000009999123100000010000000000000BRR1INBDR000108
012020090102RADL3       010RAIADROGASILON      NM   R$  000000001096500000000114190000000010965000000001126500000000112150000000011211000000001121515110000000000002623700000000029557864400000000000000009999123100000010000000000000BRRADLACNOR0136
012020090102RAIL3       010RUMO S.A.   ON      NM   R$  000000000228000000000023000000000002240000000000227000000000022640000000002260000000000226434429000000000010707200000000024310734300000000000000009999123100000010000000000000BRRAILACNOR9101
012020090102RANI3       010IRANI       ON  EDJ      R$  000000000046700000000004810000000000461000000000047200000000004810000000000480000000000048103332000000000001969300000000000930013900000000000000009999123100000010000000000000BRRANIACNOR5053
012020090102RANI4       010IRANI       PN  EDJ      R$  000000000072600000000007290000000000681000000000071400000000007250000000000704000000000072700013000000000000002300000000000001643800000000000000009999123100000010000000000000BRRANIACNPR2054
012020090102RAPT3       010RANDON PART ON      N1   R$  000000000087100000000009500000000000871000000000094000000000009470000000000936000000000094400400000000000000055000000000000051748300000000000000009999123100000010000000000000BRRAPTACNOR7153
012020090102RAPT4       010RANDON PART PN      N1   R$  000000000108600000000011130000000001080000000000110200000000011060000000001105000000000110613355000000000004243700000000004680113800000000000000009999123100000010000000000000BRRAPTACNPR4153
012020090102RCSL3       010RECRUSUL    ON           R$  000000000020300000000002070000000000200000000000020300000000002060000000000200000000000020600068000000000000031700000000000006445800000000000000009999123100000010000000000000BRRCSLACNOR4130
012020090102RCSL4       010RECRUSUL    PN           R$  000000000014800000000001490000000000144000000000014700000000001480000000000147000000000014802600000000000003185600000000000470817200000000000000009999123100000010000000000000BRRCSLACNPR1130
012020090102RDNI3       010RNI         ON      NM   R$  000000000105000000000010500000000000999000000000100200000000010430000000001006000000000104400091000000000000208900000000000209347600000000000000009999123100000010000000000000BRRDNIACNOR9113
012020090102RDSA34      010RD SHELL    DRN          R$  000000001563800000000156380000000015600000000001563000000000156000000000000000000000000000000002000000000000000380000000000005939400000000000000009999123100000010000000000000BRRDSABDR009104
012020090102REDE3       010REDE ENERGIAON           R$  000000000104900000000010490000000001048000000000104800000000010490000000000000000000000104900004000000000000001300000000000001362700000000000000009999123100000010000000000000BRREDEACNOR7115
012020090102REGN34      010REGENERON PHDRN          R$  000000006331800000000639990000000063318000000006354500000000639990000000000000000000000000000003000000000000000030000000000001906350000000000000009999123100000010000000000000BRREGNBDR005100
012020090102RENT3       010LOCALIZA    ON      NM   R$  000000000486500000000050490000000004853000000000499300000000050400000000005040000000000504125436000000000005422500000000027076620700000000000000009999123100000010000000000000BRRENTACNOR4178
012020090102RIGG34      010TRANSOCEAN  DRN          R$  000000000068400000000006840000000000650000000000066800000000006700000000000650000000000071400044000000000000007680000000000005131730000000000000009999123100000010000000000000BRRIGGBDR000100
012020090102RLOG3       010COSAN LOG   ON      NM   R$  000000000215200000000021550000000002100000000000213000000000021180000000002118000000000211902502000000000000462200000000000984676200000000000000009999123100000010000000000000BRRLOGACNOR4106
012020090102ROMI3       010INDS ROMI   ON      NM   R$  000000000121200000000012720000000001204000000000123200000000012370000000001237000000000126501681000000000000247300000000000304758700000000000000009999123100000010000000000000BRROMIACNOR8173
012020090102RPAD3       010ALFA HOLDINGON           R$  000000000056000000000005800000000000550000000000055700000000005800000000000560000000000058000004000000000000001200000000000000669000000000000000009999123100000010000000000000BRRPADACNOR1197
012020090102RSID3       010ROSSI RESID ON      NM   R$  000000000056400000000005770000000000558000000000056500000000005750000000000575000000000057700344000000000000101300000000000057291700000000000000009999123100000010000000000000BRRSIDACNOR8119
012020090102S1PO34      010SPOTIFY TECHDRN          R$  000000003876100000000392720000000038761000000003899300000000392720000000000000000000000000000005000000000000000050000000000001949670000000000000009999123100000010000000000000BRS1POBDR002100
012020090102SANB3       010SANTANDER BRON           R$  000000000137000000000013980000000001362000000000138600000000013890000000001389000000000139500468000000000000160800000000000222953000000000000000009999123100000010000000000000BRSANBACNOR8153
