00COTAHIST.2020BOVESPA 20200902                                                                                                                                                                                                                      
012020090202A1AP34      010ADVANCE AUTODRN          R$  000000002122700000000212270000000021227000000002122700000000212270000000000000000000000000000001000000000000001750000000000037147250000000000000009999123100000010000000000000BRA1APBDR001102
012020090202A1BM34      010ABIOMED INC DRN          R$  000000004101100000000410110000000041011000000004101100000000410110000000000000000000000000000007000000000000000070000000000002870770000000000000009999123100000010000000000000BRA1BMBDR006100
012020090202A1KA34      010AKAMAI TECHNDRN          R$  000000003197900000000320270000000031979000000003202100000000320270000000000000000000000000000002000000000000002490000000000079732830000000000000009999123100000010000000000000BRA1KABDR002100
012020090202A1MD34      010ADVANCED MICDRN          R$  000000005012900000000501290000000047908000000004932600000000486170000000000000000000005012900016000000000000000840000000000041433900000000000000009999123100000010000000000000BRA1MDBDR002100
012020090202A1ME34      010AMETEK INC  DRN          R$  000000002768000000000276800000000027680000000002768000000000276800000000000000000000000000000001000000000000000090000000000002491200000000000000009999123100000010000000000000BRA1MEBDR000102
012020090202A1NS34      010ANSYS INC   DRN          R$  000000004720200000000472020000000047202000000004720200000000472020000000000000000000000000000001000000000000000010000000000000472020000000000000009999123100000010000000000000BRA1NSBDR008100
012020090202A1PA34      010APACHE CORP DRN          R$  000000000792900000000079290000000007929000000000792900000000079290000000000000000000000000000008000000000000000080000000000000634320000000000000009999123100000010000000000000BRA1PABDR001103
012020090202AALL34      010AMERICAN AIRDRN          R$  000000000696900000000070510000000006928000000000696700000000070510000000005333000000000840000007000000000000001050000000000007315500000000000000009999123100000010000000000000BRAALLBDR003115
012020090202AALR3       010ALLIAR      ON      NM   R$  000000000119100000000012570000000001178000000000122600000000012510000000001250000000000125102785000000000000893700000000001096459100000000000000009999123100000010000000000000BRAALRACNOR6102
012020090202AAPL34      010APPLE       DRN EB       R$  000000000737000000000074980000000006840000000000708100000000070650000000007032000000000706500848000000000000513190000000003634312620000000000000009999123100000010000000000000BRAAPLBDR004135
012020090202ABBV34      010ABBVIE      DRN          R$  000000004998300000000505000000000049983000000005001500000000505000000000000000000000000000000003000000000000000210000000000010503300000000000000009999123100000010000000000000BRABBVBDR001118
012020090202ABCB4       010ABC BRASIL  PN      N2   R$  000000000139000000000013950000000001367000000000138200000000013860000000001386000000000138803116000000000000539100000000000745103000000000000000009999123100000010000000000000BRABCBACNPR4134
012020090202ABEV3       010AMBEV S/A   ON           R$  000000000127500000000012820000000001255000000000127000000000012760000000001276000000000127725876000000000018202600000000023127506500000000000000009999123100000010000000000000BRABEVACNOR1122
012020090202ABUD34      010AB INBEV    DRN          R$  000000003204000000000320400000000031800000000003184700000000319080000000000000000000000000000004000000000000001370000000000043630450000000000000009999123100000010000000000000BRABUDBDR009102
012020090202ADBE34      010ADOBE INC   DRN          R$  000000005673600000000572880000000056100000000005717700000000571330000000000000000000000000000007000000000000001660000000000094915130000000000000009999123100000010000000000000BRADBEBDR003100
012020090202ADHM3       010ADVANCED-DH ON           R$  000000000021500000000002200000000000211000000000021400000000002200000000000214000000000022200025000000000000005100000000000001093500000000000000009999123100000010000000000000BRADHMACNOR9102
012020090202AFLT3       010AFLUENTE T  ON           R$  000000000107000000000010700000000001050000000000105600000000010500000000001030000000000105000012000000000000001900000000000002007100000000000000009999123100000010000000000000BRAFLTACNOR1115
012020090202AGRO3       010BRASILAGRO  ON      NM   R$  000000000212000000000021770000000002103000000000214500000000021450000000002145000000000216701268000000000000250400000000000537188000000000000000009999123100000010000000000000BRAGROACNOR7109
012020090202AHEB3       010SPTURIS     ON           R$  000000000263500000000027500000000002480000000000260100000000025000000000002500000000000285000023000000000000002500000000000006504600000000000000009999123100000010000000000000BRAHEBACNOR0106
012020090202ALPA3       010ALPARGATAS  ON      N1   R$  000000000355000000000035590000000003399000000000345700000000033990000000003360000000000339900018000000000000002100000000000007261600000000000000009999123100000010000000000000BRALPAACNOR0229
012020090202ALPA4       010ALPARGATAS  PN      N1   R$  000000000381100000000038410000000003730000000000376100000000037440000000003744000000000375305557000000000001155700000000004347252000000000000000009999123100000010000000000000BRALPAACNPR7229
012020090202ALPK3       010ESTAPAR     ON      NM   R$  000000000097500000000009990000000000946000000000096500000000009500000000000950000000000096200238000000000002449000000000002363361700000000000000009999123100000010000000000000BRALPKACNOR9100
012020090202ALSO3       010ALIANSCSONAEON      NM   R$  000000000276000000000027790000000002713000000000274700000000027550000000002754000000000275505066000000000000935700000000002570452500000000000000009999123100000010000000000000BRALSOACNOR5100
012020090202ALUP3       010ALUPAR      ON      N2   R$  000000000096000000000009670000000000954000000000096000000000009540000000000954000000000096500041000000000000005200000000000004996500000000000000009999123100000010000000000000BRALUPACNOR8111
012020090202ALUP4       010ALUPAR      PN      N2   R$  000000000070300000000007090000000000697000000000070400000000007090000000000704000000000071000090000000000000014600000000000010280300000000000000009999123100000010000000000000BRALUPACNPR5111
012020090202ALUP11      010ALUPAR      UNT     N2   R$  000000000237500000000023930000000002358000000000237300000000023900000000002385000000000239001362000000000000286100000000000678975400000000000000009999123100000010000000000000BRALUPCDAM15111
012020090202AMAR3       010LOJAS MARISAON      NM   R$  000000000086400000000008790000000000845000000000086300000000008740000000000874000000000087507363000000000003801300000000003284204800000000000000009999123100000010000000000000BRAMARACNOR4112
012020090202AMBP3       010AMBIPAR     ON      NM   R$  000000000314400000000031650000000003130000000000314500000000031590000000003145000000000315901062000000000001058100000000003328296200000000000000009999123100000010000000000000BRAMBPACNOR6100
012020090202AMGN34      010AMGEN       DRN          R$  000000013770100000001377090000000137701000000013770500000001377090000000000000000000000000000002000000000000000660000000000090885540000000000000009999123100000010000000000000BRAMGNBDR004135
012020090202AMZO34      010AMAZON      DRN          R$  000000094467500000009497750000000938000000000094763500000009467000000000720000000000094880000025000000000000001850000000001753125510000000000000009999123100000010000000000000BRAMZOBDR002101
012020090202ANIM3       010ANIMA       ON      NM   R$  000000000295200000000030360000000002901000000000296100000000030150000000003011000000000301504159000000000000866100000000002564562200000000000000009999123100000010000000000000BRANIMACNOR6106
012020090202APER3       010ALPER S.A.  ON      NM   R$  000000000276100000000027990000000002725000000000277300000000027990000000002778000000000279900049000000000000010800000000000029950600000000000000009999123100000010000000000000BRAPERACNOR9102
012020090202ARZZ3       010AREZZO CO   ON      NM   R$  000000000593000000000059850000000005863000000000592300000000059390000000005939000000000594002367000000000000363600000000002153947000000000000000009999123100000010000000000000BRARZZACNOR3137
012020090202ATOM3       010ATOMPAR     ON           R$  000000000027900000000003310000000000279000000000030700000000003070000000000307000000000030800810000000000000565500000000000173856500000000000000009999123100000010000000000000BRATOMACNOR1103
012020090202ATTB34      010ATT INC     DRN          R$  000000001604000000000160400000000015922000000001597700000000159630000000015000000000001596300007000000000000003620000000000057839410000000000000009999123100000010000000000000BRATTBBDR007132
012020090202ATVI34      010ACTIVISION  DRN          R$  000000004494500000000449690000000044945000000004494800000000449690000000043500000000000000000003000000000000000130000000000005843330000000000000009999123100000010000000000000BRATVIBDR008101
012020090202AURA32      010AURA 360    DR2 EB       R$  000000000655000000000065510000000006399000000000647600000000064950000000006494000000000659000091000000000000018200000000000117871300000000000000009999123100000010000000000000BRAURABDR001102
012020090202AVGO34      010BROADCOM INCDRN          R$  000000004044200000000404420000000040319000000004040700000000403190000000000000000000000000000005000000000000000900000000000036366300000000000000009999123100000010000000000000BRAVGOBDR003105
012020090202AXPB34      010AMERICAN EXPDRN          R$  000000005582700000000558270000000055827000000005582700000000558270000000047700000000000000000001000000000000001250000000000069783750000000000000009999123100000010000000000000BRAXPBBDR007133
012020090202AZEV3       010AZEVEDO     ON           R$  000000000107000000000010990000000001070000000000107900000000010990000000001099000000000111000008000000000000001900000000000002050400000000000000009999123100000010000000000000BRAZEVACNOR0117
012020090202AZEV4       010AZEVEDO     PN           R$  000000000038800000000003980000000000388000000000039000000000003980000000000395000000000040000014000000000000003800000000000001484300000000000000009999123100000010000000000000BRAZEVACNPR7117
012020090202AZUL4       010AZUL        PN      N2   R$  000000000230500000000023560000000002266000000000230400000000023140000000002311000000000231420361000000000010006000000000023062485300000000000000009999123100000010000000000000BRAZULACNPR4100
012020090202B1MR34      010BIOMARIN PHADRN          R$  000000002106100000000210610000000021061000000002106100000000210610000000016720000000000000000001000000000000002520000000000053073720000000000000009999123100000010000000000000BRB1MRBDR001100
012020090202B3SA3       010B3          ON      NM   R$  000000000601000000000060350000000005900000000000596000000000059970000000005997000000000599824403000000000007271100000000043342595700000000000000009999123100000010000000000000BRB3SAACNOR6111
012020090202BABA34      010ALIBABAGR   DRN          R$  000000015739400000001585000000000155531000000015803600000001584550000000155528000000016500000018000000000000003000000000000474110750000000000000009999123100000010000000000000BRBABABDR005100
012020090202BALM3       010BAUMER      ON           R$  000000000195000000000019500000000001770000000000186700000000018010000000001801000000000184300061000000000000009800000000000018301400000000000000009999123100000010000000000000BRBALMACNOR5050
012020090202BALM4       010BAUMER      PN           R$  000000000115500000000011800000000001155000000000116700000000011690000000001140000000000117400005000000000000000500000000000000583800000000000000009999123100000010000000000000BRBALMACNPR2051
012020090202BAUH4       010EXCELSIOR   PN           R$  000000000898900000000089890000000008989000000000898900000000089890000000008300000000000899000002000000000000000200000000000001797800000000000000009999123100000010000000000000BRBAUHACNPR3115
012020090202BAZA3       010AMAZONIA    ON           R$  000000000408900000000041000000000004064000000000408200000000040640000000004060000000000406400033000000000000006700000000000027351300000000000000009999123100000010000000000000BRBAZAACNOR0174
012020090202BBAS3       010BRASIL      ON  EJ  NM   R$  000000000332500000000033370000000003274000000000330300000000033250000000003322000000000332524042000000000009844600000000032525033200000000000000009999123100000010000000000000BRBBASACNOR3292
012020090202BBDC3       010BRADESCO    ON  EJ  N1   R$  000000000196300000000019720000000001930000000000194500000000019600000000001959000000000196010346000000000003692000000000007184495000000000000000009999123100000010000000000000BRBBDCACNOR1715
012020090202BBDC4       010BRADESCO    PN  EJ  N1   R$  000000000212900000000021320000000002091000000000210400000000021120000000002110000000000211243825000000000027886000000000058691741800000000000000009999123100000010000000000000BRBBDCACNPR8715
012020090202BBRK3       010BR BROKERS  ON      NM   R$  000000000017300000000001790000000000173000000000017600000000001790000000000178000000000017900552000000000000933000000000000164779700000000000000009999123100000010000000000000BRBBRKACNOR4113
012020090202BBSE3       010BBSEGURIDADEON      NM   R$  000000000273000000000027340000000002698000000000271400000000027230000000002723000000000272412642000000000003027400000000008218429200000000000000009999123100000010000000000000BRBBSEACNOR5117
012020090202BBYY34      010BEST BUY    DRN          R$  000000006159900000000615990000000060989000000006114100000000609890000000000000000000006200000002000000000000000040000000000002445660000000000000009999123100000010000000000000BRBBYYBDR005113
012020090202BCSA34      010SANTANDER   DRN          R$  000000000119400000000011940000000001155000000000116400000000011710000000001162000000000118000053000000000000010500000000000012232030000000000000009999123100000010000000000000BRBCSABDR005101
012020090202BEEF3       010MINERVA     ON      NM   R$  000000000129800000000013030000000001280000000000128900000000012930000000001292000000000129316213000000000004059600000000005233883800000000000000009999123100000010000000000000BRBEEFACNOR6108
012020090202BEES3       010BANESTES    ON  EJ       R$  000000000054200000000005440000000000537000000000053900000000005410000000000540000000000054100082000000000000014600000000000007878500000000000000009999123100000010000000000000BRBEESACNOR9339
012020090202BEES4       010BANESTES    PN  EJ       R$  000000000056400000000005720000000000563000000000056500000000005710000000000560000000000057100021000000000000004400000000000002488800000000000000009999123100000010000000000000BRBEESACNPR6264
012020090202BERK34      010BERKSHIRE   DRN          R$  000000011750000000001190340000000117001000000011857200000001190340000000116000000000011903400044000000000000002730000000000323704260000000000000009999123100000010000000000000BRBERKBDR002100
012020090202BGIP3       010BANESE      ON           R$  000000000463100000000049500000000004435000000000467400000000045010000000004410000000000480000040000000000000004000000000000018699100000000000000009999123100000010000000000000BRBGIPACNOR1199
012020090202BGIP4       010BANESE      PN           R$  000000000267200000000027500000000002672000000000271100000000027440000000002674000000000274600007000000000000001400000000000003796700000000000000009999123100000010000000000000BRBGIPACNPR8199
012020090202BHPG34      010BHP GROUP   DRN          R$  000000003089900000000308990000000030411000000003069600000000304110000000000000000000000000000003000000000000000090000000000002762700000000000000009999123100000010000000000000BRBHPGBDR007101
012020090202BIDI3       010BANCO INTER ON      N2   R$  000000000202000000000021390000000002010000000000209100000000021060000000002105000000000213004324000000000000862600000000001804420500000000000000009999123100000010000000000000BRBIDIACNOR3107
012020090202BIDI4       010BANCO INTER PN      N2   R$  000000000226000000000024400000000002258000000000237700000000024220000000002421000000000242413652000000000006344900000000015086074500000000000000009999123100000010000000000000BRBIDIACNPR0111
012020090202BIDI11      010BANCO INTER UNT     N2   R$  000000000651500000000069900000000006512000000000684200000000069350000000006935000000000695006545000000000001344700000000009201752400000000000000009999123100000010000000000000BRBIDICDAXX3106
012020090202BIDU34      010BAIDU INC   DRN          R$  000000006780000000000678000000000067800000000006780000000000678000000000000000000000000000000004000000000000000400000000000027120000000000000000009999123100000010000000000000BRBIDUBDR002100
012020090202BIOM3       010BIOMM       ON      MA   R$  000000000161000000000016190000000001578000000000159300000000015990000000001580000000000159900074000000000000023700000000000037767500000000000000009999123100000010000000000000BRBIOMACNOR2107
012020090202BKBR3       010BK BRASIL   ON      NM   R$  000000000114100000000011700000000001130000000000115300000000011550000000001155000000000115804265000000000001057400000000001219934300000000000000009999123100000010000000000000BRBKBRACNOR4103
012020090202BKNG34      010BOOKING     DRN          R$  000000004176000000000419100000000040800000000004168400000000418110000000041569000000004490000022000000000000001200000000000050020840000000000000009999123100000010000000000000BRBKNGBDR006100
012020090202BLAK34      010BLACKROCK   DRN          R$  000000005472000000000547200000000054720000000005472000000000547200000000000000000000000000000001000000000000000020000000000001094400000000000000009999123100000010000000000000BRBLAKBDR003117
012020090202BMEB3       010MERC BRASIL ON           R$  000000000169900000000017100000000001600000000000166200000000016000000000001590000000000164300026000000000000009100000000000015126500000000000000009999123100000010000000000000BRBMEBACNOR8196
012020090202BMEB4       010MERC BRASIL PN           R$  000000000154100000000015890000000001530000000000155200000000015620000000001551000000000156300030000000000000011700000000000018169600000000000000009999123100000010000000000000BRBMEBACNPR5201
012020090202BMGB4       010BANCO BMG   PN      N1   R$  000000000054300000000005550000000000533000000000054700000000005510000000000551000000000055404930000000000001899000000000001038780600000000000000009999123100000010000000000000BRBMGBACNPR0101
012020090202BMIN3       010MERC INVEST ON           R$  000000000249900000000025000000000002249000000000234900000000022500000000002050000000000229000033000000000000004800000000000011278000000000000000009999123100000010000000000000BRBMINACNOR4168
012020090202BMIN4       010MERC INVEST PN           R$  000000000204000000000021350000000001980000000000205400000000019800000000001986000000000210000003000000000000000500000000000001027000000000000000009999123100000010000000000000BRBMINACNPR1171
012020090202BMKS3       010BIC MONARK  ON           R$  000000002300000000000230000000000022710000000002294100000000227100000000022725000000002400000006000000000000000048000000000001101210000000000000009999123100000010000000000000BRBMKSACNOR9162
012020090202BNBR3       010NORD BRASIL ON           R$  000000000848900000000084890000000008000000000000830700000000084460000000008168000000000844700041000000000000004400000000000036551400000000000000009999123100000010000000000000BRBNBRACNOR8200
012020090202BOAC34      010BANK AMERICADRN          R$  000000001402600000000140600000000014000000000001401300000000140140000000013200000000001401400011000000000000008210000000000115047400000000000000009999123100000010000000000000BRBOACBDR004139
012020090202BOBR4       010BOMBRIL     PN           R$  000000000020700000000002070000000000205000000000020600000000002070000000000206000000000020700105000000000000060200000000000012408300000000000000009999123100000010000000000000BRBOBRACNPR3128
012020090202BOEI34      010BOEING      DRN          R$  000000009379900000000937990000000093799000000009379900000000937990000000000000000000009680000001000000000000000010000000000000937990000000000000009999123100000010000000000000BRBOEIBDR003132
012020090202BPAC3       010BTGP BANCO  ON      N2   R$  000000000462500000000047980000000004575000000000463500000000046290000000004605000000000467900038000000000000003900000000000018080200000000000000009999123100000010000000000000BRBPACACNOR7122
012020090202BPAC5       010BTGP BANCO  PNA     N2   R$  000000000186800000000018680000000001802000000000183100000000018400000000001810000000000184000022000000000000003700000000000006777500000000000000009999123100000010000000000000BRBPACACNPA0122
012020090202BPAC11      010BTGP BANCO  UNT     N2   R$  000000000840000000000084640000000008165000000000827300000000083100000000008308000000000831011453000000000002595700000000021474521700000000000000009999123100000010000000000000BRBPACUNT006107
012020090202BPAN4       010BANCO PAN   PN      N1   R$  000000000087100000000008900000000000859000000000087400000000008800000000000880000000000088108362000000000003196900000000002797233600000000000000009999123100000010000000000000BRBPANACNPR1109
012020090202BRAP3       010BRADESPAR   ON      N1   R$  000000000404300000000040600000000003860000000000391700000000039400000000003890000000000394000141000000000000038800000000000152013700000000000000009999123100000010000000000000BRBRAPACNOR5136
012020090202BRAP4       010BRADESPAR   PN      N1   R$  000000000451900000000045650000000004399000000000445200000000044740000000004468000000000447408270000000000001276600000000005684219700000000000000009999123100000010000000000000BRBRAPACNPR2136
012020090202BRDT3       010PETROBRAS BRON      NM   R$  000000000220000000000022210000000002181000000000219800000000022000000000002200000000000220416986000000000005688700000000012508102600000000000000009999123100000010000000000000BRBRDTACNOR1120
012020090202BRFS3       010BRF SA      ON      NM   R$  000000000199100000000020600000000001981000000000203000000000020450000000002044000000000204540563000000000017088200000000034692410200000000000000009999123100000010000000000000BRBRFSACNOR8119
012020090202BRGE3       010ALFA CONSORCON           R$  000000000094500000000009450000000000907000000000093500000000009440000000000906000000000094400004000000000000000400000000000000374000000000000000009999123100000010000000000000BRBRGEACNOR6202
012020090202BRGE8       010ALFA CONSORCPND          R$  000000000086800000000008950000000000810000000000085400000000008500000000000750000000000084900012000000000000001300000000000001110800000000000000009999123100000010000000000000BRBRGEACNPD3214
012020090202BRGE11      010ALFA CONSORCPNE          R$  000000000100000000000010000000000000997000000000099800000000009970000000000997000000000105000002000000000000000800000000000000798800000000000000009999123100000010000000000000BRBRGEACNPE1105
012020090202BRIV3       010ALFA INVEST ON           R$  000000000080000000000008050000000000800000000000080200000000008050000000000790000000000081000003000000000000000600000000000000481500000000000000009999123100000010000000000000BRBRIVACNOR6205
012020090202BRIV4       010ALFA INVEST PN           R$  000000000074700000000007470000000000738000000000074200000000007430000000000741000000000074500010000000000000003600000000000002671200000000000000009999123100000010000000000000BRBRIVACNPR3211
012020090202BRKM3       010BRASKEM     ON      N1   R$  000000000223000000000022700000000002215000000000225000000000022290000000002229000000000223800027000000000000012600000000000028356700000000000000009999123100000010000000000000BRBRKMACNOR1117
012020090202BRKM5       010BRASKEM     PNA     N1   R$  000000000215000000000021670000000002104000000000212600000000021310000000002131000000000213209389000000000002325400000000004945567300000000000000009999123100000010000000000000BRBRKMACNPA4117
012020090202BRML3       010BR MALLS PARON      NM   R$  000000000097100000000009740000000000949000000000095800000000009560000000000956000000000095736616000000000014231700000000013641948000000000000000009999123100000010000000000000BRBRMLACNOR9115
012020090202BRPR3       010BR PROPERT  ON      NM   R$  000000000094300000000009430000000000925000000000093200000000009350000000000934000000000093506191000000000001438300000000001341352500000000000000009999123100000010000000000000BRBRPRACNOR9119
012020090202BRSR3       010BANRISUL    ON      N1   R$  000000000150000000000015000000000001495000000000149700000000014970000000001497000000000149800019000000000000002400000000000003595000000000000000009999123100000010000000000000BRBRSRACNOR3168
012020090202BRSR6       010BANRISUL    PNB     N1   R$  000000000133900000000013420000000001319000000000133000000000013360000000001335000000000133605610000000000001465800000000001950137300000000000000009999123100000010000000000000BRBRSRACNPB4171
012020090202BSEV3       010BIOSEV      ON      NM   R$  000000000046500000000004680000000000445000000000045000000000004460000000000446000000000044800341000000000000130700000000000058927700000000000000009999123100000010000000000000BRBSEVACNOR3102
012020090202BTOW3       010B2W DIGITAL ON      NM   R$  000000001143200000000114730000000011016000000001115100000000110900000000011090000000001109511343000000000001980200000000022081848100000000000000009999123100000010000000000000BRBTOWACNOR8111
012020090202BTTL3       010BATTISTELLA ON           R$  000000000101000000000011200000000001001000000000107800000000011000000000001100000000000112000106000000000000026300000000000028373700000000000000009999123100000010000000000000BRBTTLACNOR0108
012020090202C1MG34      010CHIPOTLE MEXDRN          R$  000000003683600000000368360000000036700000000003681600000000367500000000000000000000000000000003000000000000000360000000000013253800000000000000009999123100000010000000000000BRC1MGBDR003100
012020090202CAMB3       010CAMBUCI     ON           R$  000000000043100000000004380000000000430000000000043200000000004300000000000430000000000043200146000000000000056000000000000024246600000000000000009999123100000010000000000000BRCAMBACNOR4119
012020090202CAML3       010CAMIL       ON  EJ  NM   R$  000000000126700000000012760000000001245000000000125800000000012620000000001262000000000126405081000000000000959100000000001206756600000000000000009999123100000010000000000000BRCAMLACNOR3111
012020090202CARD3       010CSU CARDSYSTON      NM   R$  000000000167100000000017050000000001649000000000168200000000016490000000001649000000000165600964000000000000356000000000000599109500000000000000009999123100000010000000000000BRCARDACNOR9118
012020090202CBEE3       010AMPLA ENERG ON           R$  000000000175000000000017850000000001750000000000177100000000017850000000001665000000000178900003000000000000000300000000000000531500000000000000009999123100000010000000000000BRCBEEACNOR3155
012020090202CCPR3       010CYRE COM-CCPON      NM   R$  000000000147000000000015240000000001457000000000148600000000014600000000001458000000000146001450000000000000244900000000000363926500000000000000009999123100000010000000000000BRCCPRACNOR9114
012020090202CCRO3       010CCR SA      ON      NM   R$  000000000141300000000014220000000001391000000000140500000000014110000000001410000000000141114572000000000005027900000000007066917900000000000000009999123100000010000000000000BRCCROACNOR2137
012020090202CEAB3       010CEA MODAS   ON      NM   R$  000000000129400000000012940000000001251000000000127000000000012670000000001267000000000126806024000000000001948400000000002474997000000000000000009999123100000010000000000000BRCEABACNOR1101
012020090202CEBR3       010CEB         ON           R$  000000000669900000000066990000000006202000000000644700000000062020000000006200000000000700000032000000000000004300000000000027725900000000000000009999123100000010000000000000BRCEBRACNOR5118
012020090202CEBR5       010CEB         PNA          R$  000000000790000000000085000000000007900000000000819900000000085000000000007150000000000938400004000000000000000400000000000003279900000000000000009999123100000010000000000000BRCEBRACNPA8117
012020090202CEBR6       010CEB         PNB          R$  000000000719900000000071990000000007199000000000719900000000071990000000006800000000000719900001000000000000000100000000000000719900000000000000009999123100000010000000000000BRCEBRACNPB6117
012020090202CEDO3       010CEDRO       ON      N1   R$  000000000110000000000011300000000001060000000000108400000000010770000000001071000000000110000024000000000000005300000000000005746600000000000000009999123100000010000000000000BRCEDOACNOR8096
012020090202CEDO4       010CEDRO       PN      N1   R$  000000000054700000000005790000000000547000000000056200000000005790000000000547000000000057900003000000000000000300000000000000168600000000000000009999123100000010000000000000BRCEDOACNPR5128
012020090202CEEB3       010COELBA      ON           R$  000000000420000000000042000000000003900000000000408000000000040100000000003960000000000419000038000000000000006200000000000025302000000000000000009999123100000010000000000000BRCEEBACNOR3179
012020090202CEED3       010CEEE-D      ON      N1   R$  000000000570000000000060000000000005400000000000566900000000055000000000005400000000000600000113000000000000016000000000000090709500000000000000009999123100000010000000000000BRCEEDACNOR9102
012020090202CESP3       010CESP        ON      N1   R$  000000000345300000000034800000000003404000000000345800000000034800000000003451000000000348000040000000000000008900000000000030778700000000000000009999123100000010000000000000BRCESPACNOR3169
012020090202CESP6       010CESP        PNB     N1   R$  000000000302300000000030450000000002994000000000301500000000030170000000003016000000000301706145000000000001283600000000003870478600000000000000009999123100000010000000000000BRCESPACNPB4128
012020090202CGAS3       010COMGAS      ON           R$  000000001744000000000180990000000017440000000001787900000000180990000000017440000000001798900003000000000000000300000000000005363800000000000000009999123100000010000000000000BRCGASACNOR0151
012020090202CGAS5       010COMGAS      PNA          R$  000000001906900000000191750000000019069000000001910700000000191750000000019150000000001917500020000000000000003300000000000063055100000000000000009999123100000010000000000000BRCGASACNPA3148
012020090202CGRA3       010GRAZZIOTIN  ON           R$  000000000265000000000026680000000002630000000000263500000000026310000000002630000000000266400012000000000000001500000000000003953500000000000000009999123100000010000000000000BRCGRAACNOR2071
012020090202CGRA4       010GRAZZIOTIN  PN           R$  000000000274500000000027900000000002703000000000274100000000027900000000002730000000000279500068000000000000008900000000000024396700000000000000009999123100000010000000000000BRCGRAACNPR9071
012020090202CHCM34      010CHARTER COMMDRN          R$  000000006673900000000667390000000066739000000006673900000000667390000000000000000000000000000001000000000000000020000000000001334780000000000000009999123100000010000000000000BRCHCMBDR001100
012020090202CHVX34      010CHEVRON     DRN          R$  000000002237800000000223780000000022333000000002233500000000223330000000021000000000002233300002000000000000000160000000000003573730000000000000009999123100000010000000000000BRCHVXBDR008138
012020090202CIEL3       010CIELO       ON      NM   R$  000000000045800000000004730000000000450000000000046400000000004680000000000467000000000046826905000000000063174100000000029333596600000000000000009999123100000010000000000000BRCIELACNOR3142
012020090202CLSC3       010CELESC      ON      N2   R$  000000000610000000000061000000000006100000000000610000000000061000000000005700000000000625000003000000000000000300000000000001830000000000000000009999123100000010000000000000BRCLSCACNOR6136
012020090202CLSC4       010CELESC      PN      N2   R$  000000000564900000000056490000000005649000000000564900000000056490000000005529000000000565000002000000000000000200000000000001129800000000000000009999123100000010000000000000BRCLSCACNPR3115
012020090202CMCS34      010COMCAST     DRN          R$  000000002455500000000245550000000024210000000002433700000000243090000000022000000000002430900008000000000000004560000000000110977260000000000000009999123100000010000000000000BRCMCSBDR008135
012020090202CMIG3       010CEMIG       ON      N1   R$  000000000110200000000011090000000001085000000000110100000000011060000000001106000000000110705106000000000002568800000000002829836300000000000000009999123100000010000000000000BRCMIGACNOR6224
012020090202CMIG4       010CEMIG       PN      N1   R$  000000000109000000000010910000000001073000000000108200000000010870000000001086000000000108714612000000000006900700000000007472629100000000000000009999123100000010000000000000BRCMIGACNPR3225
012020090202CNIC34      010CANAD NATIONDRN          R$  000000002817000000000281700000000028170000000002817000000000281700000000000000000000000000000001000000000000000020000000000000563400000000000000009999123100000010000000000000BRCNICBDR007104
012020090202CNTO3       010CENTAURO    ON      NM   R$  000000000321100000000032450000000003145000000000319300000000031850000000003185000000000319006361000000000001806800000000005770104900000000000000009999123100000010000000000000BRCNTOACNOR5100
012020090202COCA34      010COCA COLA   DRN          R$  000000002715100000000274300000000027145000000002741900000000274300000000027210000000000000000005000000000000001060000000000029064670000000000000009999123100000010000000000000BRCOCABDR002135
012020090202COCE3       010COELCE      ON           R$  000000000799000000000079900000000007200000000000760400000000072250000000007100000000000740000046000000000000004600000000000034978700000000000000009999123100000010000000000000BRCOCEACNOR0139
012020090202COCE5       010COELCE      PNA          R$  000000000615100000000062210000000006064000000000612700000000060710000000006065000000000612100122000000000000018700000000000114591700000000000000009999123100000010000000000000BRCOCEACNPA3140
012020090202COGN3       010COGNA ON    ON      NM   R$  000000000060400000000006060000000000582000000000059000000000005930000000000593000000000059432340000000000051161000000000030208890600000000000000009999123100000010000000000000BRCOGNACNOR2101
012020090202COTY34      010COTY INC    DRN          R$  000000000095800000000009580000000000958000000000095800000000009580000000000900000000000098300001000000000000000070000000000000067060000000000000009999123100000010000000000000BRCOTYBDR006116
012020090202COWC34      010COSTCO      DRN          R$  000000004737000000000482640000000047370000000004814700000000480000000000000000000000000000000006000000000000001630000000000078479720000000000000009999123100000010000000000000BRCOWCBDR006119
012020090202CPFE3       010CPFL ENERGIAON      NM   R$  000000000292300000000029330000000002867000000000289800000000029030000000002899000000000290310124000000000002248500000000006517363800000000000000009999123100000010000000000000BRCPFEACNOR0130
012020090202CPLE3       010COPEL       ON      N1   R$  000000000616600000000062830000000006111000000000622100000000062830000000006262000000000628301922000000000000399900000000002487924700000000000000009999123100000010000000000000BRCPLEACNOR8139
012020090202CPLE6       010COPEL       PNB     N1   R$  000000000636900000000064220000000006270000000000636900000000064220000000006422000000000642304815000000000000826000000000005261030600000000000000009999123100000010000000000000BRCPLEACNPB9136
012020090202CRFB3       010CARREFOUR BRON  EJ  NM   R$  000000000205000000000020750000000002019000000000204800000000020520000000002051000000000205222044000000000010572000000000021655642500000000000000009999123100000010000000000000BRCRFBACNOR2107
012020090202CRIV3       010ALFA FINANC ON           R$  000000000057500000000005750000000000551000000000057300000000005740000000000556000000000057600016000000000000009100000000000005215000000000000000009999123100000010000000000000BRCRIVACNOR4194
012020090202CRIV4       010ALFA FINANC PN           R$  000000000064500000000006450000000000645000000000064500000000006450000000000620000000000064700002000000000000000200000000000000129000000000000000009999123100000010000000000000BRCRIVACNPR1204
012020090202CRPG5       010CRISTAL     PNA          R$  000000000203000000000020790000000002030000000000204800000000020460000000002040000000000205000031000000000000003500000000000007170700000000000000009999123100000010000000000000BRCRPGACNPA3108
012020090202CRPG6       010CRISTAL     PNB          R$  000000000207000000000020700000000002070000000000207000000000020700000000002001000000000208000002000000000000000200000000000000414000000000000000009999123100000010000000000000BRCRPGACNPB1108
012020090202CSAB3       010SEG AL BAHIAON           R$  000000000490000000000049000000000004900000000000490000000000049000000000004800000000000510000001000000000000000100000000000000490000000000000000009999123100000010000000000000BRCSABACNOR1058
012020090202CSAN3       010COSAN       ON      NM   R$  000000000822500000000082320000000007875000000000798000000000079110000000007911000000000791414858000000000002880000000000022985067500000000000000009999123100000010000000000000BRCSANACNOR6120
012020090202CSCO34      010CISCO       DRN          R$  000000002244000000000228620000000022440000000002281400000000227110000000000000000000000000000015000000000000010330000000000235668850000000000000009999123100000010000000000000BRCSCOBDR004138
012020090202CSMG3       010COPASA      ON      NM   R$  000000000491700000000049170000000004848000000000488900000000049000000000004899000000000490003914000000000000656700000000003210893100000000000000009999123100000010000000000000BRCSMGACNOR5156
012020090202CSNA3       010SID NACIONALON           R$  000000000155000000000015830000000001485000000000151800000000015260000000001525000000000152629302000000000019466400000000029563136600000000000000009999123100000010000000000000BRCSNAACNOR6252
012020090202CSRN6       010COSERN      PNB          R$  000000000170900000000017090000000001709000000000170900000000017090000000001600000000000185000001000000000000000100000000000000170900000000000000009999123100000010000000000000BRCSRNACNPB1173
012020090202CTGP34      010CITIGROUP   DRN          R$  000000002775100000000279320000000027750000000002775200000000279320000000027000000000002793200026000000000000005080000000000140984760000000000000009999123100000010000000000000BRCTGPBDR000139
012020090202CTKA3       010KARSTEN     ON           R$  000000000166100000000017140000000001635000000000166700000000016350000000001635000000000165300015000000000000001700000000000002834000000000000000009999123100000010000000000000BRCTKAACNOR0043
012020090202CTKA4       010KARSTEN     PN           R$  000000000127000000000013700000000001190000000000128500000000012500000000001250000000000128200102000000000000024700000000000031756300000000000000009999123100000010000000000000BRCTKAACNPR7043
012020090202CTNM3       010COTEMINAS   ON           R$  000000000114900000000012480000000001110000000000115600000000011100000000001110000000000113800039000000000000007100000000000008208900000000000000009999123100000010000000000000BRCTNMACNOR9130
012020090202CTNM4       010COTEMINAS   PN           R$  000000000059700000000006040000000000583000000000059000000000005850000000000583000000000058500068000000000000030800000000000018194800000000000000009999123100000010000000000000BRCTNMACNPR6129
012020090202CTSA3       010SANTANENSE  ON           R$  000000000027500000000002750000000000259000000000026400000000002650000000000262000000000026600096000000000000037500000000000009934200000000000000009999123100000010000000000000BRCTSAACNOR3060
012020090202CTSA4       010SANTANENSE  PN           R$  000000000023500000000002390000000000231000000000023200000000002370000000000234000000000023700026000000000000009600000000000002230800000000000000009999123100000010000000000000BRCTSAACNPR0060
012020090202CVCB3       010CVC BRASIL  ON      NM   R$  000000000187700000000018940000000001837000000000185100000000018500000000001850000000000185211170000000000003006500000000005567217200000000000000009999123100000010000000000000BRCVCBACNOR1113
012020090202CVSH34      010CVS HEALTH  DRN          R$  000000001631000000000163100000000016310000000001631000000000163100000000000000000000001690000001000000000000000020000000000000326200000000000000009999123100000010000000000000BRCVSHBDR008117
012020090202CYRE3       010CYRELA REALTON      NM   R$  000000000245600000000024950000000002404000000000242500000000024310000000002431000000000243329635000000000006083100000000014756364100000000000000009999123100000010000000000000BRCYREACNOR7134
012020090202D1EL34      010DELL TECHNOLDRN          R$  000000003587000000000358700000000035870000000003587000000000358700000000031000000000000000000001000000000000000900000000000032283000000000000000009999123100000010000000000000BRD1ELBDR009100
012020090202D1XC34      010DXC TECHNOLODRN          R$  000000001095700000000118900000000010957000000001151000000000118470000000000000000000000000000084000000000000005210000000000059967310000000000000009999123100000010000000000000BRD1XCBDR008101
012020090202DASA3       010DASA        ON           R$  000000000662000000000066200000000006401000000000653200000000064010000000006401000000000699900005000000000000000500000000000003266200000000000000009999123100000010000000000000BRDASAACNOR1119
012020090202DBAG34      010DEUTSCHE AK DRN          R$  000000000504400000000050440000000005044000000000504400000000050440000000000000000000000000000002000000000000000050000000000000252200000000000000009999123100000010000000000000BRDBAGBDR008100
012020090202DDNB34      010DUPONT N INCDRN          R$  000000003207000000000320700000000032070000000003207000000000320700000000028000000000000000000022000000000000004400000000000141108000000000000000009999123100000010000000000000BRDDNBBDR008105
012020090202DEAI34      010DELTA       DRN          R$  000000001652000000000166000000000016520000000001658400000000166000000000011500000000002300000003000000000000000050000000000000829200000000000000009999123100000010000000000000BRDEAIBDR008116
012020090202DGCO34      010DOLLAR GENERDRN          R$  000000005368900000000544810000000053689000000005384700000000544810000000000000000000000000000002000000000000000050000000000002692370000000000000009999123100000010000000000000BRDGCOBDR007105
012020090202DIRR3       010DIRECIONAL  ON      NM   R$  000000000153900000000015860000000001515000000000155200000000015700000000001570000000000157908121000000000001457700000000002263531800000000000000009999123100000010000000000000BRDIRRACNOR0112
012020090202DISB34      010WALT DISNEY DRN          R$  000000007183800000000726800000000071722000000007218100000000725850000000070000000000000000000027000000000000001810000000000130648850000000000000009999123100000010000000000000BRDISBBDR006114
012020090202DMMO3       010DOMMO       ON           R$  000000000012700000000001270000000000124000000000012500000000001250000000000124000000000012500938000000000001948700000000000244117800000000000000009999123100000010000000000000BRDMMOACNOR0102
012020090202DMVF3       010D1000VFARMA ON      NM   R$  000000000122500000000012450000000001185000000000121500000000011870000000001186000000000118700648000000000000202300000000000245802800000000000000009999123100000010000000000000BRDMVFACNOR9100
012020090202DOHL4       010DOHLER      PN           R$  000000000051500000000005220000000000515000000000051600000000005150000000000505000000000051500011000000000000003500000000000001807900000000000000009999123100000010000000000000BRDOHLACNPR9061
012020090202DTCY3       010DTCOM-DIRECTON           R$  000000000069500000000006980000000000651000000000066600000000006750000000000658000000000067900025000000000000006900000000000004597000000000000000009999123100000010000000000000BRDTCYACNOR5109
012020090202DTEX3       010DURATEX     ON      NM   R$  000000000172600000000017440000000001680000000000170200000000017100000000001709000000000171010480000000000004082300000000006950352100000000000000009999123100000010000000000000BRDTEXACNOR3128
012020090202E1CL34      010ECOLAB INC  DRN          R$  000000002772300000000277230000000027723000000002772300000000277230000000000000000000000000000001000000000000002170000000000060158910000000000000009999123100000010000000000000BRE1CLBDR002102
012020090202E1XC34      010EXELON CORP DRN          R$  000000001970800000000197080000000019708000000001970800000000197080000000000000000000000000000002000000000000000300000000000005912400000000000000009999123100000010000000000000BRE1XCBDR007103
012020090202EAIN34      010ELECTR ARTS DRN          R$  000000003765500000000376550000000036900000000003725400000000375290000000037400000000003780700039000000000000000820000000000030548700000000000000009999123100000010000000000000BREAINBDR007100
012020090202EALT3       010ACO ALTONA  ON           R$  000000000123500000000012350000000001235000000000123500000000012350000000001210000000000124700004000000000000000400000000000000494000000000000000009999123100000010000000000000BREALTACNOR4133
012020090202EALT4       010ACO ALTONA  PN           R$  000000000054900000000005620000000000540000000000054600000000005620000000000561000000000056200141000000000000080600000000000044052300000000000000009999123100000010000000000000BREALTACNPR1133
012020090202ECOR3       010ECORODOVIAS ON      NM   R$  000000000134100000000013550000000001316000000000133100000000013390000000001338000000000133911401000000000003747600000000004990996900000000000000009999123100000010000000000000BRECORACNOR8116
012020090202EGIE3       010ENGIE BRASILON      NM   R$  000000000438300000000043970000000004316000000000435400000000043830000000004382000000000438308780000000000001701100000000007407377900000000000000009999123100000010000000000000BREGIEACNOR9113
012020090202ELET3       010ELETROBRAS  ON      N1   R$  000000000366000000000037850000000003609000000000371200000000037740000000003771000000000377423966000000000007252800000000026929220500000000000000009999123100000010000000000000BRELETACNOR6155
012020090202ELET5       010ELETROBRAS  PNA     N1   R$  000000000405100000000040510000000004051000000000405100000000040510000000004052000000000420000001000000000000000100000000000000405100000000000000009999123100000010000000000000BRELETACNPA9072
012020090202ELET6       010ELETROBRAS  PNB     N1   R$  000000000369200000000038020000000003654000000000374100000000037860000000003786000000000378911466000000000002525100000000009447383000000000000000009999123100000010000000000000BRELETACNPB7072
012020090202EMAE4       010EMAE        PN           R$  000000000295200000000029780000000002881000000000294500000000029730000000002901000000000297400012000000000000001800000000000005302100000000000000009999123100000010000000000000BREMAEACNPR1114
012020090202EMBR3       010EMBRAER     ON      NM   R$  000000000077300000000007860000000000747000000000075900000000007570000000000757000000000075817893000000000010657600000000008091495200000000000000009999123100000010000000000000BREMBRACNOR4189
012020090202ENAT3       010ENAUTA PART ON      NM   R$  000000000115000000000011770000000001129000000000115300000000011630000000001163000000000116508626000000000002464600000000002841745400000000000000009999123100000010000000000000BRENATACNOR0101
012020090202ENBR3       010ENERGIAS BR ON      NM   R$  000000000190300000000019100000000001865000000000188800000000018810000000001881000000000188212244000000000003520200000000006646208300000000000000009999123100000010000000000000BRENBRACNOR2129
012020090202ENEV3       010ENEVA       ON      NM   R$  000000000498800000000049880000000004864000000000491200000000049260000000004926000000000492908516000000000001313800000000006454578900000000000000009999123100000010000000000000BRENEVACNOR8104
012020090202ENGI3       010ENERGISA    ON      N2   R$  000000000131400000000013360000000001314000000000132500000000013170000000001317000000000133900068000000000000009300000000000012329300000000000000009999123100000010000000000000BRENGIACNOR0138
012020090202ENGI4       010ENERGISA    PN      N2   R$  000000000077400000000007880000000000764000000000077400000000007760000000000774000000000078500065000000000000013100000000000010146500000000000000009999123100000010000000000000BRENGIACNPR7134
012020090202ENGI11      010ENERGISA    UNT     N2   R$  000000000442700000000044760000000004381000000000442300000000044480000000004447000000000444904938000000000000974000000000004308750700000000000000009999123100000010000000000000BRENGICDAM16128
012020090202ENMT3       010ENERGISA MT ON           R$  000000000299000000000029900000000002990000000000299000000000029900000000002610000000000299000002000000000000000500000000000001495000000000000000009999123100000010000000000000BRENMTACNOR5111
012020090202ENMT4       010ENERGISA MT PN           R$  000000000298900000000029900000000002989000000000298900000000029900000000002610000000000299000004000000000000000700000000000002092500000000000000009999123100000010000000000000BRENMTACNPR2114
012020090202EQIX34      010EQUINIX INC DRN          R$  000000008519900000000852250000000085199000000008522000000000852250000000000000000000000000000002000000000000000580000000000049427900000000000000009999123100000010000000000000BREQIXBDR002106
012020090202EQPA3       010EQTL PARA   ON           R$  000000000033800000000003420000000000335000000000033600000000003420000000000334000000000034200088000000000000039800000000000013386800000000000000009999123100000010000000000000BREQPAACNOR1101
012020090202EQTL3       010EQUATORIAL  ON      NM   R$  000000000240600000000024060000000002363000000000238300000000023890000000002388000000000238914093000000000004600200000000010965156100000000000000009999123100000010000000000000BREQTLACNOR0126
012020090202EUCA3       010EUCATEX     ON      N1   R$  000000000230000000000023500000000002300000000000232600000000023160000000002316000000000235000008000000000000001000000000000002326000000000000000009999123100000010000000000000BREUCAACNOR1151
012020090202EUCA4       010EUCATEX     PN      N1   R$  000000000065800000000006580000000000643000000000064900000000006500000000000649000000000065000108000000000000066100000000000042931800000000000000009999123100000010000000000000BREUCAACNPR8038
012020090202EVEN3       010EVEN        ON      NM   R$  000000000130900000000013180000000001280000000000129800000000013110000000001300000000000131108582000000000002011100000000002612153200000000000000009999123100000010000000000000BREVENACNOR8112
012020090202EXGR34      010EXPEDIA GROUDRN          R$  000000002680000000000268550000000026800000000002682400000000268550000000000000000000000000000004000000000000000400000000000010729900000000000000009999123100000010000000000000BREXGRBDR004103
012020090202EXXO34      010EXXON MOBIL DRN          R$  000000000528900000000053390000000005249000000000526900000000052620000000005200000000000526200009000000000000002070000000000010907960000000000000009999123100000010000000000000BREXXOBDR006140
012020090202EZTC3       010EZTEC       ON      NM   R$  000000000398200000000040890000000003942000000000403700000000040800000000004079000000000408014823000000000002818800000000011380022800000000000000009999123100000010000000000000BREZTCACNOR0114
012020090202F1NI34      010FIDELITY NATDRN          R$  000000002083400000000208340000000020834000000002083400000000208340000000000000000000000000000001000000000000002120000000000044168080000000000000009999123100000010000000000000BRF1NIBDR004102
012020090202F1RI34      010FEDERAL REALDRN          R$  000000001080700000000108680000000010777000000001079400000000108680000000000000000000001208000006000000000000002210000000000023855150000000000000009999123100000010000000000000BRF1RIBDR005102
012020090202FBOK34      010FACEBOOK    DRN          R$  000000008000000000000813200000000078980000000008017200000000809000000000077000000000008140000061000000000000008070000000000646996030000000000000009999123100000010000000000000BRFBOKBDR006100
012020090202FCXO34      010FREEPORT    DRN          R$  000000000873100000000087690000000008569000000000869800000000085690000000000000000000000000000008000000000000004100000000000035664900000000000000009999123100000010000000000000BRFCXOBDR007132
012020090202FESA4       010FERBASA     PN      N1   R$  000000000185900000000018710000000001843000000000185500000000018620000000001855000000000186200530000000000000153600000000000285072400000000000000009999123100000010000000000000BRFESAACNPR5066
012020090202FLRY3       010FLEURY      ON      NM   R$  000000000270000000000028440000000002686000000000279800000000028240000000002822000000000282429447000000000006572800000000018394535300000000000000009999123100000010000000000000BRFLRYACNOR5127
012020090202FRAS3       010FRAS-LE     ON      N1   R$  000000000053400000000005480000000000530000000000054000000000005400000000000537000000000054000437000000000000128000000000000069232200000000000000009999123100000010000000000000BRFRASACNOR0149
012020090202FSLR34      010FIRST SOLAR DRN          R$  000000002078400000000207840000000020784000000002078400000000207840000000000000000000000000000001000000000000000040000000000000831360000000000000009999123100000010000000000000BRFSLRBDR001100
012020090202G1RM34      010GARMIN LTD  DRN          R$  000000002834900000000283490000000028349000000002834900000000283490000000000000000000000000000001000000000000000010000000000000283490000000000000009999123100000010000000000000BRG1RMBDR006102
012020090202G1WW34      010WW GRAINGER DRN          R$  000000003965800000000396910000000039658000000003967700000000396910000000000000000000000000000004000000000000000990000000000039281090000000000000009999123100000010000000000000BRG1WWBDR005103
012020090202GEOO34      010GE          DRN          R$  000000000334200000000034620000000003342000000000345500000000034620000000000000000000000346200002000000000000000380000000000001313160000000000000009999123100000010000000000000BRGEOOBDR000140
012020090202GEPA3       010GER PARANAP ON           R$  000000000420000000000042000000000004200000000000420000000000042000000000004103000000000432000001000000000000000100000000000000420000000000000000009999123100000010000000000000BRGEPAACNOR2146
012020090202GFSA3       010GAFISA      ON      NM   R$  000000000050000000000005030000000000484000000000048900000000004860000000000486000000000048705293000000000004143000000000002027331700000000000000009999123100000010000000000000BRGFSAACNOR3119
012020090202GGBR3       010GERDAU      ON      N1   R$  000000000167400000000017000000000001627000000000164800000000016390000000001639000000000165000526000000000000126000000000000207671400000000000000009999123100000010000000000000BRGGBRACNOR1173
012020090202GGBR4       010GERDAU      PN      N1   R$  000000000201000000000020390000000001942000000000197300000000019790000000001976000000000197918484000000000010026500000000019785922400000000000000009999123100000010000000000000BRGGBRACNPR8173
012020090202GILD34      010GILEAD      DRN          R$  000000001790000000000179200000000017900000000001791000000000179200000000000000000000002156000005000000000000001800000000000032238400000000000000009999123100000010000000000000BRGILDBDR000117
012020090202GNDI3       010INTERMEDICA ON      NM   R$  000000000745300000000075100000000007245000000000736200000000073680000000007368000000000737015067000000000002139300000000015750396000000000000000009999123100000010000000000000BRGNDIACNOR2102
012020090202GOAU3       010GERDAU MET  ON      N1   R$  000000000080000000000008130000000000777000000000079600000000007930000000000786000000000079300334000000000000109900000000000087486900000000000000009999123100000010000000000000BRGOAUACNOR1250
012020090202GOAU4       010GERDAU MET  PN      N1   R$  000000000092000000000009340000000000882000000000090100000000009000000000000899000000000090015193000000000017030800000000015357391000000000000000009999123100000010000000000000BRGOAUACNPR8251
012020090202GOGL34      010ALPHABET    DRN A        R$  000000003588000000000369990000000035700000000003625100000000369230000000036430000000003692300147000000000000018410000000000667396530000000000000009999123100000010000000000000BRGOGLBDR001100
012020090202GOGL35      010ALPHABET    DRN C        R$  000000003600000000000371350000000036000000000003624900000000370800000000000000000000003708000005000000000000004760000000000172549000000000000000009999123100000010000000000000BRGOGLBDR019100
012020090202GOLL4       010GOL         PN      N2   R$  000000000189200000000019220000000001849000000000188100000000018860000000001885000000000188614772000000000006481100000000012192438300000000000000009999123100000010000000000000BRGOLLACNPR4125
012020090202GPAR3       010CELGPAR     ON           R$  000000000327900000000033500000000003020000000000317800000000031210000000002910000000000340000026000000000000002600000000000008264100000000000000009999123100000010000000000000BRGPARACNOR4104
012020090202GPIV33      010GP INVEST   DR3          R$  000000000055500000000005860000000000551000000000056400000000005600000000000560000000000056400136000000000000059700000000000033687500000000000000009999123100000010000000000000BRGPIVBDR003104
012020090202GPRK34      010GEOPARK LTD DRN          R$  000000000485700000000048570000000004800000000000484200000000048000000000000000000000000000000002000000000000000400000000000001937100000000000000009999123100000010000000000000BRGPRKBDR007103
012020090202GPRO34      010GOPRO       DRN          R$  000000000241100000000024110000000002379000000000238200000000023790000000001580000000000000000003000000000000000120000000000000285910000000000000009999123100000010000000000000BRGPROBDR009100
012020090202GRND3       010GRENDENE    ON      NM   R$  000000000079900000000008450000000000793000000000082700000000008370000000000837000000000083807886000000000004465300000000003697160500000000000000009999123100000010000000000000BRGRNDACNOR3158
012020090202GSGI34      010GOLDMANSACHSDRN ED       R$  000000001115000000000111500000000011150000000001115000000000111500000000000000000000000000000001000000000000000100000000000001115000000000000000009999123100000010000000000000BRGSGIBDR008140
012020090202GSHP3       010GENERALSHOPPON      NM   R$  000000000480000000000048000000000004795000000000479700000000047950000000004770000000000570000004000000000000000400000000000001919000000000000000009999123100000010000000000000BRGSHPACNOR7102
012020090202GUAR3       010GUARARAPES  ON           R$  000000000180200000000018850000000001790000000000185400000000018850000000001882000000000188503528000000000001057700000000001961086100000000000000009999123100000010000000000000BRGUARACNOR4165
012020090202H1RB34      010HER BLOCK INDRN          R$  000000000790000000000079000000000007817000000000787900000000078170000000007800000000000000000004000000000000000800000000000006303400000000000000009999123100000010000000000000BRH1RBBDR008102
012020090202H1ST34      010HOST HOTELS DRN          R$  000000000605100000000060510000000006040000000000604500000000060400000000004353000000000000000003000000000000001590000000000009612400000000000000009999123100000010000000000000BRH1STBDR008102
012020090202H1UM34      010HUMANA INC  DRN          R$  000000004578700000000457870000000045787000000004578700000000457870000000000000000000000000000001000000000000000010000000000000457870000000000000009999123100000010000000000000BRH1UMBDR009102
012020090202HAGA3       010HAGA S/A    ON           R$  000000000034900000000003780000000000340000000000035900000000003750000000000370000000000037800141000000000000067400000000000024210500000000000000009999123100000010000000000000BRHAGAACNOR7103
012020090202HAGA4       010HAGA S/A    PN           R$  000000000021000000000002100000000000201000000000020500000000002090000000000203000000000020900191000000000000102500000000000021073100000000000000009999123100000010000000000000BRHAGAACNPR4103
012020090202HALI34      010HALLIBURTON DRN ED       R$  000000000864200000000086420000000008642000000000864200000000086420000000000000000000000000000007000000000000000070000000000000604940000000000000009999123100000010000000000000BRHALIBDR004135
012020090202HAPV3       010HAPVIDA     ON      NM   R$  000000000689200000000069290000000006702000000000679500000000067810000000006781000000000679810864000000000001744100000000011852740300000000000000009999123100000010000000000000BRHAPVACNOR4105
012020090202HBOR3       010HELBOR      ON      NM   R$  000000000123700000000012600000000001202000000000122500000000012060000000001206000000000120703811000000000001775300000000002174857100000000000000009999123100000010000000000000BRHBORACNOR3114
012020090202HBTS5       010HABITASUL   PNA          R$  000000000280000000000028000000000002411000000000250500000000024480000000002447000000000270000006000000000000000600000000000001503400000000000000009999123100000010000000000000BRHBTSACNPA3124
012020090202HETA4       010HERCULES    PN           R$  000000000079100000000008020000000000790000000000079400000000008020000000000800000000000083500007000000000000001200000000000000953500000000000000009999123100000010000000000000BRHETAACNPR9136
012020090202HGTX3       010CIA HERING  ON      NM   R$  000000000200000000000020200000000001974000000000199800000000019980000000001998000000000199916582000000000005735200000000011459931400000000000000009999123100000010000000000000BRHGTXACNOR9151
012020090202HOME34      010HOME DEPOT  DRN ED       R$  000000007733400000000773340000000077334000000007733400000000773340000000000000000000000000000001000000000000001400000000000108267600000000000000009999123100000010000000000000BRHOMEBDR002134
012020090202HONB34      010HONEYWELL   DRN          R$  000000009230000000000923000000000092300000000009230000000000923000000000000000000000000000000018000000000000001500000000000138450000000000000000009999123100000010000000000000BRHONBBDR006127
012020090202HYPE3       010HYPERA      ON      NM   R$  000000000321600000000033260000000003209000000000328600000000033260000000003319000000000332612629000000000002471400000000008122951500000000000000009999123100000010000000000000BRHYPEACNOR0122
012020090202I1LM34      010ILLUMINA INCDRN          R$  000000003923900000000392390000000039239000000003923900000000392390000000000000000000000000000001000000000000000010000000000000392390000000000000009999123100000010000000000000BRI1LMBDR007100
012020090202I1NF34      010IHS MARKIT LDRN          R$  000000002241200000000224120000000022412000000002241200000000224120000000000000000000000000000001000000000000002130000000000047737560000000000000009999123100000010000000000000BRI1NFBDR007103
012020090202I1PC34      010INTERNATIONADRN          R$  000000002039200000000203920000000020392000000002039200000000203920000000000000000000000000000001000000000000000150000000000003058800000000000000009999123100000010000000000000BRI1PCBDR009103
012020090202I1RM34      010IRON MOUNTAIDRN          R$  000000001637800000000163780000000016378000000001637800000000163780000000000000000000000000000001000000000000000030000000000000491340000000000000009999123100000010000000000000BRI1RMBDR004102
012020090202IBMB34      010IBM         DRN          R$  000000006810000000000689900000000068100000000006824700000000689900000000065000000000000000000004000000000000000240000000000016379380000000000000009999123100000010000000000000BRIBMBBDR003135
012020090202IDVL3       010INDUSVAL    ON      N2   R$  000000000024500000000002500000000000245000000000024500000000002450000000000245000000000025000040000000000000012600000000000003096000000000000000009999123100000010000000000000BRIDVLACNOR5130
012020090202IDVL4       010INDUSVAL    PN      N2   R$  000000000025700000000002600000000000255000000000025800000000002590000000000257000000000025900011000000000000001800000000000000464600000000000000009999123100000010000000000000BRIDVLACNPR2130
012020090202IGTA3       010IGUATEMI    ON      NM   R$  000000000348500000000034930000000003434000000000346500000000034820000000003470000000000348205900000000000001103000000000003821950900000000000000009999123100000010000000000000BRIGTAACNOR5124
012020090202IRBR3       010IRBBRASIL REON      NM   R$  000000000070000000000007080000000000686000000000069500000000007010000000000701000000000070223423000000000023680800000000016478563400000000000000009999123100000010000000000000BRIRBRACNOR4108
012020090202ITLC34      010INTEL       DRN          R$  000000002796000000000282200000000027930000000002804700000000281680000000026550000000002816800016000000000000004240000000000118919640000000000000009999123100000010000000000000BRITLCBDR005139
012020090202ITSA3       010ITAUSA      ON  ED  N1   R$  000000000107600000000010820000000001057000000000106600000000010630000000001063000000000107001067000000000000294200000000000313726300000000000000009999123100000010000000000000BRITSAACNOR0401
012020090202ITSA4       010ITAUSA      PN  ED  N1   R$  000000000097400000000009760000000000953000000000096000000000009590000000000959000000000096032222000000000025646600000000024627229100000000000000009999123100000010000000000000BRITSAACNPR7401
012020090202ITUB3       010ITAUUNIBANCOON  ED  N1   R$  000000000231800000000023290000000002290000000000230700000000023070000000002307000000000230801434000000000000330600000000000762802000000000000000009999123100000010000000000000BRITUBACNOR4273
012020090202ITUB4       010ITAUUNIBANCOPN  ED  N1   R$  000000000243500000000024450000000002390000000000240800000000024290000000002428000000000242945390000000000025170900000000060621661900000000000000009999123100000010000000000000BRITUBACNPR1273
012020090202J1KH34      010JACK HENRY  DRN          R$  000000002215300000000223380000000022153000000002223800000000223380000000000000000000000000000003000000000000000710000000000015789680000000000000009999123100000010000000000000BRJ1KHBDR008102
012020090202JBDU3       010J B DUARTE  ON           R$  000000000025900000000002600000000000244000000000025200000000002530000000000244000000000025300009000000000000002200000000000000554500000000000000009999123100000010000000000000BRJBDUACNOR6142
012020090202JBDU4       010J B DUARTE  PN           R$  000000000013300000000001350000000000130000000000013300000000001330000000000132000000000013300052000000000000021900000000000002916000000000000000009999123100000010000000000000BRJBDUACNPR3142
012020090202JBSS3       010JBS         ON      NM   R$  000000000223500000000022640000000002212000000000223600000000022560000000002255000000000225629363000000000011660500000000026076360500000000000000009999123100000010000000000000BRJBSSACNOR8115
012020090202JDCO34      010JD COM      DRN          R$  000000004587700000000458770000000043999000000004524200000000445600000000042000000000000000000012000000000000000650000000000029407850000000000000009999123100000010000000000000BRJDCOBDR001100
012020090202JHSF3       010JHSF PART   ON      NM   R$  000000000073400000000007390000000000712000000000071800000000007130000000000713000000000071410766000000000006210600000000004462907100000000000000009999123100000010000000000000BRJHSFACNOR2116
012020090202JNJB34      010JOHNSON     DRN ED       R$  000000008129900000000825930000000080500000000008249700000000825930000000080000000000008259300022000000000000002640000000000217793360000000000000009999123100000010000000000000BRJNJBBDR002135
012020090202JOPA3       010JOSAPAR     ON           R$  000000000334500000000033900000000003200000000000331600000000033080000000003001000000000335000015000000000000001500000000000004975200000000000000009999123100000010000000000000BRJOPAACNOR5131
012020090202JPMC34      010JPMORGAN    DRN          R$  000000002690000000000273800000000026700000000002720700000000273360000000026000000000002733600034000000000000006850000000000186372150000000000000009999123100000010000000000000BRJPMCBDR009134
012020090202JPSA3       010JEREISSATI  ON           R$  000000000240700000000024140000000002367000000000240400000000024100000000002405000000000241000648000000000000197300000000000474408000000000000000009999123100000010000000000000BRJPSAACNOR6103
012020090202JSLG3       010JSL         ON      NM   R$  000000000323600000000034160000000003235000000000335400000000034020000000003402000000000340308502000000000002172500000000007288465800000000000000009999123100000010000000000000BRJSLGACNOR2114
012020090202K1CS34      010KANSAS CITY DRN          R$  000000002498700000000262000000000024987000000002557900000000261020000000000000000000000000000007000000000000001580000000000040415860000000000000009999123100000010000000000000BRK1CSBDR009102
012020090202K1IM34      010KIMCO REALTYDRN          R$  000000000654100000000065700000000006504000000000652300000000065700000000000000000000000000000004000000000000001400000000000009132820000000000000009999123100000010000000000000BRK1IMBDR009101
012020090202K1RC34      010KROGER CO   DRN          R$  000000001919000000000191900000000019190000000001919000000000191900000000000000000000000000000001000000000000000040000000000000767600000000000000009999123100000010000000000000BRK1RCBDR001103
012020090202KEPL3       010KEPLER WEBERON           R$  000000000445600000000045100000000004415000000000445700000000044400000000004440000000000448700480000000000000106300000000000473832900000000000000009999123100000010000000000000BRKEPLACNOR1049
012020090202KHCB34      010KRAFT HEINZ DRN ED       R$  000000001861900000000186190000000018619000000001861900000000186190000000018500000000002001000002000000000000000020000000000000372380000000000000009999123100000010000000000000BRKHCBBDR007121
012020090202KLBN3       010KLABIN S/A  ON      N2   R$  000000000055800000000005600000000000536000000000054300000000005440000000000544000000000054501353000000000000377900000000000205472100000000000000009999123100000010000000000000BRKLBNACNOR2156
012020090202KLBN4       010KLABIN S/A  PN      N2   R$  000000000051100000000005170000000000495000000000050200000000004980000000000498000000000050004066000000000002341000000000001176631600000000000000009999123100000010000000000000BRKLBNACNPR9156
012020090202KLBN11      010KLABIN S/A  UNT     N2   R$  000000000260600000000026190000000002518000000000254200000000025390000000002539000000000254116417000000000005164500000000013129281900000000000000009999123100000010000000000000BRKLBNCDAM18128
012020090202L1IN34      010LINDE PLC   DRN ED       R$  000000003468000000000346800000000034680000000003468000000000346800000000000000000000000000000001000000000000000010000000000000346800000000000000009999123100000010000000000000BRL1INBDR006103
012020090202LAME3       010LOJAS AMERICON      N1   R$  000000000278400000000027840000000002718000000000273100000000027410000000002741000000000274206312000000000001232700000000003366774500000000000000009999123100000010000000000000BRLAMEACNOR9202
012020090202LAME4       010LOJAS AMERICPN      N1   R$  000000000330000000000033130000000003225000000000325000000000032560000000003255000000000325615364000000000003944400000000012822077800000000000000009999123100000010000000000000BRLAMEACNPR6202
012020090202LAVV3       010LAVVI       ON      NM   R$  000000000083000000000009000000000000805000000000084200000000009000000000000891000000000090033158000000000028617800000000024112867700000000000000009999123100000010000000000000BRLAVVACNOR4100
012020090202LBRN34      010L BRANDS    DRN          R$  000000000415400000000041540000000004125000000000414900000000041250000000000000000000000000000016000000000000000180000000000000746850000000000000009999123100000010000000000000BRLBRNBDR001119
012020090202LCAM3       010LOCAMERICA  ON      NM   R$  000000000209700000000021480000000002053000000000207900000000020760000000002074000000000207613026000000000003367800000000007002057700000000000000009999123100000010000000000000BRLCAMACNOR3133
012020090202LEVE3       010METAL LEVE  ON      NM   R$  000000000167700000000017500000000001675000000000171600000000017500000000001744000000000175104189000000000000818400000000001405055500000000000000009999123100000010000000000000BRLEVEACNOR2187
012020090202LIGT3       010LIGHT S/A   ON      NM   R$  000000000159800000000016140000000001575000000000158800000000015870000000001587000000000158811538000000000002822400000000004483440900000000000000009999123100000010000000000000BRLIGTACNOR2120
012020090202LINX3       010LINX        ON      NM   R$  000000000374600000000037810000000003665000000000371900000000037180000000003712000000000371806219000000000001498200000000005573003500000000000000009999123100000010000000000000BRLINXACNOR0118
012020090202LIPR3       010ELETROPAR   ON           R$  000000000769000000000076900000000007120000000000735500000000071210000000007121000000000749900006000000000000000600000000000004413100000000000000009999123100000010000000000000BRLIPRACNOR7117
012020090202LJQQ3       010QUERO-QUERO ON      NM   R$  000000000142800000000014770000000001401000000000143600000000014660000000001465000000000146604723000000000001880200000000002700073100000000000000009999123100000010000000000000BRLJQQACNOR5100
012020090202LOGG3       010LOG COM PROPON      NM   R$  000000000328100000000033800000000003250000000000332000000000032950000000003295000000000332003619000000000000637600000000002117188900000000000000009999123100000010000000000000BRLOGGACNOR7103
012020090202LOGN3       010LOG-IN      ON      NM   R$  000000000196600000000019780000000001922000000000195600000000019750000000001972000000000197502822000000000000736200000000001440538000000000000000009999123100000010000000000000BRLOGNACNOR3104
012020090202LOWC34      010LOWES COMPA DRN          R$  000000004565000000000456500000000045650000000004565000000000456500000000000000000000000000000022000000000000003000000000000136950000000000000000009999123100000010000000000000BRLOWCBDR007105
012020090202LPSB3       010LOPES BRASILON      NM   R$  000000000049000000000005390000000000487000000000051700000000005330000000000532000000000053304345000000000002778600000000001437963000000000000000009999123100000010000000000000BRLPSBACNOR0111
012020090202LREN3       010LOJAS RENNERON      NM   R$  000000000456600000000046180000000004509000000000455600000000045580000000004555000000000455816147000000000004266000000000019435918700000000000000009999123100000010000000000000BRLRENACNOR1203
012020090202LUXM4       010TREVISA     PN           R$  000000000468900000000046890000000004600000000000465800000000046000000000004500000000000460000015000000000000001500000000000006987200000000000000009999123100000010000000000000BRLUXMACNPR4047
012020090202LWSA3       010LOCAWEB     ON      NM   R$  000000000647300000000066870000000006459000000000662100000000066420000000006642000000000664411825000000000002137400000000014152714000000000000000009999123100000010000000000000BRLWSAACNOR8100
012020090202M1CH34      010MICROCHIP TEDRN          R$  000000003080000000000308000000000030800000000003080000000000308000000000000000000000000000000001000000000000000020000000000000616000000000000000009999123100000010000000000000BRM1CHBDR000103
012020090202M1NS34      010MONSTER BEVEDRN          R$  000000004660700000000466210000000046607000000004661800000000466210000000000000000000000000000002000000000000001350000000000062935550000000000000009999123100000010000000000000BRM1NSBDR004100
012020090202MACY34      010MACY S      DRN          R$  000000000400300000000041650000000003662000000000392000000000037700000000003663000000000420000073000000000000017500000000000068615800000000000000009999123100000010000000000000BRMACYBDR000116
012020090202MAPT4       010CEMEPE      PN           R$  000000000480000000000050000000000004402000000000471600000000044020000000004450000000000550000017000000000000001700000000000008017900000000000000009999123100000010000000000000BRMAPTACNPR5106
012020090202MCDC34      010MCDONALDS   DRN ED       R$  000000002906900000000290800000000029069000000002907900000000290800000000028561000000003000000002000000000000006600000000000191924700000000000000009999123100000010000000000000BRMCDCBDR000140
012020090202MDIA3       010M.DIASBRANCOON      NM   R$  000000000361600000000037960000000003605000000000373700000000037400000000003738000000000374010498000000000001828000000000006831415700000000000000009999123100000010000000000000BRMDIAACNOR7118
012020090202MDLZ34      010MONDELEZ INTDRN          R$  000000001556600000000155660000000015566000000001556600000000155660000000000000000000000000000001000000000000000020000000000000311320000000000000009999123100000010000000000000BRMDLZBDR002120
012020090202MDNE3       010MOURA DUBEUXON      NM   R$  000000000094000000000009420000000000897000000000091000000000009150000000000915000000000092201920000000000000289400000000000263393200000000000000009999123100000010000000000000BRMDNEACNOR9100
012020090202MEAL3       010IMC S/A     ON      NM   R$  000000000038200000000003990000000000376000000000038900000000003990000000000398000000000039908622000000000016109500000000006277749700000000000000009999123100000010000000000000BRMEALACNOR9105
012020090202MELI34      010MERCADOLIBREDRN          R$  000000006600000000000660800000000063115000000006467200000000643500000000064150000000006435000147000000000000011050000000000714635510000000000000009999123100000010000000000000BRMELIBDR006100
012020090202MGEL4       010MANGELS INDLPN           R$  000000000052500000000005490000000000515000000000052500000000005370000000000528000000000054000039000000000000018400000000000009661400000000000000009999123100000010000000000000BRMGELACNPR3147
012020090202MGLU3       010MAGAZ LUIZA ON      NM   R$  000000000959000000000096420000000009300000000000942800000000093510000000009351000000000935543035000000000010207700000000096242044900000000000000009999123100000010000000000000BRMGLUACNOR2116
012020090202MILS3       010MILLS       ON      NM   R$  000000000070500000000007120000000000690000000000070100000000007060000000000706000000000070702556000000000001206200000000000846475300000000000000009999123100000010000000000000BRMILSACNOR2112
012020090202MMMC34      0103M          DRN          R$  000000002240900000000224090000000022409000000002240900000000224090000000015000000000000000000001000000000000000010000000000000224090000000000000009999123100000010000000000000BRMMMCBDR000134
012020090202MNDL3       010MUNDIAL     ON           R$  000000000230000000000023100000000002300000000000230900000000023100000000002311000000000237500003000000000000008800000000000020320000000000000000009999123100000010000000000000BRMNDLACNOR4107
012020090202MNPR3       010MINUPAR     ON           R$  000000000057800000000005900000000000565000000000057800000000005650000000000557000000000056500014000000000000005800000000000003352400000000000000009999123100000010000000000000BRMNPRACNOR5122
012020090202MOAR3       010MONT ARANHA ON           R$  000000002049000000000204900000000020490000000002049000000000204900000000019110000000002098000001000000000000000100000000000002049000000000000000009999123100000010000000000000BRMOARACNOR5212
012020090202MOOO34      010ALTRIA GROUPDRN          R$  000000002498000000000249800000000023338000000002355600000000234470000000023400000000000000000003000000000000000090000000000002120110000000000000009999123100000010000000000000BRMOOOBDR007104
012020090202MOVI3       010MOVIDA      ON      NM   R$  000000000166400000000017450000000001664000000000171600000000017180000000001717000000000171816825000000000004387000000000007529030200000000000000009999123100000010000000000000BRMOVIACNOR0111
012020090202MRFG3       010MARFRIG     ON      NM   R$  000000000173400000000017610000000001712000000000174000000000017520000000001750000000000175224127000000000010485800000000018248854500000000000000009999123100000010000000000000BRMRFGACNOR0109
012020090202MRVE3       010MRV         ON      NM   R$  000000000184500000000018500000000001815000000000182700000000018240000000001824000000000182710951000000000002469500000000004513378400000000000000009999123100000010000000000000BRMRVEACNOR2120
012020090202MSBR34      010MORGAN STAN DRN          R$  000000002853000000000285300000000028530000000002853000000000285300000000000000000000000000000001000000000000000040000000000001141200000000000000009999123100000010000000000000BRMSBRBDR008129
012020090202MSCD34      010MASTERCARD  DRN          R$  000000019300000000001933440000000193000000000019331200000001933440000000151600000000000000000002000000000000000220000000000042528800000000000000009999123100000010000000000000BRMSCDBDR006137
012020090202MSFT34      010MICROSOFT   DRN          R$  000000012244400000001250700000000122444000000012420700000001246850000000123651000000012468500081000000000000008070000000001002357550000000000000009999123100000010000000000000BRMSFTBDR005139
012020090202MTRE3       010MITRE REALTYON      NM   R$  000000000146900000000015010000000001454000000000147600000000014860000000001485000000000148601901000000000000294900000000000435294700000000000000009999123100000010000000000000BRMTREACNOR6100
012020090202MTSA4       010METISA      PN           R$  000000000246000000000024980000000002415000000000244400000000024150000000002415000000000249500014000000000000004700000000000011489900000000000000009999123100000010000000000000BRMTSAACNPR9056
012020090202MULT3       010MULTIPLAN   ON      N2   R$  000000000220100000000022150000000002177000000000219700000000021950000000002195000000000219913653000000000003099300000000006810166800000000000000009999123100000010000000000000BRMULTACNOR5127
012020090202MUTC34      010MICRON TECHNDRN          R$  000000002501000000000252840000000025010000000002504000000000252840000000000000000000000000000002000000000000000180000000000004507280000000000000009999123100000010000000000000BRMUTCBDR008100
012020090202MYPK3       010IOCHP-MAXIONON      NM   R$  000000000115300000000011560000000001134000000000114300000000011470000000001147000000000114805566000000000001412000000000001614601900000000000000009999123100000010000000000000BRMYPKACNOR7148
012020090202N1CL34      010NORWEGIAN CRDRN          R$  000000000900000000000090000000000008920000000000896000000000089200000000000000000000001240000002000000000000000020000000000000179200000000000000009999123100000010000000000000BRN1CLBDR001100
012020090202N1DA34      010NASDAQ INC  DRN          R$  000000003669200000000368320000000036692000000003673800000000368320000000035000000000000000000002000000000000000030000000000001102160000000000000009999123100000010000000000000BRN1DABDR002102
012020090202N1EM34      010NEWMONT GOLDDRN          R$  000000003500000000000357680000000035000000000003519100000000356990000000033190000000003700000007000000000000000190000000000006686390000000000000009999123100000010000000000000BRN1EMBDR005102
012020090202N1XP34      010NXP SEMICONDDRN          R$  000000003531200000000353120000000035312000000003531200000000353120000000000000000000000000000001000000000000001360000000000048024320000000000000009999123100000010000000000000BRN1XPBDR008102
012020090202NEOE3       010NEOENERGIA  ON      NM   R$  000000000189200000000019100000000001852000000000187500000000018780000000001874000000000187805582000000000001278700000000002397952600000000000000009999123100000010000000000000BRNEOEACNOR3111
012020090202NETE34      010NETEASE     DRN ED       R$  000000026860000000002686000000000268600000000026860000000002686000000000000000000000000000000001000000000000000020000000000005372000000000000000009999123100000010000000000000BRNETEBDR006104
012020090202NEXT34      010NEXTERA ENERDRN ED       R$  000000003860000000000386000000000038600000000003860000000000386000000000000000000000000000000018000000000000003600000000000138960000000000000000009999123100000010000000000000BRNEXTBDR006105
012020090202NFLX34      010NETFLIX     DRN          R$  000000029800000000002980000000000292800000000029633300000002971000000000294200000000034500000015000000000000001930000000000571924340000000000000009999123100000010000000000000BRNFLXBDR000101
012020090202NIKE34      010NIKE        DRN ED       R$  000000006176100000000617610000000061761000000006176100000000617610000000000000000000000000000001000000000000000100000000000006176100000000000000009999123100000010000000000000BRNIKEBDR006139
012020090202NOKI34      010NOKIA CORP  DRN          R$  000000000255900000000025590000000002559000000000255900000000025590000000000000000000000000000001000000000000000010000000000000025590000000000000009999123100000010000000000000BRNOKIBDR005100
012020090202NTCO3       010GRUPO NATURAON      NM   R$  000000000510000000000051280000000005008000000000507400000000050910000000005091000000000509516542000000000003211900000000016298102300000000000000009999123100000010000000000000BRNTCOACNOR5101
012020090202NVDC34      010NVIDIA CORP DRN ED       R$  000000007500000000000788050000000075000000000007712300000000769640000000074200000000008450000083000000000000008790000000000677917960000000000000009999123100000010000000000000BRNVDCBDR008106
012020090202ODPV3       010ODONTOPREV  ON      NM   R$  000000000127600000000013230000000001269000000000129700000000013230000000001318000000000132309038000000000002244200000000002912395700000000000000009999123100000010000000000000BRODPVACNOR4178
012020090202OFSA3       010OUROFINO S/AON      NM   R$  000000000279200000000028250000000002792000000000281300000000028240000000002812000000000282400069000000000000016100000000000045305100000000000000009999123100000010000000000000BROFSAACNOR7109
012020090202OMGE3       010OMEGA GER   ON      NM   R$  000000000395200000000040000000000003820000000000391900000000039800000000003934000000000398012716000000000003776500000000014800362300000000000000009999123100000010000000000000BROMGEACNOR0101
012020090202ORCL34      010ORACLE      DRN          R$  000000003148200000000315290000000031482000000003148200000000315290000000030000000000000000000002000000000000001110000000000034945490000000000000009999123100000010000000000000BRORCLBDR007134
012020090202OXYP34      010OCCIDENT PTRDRN          R$  000000000333600000000033360000000003336000000000333600000000033360000000003321000000000000000001000000000000000050000000000000166800000000000000009999123100000010000000000000BROXYPBDR000105
012020090202P1BC34      010PEOPLES UNITDRN          R$  000000000572000000000057200000000005720000000000572000000000057200000000000000000000000000000001000000000000000150000000000000858000000000000000009999123100000010000000000000BRP1BCBDR000103
012020090202P1EA34      010HEALTHPEAK PDRN          R$  000000001525700000000152570000000015257000000001525700000000152570000000013000000000000000000002000000000000000660000000000010069620000000000000009999123100000010000000000000BRP1EABDR008103
012020090202PARD3       010IHPARDINI   ON      NM   R$  000000000264900000000026720000000002602000000000263200000000026400000000002634000000000264005660000000000000825500000000002172859300000000000000009999123100000010000000000000BRPARDACNOR1114
012020090202PATI3       010PANATLANTICAON           R$  000000000224900000000022500000000002222000000000224400000000022220000000002100000000000222200004000000000000000500000000000001122000000000000000009999123100000010000000000000BRPATIACNOR6060
012020090202PATI4       010PANATLANTICAPN           R$  000000000300000000000030000000000002746000000000287500000000027540000000002753000000000284400034000000000000004200000000000012077100000000000000009999123100000010000000000000BRPATIACNPR3060
012020090202PCAR3       010P.ACUCAR-CBDON      NM   R$  000000000649300000000065080000000006397000000000643700000000064460000000006446000000000645204412000000000000716100000000004610212900000000000000009999123100000010000000000000BRPCARACNOR3163
012020090202PDTC3       010PADTEC      ON           R$  000000000058500000000005960000000000580000000000058600000000005800000000000577000000000058000292000000000000058700000000000034410700000000000000009999123100000010000000000000BRPDTCACNOR3100
012020090202PETR3       010PETROBRAS   ON      N2   R$  000000000234300000000023610000000002293000000000231900000000023300000000002327000000000233027811000000000015584800000000036149719800000000000000009999123100000010000000000000BRPETRACNOR9191
012020090202PETR4       010PETROBRAS   PN      N2   R$  000000000229300000000023100000000002252000000000227600000000022800000000002279000000000228058243000000000053618000000000122047416900000000000000009999123100000010000000000000BRPETRACNPR6197
012020090202PFIZ34      010PFIZER      DRN          R$  000000001985800000000200200000000019819000000001998800000000199780000000019850000000001997800023000000000000005950000000000118932250000000000000009999123100000010000000000000BRPFIZBDR006140
012020090202PFRM3       010PROFARMA    ON      NM   R$  000000000052400000000005280000000000513000000000052000000000005190000000000519000000000052101301000000000000396600000000000206238900000000000000009999123100000010000000000000BRPFRMACNOR1112
012020090202PGCO34      010PG          DRN          R$  000000007500000000000758250000000075000000000007503400000000758250000000000000000000007582500003000000000000000950000000000071283180000000000000009999123100000010000000000000BRPGCOBDR001139
012020090202PGMN3       010PAGUE MENOS ON      NM   R$  000000000091100000000010950000000000880000000000099300000000010300000000001029000000000103033701000000000015462800000000015357592600000000000000009999123100000010000000000000BRPGMNACNOR8100
012020090202PHMO34      010PHILIP MORRIDRN          R$  000000002147800000000214780000000021478000000002147800000000214780000000020000000000000000000001000000000000000050000000000001073900000000000000009999123100000010000000000000BRPHMOBDR008113
012020090202PINE4       010PINE        PN      N2   R$  000000000028100000000002810000000000276000000000027700000000002780000000000278000000000028000293000000000000152200000000000042253300000000000000009999123100000010000000000000BRPINEACNPR8144
012020090202PLAS3       010PLASCAR PARTON           R$  000000000045100000000004530000000000444000000000044800000000004530000000000453000000000047200004000000000000000600000000000000269300000000000000009999123100000010000000000000BRPLASACNOR2106
012020090202PMAM3       010PARANAPANEMAON      NM   R$  000000000121400000000012150000000001162000000000118900000000012150000000001192000000000121500283000000000000085100000000000101220100000000000000009999123100000010000000000000BRPMAMACNOR3037
012020090202PNVL3       010DIMED       ON           R$  000000000267400000000026990000000002620000000000265800000000026500000000002650000000000266606704000000000001096400000000002914880000000000000000009999123100000010000000000000BRPNVLACNOR9196
012020090202PNVL4       010DIMED       PN           R$  000000000235000000000024000000000002280000000000233300000000023000000000002300000000000234500384000000000000096800000000000225931100000000000000009999123100000010000000000000BRPNVLACNPR6196
012020090202POMO3       010MARCOPOLO   ON      N2   R$  000000000026900000000002710000000000268000000000026900000000002690000000000269000000000027000228000000000000117200000000000031584000000000000000009999123100000010000000000000BRPOMOACNOR0087
012020090202POMO4       010MARCOPOLO   PN      N2   R$  000000000028800000000002900000000000284000000000028600000000002870000000000286000000000028703279000000000005773500000000001656661900000000000000009999123100000010000000000000BRPOMOACNPR7087
012020090202POSI3       010POSITIVO TECON      NM   R$  000000000050100000000005040000000000494000000000049900000000005030000000000501000000000050301856000000000001219600000000000608636800000000000000009999123100000010000000000000BRPOSIACNOR9112
012020090202PPLA11      010PPLA        UNT          R$  000000000144000000000014400000000001391000000000140200000000013910000000001380000000000139100014000000000000004200000000000005891500000000000000009999123100000010000000000000BRPPLAUNT007101
012020090202PRIO3       010PETRORIO    ON      NM   R$  000000000443200000000044600000000004252000000000433500000000043380000000004336000000000433814473000000000003654200000000015841931600000000000000009999123100000010000000000000BRPRIOACNOR1102
012020090202PRNR3       010PRINER      ON      NM   R$  000000000097000000000009750000000000957000000000096600000000009680000000000960000000000096800263000000000000078800000000000076129500000000000000009999123100000010000000000000BRPRNRACNOR4105
012020090202PSSA3       010PORTO SEGUROON      NM   R$  000000000537500000000054020000000005311000000000536100000000054020000000005398000000000540205612000000000000805300000000004317672300000000000000009999123100000010000000000000BRPSSAACNOR7142
012020090202PTBL3       010PORTOBELLO  ON      NM   R$  000000000049500000000005320000000000477000000000050600000000005240000000000523000000000052408229000000000005718400000000002895575400000000000000009999123100000010000000000000BRPTBLACNOR8125
012020090202PTNT3       010PETTENATI   ON           R$  000000000063600000000006370000000000615000000000062300000000006290000000000625000000000062900082000000000000019000000000000011844100000000000000009999123100000010000000000000BRPTNTACNOR6039
012020090202PTNT4       010PETTENATI   PN           R$  000000000049100000000005200000000000482000000000050700000000005140000000000514000000000051900128000000000000080900000000000041096000000000000000009999123100000010000000000000BRPTNTACNPR3044
012020090202PYPL34      010PAYPAL HOLD DRN          R$  000000005600000000000563000000000055130000000005557800000000562520000000056240000000000000000023000000000000004540000000000252325280000000000000009999123100000010000000000000BRPYPLBDR002101
012020090202QUAL3       010QUALICORP   ON      NM   R$  000000000316000000000032270000000003132000000000316700000000032200000000003220000000000322117465000000000003879600000000012288303300000000000000009999123100000010000000000000BRQUALACNOR6113
012020090202R1IN34      010REALTY INCOMDRN ED       R$  000000001682500000000169900000000016825000000001683200000000169900000000000000000000000000000003000000000000000630000000000010604700000000000000009999123100000010000000000000BRR1INBDR000108
012020090202R1OK34      010ROCKWELL AUTDRN          R$  000000003165100000000316510000000031651000000003165100000000316510000000000000000000000000000001000000000000000010000000000000316510000000000000009999123100000010000000000000BRR1OKBDR004103
012020090202RADL3       010RAIADROGASILON      NM   R$  000000001123300000000113620000000011137000000001124200000000112620000000011240000000001126208040000000000001128100000000012682961700000000000000009999123100000010000000000000BRRADLACNOR0136
012020090202RAIL3       010RUMO S.A.   ON      NM   R$  000000000227000000000022920000000002209000000000222900000000022160000000002215000000000221618696000000000006540100000000014580488900000000000000009999123100000010000000000000BRRAILACNOR9101
012020090202RANI3       010IRANI       ON  EDJ      R$  000000000049100000000005050000000000485000000000049500000000005000000000000499000000000050006197000000000003920200000000001944299800000000000000009999123100000010000000000000BRRANIACNOR5053
012020090202RANI4       010IRANI       PN  EDJ      R$  000000000074000000000007600000000000725000000000074700000000007300000000000730000000000073900041000000000000014100000000000010542500000000000000009999123100000010000000000000BRRANIACNPR2054
012020090202RAPT3       010RANDON PART ON      N1   R$  000000000094900000000009490000000000916000000000092400000000009390000000000921000000000093900023000000000000003800000000000003512600000000000000009999123100000010000000000000BRRAPTACNOR7153
012020090202RAPT4       010RANDON PART PN      N1   R$  000000000111700000000011240000000001097000000000110700000000011010000000001101000000000110405906000000000002018800000000002236780700000000000000009999123100000010000000000000BRRAPTACNPR4153
012020090202RCSL3       010RECRUSUL    ON           R$  000000000020900000000002090000000000200000000000020300000000002070000000000203000000000020700030000000000000009600000000000001955600000000000000009999123100000010000000000000BRRCSLACNOR4130
012020090202RCSL4       010RECRUSUL    PN           R$  000000000014900000000001490000000000145000000000014700000000001480000000000148000000000014901776000000000002472400000000000363743900000000000000009999123100000010000000000000BRRCSLACNPR1130
012020090202RDNI3       010RNI         ON      NM   R$  000000000104300000000010470000000001010000000000103500000000010400000000001017000000000104000059000000000000027600000000000028583100000000000000009999123100000010000000000000BRRDNIACNOR9113
012020090202RDSA34      010RD SHELL    DRN          R$  000000001557800000000155780000000015578000000001557800000000155780000000000000000000000000000001000000000000000020000000000000311560000000000000009999123100000010000000000000BRRDSABDR009104
012020090202REGN34      010REGENERON PHDRN          R$  000000006460000000000651000000000064600000000006509300000000651000000000000000000000000000000008000000000000002230000000000145158000000000000000009999123100000010000000000000BRREGNBDR005100
012020090202RENT3       010LOCALIZA    ON      NM   R$  000000000503400000000051270000000004974000000000506800000000051050000000005103000000000510524500000000000005385600000000027295457800000000000000009999123100000010000000000000BRRENTACNOR4178
012020090202RIGG34      010TRANSOCEAN  DRN          R$  000000000067600000000006800000000000650000000000065400000000006500000000000650000000000072500060000000000000003410000000000002231950000000000000009999123100000010000000000000BRRIGGBDR000100
012020090202RIOT34      010RIO TINTO   DRN          R$  000000003371000000000337100000000033432000000003354700000000334320000000000000000000000000000003000000000000000060000000000002012840000000000000009999123100000010000000000000BRRIOTBDR007102
012020090202RLOG3       010COSAN LOG   ON      NM   R$  000000000212400000000021450000000002077000000000210100000000021050000000002102000000000210501966000000000000357100000000000750368700000000000000009999123100000010000000000000BRRLOGACNOR4106
012020090202ROMI3       010INDS ROMI   ON      NM   R$  000000000124100000000012680000000001235000000000124800000000012400000000001240000000000125001617000000000000215300000000000268801500000000000000009999123100000010000000000000BRROMIACNOR8173
012020090202RPAD3       010ALFA HOLDINGON           R$  000000000057900000000005800000000000579000000000057900000000005800000000000565000000000059100002000000000000000200000000000000115900000000000000009999123100000010000000000000BRRPADACNOR1197
012020090202RPAD5       010ALFA HOLDINGPNA          R$  000000000085200000000008520000000000852000000000085200000000008520000000000850000000000089700001000000000000000500000000000000426000000000000000009999123100000010000000000000BRRPADACNPA4211
012020090202RSID3       010ROSSI RESID ON      NM   R$  000000000058100000000005840000000000566000000000057600000000005810000000000577000000000058100177000000000000073200000000000042176100000000000000009999123100000010000000000000BRRSIDACNOR8119
012020090202S1LG34      010SL GREEN READRN ED       R$  000000001267900000000129010000000012679000000001269000000000129010000000000000000000000000000004000000000000000780000000000009898500000000000000009999123100000010000000000000BRS1LGBDR007106
012020090202S1PO34      010SPOTIFY TECHDRN          R$  000000003745900000000374590000000035969000000003735700000000359690000000035888000000000000000004000000000000000430000000000016063510000000000000009999123100000010000000000000BRS1POBDR002100
012020090202SANB3       010SANTANDER BRON           R$  000000000138900000000013990000000001360000000000136900000000013640000000001364000000000136900598000000000000139700000000000191369900000000000000009999123100000010000000000000BRSANBACNOR8153
012020090202SANB4       010SANTANDER BRPN           R$  000000000152400000000015270000000001495000000000150400000000015040000000001504000000000151400661000000000000142700000000000214647600000000000000009999123100000010000000000000BRSANBACNPR5153
012020090202SANB11      010SANTANDER BRUNT          R$  000000000292000000000029230000000002850000000000287300000000028680000000002867000000000286811691000000000002471500000000007101143600000000000000009999123100000010000000000000BRSANBCDAM13146
