00COTAHIST.2020BOVESPA 20200911                                                                                                                                                                                                                      
012020091102A1BM34      010ABIOMED INC DRN          R$  000000003591000000000359100000000035910000000003591000000000359100000000000000000000000000000001000000000000000020000000000000718200000000000000009999123100000010000000000000BRA1BMBDR006100
012020091102A1DI34      010ANALOG DEVICDRN          R$  000000003037300000000303730000000030373000000003037300000000303730000000000000000000000000000001000000000000000850000000000025817050000000000000009999123100000010000000000000BRA1DIBDR000103
012020091102A1MD34      010ADVANCED MICDRN          R$  000000004150500000000415050000000041505000000004150500000000415050000000000000000000005250000001000000000000004400000000000182622000000000000000009999123100000010000000000000BRA1MDBDR002100
012020091102A1MT34      010APPLIED MATEDRN          R$  000000002939600000000293960000000029396000000002939600000000293960000000000000000000000000000001000000000000001650000000000048503400000000000000009999123100000010000000000000BRA1MTBDR008103
012020091102A1PA34      010APACHE CORP DRN          R$  000000000629200000000063190000000006292000000000631700000000063190000000000000000000000000000004000000000000002870000000000018132380000000000000009999123100000010000000000000BRA1PABDR001103
012020091102AALL34      010AMERICAN AIRDRN          R$  000000000689000000000068900000000006841000000000687800000000068410000000006785000000000840000004000000000000004100000000000028200000000000000000009999123100000010000000000000BRAALLBDR003115
012020091102AALR3       010ALLIAR      ON      NM   R$  000000000117900000000011810000000001110000000000113100000000011110000000001111000000000111703016000000000000929200000000001051079600000000000000009999123100000010000000000000BRAALRACNOR6102
012020091102AAPL34      010APPLE       DRN          R$  000000000614900000000061490000000005856000000000601100000000059920000000005975000000000599200458000000000000551680000000003316699620000000000000009999123100000010000000000000BRAAPLBDR004135
012020091102ABBV34      010ABBVIE      DRN          R$  000000004727700000000472770000000047277000000004727700000000472770000000000000000000000000000001000000000000002200000000000104009400000000000000009999123100000010000000000000BRABBVBDR001118
012020091102ABCB4       010ABC BRASIL  PN      N2   R$  000000000132600000000013310000000001282000000000129700000000012940000000001294000000000129803595000000000000775500000000001006365200000000000000009999123100000010000000000000BRABCBACNPR4134
012020091102ABEV3       010AMBEV S/A   ON           R$  000000000123700000000012380000000001204000000000121500000000012040000000001204000000000120537256000000000025286500000000030734188500000000000000009999123100000010000000000000BRABEVACNOR1122
012020091102ABTT34      010ABBOTT      DRN          R$  000000001391400000000139140000000013914000000001391400000000139140000000000000000000001799500001000000000000010500000000000146097000000000000000009999123100000010000000000000BRABTTBDR007135
012020091102ABUD34      010AB INBEV    DRN          R$  000000002978700000000297870000000029787000000002978700000000297870000000000000000000000000000001000000000000002850000000000084892950000000000000009999123100000010000000000000BRABUDBDR009102
012020091102ACNB34      010ACCENTURE   DRN          R$  000000012509900000001250990000000125099000000012509900000001250990000000000000000000000000000001000000000000000520000000000065051480000000000000009999123100000010000000000000BRACNBBDR006112
012020091102ADBE34      010ADOBE INC   DRN          R$  000000005133700000000513370000000050400000000005133100000000504000000000000000000000000000000002000000000000003740000000000191981640000000000000009999123100000010000000000000BRADBEBDR003100
012020091102ADHM3       010ADVANCED-DH ON           R$  000000000021300000000002130000000000207000000000020900000000002080000000000207000000000021000028000000000000007500000000000001572900000000000000009999123100000010000000000000BRADHMACNOR9102
012020091102ADPR34      010AUTOMATIC DTDRN ED       R$  000000003509300000000350930000000035093000000003509300000000350930000000030825000000000000000001000000000000001370000000000048077410000000000000009999123100000010000000000000BRADPRBDR005105
012020091102AFLT3       010AFLUENTE T  ON           R$  000000000100000000000010000000000001000000000000100000000000010000000000000987000000000100000005000000000000000700000000000000700000000000000000009999123100000010000000000000BRAFLTACNOR1115
012020091102AGRO3       010BRASILAGRO  ON      NM   R$  000000000213500000000021500000000002103000000000211900000000021370000000002110000000000213700715000000000000162700000000000344805700000000000000009999123100000010000000000000BRAGROACNOR7109
012020091102AHEB3       010SPTURIS     ON           R$  000000000250000000000025000000000002500000000000250000000000025000000000001900000000000250000002000000000000000700000000000001750000000000000000009999123100000010000000000000BRAHEBACNOR0106
012020091102ALPA3       010ALPARGATAS  ON      N1   R$  000000000334500000000034490000000003335000000000335400000000034490000000003240000000000344900010000000000000001600000000000005366800000000000000009999123100000010000000000000BRALPAACNOR0229
012020091102ALPA4       010ALPARGATAS  PN      N1   R$  000000000369700000000037320000000003605000000000367200000000037040000000003704000000000370507258000000000001246400000000004577537400000000000000009999123100000010000000000000BRALPAACNPR7229
012020091102ALPK3       010ESTAPAR     ON      NM   R$  000000000094600000000009550000000000934000000000094100000000009350000000000935000000000094400038000000000000010900000000000010260200000000000000009999123100000010000000000000BRALPKACNOR9100
012020091102ALSO3       010ALIANSCSONAEON      NM   R$  000000000272300000000027230000000002626000000000267100000000026810000000002680000000000268105965000000000001035800000000002767059400000000000000009999123100000010000000000000BRALSOACNOR5100
012020091102ALUP3       010ALUPAR      ON      N2   R$  000000000096500000000009650000000000934000000000094700000000009650000000000940000000000096700130000000000000015000000000000014214500000000000000009999123100000010000000000000BRALUPACNOR8111
012020091102ALUP4       010ALUPAR      PN      N2   R$  000000000071500000000007200000000000692000000000069700000000006950000000000695000000000071700227000000000000040100000000000027969800000000000000009999123100000010000000000000BRALUPACNPR5111
012020091102ALUP11      010ALUPAR      UNT     N2   R$  000000000241000000000024100000000002316000000000234100000000023490000000002348000000000234903417000000000000668300000000001564670800000000000000009999123100000010000000000000BRALUPCDAM15111
012020091102AMAR3       010LOJAS MARISAON      NM   R$  000000000080500000000008130000000000772000000000078300000000007750000000000775000000000077808780000000000003551800000000002784258600000000000000009999123100000010000000000000BRAMARACNOR4112
012020091102AMBP3       010AMBIPAR     ON      NM   R$  000000000306600000000031300000000003009000000000308500000000030890000000003084000000000308901029000000000000171400000000000528913700000000000000009999123100000010000000000000BRAMBPACNOR6100
012020091102AMGN34      010AMGEN       DRN          R$  000000012902400000001300010000000129024000000012912100000001300010000000000000000000000000000002000000000000001000000000000129121700000000000000009999123100000010000000000000BRAMGNBDR004135
012020091102AMZO34      010AMAZON      DRN          R$  000000084715200000008472320000000824802000000083710900000008300000000000720000000000083576500034000000000000004430000000003708393900000000000000009999123100000010000000000000BRAMZOBDR002101
012020091102ANIM3       010ANIMA       ON      NM   R$  000000000305000000000030640000000002870000000000294200000000028790000000002879000000000288003770000000000000725000000000002133061000000000000000009999123100000010000000000000BRANIMACNOR6106
012020091102APER3       010ALPER S.A.  ON      NM   R$  000000000302700000000030270000000002871000000000293400000000029590000000002912000000000295900100000000000000019400000000000056922200000000000000009999123100000010000000000000BRAPERACNOR9102
012020091102ARZZ3       010AREZZO CO   ON      NM   R$  000000000570200000000058150000000005517000000000561900000000055750000000005575000000000559704675000000000000724300000000004070271400000000000000009999123100000010000000000000BRARZZACNOR3137
012020091102ATOM3       010ATOMPAR     ON           R$  000000000029400000000002960000000000277000000000028400000000002800000000000280000000000028600182000000000000090300000000000025655400000000000000009999123100000010000000000000BRATOMACNOR1103
012020091102ATTB34      010ATT INC     DRN          R$  000000001537800000000155110000000015311000000001543200000000155110000000015250000000001551100005000000000000017780000000000274388940000000000000009999123100000010000000000000BRATTBBDR007132
012020091102ATVI34      010ACTIVISION  DRN          R$  000000004242000000000424200000000041832000000004183700000000418320000000040000000000000000000002000000000000001060000000000044347800000000000000009999123100000010000000000000BRATVIBDR008101
012020091102AURA32      010AURA 360    DR2          R$  000000000635000000000063500000000006010000000000613900000000062780000000006096000000000644000555000000000000120300000000000738621600000000000000009999123100000010000000000000BRAURABDR001102
012020091102AVGO34      010BROADCOM INCDRN          R$  000000003812300000000383100000000038123000000003813800000000383100000000000000000000000000000002000000000000006020000000000229593960000000000000009999123100000010000000000000BRAVGOBDR003105
012020091102AXPB34      010AMERICAN EXPDRN          R$  000000005442000000000544200000000054420000000005442000000000544200000000047700000000000000000001000000000000002050000000000111561000000000000000009999123100000010000000000000BRAXPBBDR007133
012020091102AZEV3       010AZEVEDO     ON           R$  000000000103200000000010700000000001000000000000104400000000010000000000000999000000000108000011000000000000005500000000000005745500000000000000009999123100000010000000000000BRAZEVACNOR0117
012020091102AZEV4       010AZEVEDO     PN           R$  000000000037000000000003700000000000356000000000036000000000003660000000000360000000000036400021000000000000006200000000000002237000000000000000009999123100000010000000000000BRAZEVACNPR7117
012020091102AZUL4       010AZUL        PN      N2   R$  000000000269000000000027070000000002511000000000261100000000026580000000002657000000000265844685000000000018792100000000049078262300000000000000009999123100000010000000000000BRAZULACNPR4100
012020091102B1SX34      010BOSTON SCIENDRN          R$  000000002144200000000214420000000021442000000002144200000000214420000000000000000000000000000001000000000000003800000000000081479600000000000000009999123100000010000000000000BRB1SXBDR006100
012020091102B3SA3       010B3          ON      NM   R$  000000000561000000000056920000000005551000000000561300000000056020000000005602000000000560343009000000000010986100000000061665479200000000000000009999123100000010000000000000BRB3SAACNOR6111
012020091102BABA34      010ALIBABAGR   DRN          R$  000000014341100000001450590000000142600000000014450300000001450590000000140000000000015380000016000000000000006030000000000871357450000000000000009999123100000010000000000000BRBABABDR005100
012020091102BAHI3       010BAHEMA      ON      MA   R$  000000001210000000000125000000000012100000000001236600000000125000000000011000000000001250000003000000000000000300000000000003710000000000000000009999123100000010000000000000BRBAHIACNOR1071
012020091102BALM3       010BAUMER      ON           R$  000000000153500000000015350000000001530000000000153300000000015350000000001544000000000165000004000000000000000700000000000001073500000000000000009999123100000010000000000000BRBALMACNOR5050
012020091102BALM4       010BAUMER      PN           R$  000000000117000000000011700000000001170000000000117000000000011700000000001162000000000123900001000000000000000600000000000000702000000000000000009999123100000010000000000000BRBALMACNPR2051
012020091102BAUH4       010EXCELSIOR   PN           R$  000000000899000000000089900000000008990000000000899000000000089900000000008901000000000900000001000000000000000100000000000000899000000000000000009999123100000010000000000000BRBAUHACNPR3115
012020091102BAZA3       010AMAZONIA    ON           R$  000000000397500000000039760000000003860000000000393800000000038770000000003877000000000390000024000000000000005300000000000020876600000000000000009999123100000010000000000000BRBAZAACNOR0174
012020091102BBAS3       010BRASIL      ON      NM   R$  000000000325800000000032690000000003172000000000320100000000032000000000003200000000000320136617000000000014710600000000047096660500000000000000009999123100000010000000000000BRBBASACNOR3292
012020091102BBDC3       010BRADESCO    ON  EJ  N1   R$  000000000193300000000019330000000001879000000000189300000000018870000000001887000000000188818401000000000006120700000000011588405800000000000000009999123100000010000000000000BRBBDCACNOR1715
012020091102BBDC4       010BRADESCO    PN  EJ  N1   R$  000000000209000000000020950000000002033000000000205200000000020460000000002046000000000204757197000000000039073100000000080198096600000000000000009999123100000010000000000000BRBBDCACNPR8715
012020091102BBRK3       010BR BROKERS  ON      NM   R$  000000000016000000000001650000000000154000000000015900000000001600000000000160000000000016100540000000000000623700000000000099750100000000000000009999123100000010000000000000BRBBRKACNOR4113
012020091102BBSE3       010BBSEGURIDADEON      NM   R$  000000000264000000000026440000000002547000000000256800000000025470000000002546000000000254735447000000000006854000000000017603082400000000000000009999123100000010000000000000BRBBSEACNOR5117
012020091102BCSA34      010SANTANDER   DRN          R$  000000000112100000000011450000000001121000000000113600000000011300000000001136000000000114500025000000000000101320000000000115184530000000000000009999123100000010000000000000BRBCSABDR005101
012020091102BEEF3       010MINERVA     ON      NM   R$  000000000131000000000013190000000001254000000000127900000000012930000000001291000000000129316255000000000006585600000000008425653700000000000000009999123100000010000000000000BRBEEFACNOR6108
012020091102BEES3       010BANESTES    ON  EJ       R$  000000000053500000000005380000000000508000000000051700000000005090000000000508000000000051400324000000000000115300000000000059668900000000000000009999123100000010000000000000BRBEESACNOR9339
012020091102BEES4       010BANESTES    PN  EJ       R$  000000000056000000000005620000000000523000000000055100000000005500000000000531000000000056000071000000000000021200000000000011683800000000000000009999123100000010000000000000BRBEESACNPR6264
012020091102BERK34      010BERKSHIRE   DRN          R$  000000011516700000001162000000000115167000000011602700000001161200000000115000000000014000000014000000000000003270000000000379409690000000000000009999123100000010000000000000BRBERKBDR002100
012020091102BGIP4       010BANESE      PN           R$  000000000260000000000026400000000002575000000000258800000000026400000000002576000000000264000017000000000000006300000000000016305400000000000000009999123100000010000000000000BRBGIPACNPR8199
012020091102BHPG34      010BHP GROUP   DRN ED       R$  000000002871100000000287110000000028711000000002871100000000287110000000000000000000000000000001000000000000004620000000000132644820000000000000009999123100000010000000000000BRBHPGBDR007102
012020091102BIDI3       010BANCO INTER ON      N2   R$  000000000175400000000017540000000001691000000000171400000000017140000000001706000000000171402290000000000000318200000000000545546600000000000000009999123100000010000000000000BRBIDIACNOR3107
012020091102BIDI4       010BANCO INTER PN      N2   R$  000000000200100000000020100000000001917000000000194100000000019350000000001931000000000193506708000000000001873600000000003638439900000000000000009999123100000010000000000000BRBIDIACNPR0111
012020091102BIDI11      010BANCO INTER UNT     N2   R$  000000000573600000000057390000000005530000000000560400000000055500000000005547000000000555005118000000000001110600000000006224191200000000000000009999123100000010000000000000BRBIDICDAXX3106
012020091102BIIB34      010BIOGEN      DRN          R$  000000002367000000000236700000000023670000000002367000000000236700000000000000000000000000000001000000000000003270000000000077400900000000000000009999123100000010000000000000BRBIIBBDR001101
012020091102BIOM3       010BIOMM       ON      MA   R$  000000000162000000000016700000000001611000000000163500000000016350000000001622000000000163500116000000000000050900000000000083240900000000000000009999123100000010000000000000BRBIOMACNOR2107
012020091102BKBR3       010BK BRASIL   ON      NM   R$  000000000109400000000011000000000001040000000000105500000000010600000000001052000000000106004191000000000001174900000000001240298400000000000000009999123100000010000000000000BRBKBRACNOR4103
012020091102BKNG34      010BOOKING     DRN          R$  000000003860000000000386000000000038129000000003837300000000381900000000036900000000005000000016000000000000004810000000000184577980000000000000009999123100000010000000000000BRBKNGBDR006100
012020091102BLAK34      010BLACKROCK   DRN ED       R$  000000004785100000000480540000000047851000000004805200000000480540000000045992000000000000000002000000000000002670000000000128300120000000000000009999123100000010000000000000BRBLAKBDR003118
012020091102BMEB4       010MERC BRASIL PN           R$  000000000154100000000016300000000001501000000000159600000000016290000000001550000000000162900056000000000000029900000000000047743600000000000000009999123100000010000000000000BRBMEBACNPR5201
012020091102BMGB4       010BANCO BMG   PN      N1   R$  000000000052500000000005260000000000501000000000050800000000005040000000000504000000000050504145000000000002376200000000001208195700000000000000009999123100000010000000000000BRBMGBACNPR0101
012020091102BMIN3       010MERC INVEST ON           R$  000000000218400000000021840000000001970000000000205200000000020010000000001970000000000210000014000000000000001400000000000002873500000000000000009999123100000010000000000000BRBMINACNOR4168
012020091102BMIN4       010MERC INVEST PN           R$  000000000195300000000019530000000001952000000000195200000000019520000000001875000000000208000002000000000000000200000000000000390500000000000000009999123100000010000000000000BRBMINACNPR1171
012020091102BMKS3       010BIC MONARK  ON           R$  000000002300000000000235000000000021004000000002184400000000235000000000022997000000002350000009000000000000000051000000000001114082000000000000009999123100000010000000000000BRBMKSACNOR9162
012020091102BMYB34      010BRISTOLMYERSDRN          R$  000000003105000000000315470000000031050000000003105000000000315470000000030000000000000000000002000000000000006460000000000200587970000000000000009999123100000010000000000000BRBMYBBDR000127
012020091102BNBR3       010NORD BRASIL ON           R$  000000000829200000000082920000000007900000000000816000000000079000000000007803000000000827900003000000000000000300000000000002448100000000000000009999123100000010000000000000BRBNBRACNOR8200
012020091102BOAC34      010BANK AMERICADRN ED       R$  000000001326400000000136620000000013264000000001347400000000136620000000012100000000001366200010000000000000019780000000000266534410000000000000009999123100000010000000000000BRBOACBDR004140
012020091102BOBR4       010BOMBRIL     PN           R$  000000000019800000000001990000000000194000000000019600000000001940000000000194000000000019700107000000000000034500000000000006793500000000000000009999123100000010000000000000BRBOBRACNPR3128
012020091102BOEI34      010BOEING      DRN          R$  000000008437400000000844500000000084374000000008437400000000844500000000000000000000010850000002000000000000001730000000000145967780000000000000009999123100000010000000000000BRBOEIBDR003132
012020091102BOXP34      010BOSTON PROP DRN          R$  000000000442700000000044270000000004427000000000442700000000044270000000000000000000000592000001000000000000000040000000000000177080000000000000009999123100000010000000000000BRBOXPBDR008120
012020091102BPAC3       010BTGP BANCO  ON      N2   R$  000000000459500000000045950000000004467000000000451600000000045490000000004400000000000449900009000000000000000900000000000004064500000000000000009999123100000010000000000000BRBPACACNOR7122
012020091102BPAC5       010BTGP BANCO  PNA     N2   R$  000000000170200000000017410000000001698000000000173700000000017400000000001713000000000174000014000000000000011000000000000019109300000000000000009999123100000010000000000000BRBPACACNPA0122
012020091102BPAC11      010BTGP BANCO  UNT     N2   R$  000000000795000000000080030000000007752000000000783500000000078110000000007810000000000781110851000000000002547900000000019964275700000000000000009999123100000010000000000000BRBPACUNT006107
012020091102BPAN4       010BANCO PAN   PN      N1   R$  000000000089000000000008900000000000848000000000085800000000008530000000000853000000000085710483000000000004678700000000004017752100000000000000009999123100000010000000000000BRBPANACNPR1109
012020091102BRAP3       010BRADESPAR   ON      N1   R$  000000000384200000000039360000000003841000000000390100000000039360000000003900000000000393600164000000000000064900000000000253238600000000000000009999123100000010000000000000BRBRAPACNOR5136
012020091102BRAP4       010BRADESPAR   PN      N1   R$  000000000440000000000045150000000004389000000000447000000000044900000000004487000000000449322863000000000004602700000000020577856900000000000000009999123100000010000000000000BRBRAPACNPR2136
012020091102BRDT3       010PETROBRAS BRON      NM   R$  000000000223500000000022650000000002181000000000220500000000022110000000002203000000000221120704000000000005090900000000011227779600000000000000009999123100000010000000000000BRBRDTACNOR1120
012020091102BRFS3       010BRF SA      ON      NM   R$  000000000206200000000020740000000002005000000000202400000000020100000000002009000000000201020909000000000007798500000000015791317100000000000000009999123100000010000000000000BRBRFSACNOR8119
012020091102BRIV3       010ALFA INVEST ON           R$  000000000080000000000008000000000000800000000000080000000000008000000000000761000000000080000001000000000000000800000000000000640000000000000000009999123100000010000000000000BRBRIVACNOR6205
012020091102BRIV4       010ALFA INVEST PN           R$  000000000073100000000007310000000000730000000000073000000000007300000000000720000000000073900002000000000000000200000000000000146100000000000000009999123100000010000000000000BRBRIVACNPR3211
012020091102BRKM3       010BRASKEM     ON      N1   R$  000000000222100000000022310000000002170000000000220000000000021940000000002188000000000219400060000000000000013500000000000029708000000000000000009999123100000010000000000000BRBRKMACNOR1117
012020091102BRKM5       010BRASKEM     PNA     N1   R$  000000000219300000000022070000000002127000000000216000000000021630000000002162000000000216308240000000000001774100000000003833307300000000000000009999123100000010000000000000BRBRKMACNPA4117
012020091102BRML3       010BR MALLS PARON      NM   R$  000000000094800000000009480000000000917000000000092800000000009310000000000930000000000093131929000000000016855000000000015650871900000000000000009999123100000010000000000000BRBRMLACNOR9115
012020091102BRPR3       010BR PROPERT  ON      NM   R$  000000000093600000000009360000000000907000000000091900000000009180000000000915000000000091808889000000000002343600000000002155368700000000000000009999123100000010000000000000BRBRPRACNOR9119
012020091102BRSR3       010BANRISUL    ON      N1   R$  000000000150500000000015050000000001444000000000145400000000014550000000001455000000000147300105000000000000017500000000000025452700000000000000009999123100000010000000000000BRBRSRACNOR3168
012020091102BRSR6       010BANRISUL    PNB     N1   R$  000000000133500000000013350000000001282000000000129100000000012930000000001290000000000129311559000000000003193800000000004125437500000000000000009999123100000010000000000000BRBRSRACNPB4171
012020091102BSEV3       010BIOSEV      ON      NM   R$  000000000054500000000005480000000000491000000000051000000000004950000000000495000000000049801271000000000000714100000000000364443000000000000000009999123100000010000000000000BRBSEVACNOR3102
012020091102BTOW3       010B2W DIGITAL ON      NM   R$  000000001003000000000101030000000009685000000000983400000000098160000000009806000000000981613714000000000002423000000000023829612100000000000000009999123100000010000000000000BRBTOWACNOR8111
012020091102BTTL3       010BATTISTELLA ON           R$  000000000115000000000011500000000001100000000000112300000000011380000000001138000000000114500021000000000000003400000000000003819300000000000000009999123100000010000000000000BRBTTLACNOR0108
012020091102C1CL34      010CARNIVAL CORDRN          R$  000000000942300000000094230000000009423000000000942300000000094230000000000000000000001300000001000000000000004000000000000037692000000000000000009999123100000010000000000000BRC1CLBDR004101
012020091102CAMB3       010CAMBUCI     ON           R$  000000000041900000000004220000000000402000000000040900000000004060000000000406000000000040900087000000000000049100000000000020116200000000000000009999123100000010000000000000BRCAMBACNOR4119
012020091102CAML3       010CAMIL       ON  EJ  NM   R$  000000000132800000000013280000000001276000000000130100000000012950000000001295000000000130205439000000000001350600000000001757890400000000000000009999123100000010000000000000BRCAMLACNOR3111
012020091102CARD3       010CSU CARDSYSTON      NM   R$  000000000150200000000015260000000001450000000000148300000000014510000000001451000000000147000906000000000000260400000000000386327600000000000000009999123100000010000000000000BRCARDACNOR9118
012020091102CATP34      010CATERPILLAR DRN          R$  000000008100000000000818000000000081000000000008101000000000818000000000000000000000000000000002000000000000001590000000000128806000000000000000009999123100000010000000000000BRCATPBDR003136
012020091102CBEE3       010AMPLA ENERG ON           R$  000000000178300000000017830000000001629000000000169500000000016500000000001622000000000164900042000000000000006900000000000011698000000000000000009999123100000010000000000000BRCBEEACNOR3155
012020091102CCPR3       010CYRE COM-CCPON      NM   R$  000000000145000000000014540000000001378000000000140700000000014030000000001401000000000140701892000000000000297700000000000419152600000000000000009999123100000010000000000000BRCCPRACNOR9114
012020091102CCRO3       010CCR SA      ON      NM   R$  000000000143100000000014330000000001379000000000141100000000014230000000001423000000000142432392000000000014697600000000020743730800000000000000009999123100000010000000000000BRCCROACNOR2137
012020091102CEAB3       010CEA MODAS   ON      NM   R$  000000000124800000000012600000000001164000000000120100000000011820000000001181000000000118208973000000000002696500000000003239536700000000000000009999123100000010000000000000BRCEABACNOR1101
012020091102CEBR3       010CEB         ON           R$  000000000663900000000066390000000006639000000000663900000000066390000000006251000000000659000001000000000000000100000000000000663900000000000000009999123100000010000000000000BRCEBRACNOR5118
012020091102CEDO3       010CEDRO       ON      N1   R$  000000000109900000000011180000000001012000000000105100000000010120000000000975000000000107000029000000000000013500000000000014195400000000000000009999123100000010000000000000BRCEDOACNOR8096
012020091102CEDO4       010CEDRO       PN      N1   R$  000000000058000000000005950000000000543000000000057700000000005430000000000520000000000058800007000000000000001500000000000000865500000000000000009999123100000010000000000000BRCEDOACNPR5128
012020091102CEEB3       010COELBA      ON           R$  000000000395100000000041490000000003951000000000402800000000040000000000003950000000000400000006000000000000000600000000000002417100000000000000009999123100000010000000000000BRCEEBACNOR3179
012020091102CESP3       010CESP        ON      N1   R$  000000000330900000000033090000000003231000000000327800000000032930000000003207000000000329500020000000000000002700000000000008851300000000000000009999123100000010000000000000BRCESPACNOR3169
012020091102CESP6       010CESP        PNB     N1   R$  000000000292900000000029290000000002838000000000288100000000028890000000002880000000000289005689000000000001294600000000003729897000000000000000009999123100000010000000000000BRCESPACNPB4128
012020091102CGAS5       010COMGAS      PNA          R$  000000001895000000000189840000000018600000000001877400000000187490000000018700000000001875000011000000000000001500000000000028161500000000000000009999123100000010000000000000BRCGASACNPA3148
012020091102CGRA3       010GRAZZIOTIN  ON           R$  000000000263100000000026900000000002631000000000267500000000026900000000002638000000000269800004000000000000000400000000000001070000000000000000009999123100000010000000000000BRCGRAACNOR2071
012020091102CGRA4       010GRAZZIOTIN  PN           R$  000000000265400000000026910000000002645000000000266300000000026450000000002645000000000266700076000000000000010300000000000027430000000000000000009999123100000010000000000000BRCGRAACNPR9071
012020091102CHCM34      010CHARTER COMMDRN          R$  000000006392600000000639260000000063926000000006392600000000639260000000000000000000000000000001000000000000003920000000000250589920000000000000009999123100000010000000000000BRCHCMBDR001100
012020091102CHME34      010CME GROUP   DRN ED       R$  000000002157000000000215700000000021570000000002157000000000215700000000000000000000000000000001000000000000004320000000000093182400000000000000009999123100000010000000000000BRCHMEBDR007106
012020091102CHVX34      010CHEVRON     DRN          R$  000000002060000000000208100000000020534000000002053500000000208100000000000000000000002081000003000000000000011090000000000227740600000000000000009999123100000010000000000000BRCHVXBDR008138
012020091102CIEL3       010CIELO       ON      NM   R$  000000000046600000000004660000000000441000000000044800000000004440000000000444000000000044530564000000000055194700000000024750765400000000000000009999123100000010000000000000BRCIELACNOR3142
012020091102CLSC4       010CELESC      PN      N2   R$  000000000557500000000056920000000005550000000000561800000000056740000000005600000000000567500055000000000000006100000000000034270200000000000000009999123100000010000000000000BRCLSCACNPR3115
012020091102CMCS34      010COMCAST     DRN          R$  000000002366200000000239120000000023479000000002365600000000239120000000022000000000002391200014000000000000014300000000000338293710000000000000009999123100000010000000000000BRCMCSBDR008135
012020091102CMIG3       010CEMIG       ON      N1   R$  000000000115100000000011510000000001089000000000111600000000011200000000001120000000000112105626000000000001945800000000002173070300000000000000009999123100000010000000000000BRCMIGACNOR6224
012020091102CMIG4       010CEMIG       PN      N1   R$  000000000110500000000011070000000001059000000000107900000000010760000000001075000000000107630300000000000014063500000000015184289400000000000000009999123100000010000000000000BRCMIGACNPR3225
012020091102CNIC34      010CANAD NATIONDRN ED       R$  000000002781000000000278100000000027810000000002781000000000278100000000000000000000000000000001000000000000004320000000000120139200000000000000009999123100000010000000000000BRCNICBDR007105
012020091102CNTO3       010CENTAURO    ON      NM   R$  000000000297800000000029830000000002812000000000286500000000028300000000002830000000000283207300000000000001642200000000004705281900000000000000009999123100000010000000000000BRCNTOACNOR5100
012020091102COCA34      010COCA COLA   DRN          R$  000000002662900000000272000000000026500000000002695300000000272000000000025000000000000000000009000000000000012760000000000343930390000000000000009999123100000010000000000000BRCOCABDR002135
012020091102COCE3       010COELCE      ON           R$  000000000747900000000074790000000006800000000000714200000000068000000000006800000000000724800016000000000000001600000000000011427800000000000000009999123100000010000000000000BRCOCEACNOR0139
012020091102COCE5       010COELCE      PNA          R$  000000000595900000000060000000000005830000000000594300000000059250000000005925000000000600000208000000000000024800000000000147394400000000000000009999123100000010000000000000BRCOCEACNPA3140
012020091102COGN3       010COGNA ON    ON      NM   R$  000000000059300000000005940000000000565000000000057500000000005700000000000569000000000057038742000000000053721600000000030897020200000000000000009999123100000010000000000000BRCOGNACNOR2101
012020091102COLG34      010COLGATE     DRN          R$  000000004068800000000406880000000040688000000004068800000000406880000000000000000000000000000001000000000000002970000000000120843360000000000000009999123100000010000000000000BRCOLGBDR000137
012020091102COPH34      010COPHILLIPS  DRN          R$  000000000440200000000044020000000004402000000000440200000000044020000000000000000000000000000001000000000000014750000000000064929500000000000000009999123100000010000000000000BRCOPHBDR009135
012020091102COTY34      010COTY INC    DRN          R$  000000000096500000000009650000000000961000000000096400000000009610000000000900000000000000000002000000000000009800000000000009455800000000000000009999123100000010000000000000BRCOTYBDR006116
012020091102COWC34      010COSTCO      DRN          R$  000000004545000000000454500000000045388000000004544600000000453880000000045000000000000000000003000000000000005300000000000240866400000000000000009999123100000010000000000000BRCOWCBDR006119
012020091102CPFE3       010CPFL ENERGIAON      NM   R$  000000000297800000000029780000000002865000000000288900000000028840000000002873000000000288411953000000000002437100000000007041775700000000000000009999123100000010000000000000BRCPFEACNOR0130
012020091102CPLE3       010COPEL       ON      N1   R$  000000000630200000000063270000000006041000000000609300000000060950000000006074000000000609502701000000000000530900000000003235060900000000000000009999123100000010000000000000BRCPLEACNOR8139
012020091102CPLE6       010COPEL       PNB     N1   R$  000000000650900000000065090000000006262000000000631500000000063290000000006317000000000632906986000000000001258000000000007944898500000000000000009999123100000010000000000000BRCPLEACNPB9136
012020091102CRFB3       010CARREFOUR BRON      NM   R$  000000000204300000000020610000000001995000000000204300000000020480000000002048000000000205213742000000000005121700000000010463933100000000000000009999123100000010000000000000BRCRFBACNOR2107
012020091102CRIV3       010ALFA FINANC ON           R$  000000000055900000000005600000000000545000000000055900000000005450000000000545000000000055900006000000000000003300000000000001844700000000000000009999123100000010000000000000BRCRIVACNOR4194
012020091102CRPG3       010CRISTAL     ON           R$  000000000233000000000023300000000002330000000000233000000000023300000000002130000000000260000001000000000000000100000000000000233000000000000000009999123100000010000000000000BRCRPGACNOR0108
012020091102CRPG5       010CRISTAL     PNA          R$  000000000203900000000020410000000002000000000000201900000000020200000000002010000000000205000054000000000000011200000000000022623300000000000000009999123100000010000000000000BRCRPGACNPA3108
012020091102CRPG6       010CRISTAL     PNB          R$  000000000201000000000020200000000002010000000000201500000000020200000000001960000000000201900002000000000000000200000000000000403000000000000000009999123100000010000000000000BRCRPGACNPB1108
012020091102CSAN3       010COSAN       ON      NM   R$  000000000760700000000076070000000007378000000000746800000000074260000000007426000000000744608234000000000001454100000000010859237800000000000000009999123100000010000000000000BRCSANACNOR6120
012020091102CSCO34      010CISCO       DRN          R$  000000002125900000000212590000000021259000000002125900000000212590000000000000000000000000000001000000000000008900000000000189205100000000000000009999123100000010000000000000BRCSCOBDR004138
012020091102CSMG3       010COPASA      ON      NM   R$  000000000488200000000049020000000004692000000000476200000000047740000000004771000000000477406644000000000000965200000000004597116300000000000000009999123100000010000000000000BRCSMGACNOR5156
012020091102CSNA3       010SID NACIONALON           R$  000000000154000000000016320000000001537000000000159700000000016000000000001596000000000160029420000000000016214800000000025897734100000000000000009999123100000010000000000000BRCSNAACNOR6252
012020091102CSXC34      010CSX CORP    DRN          R$  000000002031200000000203120000000020312000000002031200000000203120000000000000000000000000000001000000000000004370000000000088763440000000000000009999123100000010000000000000BRCSXCBDR005105
012020091102CTGP34      010CITIGROUP   DRN          R$  000000002700100000000273890000000027001000000002700200000000273890000000000000000000002738900002000000000000008630000000000233030270000000000000009999123100000010000000000000BRCTGPBDR000139
012020091102CTKA3       010KARSTEN     ON           R$  000000000152000000000015200000000001520000000000152000000000015200000000001500000000000154800001000000000000000200000000000000304000000000000000009999123100000010000000000000BRCTKAACNOR0043
012020091102CTNM3       010COTEMINAS   ON           R$  000000000108500000000010850000000001085000000000108500000000010850000000001085000000000109900001000000000000000100000000000000108500000000000000009999123100000010000000000000BRCTNMACNOR9130
012020091102CTNM4       010COTEMINAS   PN           R$  000000000056000000000005750000000000556000000000056000000000005610000000000561000000000056200050000000000000019500000000000010921600000000000000009999123100000010000000000000BRCTNMACNPR6129
012020091102CTSA3       010SANTANENSE  ON           R$  000000000025300000000002640000000000253000000000026000000000002610000000000253000000000026100040000000000000011500000000000002995300000000000000009999123100000010000000000000BRCTSAACNOR3060
012020091102CTSA4       010SANTANENSE  PN           R$  000000000022000000000002200000000000218000000000021900000000002180000000000218000000000022700008000000000000002200000000000000482000000000000000009999123100000010000000000000BRCTSAACNPR0060
012020091102CTSH34      010COGNIZANT   DRN          R$  000000003554900000000355490000000035549000000003554900000000355490000000000000000000000000000001000000000000000200000000000007109800000000000000009999123100000010000000000000BRCTSHBDR002114
012020091102CVCB3       010CVC BRASIL  ON      NM   R$  000000000173000000000017380000000001653000000000168200000000016880000000001688000000000169012652000000000003517900000000005918963200000000000000009999123100000010000000000000BRCVCBACNOR1113
012020091102CVSH34      010CVS HEALTH  DRN          R$  000000001529000000000152900000000015279000000001528000000000152800000000000000000000001690000006000000000000010390000000000158760040000000000000009999123100000010000000000000BRCVSHBDR008117
012020091102CYRE3       010CYRELA REALTON      NM   R$  000000000240800000000024240000000002332000000000236700000000023660000000002366000000000236729984000000000007575400000000017937481500000000000000009999123100000010000000000000BRCYREACNOR7134
012020091102D1OM34      010DOMINION ENEDRN ED       R$  000000002106000000000210600000000021060000000002106000000000210600000000000000000000000000000001000000000000004900000000000103194000000000000000009999123100000010000000000000BRD1OMBDR006103
012020091102DASA3       010DASA        ON           R$  000000000650000000000065000000000006500000000000650000000000065000000000006500000000000658700001000000000000000100000000000000650000000000000000009999123100000010000000000000BRDASAACNOR1119
012020091102DDNB34      010DUPONT N INCDRN          R$  000000003112600000000311260000000031126000000003112600000000311260000000027100000000000000000001000000000000006830000000000212590580000000000000009999123100000010000000000000BRDDNBBDR008105
012020091102DEAI34      010DELTA       DRN          R$  000000001690900000000169090000000016909000000001690900000000169090000000011500000000002300000001000000000000003800000000000064254200000000000000009999123100000010000000000000BRDEAIBDR008116
012020091102DEEC34      010DEERE CO    DRN          R$  000000005720000000000572000000000057200000000005720000000000572000000000000000000000000000000002000000000000001580000000000090376000000000000000009999123100000010000000000000BRDEECBDR003105
012020091102DEOP34      010DIAGEO PL   DRN          R$  000000007113500000000711350000000071135000000007113500000000711350000000000000000000000000000001000000000000001650000000000117372750000000000000009999123100000010000000000000BRDEOPBDR004102
012020091102DGCO34      010DOLLAR GENERDRN          R$  000000005327200000000532720000000052895000000005290500000000528950000000000000000000000000000002000000000000001080000000000057137910000000000000009999123100000010000000000000BRDGCOBDR007105
012020091102DHER34      010DANAHER CORPDRN          R$  000000002715000000000271500000000027092000000002709600000000270920000000000000000000000000000003000000000000008120000000000220019840000000000000009999123100000010000000000000BRDHERBDR004121
012020091102DIRR3       010DIRECIONAL  ON      NM   R$  000000000153500000000015500000000001476000000000151500000000015170000000001513000000000151705907000000000001061200000000001608083200000000000000009999123100000010000000000000BRDIRRACNOR0112
012020091102DISB34      010WALT DISNEY DRN          R$  000000007059900000000706220000000069649000000007056900000000706220000000069650000000007100000029000000000000008060000000000568786980000000000000009999123100000010000000000000BRDISBBDR006114
012020091102DMMO3       010DOMMO       ON           R$  000000000012200000000001230000000000118000000000011900000000001180000000000118000000000011903796000000000002848400000000000340977200000000000000009999123100000010000000000000BRDMMOACNOR0102
012020091102DMVF3       010D1000VFARMA ON      NM   R$  000000000117800000000011800000000001126000000000114600000000011300000000001130000000000114000815000000000000450400000000000516601500000000000000009999123100000010000000000000BRDMVFACNOR9100
012020091102DOHL4       010DOHLER      PN           R$  000000000051500000000005150000000000515000000000051500000000005150000000000502000000000051400003000000000000003200000000000001648000000000000000009999123100000010000000000000BRDOHLACNPR9061
012020091102DTCY3       010DTCOM-DIRECTON           R$  000000000064500000000007000000000000645000000000065700000000006550000000000655000000000071000013000000000000002600000000000001709000000000000000009999123100000010000000000000BRDTCYACNOR5109
012020091102DTEX3       010DURATEX     ON      NM   R$  000000000171800000000017260000000001664000000000170400000000017000000000001699000000000170007917000000000001818200000000003099507000000000000000009999123100000010000000000000BRDTEXACNOR3128
012020091102DUKB34      010DUKE ENERGY DRN          R$  000000004383000000000442500000000043830000000004383500000000442500000000042000000000000000000003000000000000002660000000000116603410000000000000009999123100000010000000000000BRDUKBBDR008116
012020091102E1TN34      010EATON CORP PDRN          R$  000000002740000000000274000000000027398000000002739900000000273980000000000000000000000000000003000000000000000350000000000009589940000000000000009999123100000010000000000000BRE1TNBDR002103
012020091102EAIN34      010ELECTR ARTS DRN          R$  000000003402000000000340200000000033500000000003359000000000336310000000033000000000000000000005000000000000001800000000000060463550000000000000009999123100000010000000000000BREAINBDR007100
012020091102EALT3       010ACO ALTONA  ON           R$  000000000120000000000012000000000001200000000000120000000000012000000000001200000000000122900003000000000000000600000000000000720000000000000000009999123100000010000000000000BREALTACNOR4133
012020091102EALT4       010ACO ALTONA  PN           R$  000000000053500000000005350000000000503000000000051600000000005240000000000516000000000052400069000000000000028700000000000014811900000000000000009999123100000010000000000000BREALTACNPR1133
012020091102EBAY34      010EBAY        DRN          R$  000000001386100000000138610000000013861000000001386100000000138610000000000000000000000000000001000000000000006020000000000083443220000000000000009999123100000010000000000000BREBAYBDR009108
012020091102ECOR3       010ECORODOVIAS ON      NM   R$  000000000130800000000013170000000001267000000000129000000000012980000000001298000000000129921956000000000005922800000000007642791900000000000000009999123100000010000000000000BRECORACNOR8116
012020091102EGIE3       010ENGIE BRASILON      NM   R$  000000000443100000000044310000000004236000000000428400000000042990000000004291000000000429911893000000000002123200000000009097552900000000000000009999123100000010000000000000BREGIEACNOR9113
012020091102ELCI34      010ESTEE LAUDERDRN          R$  000000005696000000000569600000000056960000000005696000000000569600000000000000000000000000000001000000000000001220000000000069491200000000000000009999123100000010000000000000BRELCIBDR007104
012020091102ELET3       010ELETROBRAS  ON      N1   R$  000000000354000000000035480000000003392000000000344500000000034400000000003440000000000344324290000000000006404700000000022070076100000000000000009999123100000010000000000000BRELETACNOR6155
012020091102ELET6       010ELETROBRAS  PNB     N1   R$  000000000363100000000036380000000003495000000000354900000000035590000000003554000000000355917109000000000003096100000000010991092400000000000000009999123100000010000000000000BRELETACNPB7072
012020091102EMAE4       010EMAE        PN           R$  000000000313900000000032750000000003138000000000322800000000032670000000003200000000000326700023000000000000003700000000000011944600000000000000009999123100000010000000000000BREMAEACNPR1114
012020091102EMBR3       010EMBRAER     ON      NM   R$  000000000070600000000007070000000000672000000000068500000000006810000000000681000000000068319438000000000013518300000000009269990800000000000000009999123100000010000000000000BREMBRACNOR4189
012020091102ENAT3       010ENAUTA PART ON      NM   R$  000000000108500000000010890000000001045000000000106100000000010680000000001067000000000106908074000000000002036700000000002161739200000000000000009999123100000010000000000000BRENATACNOR0101
012020091102ENBR3       010ENERGIAS BR ON      NM   R$  000000000187200000000018770000000001807000000000183100000000018300000000001830000000000183112992000000000002818500000000005162641400000000000000009999123100000010000000000000BRENBRACNOR2129
012020091102ENEV3       010ENEVA       ON      NM   R$  000000000479000000000047950000000004608000000000472200000000046900000000004690000000000469508784000000000001569200000000007410165700000000000000009999123100000010000000000000BRENEVACNOR8104
012020091102ENGI3       010ENERGISA    ON      N2   R$  000000000131300000000013500000000001253000000000130400000000013070000000001306000000000131900148000000000000019400000000000025313400000000000000009999123100000010000000000000BRENGIACNOR0138
012020091102ENGI4       010ENERGISA    PN      N2   R$  000000000078000000000007880000000000740000000000075500000000007610000000000754000000000077000195000000000000042200000000000031879400000000000000009999123100000010000000000000BRENGIACNPR7134
012020091102ENGI11      010ENERGISA    UNT     N2   R$  000000000440600000000044060000000004213000000000432800000000043700000000004370000000000437510852000000000002471800000000010698024500000000000000009999123100000010000000000000BRENGICDAM16128
012020091102ENMT3       010ENERGISA MT ON           R$  000000000299000000000029900000000002889000000000296400000000029900000000002600000000000298900003000000000000000400000000000001185900000000000000009999123100000010000000000000BRENMTACNOR5111
012020091102ENMT4       010ENERGISA MT PN           R$  000000000299000000000029900000000002820000000000296500000000029900000000002825000000000298800011000000000000001100000000000003261700000000000000009999123100000010000000000000BRENMTACNPR2114
012020091102EQIX34      010EQUINIX INC DRN          R$  000000007904400000000790440000000079044000000007904400000000790440000000000000000000000000000001000000000000001150000000000090900600000000000000009999123100000010000000000000BREQIXBDR002106
012020091102EQPA3       010EQTL PARA   ON           R$  000000000033700000000003370000000000320000000000032400000000003200000000000320000000000032400103000000000000053000000000000017172100000000000000009999123100000010000000000000BREQPAACNOR1101
012020091102EQTL3       010EQUATORIAL  ON      NM   R$  000000000233300000000023460000000002259000000000228200000000022860000000002283000000000228722345000000000006031400000000013766163400000000000000009999123100000010000000000000BREQTLACNOR0126
012020091102ESTR4       010ESTRELA     PN           R$  000000000305500000000030700000000003050000000000305800000000030580000000003000000000000308000005000000000000000500000000000001529000000000000000009999123100000010000000000000BRESTRACNPR0143
012020091102EUCA3       010EUCATEX     ON      N1   R$  000000000224300000000023190000000002243000000000230700000000023140000000002260000000000231500010000000000000001100000000000002538100000000000000009999123100000010000000000000BREUCAACNOR1151
012020091102EUCA4       010EUCATEX     PN      N1   R$  000000000066000000000006880000000000655000000000067200000000006630000000000663000000000066400418000000000000160500000000000107912100000000000000009999123100000010000000000000BREUCAACNPR8038
012020091102EVEN3       010EVEN        ON      NM   R$  000000000123500000000012640000000001214000000000124100000000012410000000001238000000000124105998000000000001634500000000002028835000000000000000009999123100000010000000000000BREVENACNOR8112
012020091102EXXO34      010EXXON MOBIL DRN          R$  000000000492700000000049450000000004851000000000492100000000049350000000004890000000000493500017000000000000054960000000000270492280000000000000009999123100000010000000000000BREXXOBDR006140
012020091102EZTC3       010EZTEC       ON      NM   R$  000000000400600000000040200000000003862000000000391400000000039250000000003921000000000392515123000000000002895400000000011334305800000000000000009999123100000010000000000000BREZTCACNOR0114
012020091102F1AN34      010DIAMONDBACK DRN          R$  000000000776000000000077600000000007760000000000776000000000077600000000007760000000000000000001000000000000000050000000000000388000000000000000009999123100000010000000000000BRF1ANBDR001103
012020091102F1IS34      010FISERV INC  DRN          R$  000000002488700000000248870000000024887000000002488700000000248870000000000000000000000000000001000000000000003800000000000094570600000000000000009999123100000010000000000000BRF1ISBDR003100
012020091102F1NI34      010FIDELITY NATDRN ED       R$  000000001914000000000191400000000019140000000001914000000000191400000000000000000000000000000001000000000000007350000000000140679000000000000000009999123100000010000000000000BRF1NIBDR004103
012020091102F1RI34      010FEDERAL REALDRN          R$  000000001016100000000101610000000010161000000001016100000000101610000000000000000000001208000001000000000000000020000000000000203220000000000000009999123100000010000000000000BRF1RIBDR005102
012020091102FBOK34      010FACEBOOK    DRN          R$  000000007090100000000714990000000070000000000007135600000000710530000000069969000000007200000046000000000000015760000000001124580680000000000000009999123100000010000000000000BRFBOKBDR006100
012020091102FCXO34      010FREEPORT    DRN          R$  000000000871000000000087100000000008710000000000871000000000087100000000000000000000000000000001000000000000000090000000000000783900000000000000009999123100000010000000000000BRFCXOBDR007132
012020091102FDXB34      010FEDEX CORP  DRN ED       R$  000000012284000000001228400000000122840000000012284000000001228400000000000000000000000000000001000000000000000100000000000012284000000000000000009999123100000010000000000000BRFDXBBDR002128
012020091102FESA4       010FERBASA     PN  EJ  N1   R$  000000000180500000000018070000000001750000000000177000000000017500000000001750000000000175300835000000000000210700000000000372984600000000000000009999123100000010000000000000BRFESAACNPR5067
012020091102FLRY3       010FLEURY      ON      NM   R$  000000000284800000000028600000000002772000000000280400000000027770000000002777000000000277917292000000000002979900000000008357738400000000000000009999123100000010000000000000BRFLRYACNOR5127
012020091102FMSC34      010FRESENIUS   DRN          R$  000000002269500000000226950000000022695000000002269500000000226950000000000000000000000000000001000000000000000280000000000006354600000000000000009999123100000010000000000000BRFMSCBDR001101
012020091102FRAS3       010FRAS-LE     ON      N1   R$  000000000053700000000005370000000000513000000000052000000000005210000000000520000000000052100217000000000000061600000000000032063300000000000000009999123100000010000000000000BRFRASACNOR0149
012020091102GDBR34      010GEN DYNAMICSDRN          R$  000000007674200000000767420000000076742000000007674200000000767420000000000000000000000000000001000000000000000400000000000030696800000000000000009999123100000010000000000000BRGDBRBDR002120
012020091102GEOO34      010GE          DRN          R$  000000000320200000000032020000000003186000000000320100000000031990000000002989000000000319900005000000000000028790000000000092165590000000000000009999123100000010000000000000BRGEOOBDR000140
012020091102GEPA4       010GER PARANAP PN           R$  000000000463600000000047630000000004636000000000466300000000046360000000004636000000000480000008000000000000001000000000000004663300000000000000009999123100000010000000000000BRGEPAACNPR9153
012020091102GFSA3       010GAFISA      ON      NM   R$  000000000047000000000004750000000000452000000000045800000000004520000000000452000000000045304634000000000004110100000000001886457500000000000000009999123100000010000000000000BRGFSAACNOR3119
012020091102GGBR3       010GERDAU      ON      N1   R$  000000000166300000000017020000000001615000000000165900000000016470000000001647000000000166100212000000000000072100000000000119625200000000000000009999123100000010000000000000BRGGBRACNOR1173
012020091102GGBR4       010GERDAU      PN      N1   R$  000000000198500000000020540000000001964000000000200600000000019910000000001990000000000199125628000000000010190000000000020447149100000000000000009999123100000010000000000000BRGGBRACNPR8173
012020091102GILD34      010GILEAD      DRN          R$  000000001749900000000174990000000017499000000001749900000000174990000000000000000000002156000001000000000000006500000000000113743500000000000000009999123100000010000000000000BRGILDBDR000117
012020091102GMCO34      010GENERAL MOT DRN          R$  000000001601300000000161500000000016013000000001612200000000161400000000010000000000000000000013000000000000003060000000000049334960000000000000009999123100000010000000000000BRGMCOBDR008115
012020091102GNDI3       010INTERMEDICA ON      NM   R$  000000000729000000000073290000000006934000000000705000000000069860000000006984000000000698617916000000000003251800000000022925349700000000000000009999123100000010000000000000BRGNDIACNOR2102
012020091102GOAU3       010GERDAU MET  ON      N1   R$  000000000079500000000008130000000000777000000000079700000000007930000000000793000000000080000498000000000000158000000000000126041000000000000000009999123100000010000000000000BRGOAUACNOR1250
012020091102GOAU4       010GERDAU MET  PN      N1   R$  000000000090100000000009310000000000891000000000091100000000009050000000000905000000000090618559000000000015550900000000014170267500000000000000009999123100000010000000000000BRGOAUACNPR8251
012020091102GOGL34      010ALPHABET    DRN A        R$  000000003232200000000325700000000031890000000003244000000000324800000000032384000000003248000128000000000000027710000000000898926360000000000000009999123100000010000000000000BRGOGLBDR001100
012020091102GOGL35      010ALPHABET    DRN C        R$  000000003262600000000326260000000032069000000003262500000000325820000000000000000000003258200003000000000000019640000000000640767750000000000000009999123100000010000000000000BRGOGLBDR019100
012020091102GOLL4       010GOL         PN      N2   R$  000000000205300000000020900000000001953000000000199700000000019760000000001975000000000197625226000000000010592000000000021158618800000000000000009999123100000010000000000000BRGOLLACNPR4125
012020091102GPAR3       010CELGPAR     ON           R$  000000000319900000000032000000000002980000000000310900000000031600000000003025000000000330000018000000000000002100000000000006530300000000000000009999123100000010000000000000BRGPARACNOR4104
012020091102GPIV33      010GP INVEST   DR3          R$  000000000050300000000005080000000000491000000000049700000000004910000000000491000000000049600116000000000000054900000000000027311000000000000000009999123100000010000000000000BRGPIVBDR003104
012020091102GRND3       010GRENDENE    ON      NM   R$  000000000082100000000008230000000000776000000000079000000000007760000000000776000000000078103421000000000001293200000000001021803100000000000000009999123100000010000000000000BRGRNDACNOR3158
012020091102GSGI34      010GOLDMANSACHSDRN          R$  000000001071000000000107100000000010674000000001069400000000106740000000000000000000000000000004000000000000013270000000000141911180000000000000009999123100000010000000000000BRGSGIBDR008140
012020091102GSHP3       010GENERALSHOPPON      NM   R$  000000000485000000000048500000000004850000000000485000000000048500000000004770000000000500000001000000000000000400000000000001940000000000000000009999123100000010000000000000BRGSHPACNOR7102
012020091102GUAR3       010GUARARAPES  ON           R$  000000000176600000000017730000000001682000000000170300000000016940000000001692000000000169404046000000000001091400000000001859120300000000000000009999123100000010000000000000BRGUARACNOR4165
012020091102H1CA34      010HCA HEALTHCADRN          R$  000000003521400000000352140000000035214000000003521400000000352140000000000000000000000000000001000000000000002020000000000071132280000000000000009999123100000010000000000000BRH1CABDR002101
012020091102H1OL34      010HOLOGIC INC DRN          R$  000000003297100000000329710000000032700000000003284000000000327020000000000000000000000000000004000000000000000580000000000019047320000000000000009999123100000010000000000000BRH1OLBDR004100
012020091102HAGA3       010HAGA S/A    ON           R$  000000000035300000000003530000000000330000000000033900000000003400000000000330000000000034000048000000000000014100000000000004785700000000000000009999123100000010000000000000BRHAGAACNOR7103
012020091102HAGA4       010HAGA S/A    PN           R$  000000000020300000000002030000000000198000000000019900000000002010000000000201000000000020200055000000000000013700000000000002738900000000000000009999123100000010000000000000BRHAGAACNPR4103
012020091102HALI34      010HALLIBURTON DRN ED       R$  000000000755000000000075500000000007550000000000755000000000075500000000006040000000000000000001000000000000000010000000000000075500000000000000009999123100000010000000000000BRHALIBDR004135
012020091102HAPV3       010HAPVIDA     ON  EJ  NM   R$  000000000651500000000066270000000006288000000000637300000000063540000000006350000000000635818425000000000003145100000000020045227200000000000000009999123100000010000000000000BRHAPVACNOR4106
012020091102HBOR3       010HELBOR      ON      NM   R$  000000000115100000000011580000000001093000000000112000000000011230000000001122000000000112304214000000000002210400000000002475837900000000000000009999123100000010000000000000BRHBORACNOR3114
012020091102HGTX3       010CIA HERING  ON      NM   R$  000000000191100000000019330000000001847000000000188300000000018590000000001859000000000186010954000000000003356500000000006321633100000000000000009999123100000010000000000000BRHGTXACNOR9151
012020091102HOME34      010HOME DEPOT  DRN ED       R$  000000007306800000000737010000000073068000000007319900000000736500000000000000000000000000000005000000000000010350000000000757615700000000000000009999123100000010000000000000BRHOMEBDR002134
012020091102HONB34      010HONEYWELL   DRN          R$  000000008811300000000881130000000088113000000008811300000000881130000000000000000000000000000001000000000000002620000000000230856060000000000000009999123100000010000000000000BRHONBBDR006127
012020091102HOND34      010HONDA MO    DRN          R$  000000001320100000000132010000000013201000000001320100000000132010000000000000000000000000000001000000000000005570000000000073529570000000000000009999123100000010000000000000BRHONDBDR002103
012020091102HYPE3       010HYPERA      ON      NM   R$  000000000314600000000031520000000003043000000000307600000000030650000000003065000000000306919559000000000003107900000000009560868700000000000000009999123100000010000000000000BRHYPEACNOR0122
012020091102I1RM34      010IRON MOUNTAIDRN          R$  000000001572000000000157200000000015720000000001572000000000157200000000000000000000000000000001000000000000000010000000000000157200000000000000009999123100000010000000000000BRI1RMBDR004102
012020091102IBMB34      010IBM         DRN          R$  000000006447300000000644730000000064473000000006447300000000644730000000060000000000000000000001000000000000002420000000000156024660000000000000009999123100000010000000000000BRIBMBBDR003135
012020091102IDVL3       010INDUSVAL    ON      N2   R$  000000000025400000000002550000000000247000000000025200000000002550000000000249000000000025400018000000000000016200000000000004097900000000000000009999123100000010000000000000BRIDVLACNOR5130
012020091102IDVL4       010INDUSVAL    PN      N2   R$  000000000024700000000002510000000000247000000000024800000000002500000000000248000000000025000011000000000000001800000000000000447400000000000000009999123100000010000000000000BRIDVLACNPR2130
012020091102IGTA3       010IGUATEMI    ON      NM   R$  000000000348800000000034880000000003356000000000339900000000034110000000003410000000000341113058000000000002086100000000007091157200000000000000009999123100000010000000000000BRIGTAACNOR5124
012020091102INTU34      010INTUIT INC  DRN          R$  000000004212400000000421240000000042124000000004212400000000421240000000000000000000000000000001000000000000003250000000000136903000000000000000009999123100000010000000000000BRINTUBDR003105
012020091102IRBR3       010IRBBRASIL REON      NM   R$  000000000063400000000006370000000000603000000000061300000000006040000000000603000000000060428625000000000030031900000000018422933000000000000000009999123100000010000000000000BRIRBRACNOR4108
012020091102ITLC34      010INTEL       DRN          R$  000000002654600000000265460000000026420000000002654500000000264260000000025600000000002642600003000000000000009440000000000250589380000000000000009999123100000010000000000000BRITLCBDR005139
012020091102ITSA3       010ITAUSA      ON  ED  N1   R$  000000000106700000000010740000000001041000000000105200000000010560000000001053000000000105600778000000000000201300000000000211937800000000000000009999123100000010000000000000BRITSAACNOR0401
012020091102ITSA4       010ITAUSA      PN  ED  N1   R$  000000000094800000000009490000000000922000000000093000000000009270000000000927000000000092842988000000000025654800000000023864309600000000000000009999123100000010000000000000BRITSAACNPR7401
012020091102ITUB3       010ITAUUNIBANCOON  ED  N1   R$  000000000228500000000022940000000002228000000000224900000000022410000000002241000000000224401525000000000000346000000000000778214000000000000000009999123100000010000000000000BRITUBACNOR4273
012020091102ITUB4       010ITAUUNIBANCOPN  ED  N1   R$  000000000239500000000024070000000002343000000000236400000000023630000000002362000000000236342140000000000023347700000000055214799200000000000000009999123100000010000000000000BRITUBACNPR1273
012020091102JBDU3       010J B DUARTE  ON           R$  000000000022300000000002230000000000210000000000021200000000002100000000000210000000000021500016000000000000006000000000000001276700000000000000009999123100000010000000000000BRJBDUACNOR6142
012020091102JBDU4       010J B DUARTE  PN           R$  000000000012500000000001270000000000120000000000012100000000001200000000000120000000000012100068000000000000033200000000000004026200000000000000009999123100000010000000000000BRJBDUACNPR3142
012020091102JBSS3       010JBS         ON      NM   R$  000000000226500000000023130000000002245000000000227800000000022530000000002253000000000225439726000000000020379200000000046443246500000000000000009999123100000010000000000000BRJBSSACNOR8115
012020091102JDCO34      010JD COM      DRN          R$  000000003951000000000398100000000039510000000003967200000000396730000000000000000000004700000003000000000000003830000000000151946550000000000000009999123100000010000000000000BRJDCOBDR001100
012020091102JHSF3       010JHSF PART   ON      NM   R$  000000000071300000000007320000000000705000000000071800000000007230000000000721000000000072312403000000000010132700000000007281153200000000000000009999123100000010000000000000BRJHSFACNOR2116
012020091102JNJB34      010JOHNSON     DRN          R$  000000007888100000000792050000000078881000000007890100000000792050000000000000000000007920500013000000000000007930000000000625690720000000000000009999123100000010000000000000BRJNJBBDR002135
012020091102JPMC34      010JPMORGAN    DRN          R$  000000002641300000000270950000000026342000000002664400000000270950000000026000000000002709500024000000000000016450000000000438296560000000000000009999123100000010000000000000BRJPMCBDR009134
012020091102JPSA3       010JEREISSATI  ON           R$  000000000234000000000023400000000002231000000000226800000000022420000000002242000000000224602315000000000000394400000000000894651700000000000000009999123100000010000000000000BRJPSAACNOR6103
012020091102JSLG11      010JSL         ON  P   NM   R$  000000000093000000000009570000000000900000000000091600000000009120000000000910000000000091400891000000000000835100000000000765526000000000000000009999123100000010000000000000BRJSLGA02OR1100
012020091102JSLG3       010JSL         ON      NM   R$  000000000317900000000032220000000003068000000000313800000000031160000000003115000000000313105787000000000001065700000000003344528700000000000000009999123100000010000000000000BRJSLGACNOR2114
012020091102K1IM34      010KIMCO REALTYDRN ED       R$  000000000617100000000061710000000006171000000000617100000000061710000000000000000000000000000001000000000000000020000000000000123420000000000000009999123100000010000000000000BRK1IMBDR009102
012020091102K1RC34      010KROGER CO   DRN          R$  000000001835000000000183770000000018350000000001835300000000183770000000000000000000000000000003000000000000000090000000000001651770000000000000009999123100000010000000000000BRK1RCBDR001103
012020091102KEPL3       010KEPLER WEBERON           R$  000000000415500000000042400000000004147000000000420600000000042000000000004200000000000423001960000000000000361200000000001519470300000000000000009999123100000010000000000000BRKEPLACNOR1049
012020091102KHCB34      010KRAFT HEINZ DRN          R$  000000001650000000000170420000000016500000000001702400000000168820000000000000000000001950000003000000000000003910000000000066564800000000000000009999123100000010000000000000BRKHCBBDR007121
012020091102KLBN3       010KLABIN S/A  ON      N2   R$  000000000052100000000005250000000000511000000000051600000000005150000000000515000000000052000660000000000000203100000000000104906500000000000000009999123100000010000000000000BRKLBNACNOR2156
012020091102KLBN4       010KLABIN S/A  PN      N2   R$  000000000048900000000004890000000000471000000000047700000000004740000000000474000000000047501889000000000000990400000000000473303400000000000000009999123100000010000000000000BRKLBNACNPR9156
012020091102KLBN11      010KLABIN S/A  UNT     N2   R$  000000000245200000000024650000000002394000000000241700000000024200000000002417000000000242016389000000000004387100000000010606226500000000000000009999123100000010000000000000BRKLBNCDAM18128
012020091102KMBB34      010KIMBERLY CL DRN ED       R$  000000007860000000000786000000000078600000000007860000000000786000000000000000000000000000000001000000000000000620000000000048732000000000000000009999123100000010000000000000BRKMBBBDR009121
012020091102KMIC34      010KINDER MORGADRN          R$  000000000685500000000068550000000006855000000000685500000000068550000000000000000000000000000001000000000000000100000000000000685500000000000000009999123100000010000000000000BRKMICBDR002105
012020091102LAME3       010LOJAS AMERICON      N1   R$  000000000258200000000026000000000002496000000000253100000000025280000000002528000000000253010050000000000001851700000000004687353500000000000000009999123100000010000000000000BRLAMEACNOR9202
012020091102LAME4       010LOJAS AMERICPN      N1   R$  000000000300600000000030580000000002926000000000297100000000029490000000002949000000000295022769000000000005443600000000016174989300000000000000009999123100000010000000000000BRLAMEACNPR6202
012020091102LAVV3       010LAVVI       ON      NM   R$  000000000082000000000008220000000000788000000000079700000000007930000000000790000000000079301243000000000001700200000000001355774700000000000000009999123100000010000000000000BRLAVVACNOR4100
012020091102LBRN34      010L BRANDS    DRN          R$  000000000373800000000037380000000003738000000000373800000000037380000000000000000000000000000001000000000000000260000000000000971880000000000000009999123100000010000000000000BRLBRNBDR001119
012020091102LCAM3       010LOCAMERICA  ON      NM   R$  000000000221400000000022140000000002113000000000214500000000021210000000002121000000000212608827000000000002716000000000005826815100000000000000009999123100000010000000000000BRLCAMACNOR3133
012020091102LEVE3       010METAL LEVE  ON      NM   R$  000000000175600000000017560000000001701000000000171400000000017260000000001715000000000172601878000000000000369400000000000633281000000000000000009999123100000010000000000000BRLEVEACNOR2187
012020091102LIGT3       010LIGHT S/A   ON      NM   R$  000000000151300000000015350000000001440000000000146600000000014670000000001466000000000146711529000000000002982800000000004372990500000000000000009999123100000010000000000000BRLIGTACNOR2120
012020091102LILY34      010LILLY       DRN          R$  000000003924000000000395610000000038983000000003901700000000395610000000000000000000004120000004000000000000006530000000000254787430000000000000009999123100000010000000000000BRLILYBDR006134
012020091102LINX3       010LINX        ON      NM   R$  000000000357000000000035920000000003523000000000355000000000035410000000003541000000000354407040000000000002520800000000008949383600000000000000009999123100000010000000000000BRLINXACNOR0118
012020091102LIPR3       010ELETROPAR   ON           R$  000000000703000000000070300000000007030000000000703000000000070300000000006802000000000720000001000000000000000100000000000000703000000000000000009999123100000010000000000000BRLIPRACNOR7117
012020091102LJQQ3       010QUERO-QUERO ON      NM   R$  000000000144200000000014670000000001422000000000144800000000014650000000001457000000000146903038000000000001040400000000001507481600000000000000009999123100000010000000000000BRLJQQACNOR5100
012020091102LMTB34      010LOCKHEED    DRN          R$  000000020467000000002046700000000204670000000020467000000002046700000000000000000000000000000001000000000000000250000000000051167500000000000000009999123100000010000000000000BRLMTBBDR009134
012020091102LOGG3       010LOG COM PROPON      NM   R$  000000000312400000000031310000000003037000000000308200000000030600000000003060000000000306602607000000000000431200000000001329162300000000000000009999123100000010000000000000BRLOGGACNOR7103
012020091102LOGN3       010LOG-IN      ON      NM   R$  000000000191300000000019240000000001832000000000187100000000018810000000001881000000000188502992000000000000713100000000001334552000000000000000009999123100000010000000000000BRLOGNACNOR3104
012020091102LOWC34      010LOWES COMPA DRN          R$  000000004261000000000426100000000042610000000004261000000000426100000000000000000000000000000001000000000000004150000000000176831500000000000000009999123100000010000000000000BRLOWCBDR007105
012020091102LPSB3       010LOPES BRASILON      NM   R$  000000000054800000000005770000000000533000000000055200000000005380000000000538000000000053903186000000000001524900000000000842028300000000000000009999123100000010000000000000BRLPSBACNOR0111
012020091102LREN3       010LOJAS RENNERON      NM   R$  000000000444300000000044990000000004260000000000434100000000043100000000004310000000000431538098000000000009742200000000042300526300000000000000009999123100000010000000000000BRLRENACNOR1203
012020091102LUXM4       010TREVISA     PN           R$  000000000460500000000046250000000004605000000000461500000000046250000000004523000000000462500002000000000000000200000000000000923000000000000000009999123100000010000000000000BRLUXMACNPR4047
012020091102LWSA3       010LOCAWEB     ON      NM   R$  000000000573000000000059430000000005431000000000573200000000058380000000005838000000000583918037000000000003032400000000017384469200000000000000009999123100000010000000000000BRLWSAACNOR8100
012020091102MACY34      010MACY S      DRN          R$  000000000377800000000037780000000003778000000000377800000000037780000000002600000000000890000002000000000000001700000000000006422600000000000000009999123100000010000000000000BRMACYBDR000116
012020091102MAPT4       010CEMEPE      PN           R$  000000000447700000000044770000000004370000000000443500000000043700000000004021000000000499000006000000000000000600000000000002661400000000000000009999123100000010000000000000BRMAPTACNPR5106
012020091102MCDC34      010MCDONALDS   DRN          R$  000000002906100000000291610000000029061000000002907100000000291310000000028500000000003000000005000000000000008710000000000253209520000000000000009999123100000010000000000000BRMCDCBDR000140
012020091102MCOR34      010MOODYS CORP DRN          R$  000000003777500000000377750000000037775000000003777500000000377750000000000000000000000000000001000000000000002700000000000101992500000000000000009999123100000010000000000000BRMCORBDR005105
012020091102MDIA3       010M.DIASBRANCOON      NM   R$  000000000368400000000036840000000003560000000000359000000000035620000000003562000000000356505833000000000000881500000000003165220300000000000000009999123100000010000000000000BRMDIAACNOR7118
012020091102MDLZ34      010MONDELEZ INTDRN          R$  000000001518000000000151800000000015180000000001518000000000151800000000000000000000000000000001000000000000008920000000000135405600000000000000009999123100000010000000000000BRMDLZBDR002120
012020091102MDNE3       010MOURA DUBEUXON      NM   R$  000000000088100000000008930000000000846000000000087900000000008830000000000882000000000088301849000000000000357500000000000314500600000000000000009999123100000010000000000000BRMDNEACNOR9100
012020091102MDTC34      010MEDTRONIC   DRN          R$  000000002769100000000279520000000027691000000002769100000000279520000000000000000000000000000002000000000000008920000000000247008940000000000000009999123100000010000000000000BRMDTCBDR004117
012020091102MEAL3       010IMC S/A     ON      NM   R$  000000000038100000000003810000000000366000000000037100000000003690000000000369000000000037009398000000000013846200000000005146356300000000000000009999123100000010000000000000BRMEALACNOR9105
012020091102MELI34      010MERCADOLIBREDRN          R$  000000005560000000000556800000000053453000000005506100000000553590000000054900000000005700000062000000000000003530000000000194367100000000000000009999123100000010000000000000BRMELIBDR006100
012020091102METB34      010METLIFE INC DRN          R$  000000002010200000000201020000000020102000000002010200000000201020000000000000000000000000000001000000000000003700000000000074377400000000000000009999123100000010000000000000BRMETBBDR004121
012020091102MGLU3       010MAGAZ LUIZA ON      NM   R$  000000000893600000000090400000000008712000000000884700000000087570000000008755000000000875751251000000000012034400000000106471753300000000000000009999123100000010000000000000BRMGLUACNOR2116
012020091102MILS3       010MILLS       ON      NM   R$  000000000070000000000007010000000000666000000000068600000000007010000000000698000000000070102794000000000002149300000000001475019800000000000000009999123100000010000000000000BRMILSACNOR2112
012020091102MMMC34      0103M          DRN          R$  000000002204400000000221550000000022044000000002205400000000221550000000015000000000000000000003000000000000006540000000000144236400000000000000009999123100000010000000000000BRMMMCBDR000134
012020091102MNDL3       010MUNDIAL     ON           R$  000000000228000000000022900000000002260000000000227100000000022900000000002290000000000233000011000000000000005200000000000011810400000000000000009999123100000010000000000000BRMNDLACNOR4107
012020091102MNPR3       010MINUPAR     ON           R$  000000000056300000000006100000000000555000000000056800000000005650000000000546000000000056500020000000000000009300000000000005282700000000000000009999123100000010000000000000BRMNPRACNOR5122
012020091102MOOO34      010ALTRIA GROUPDRN          R$  000000002286800000000228680000000022868000000002286800000000228680000000022868000000000000000001000000000000005620000000000128518160000000000000009999123100000010000000000000BRMOOOBDR007104
012020091102MOVI3       010MOVIDA      ON      NM   R$  000000000175400000000017620000000001660000000000169500000000016820000000001682000000000168507190000000000002050000000000003476238400000000000000009999123100000010000000000000BRMOVIACNOR0111
012020091102MRCK34      010MERCK       DRN          R$  000000004464000000000452000000000044477000000004450000000000452000000000044460000000004520000004000000000000008650000000000384929850000000000000009999123100000010000000000000BRMRCKBDR003139
012020091102MRFG3       010MARFRIG     ON      NM   R$  000000000166100000000016740000000001611000000000163200000000016120000000001612000000000161426388000000000009279800000000015148803400000000000000009999123100000010000000000000BRMRFGACNOR0109
012020091102MRVE3       010MRV         ON      NM   R$  000000000176700000000017790000000001721000000000174500000000017300000000001730000000000173513097000000000003109600000000005429337300000000000000009999123100000010000000000000BRMRVEACNOR2120
012020091102MSCD34      010MASTERCARD  DRN          R$  000000017601900000001776800000000176019000000017703900000001776800000000151600000000000000000005000000000000000470000000000083208330000000000000009999123100000010000000000000BRMSCDBDR006137
012020091102MSFT34      010MICROSOFT   DRN          R$  000000010907000000001105000000000107400000000011002300000001092840000000104000000000010928400045000000000000019890000000002188367120000000000000009999123100000010000000000000BRMSFTBDR005139
012020091102MTIG4       010METAL IGUACUPN           R$  000000000410000000000041000000000004100000000000410000000000041000000000003551000000000440000001000000000000000100000000000000410000000000000000009999123100000010000000000000BRMTIGACNPR7086
012020091102MTRE3       010MITRE REALTYON      NM   R$  000000000153300000000015640000000001473000000000151700000000015110000000001511000000000151802536000000000000474900000000000720671500000000000000009999123100000010000000000000BRMTREACNOR6100
012020091102MTSA4       010METISA      PN           R$  000000000258000000000026000000000002520000000000254900000000026000000000002530000000000259000013000000000000002300000000000005864800000000000000009999123100000010000000000000BRMTSAACNPR9056
012020091102MULT3       010MULTIPLAN   ON      N2   R$  000000000221600000000022270000000002162000000000218300000000021770000000002176000000000217718528000000000003493100000000007627892300000000000000009999123100000010000000000000BRMULTACNOR5127
012020091102MUTC34      010MICRON TECHNDRN          R$  000000002448500000000244850000000024485000000002448500000000244850000000000000000000000000000001000000000000003700000000000090594500000000000000009999123100000010000000000000BRMUTCBDR008100
012020091102MYPK3       010IOCHP-MAXIONON      NM   R$  000000000125100000000012580000000001203000000000123800000000012390000000001239000000000124110539000000000002236300000000002769675500000000000000009999123100000010000000000000BRMYPKACNOR7148
012020091102N1CL34      010NORWEGIAN CRDRN          R$  000000000941900000000094190000000009419000000000941900000000094190000000000000000000001300000001000000000000000010000000000000094190000000000000009999123100000010000000000000BRN1CLBDR001100
012020091102N1EM34      010NEWMONT GOLDDRN ED       R$  000000003520000000000356360000000035200000000003561100000000352700000000033000000000003650000005000000000000002680000000000095438400000000000000009999123100000010000000000000BRN1EMBDR005103
012020091102N1XP34      010NXP SEMICONDDRN          R$  000000003333200000000333320000000033332000000003333200000000333320000000000000000000000000000001000000000000000120000000000003999840000000000000009999123100000010000000000000BRN1XPBDR008102
012020091102NEOE3       010NEOENERGIA  ON      NM   R$  000000000186600000000018690000000001772000000000179900000000017900000000001788000000000179011422000000000003477900000000006260078700000000000000009999123100000010000000000000BRNEOEACNOR3111
012020091102NEXT34      010NEXTERA ENERDRN          R$  000000003669000000000366900000000036554000000003656900000000365540000000000000000000000000000003000000000000005300000000000193816300000000000000009999123100000010000000000000BRNEXTBDR006105
012020091102NFLX34      010NETFLIX     DRN          R$  000000026000000000002600000000000253547000000025827800000002583480000000250000000000025834800011000000000000001550000000000400332190000000000000009999123100000010000000000000BRNFLXBDR000101
012020091102NIKE34      010NIKE        DRN          R$  000000006318800000000631880000000062571000000006257400000000625710000000000000000000000000000002000000000000005230000000000327264840000000000000009999123100000010000000000000BRNIKEBDR006139
012020091102NOCG34      010NORTHROP GRUDRN          R$  000000003570000000000357000000000035470000000003551700000000354700000000000000000000000000000004000000000000002450000000000087016900000000000000009999123100000010000000000000BRNOCGBDR006105
012020091102NTCO3       010GRUPO NATURAON      NM   R$  000000000496300000000053110000000004963000000000518800000000051620000000005161000000000516249227000000000012125600000000062909531800000000000000009999123100000010000000000000BRNTCOACNOR5101
012020091102NVDC34      010NVIDIA CORP DRN ED       R$  000000006540000000000666400000000063700000000006553400000000649590000000059300000000006700000031000000000000007130000000000467263840000000000000009999123100000010000000000000BRNVDCBDR008106
012020091102ODPV3       010ODONTOPREV  ON      NM   R$  000000000127700000000012810000000001211000000000122800000000012240000000001222000000000122408087000000000002584900000000003176319400000000000000009999123100000010000000000000BRODPVACNOR4178
012020091102OFSA3       010OUROFINO S/AON      NM   R$  000000000293000000000029300000000002873000000000289300000000028900000000002869000000000290000026000000000000003600000000000010415000000000000000009999123100000010000000000000BROFSAACNOR7109
012020091102OMGE3       010OMEGA GER   ON      NM   R$  000000000399600000000040240000000003876000000000396100000000039730000000003966000000000397305120000000000000774400000000003067938300000000000000009999123100000010000000000000BROMGEACNOR0101
012020091102ORCL34      010ORACLE      DRN          R$  000000003240100000000324010000000030419000000003092000000000304190000000000000000000000000000006000000000000014180000000000438450540000000000000009999123100000010000000000000BRORCLBDR007134
012020091102OXYP34      010OCCIDENT PTRDRN          R$  000000000268700000000027000000000002687000000000269400000000026940000000002601000000000318500004000000000000011480000000000030938430000000000000009999123100000010000000000000BROXYPBDR000105
012020091102PARD3       010IHPARDINI   ON      NM   R$  000000000242000000000024200000000002295000000000234000000000023610000000002361000000000236506757000000000001200200000000002808583600000000000000009999123100000010000000000000BRPARDACNOR1114
012020091102PATI4       010PANATLANTICAPN           R$  000000000270700000000027310000000002707000000000272700000000027310000000002730000000000288000005000000000000000800000000000002182000000000000000009999123100000010000000000000BRPATIACNPR3060
012020091102PCAR3       010P.ACUCAR-CBDON      NM   R$  000000000710000000000074550000000006910000000000719200000000074180000000007416000000000741824047000000000005357800000000038533876200000000000000009999123100000010000000000000BRPCARACNOR3163
012020091102PDTC3       010PADTEC      ON           R$  000000000049700000000005000000000000472000000000047700000000004720000000000472000000000048100178000000000000053200000000000025389300000000000000009999123100000010000000000000BRPDTCACNOR3100
012020091102PEAB3       010PAR AL BAHIAON           R$  000000000633600000000063360000000006336000000000633600000000063360000000006006000000000800000001000000000000000100000000000000633600000000000000009999123100000010000000000000BRPEABACNOR3124
012020091102PEPB34      010PEPSICO INC DRN ED       R$  000000007160000000000724730000000071600000000007166700000000723300000000065100000000000000000004000000000000004650000000000333253300000000000000009999123100000010000000000000BRPEPBBDR005132
012020091102PETR3       010PETROBRAS   ON      N2   R$  000000000220600000000022340000000002183000000000220100000000022040000000002203000000000220446382000000000032838100000000072292847500000000000000009999123100000010000000000000BRPETRACNOR9191
012020091102PETR4       010PETROBRAS   PN      N2   R$  000000000221200000000022260000000002175000000000219500000000021880000000002188000000000219073054000000000071013700000000155930436000000000000000009999123100000010000000000000BRPETRACNPR6197
012020091102PETZ3       010PETZ        ON      NM   R$  000000000142800000000016750000000001426000000000150100000000016750000000001670000000000167586069000000000065455600000000098293549800000000000000009999123100000010000000000000BRPETZACNOR2100
012020091102PFIZ34      010PFIZER      DRN          R$  000000001885000000000192950000000018850000000001896900000000192950000000018910000000001929500007000000000000013080000000000248122670000000000000009999123100000010000000000000BRPFIZBDR006140
012020091102PFRM3       010PROFARMA    ON      NM   R$  000000000049100000000004910000000000461000000000047100000000004700000000000470000000000047103293000000000001098800000000000517711000000000000000009999123100000010000000000000BRPFRMACNOR1112
012020091102PGCO34      010PG          DRN          R$  000000007296000000000740030000000072960000000007296100000000740030000000000000000000007400300002000000000000008210000000000599012030000000000000009999123100000010000000000000BRPGCOBDR001139
012020091102PGMN3       010PAGUE MENOS ON      NM   R$  000000000100800000000010100000000000967000000000099100000000009900000000000990000000000099103701000000000001523800000000001510713300000000000000009999123100000010000000000000BRPGMNACNOR8100
012020091102PHGN34      010KOPHILIPS   DRN          R$  000000002498100000000249810000000024981000000002498100000000249810000000000000000000000000000001000000000000002050000000000051211050000000000000009999123100000010000000000000BRPHGNBDR002102
012020091102PHMO34      010PHILIP MORRIDRN          R$  000000002145000000000215990000000021450000000002145000000000215990000000000000000000000000000002000000000000009230000000000197984990000000000000009999123100000010000000000000BRPHMOBDR008113
012020091102PINE4       010PINE        PN      N2   R$  000000000028000000000002800000000000274000000000027400000000002750000000000275000000000027700195000000000000094400000000000025940100000000000000009999123100000010000000000000BRPINEACNPR8144
012020091102PLAS3       010PLASCAR PARTON           R$  000000000044500000000004450000000000445000000000044500000000004450000000000440000000000044800001000000000000000100000000000000044500000000000000009999123100000010000000000000BRPLASACNOR2106
012020091102PMAM3       010PARANAPANEMAON      NM   R$  000000000115700000000011800000000001116000000000113400000000011250000000001125000000000113000280000000000000068400000000000077580500000000000000009999123100000010000000000000BRPMAMACNOR3037
012020091102PNCS34      010PNCFNANCIAL DRN          R$  000000002875400000000287540000000028754000000002875400000000287540000000000000000000000000000001000000000000002820000000000081086280000000000000009999123100000010000000000000BRPNCSBDR008105
012020091102PNVL3       010DIMED       ON           R$  000000000259400000000025940000000002436000000000247600000000024360000000002436000000000244303997000000000000876800000000002171055700000000000000009999123100000010000000000000BRPNVLACNOR9196
012020091102PNVL4       010DIMED       PN           R$  000000000218700000000022000000000002105000000000213200000000021080000000002108000000000218700334000000000000072800000000000155249900000000000000009999123100000010000000000000BRPNVLACNPR6196
012020091102POMO3       010MARCOPOLO   ON      N2   R$  000000000027700000000002770000000000267000000000026900000000002710000000000270000000000027200311000000000000088300000000000023834500000000000000009999123100000010000000000000BRPOMOACNOR0087
012020091102POMO4       010MARCOPOLO   PN      N2   R$  000000000029300000000002940000000000282000000000028700000000002850000000000285000000000028603281000000000007676600000000002204771800000000000000009999123100000010000000000000BRPOMOACNPR7087
012020091102POSI3       010POSITIVO TECON      NM   R$  000000000047500000000004810000000000453000000000046300000000004550000000000455000000000045803449000000000001664300000000000772046800000000000000009999123100000010000000000000BRPOSIACNOR9112
012020091102PPLA11      010PPLA        UNT          R$  000000000153000000000015400000000001492000000000152700000000015400000000001492000000000152800012000000000000001200000000000001833200000000000000009999123100000010000000000000BRPPLAUNT007101
012020091102PRIO3       010PETRORIO    ON      NM   R$  000000000395900000000040230000000003851000000000394400000000039610000000003960000000000396113296000000000003370400000000013295805200000000000000009999123100000010000000000000BRPRIOACNOR1102
012020091102PRNR3       010PRINER      ON      NM   R$  000000000095100000000009540000000000924000000000093500000000009260000000000926000000000093900350000000000000120500000000000112687600000000000000009999123100000010000000000000BRPRNRACNOR4105
012020091102PSSA3       010PORTO SEGUROON      NM   R$  000000000517100000000051730000000005035000000000507800000000050700000000005070000000000508808474000000000001191800000000006052794700000000000000009999123100000010000000000000BRPSSAACNOR7142
012020091102PTBL3       010PORTOBELLO  ON      NM   R$  000000000053500000000005410000000000506000000000051900000000005130000000000512000000000051303512000000000002695000000000001400400300000000000000009999123100000010000000000000BRPTBLACNOR8125
012020091102PTNT3       010PETTENATI   ON           R$  000000000057700000000005800000000000568000000000057500000000005690000000000559000000000057000016000000000000003700000000000002129800000000000000009999123100000010000000000000BRPTNTACNOR6039
012020091102PTNT4       010PETTENATI   PN           R$  000000000048300000000004830000000000456000000000046500000000004640000000000464000000000046700064000000000000015000000000000006986800000000000000009999123100000010000000000000BRPTNTACNPR3044
012020091102PYPL34      010PAYPAL HOLD DRN          R$  000000004944000000000497110000000048200000000004968800000000494540000000048000000000005020000006000000000000006040000000000300121080000000000000009999123100000010000000000000BRPYPLBDR002101
012020091102Q1RV34      010QORVO INC   DRN          R$  000000003252100000000325210000000032521000000003252100000000325210000000000000000000000000000001000000000000000300000000000009756300000000000000009999123100000010000000000000BRQ1RVBDR005100
012020091102QCOM34      010QUALCOMM    DRN ED       R$  000000006017100000000601710000000060171000000006017100000000601710000000000000000000000000000001000000000000004770000000000287015670000000000000009999123100000010000000000000BRQCOMBDR007135
012020091102QUAL3       010QUALICORP   ON      NM   R$  000000000333600000000033500000000003190000000000324100000000032260000000003222000000000322621622000000000005159300000000016725721300000000000000009999123100000010000000000000BRQUALACNOR6113
012020091102R1IN34      010REALTY INCOMDRN          R$  000000001672200000000167220000000016722000000001672200000000167220000000000000000000000000000001000000000000000010000000000000167220000000000000009999123100000010000000000000BRR1INBDR000108
012020091102RADL3       010RAIADROGASILON      NM   R$  000000001127200000000114260000000011158000000001129500000000113480000000011287000000001134806537000000000001267700000000014318931800000000000000009999123100000010000000000000BRRADLACNOR0136
012020091102RAIL3       010RUMO S.A.   ON      NM   R$  000000000215000000000021540000000002075000000000210300000000021020000000002102000000000210336096000000000009246000000000019445727300000000000000009999123100000010000000000000BRRAILACNOR9101
012020091102RANI3       010IRANI       ON           R$  000000000052600000000005300000000000486000000000051700000000005220000000000521000000000052205049000000000003655200000000001889929500000000000000009999123100000010000000000000BRRANIACNOR5053
012020091102RANI4       010IRANI       PN           R$  000000000084200000000008850000000000790000000000084700000000008000000000000799000000000082000122000000000000040100000000000033986800000000000000009999123100000010000000000000BRRANIACNPR2054
012020091102RAPT3       010RANDON PART ON      N1   R$  000000000092500000000009340000000000896000000000091200000000009000000000000900000000000092300036000000000000008300000000000007574800000000000000009999123100000010000000000000BRRAPTACNOR7153
012020091102RAPT4       010RANDON PART PN      N1   R$  000000000114000000000011660000000001123000000000114300000000011450000000001144000000000114509141000000000002486000000000002843402400000000000000009999123100000010000000000000BRRAPTACNPR4153
012020091102RCSL3       010RECRUSUL    ON           R$  000000000020600000000002190000000000195000000000020500000000002010000000000201000000000020400116000000000000068500000000000014042900000000000000009999123100000010000000000000BRRCSLACNOR4130
012020091102RCSL4       010RECRUSUL    PN           R$  000000000014200000000001510000000000137000000000014500000000001410000000000141000000000014226515000000000032416800000000004728682900000000000000009999123100000010000000000000BRRCSLACNPR1130
012020091102RDNI3       010RNI         ON      NM   R$  000000000102300000000010290000000000980000000000099500000000010230000000000990000000000102300044000000000000013400000000000013340200000000000000009999123100000010000000000000BRRDNIACNOR9113
012020091102RDSA34      010RD SHELL    DRN          R$  000000001489800000000148980000000014898000000001489800000000148980000000000000000000000000000001000000000000006220000000000092665560000000000000009999123100000010000000000000BRRDSABDR009104
012020091102REDE3       010REDE ENERGIAON           R$  000000000104800000000010480000000001031000000000104000000000010480000000000000000000000104800005000000000000001900000000000001977700000000000000009999123100000010000000000000BRREDEACNOR7115
012020091102REGN34      010REGENERON PHDRN          R$  000000005780400000000579000000000057804000000005781100000000579000000000000000000000000000000002000000000000001220000000000070530480000000000000009999123100000010000000000000BRREGNBDR005100
012020091102RENT3       010LOCALIZA    ON  EJ  NM   R$  000000000521600000000052500000000005030000000000509900000000050540000000005054000000000506228297000000000005579000000000028450475500000000000000009999123100000010000000000000BRRENTACNOR4179
012020091102RIGG34      010TRANSOCEAN  DRN          R$  000000000054300000000005520000000000520000000000054200000000005230000000000510000000000054500006000000000000004910000000000002663670000000000000009999123100000010000000000000BRRIGGBDR000100
012020091102RIOT34      010RIO TINTO   DRN          R$  000000003370400000000337040000000033660000000003370300000000336600000000000000000000000000000002000000000000003620000000000122007600000000000000009999123100000010000000000000BRRIOTBDR007102
012020091102RLOG3       010COSAN LOG   ON      NM   R$  000000000206300000000020650000000002004000000000201700000000020100000000002010000000000201503005000000000000511600000000001032012500000000000000009999123100000010000000000000BRRLOGACNOR4106
012020091102ROMI3       010INDS ROMI   ON      NM   R$  000000000119100000000012100000000001163000000000119300000000012090000000001198000000000120902217000000000000333700000000000398366000000000000000009999123100000010000000000000BRROMIACNOR8173
012020091102RPAD5       010ALFA HOLDINGPNA          R$  000000000085000000000008880000000000850000000000085700000000008880000000000847000000000088800002000000000000000500000000000000428800000000000000009999123100000010000000000000BRRPADACNPA4211
012020091102RPAD6       010ALFA HOLDINGPNB          R$  000000000056000000000005600000000000523000000000054500000000005540000000000529000000000056000003000000000000000300000000000000163700000000000000009999123100000010000000000000BRRPADACNPB2197
012020091102RSID3       010ROSSI RESID ON      NM   R$  000000000053000000000005350000000000521000000000052500000000005260000000000526000000000053000213000000000000091400000000000048072200000000000000009999123100000010000000000000BRRSIDACNOR8119
012020091102RYTT34      010RAYTHEONTECHDRN          R$  000000003213000000000321300000000032130000000003213000000000321300000000031000000000000000000001000000000000002300000000000073899000000000000000009999123100000010000000000000BRRYTTBDR003102
012020091102S1PO34      010SPOTIFY TECHDRN          R$  000000003240500000000324900000000032405000000003246100000000324900000000000000000000000000000002000000000000000030000000000000973850000000000000009999123100000010000000000000BRS1POBDR002100
012020091102SANB3       010SANTANDER BRON           R$  000000000139000000000013900000000001334000000000135300000000013500000000001349000000000135000983000000000000207100000000000280341600000000000000009999123100000010000000000000BRSANBACNOR8153
012020091102SANB4       010SANTANDER BRPN           R$  000000000154000000000015400000000001480000000000149600000000015150000000001499000000000151501271000000000000245400000000000367278000000000000000009999123100000010000000000000BRSANBACNPR5153
012020091102SANB11      010SANTANDER BRUNT          R$  000000000287400000000028860000000002817000000000284600000000028440000000002843000000000284411896000000000002693000000000007664757900000000000000009999123100000010000000000000BRSANBCDAM13146
012020091102SAPP34      010SAP SE      DRN          R$  000000008452500000000845250000000084525000000008452500000000845250000000000000000000000000000001000000000000003600000000000304290000000000000000009999123100000010000000000000BRSAPPBDR007101
012020091102SAPR3       010SANEPAR     ON      N2   R$  000000000057900000000005800000000000559000000000057000000000005600000000000560000000000057100951000000000000251000000000000143283300000000000000009999123100000010000000000000BRSAPRACNOR9150
