00COTAHIST.2020BOVESPA 20200922                                                                                                                                                                                                                      
012020092202A1BM34      010ABIOMED INC DRN          R$  000000003622300000000362230000000036223000000003622300000000362230000000000000000000000000000001000000000000000020000000000000724460000000000000009999123100000010000000000000BRA1BMBDR006100
012020092202A1LX34      010ALEXION PHARDRN          R$  000000003019100000000301910000000030191000000003019100000000301910000000000000000000000000000001000000000000000300000000000009057300000000000000009999123100000010000000000000BRA1LXBDR002100
012020092202A1WK34      010AMERICAN WATDRN          R$  000000001914100000000191410000000019141000000001914100000000191410000000000000000000000000000001000000000000000070000000000001339870000000000000009999123100000010000000000000BRA1WKBDR006103
012020092202AALL34      010AMERICAN AIRDRN          R$  000000000672900000000067290000000006729000000000672900000000067290000000005333000000000850000001000000000000000010000000000000067290000000000000009999123100000010000000000000BRAALLBDR003115
012020092202AALR3       010ALLIAR      ON      NM   R$  000000000111600000000011320000000001093000000000111300000000011320000000001127000000000113200684000000000000254800000000000283759600000000000000009999123100000010000000000000BRAALRACNOR6102
012020092202AAPL34      010APPLE       DRN          R$  000000000600000000000061300000000005930000000000605100000000061280000000006120000000000612800284000000000000123990000000000750382670000000000000009999123100000010000000000000BRAAPLBDR004135
012020092202ABBV34      010ABBVIE      DRN          R$  000000004847900000000484790000000048479000000004847900000000484790000000000000000000000000000001000000000000000150000000000007271850000000000000009999123100000010000000000000BRABBVBDR001118
012020092202ABCB4       010ABC BRASIL  PN      N2   R$  000000000127800000000012930000000001252000000000126500000000012730000000001272000000000127303769000000000000833700000000001055341600000000000000009999123100000010000000000000BRABCBACNPR4134
012020092202ABEV3       010AMBEV S/A   ON           R$  000000000127200000000012880000000001257000000000127500000000012800000000001279000000000128019990000000000013753000000000017543733100000000000000009999123100000010000000000000BRABEVACNOR1122
012020092202ACNB34      010ACCENTURE   DRN          R$  000000012794200000001279420000000127942000000012794200000001279420000000000000000000000000000001000000000000000010000000000001279420000000000000009999123100000010000000000000BRACNBBDR006112
012020092202ADBE34      010ADOBE INC   DRN          R$  000000005128900000000512890000000051289000000005128900000000512890000000051289000000000000000001000000000000000020000000000001025780000000000000009999123100000010000000000000BRADBEBDR003100
012020092202ADHM3       010ADVANCED-DH ON           R$  000000000020100000000002020000000000200000000000020000000000002000000000000200000000000020100005000000000000001700000000000000341400000000000000009999123100000010000000000000BRADHMACNOR9102
012020092202AFLT3       010AFLUENTE T  ON           R$  000000000098000000000010250000000000980000000000099900000000010250000000001011000000000104000045000000000000013000000000000012993300000000000000009999123100000010000000000000BRAFLTACNOR1115
012020092202AGRO3       010BRASILAGRO  ON      NM   R$  000000000222700000000022330000000002196000000000221300000000022120000000002209000000000221300379000000000000061700000000000136578000000000000000009999123100000010000000000000BRAGROACNOR7109
012020092202AHEB3       010SPTURIS     ON           R$  000000000269600000000026970000000002696000000000269600000000026970000000002450000000000263800002000000000000000400000000000001078700000000000000009999123100000010000000000000BRAHEBACNOR0106
012020092202AHEB6       010SPTURIS     PNB          R$  000000000256300000000025630000000002563000000000256300000000025630000000002000000000000270000002000000000000000200000000000000512600000000000000009999123100000010000000000000BRAHEBACNPB1106
012020092202ALPA3       010ALPARGATAS  ON      N1   R$  000000000319700000000031970000000003197000000000319700000000031970000000003197000000000327800001000000000000000500000000000001598500000000000000009999123100000010000000000000BRALPAACNOR0229
012020092202ALPA4       010ALPARGATAS  PN      N1   R$  000000000358600000000036470000000003508000000000359300000000036240000000003618000000000362410608000000000001620000000000005822182800000000000000009999123100000010000000000000BRALPAACNPR7229
012020092202ALPK3       010ESTAPAR     ON      NM   R$  000000000092500000000009340000000000920000000000092200000000009200000000000920000000000092400052000000000000012800000000000011807800000000000000009999123100000010000000000000BRALPKACNOR9100
012020092202ALSO3       010ALIANSCSONAEON      NM   R$  000000000258200000000026210000000002509000000000256800000000025980000000002598000000000260407561000000000001743800000000004479579800000000000000009999123100000010000000000000BRALSOACNOR5100
012020092202ALUP3       010ALUPAR      ON      N2   R$  000000000095700000000009730000000000957000000000096700000000009720000000000946000000000097300078000000000000008500000000000008222600000000000000009999123100000010000000000000BRALUPACNOR8111
012020092202ALUP4       010ALUPAR      PN      N2   R$  000000000071200000000007180000000000696000000000071000000000006990000000000699000000000071800119000000000000016600000000000011787700000000000000009999123100000010000000000000BRALUPACNPR5111
012020092202ALUP11      010ALUPAR      UNT     N2   R$  000000000238800000000024250000000002356000000000239000000000024060000000002404000000000240602741000000000000567600000000001356788800000000000000009999123100000010000000000000BRALUPCDAM15111
012020092202AMAR3       010LOJAS MARISAON      NM   R$  000000000078100000000007950000000000774000000000078200000000007830000000000783000000000078404776000000000002740300000000002143179000000000000000009999123100000010000000000000BRAMARACNOR4112
012020092202AMBP3       010AMBIPAR     ON      NM   R$  000000000306300000000030690000000002999000000000301700000000030000000000002999000000000301500804000000000000212800000000000642211000000000000000009999123100000010000000000000BRAMBPACNOR6100
012020092202AMGN34      010AMGEN       DRN          R$  000000013311000000001331100000000133110000000013311000000001331100000000000000000000000000000001000000000000000020000000000002662200000000000000009999123100000010000000000000BRAMGNBDR004135
012020092202AMZO34      010AMAZON      DRN          R$  000000081510300000008560000000000815103000000084317500000008532660000000800000000000085900000045000000000000001280000000001079265030000000000000009999123100000010000000000000BRAMZOBDR002101
012020092202ANIM3       010ANIMA       ON      NM   R$  000000000292000000000029980000000002871000000000293800000000029690000000002969000000000298302431000000000000362200000000001064314300000000000000009999123100000010000000000000BRANIMACNOR6106
012020092202APER3       010ALPER S.A.  ON      NM   R$  000000000303300000000030610000000002955000000000300200000000030050000000003004000000000305000104000000000000016400000000000049245300000000000000009999123100000010000000000000BRAPERACNOR9102
012020092202ARZZ3       010AREZZO CO   ON      NM   R$  000000000538900000000055300000000005339000000000545300000000055150000000005500000000000551503035000000000000389800000000002125731400000000000000009999123100000010000000000000BRARZZACNOR3137
012020092202ATOM3       010ATOMPAR     ON           R$  000000000028000000000003010000000000280000000000029400000000002870000000000287000000000029200205000000000000135900000000000039969400000000000000009999123100000010000000000000BRATOMACNOR1103
012020092202ATTB34      010ATT INC     DRN          R$  000000001579900000000157990000000015612000000001564000000000156120000000015000000000001561200003000000000000000210000000000003284500000000000000009999123100000010000000000000BRATTBBDR007132
012020092202ATVI34      010ACTIVISION  DRN          R$  000000004530100000000453010000000045301000000004530100000000453010000000041100000000000000000001000000000000000010000000000000453010000000000000009999123100000010000000000000BRATVIBDR008101
012020092202AURA32      010AURA 360    DR2          R$  000000000655000000000065640000000006452000000000650700000000065100000000006452000000000651000080000000000000076800000000000499748100000000000000009999123100000010000000000000BRAURABDR001102
012020092202AVGO34      010BROADCOM INCDRN ED       R$  000000003923500000000393450000000039235000000003933700000000393450000000000000000000000000000002000000000000000430000000000016915050000000000000009999123100000010000000000000BRAVGOBDR003106
012020092202AZEV3       010AZEVEDO     ON           R$  000000000109800000000010980000000000995000000000103400000000010000000000001000000000000103300019000000000000002500000000000002586000000000000000009999123100000010000000000000BRAZEVACNOR0117
012020092202AZEV4       010AZEVEDO     PN           R$  000000000031500000000003300000000000315000000000032300000000003250000000000325000000000032700019000000000000004400000000000001423000000000000000009999123100000010000000000000BRAZEVACNPR7117
012020092202AZUL4       010AZUL        PN      N2   R$  000000000261800000000026920000000002581000000000262700000000026270000000002627000000000262831322000000000013938900000000036618749400000000000000009999123100000010000000000000BRAZULACNPR4100
012020092202B3SA3       010B3          ON      NM   R$  000000000561100000000057790000000005573000000000567100000000057360000000005736000000000573731189000000000009398800000000053302421300000000000000009999123100000010000000000000BRB3SAACNOR6111
012020092202BABA34      010ALIBABAGR   DRN          R$  000000014756500000001501360000000147565000000014982000000001501360000000149010000000015380000004000000000000000120000000000017978440000000000000009999123100000010000000000000BRBABABDR005100
012020092202BAHI3       010BAHEMA      ON      MA   R$  000000001110000000000113500000000011100000000001124000000000113500000000010815000000001137900004000000000000000600000000000006744500000000000000009999123100000010000000000000BRBAHIACNOR1071
012020092202BALM4       010BAUMER      PN           R$  000000000144900000000014490000000001449000000000144900000000014490000000001301000000000145000002000000000000001000000000000001449000000000000000009999123100000010000000000000BRBALMACNPR2051
012020092202BAUH4       010EXCELSIOR   PN           R$  000000000869700000000086970000000008697000000000869700000000086970000000008000000000000869800002000000000000000200000000000001739400000000000000009999123100000010000000000000BRBAUHACNPR3115
012020092202BAZA3       010AMAZONIA    ON           R$  000000000390000000000039980000000003875000000000390400000000038750000000003720000000000389900010000000000000001600000000000006247600000000000000009999123100000010000000000000BRBAZAACNOR0174
012020092202BBAS3       010BRASIL      ON  EJ  NM   R$  000000000308500000000031680000000003068000000000309900000000030820000000003081000000000308226951000000000010734300000000033275887300000000000000009999123100000010000000000000BRBBASACNOR3293
012020092202BBDC3       010BRADESCO    ON      N1   R$  000000000183500000000018760000000001833000000000185300000000018630000000001859000000000186310939000000000004382400000000008123785400000000000000009999123100000010000000000000BRBBDCACNOR1715
012020092202BBDC4       010BRADESCO    PN      N1   R$  000000000198200000000020140000000001968000000000198700000000019900000000001989000000000199033325000000000025154400000000049990145200000000000000009999123100000010000000000000BRBBDCACNPR8715
012020092202BBRK3       010BR BROKERS  ON      NM   R$  000000000015700000000001620000000000156000000000015800000000001590000000000158000000000015900162000000000000137700000000000021839900000000000000009999123100000010000000000000BRBBRKACNOR4113
012020092202BBSE3       010BBSEGURIDADEON      NM   R$  000000000252100000000025540000000002511000000000252900000000025270000000002527000000000253013487000000000003572300000000009035124900000000000000009999123100000010000000000000BRBBSEACNOR5117
012020092202BBYY34      010BEST BUY    DRN ED       R$  000000005795000000000589780000000057950000000005846400000000589780000000000000000000000000000002000000000000000220000000000012862080000000000000009999123100000010000000000000BRBBYYBDR005114
012020092202BCSA34      010SANTANDER   DRN          R$  000000000102900000000010290000000001000000000000102100000000010180000000001018000000000103000054000000000000039400000000000040262150000000000000009999123100000010000000000000BRBCSABDR005101
012020092202BEEF3       010MINERVA     ON      NM   R$  000000000128900000000012940000000001258000000000127200000000012660000000001265000000000126610360000000000003828900000000004871500200000000000000009999123100000010000000000000BRBEEFACNOR6108
012020092202BEES3       010BANESTES    ON           R$  000000000050600000000005130000000000504000000000050900000000005080000000000507000000000050800061000000000000014000000000000007132900000000000000009999123100000010000000000000BRBEESACNOR9339
012020092202BEES4       010BANESTES    PN           R$  000000000052200000000005250000000000520000000000052200000000005240000000000530000000000055000012000000000000005500000000000002871100000000000000009999123100000010000000000000BRBEESACNPR6264
012020092202BERK34      010BERKSHIRE   DRN          R$  000000011486900000001170760000000114869000000011642800000001166200000000115000000000011662000013000000000000000330000000000038421530000000000000009999123100000010000000000000BRBERKBDR002100
012020092202BGIP4       010BANESE      PN           R$  000000000259000000000025990000000002590000000000259400000000025990000000002515000000000259900002000000000000000200000000000000518900000000000000009999123100000010000000000000BRBGIPACNPR8199
012020092202BIDI3       010BANCO INTER ON      N2   R$  000000000161300000000016500000000001545000000000159500000000016280000000001615000000000162802953000000000000639000000000001019401100000000000000009999123100000010000000000000BRBIDIACNOR3107
012020092202BIDI4       010BANCO INTER PN      N2   R$  000000000177700000000018060000000001707000000000174200000000017650000000001758000000000176507684000000000002296600000000004002161600000000000000009999123100000010000000000000BRBIDIACNPR0111
012020092202BIDI11      010BANCO INTER UNT     N2   R$  000000000514100000000052500000000004951000000000506000000000051670000000005162000000000516709183000000000001580100000000007995873100000000000000009999123100000010000000000000BRBIDICDAXX3106
012020092202BIIB34      010BIOGEN      DRN          R$  000000002457000000000245700000000024570000000002457000000000245700000000000000000000000000000001000000000000001300000000000031941000000000000000009999123100000010000000000000BRBIIBBDR001101
012020092202BILB34      010BILBAOVIZ   DRN          R$  000000000138000000000013800000000001380000000000138000000000013800000000000000000000000000000001000000000000000200000000000000276000000000000000009999123100000010000000000000BRBILBBDR005101
012020092202BIOM3       010BIOMM       ON      MA   R$  000000000162300000000016730000000001623000000000164800000000016550000000001640000000000165500051000000000000010600000000000017469900000000000000009999123100000010000000000000BRBIOMACNOR2107
012020092202BKBR3       010BK BRASIL   ON      NM   R$  000000000111000000000011440000000001098000000000112600000000011350000000001135000000000113704097000000000000805400000000000907402400000000000000009999123100000010000000000000BRBKBRACNOR4103
012020092202BKNG34      010BOOKING     DRN          R$  000000003550000000000359080000000035500000000003564600000000356500000000035500000000003670000007000000000000000490000000000017466880000000000000009999123100000010000000000000BRBKNGBDR006100
012020092202BLAK34      010BLACKROCK   DRN          R$  000000004992100000000500850000000049921000000005005700000000500850000000000000000000000000000003000000000000000060000000000003003460000000000000009999123100000010000000000000BRBLAKBDR003118
012020092202BMEB3       010MERC BRASIL ON           R$  000000000193000000000021000000000001930000000000197700000000021000000000001930000000000219900005000000000000000700000000000001384000000000000000009999123100000010000000000000BRBMEBACNOR8196
012020092202BMEB4       010MERC BRASIL PN           R$  000000000164900000000017480000000001649000000000169600000000017150000000001695000000000173800076000000000000051000000000000086528900000000000000009999123100000010000000000000BRBMEBACNPR5201
012020092202BMGB4       010BANCO BMG   PN      N1   R$  000000000049200000000004980000000000482000000000048800000000004850000000000485000000000048703193000000000001034500000000000504898300000000000000009999123100000010000000000000BRBMGBACNPR0101
012020092202BMKS3       010BIC MONARK  ON           R$  000000002210000000000230980000000022100000000002259900000000230980000000022100000000002309900002000000000000000002000000000000045198000000000000009999123100000010000000000000BRBMKSACNOR9162
012020092202BMYB34      010BRISTOLMYERSDRN          R$  000000003201100000000320110000000032011000000003201100000000320110000000028400000000000000000001000000000000000140000000000004481540000000000000009999123100000010000000000000BRBMYBBDR000127
012020092202BOAC34      010BANK AMERICADRN          R$  000000001307600000000130880000000013076000000001307600000000130880000000012440000000001308800002000000000000003120000000000040798560000000000000009999123100000010000000000000BRBOACBDR004140
012020092202BOBR4       010BOMBRIL     PN           R$  000000000020100000000002060000000000196000000000019900000000001990000000000197000000000020000084000000000000041200000000000008200500000000000000009999123100000010000000000000BRBOBRACNPR3128
012020092202BOEI34      010BOEING      DRN          R$  000000008549900000000854990000000085499000000008549900000000854990000000000000000000010850000001000000000000000010000000000000854990000000000000009999123100000010000000000000BRBOEIBDR003132
012020092202BPAC3       010BTGP BANCO  ON      N2   R$  000000000409900000000041490000000003862000000000393800000000040480000000003901000000000409900051000000000000005600000000000022053100000000000000009999123100000010000000000000BRBPACACNOR7122
012020092202BPAC5       010BTGP BANCO  PNA     N2   R$  000000000169500000000016960000000001620000000000165800000000016300000000001628000000000167900060000000000000013400000000000022223300000000000000009999123100000010000000000000BRBPACACNPA0122
012020092202BPAC11      010BTGP BANCO  UNT     N2   R$  000000000730000000000074900000000007079000000000726900000000073200000000007320000000000732819203000000000005130400000000037295756800000000000000009999123100000010000000000000BRBPACUNT006107
012020092202BPAN4       010BANCO PAN   PN      N1   R$  000000000082800000000008360000000000807000000000081900000000008300000000000828000000000083004097000000000002045600000000001676984800000000000000009999123100000010000000000000BRBPANACNPR1109
012020092202BRAP3       010BRADESPAR   ON      N1   R$  000000000387100000000039110000000003842000000000388500000000038760000000003839000000000400000106000000000000023800000000000092477100000000000000009999123100000010000000000000BRBRAPACNOR5136
012020092202BRAP4       010BRADESPAR   PN      N1   R$  000000000444400000000044940000000004394000000000444700000000044640000000004464000000000446608621000000000001615200000000007183347600000000000000009999123100000010000000000000BRBRAPACNPR2136
012020092202BRDT3       010PETROBRAS BRON      NM   R$  000000000212500000000021770000000002117000000000214800000000021350000000002135000000000213626308000000000007337200000000015765316300000000000000009999123100000010000000000000BRBRDTACNOR1120
012020092202BRFS3       010BRF SA      ON      NM   R$  000000000204600000000020800000000002033000000000205500000000020380000000002037000000000203813709000000000004019300000000008262378300000000000000009999123100000010000000000000BRBRFSACNOR8119
012020092202BRGE8       010ALFA CONSORCPND          R$  000000000091600000000009160000000000899000000000090700000000008990000000000750000000000090000002000000000000000200000000000000181500000000000000009999123100000010000000000000BRBRGEACNPD3214
012020092202BRGE12      010ALFA CONSORCPNF          R$  000000000059900000000006250000000000599000000000060000000000006250000000000589000000000062500003000000000000002100000000000001260800000000000000009999123100000010000000000000BRBRGEACNPF8096
012020092202BRIV4       010ALFA INVEST PN           R$  000000000082600000000008260000000000826000000000082600000000008260000000000826000000000084500004000000000000000500000000000000413000000000000000009999123100000010000000000000BRBRIVACNPR3211
012020092202BRKM3       010BRASKEM     ON      N1   R$  000000000215600000000022150000000002136000000000218000000000021660000000002166000000000221500064000000000000014900000000000032486000000000000000009999123100000010000000000000BRBRKMACNOR1117
012020092202BRKM5       010BRASKEM     PNA     N1   R$  000000000220600000000022890000000002192000000000225100000000022640000000002264000000000227011137000000000003031100000000006825990600000000000000009999123100000010000000000000BRBRKMACNPA4117
012020092202BRML3       010BR MALLS PARON      NM   R$  000000000091400000000009210000000000894000000000090700000000009100000000000909000000000091022544000000000015874500000000014402345600000000000000009999123100000010000000000000BRBRMLACNOR9115
012020092202BRPR3       010BR PROPERT  ON      NM   R$  000000000092100000000009390000000000905000000000092000000000009390000000000933000000000093911119000000000002851000000000002623477800000000000000009999123100000010000000000000BRBRPRACNOR9119
012020092202BRSR3       010BANRISUL    ON      N1   R$  000000000140200000000014110000000001400000000000140500000000014040000000001404000000000140800023000000000000004500000000000006324800000000000000009999123100000010000000000000BRBRSRACNOR3168
012020092202BRSR6       010BANRISUL    PNB     N1   R$  000000000122400000000012460000000001211000000000122300000000012290000000001224000000000122907033000000000001660600000000002032175400000000000000009999123100000010000000000000BRBRSRACNPB4171
012020092202BSEV3       010BIOSEV      ON      NM   R$  000000000046200000000004690000000000450000000000045500000000004500000000000450000000000045800197000000000000097900000000000044588700000000000000009999123100000010000000000000BRBSEVACNOR3102
012020092202BTOW3       010B2W DIGITAL ON      NM   R$  000000000978000000000098300000000009353000000000949100000000094250000000009425000000000942716127000000000003192600000000030303548400000000000000009999123100000010000000000000BRBTOWACNOR8111
012020092202BTTL3       010BATTISTELLA ON           R$  000000000131000000000013100000000001210000000000125800000000012100000000001165000000000125000008000000000000001500000000000001888400000000000000009999123100000010000000000000BRBTTLACNOR0108
012020092202C1CL34      010CARNIVAL CORDRN          R$  000000000778100000000077810000000007780000000000778000000000077800000000000000000000001300000002000000000000000310000000000002412100000000000000009999123100000010000000000000BRC1CLBDR004101
012020092202C1HR34      010CH ROBINSON DRN          R$  000000002822900000000282290000000028229000000002822900000000282290000000000000000000000000000001000000000000000030000000000000846870000000000000009999123100000010000000000000BRC1HRBDR000103
012020092202CAMB3       010CAMBUCI     ON           R$  000000000041000000000004150000000000398000000000040700000000004140000000000405000000000041400128000000000000041600000000000016960300000000000000009999123100000010000000000000BRCAMBACNOR4119
012020092202CAML3       010CAMIL       ON      NM   R$  000000000134500000000013720000000001343000000000136000000000013600000000001359000000000136009652000000000002107000000000002866026100000000000000009999123100000010000000000000BRCAMLACNOR3111
012020092202CARD3       010CSU CARDSYSTON      NM   R$  000000000148700000000014870000000001406000000000142200000000014150000000001412000000000141501295000000000000391300000000000556712400000000000000009999123100000010000000000000BRCARDACNOR9118
012020092202CCPR3       010CYRE COM-CCPON      NM   R$  000000000140400000000014210000000001378000000000139200000000013800000000001379000000000138000732000000000000107000000000000148963200000000000000009999123100000010000000000000BRCCPRACNOR9114
012020092202CCRO3       010CCR SA      ON      NM   R$  000000000133400000000013840000000001331000000000136100000000013610000000001361000000000136415952000000000005729100000000007799304100000000000000009999123100000010000000000000BRCCROACNOR2137
012020092202CEAB3       010CEA MODAS   ON      NM   R$  000000000123500000000012620000000001224000000000124400000000012570000000001254000000000125704459000000000001753600000000002183149500000000000000009999123100000010000000000000BRCEABACNOR1101
012020092202CEBR3       010CEB         ON           R$  000000000660000000000066000000000006600000000000660000000000066000000000006101000000000700000001000000000000000400000000000002640000000000000000009999123100000010000000000000BRCEBRACNOR5118
012020092202CEBR5       010CEB         PNA          R$  000000000948800000000094900000000008600000000000916700000000090000000000008600000000000939000046000000000000004600000000000042171000000000000000009999123100000010000000000000BRCEBRACNPA8117
012020092202CEBR6       010CEB         PNB          R$  000000000780000000000078000000000007660000000000775100000000076600000000006610000000000764900005000000000000000500000000000003875800000000000000009999123100000010000000000000BRCEBRACNPB6117
012020092202CEDO3       010CEDRO       ON      N1   R$  000000000087100000000008870000000000867000000000087100000000008670000000000865000000000089000007000000000000001200000000000001045700000000000000009999123100000010000000000000BRCEDOACNOR8096
012020092202CEDO4       010CEDRO       PN      N1   R$  000000000053000000000005480000000000520000000000052800000000005400000000000526000000000053900014000000000000003500000000000001848300000000000000009999123100000010000000000000BRCEDOACNPR5128
012020092202CEEB5       010COELBA      PNA          R$  000000000422800000000042280000000003900000000000406400000000039000000000003800000000000422500002000000000000000200000000000000812800000000000000009999123100000010000000000000BRCEEBACNPA6173
012020092202CEGR3       010CEG         ON           R$  000000000600700000000062000000000006000000000000602600000000062000000000006000000000000700000007000000000000000800000000000004821400000000000000009999123100000010000000000000BRCEGRACNOR4137
012020092202CEPE5       010CELPE       PNA          R$  000000000285000000000029000000000002673000000000287200000000028970000000002550000000000289400006000000000000001000000000000002872000000000000000009999123100000010000000000000BRCEPEACNPA6163
012020092202CESP3       010CESP        ON      N1   R$  000000000330200000000033330000000003234000000000327700000000032340000000003233000000000333300018000000000000002300000000000007539300000000000000009999123100000010000000000000BRCESPACNOR3169
012020092202CESP6       010CESP        PNB     N1   R$  000000000285400000000028970000000002830000000000285500000000028680000000002868000000000287507842000000000003434800000000009807064700000000000000009999123100000010000000000000BRCESPACNPB4128
012020092202CGAS5       010COMGAS      PNA          R$  000000001797200000000179800000000017847000000001790300000000178470000000017720000000001800000012000000000000001300000000000023274700000000000000009999123100000010000000000000BRCGASACNPA3148
012020092202CGRA3       010GRAZZIOTIN  ON           R$  000000000261900000000026870000000002619000000000266900000000026750000000002604000000000267500015000000000000004800000000000012813100000000000000009999123100000010000000000000BRCGRAACNOR2071
012020092202CGRA4       010GRAZZIOTIN  PN           R$  000000000251600000000026000000000002486000000000251800000000025510000000002551000000000260000188000000000000039100000000000098472800000000000000009999123100000010000000000000BRCGRAACNPR9071
012020092202CHVX34      010CHEVRON     DRN          R$  000000002073300000000207330000000020733000000002073300000000207330000000000000000000002073300001000000000000000090000000000001865970000000000000009999123100000010000000000000BRCHVXBDR008138
012020092202CIEL3       010CIELO       ON      NM   R$  000000000041800000000004270000000000414000000000042000000000004250000000000424000000000042529239000000000040666500000000017090230200000000000000009999123100000010000000000000BRCIELACNOR3142
012020092202CLSC4       010CELESC      PN      N2   R$  000000000534100000000054050000000005340000000000535800000000053410000000005341000000000544500007000000000000000700000000000003751200000000000000009999123100000010000000000000BRCLSCACNPR3115
012020092202CLXC34      010CLOROX CO   DRN          R$  000000002882900000000288290000000028829000000002882900000000288290000000000000000000000000000001000000000000000050000000000001441450000000000000009999123100000010000000000000BRCLXCBDR000104
012020092202CMCS34      010COMCAST     DRN          R$  000000002525500000000253470000000025255000000002530900000000253470000000022000000000002534700003000000000000006250000000000158182610000000000000009999123100000010000000000000BRCMCSBDR008135
012020092202CMIG3       010CEMIG       ON      N1   R$  000000000108300000000011120000000001080000000000109700000000010990000000001099000000000110304467000000000001225800000000001345365600000000000000009999123100000010000000000000BRCMIGACNOR6224
012020092202CMIG4       010CEMIG       PN      N1   R$  000000000104000000000010690000000001038000000000105700000000010630000000001063000000000106421394000000000009328000000000009862692100000000000000009999123100000010000000000000BRCMIGACNPR3225
012020092202CNTO3       010CENTAURO    ON      NM   R$  000000000269100000000027210000000002620000000000265500000000026370000000002633000000000263708649000000000001853300000000004922148600000000000000009999123100000010000000000000BRCNTOACNOR5100
012020092202COCA34      010COCA COLA   DRN ED       R$  000000002703100000000271000000000027031000000002707900000000271000000000025302000000000000000003000000000000000070000000000001895540000000000000009999123100000010000000000000BRCOCABDR002136
012020092202COCE5       010COELCE      PNA          R$  000000000564000000000057890000000005620000000000573300000000057890000000005705000000000578900096000000000000016500000000000094607800000000000000009999123100000010000000000000BRCOCEACNPA3140
012020092202COGN3       010COGNA ON    ON      NM   R$  000000000055500000000005680000000000545000000000055800000000005670000000000566000000000056729534000000000045682400000000025525330400000000000000009999123100000010000000000000BRCOGNACNOR2101
012020092202COLG34      010COLGATE     DRN          R$  000000004187500000000418750000000041875000000004187500000000418750000000000000000000000000000001000000000000000030000000000001256250000000000000009999123100000010000000000000BRCOLGBDR000137
012020092202COPH34      010COPHILLIPS  DRN          R$  000000000462300000000046970000000004623000000000466000000000046970000000004697000000000000000002000000000000000020000000000000093200000000000000009999123100000010000000000000BRCOPHBDR009135
012020092202COTY34      010COTY INC    DRN          R$  000000000084200000000008420000000000842000000000084200000000008420000000000801000000000102800001000000000000000010000000000000008420000000000000009999123100000010000000000000BRCOTYBDR006116
012020092202COWC34      010COSTCO      DRN          R$  000000004602000000000469200000000045990000000004629400000000469200000000044000000000000000000012000000000000001660000000000076849400000000000000009999123100000010000000000000BRCOWCBDR006119
012020092202CPFE3       010CPFL ENERGIAON      NM   R$  000000000285300000000029020000000002848000000000288500000000029000000000002898000000000290211766000000000003464700000000009996032300000000000000009999123100000010000000000000BRCPFEACNOR0130
012020092202CPLE3       010COPEL       ON      N1   R$  000000000620000000000062830000000006144000000000619100000000062050000000006205000000000622701209000000000000239700000000001484163900000000000000009999123100000010000000000000BRCPLEACNOR8139
012020092202CPLE6       010COPEL       PNB     N1   R$  000000000646900000000065650000000006374000000000644600000000064640000000006455000000000646706484000000000001094900000000007058212700000000000000009999123100000010000000000000BRCPLEACNPB9136
012020092202CRDE3       010CR2         ON           R$  000000000222900000000022290000000002229000000000222900000000022290000000002100000000000222900001000000000000001400000000000003120600000000000000009999123100000010000000000000BRCRDEACNOR1112
012020092202CRFB3       010CARREFOUR BRON      NM   R$  000000000209400000000021790000000002094000000000214600000000021330000000002133000000000213724073000000000010328300000000022170809300000000000000009999123100000010000000000000BRCRFBACNOR2107
012020092202CRIV3       010ALFA FINANC ON           R$  000000000062000000000006800000000000600000000000064000000000006690000000000640000000000066900027000000000000006800000000000004357200000000000000009999123100000010000000000000BRCRIVACNOR4194
012020092202CRIV4       010ALFA FINANC PN           R$  000000000061000000000006500000000000610000000000064600000000006500000000000618000000000065000007000000000000001100000000000000711000000000000000009999123100000010000000000000BRCRIVACNPR1204
012020092202CRPG3       010CRISTAL     ON           R$  000000000250000000000025000000000002362000000000243100000000023620000000002200000000000283300002000000000000000200000000000000486200000000000000009999123100000010000000000000BRCRPGACNOR0108
012020092202CRPG5       010CRISTAL     PNA          R$  000000000203800000000020380000000001990000000000200700000000020140000000001992000000000202000014000000000000001700000000000003413100000000000000009999123100000010000000000000BRCRPGACNPA3108
012020092202CSAN3       010COSAN       ON      NM   R$  000000000737700000000073890000000007170000000000722100000000071970000000007196000000000720008374000000000001358400000000009809351300000000000000009999123100000010000000000000BRCSANACNOR6120
012020092202CSCO34      010CISCO       DRN          R$  000000002147300000000214730000000021458000000002146200000000214580000000020100000000000000000002000000000000000140000000000003004720000000000000009999123100000010000000000000BRCSCOBDR004138
012020092202CSMG3       010COPASA      ON      NM   R$  000000000489000000000049830000000004888000000000494500000000049720000000004972000000000497503448000000000000599800000000002966208000000000000000009999123100000010000000000000BRCSMGACNOR5156
012020092202CSNA3       010SID NACIONALON           R$  000000000164500000000016990000000001632000000000167400000000016780000000001677000000000167827209000000000016021300000000026822061600000000000000009999123100000010000000000000BRCSNAACNOR6252
012020092202CSRN3       010COSERN      ON           R$  000000000170900000000017880000000001709000000000174800000000017880000000001750000000000178900002000000000000000200000000000000349700000000000000009999123100000010000000000000BRCSRNACNOR0172
012020092202CSRN5       010COSERN      PNA          R$  000000000179600000000020000000000001700000000000186300000000017990000000001716000000000198400011000000000000001100000000000002049300000000000000009999123100000010000000000000BRCSRNACNPA3172
012020092202CTGP34      010CITIGROUP   DRN          R$  000000002366900000000236990000000023669000000002367500000000236780000000020466000000002367800003000000000000001040000000000024622120000000000000009999123100000010000000000000BRCTGPBDR000139
012020092202CTNM4       010COTEMINAS   PN           R$  000000000055500000000005680000000000549000000000055200000000005680000000000550000000000056800023000000000000004900000000000002707600000000000000009999123100000010000000000000BRCTNMACNPR6129
012020092202CTSA3       010SANTANENSE  ON           R$  000000000024900000000002500000000000246000000000024900000000002490000000000246000000000024900005000000000000001000000000000000249400000000000000009999123100000010000000000000BRCTSAACNOR3060
012020092202CTSA4       010SANTANENSE  PN           R$  000000000021200000000002190000000000212000000000021400000000002150000000000214000000000021900011000000000000001400000000000000300700000000000000009999123100000010000000000000BRCTSAACNPR0060
012020092202CURY3       010CURY S/A    ON      NM   R$  000000000094100000000009670000000000929000000000095200000000009670000000000955000000000096705660000000000002531900000000002412185000000000000000009999123100000010000000000000BRCURYACNOR3100
012020092202CVCB3       010CVC BRASIL  ON      NM   R$  000000000165200000000016840000000001603000000000163700000000016200000000001620000000000162510587000000000003993500000000006539543300000000000000009999123100000010000000000000BRCVCBACNOR1113
012020092202CVSH34      010CVS HEALTH  DRN          R$  000000001591100000000159880000000015900000000001590800000000159880000000015100000000001690000003000000000000001020000000000016226360000000000000009999123100000010000000000000BRCVSHBDR008117
012020092202CYRE3       010CYRELA REALTON      NM   R$  000000000229100000000023630000000002247000000000231300000000023530000000002348000000000235430237000000000008106500000000018756245900000000000000009999123100000010000000000000BRCYREACNOR7134
012020092202D1EL34      010DELL TECHNOLDRN          R$  000000003584000000000358400000000035840000000003584000000000358400000000000000000000000000000002000000000000000070000000000002508800000000000000009999123100000010000000000000BRD1ELBDR009100
012020092202D1HI34      010DR HORTON INDRN          R$  000000004129800000000412980000000041298000000004129800000000412980000000000000000000000000000001000000000000000010000000000000412980000000000000009999123100000010000000000000BRD1HIBDR008103
012020092202D1OM34      010DOMINION ENEDRN          R$  000000002106000000000210900000000021060000000002107500000000210900000000000000000000000000000002000000000000000140000000000002950500000000000000009999123100000010000000000000BRD1OMBDR006103
012020092202DASA3       010DASA        ON           R$  000000000655000000000065500000000006000000000000628300000000060000000000005200000000000686000003000000000000000300000000000001885000000000000000009999123100000010000000000000BRDASAACNOR1119
012020092202DIRR3       010DIRECIONAL  ON      NM   R$  000000000137500000000014000000000001358000000000137600000000013910000000001390000000000139103049000000000000545200000000000750498600000000000000009999123100000010000000000000BRDIRRACNOR0112
012020092202DISB34      010WALT DISNEY DRN          R$  000000006815900000000692720000000068159000000006865800000000692720000000063000000000007100000005000000000000000080000000000005492710000000000000009999123100000010000000000000BRDISBBDR006114
012020092202DMMO3       010DOMMO       ON           R$  000000000011300000000001150000000000109000000000011100000000001100000000000110000000000011101330000000000002549400000000000284176300000000000000009999123100000010000000000000BRDMMOACNOR0102
012020092202DMVF3       010D1000VFARMA ON      NM   R$  000000000120300000000013230000000001203000000000128100000000013100000000001310000000000131406278000000000003185100000000004080483600000000000000009999123100000010000000000000BRDMVFACNOR9100
012020092202DOHL4       010DOHLER      PN           R$  000000000049400000000004950000000000478000000000049300000000004950000000000482000000000049400005000000000000001100000000000000542600000000000000009999123100000010000000000000BRDOHLACNPR9061
012020092202DTCY3       010DTCOM-DIRECTON           R$  000000000067000000000006700000000000653000000000066800000000006530000000000646000000000065900003000000000000001200000000000000802300000000000000009999123100000010000000000000BRDTCYACNOR5109
012020092202DTEX3       010DURATEX     ON      NM   R$  000000000168500000000017180000000001669000000000169600000000017100000000001709000000000171005698000000000001230000000000002087016900000000000000009999123100000010000000000000BRDTEXACNOR3128
012020092202DUKB34      010DUKE ENERGY DRN          R$  000000004529600000000452960000000045296000000004529600000000452960000000041000000000000000000001000000000000000070000000000003170720000000000000009999123100000010000000000000BRDUKBBDR008116
012020092202E1SS34      010ESSEX PROPERDRN          R$  000000001125900000000112590000000011259000000001125900000000112590000000000000000000000000000001000000000000000040000000000000450360000000000000009999123100000010000000000000BRE1SSBDR003102
012020092202EAIN34      010ELECTR ARTS DRN          R$  000000003510100000000353420000000035101000000003531700000000353420000000032000000000003650000002000000000000000100000000000003531790000000000000009999123100000010000000000000BREAINBDR007100
012020092202EALT3       010ACO ALTONA  ON           R$  000000000119300000000011930000000001191000000000119200000000011910000000001191000000000123900003000000000000000600000000000000715200000000000000009999123100000010000000000000BREALTACNOR4133
012020092202EALT4       010ACO ALTONA  PN           R$  000000000051600000000005250000000000513000000000052000000000005230000000000516000000000052300066000000000000027000000000000014049300000000000000009999123100000010000000000000BREALTACNPR1133
012020092202ECOR3       010ECORODOVIAS ON      NM   R$  000000000124200000000012700000000001236000000000125200000000012680000000001265000000000126812347000000000003682400000000004612374100000000000000009999123100000010000000000000BRECORACNOR8116
012020092202ECPR4       010ENCORPAR    PN           R$  000000000749600000000074960000000007496000000000749600000000074960000000000000000000000749000001000000000000000100000000000000749600000000000000009999123100000010000000000000BRECPRACNPR2111
012020092202EEEL4       010CEEE-GT     PN      N1   R$  000000003999900000000399990000000039500000000003974900000000395000000000010000000000004155800002000000000000000200000000000007949900000000000000009999123100000010000000000000BREEELACNPR5107
012020092202EGIE3       010ENGIE BRASILON      NM   R$  000000000421200000000042670000000004206000000000422700000000042230000000004223000000000423106129000000000000980900000000004146569900000000000000009999123100000010000000000000BREGIEACNOR9113
012020092202EKTR3       010ELEKTRO     ON           R$  000000000241000000000024100000000002200000000000231900000000022580000000002201000000000241000023000000000000002300000000000005334000000000000000009999123100000010000000000000BREKTRACNOR0144
012020092202ELET3       010ELETROBRAS  ON      N1   R$  000000000328400000000033100000000003205000000000324800000000032450000000003244000000000324513329000000000003039100000000009873378800000000000000009999123100000010000000000000BRELETACNOR6155
012020092202ELET5       010ELETROBRAS  PNA     N1   R$  000000000460500000000046050000000004200000000000438400000000042000000000004200000000000457000014000000000000001400000000000006137700000000000000009999123100000010000000000000BRELETACNPA9072
012020092202ELET6       010ELETROBRAS  PNB     N1   R$  000000000339200000000034210000000003324000000000336200000000033810000000003380000000000338106596000000000001445600000000004860801600000000000000009999123100000010000000000000BRELETACNPB7072
012020092202EMAE4       010EMAE        PN           R$  000000000338900000000033900000000003305000000000336900000000033500000000003350000000000347500006000000000000000800000000000002695200000000000000009999123100000010000000000000BREMAEACNPR1114
012020092202EMBR3       010EMBRAER     ON      NM   R$  000000000063700000000006410000000000616000000000062300000000006180000000000618000000000061918903000000000019356900000000012069631400000000000000009999123100000010000000000000BREMBRACNOR4189
012020092202ENAT3       010ENAUTA PART ON      NM   R$  000000000104600000000010540000000001020000000000103400000000010260000000001026000000000102804398000000000001055400000000001091902600000000000000009999123100000010000000000000BRENATACNOR0101
012020092202ENBR3       010ENERGIAS BR ON      NM   R$  000000000182500000000018400000000001806000000000182000000000018240000000001824000000000182508287000000000001888600000000003438686300000000000000009999123100000010000000000000BRENBRACNOR2129
012020092202ENEV3       010ENEVA       ON      NM   R$  000000000516000000000051920000000005077000000000513900000000051210000000005121000000000512906017000000000000941000000000004836581400000000000000009999123100000010000000000000BRENEVACNOR8104
012020092202ENGI3       010ENERGISA    ON      N2   R$  000000000130000000000013230000000001260000000000127900000000012840000000001265000000000128400067000000000000008000000000000010236100000000000000009999123100000010000000000000BRENGIACNOR0138
012020092202ENGI4       010ENERGISA    PN      N2   R$  000000000074800000000007560000000000731000000000073800000000007480000000000741000000000074800087000000000000019100000000000014112300000000000000009999123100000010000000000000BRENGIACNPR7134
012020092202ENGI11      010ENERGISA    UNT     N2   R$  000000000430000000000043090000000004197000000000424200000000042750000000004270000000000427505151000000000000956700000000004058947400000000000000009999123100000010000000000000BRENGICDAM16128
012020092202ENMT3       010ENERGISA MT ON           R$  000000000299000000000029900000000002900000000000296500000000029900000000002701000000000299000004000000000000000400000000000001186000000000000000009999123100000010000000000000BRENMTACNOR5111
012020092202EQPA3       010EQTL PARA   ON           R$  000000000032400000000003240000000000310000000000031500000000003230000000000314000000000032300030000000000000008200000000000002586200000000000000009999123100000010000000000000BREQPAACNOR1101
012020092202EQPA5       010EQTL PARA   PNA          R$  000000000060600000000006060000000000597000000000060100000000005970000000000469000000000059800002000000000000000200000000000000120300000000000000009999123100000010000000000000BREQPAACNPA4101
012020092202EQPA7       010EQTL PARA   PNC          R$  000000000060000000000006000000000000560000000000058000000000005600000000000500000000000058900002000000000000000200000000000000116000000000000000009999123100000010000000000000BREQPAACNPC0101
012020092202EQTL3       010EQUATORIAL  ON      NM   R$  000000000227900000000022900000000002234000000000224000000000022590000000002256000000000225920745000000000020843300000000046705714900000000000000009999123100000010000000000000BREQTLACNOR0126
012020092202ESTR4       010ESTRELA     PN           R$  000000000284000000000028400000000002840000000000284000000000028400000000002820000000000293000001000000000000000100000000000000284000000000000000009999123100000010000000000000BRESTRACNPR0143
012020092202EUCA3       010EUCATEX     ON      N1   R$  000000000220100000000022490000000002201000000000221900000000022020000000002202000000000226000013000000000000001600000000000003551300000000000000009999123100000010000000000000BREUCAACNOR1151
012020092202EUCA4       010EUCATEX     PN      N1   R$  000000000066300000000006770000000000645000000000066000000000006470000000000647000000000065700150000000000000045000000000000029706900000000000000009999123100000010000000000000BREUCAACNPR8038
012020092202EVEN3       010EVEN        ON      NM   R$  000000000118100000000011840000000001143000000000116500000000011760000000001170000000000117604634000000000001207200000000001406883200000000000000009999123100000010000000000000BREVENACNOR8112
012020092202EXXO34      010EXXON MOBIL DRN          R$  000000000495400000000049540000000004874000000000488600000000048740000000004801000000000487400003000000000000000240000000000001172660000000000000009999123100000010000000000000BREXXOBDR006140
012020092202EZTC3       010EZTEC       ON      NM   R$  000000000375800000000037820000000003656000000000372700000000037400000000003740000000000374213609000000000002474200000000009223510400000000000000009999123100000010000000000000BREZTCACNOR0114
012020092202FBOK34      010FACEBOOK    DRN          R$  000000006800000000000696640000000067400000000006880400000000695000000000066200000000007000000044000000000000004460000000000306870100000000000000009999123100000010000000000000BRFBOKBDR006100
012020092202FDXB34      010FEDEX CORP  DRN          R$  000000012964500000001331610000000129645000000013140300000001331610000000000000000000000000000002000000000000000020000000000002628060000000000000009999123100000010000000000000BRFDXBBDR002128
012020092202FESA4       010FERBASA     PN      N1   R$  000000000175100000000017790000000001737000000000175300000000017540000000001753000000000175800668000000000000159200000000000279234900000000000000009999123100000010000000000000BRFESAACNPR5067
012020092202FLRY3       010FLEURY      ON      NM   R$  000000000292400000000029390000000002879000000000290900000000028950000000002894000000000289608411000000000001299700000000003781854000000000000000009999123100000010000000000000BRFLRYACNOR5127
012020092202FRAS3       010FRAS-LE     ON      N1   R$  000000000055000000000005700000000000533000000000055200000000005700000000000569000000000057000941000000000000326200000000000180283800000000000000009999123100000010000000000000BRFRASACNOR0149
012020092202G1MI34      010GENERAL MILLDRN          R$  000000003177500000000317750000000031775000000003177500000000317750000000000000000000000000000001000000000000000100000000000003177500000000000000009999123100000010000000000000BRG1MIBDR005102
012020092202GEOO34      010GE          DRN          R$  000000000340000000000034230000000003400000000000340300000000034230000000002990000000000342300002000000000000001200000000000004084600000000000000009999123100000010000000000000BRGEOOBDR000140
012020092202GEPA4       010GER PARANAP PN           R$  000000000455400000000045540000000004507000000000452700000000045070000000004561000000000463000005000000000000000500000000000002263500000000000000009999123100000010000000000000BRGEPAACNPR9153
012020092202GFSA3       010GAFISA      ON      NM   R$  000000000042200000000004360000000000413000000000042400000000004310000000000431000000000043303209000000000003554800000000001509935900000000000000009999123100000010000000000000BRGFSAACNOR3119
012020092202GGBR3       010GERDAU      ON      N1   R$  000000000170100000000017200000000001681000000000169700000000017130000000001690000000000171300102000000000000026200000000000044482100000000000000009999123100000010000000000000BRGGBRACNOR1173
012020092202GGBR4       010GERDAU      PN      N1   R$  000000000206600000000021000000000002050000000000207100000000020720000000002072000000000207319230000000000007807000000000016170958800000000000000009999123100000010000000000000BRGGBRACNPR8173
012020092202GILD34      010GILEAD      DRN ED       R$  000000001734100000000173410000000017341000000001734100000000173410000000017343000000000000000001000000000000000100000000000001734100000000000000009999123100000010000000000000BRGILDBDR000118
012020092202GMCO34      010GENERAL MOT DRN          R$  000000001620000000000162000000000016200000000001620000000000162000000000000000000000001621200001000000000000000200000000000003240000000000000000009999123100000010000000000000BRGMCOBDR008115
012020092202GNDI3       010INTERMEDICA ON      NM   R$  000000000684000000000068970000000006769000000000684700000000068440000000006837000000000684413438000000000002629200000000018003349600000000000000009999123100000010000000000000BRGNDIACNOR2102
012020092202GOAU3       010GERDAU MET  ON      N1   R$  000000000082000000000008210000000000804000000000081400000000008200000000000810000000000082000186000000000000079700000000000064882400000000000000009999123100000010000000000000BRGOAUACNOR1250
012020092202GOAU4       010GERDAU MET  PN      N1   R$  000000000093500000000009460000000000928000000000093500000000009320000000000931000000000093210106000000000011038000000000010330105300000000000000009999123100000010000000000000BRGOAUACNPR8251
012020092202GOGL34      010ALPHABET    DRN A        R$  000000003132500000000319710000000031025000000003142200000000319710000000031839000000003197100101000000000000012960000000000407233540000000000000009999123100000010000000000000BRGOGLBDR001100
012020092202GOGL35      010ALPHABET    DRN C        R$  000000003186000000000320850000000031860000000003202800000000320850000000000000000000003208500002000000000000000040000000000001281150000000000000009999123100000010000000000000BRGOGLBDR019100
012020092202GOLL4       010GOL         PN      N2   R$  000000000186000000000018810000000001794000000000182700000000018180000000001817000000000181828181000000000012239700000000022368450900000000000000009999123100000010000000000000BRGOLLACNPR4125
012020092202GPIV33      010GP INVEST   DR3          R$  000000000047500000000004810000000000463000000000047400000000004750000000000467000000000047600072000000000000044400000000000021054400000000000000009999123100000010000000000000BRGPIVBDR003104
012020092202GRND3       010GRENDENE    ON      NM   R$  000000000075100000000007720000000000750000000000075900000000007690000000000769000000000077003858000000000001137200000000000863202400000000000000009999123100000010000000000000BRGRNDACNOR3158
012020092202GSGI34      010GOLDMANSACHSDRN          R$  000000001041000000000104100000000010410000000001041000000000104100000000000000000000000000000007000000000000002710000000000028211100000000000000009999123100000010000000000000BRGSGIBDR008140
012020092202GUAR3       010GUARARAPES  ON           R$  000000000155400000000015740000000001525000000000155200000000015550000000001555000000000156002532000000000000509600000000000791192700000000000000009999123100000010000000000000BRGUARACNOR4165
012020092202H1IG34      010HARTFORD FINDRN          R$  000000001952200000000195220000000019520000000001952100000000195200000000015768000000000000000002000000000000000280000000000005466000000000000000009999123100000010000000000000BRH1IGBDR006103
012020092202HAGA3       010HAGA S/A    ON           R$  000000000031800000000003180000000000315000000000031500000000003150000000000315000000000032100012000000000000007400000000000002334600000000000000009999123100000010000000000000BRHAGAACNOR7103
012020092202HAGA4       010HAGA S/A    PN           R$  000000000018400000000001870000000000183000000000018400000000001840000000000184000000000018500067000000000000025800000000000004768800000000000000009999123100000010000000000000BRHAGAACNPR4103
012020092202HALI34      010HALLIBURTON DRN          R$  000000000726600000000072660000000007266000000000726600000000072660000000006040000000000733000001000000000000000010000000000000072660000000000000009999123100000010000000000000BRHALIBDR004135
012020092202HAPV3       010HAPVIDA     ON  EJ  NM   R$  000000000629900000000063290000000006199000000000627600000000062860000000006285000000000628606335000000000001033000000000006483851700000000000000009999123100000010000000000000BRHAPVACNOR4106
012020092202HBOR3       010HELBOR      ON      NM   R$  000000000106500000000010900000000001039000000000105900000000010580000000001058000000000105902950000000000001953000000000002068370600000000000000009999123100000010000000000000BRHBORACNOR3114
012020092202HBTS5       010HABITASUL   PNA          R$  000000000269800000000026980000000002450000000000257900000000025000000000002002000000000265000017000000000000001700000000000004384800000000000000009999123100000010000000000000BRHBTSACNPA3124
012020092202HETA4       010HERCULES    PN           R$  000000000075600000000008250000000000752000000000078000000000008000000000000702000000000080400011000000000000001500000000000001170800000000000000009999123100000010000000000000BRHETAACNPR9136
012020092202HGTX3       010CIA HERING  ON      NM   R$  000000000177200000000018080000000001758000000000177800000000017730000000001773000000000177406454000000000001833400000000003260696700000000000000009999123100000010000000000000BRHGTXACNOR9151
012020092202HOME34      010HOME DEPOT  DRN          R$  000000007438400000000746130000000074384000000007460500000000746130000000000000000000000000000002000000000000000620000000000046255480000000000000009999123100000010000000000000BRHOMEBDR002134
012020092202HYPE3       010HYPERA      ON      NM   R$  000000000304000000000031340000000003026000000000310200000000030920000000003092000000000309417950000000000003879300000000012037262100000000000000009999123100000010000000000000BRHYPEACNOR0122
012020092202IDVL3       010INDUSVAL    ON      N2   R$  000000000024800000000002520000000000244000000000024900000000002490000000000244000000000025000008000000000000001700000000000000423900000000000000009999123100000010000000000000BRIDVLACNOR5130
012020092202IDVL4       010INDUSVAL    PN      N2   R$  000000000024200000000002480000000000242000000000024500000000002430000000000243000000000025000018000000000000005000000000000001225800000000000000009999123100000010000000000000BRIDVLACNPR2130
012020092202IGTA3       010IGUATEMI    ON      NM   R$  000000000339000000000033970000000003303000000000333800000000033450000000003344000000000334510637000000000002252000000000007518325500000000000000009999123100000010000000000000BRIGTAACNOR5124
012020092202IRBR3       010IRBBRASIL REON      NM   R$  000000000054000000000005790000000000535000000000055200000000005750000000000574000000000057525076000000000033648400000000018588850100000000000000009999123100000010000000000000BRIRBRACNOR4108
012020092202ITLC34      010INTEL       DRN          R$  000000002694100000000273960000000026941000000002722200000000273960000000000000000000002739600006000000000000000260000000000007077960000000000000009999123100000010000000000000BRITLCBDR005139
012020092202ITSA3       010ITAUSA      ON      N1   R$  000000000103700000000010470000000001025000000000103200000000010270000000001027000000000103000515000000000000129100000000000133336800000000000000009999123100000010000000000000BRITSAACNOR0401
012020092202ITSA4       010ITAUSA      PN      N1   R$  000000000090000000000009090000000000891000000000089700000000008980000000000897000000000089826564000000000023300500000000020916487600000000000000009999123100000010000000000000BRITSAACNPR7401
012020092202ITUB3       010ITAUUNIBANCOON      N1   R$  000000000219000000000022140000000002176000000000219300000000021940000000002194000000000220501557000000000000358400000000000786294900000000000000009999123100000010000000000000BRITUBACNOR4273
012020092202ITUB4       010ITAUUNIBANCOPN      N1   R$  000000000228500000000023310000000002276000000000230400000000023100000000002309000000000231048805000000000027268300000000062830671100000000000000009999123100000010000000000000BRITUBACNPR1273
012020092202JBDU3       010J B DUARTE  ON           R$  000000000022500000000002390000000000219000000000022500000000002240000000000220000000000022400028000000000000021000000000000004725800000000000000009999123100000010000000000000BRJBDUACNOR6142
012020092202JBDU4       010J B DUARTE  PN           R$  000000000012900000000001300000000000122000000000012500000000001230000000000123000000000012600134000000000000105700000000000013303400000000000000009999123100000010000000000000BRJBDUACNPR3142
012020092202JBSS3       010JBS         ON      NM   R$  000000000229700000000023080000000002250000000000227100000000022500000000002249000000000225021624000000000010644000000000024175604900000000000000009999123100000010000000000000BRJBSSACNOR8115
012020092202JDCO34      010JD COM      DRN          R$  000000004100000000000410990000000041000000000004108400000000410990000000000000000000004700000002000000000000000350000000000014379700000000000000009999123100000010000000000000BRJDCOBDR001100
012020092202JHSF3       010JHSF PART   ON      NM   R$  000000000072000000000007350000000000708000000000072100000000007300000000000728000000000073014012000000000006953700000000005015905400000000000000009999123100000010000000000000BRJHSFACNOR2116
012020092202JNJB34      010JOHNSON     DRN          R$  000000007910000000000792990000000079100000000007925800000000791030000000000000000000007910300004000000000000001150000000000091147480000000000000009999123100000010000000000000BRJNJBBDR002135
012020092202JOPA3       010JOSAPAR     ON           R$  000000000331000000000033100000000003310000000000331000000000033100000000002834000000000330100001000000000000000100000000000000331000000000000000009999123100000010000000000000BRJOPAACNOR5131
012020092202JPMC34      010JPMORGAN    DRN          R$  000000002568000000000258000000000025540000000002574000000000257480000000025000000000002574800006000000000000001990000000000051224480000000000000009999123100000010000000000000BRJPMCBDR009134
012020092202JPSA3       010JEREISSATI  ON           R$  000000000220000000000022220000000002131000000000217100000000022000000000002200000000000220801354000000000000212700000000000461929500000000000000009999123100000010000000000000BRJPSAACNOR6103
012020092202JSLG11      010JSL         ON  P   NM   R$  000000000089100000000009120000000000870000000000087700000000008770000000000870000000000087700853000000000000339300000000000297743000000000000000009999123100000010000000000000BRJSLGA02OR1100
012020092202K1RC34      010KROGER CO   DRN          R$  000000001830300000000183030000000018303000000001830300000000183030000000000000000000000000000002000000000000000610000000000011164830000000000000009999123100000010000000000000BRK1RCBDR001103
012020092202KEPL3       010KEPLER WEBERON           R$  000000000398000000000041240000000003940000000000404000000000041000000000004081000000000411300787000000000000129300000000000522412200000000000000009999123100000010000000000000BRKEPLACNOR1049
012020092202KHCB34      010KRAFT HEINZ DRN          R$  000000001600000000000160000000000016000000000001600000000000160000000000015000000000001700000001000000000000000200000000000003200000000000000000009999123100000010000000000000BRKHCBBDR007121
012020092202KLBN3       010KLABIN S/A  ON      N2   R$  000000000051900000000005220000000000505000000000051100000000005070000000000506000000000050900794000000000000232300000000000118825900000000000000009999123100000010000000000000BRKLBNACNOR2156
012020092202KLBN4       010KLABIN S/A  PN      N2   R$  000000000049000000000004920000000000478000000000048300000000004810000000000480000000000048102034000000000000987000000000000476774500000000000000009999123100000010000000000000BRKLBNACNPR9156
012020092202KLBN11      010KLABIN S/A  UNT     N2   R$  000000000247600000000024910000000002417000000000244600000000024330000000002431000000000243314701000000000003710600000000009078619500000000000000009999123100000010000000000000BRKLBNCDAM18128
012020092202L1HX34      010L3HARRIS TECDRN          R$  000000002474900000000247490000000024749000000002474900000000247490000000000000000000000000000001000000000000000300000000000007424700000000000000009999123100000010000000000000BRL1HXBDR007103
012020092202LAME3       010LOJAS AMERICON      N1   R$  000000000253700000000025410000000002480000000000250900000000025230000000002520000000000252313345000000000002773900000000006961257100000000000000009999123100000010000000000000BRLAMEACNOR9202
012020092202LAME4       010LOJAS AMERICPN      N1   R$  000000000293700000000029470000000002880000000000291000000000029140000000002910000000000291419378000000000005170100000000015049289400000000000000009999123100000010000000000000BRLAMEACNPR6202
012020092202LAVV3       010LAVVI       ON      NM   R$  000000000080000000000008060000000000763000000000077800000000007800000000000772000000000078103331000000000003820400000000002972896800000000000000009999123100000010000000000000BRLAVVACNOR4100
012020092202LBRN34      010L BRANDS    DRN          R$  000000000413200000000041320000000004132000000000413200000000041320000000000000000000000000000001000000000000000180000000000000743760000000000000009999123100000010000000000000BRLBRNBDR001119
012020092202LCAM3       010LOCAMERICA  ON  EJ  NM   R$  000000000211700000000021400000000002074000000000210400000000021190000000002118000000000211909268000000000002610400000000005492714100000000000000009999123100000010000000000000BRLCAMACNOR3134
012020092202LEVE3       010METAL LEVE  ON      NM   R$  000000000171000000000017320000000001693000000000170900000000017120000000001712000000000172201653000000000000311600000000000532743400000000000000009999123100000010000000000000BRLEVEACNOR2187
012020092202LIGT3       010LIGHT S/A   ON      NM   R$  000000000144500000000014750000000001420000000000145100000000014720000000001465000000000147307796000000000001634000000000002372207200000000000000009999123100000010000000000000BRLIGTACNOR2120
012020092202LINX3       010LINX        ON      NM   R$  000000000351000000000035300000000003468000000000349200000000034930000000003491000000000349305850000000000002259900000000007892661100000000000000009999123100000010000000000000BRLINXACNOR0118
012020092202LIPR3       010ELETROPAR   ON           R$  000000000670000000000067000000000006700000000000670000000000067000000000000000000000000699900001000000000000000100000000000000670000000000000000009999123100000010000000000000BRLIPRACNOR7117
012020092202LJQQ3       010QUERO-QUERO ON      NM   R$  000000000149600000000015080000000001470000000000149000000000015000000000001500000000000150302164000000000001165800000000001737861200000000000000009999123100000010000000000000BRLJQQACNOR5100
012020092202LOGG3       010LOG COM PROPON      NM   R$  000000000307600000000031190000000003016000000000306600000000030690000000003058000000000306902356000000000000336800000000001032837300000000000000009999123100000010000000000000BRLOGGACNOR7103
012020092202LOGN3       010LOG-IN      ON      NM   R$  000000000164700000000016650000000001613000000000163800000000016350000000001634000000000163803007000000000000900800000000001475890200000000000000009999123100000010000000000000BRLOGNACNOR3104
012020092202LOWC34      010LOWES COMPA DRN          R$  000000004421900000000442190000000044219000000004421900000000442190000000000000000000000000000001000000000000000010000000000000442190000000000000009999123100000010000000000000BRLOWCBDR007105
012020092202LPSB3       010LOPES BRASILON      NM   R$  000000000054300000000005460000000000517000000000052800000000005220000000000522000000000052502540000000000001080900000000000571548800000000000000009999123100000010000000000000BRLPSBACNOR0111
012020092202LREN3       010LOJAS RENNERON      NM   R$  000000000415000000000042250000000004097000000000416200000000041960000000004196000000000420021284000000000009114200000000037942295600000000000000009999123100000010000000000000BRLRENACNOR1203
012020092202LUXM4       010TREVISA     PN           R$  000000000459900000000046000000000004599000000000459900000000046000000000004362000000000460000003000000000000000300000000000001379900000000000000009999123100000010000000000000BRLUXMACNPR4047
012020092202LWSA3       010LOCAWEB     ON      NM   R$  000000000582000000000059950000000005748000000000592400000000059850000000005963000000000598507235000000000001351200000000008005560100000000000000009999123100000010000000000000BRLWSAACNOR8100
012020092202M1NS34      010MONSTER BEVEDRN EB       R$  000000000541100000000054110000000005411000000000541100000000054110000000000000000000000000000001000000000000000240000000000001298640000000000000009999123100000010000000000000BRM1NSBDR004101
012020092202MCDC34      010MCDONALDS   DRN          R$  000000002933800000000295500000000029338000000002954700000000295500000000028900000000000000000003000000000000002170000000000064117140000000000000009999123100000010000000000000BRMCDCBDR000140
012020092202MDIA3       010M.DIASBRANCOON      NM   R$  000000000365900000000036590000000003581000000000361900000000036260000000003625000000000362906801000000000000885800000000003206354900000000000000009999123100000010000000000000BRMDIAACNOR7118
012020092202MDLZ34      010MONDELEZ INTDRN          R$  000000001510000000000152500000000015100000000001510500000000152470000000000000000000000000000020000000000000003110000000000046977470000000000000009999123100000010000000000000BRMDLZBDR002120
012020092202MDNE3       010MOURA DUBEUXON      NM   R$  000000000082200000000009130000000000822000000000088800000000008880000000000887000000000088802902000000000000748100000000000664399500000000000000009999123100000010000000000000BRMDNEACNOR9100
012020092202MEAL3       010IMC S/A     ON      NM   R$  000000000032300000000003350000000000314000000000032300000000003300000000000330000000000033111975000000000015902100000000005150570600000000000000009999123100000010000000000000BRMEALACNOR9105
012020092202MELI34      010MERCADOLIBREDRN          R$  000000005495000000000579800000000054560000000005666800000000579800000000057200000000005798000186000000000000008880000000000503216430000000000000009999123100000010000000000000BRMELIBDR006100
012020092202MGEL4       010MANGELS INDLPN           R$  000000000058000000000005800000000000580000000000058000000000005800000000000580000000000059400001000000000000000100000000000000058000000000000000009999123100000010000000000000BRMGELACNPR3147
012020092202MGLU3       010MAGAZ LUIZA ON      NM   R$  000000000896000000000090180000000008750000000000890300000000089490000000008946000000000894950954000000000013186700000000117406070700000000000000009999123100000010000000000000BRMGLUACNOR2116
012020092202MILS3       010MILLS       ON      NM   R$  000000000061100000000006290000000000599000000000061100000000006260000000000625000000000062604528000000000002131300000000001304006700000000000000009999123100000010000000000000BRMILSACNOR2112
012020092202MNDL3       010MUNDIAL     ON           R$  000000000227100000000022710000000002270000000000227000000000022700000000002270000000000234000002000000000000000200000000000000454100000000000000009999123100000010000000000000BRMNDLACNOR4107
012020092202MNPR3       010MINUPAR     ON           R$  000000000059000000000006200000000000576000000000060100000000006110000000000570000000000060900018000000000000004400000000000002645400000000000000009999123100000010000000000000BRMNPRACNOR5122
012020092202MOOO34      010ALTRIA GROUPDRN ED       R$  000000002112500000000211250000000021125000000002112500000000211250000000000000000000000000000001000000000000000010000000000000211250000000000000009999123100000010000000000000BRMOOOBDR007105
012020092202MOVI3       010MOVIDA      ON      NM   R$  000000000167300000000016990000000001642000000000167300000000016940000000001692000000000169404935000000000001323700000000002215335100000000000000009999123100000010000000000000BRMOVIACNOR0111
012020092202MRCK34      010MERCK       DRN ED       R$  000000004490000000000455000000000044900000000004491700000000455000000000044200000000000000000007000000000000001030000000000046265000000000000000009999123100000010000000000000BRMRCKBDR003140
012020092202MRFG3       010MARFRIG     ON      NM   R$  000000000165500000000016770000000001620000000000164800000000016290000000001628000000000162925254000000000009119400000000015037598300000000000000009999123100000010000000000000BRMRFGACNOR0109
012020092202MRSA3B      010MRS LOGIST  ON      MB   R$  000000000359500000000040000000000003595000000000389000000000039800000000003390000000000400000274000000000000027500000000000106980500000000000000009999123100000010000000000000BRMRSAACNOR6120
012020092202MRVE3       010MRV         ON      NM   R$  000000000162000000000016830000000001608000000000164600000000016700000000001670000000000167117670000000000006148100000000010125473700000000000000009999123100000010000000000000BRMRVEACNOR2120
012020092202MSCD34      010MASTERCARD  DRN          R$  000000018240000000001824000000000182400000000018240000000001824000000000151600000000000000000001000000000000000400000000000072960000000000000000009999123100000010000000000000BRMSCDBDR006137
012020092202MSFT34      010MICROSOFT   DRN          R$  000000011050000000001136340000000109822000000011120300000001136340000000112300000000011363400075000000000000006480000000000720597480000000000000009999123100000010000000000000BRMSFTBDR005139
012020092202MTRE3       010MITRE REALTYON      NM   R$  000000000143500000000014490000000001402000000000142100000000014250000000001417000000000142502067000000000000349600000000000497121100000000000000009999123100000010000000000000BRMTREACNOR6100
012020092202MTSA4       010METISA      PN           R$  000000000264000000000026660000000002640000000000265800000000026660000000002666000000000273800004000000000000001600000000000004253200000000000000009999123100000010000000000000BRMTSAACNPR9056
012020092202MULT3       010MULTIPLAN   ON      N2   R$  000000000214700000000021490000000002093000000000212000000000021360000000002136000000000213915225000000000004983500000000010569181400000000000000009999123100000010000000000000BRMULTACNOR5127
012020092202MYPK3       010IOCHP-MAXIONON      NM   R$  000000000134900000000013990000000001344000000000137300000000013630000000001363000000000136811011000000000002640600000000003627366000000000000000009999123100000010000000000000BRMYPKACNOR7148
012020092202N1DA34      010NASDAQ INC  DRN          R$  000000003278900000000327890000000032789000000003278900000000327890000000000000000000000000000001000000000000000100000000000003278900000000000000009999123100000010000000000000BRN1DABDR002103
012020092202N1EM34      010NEWMONT GOLDDRN          R$  000000003452000000000345220000000034520000000003452100000000345220000000033000000000003740000007000000000000002000000000000069042400000000000000009999123100000010000000000000BRN1EMBDR005103
012020092202N1TA34      010NETAPP INC  DRN          R$  000000002281600000000228160000000022816000000002281600000000228160000000000000000000000000000001000000000000000050000000000001140800000000000000009999123100000010000000000000BRN1TABDR008103
012020092202NEOE3       010NEOENERGIA  ON      NM   R$  000000000178800000000018320000000001761000000000180200000000018200000000001819000000000182009212000000000002326000000000004192079500000000000000009999123100000010000000000000BRNEOEACNOR3111
012020092202NETE34      010NETEASE     DRN          R$  000000026420100000002642010000000264201000000026420100000002642010000000000000000000000000000001000000000000000010000000000002642010000000000000009999123100000010000000000000BRNETEBDR006104
012020092202NEXT34      010NEXTERA ENERDRN          R$  000000003795100000000379510000000037951000000003795100000000379510000000036952000000000000000001000000000000000020000000000000759020000000000000009999123100000010000000000000BRNEXTBDR006105
012020092202NFLX34      010NETFLIX     DRN          R$  000000026437700000002669280000000264377000000026668100000002669280000000266900000000027500000002000000000000000310000000000082671150000000000000009999123100000010000000000000BRNFLXBDR000101
012020092202NTCO3       010GRUPO NATURAON      NM   R$  000000000515000000000051670000000005024000000000508100000000051000000000005100000000000510125557000000000005155300000000026197287600000000000000009999123100000010000000000000BRNTCOACNOR5101
012020092202NVDC34      010NVIDIA CORP DRN          R$  000000006780000000000690000000000066400000000006801000000000686410000000065120000000006910000015000000000000000850000000000057809050000000000000009999123100000010000000000000BRNVDCBDR008106
012020092202ODPV3       010ODONTOPREV  ON  EJ  NM   R$  000000000128700000000012870000000001262000000000126700000000012620000000001262000000000126503597000000000001313400000000001665281600000000000000009999123100000010000000000000BRODPVACNOR4179
012020092202OFSA3       010OUROFINO S/AON      NM   R$  000000000283000000000028300000000002789000000000280200000000028060000000002796000000000280600041000000000000005600000000000015692800000000000000009999123100000010000000000000BROFSAACNOR7109
012020092202OMGE3       010OMEGA GER   ON      NM   R$  000000000382900000000038660000000003752000000000379400000000038020000000003802000000000381003255000000000000496900000000001885277500000000000000009999123100000010000000000000BROMGEACNOR0101
012020092202ORCL34      010ORACLE      DRN          R$  000000003257900000000329070000000032549000000003259600000000329070000000032097000000000000000004000000000000000310000000000010105060000000000000009999123100000010000000000000BRORCLBDR007134
012020092202PARD3       010IHPARDINI   ON  EJ  NM   R$  000000000238700000000024830000000002338000000000240700000000024510000000002450000000000245106377000000000001564400000000003766468700000000000000009999123100000010000000000000BRPARDACNOR1115
012020092202PCAR3       010P.ACUCAR-CBDON      NM   R$  000000000741000000000075400000000007402000000000748900000000075180000000007506000000000751806715000000000001233400000000009237458900000000000000009999123100000010000000000000BRPCARACNOR3163
012020092202PDTC3       010PADTEC      ON           R$  000000000050600000000005190000000000506000000000050800000000005090000000000508000000000051000057000000000000017200000000000008742600000000000000009999123100000010000000000000BRPDTCACNOR3100
012020092202PEPB34      010PEPSICO INC DRN          R$  000000007120000000000721130000000071200000000007128300000000721130000000065100000000000000000015000000000000001100000000000078411300000000000000009999123100000010000000000000BRPEPBBDR005132
012020092202PETR3       010PETROBRAS   ON      N2   R$  000000000213200000000021690000000002115000000000213500000000021270000000002126000000000212726073000000000016150700000000034485291900000000000000009999123100000010000000000000BRPETRACNOR9191
012020092202PETR4       010PETROBRAS   PN      N2   R$  000000000209600000000021350000000002075000000000209700000000020800000000002080000000000208149339000000000047207700000000099021097800000000000000009999123100000010000000000000BRPETRACNPR6197
012020092202PETZ3       010PETZ        ON      NM   R$  000000000149500000000015600000000001478000000000151200000000015500000000001545000000000155006071000000000002815100000000004258488500000000000000009999123100000010000000000000BRPETZACNOR2100
012020092202PFIZ34      010PFIZER      DRN          R$  000000001952900000000198450000000019480000000001968900000000198450000000019200000000001984500014000000000000000970000000000019098920000000000000009999123100000010000000000000BRPFIZBDR006140
012020092202PFRM3       010PROFARMA    ON      NM   R$  000000000049400000000005070000000000477000000000049100000000004950000000000490000000000049502372000000000000951200000000000467754400000000000000009999123100000010000000000000BRPFRMACNOR1112
012020092202PGCO34      010PG          DRN          R$  000000007525000000000756600000000075250000000007534100000000756600000000000000000000007566000002000000000000000090000000000006780700000000000000009999123100000010000000000000BRPGCOBDR001139
012020092202PGMN3       010PAGUE MENOS ON      NM   R$  000000000093800000000009800000000000920000000000095900000000009800000000000979000000000098001389000000000000418000000000000401258200000000000000009999123100000010000000000000BRPGMNACNOR8100
012020092202PINE4       010PINE        PN      N2   R$  000000000026900000000002690000000000259000000000026100000000002600000000000259000000000026000184000000000000088000000000000022968800000000000000009999123100000010000000000000BRPINEACNPR8144
012020092202PLPL3       010PLANOEPLANO ON      NM   R$  000000000084900000000008660000000000822000000000084000000000008580000000000858000000000086001658000000000001926100000000001618536900000000000000009999123100000010000000000000BRPLPLACNOR5100
012020092202PMAM3       010PARANAPANEMAON      NM   R$  000000000106000000000010990000000001050000000000106900000000010710000000001064000000000107300161000000000000044600000000000047707800000000000000009999123100000010000000000000BRPMAMACNOR3037
012020092202PNVL3       010DIMED       ON           R$  000000000233400000000023610000000002296000000000231600000000023250000000002314000000000232502070000000000000478100000000001107741600000000000000009999123100000010000000000000BRPNVLACNOR9196
012020092202PNVL4       010DIMED       PN           R$  000000000210000000000021150000000002055000000000207200000000020550000000002050000000000208400114000000000000021500000000000044562300000000000000009999123100000010000000000000BRPNVLACNPR6196
012020092202POMO3       010MARCOPOLO   ON      N2   R$  000000000026900000000002690000000000263000000000026500000000002660000000000265000000000026600421000000000000126600000000000033647600000000000000009999123100000010000000000000BRPOMOACNOR0087
012020092202POMO4       010MARCOPOLO   PN      N2   R$  000000000027900000000002810000000000272000000000027600000000002770000000000277000000000027808954000000000008563500000000002365877400000000000000009999123100000010000000000000BRPOMOACNPR7087
012020092202POSI3       010POSITIVO TECON      NM   R$  000000000044500000000004510000000000433000000000044100000000004390000000000439000000000044002981000000000002033900000000000897306200000000000000009999123100000010000000000000BRPOSIACNOR9112
012020092202PPLA11      010PPLA        UNT          R$  000000000156000000000016000000000001482000000000152900000000016000000000001484000000000162000013000000000000001800000000000002753100000000000000009999123100000010000000000000BRPPLAUNT007101
012020092202PRIO3       010PETRORIO    ON      NM   R$  000000000372100000000037530000000003637000000000367900000000036500000000003650000000000365406552000000000001475900000000005430045400000000000000009999123100000010000000000000BRPRIOACNOR1102
012020092202PRNR3       010PRINER      ON      NM   R$  000000000091200000000009240000000000904000000000091100000000009110000000000910000000000091100474000000000000157500000000000143563200000000000000009999123100000010000000000000BRPRNRACNOR4105
012020092202PSSA3       010PORTO SEGUROON      NM   R$  000000000494300000000049850000000004880000000000494800000000049610000000004961000000000497104060000000000000553000000000002736705000000000000000009999123100000010000000000000BRPSSAACNOR7142
012020092202PTBL3       010PORTOBELLO  ON      NM   R$  000000000052700000000005680000000000513000000000054600000000005660000000000564000000000056605048000000000004919700000000002690337100000000000000009999123100000010000000000000BRPTBLACNOR8125
012020092202PTNT3       010PETTENATI   ON           R$  000000000053600000000005400000000000490000000000050000000000004990000000000499000000000050700084000000000000036500000000000018281400000000000000009999123100000010000000000000BRPTNTACNOR6039
012020092202PTNT4       010PETTENATI   PN           R$  000000000046100000000004700000000000461000000000046400000000004630000000000461000000000046500045000000000000007300000000000003391500000000000000009999123100000010000000000000BRPTNTACNPR3044
012020092202PYPL34      010PAYPAL HOLD DRN          R$  000000004999000000000511850000000049951000000005045300000000511850000000051000000000005118500010000000000000000820000000000041372060000000000000009999123100000010000000000000BRPYPLBDR002101
012020092202QUAL3       010QUALICORP   ON      NM   R$  000000000322000000000032200000000003150000000000318700000000031960000000003196000000000320009694000000000001911100000000006091110900000000000000009999123100000010000000000000BRQUALACNOR6113
012020092202R1MD34      010RESMED INC  DRN          R$  000000002357800000000235780000000023578000000002357800000000235780000000000000000000002357800001000000000000000010000000000000235780000000000000009999123100000010000000000000BRR1MDBDR003103
012020092202RADL3       010RAIADROGASILON  EB  NM   R$  000000000229100000000023290000000002279000000000230900000000023110000000002310000000000231219750000000000005613400000000012963401800000000000000009999123100000010000000000000BRRADLACNOR0137
012020092202RAIL3       010RUMO S.A.   ON      NM   R$  000000000204400000000020790000000002022000000000204900000000020610000000002061000000000206231748000000000009777500000000020035943800000000000000009999123100000010000000000000BRRAILACNOR9101
012020092202RANI3       010IRANI       ON           R$  000000000050900000000005180000000000492000000000050200000000004950000000000495000000000049705238000000000002787700000000001400732200000000000000009999123100000010000000000000BRRANIACNOR5053
012020092202RANI4       010IRANI       PN           R$  000000000085000000000008690000000000849000000000085800000000008490000000000849000000000086000019000000000000009200000000000007899000000000000000009999123100000010000000000000BRRANIACNPR2054
012020092202RAPT3       010RANDON PART ON      N1   R$  000000000096600000000009720000000000933000000000095200000000009550000000000937000000000095900068000000000000012300000000000011713000000000000000009999123100000010000000000000BRRAPTACNOR7153
012020092202RAPT4       010RANDON PART PN      N1   R$  000000000117800000000011990000000001144000000000117400000000011780000000001178000000000118408214000000000003147800000000003696447200000000000000009999123100000010000000000000BRRAPTACNPR4153
012020092202RCSL3       010RECRUSUL    ON           R$  000000000019100000000002000000000000185000000000019400000000002000000000000199000000000020000040000000000000019400000000000003771100000000000000009999123100000010000000000000BRRCSLACNOR4130
012020092202RCSL4       010RECRUSUL    PN           R$  000000000014600000000001520000000000143000000000014700000000001520000000000151000000000015204971000000000004437100000000000653980200000000000000009999123100000010000000000000BRRCSLACNPR1130
012020092202RDNI3       010RNI         ON      NM   R$  000000000103500000000010440000000001000000000000101400000000010440000000001044000000000104500042000000000000015000000000000015214200000000000000009999123100000010000000000000BRRDNIACNOR9113
012020092202REDE3       010REDE ENERGIAON           R$  000000000104900000000010490000000001049000000000104900000000010490000000001001000000000104900001000000000000000100000000000000104900000000000000009999123100000010000000000000BRREDEACNOR7115
012020092202REGN34      010REGENERON PHDRN          R$  000000006233900000000623390000000062290000000006230200000000622900000000000000000000000000000002000000000000000040000000000002492090000000000000009999123100000010000000000000BRREGNBDR005100
012020092202RENT3       010LOCALIZA    ON  EJ  NM   R$  000000000508600000000051960000000005058000000000512700000000051740000000005174000000000518112144000000000002359300000000012097948500000000000000009999123100000010000000000000BRRENTACNOR4179
012020092202RIGG34      010TRANSOCEAN  DRN          R$  000000000054000000000005400000000000530000000000053000000000005300000000000530000000000059500002000000000000001080000000000000573200000000000000009999123100000010000000000000BRRIGGBDR000100
012020092202RLOG3       010COSAN LOG   ON      NM   R$  000000000193000000000019680000000001909000000000194000000000019680000000001962000000000196802341000000000000479900000000000931427800000000000000009999123100000010000000000000BRRLOGACNOR4106
012020092202ROMI3       010INDS ROMI   ON      NM   R$  000000000114500000000011590000000001122000000000114100000000011310000000001131000000000115001683000000000000295900000000000337629600000000000000009999123100000010000000000000BRROMIACNOR8173
012020092202RPAD3       010ALFA HOLDINGON           R$  000000000060000000000006010000000000600000000000060000000000006000000000000600000000000064000004000000000000001200000000000000720300000000000000009999123100000010000000000000BRRPADACNOR1197
012020092202RPAD6       010ALFA HOLDINGPNB          R$  000000000055000000000005500000000000550000000000055000000000005500000000000541000000000058400001000000000000000100000000000000055000000000000000009999123100000010000000000000BRRPADACNPB2197
012020092202RSID3       010ROSSI RESID ON      NM   R$  000000000050200000000005150000000000492000000000049900000000005030000000000497000000000050300216000000000000078600000000000039278700000000000000009999123100000010000000000000BRRSIDACNOR8119
012020092202S1LG34      010SL GREEN READRN          R$  000000001259400000000125940000000012594000000001259400000000125940000000000000000000000000000001000000000000000030000000000000377820000000000000009999123100000010000000000000BRS1LGBDR007106
012020092202S1PO34      010SPOTIFY TECHDRN          R$  000000003200800000000327350000000032008000000003247500000000327350000000030500000000000000000002000000000000000140000000000004546550000000000000009999123100000010000000000000BRS1POBDR002100
012020092202SANB3       010SANTANDER BRON           R$  000000000129700000000013190000000001286000000000130200000000013040000000001301000000000131000294000000000000073400000000000095629600000000000000009999123100000010000000000000BRSANBACNOR8153
012020092202SANB4       010SANTANDER BRPN           R$  000000000145100000000014690000000001438000000000145600000000014500000000001450000000000145500624000000000000150700000000000219533300000000000000009999123100000010000000000000BRSANBACNPR5153
012020092202SANB11      010SANTANDER BRUNT          R$  000000000273700000000027840000000002722000000000275600000000027490000000002749000000000276009897000000000002224400000000006131379600000000000000009999123100000010000000000000BRSANBCDAM13146
012020092202SAPP34      010SAP SE      DRN          R$  000000008529100000000852910000000085291000000008529100000000852910000000000000000000000000000001000000000000000020000000000001705820000000000000009999123100000010000000000000BRSAPPBDR007101
012020092202SAPR3       010SANEPAR     ON      N2   R$  000000000055800000000005580000000000545000000000055000000000005480000000000548000000000055500600000000000000162600000000000089444500000000000000009999123100000010000000000000BRSAPRACNOR9150
012020092202SAPR4       010SANEPAR     PN      N2   R$  000000000053500000000005410000000000532000000000053600000000005370000000000537000000000053803961000000000002206000000000001184573400000000000000009999123100000010000000000000BRSAPRACNPR6150
012020092202SAPR11      010SANEPAR     UNT     N2   R$  000000000269600000000027140000000002665000000000269300000000027090000000002704000000000270906947000000000001609100000000004333452500000000000000009999123100000010000000000000BRSAPRCDAM13109
012020092202SBSP3       010SABESP      ON      NM   R$  000000000475500000000048330000000004702000000000476500000000048300000000004821000000000483016091000000000003712700000000017693762200000000000000009999123100000010000000000000BRSBSPACNOR5157
012020092202SCAR3       010SAO CARLOS  ON      NM   R$  000000000375800000000038130000000003747000000000376600000000037550000000003755000000000384600032000000000000005300000000000019960200000000000000009999123100000010000000000000BRSCARACNOR7128
012020092202SEER3       010SER EDUCA   ON      NM   R$  000000000159600000000016510000000001587000000000161700000000016350000000001623000000000163504932000000000000974500000000001575806400000000000000009999123100000010000000000000BRSEERACNOR5115
012020092202SGPS3       010SPRINGS     ON      NM   R$  000000000066500000000006890000000000656000000000067300000000006750000000000675000000000068000383000000000000143900000000000096874400000000000000009999123100000010000000000000BRSGPSACNOR4104
012020092202SHOW3       010TIME FOR FUNON      NM   R$  000000000028300000000002880000000000280000000000028300000000002850000000000284000000000028500557000000000000473300000000000134229300000000000000009999123100000010000000000000BRSHOWACNOR7105
012020092202SHUL4       010SCHULZ      PN           R$  000000000121800000000012400000000001182000000000121400000000012300000000001220000000000123000584000000000000201900000000000245129500000000000000009999123100000010000000000000BRSHULACNPR4136
012020092202SIMH3       010SIMPAR      ON      NM   R$  000000000280800000000028820000000002805000000000283500000000028400000000002840000000000286002172000000000000849000000000002407446600000000000000009999123100000010000000000000BRSIMHACNOR0100
012020092202SLCE3       010SLC AGRICOLAON      NM   R$  000000000262000000000026370000000002568000000000260200000000025970000000002597000000000260005734000000000001276800000000003322963300000000000000009999123100000010000000000000BRSLCEACNOR2115
012020092202SMLS3       010SMILES      ON      NM   R$  000000000151500000000015530000000001490000000000151500000000015290000000001529000000000153006263000000000001638300000000002482390700000000000000009999123100000010000000000000BRSMLSACNOR1109
012020092202SMTO3       010SAO MARTINHOON      NM   R$  000000000231000000000023230000000002279000000000230000000000022980000000002298000000000230203540000000000000537200000000001235903800000000000000009999123100000010000000000000BRSMTOACNOR3117
012020092202SNEC34      010SONY CORP   DRN          R$  000000004262000000000426200000000042620000000004262000000000426200000000031000000000000000000001000000000000000010000000000000426200000000000000009999123100000010000000000000BRSNECBDR002101
012020092202SOMA3       010GRUPO SOMA  ON      NM   R$  000000000101300000000010200000000000970000000000099200000000010130000000001013000000000101803348000000000004368300000000004336946700000000000000009999123100000010000000000000BRSOMAACNOR3100
012020092202SQIA3       010SINQIA      ON      NM   R$  000000000228600000000023280000000002231000000000227500000000023100000000002301000000000231002567000000000000501800000000001141966800000000000000009999123100000010000000000000BRSQIAACNOR6102
012020092202STBP3       010SANTOS BRP  ON      NM   R$  000000000048500000000004900000000000472000000000048000000000004840000000000484000000000048503725000000000001840100000000000884853100000000000000009999123100000010000000000000BRSTBPACNOR3117
012020092202SULA3       010SUL AMERICA ON      N2   R$  000000000170100000000017010000000001618000000000167000000000016680000000001655000000000172500021000000000000002300000000000003842500000000000000009999123100000010000000000000BRSULAACNOR2141
012020092202SULA4       010SUL AMERICA PN      N2   R$  000000000118000000000011990000000001177000000000118600000000011990000000001189000000000121000027000000000000004800000000000005696300000000000000009999123100000010000000000000BRSULAACNPR9141
012020092202SULA11      010SUL AMERICA UNT     N2   R$  000000000409900000000041120000000004006000000000405500000000040910000000004084000000000409209580000000000001820000000000007381203900000000000000009999123100000010000000000000BRSULACDAM12141
012020092202SUZB3       010SUZANO S.A. ON      NM   R$  000000000483000000000048520000000004695000000000474200000000047370000000004732000000000473716632000000000004924300000000023355873900000000000000009999123100000010000000000000BRSUZBACNOR0124
012020092202TAEE3       010TAESA       ON      N2   R$  000000000095100000000009510000000000943000000000094600000000009450000000000945000000000094900243000000000000038100000000000036048200000000000000009999123100000010000000000000BRTAEEACNOR9132
012020092202TAEE4       010TAESA       PN      N2   R$  000000000094900000000009570000000000942000000000094700000000009500000000000946000000000095000411000000000000088800000000000084122200000000000000009999123100000010000000000000BRTAEEACNPR6132
012020092202TAEE11      010TAESA       UNT     N2   R$  000000000283700000000028520000000002824000000000283400000000028330000000002833000000000283508409000000000001793200000000005082898500000000000000009999123100000010000000000000BRTAEECDAM10132
012020092202TASA3       010TAURUS ARMASON      N2   R$  000000000081500000000008450000000000812000000000082200000000008180000000000817000000000081800356000000000000132800000000000109236500000000000000009999123100000010000000000000BRTASAACNOR7100
012020092202TASA4       010TAURUS ARMASPN      N2   R$  000000000085400000000008900000000000836000000000085800000000008570000000000856000000000085703582000000000002244600000000001927825500000000000000009999123100000010000000000000BRTASAACNPR4100
012020092202TCSA3       010TECNISA     ON      NM   R$  000000000095200000000009790000000000937000000000095800000000009630000000000962000000000097602221000000000000968200000000000927658600000000000000009999123100000010000000000000BRTCSAACNOR3112
012020092202TECN3       010TECHNOS     ON      NM   R$  000000000010400000000001070000000000103000000000010400000000001040000000000104000000000010500277000000000000274600000000000028790400000000000000009999123100000010000000000000BRTECNACNOR6106
012020092202TELB3       010TELEBRAS    ON           R$  000000001080000000000115000000000010500000000001110000000000107000000000010100000000001080000010000000000000001200000000000013320000000000000000009999123100000010000000000000BRTELBACNOR2139
012020092202TELB4       010TELEBRAS    PN           R$  000000000299900000000031440000000002999000000000308000000000030950000000003041000000000309600070000000000000019700000000000060677300000000000000009999123100000010000000000000BRTELBACNPR9139
012020092202TEND3       010TENDA       ON      NM   R$  000000000278900000000028290000000002752000000000279100000000028200000000002812000000000282204863000000000000816200000000002278085500000000000000009999123100000010000000000000BRTENDACNOR4108
012020092202TESA3       010TERRA SANTA ON      NM   R$  000000000179800000000018400000000001775000000000181900000000018380000000001811000000000183900114000000000000024600000000000044766300000000000000009999123100000010000000000000BRTESAACNOR9101
012020092202TGMA3       010TEGMA       ON      NM   R$  000000000230200000000023350000000002261000000000230900000000023280000000002328000000000233002282000000000000360400000000000832261500000000000000009999123100000010000000000000BRTGMAACNOR7133
012020092202TGTB34      010TARGET CORP DRN          R$  000000008383900000000838390000000083839000000008383900000000838390000000000000000000000000000001000000000000000500000000000041919500000000000000009999123100000010000000000000BRTGTBBDR004120
012020092202TIET3       010AES TIETE E ON      N2   R$  000000000029500000000002980000000000293000000000029400000000002940000000000293000000000029500604000000000000171300000000000050501300000000000000009999123100000010000000000000BRTIETACNOR0125
012020092202TIET4       010AES TIETE E PN      N2   R$  000000000029400000000002980000000000292000000000029400000000002940000000000293000000000029401021000000000000576900000000000169909300000000000000009999123100000010000000000000BRTIETACNPR7125
012020092202TIET11      010AES TIETE E UNT     N2   R$  000000000147600000000014900000000001459000000000146900000000014640000000001462000000000146408585000000000001888600000000002776050900000000000000009999123100000010000000000000BRTIETCDAM15125
012020092202TIFF34      010TIFFANY     DRN ED       R$  000000006210000000000621000000000062100000000006210000000000621000000000000000000000000000000002000000000000001000000000000062100000000000000000009999123100000010000000000000BRTIFFBDR000123
012020092202TIMP3       010TIM PART S/AON      NM   R$  000000000138800000000013940000000001363000000000138100000000013850000000001384000000000138519996000000000006486500000000008958876800000000000000009999123100000010000000000000BRTIMPACNOR1114
012020092202TKNO4       010TEKNO       PN           R$  000000000390000000000039000000000003884000000000389700000000038840000000003621000000000409500005000000000000000600000000000002338400000000000000009999123100000010000000000000BRTKNOACNPR5064
012020092202TOTS3       010TOTVS       ON      NM   R$  000000000278700000000028540000000002753000000000280800000000028400000000002835000000000284022347000000000004516900000000012684454700000000000000009999123100000010000000000000BRTOTSACNOR8136
012020092202TPIS3       010TRIUNFO PARTON      NM   R$  000000000011700000000001200000000000117000000000011800000000001170000000000117000000000011900115000000000000109800000000000012975500000000000000009999123100000010000000000000BRTPISACNOR8115
012020092202TRIS3       010TRISUL      ON      NM   R$  000000000112200000000011360000000001099000000000111700000000011240000000001123000000000112404206000000000001062700000000001187068200000000000000009999123100000010000000000000BRTRISACNOR4113
