00COTAHIST.2020BOVESPA 20200914                                                                                                                                                                                                                      
012020091402A1AP34      010ADVANCE AUTODRN          R$  000000002210000000000221000000000022100000000002210000000000221000000000000000000000000000000001000000000000000050000000000001105000000000000000009999123100000010000000000000BRA1APBDR001102
012020091402A1BM34      010ABIOMED INC DRN          R$  000000003663400000000366340000000036634000000003663400000000366340000000000000000000000000000001000000000000000050000000000001831700000000000000009999123100000010000000000000BRA1BMBDR006100
012020091402A1MD34      010ADVANCED MICDRN          R$  000000004057500000000405750000000040575000000004057500000000405750000000000000000000005250000001000000000000000010000000000000405750000000000000009999123100000010000000000000BRA1MDBDR002100
012020091402A1MT34      010APPLIED MATEDRN          R$  000000002974900000000297490000000029749000000002974900000000297490000000000000000000000000000001000000000000000300000000000008924700000000000000009999123100000010000000000000BRA1MTBDR008103
012020091402A1NE34      010ARISTA NETWODRN          R$  000000002720000000000272000000000027200000000002720000000000272000000000000000000000000000000002000000000000000060000000000001632000000000000000009999123100000010000000000000BRA1NEBDR008100
012020091402A1PA34      010APACHE CORP DRN          R$  000000000628000000000062800000000006280000000000628000000000062800000000000000000000000000000001000000000000000100000000000000628000000000000000009999123100000010000000000000BRA1PABDR001103
012020091402AALL34      010AMERICAN AIRDRN          R$  000000000693700000000069940000000006937000000000699100000000069820000000006982000000000850000003000000000000000320000000000002237390000000000000009999123100000010000000000000BRAALLBDR003115
012020091402AALR3       010ALLIAR      ON      NM   R$  000000000112200000000011800000000001119000000000114700000000011800000000001172000000000118002895000000000000649700000000000745434900000000000000009999123100000010000000000000BRAALRACNOR6102
012020091402AAPL34      010APPLE       DRN          R$  000000000612100000000061400000000005957000000000606700000000061200000000006120000000000613000393000000000000106090000000000643678540000000000000009999123100000010000000000000BRAAPLBDR004135
012020091402ABCB4       010ABC BRASIL  PN      N2   R$  000000000130100000000013320000000001293000000000131200000000013320000000001326000000000133202226000000000000336700000000000441925100000000000000009999123100000010000000000000BRABCBACNPR4134
012020091402ABEV3       010AMBEV S/A   ON           R$  000000000121200000000012580000000001212000000000123800000000012570000000001255000000000125741153000000000024419600000000030244960700000000000000009999123100000010000000000000BRABEVACNOR1122
012020091402ACNB34      010ACCENTURE   DRN          R$  000000012714500000001271450000000127145000000012714500000001271450000000000000000000000000000001000000000000000030000000000003814350000000000000009999123100000010000000000000BRACNBBDR006112
012020091402ADBE34      010ADOBE INC   DRN          R$  000000005132000000000513200000000051320000000005132000000000513200000000000000000000000000000001000000000000000080000000000004105600000000000000009999123100000010000000000000BRADBEBDR003100
012020091402ADHM3       010ADVANCED-DH ON           R$  000000000020800000000002090000000000205000000000020600000000002070000000000207000000000020900020000000000000011900000000000002455000000000000000009999123100000010000000000000BRADHMACNOR9102
012020091402AFLT3       010AFLUENTE T  ON           R$  000000000100100000000010390000000001001000000000101200000000010100000000001000000000000101000009000000000000002000000000000002025600000000000000009999123100000010000000000000BRAFLTACNOR1115
012020091402AGRO3       010BRASILAGRO  ON      NM   R$  000000000214400000000022170000000002132000000000218900000000022020000000002202000000000220801183000000000000282100000000000617792500000000000000009999123100000010000000000000BRAGROACNOR7109
012020091402ALPA3       010ALPARGATAS  ON      N1   R$  000000000344900000000035200000000003358000000000343300000000034800000000003380000000000348000015000000000000002300000000000007897600000000000000009999123100000010000000000000BRALPAACNOR0229
012020091402ALPA4       010ALPARGATAS  PN      N1   R$  000000000372600000000038680000000003689000000000375700000000037260000000003721000000000372610520000000000001818000000000006831592700000000000000009999123100000010000000000000BRALPAACNPR7229
012020091402ALPK3       010ESTAPAR     ON      NM   R$  000000000093500000000009390000000000923000000000093000000000009230000000000923000000000093000098000000000000035600000000000033124000000000000000009999123100000010000000000000BRALPKACNOR9100
012020091402ALSO3       010ALIANSCSONAEON      NM   R$  000000000269900000000027950000000002691000000000277000000000027940000000002794000000000279505800000000000000897100000000002485419800000000000000009999123100000010000000000000BRALSOACNOR5100
012020091402ALUP3       010ALUPAR      ON      N2   R$  000000000095500000000009650000000000935000000000094200000000009370000000000937000000000095000052000000000000007400000000000006975600000000000000009999123100000010000000000000BRALUPACNOR8111
012020091402ALUP4       010ALUPAR      PN      N2   R$  000000000069500000000007050000000000695000000000069800000000007050000000000698000000000070700056000000000000009300000000000006495300000000000000009999123100000010000000000000BRALUPACNPR5111
012020091402ALUP11      010ALUPAR      UNT     N2   R$  000000000235000000000023730000000002329000000000234100000000023430000000002343000000000234703401000000000001043800000000002443837600000000000000009999123100000010000000000000BRALUPCDAM15111
012020091402AMAR3       010LOJAS MARISAON      NM   R$  000000000078200000000008280000000000782000000000081000000000008280000000000827000000000082807930000000000003363400000000002727561100000000000000009999123100000010000000000000BRAMARACNOR4112
012020091402AMBP3       010AMBIPAR     ON      NM   R$  000000000313500000000031500000000003064000000000309700000000030690000000003068000000000306900747000000000000130400000000000403908400000000000000009999123100000010000000000000BRAMBPACNOR6100
012020091402AMGN34      010AMGEN       DRN          R$  000000013033500000001303350000000130335000000013033500000001303350000000000000000000000000000001000000000000000030000000000003910050000000000000009999123100000010000000000000BRAMGNBDR004135
012020091402AMZO34      010AMAZON      DRN          R$  000000084260000000008426000000000819645000000082673700000008214400000000815000000000083870000008000000000000000170000000000140545450000000000000009999123100000010000000000000BRAMZOBDR002101
012020091402ANIM3       010ANIMA       ON      NM   R$  000000000289600000000031440000000002880000000000308600000000031370000000003131000000000313706586000000000001272200000000003927060700000000000000009999123100000010000000000000BRANIMACNOR6106
012020091402APER3       010ALPER S.A.  ON      NM   R$  000000000297000000000030800000000002945000000000303700000000030800000000003024000000000308000136000000000000028600000000000086866900000000000000009999123100000010000000000000BRAPERACNOR9102
012020091402ARMT34      010ARCELOR     DRN          R$  000000000339800000000033980000000003398000000000339800000000033980000000002764000000000000000001000000000000000070000000000000237860000000000000009999123100000010000000000000BRARMTBDR008117
012020091402ARZZ3       010AREZZO CO   ON      NM   R$  000000000563600000000057650000000005615000000000566800000000057170000000005693000000000571703789000000000000606000000000003434881400000000000000009999123100000010000000000000BRARZZACNOR3137
012020091402ATOM3       010ATOMPAR     ON           R$  000000000028500000000002880000000000275000000000028100000000002820000000000282000000000028500150000000000000076100000000000021451200000000000000009999123100000010000000000000BRATOMACNOR1103
012020091402ATTB34      010ATT INC     DRN          R$  000000001543900000000154390000000015439000000001543900000000154390000000015000000000001543900001000000000000000230000000000003550970000000000000009999123100000010000000000000BRATTBBDR007132
012020091402AURA32      010AURA 360    DR2          R$  000000000608200000000065980000000006050000000000633500000000064000000000006371000000000640000370000000000000059700000000000378238300000000000000009999123100000010000000000000BRAURABDR001102
012020091402AVGO34      010BROADCOM INCDRN          R$  000000003836700000000383670000000038367000000003836700000000383670000000000000000000000000000001000000000000000600000000000023020200000000000000009999123100000010000000000000BRAVGOBDR003105
012020091402AZEV3       010AZEVEDO     ON           R$  000000000100700000000010990000000001007000000000106800000000010080000000001007000000000108900004000000000000000700000000000000748100000000000000009999123100000010000000000000BRAZEVACNOR0117
012020091402AZEV4       010AZEVEDO     PN           R$  000000000037000000000003700000000000360000000000036600000000003670000000000367000000000036900020000000000000005200000000000001907100000000000000009999123100000010000000000000BRAZEVACNPR7117
012020091402AZUL4       010AZUL        PN      N2   R$  000000000270500000000028370000000002660000000000275800000000028250000000002825000000000282643841000000000020548100000000056679604800000000000000009999123100000010000000000000BRAZULACNPR4100
012020091402B3SA3       010B3          ON      NM   R$  000000000568500000000058850000000005663000000000579700000000058730000000005870000000000587333641000000000011303300000000065533656800000000000000009999123100000010000000000000BRB3SAACNOR6111
012020091402BABA34      010ALIBABAGR   DRN          R$  000000014590000000001459000000000143600000000014496200000001445250000000143600000000014950000005000000000000000050000000000007248100000000000000009999123100000010000000000000BRBABABDR005100
012020091402BAHI3       010BAHEMA      ON      MA   R$  000000001205000000000121990000000011600000000001167500000000118000000000011502000000001189300031000000000000004400000000000051370400000000000000009999123100000010000000000000BRBAHIACNOR1071
012020091402BALM3       010BAUMER      ON           R$  000000000155000000000016000000000001530000000000156900000000015300000000001530000000000160000004000000000000000400000000000000627900000000000000009999123100000010000000000000BRBALMACNOR5050
012020091402BALM4       010BAUMER      PN           R$  000000000120000000000012500000000001200000000000122400000000012000000000001151000000000124900009000000000000000900000000000001101900000000000000009999123100000010000000000000BRBALMACNPR2051
012020091402BAUH4       010EXCELSIOR   PN           R$  000000000891100000000089110000000008700000000000889200000000087000000000008300000000000889800008000000000000002200000000000019563800000000000000009999123100000010000000000000BRBAUHACNPR3115
012020091402BAZA3       010AMAZONIA    ON           R$  000000000397000000000039700000000003912000000000393500000000039200000000003910000000000396500004000000000000000400000000000001574200000000000000009999123100000010000000000000BRBAZAACNOR0174
012020091402BBAS3       010BRASIL      ON  EJ  NM   R$  000000000322200000000032590000000003170000000000321900000000032360000000003236000000000323823339000000000011011900000000035452319200000000000000009999123100000010000000000000BRBBASACNOR3293
012020091402BBDC3       010BRADESCO    ON  EJ  N1   R$  000000000190200000000019190000000001869000000000189200000000019160000000001915000000000191610419000000000004168600000000007887174100000000000000009999123100000010000000000000BRBBDCACNOR1715
012020091402BBDC4       010BRADESCO    PN  EJ  N1   R$  000000000206600000000020780000000002022000000000205000000000020700000000002070000000000207154678000000000056766600000000116397075700000000000000009999123100000010000000000000BRBBDCACNPR8715
012020091402BBRK3       010BR BROKERS  ON      NM   R$  000000000016200000000001700000000000160000000000016600000000001700000000000168000000000017000407000000000000495300000000000082270700000000000000009999123100000010000000000000BRBBRKACNOR4113
012020091402BBSE3       010BBSEGURIDADEON      NM   R$  000000000257000000000026090000000002555000000000258000000000025860000000002586000000000260023252000000000003569300000000009211145600000000000000009999123100000010000000000000BRBBSEACNOR5117
012020091402BBYY34      010BEST BUY    DRN ED       R$  000000005616000000000561600000000056160000000005616000000000561600000000000000000000000000000001000000000000000010000000000000561600000000000000009999123100000010000000000000BRBBYYBDR005114
012020091402BCSA34      010SANTANDER   DRN          R$  000000000113100000000011420000000001126000000000113500000000011300000000001129000000000113000026000000000000002970000000000003371720000000000000009999123100000010000000000000BRBCSABDR005101
012020091402BEEF3       010MINERVA     ON      NM   R$  000000000130200000000013430000000001296000000000132200000000013270000000001327000000000132820431000000000008170600000000010805094700000000000000009999123100000010000000000000BRBEEFACNOR6108
012020091402BEES3       010BANESTES    ON           R$  000000000051600000000005260000000000512000000000051600000000005150000000000514000000000052200137000000000000033500000000000017294000000000000000009999123100000010000000000000BRBEESACNOR9339
012020091402BEES4       010BANESTES    PN           R$  000000000055000000000005600000000000550000000000055300000000005550000000000550000000000056000006000000000000000700000000000000387500000000000000009999123100000010000000000000BRBEESACNPR6264
012020091402BERK34      010BERKSHIRE   DRN          R$  000000011659000000001167070000000116000000000011651100000001163610000000115950000000011821800014000000000000000500000000000058255730000000000000009999123100000010000000000000BRBERKBDR002100
012020091402BGIP3       010BANESE      ON           R$  000000000454900000000045490000000004549000000000454900000000045490000000002701000000000479800001000000000000000100000000000000454900000000000000009999123100000010000000000000BRBGIPACNOR1199
012020091402BGIP4       010BANESE      PN           R$  000000000258100000000026450000000002581000000000260000000000025880000000002588000000000264500004000000000000000400000000000001040200000000000000009999123100000010000000000000BRBGIPACNPR8199
012020091402BHPG34      010BHP GROUP   DRN ED       R$  000000002910000000000291000000000029100000000002910000000000291000000000000000000000000000000001000000000000000200000000000005820000000000000000009999123100000010000000000000BRBHPGBDR007102
012020091402BIDI3       010BANCO INTER ON      N2   R$  000000000171500000000018700000000001701000000000180100000000018700000000001856000000000187002727000000000000459300000000000827457800000000000000009999123100000010000000000000BRBIDIACNOR3107
012020091402BIDI4       010BANCO INTER PN      N2   R$  000000000193700000000020580000000001937000000000201300000000020320000000002032000000000203807572000000000001909400000000003844528200000000000000009999123100000010000000000000BRBIDIACNPR0111
012020091402BIDI11      010BANCO INTER UNT     N2   R$  000000000560200000000059720000000005583000000000581400000000059170000000005915000000000591706154000000000001007300000000005856461100000000000000009999123100000010000000000000BRBIDICDAXX3106
012020091402BIOM3       010BIOMM       ON      MA   R$  000000000163500000000016920000000001630000000000166900000000016750000000001670000000000167500184000000000000036000000000000060114200000000000000009999123100000010000000000000BRBIOMACNOR2107
012020091402BKBR3       010BK BRASIL   ON      NM   R$  000000000106700000000011020000000001060000000000108100000000010830000000001083000000000109209582000000000002252000000000002435504600000000000000009999123100000010000000000000BRBKBRACNOR4103
012020091402BKNG34      010BOOKING     DRN          R$  000000003789500000000379790000000037500000000003784300000000378500000000036900000000005000000009000000000000000930000000000035194290000000000000009999123100000010000000000000BRBKNGBDR006100
012020091402BLAK34      010BLACKROCK   DRN ED       R$  000000004863000000000486300000000048630000000004863000000000486300000000000000000000000000000001000000000000000100000000000004863000000000000000009999123100000010000000000000BRBLAKBDR003118
012020091402BMEB3       010MERC BRASIL ON           R$  000000000162400000000016240000000001624000000000162400000000016240000000001600000000000168600002000000000000000300000000000000487200000000000000009999123100000010000000000000BRBMEBACNOR8196
012020091402BMEB4       010MERC BRASIL PN           R$  000000000162000000000016340000000001580000000000160500000000015800000000001580000000000161900020000000000000005100000000000008186000000000000000009999123100000010000000000000BRBMEBACNPR5201
012020091402BMGB4       010BANCO BMG   PN      N1   R$  000000000050900000000005150000000000506000000000051100000000005130000000000512000000000051502423000000000000702900000000000359407100000000000000009999123100000010000000000000BRBMGBACNPR0101
012020091402BMIN3       010MERC INVEST ON           R$  000000000214900000000021800000000002140000000000215600000000021680000000002102000000000240000007000000000000000800000000000001725000000000000000009999123100000010000000000000BRBMINACNOR4168
012020091402BMKS3       010BIC MONARK  ON           R$  000000002350100000000235010000000023501000000002350100000000235010000000021125000000002320000001000000000000000005000000000000117505000000000000009999123100000010000000000000BRBMKSACNOR9162
012020091402BNBR3       010NORD BRASIL ON           R$  000000000780100000000078010000000007760000000000777000000000077600000000007705000000000785000008000000000000000800000000000006216100000000000000009999123100000010000000000000BRBNBRACNOR8200
012020091402BOAC34      010BANK AMERICADRN ED       R$  000000001374100000000137410000000013565000000001364000000000136570000000012100000000001365700003000000000000000650000000000008866250000000000000009999123100000010000000000000BRBOACBDR004140
012020091402BOBR4       010BOMBRIL     PN           R$  000000000019400000000001990000000000193000000000019600000000001980000000000196000000000019800116000000000000078300000000000015406100000000000000009999123100000010000000000000BRBOBRACNPR3128
012020091402BOEI34      010BOEING      DRN          R$  000000008724600000000874000000000087246000000008727100000000874000000000000000000000010000000002000000000000000120000000000010472600000000000000009999123100000010000000000000BRBOEIBDR003132
012020091402BONY34      010BNY MELLON  DRN          R$  000000001906600000000190660000000019066000000001906600000000190660000000018600000000000000000001000000000000000010000000000000190660000000000000009999123100000010000000000000BRBONYBDR001120
012020091402BPAC3       010BTGP BANCO  ON      N2   R$  000000000445700000000046220000000004457000000000453500000000045010000000004483000000000462100022000000000000002500000000000011338000000000000000009999123100000010000000000000BRBPACACNOR7122
012020091402BPAC5       010BTGP BANCO  PNA     N2   R$  000000000175000000000017900000000001750000000000177200000000017720000000001772000000000179500025000000000000004200000000000007442400000000000000009999123100000010000000000000BRBPACACNPA0122
012020091402BPAC11      010BTGP BANCO  UNT     N2   R$  000000000792400000000081820000000007921000000000806600000000081480000000008140000000000814814244000000000003426200000000027638568800000000000000009999123100000010000000000000BRBPACUNT006107
012020091402BPAN4       010BANCO PAN   PN      N1   R$  000000000086000000000008820000000000848000000000086200000000008730000000000873000000000087408206000000000002525600000000002177426900000000000000009999123100000010000000000000BRBPANACNPR1109
012020091402BRAP3       010BRADESPAR   ON      N1   R$  000000000393600000000040000000000003863000000000388800000000039500000000003870000000000395000436000000000000048300000000000187820000000000000000009999123100000010000000000000BRBRAPACNOR5136
012020091402BRAP4       010BRADESPAR   PN      N1   R$  000000000451000000000045540000000004430000000000446600000000044550000000004455000000000446111635000000000002078300000000009283229500000000000000009999123100000010000000000000BRBRAPACNPR2136
012020091402BRDT3       010PETROBRAS BRON      NM   R$  000000000221400000000022620000000002207000000000223800000000022250000000002225000000000223820261000000000005786300000000012954584200000000000000009999123100000010000000000000BRBRDTACNOR1120
012020091402BRFS3       010BRF SA      ON      NM   R$  000000000203900000000020860000000002021000000000205800000000020740000000002074000000000207715819000000000006400400000000013178266800000000000000009999123100000010000000000000BRBRFSACNOR8119
012020091402BRGE3       010ALFA CONSORCON           R$  000000000092300000000009230000000000899000000000091900000000008990000000000898000000000099900005000000000000000700000000000000643700000000000000009999123100000010000000000000BRBRGEACNOR6202
012020091402BRGE12      010ALFA CONSORCPNF          R$  000000000067000000000006700000000000600000000000061100000000006220000000000607000000000062800012000000000000003300000000000002019400000000000000009999123100000010000000000000BRBRGEACNPF8096
012020091402BRIV4       010ALFA INVEST PN           R$  000000000074000000000007400000000000740000000000074000000000007400000000000722000000000074700002000000000000000300000000000000222000000000000000009999123100000010000000000000BRBRIVACNPR3211
012020091402BRKM3       010BRASKEM     ON      N1   R$  000000000219800000000022500000000002198000000000223300000000022380000000002238000000000224200021000000000000004000000000000008932900000000000000009999123100000010000000000000BRBRKMACNOR1117
012020091402BRKM5       010BRASKEM     PNA     N1   R$  000000000218000000000022400000000002176000000000221100000000021990000000002199000000000221006818000000000001972800000000004362100900000000000000009999123100000010000000000000BRBRKMACNPA4117
012020091402BRML3       010BR MALLS PARON      NM   R$  000000000094000000000009890000000000938000000000097600000000009860000000000985000000000098633858000000000018154900000000017720758100000000000000009999123100000010000000000000BRBRMLACNOR9115
012020091402BRPR3       010BR PROPERT  ON      NM   R$  000000000093000000000009870000000000921000000000096400000000009790000000000979000000000098009195000000000002702000000000002606138900000000000000009999123100000010000000000000BRBRPRACNOR9119
012020091402BRSR3       010BANRISUL    ON      N1   R$  000000000145500000000015050000000001441000000000149000000000014930000000001475000000000149800036000000000000007300000000000010877900000000000000009999123100000010000000000000BRBRSRACNOR3168
012020091402BRSR6       010BANRISUL    PNB     N1   R$  000000000130100000000013090000000001276000000000129200000000012790000000001279000000000128013187000000000004111000000000005312538200000000000000009999123100000010000000000000BRBRSRACNPB4171
012020091402BSEV3       010BIOSEV      ON      NM   R$  000000000050000000000005260000000000500000000000051100000000005110000000000506000000000051100434000000000000209000000000000106850900000000000000009999123100000010000000000000BRBSEVACNOR3102
012020091402BTOW3       010B2W DIGITAL ON      NM   R$  000000000991300000000101550000000009856000000001003400000000100470000000010047000000001005011009000000000002102900000000021101132900000000000000009999123100000010000000000000BRBTOWACNOR8111
012020091402BTTL3       010BATTISTELLA ON           R$  000000000111000000000011100000000001027000000000108600000000011090000000001100000000000110900021000000000000003600000000000003912200000000000000009999123100000010000000000000BRBTTLACNOR0108
012020091402C1CL34      010CARNIVAL CORDRN          R$  000000000938100000000093810000000009370000000000937100000000093700000000008900000000001300000007000000000000002000000000000018743300000000000000009999123100000010000000000000BRC1CLBDR004101
012020091402CAMB3       010CAMBUCI     ON           R$  000000000040800000000004180000000000403000000000040900000000004160000000000412000000000041700097000000000000041800000000000017110000000000000000009999123100000010000000000000BRCAMBACNOR4119
012020091402CAML3       010CAMIL       ON  EJ  NM   R$  000000000130200000000013600000000001302000000000134500000000013510000000001351000000000135308043000000000001665500000000002240889000000000000000009999123100000010000000000000BRCAMLACNOR3111
012020091402CARD3       010CSU CARDSYSTON      NM   R$  000000000146900000000015150000000001455000000000149400000000015080000000001508000000000151500854000000000000228600000000000341589900000000000000009999123100000010000000000000BRCARDACNOR9118
012020091402CATP34      010CATERPILLAR DRN          R$  000000008090000000000810300000000080900000000008102300000000810300000000000000000000000000000002000000000000000210000000000017015000000000000000009999123100000010000000000000BRCATPBDR003136
012020091402CBEE3       010AMPLA ENERG ON           R$  000000000171900000000017190000000001710000000000171600000000017100000000001600000000000170000004000000000000000400000000000000686700000000000000009999123100000010000000000000BRCBEEACNOR3155
012020091402CCPR3       010CYRE COM-CCPON      NM   R$  000000000140900000000014850000000001409000000000145400000000014610000000001461000000000146503051000000000000606400000000000881853700000000000000009999123100000010000000000000BRCCPRACNOR9114
012020091402CCRO3       010CCR SA      ON      NM   R$  000000000143800000000014920000000001431000000000147600000000014840000000001483000000000148418270000000000012100300000000017862753500000000000000009999123100000010000000000000BRCCROACNOR2137
012020091402CEAB3       010CEA MODAS   ON      NM   R$  000000000119200000000012990000000001192000000000126700000000012980000000001298000000000129910952000000000003000500000000003804422900000000000000009999123100000010000000000000BRCEABACNOR1101
012020091402CEBR3       010CEB         ON           R$  000000000675000000000067990000000006400000000000659700000000065000000000006401000000000670000018000000000000004900000000000032327100000000000000009999123100000010000000000000BRCEBRACNOR5118
012020091402CEBR6       010CEB         PNB          R$  000000000680000000000070000000000006800000000000690000000000070000000000006801000000000700000002000000000000000200000000000001380000000000000000009999123100000010000000000000BRCEBRACNPB6117
012020091402CEDO3       010CEDRO       ON      N1   R$  000000000097000000000010000000000000950000000000096600000000010000000000000960000000000100000021000000000000003300000000000003190300000000000000009999123100000010000000000000BRCEDOACNOR8096
012020091402CEDO4       010CEDRO       PN      N1   R$  000000000054400000000005590000000000530000000000054000000000005450000000000502000000000055400017000000000000004100000000000002216400000000000000009999123100000010000000000000BRCEDOACNPR5128
012020091402CEEB3       010COELBA      ON           R$  000000000409000000000040900000000004090000000000409000000000040900000000003807000000000409000001000000000000000100000000000000409000000000000000009999123100000010000000000000BRCEEBACNOR3179
012020091402CEEB5       010COELBA      PNA          R$  000000000400000000000042300000000003820000000000401000000000039810000000003967000000000440000019000000000000001900000000000007619300000000000000009999123100000010000000000000BRCEEBACNPA6173
012020091402CEED3       010CEEE-D      ON      N1   R$  000000000626000000000062600000000005900000000000607600000000061000000000005403000000000619900006000000000000000600000000000003646100000000000000009999123100000010000000000000BRCEEDACNOR9102
012020091402CESP3       010CESP        ON      N1   R$  000000000333600000000033360000000003201000000000328500000000032010000000003200000000000331400022000000000000003400000000000011169400000000000000009999123100000010000000000000BRCESPACNOR3169
012020091402CESP6       010CESP        PNB     N1   R$  000000000288900000000029100000000002860000000000288400000000028850000000002885000000000288606344000000000001705300000000004919662000000000000000009999123100000010000000000000BRCESPACNPB4128
012020091402CGAS5       010COMGAS      PNA          R$  000000001885400000000188960000000018600000000001869500000000186000000000018300000000001880000012000000000000001400000000000026173200000000000000009999123100000010000000000000BRCGASACNPA3148
012020091402CGRA3       010GRAZZIOTIN  ON           R$  000000000270000000000027100000000002700000000000270200000000027010000000002700000000000271000010000000000000001300000000000003513500000000000000009999123100000010000000000000BRCGRAACNOR2071
012020091402CGRA4       010GRAZZIOTIN  PN           R$  000000000270000000000027300000000002670000000000270000000000026880000000002670000000000269000066000000000000018000000000000048611700000000000000009999123100000010000000000000BRCGRAACNPR9071
012020091402CHVX34      010CHEVRON     DRN          R$  000000002046900000000204690000000020469000000002046900000000204690000000000000000000002046900001000000000000000110000000000002251590000000000000009999123100000010000000000000BRCHVXBDR008138
012020091402CIEL3       010CIELO       ON      NM   R$  000000000045000000000004770000000000444000000000046500000000004750000000000475000000000047627642000000000061649700000000028687710800000000000000009999123100000010000000000000BRCIELACNOR3142
012020091402CLSC3       010CELESC      ON      N2   R$  000000000599000000000059900000000005650000000000581000000000056510000000003800000000000596000004000000000000000400000000000002324000000000000000009999123100000010000000000000BRCLSCACNOR6136
012020091402CLSC4       010CELESC      PN      N2   R$  000000000556100000000055610000000005350000000000542100000000054480000000005423000000000544900120000000000000016100000000000087278400000000000000009999123100000010000000000000BRCLSCACNPR3115
012020091402CMCS34      010COMCAST     DRN          R$  000000002388500000000239970000000023885000000002389400000000239970000000022000000000002399700002000000000000000870000000000020787790000000000000009999123100000010000000000000BRCMCSBDR008135
012020091402CMIG3       010CEMIG       ON      N1   R$  000000000112000000000011550000000001113000000000113200000000011480000000001147000000000114904869000000000001963300000000002223717100000000000000009999123100000010000000000000BRCMIGACNOR6224
012020091402CMIG4       010CEMIG       PN      N1   R$  000000000108100000000010920000000001060000000000107400000000010820000000001081000000000108221693000000000009401400000000010100170200000000000000009999123100000010000000000000BRCMIGACNPR3225
012020091402CNTO3       010CENTAURO    ON      NM   R$  000000000287000000000029550000000002845000000000291300000000029220000000002922000000000293203849000000000000899700000000002621158400000000000000009999123100000010000000000000BRCNTOACNOR5100
012020091402COCA34      010COCA COLA   DRN ED       R$  000000002705500000000270550000000027055000000002705500000000270550000000026700000000000000000001000000000000000010000000000000270550000000000000009999123100000010000000000000BRCOCABDR002136
012020091402COCE5       010COELCE      PNA          R$  000000000602600000000060260000000005946000000000597100000000059610000000005951000000000596100047000000000000009100000000000054339100000000000000009999123100000010000000000000BRCOCEACNPA3140
012020091402COGN3       010COGNA ON    ON      NM   R$  000000000058200000000006060000000000570000000000059100000000005980000000000598000000000059941630000000000065130500000000038521897300000000000000009999123100000010000000000000BRCOGNACNOR2101
012020091402COTY34      010COTY INC    DRN          R$  000000000092400000000009240000000000894000000000090700000000008940000000000801000000000092600014000000000000007910000000000007180340000000000000009999123100000010000000000000BRCOTYBDR006116
012020091402COWC34      010COSTCO      DRN          R$  000000004533400000000453340000000045334000000004533400000000453340000000045000000000000000000001000000000000000200000000000009066800000000000000009999123100000010000000000000BRCOWCBDR006119
012020091402CPFE3       010CPFL ENERGIAON      NM   R$  000000000289800000000030050000000002878000000000295300000000030050000000003005000000000300713497000000000003030800000000008952646800000000000000009999123100000010000000000000BRCPFEACNOR0130
012020091402CPLE3       010COPEL       ON      N1   R$  000000000611000000000062250000000006085000000000618100000000062170000000006213000000000621702050000000000000367700000000002272934100000000000000009999123100000010000000000000BRCPLEACNOR8139
012020091402CPLE6       010COPEL       PNB     N1   R$  000000000636500000000064770000000006308000000000641100000000064560000000006453000000000645605264000000000000939300000000006022788200000000000000009999123100000010000000000000BRCPLEACNPB9136
012020091402CRFB3       010CARREFOUR BRON      NM   R$  000000000205600000000020740000000002040000000000205900000000020580000000002058000000000206307588000000000002693300000000005545705600000000000000009999123100000010000000000000BRCRFBACNOR2107
012020091402CRIV3       010ALFA FINANC ON           R$  000000000056500000000005650000000000540000000000055100000000005400000000000540000000000056500008000000000000001800000000000000992200000000000000009999123100000010000000000000BRCRIVACNOR4194
012020091402CRPG5       010CRISTAL     PNA          R$  000000000205000000000020500000000001970000000000200000000000019850000000001984000000000202000083000000000000024000000000000048009800000000000000009999123100000010000000000000BRCRPGACNPA3108
012020091402CSAB3       010SEG AL BAHIAON           R$  000000000470000000000049990000000004700000000000484900000000049990000000004511000000000498900002000000000000000200000000000000969900000000000000009999123100000010000000000000BRCSABACNOR1058
012020091402CSAN3       010COSAN       ON      NM   R$  000000000750500000000075500000000007326000000000741600000000074240000000007424000000000742508981000000000001517500000000011253909800000000000000009999123100000010000000000000BRCSANACNOR6120
012020091402CSMG3       010COPASA      ON      NM   R$  000000000480100000000048170000000004745000000000478400000000047850000000004780000000000478704694000000000000899400000000004303239000000000000000009999123100000010000000000000BRCSMGACNOR5156
012020091402CSNA3       010SID NACIONALON           R$  000000000161000000000016430000000001595000000000161700000000016200000000001620000000000162125651000000000012052200000000019488884100000000000000009999123100000010000000000000BRCSNAACNOR6252
012020091402CTGP34      010CITIGROUP   DRN          R$  000000002552400000000255820000000025524000000002552600000000255820000000000000000000002558200003000000000000001460000000000037268520000000000000009999123100000010000000000000BRCTGPBDR000139
012020091402CTKA3       010KARSTEN     ON           R$  000000000150000000000015000000000001499000000000149900000000014990000000001370000000000150000003000000000000000300000000000000449900000000000000009999123100000010000000000000BRCTKAACNOR0043
012020091402CTKA4       010KARSTEN     PN           R$  000000000116600000000011890000000001166000000000117700000000011890000000001173000000000120000002000000000000000200000000000000235500000000000000009999123100000010000000000000BRCTKAACNPR7043
012020091402CTNM3       010COTEMINAS   ON           R$  000000000109100000000010910000000001086000000000108800000000010860000000001085000000000109900002000000000000000200000000000000217700000000000000009999123100000010000000000000BRCTNMACNOR9130
012020091402CTNM4       010COTEMINAS   PN           R$  000000000056800000000005710000000000550000000000056100000000005600000000000560000000000058300050000000000000026200000000000014701000000000000000009999123100000010000000000000BRCTNMACNPR6129
012020091402CTSA3       010SANTANENSE  ON           R$  000000000025400000000002610000000000253000000000025600000000002610000000000257000000000026100017000000000000003900000000000001001000000000000000009999123100000010000000000000BRCTSAACNOR3060
012020091402CTSA4       010SANTANENSE  PN           R$  000000000023000000000002300000000000218000000000022300000000002290000000000221000000000022900032000000000000010000000000000002231600000000000000009999123100000010000000000000BRCTSAACNPR0060
012020091402CVCB3       010CVC BRASIL  ON      NM   R$  000000000171900000000017790000000001705000000000173800000000017640000000001762000000000176416607000000000005707900000000009925852300000000000000009999123100000010000000000000BRCVCBACNOR1113
012020091402CYRE3       010CYRELA REALTON      NM   R$  000000000239400000000024730000000002381000000000244600000000024610000000002460000000000246124321000000000005116700000000012516495900000000000000009999123100000010000000000000BRCYREACNOR7134
012020091402D1LR34      010DIGITAL REALDRN ED       R$  000000001930000000000193000000000019300000000001930000000000193000000000000000000000000000000001000000000000000060000000000001158000000000000000009999123100000010000000000000BRD1LRBDR001103
012020091402DASA3       010DASA        ON           R$  000000000650000000000068250000000006500000000000654600000000068250000000006500000000000682500003000000000000000700000000000004582500000000000000009999123100000010000000000000BRDASAACNOR1119
012020091402DEOP34      010DIAGEO PL   DRN          R$  000000007153000000000715300000000071530000000007153000000000715300000000000000000000000000000001000000000000000010000000000000715300000000000000009999123100000010000000000000BRDEOPBDR004102
012020091402DGCO34      010DOLLAR GENERDRN          R$  000000005370000000000537350000000053700000000005370100000000537350000000000000000000000000000002000000000000000210000000000011277350000000000000009999123100000010000000000000BRDGCOBDR007105
012020091402DIRR3       010DIRECIONAL  ON      NM   R$  000000000153400000000015550000000001505000000000153200000000015460000000001546000000000154706651000000000001319200000000002022018600000000000000009999123100000010000000000000BRDIRRACNOR0112
012020091402DISB34      010WALT DISNEY DRN          R$  000000007049900000000704990000000069209000000006985800000000695000000000069200000000007100000058000000000000004810000000000336019920000000000000009999123100000010000000000000BRDISBBDR006114
012020091402DMMO3       010DOMMO       ON           R$  000000000011900000000001220000000000117000000000011900000000001210000000000120000000000012100961000000000001832000000000000218432300000000000000009999123100000010000000000000BRDMMOACNOR0102
012020091402DMVF3       010D1000VFARMA ON      NM   R$  000000000113000000000011510000000001116000000000113100000000011300000000001128000000000113001505000000000000559900000000000633678600000000000000009999123100000010000000000000BRDMVFACNOR9100
012020091402DOHL3       010DOHLER      ON           R$  000000000149900000000014990000000001499000000000149900000000014990000000001000000000000149500002000000000000000200000000000000299800000000000000009999123100000010000000000000BRDOHLACNOR2058
012020091402DOHL4       010DOHLER      PN           R$  000000000051400000000005140000000000510000000000051200000000005100000000000510000000000051400004000000000000000400000000000000205000000000000000009999123100000010000000000000BRDOHLACNPR9061
012020091402DTCY3       010DTCOM-DIRECTON           R$  000000000067800000000006780000000000645000000000064900000000006460000000000655000000000067400006000000000000001000000000000000649000000000000000009999123100000010000000000000BRDTCYACNOR5109
012020091402DTEX3       010DURATEX     ON      NM   R$  000000000171900000000017650000000001710000000000174700000000017640000000001763000000000176405273000000000001530700000000002674836500000000000000009999123100000010000000000000BRDTEXACNOR3128
012020091402E1SS34      010ESSEX PROPERDRN          R$  000000001180000000000118000000000011800000000001180000000000118000000000000000000000000000000001000000000000000100000000000001180000000000000000009999123100000010000000000000BRE1SSBDR003102
012020091402E1TN34      010EATON CORP PDRN          R$  000000002740000000000274000000000027400000000002740000000000274000000000000000000000000000000001000000000000000300000000000008220000000000000000009999123100000010000000000000BRE1TNBDR002103
012020091402EAIN34      010ELECTR ARTS DRN          R$  000000003390000000000339000000000033449000000003356900000000334490000000033000000000005650000003000000000000000040000000000001342770000000000000009999123100000010000000000000BREAINBDR007100
012020091402EALT3       010ACO ALTONA  ON           R$  000000000125900000000012590000000001259000000000125900000000012590000000001200000000000125000002000000000000000200000000000000251800000000000000009999123100000010000000000000BREALTACNOR4133
012020091402EALT4       010ACO ALTONA  PN           R$  000000000052500000000005330000000000517000000000052200000000005230000000000523000000000052500033000000000000010800000000000005646900000000000000009999123100000010000000000000BREALTACNPR1133
012020091402EBAY34      010EBAY        DRN          R$  000000001412000000000141200000000014120000000001412000000000141200000000000000000000000000000001000000000000000010000000000000141200000000000000009999123100000010000000000000BREBAYBDR009108
012020091402ECOR3       010ECORODOVIAS ON      NM   R$  000000000131000000000013600000000001307000000000134600000000013600000000001355000000000136011116000000000003874800000000005219321200000000000000009999123100000010000000000000BRECORACNOR8116
012020091402EGIE3       010ENGIE BRASILON      NM   R$  000000000434300000000043430000000004270000000000430300000000043280000000004320000000000432805757000000000001034500000000004452193900000000000000009999123100000010000000000000BREGIEACNOR9113
012020091402ELET3       010ELETROBRAS  ON      N1   R$  000000000344600000000034690000000003372000000000343500000000034370000000003437000000000344116747000000000004350600000000014948357800000000000000009999123100000010000000000000BRELETACNOR6155
012020091402ELET6       010ELETROBRAS  PNB     N1   R$  000000000355400000000035730000000003474000000000353100000000035420000000003542000000000354510359000000000002124500000000007502021700000000000000009999123100000010000000000000BRELETACNPB7072
012020091402EMAE4       010EMAE        PN           R$  000000000322200000000034800000000003222000000000331300000000033360000000003336000000000340000030000000000000016900000000000056002700000000000000009999123100000010000000000000BREMAEACNPR1114
012020091402EMBR3       010EMBRAER     ON      NM   R$  000000000069000000000006950000000000673000000000068400000000006900000000000689000000000069012669000000000009915500000000006783491600000000000000009999123100000010000000000000BREMBRACNOR4189
012020091402ENAT3       010ENAUTA PART ON      NM   R$  000000000107500000000010950000000001063000000000108100000000010820000000001082000000000108303655000000000000761900000000000823960800000000000000009999123100000010000000000000BRENATACNOR0101
012020091402ENBR3       010ENERGIAS BR ON      NM   R$  000000000184400000000018660000000001831000000000184900000000018470000000001847000000000185110035000000000002006900000000003711516900000000000000009999123100000010000000000000BRENBRACNOR2129
012020091402ENEV3       010ENEVA       ON      NM   R$  000000000474100000000048130000000004693000000000477600000000047760000000004771000000000477605912000000000002282200000000010900495500000000000000009999123100000010000000000000BRENEVACNOR8104
012020091402ENGI3       010ENERGISA    ON      N2   R$  000000000132400000000013540000000001319000000000133900000000013540000000001322000000000135400078000000000000012000000000000016074600000000000000009999123100000010000000000000BRENGIACNOR0138
012020091402ENGI4       010ENERGISA    PN      N2   R$  000000000075800000000008000000000000758000000000078400000000007990000000000774000000000080000093000000000000020200000000000015854300000000000000009999123100000010000000000000BRENGIACNPR7134
012020091402ENGI11      010ENERGISA    UNT     N2   R$  000000000439500000000045600000000004359000000000446300000000045040000000004503000000000450506564000000000001825100000000008145847200000000000000009999123100000010000000000000BRENGICDAM16128
012020091402ENMT3       010ENERGISA MT ON           R$  000000000298900000000029900000000002920000000000297900000000029900000000002600000000000299000006000000000000000700000000000002085700000000000000009999123100000010000000000000BRENMTACNOR5111
012020091402ENMT4       010ENERGISA MT PN           R$  000000000299000000000029900000000002900000000000297300000000029900000000002700000000000299000006000000000000000600000000000001784300000000000000009999123100000010000000000000BRENMTACNPR2114
012020091402EQMA3B      010EQTLMARANHAOON      MB   R$  000000000437800000000043780000000004378000000000437800000000043780000000004201000000000437900002000000000000002600000000000011382800000000000000009999123100000010000000000000BREQMAACNOR8101
012020091402EQPA3       010EQTL PARA   ON           R$  000000000032400000000003370000000000322000000000032500000000003300000000000323000000000033000050000000000000010400000000000003388600000000000000009999123100000010000000000000BREQPAACNOR1101
012020091402EQTL3       010EQUATORIAL  ON      NM   R$  000000000230000000000023310000000002287000000000231100000000023240000000002322000000000232409866000000000002425000000000005604635200000000000000009999123100000010000000000000BREQTLACNOR0126
012020091402ESTR4       010ESTRELA     PN           R$  000000000300000000000030000000000002950000000000295700000000029500000000002950000000000312000008000000000000000900000000000002661800000000000000009999123100000010000000000000BRESTRACNPR0143
012020091402EUCA3       010EUCATEX     ON      N1   R$  000000000231400000000023590000000002314000000000232600000000023590000000002259000000000235900008000000000000001300000000000003024700000000000000009999123100000010000000000000BREUCAACNOR1151
012020091402EUCA4       010EUCATEX     PN      N1   R$  000000000067000000000007330000000000661000000000070200000000007100000000000701000000000071000716000000000000272200000000000191114300000000000000009999123100000010000000000000BREUCAACNPR8038
012020091402EVEN3       010EVEN        ON      NM   R$  000000000126000000000013010000000001241000000000127800000000012810000000001281000000000128407604000000000002073800000000002650948100000000000000009999123100000010000000000000BREVENACNOR8112
012020091402EXXO34      010EXXON MOBIL DRN          R$  000000000492500000000049250000000004851000000000487000000000048600000000004845000000000486000005000000000000000430000000000002094410000000000000009999123100000010000000000000BREXXOBDR006140
012020091402EZTC3       010EZTEC       ON      NM   R$  000000000393900000000041120000000003925000000000405300000000040990000000004093000000000409910013000000000001973700000000008000120600000000000000009999123100000010000000000000BREZTCACNOR0114
012020091402F1IS34      010FISERV INC  DRN          R$  000000002504700000000257000000000025047000000002538400000000257000000000000000000000000000000003000000000000000620000000000015738100000000000000009999123100000010000000000000BRF1ISBDR003100
012020091402F1NI34      010FIDELITY NATDRN ED       R$  000000001930000000000193000000000019220000000001925600000000192200000000000000000000000000000003000000000000000660000000000012709200000000000000009999123100000010000000000000BRF1NIBDR004103
012020091402FBOK34      010FACEBOOK    DRN          R$  000000007189900000000731680000000070478000000007093300000000705730000000070500000000007968800019000000000000002480000000000175914550000000000000009999123100000010000000000000BRFBOKBDR006100
012020091402FCXO34      010FREEPORT    DRN          R$  000000000869200000000086920000000008664000000000868100000000086640000000000000000000000000000002000000000000000180000000000001562600000000000000009999123100000010000000000000BRFCXOBDR007132
012020091402FESA3       010FERBASA     ON  EJ  N1   R$  000000000265900000000026590000000002659000000000265900000000026590000000002530000000000290000001000000000000000100000000000000265900000000000000009999123100000010000000000000BRFESAACNOR8171
012020091402FESA4       010FERBASA     PN  EJ  N1   R$  000000000175600000000018240000000001756000000000178700000000018240000000001800000000000182400396000000000000113200000000000202344900000000000000009999123100000010000000000000BRFESAACNPR5067
012020091402FLRY3       010FLEURY      ON      NM   R$  000000000280100000000029110000000002801000000000286800000000029000000000002898000000000290011099000000000001591100000000004563491100000000000000009999123100000010000000000000BRFLRYACNOR5127
012020091402FRAS3       010FRAS-LE     ON      N1   R$  000000000052300000000005380000000000523000000000052700000000005380000000000526000000000053800325000000000000079300000000000041813900000000000000009999123100000010000000000000BRFRASACNOR0149
012020091402GEOO34      010GE          DRN          R$  000000000325400000000032540000000003254000000000325400000000032540000000002989000000000325400001000000000000000270000000000000878580000000000000009999123100000010000000000000BRGEOOBDR000140
012020091402GEPA3       010GER PARANAP ON           R$  000000000422000000000043800000000004050000000000421700000000041830000000004182000000000429900070000000000000008400000000000035422800000000000000009999123100000010000000000000BRGEPAACNOR2146
012020091402GEPA4       010GER PARANAP PN           R$  000000000463600000000047150000000004621000000000468000000000047150000000004500000000000469800004000000000000000500000000000002340000000000000000009999123100000010000000000000BRGEPAACNPR9153
012020091402GFSA3       010GAFISA      ON      NM   R$  000000000045500000000004730000000000453000000000046100000000004710000000000470000000000047104161000000000004682300000000002162572900000000000000009999123100000010000000000000BRGFSAACNOR3119
012020091402GGBR3       010GERDAU      ON      N1   R$  000000000167500000000016860000000001652000000000166400000000016860000000001660000000000168600192000000000000039300000000000065426300000000000000009999123100000010000000000000BRGGBRACNOR1173
012020091402GGBR4       010GERDAU      PN      N1   R$  000000000201500000000020320000000001989000000000201000000000020280000000002028000000000202919662000000000010316800000000020743835300000000000000009999123100000010000000000000BRGGBRACNPR8173
012020091402GMCO34      010GENERAL MOT DRN          R$  000000001643700000000166690000000016300000000001647900000000164990000000010000000000000000000011000000000000001370000000000022576570000000000000009999123100000010000000000000BRGMCOBDR008115
012020091402GNDI3       010INTERMEDICA ON      NM   R$  000000000706200000000073000000000007041000000000722000000000073000000000007295000000000730011310000000000001759200000000012702025200000000000000009999123100000010000000000000BRGNDIACNOR2102
012020091402GOAU3       010GERDAU MET  ON      N1   R$  000000000080100000000008070000000000781000000000079600000000008070000000000800000000000080700181000000000000070500000000000056125000000000000000009999123100000010000000000000BRGOAUACNOR1250
012020091402GOAU4       010GERDAU MET  PN      N1   R$  000000000091800000000009230000000000899000000000090700000000009140000000000914000000000091514457000000000013428600000000012192574000000000000000009999123100000010000000000000BRGOAUACNPR8251
012020091402GOGL34      010ALPHABET    DRN A        R$  000000003258000000000330000000000031850000000003225900000000320730000000031900000000003207300072000000000000007910000000000255174480000000000000009999123100000010000000000000BRGOGLBDR001100
012020091402GOGL35      010ALPHABET    DRN C        R$  000000003251400000000325140000000032304000000003246100000000323040000000000000000000003230400002000000000000000160000000000005193840000000000000009999123100000010000000000000BRGOGLBDR019100
012020091402GOLL4       010GOL         PN      N2   R$  000000000203000000000021300000000001997000000000207800000000021200000000002120000000000212125398000000000013641300000000028347712700000000000000009999123100000010000000000000BRGOLLACNPR4125
012020091402GPAR3       010CELGPAR     ON           R$  000000000315000000000031500000000003031000000000310600000000031380000000001005000000000312200003000000000000000300000000000000931900000000000000009999123100000010000000000000BRGPARACNOR4104
012020091402GPIV33      010GP INVEST   DR3          R$  000000000049400000000005200000000000473000000000049600000000005050000000000489000000000050900286000000000000195500000000000097080100000000000000009999123100000010000000000000BRGPIVBDR003104
012020091402GPRK34      010GEOPARK LTD DRN          R$  000000000418100000000041810000000004171000000000417300000000041710000000000000000000000000000005000000000000000900000000000003755900000000000000009999123100000010000000000000BRGPRKBDR007103
012020091402GRND3       010GRENDENE    ON      NM   R$  000000000078000000000007930000000000774000000000078300000000007880000000000788000000000079003165000000000000983100000000000770403900000000000000009999123100000010000000000000BRGRNDACNOR3158
012020091402GSHP3       010GENERALSHOPPON      NM   R$  000000000480000000000048000000000004800000000000480000000000048000000000004770000000000550000001000000000000000400000000000001920000000000000000009999123100000010000000000000BRGSHPACNOR7102
012020091402GUAR3       010GUARARAPES  ON           R$  000000000170300000000017620000000001695000000000173100000000017420000000001740000000000174203915000000000001688600000000002923417400000000000000009999123100000010000000000000BRGUARACNOR4165
012020091402HAGA3       010HAGA S/A    ON           R$  000000000035300000000003530000000000321000000000033500000000003210000000000321000000000034500038000000000000017200000000000005774300000000000000009999123100000010000000000000BRHAGAACNOR7103
012020091402HAGA4       010HAGA S/A    PN           R$  000000000020300000000002030000000000195000000000019800000000001970000000000197000000000020000085000000000000072400000000000014351200000000000000009999123100000010000000000000BRHAGAACNPR4103
012020091402HAPV3       010HAPVIDA     ON  EJ  NM   R$  000000000637300000000066670000000006364000000000658000000000066020000000006600000000000660208826000000000001302100000000008567887400000000000000009999123100000010000000000000BRHAPVACNOR4106
012020091402HBOR3       010HELBOR      ON      NM   R$  000000000113000000000011760000000001128000000000115500000000011640000000001164000000000116503232000000000002159300000000002494185700000000000000009999123100000010000000000000BRHBORACNOR3114
012020091402HETA4       010HERCULES    PN           R$  000000000073800000000007800000000000730000000000075500000000007770000000000735000000000079400010000000000000001500000000000001133000000000000000009999123100000010000000000000BRHETAACNPR9136
012020091402HGTX3       010CIA HERING  ON      NM   R$  000000000189000000000019790000000001870000000000193400000000019590000000001959000000000196012084000000000004520100000000008743749600000000000000009999123100000010000000000000BRHGTXACNOR9151
012020091402HOME34      010HOME DEPOT  DRN ED       R$  000000007439700000000743970000000074155000000007418900000000741550000000000000000000000000000002000000000000000350000000000025966350000000000000009999123100000010000000000000BRHOMEBDR002134
012020091402HYPE3       010HYPERA      ON      NM   R$  000000000309400000000031560000000003067000000000311400000000031240000000003121000000000312511828000000000002100800000000006543079200000000000000009999123100000010000000000000BRHYPEACNOR0122
012020091402I1CE34      010INTERCONTINEDRN          R$  000000002667000000000266700000000026670000000002667000000000266700000000000000000000000000000001000000000000000270000000000007200900000000000000009999123100000010000000000000BRI1CEBDR003102
012020091402IDVL3       010INDUSVAL    ON      N2   R$  000000000024800000000002500000000000247000000000024800000000002500000000000249000000000025000027000000000000013900000000000003460500000000000000009999123100000010000000000000BRIDVLACNOR5130
012020091402IDVL4       010INDUSVAL    PN      N2   R$  000000000024300000000002580000000000243000000000024700000000002490000000000245000000000024900015000000000000006800000000000001679600000000000000009999123100000010000000000000BRIDVLACNPR2130
012020091402IGTA3       010IGUATEMI    ON      NM   R$  000000000344800000000036250000000003434000000000356400000000035990000000003593000000000360213027000000000002769800000000009873420500000000000000009999123100000010000000000000BRIGTAACNOR5124
012020091402IRBR3       010IRBBRASIL REON      NM   R$  000000000060900000000006180000000000594000000000060500000000006120000000000612000000000061425996000000000029627000000000017945353800000000000000009999123100000010000000000000BRIRBRACNOR4108
012020091402ITLC34      010INTEL       DRN          R$  000000002628300000000262830000000026139000000002617100000000261940000000025600000000002619400003000000000000000190000000000004972590000000000000009999123100000010000000000000BRITLCBDR005139
012020091402ITSA3       010ITAUSA      ON      N1   R$  000000000106100000000010700000000001052000000000105700000000010640000000001064000000000106800904000000000000241000000000000254941600000000000000009999123100000010000000000000BRITSAACNOR0401
012020091402ITSA4       010ITAUSA      PN      N1   R$  000000000093900000000009450000000000923000000000093300000000009380000000000938000000000093923804000000000017436600000000016282500600000000000000009999123100000010000000000000BRITSAACNPR7401
012020091402ITUB3       010ITAUUNIBANCOON      N1   R$  000000000225500000000022830000000002219000000000226100000000022710000000002271000000000227701975000000000000420300000000000950324300000000000000009999123100000010000000000000BRITUBACNOR4273
012020091402ITUB4       010ITAUUNIBANCOPN      N1   R$  000000000237900000000024220000000002332000000000238200000000024050000000002405000000000240658795000000000043488900000000103609893900000000000000009999123100000010000000000000BRITUBACNPR1273
012020091402JBDU3       010J B DUARTE  ON           R$  000000000020600000000002100000000000200000000000020300000000002060000000000206000000000020700051000000000000027600000000000005627700000000000000009999123100000010000000000000BRJBDUACNOR6142
012020091402JBDU4       010J B DUARTE  PN           R$  000000000011800000000001240000000000118000000000012000000000001210000000000120000000000012100056000000000000017900000000000002161100000000000000009999123100000010000000000000BRJBDUACNPR3142
012020091402JBSS3       010JBS         ON      NM   R$  000000000227400000000023450000000002263000000000231800000000023210000000002321000000000232228121000000000016086600000000037303894100000000000000009999123100000010000000000000BRJBSSACNOR8115
012020091402JHSF3       010JHSF PART   ON      NM   R$  000000000073600000000007680000000000736000000000075200000000007650000000000764000000000076518303000000000013533900000000010189831900000000000000009999123100000010000000000000BRJHSFACNOR2116
012020091402JNJB34      010JOHNSON     DRN          R$  000000007870100000000787010000000078624000000007862600000000786390000000000000000000007863900003000000000000001260000000000099069000000000000000009999123100000010000000000000BRJNJBBDR002135
012020091402JOPA3       010JOSAPAR     ON           R$  000000000325000000000032500000000003250000000000325000000000032500000000003009000000000330000001000000000000000100000000000000325000000000000000009999123100000010000000000000BRJOPAACNOR5131
012020091402JPMC34      010JPMORGAN    DRN          R$  000000002700000000000273610000000027000000000002715900000000271870000000027100000000002718700009000000000000002020000000000054861570000000000000009999123100000010000000000000BRJPMCBDR009134
012020091402JPSA3       010JEREISSATI  ON           R$  000000000227400000000023570000000002250000000000233900000000023410000000002340000000000234901474000000000000250400000000000585923600000000000000009999123100000010000000000000BRJPSAACNOR6103
012020091402JSLG11      010JSL         ON  P   NM   R$  000000000091200000000009270000000000912000000000091900000000009200000000000913000000000092300560000000000000496100000000000456286600000000000000009999123100000010000000000000BRJSLGA02OR1100
012020091402JSLG3       010JSL         ON      NM   R$  000000000314400000000032370000000003144000000000319800000000031930000000003193000000000320604202000000000001004900000000003214457500000000000000009999123100000010000000000000BRJSLGACNOR2114
012020091402KEPL3       010KEPLER WEBERON           R$  000000000424300000000043000000000004224000000000424000000000042890000000004248000000000428901020000000000000558800000000002369493800000000000000009999123100000010000000000000BRKEPLACNOR1049
012020091402KLBN3       010KLABIN S/A  ON      N2   R$  000000000051100000000005240000000000507000000000051600000000005170000000000517000000000052100851000000000000267700000000000138330000000000000000009999123100000010000000000000BRKLBNACNOR2156
012020091402KLBN4       010KLABIN S/A  PN      N2   R$  000000000047600000000004890000000000475000000000048300000000004890000000000488000000000048901625000000000000897300000000000433598400000000000000009999123100000010000000000000BRKLBNACNPR9156
012020091402KLBN11      010KLABIN S/A  UNT     N2   R$  000000000242300000000024820000000002412000000000245900000000024750000000002472000000000247516591000000000003470000000000008534508900000000000000009999123100000010000000000000BRKLBNCDAM18128
012020091402LAME3       010LOJAS AMERICON      N1   R$  000000000254000000000026810000000002540000000000264600000000026680000000002662000000000266811319000000000002305000000000006099981500000000000000009999123100000010000000000000BRLAMEACNOR9202
012020091402LAME4       010LOJAS AMERICPN      N1   R$  000000000298900000000031490000000002978000000000310000000000031150000000003114000000000311631113000000000009096900000000028201630300000000000000009999123100000010000000000000BRLAMEACNPR6202
012020091402LAVV3       010LAVVI       ON      NM   R$  000000000080000000000008260000000000794000000000080200000000008120000000000805000000000081206321000000000002456700000000001971303400000000000000009999123100000010000000000000BRLAVVACNOR4100
012020091402LBRN34      010L BRANDS    DRN          R$  000000000378700000000037940000000003787000000000378900000000037940000000000000000000000000000002000000000000000430000000000001629320000000000000009999123100000010000000000000BRLBRNBDR001119
012020091402LCAM3       010LOCAMERICA  ON      NM   R$  000000000214400000000022270000000002125000000000218200000000022170000000002215000000000221709709000000000002891600000000006311485300000000000000009999123100000010000000000000BRLCAMACNOR3133
012020091402LEVE3       010METAL LEVE  ON      NM   R$  000000000173500000000017970000000001726000000000176600000000017970000000001797000000000179801727000000000000397400000000000702079700000000000000009999123100000010000000000000BRLEVEACNOR2187
012020091402LIGT3       010LIGHT S/A   ON      NM   R$  000000000147500000000014940000000001448000000000147500000000014820000000001482000000000149004389000000000001258400000000001856254300000000000000009999123100000010000000000000BRLIGTACNOR2120
012020091402LINX3       010LINX        ON      NM   R$  000000000356100000000036500000000003545000000000360400000000036100000000003606000000000361007216000000000001875700000000006761011400000000000000009999123100000010000000000000BRLINXACNOR0118
012020091402LJQQ3       010QUERO-QUERO ON      NM   R$  000000000146700000000014960000000001451000000000147200000000014700000000001463000000000147001807000000000000698400000000001028252800000000000000009999123100000010000000000000BRLJQQACNOR5100
012020091402LOGG3       010LOG COM PROPON      NM   R$  000000000306000000000031620000000003060000000000313500000000031110000000003111000000000312901664000000000000282800000000000886823300000000000000009999123100000010000000000000BRLOGGACNOR7103
012020091402LOGN3       010LOG-IN      ON      NM   R$  000000000189800000000019280000000001838000000000186000000000018410000000001841000000000184203936000000000001101600000000002049471200000000000000009999123100000010000000000000BRLOGNACNOR3104
012020091402LPSB3       010LOPES BRASILON      NM   R$  000000000054400000000005930000000000544000000000057100000000005910000000000580000000000059103929000000000001686700000000000963427900000000000000009999123100000010000000000000BRLPSBACNOR0111
012020091402LREN3       010LOJAS RENNERON      NM   R$  000000000434800000000045380000000004335000000000445800000000044980000000004498000000000450237046000000000009465800000000042207664000000000000000009999123100000010000000000000BRLRENACNOR1203
012020091402LUXM4       010TREVISA     PN           R$  000000000461500000000046150000000004615000000000461500000000046150000000004550000000000467900001000000000000000100000000000000461500000000000000009999123100000010000000000000BRLUXMACNPR4047
012020091402LWSA3       010LOCAWEB     ON      NM   R$  000000000596900000000061360000000005904000000000603700000000061030000000006101000000000610307673000000000001437500000000008678480100000000000000009999123100000010000000000000BRLWSAACNOR8100
012020091402M1PC34      010MARATHON PETDRN          R$  000000001697800000000169780000000016978000000001697800000000169780000000000000000000000000000004000000000000000070000000000001188460000000000000009999123100000010000000000000BRM1PCBDR003103
012020091402MAPT4       010CEMEPE      PN           R$  000000000450000000000045500000000004200000000000441500000000043700000000004300000000000439000016000000000000001600000000000007065000000000000000009999123100000010000000000000BRMAPTACNPR5106
012020091402MCDC34      010MCDONALDS   DRN          R$  000000002901100000000291220000000029011000000002911800000000291220000000000000000000003000000002000000000000001440000000000041931240000000000000009999123100000010000000000000BRMCDCBDR000140
012020091402MDIA3       010M.DIASBRANCOON      NM   R$  000000000359700000000037380000000003573000000000367300000000037330000000003720000000000373305810000000000001114200000000004092497000000000000000009999123100000010000000000000BRMDIAACNOR7118
012020091402MDNE3       010MOURA DUBEUXON      NM   R$  000000000088500000000009180000000000874000000000090100000000008850000000000885000000000089302500000000000000627300000000000565495600000000000000009999123100000010000000000000BRMDNEACNOR9100
012020091402MDTC34      010MEDTRONIC   DRN          R$  000000002831600000000283160000000028316000000002831600000000283160000000000000000000000000000001000000000000000010000000000000283160000000000000009999123100000010000000000000BRMDTCBDR004117
012020091402MEAL3       010IMC S/A     ON      NM   R$  000000000037300000000003820000000000367000000000037300000000003820000000000382000000000038309422000000000013884100000000005188556100000000000000009999123100000010000000000000BRMEALACNOR9105
012020091402MELI34      010MERCADOLIBREDRN          R$  000000005647900000000567990000000054415000000005554200000000567990000000054959000000005679900108000000000000003310000000000183847290000000000000009999123100000010000000000000BRMELIBDR006100
012020091402MGEL4       010MANGELS INDLPN           R$  000000000054800000000005880000000000548000000000055700000000005880000000000550000000000058800006000000000000001600000000000000891200000000000000009999123100000010000000000000BRMGELACNPR3147
012020091402MGLU3       010MAGAZ LUIZA ON      NM   R$  000000000892000000000091870000000008900000000000907400000000090300000000009029000000000903047096000000000012471200000000113175322400000000000000009999123100000010000000000000BRMGLUACNOR2116
012020091402MILS3       010MILLS       ON      NM   R$  000000000070500000000007100000000000693000000000070100000000006970000000000697000000000069904505000000000002260700000000001586343600000000000000009999123100000010000000000000BRMILSACNOR2112
012020091402MMMC34      0103M          DRN          R$  000000002224500000000222450000000022245000000002224500000000222450000000015000000000000000000001000000000000000500000000000011122500000000000000009999123100000010000000000000BRMMMCBDR000134
012020091402MNDL3       010MUNDIAL     ON           R$  000000000240000000000024000000000002390000000000239800000000024000000000002290000000000239900003000000000000000500000000000001199000000000000000009999123100000010000000000000BRMNDLACNOR4107
012020091402MNPR3       010MINUPAR     ON           R$  000000000055100000000006000000000000546000000000056600000000006000000000000560000000000060000010000000000000001000000000000000566300000000000000009999123100000010000000000000BRMNPRACNOR5122
012020091402MOAR3       010MONT ARANHA ON           R$  000000001920000000000204000000000019100000000001978100000000204000000000019200000000002050000005000000000000000600000000000011869000000000000000009999123100000010000000000000BRMOARACNOR5212
012020091402MOVI3       010MOVIDA      ON      NM   R$  000000000170500000000017790000000001691000000000174000000000017790000000001776000000000177906811000000000001761800000000003066208600000000000000009999123100000010000000000000BRMOVIACNOR0111
012020091402MRCK34      010MERCK       DRN ED       R$  000000004498900000000449890000000044796000000004480900000000447960000000044370000000000000000002000000000000000430000000000019268070000000000000009999123100000010000000000000BRMRCKBDR003140
012020091402MRFG3       010MARFRIG     ON      NM   R$  000000000163300000000016660000000001619000000000164500000000016510000000001651000000000165521394000000000006840600000000011257270300000000000000009999123100000010000000000000BRMRFGACNOR0109
012020091402MRVE3       010MRV         ON      NM   R$  000000000174000000000017910000000001740000000000177400000000017910000000001784000000000179109225000000000002167600000000003846215200000000000000009999123100000010000000000000BRMRVEACNOR2120
012020091402MSCD34      010MASTERCARD  DRN          R$  000000017893000000001789300000000178431000000017848900000001784310000000151600000000000000000002000000000000000340000000000060686500000000000000009999123100000010000000000000BRMSCDBDR006137
012020091402MSFT34      010MICROSOFT   DRN          R$  000000010839900000001107310000000108399000000010942800000001093150000000108901000000010931500027000000000000001580000000000172896920000000000000009999123100000010000000000000BRMSFTBDR005139
012020091402MTRE3       010MITRE REALTYON      NM   R$  000000000152800000000015580000000001508000000000154000000000015350000000001531000000000153502661000000000000352200000000000542394300000000000000009999123100000010000000000000BRMTREACNOR6100
012020091402MTSA4       010METISA      PN           R$  000000000259500000000026150000000002540000000000258800000000026150000000002570000000000264000022000000000000004300000000000011130800000000000000009999123100000010000000000000BRMTSAACNPR9056
012020091402MULT3       010MULTIPLAN   ON      N2   R$  000000000219600000000022920000000002196000000000225900000000022700000000002270000000000227517427000000000004272900000000009654209200000000000000009999123100000010000000000000BRMULTACNOR5127
012020091402MUTC34      010MICRON TECHNDRN          R$  000000002566600000000256660000000025666000000002566600000000256660000000000000000000000000000001000000000000000010000000000000256660000000000000009999123100000010000000000000BRMUTCBDR008100
012020091402MYPK3       010IOCHP-MAXIONON      NM   R$  000000000125300000000013630000000001253000000000133000000000013580000000001355000000000135817408000000000004773100000000006351497800000000000000009999123100000010000000000000BRMYPKACNOR7148
012020091402N1DA34      010NASDAQ INC  DRN ED       R$  000000003343900000000334390000000033439000000003343900000000334390000000000000000000000000000001000000000000000010000000000000334390000000000000009999123100000010000000000000BRN1DABDR002103
012020091402N1EM34      010NEWMONT GOLDDRN ED       R$  000000003551900000000355190000000035519000000003551900000000355190000000033000000000000000000001000000000000000030000000000001065570000000000000009999123100000010000000000000BRN1EMBDR005103
012020091402NEOE3       010NEOENERGIA  ON      NM   R$  000000000180000000000018140000000001775000000000179500000000018040000000001803000000000180406722000000000002074100000000003724291500000000000000009999123100000010000000000000BRNEOEACNOR3111
012020091402NETE34      010NETEASE     DRN          R$  000000024620000000002462000000000246200000000024620000000002462000000000000000000000000000000001000000000000000010000000000002462000000000000000009999123100000010000000000000BRNETEBDR006104
012020091402NFLX34      010NETFLIX     DRN          R$  000000025859900000002585990000000249033000000025251200000002520530000000248176000000027500000007000000000000000280000000000070703420000000000000009999123100000010000000000000BRNFLXBDR000101
012020091402NIKE34      010NIKE        DRN          R$  000000006257100000000625710000000062571000000006257100000000625710000000000000000000000000000001000000000000000020000000000001251420000000000000009999123100000010000000000000BRNIKEBDR006139
012020091402NORD3       010NORDON MET  ON           R$  000000000057200000000005720000000000559000000000056500000000005600000000000506000000000055900018000000000000003000000000000001697600000000000000009999123100000010000000000000BRNORDACNOR7135
012020091402NTCO3       010GRUPO NATURAON      NM   R$  000000000521800000000054440000000005212000000000534900000000053260000000005326000000000533041653000000000008285500000000044323419000000000000000009999123100000010000000000000BRNTCOACNOR5101
012020091402NVDC34      010NVIDIA CORP DRN          R$  000000006880000000000702410000000067200000000006804100000000675210000000067601000000006828000029000000000000002980000000000202764350000000000000009999123100000010000000000000BRNVDCBDR008106
012020091402ODPV3       010ODONTOPREV  ON      NM   R$  000000000123500000000012590000000001213000000000123400000000012580000000001255000000000125809253000000000002495900000000003082288700000000000000009999123100000010000000000000BRODPVACNOR4178
012020091402OFSA3       010OUROFINO S/AON      NM   R$  000000000291000000000029200000000002880000000000290300000000029000000000002885000000000290900112000000000000026200000000000076058900000000000000009999123100000010000000000000BROFSAACNOR7109
012020091402OMGE3       010OMEGA GER   ON      NM   R$  000000000399500000000040160000000003850000000000393400000000039540000000003941000000000395405069000000000001029400000000004050073500000000000000009999123100000010000000000000BROMGEACNOR0101
012020091402ORCL34      010ORACLE      DRN          R$  000000003243000000000325000000000031500000000003231200000000316000000000030419000000000000000009000000000000000810000000000026173090000000000000009999123100000010000000000000BRORCLBDR007134
012020091402OXYP34      010OCCIDENT PTRDRN ED       R$  000000000269400000000026940000000002694000000000269400000000026940000000002311000000000000000001000000000000000100000000000000269400000000000000009999123100000010000000000000BROXYPBDR000106
012020091402PARD3       010IHPARDINI   ON      NM   R$  000000000238100000000024610000000002381000000000242900000000024370000000002437000000000244105470000000000000984900000000002392347000000000000000009999123100000010000000000000BRPARDACNOR1114
012020091402PATI3       010PANATLANTICAON           R$  000000000216900000000021700000000002169000000000216900000000021700000000002000000000000217000002000000000000000200000000000000433900000000000000009999123100000010000000000000BRPATIACNOR6060
012020091402PATI4       010PANATLANTICAPN           R$  000000000283500000000028500000000002835000000000284900000000028500000000002760000000000289000007000000000000006100000000000017383500000000000000009999123100000010000000000000BRPATIACNPR3060
012020091402PCAR3       010P.ACUCAR-CBDON      NM   R$  000000000741800000000075340000000007261000000000738300000000073890000000007384000000000738915364000000000003327300000000024567394100000000000000009999123100000010000000000000BRPCARACNOR3163
012020091402PDTC3       010PADTEC      ON           R$  000000000047300000000005240000000000465000000000049200000000005200000000000520000000000052300210000000000000069900000000000034448300000000000000009999123100000010000000000000BRPDTCACNOR3100
012020091402PEPB34      010PEPSICO INC DRN ED       R$  000000007264600000000726460000000072493000000007250600000000724930000000065100000000000000000002000000000000000550000000000039878800000000000000009999123100000010000000000000BRPEPBBDR005132
012020091402PETR3       010PETROBRAS   ON      N2   R$  000000000220700000000022160000000002152000000000217300000000021820000000002182000000000218339396000000000017258800000000037503429900000000000000009999123100000010000000000000BRPETRACNOR9191
012020091402PETR4       010PETROBRAS   PN      N2   R$  000000000219400000000021980000000002143000000000216100000000021680000000002167000000000216868649000000000046453300000000100417436900000000000000009999123100000010000000000000BRPETRACNPR6197
012020091402PETZ3       010PETZ        ON      NM   R$  000000000173100000000017380000000001558000000000162200000000015740000000001573000000000157428228000000000013321600000000021616867700000000000000009999123100000010000000000000BRPETZACNOR2100
012020091402PFIZ34      010PFIZER      DRN          R$  000000001960000000000197620000000019519000000001966200000000196330000000019600000000001963300012000000000000001430000000000028116920000000000000009999123100000010000000000000BRPFIZBDR006140
012020091402PFRM3       010PROFARMA    ON      NM   R$  000000000047600000000004900000000000466000000000048000000000004860000000000486000000000049003837000000000000782200000000000376019600000000000000009999123100000010000000000000BRPFRMACNOR1112
012020091402PGCO34      010PG          DRN          R$  000000007384400000000738440000000073490000000007372600000000734900000000000000000000007349000002000000000000000090000000000006635340000000000000009999123100000010000000000000BRPGCOBDR001139
012020091402PGMN3       010PAGUE MENOS ON      NM   R$  000000000099000000000010130000000000977000000000098700000000009770000000000977000000000098004709000000000001182400000000001167663900000000000000009999123100000010000000000000BRPGMNACNOR8100
012020091402PINE4       010PINE        PN      N2   R$  000000000027500000000002790000000000270000000000027300000000002710000000000271000000000027200304000000000000139000000000000038024400000000000000009999123100000010000000000000BRPINEACNPR8144
012020091402PLAS3       010PLASCAR PARTON           R$  000000000045000000000004530000000000441000000000044600000000004530000000000441000000000046800005000000000000000800000000000000357200000000000000009999123100000010000000000000BRPLASACNOR2106
012020091402PMAM3       010PARANAPANEMAON      NM   R$  000000000114000000000011780000000001134000000000115700000000011640000000001163000000000117000156000000000000040400000000000046768200000000000000009999123100000010000000000000BRPMAMACNOR3037
012020091402PNVL3       010DIMED       ON           R$  000000000246300000000024690000000002351000000000243100000000024640000000002464000000000246504733000000000000819000000000001991091400000000000000009999123100000010000000000000BRPNVLACNOR9196
012020091402PNVL4       010DIMED       PN           R$  000000000212200000000021980000000002074000000000212200000000021960000000002090000000000219600212000000000000045600000000000096772200000000000000009999123100000010000000000000BRPNVLACNPR6196
012020091402POMO3       010MARCOPOLO   ON      N2   R$  000000000027200000000002780000000000270000000000027400000000002770000000000275000000000027800314000000000000164600000000000045122300000000000000009999123100000010000000000000BRPOMOACNOR0087
012020091402POMO4       010MARCOPOLO   PN      N2   R$  000000000028800000000003020000000000288000000000029400000000003000000000000299000000000030003474000000000009573100000000002823938200000000000000009999123100000010000000000000BRPOMOACNPR7087
012020091402POSI3       010POSITIVO TECON      NM   R$  000000000046000000000004880000000000459000000000047200000000004860000000000486000000000048702781000000000002037100000000000962808700000000000000009999123100000010000000000000BRPOSIACNOR9112
012020091402PPLA11      010PPLA        UNT          R$  000000000154600000000015460000000001498000000000153100000000014980000000001497000000000153400015000000000000001500000000000002297000000000000000009999123100000010000000000000BRPPLAUNT007101
012020091402PRIO3       010PETRORIO    ON      NM   R$  000000000396200000000039900000000003880000000000391500000000039000000000003899000000000390008290000000000002073400000000008117623000000000000000009999123100000010000000000000BRPRIOACNOR1102
012020091402PRNR3       010PRINER      ON      NM   R$  000000000093900000000009550000000000933000000000094500000000009540000000000943000000000095400381000000000000118800000000000112310500000000000000009999123100000010000000000000BRPRNRACNOR4105
012020091402PSSA3       010PORTO SEGUROON      NM   R$  000000000509900000000052000000000005041000000000511600000000051740000000005172000000000517606042000000000000850700000000004352759000000000000000009999123100000010000000000000BRPSSAACNOR7142
012020091402PTBL3       010PORTOBELLO  ON      NM   R$  000000000052300000000005750000000000517000000000055600000000005670000000000567000000000056806928000000000005579300000000003102876400000000000000009999123100000010000000000000BRPTBLACNOR8125
012020091402PTNT3       010PETTENATI   ON           R$  000000000057200000000005790000000000572000000000057300000000005790000000000573000000000057900003000000000000000500000000000000286900000000000000009999123100000010000000000000BRPTNTACNOR6039
012020091402PTNT4       010PETTENATI   PN           R$  000000000046400000000004750000000000457000000000046600000000004610000000000460000000000046500055000000000000015900000000000007418500000000000000009999123100000010000000000000BRPTNTACNPR3044
012020091402PYPL34      010PAYPAL HOLD DRN          R$  000000004940000000000494000000000048751000000004918300000000487510000000048754000000005020000003000000000000000030000000000001475510000000000000009999123100000010000000000000BRPYPLBDR002101
012020091402QUAL3       010QUALICORP   ON      NM   R$  000000000323900000000033470000000003231000000000330500000000033150000000003315000000000332210234000000000001910400000000006315748600000000000000009999123100000010000000000000BRQUALACNOR6113
012020091402R1CL34      010ROYAL CARIBBDRN          R$  000000001875900000000187590000000018759000000001875900000000187590000000000000000000000000000001000000000000000010000000000000187590000000000000009999123100000010000000000000BRR1CLBDR007101
012020091402R1IN34      010REALTY INCOMDRN          R$  000000001720200000000172770000000017202000000001723200000000172770000000016600000000000000000002000000000000000050000000000000861600000000000000009999123100000010000000000000BRR1INBDR000108
012020091402RADL3       010RAIADROGASILON      NM   R$  000000001146200000000115200000000011306000000001142600000000113930000000011393000000001142205631000000000000949100000000010844553400000000000000009999123100000010000000000000BRRADLACNOR0136
012020091402RAIL3       010RUMO S.A.   ON      NM   R$  000000000211400000000021660000000002090000000000212400000000021490000000002149000000000215021594000000000005763500000000012243722900000000000000009999123100000010000000000000BRRAILACNOR9101
012020091402RANI3       010IRANI       ON           R$  000000000053000000000005400000000000515000000000052400000000005240000000000524000000000052504765000000000001988500000000001043609400000000000000009999123100000010000000000000BRRANIACNOR5053
012020091402RANI4       010IRANI       PN           R$  000000000082400000000009300000000000824000000000088000000000008880000000000875000000000087800213000000000000064600000000000056896500000000000000009999123100000010000000000000BRRANIACNPR2054
012020091402RAPT3       010RANDON PART ON      N1   R$  000000000092300000000009600000000000920000000000094800000000009560000000000950000000000095700121000000000000028300000000000026840800000000000000009999123100000010000000000000BRRAPTACNOR7153
012020091402RAPT4       010RANDON PART PN      N1   R$  000000000116000000000012350000000001158000000000120900000000012190000000001218000000000121913468000000000006415500000000007757710000000000000000009999123100000010000000000000BRRAPTACNPR4153
012020091402RCSL3       010RECRUSUL    ON           R$  000000000020000000000002180000000000196000000000020800000000002030000000000200000000000020300131000000000000237600000000000049639100000000000000009999123100000010000000000000BRRCSLACNOR4130
012020091402RCSL4       010RECRUSUL    PN           R$  000000000014200000000001510000000000141000000000014400000000001510000000000150000000000015105360000000000006300200000000000907563200000000000000009999123100000010000000000000BRRCSLACNPR1130
012020091402RDNI3       010RNI         ON      NM   R$  000000000102800000000010380000000001000000000000101800000000010250000000001002000000000102600130000000000000048400000000000049276200000000000000009999123100000010000000000000BRRDNIACNOR9113
012020091402REDE3       010REDE ENERGIAON           R$  000000000104800000000010480000000001048000000000104800000000010480000000001031000000000104700001000000000000000100000000000000104800000000000000009999123100000010000000000000BRREDEACNOR7115
012020091402REGN34      010REGENERON PHDRN          R$  000000005912100000000591210000000059121000000005912100000000591210000000000000000000000000000001000000000000000010000000000000591210000000000000009999123100000010000000000000BRREGNBDR005100
012020091402RENT3       010LOCALIZA    ON  EJ  NM   R$  000000000510200000000053000000000005098000000000523300000000052830000000005272000000000528318166000000000004166500000000021807031800000000000000009999123100000010000000000000BRRENTACNOR4179
012020091402RIGG34      010TRANSOCEAN  DRN          R$  000000000051000000000005400000000000490000000000050800000000005320000000000494000000000054800015000000000000006100000000000003103530000000000000009999123100000010000000000000BRRIGGBDR000100
012020091402RLOG3       010COSAN LOG   ON      NM   R$  000000000202100000000020400000000001988000000000200900000000020280000000002028000000000202903207000000000000521400000000001047589900000000000000009999123100000010000000000000BRRLOGACNOR4106
012020091402ROMI3       010INDS ROMI   ON      NM   R$  000000000121400000000012330000000001211000000000122100000000012150000000001215000000000122702280000000000000351200000000000428831300000000000000009999123100000010000000000000BRROMIACNOR8173
012020091402RPAD3       010ALFA HOLDINGON           R$  000000000058900000000005890000000000589000000000058900000000005890000000000575000000000058900002000000000000000300000000000000176700000000000000009999123100000010000000000000BRRPADACNOR1197
012020091402RPAD6       010ALFA HOLDINGPNB          R$  000000000055500000000005550000000000555000000000055500000000005550000000000534000000000057500001000000000000000200000000000000111000000000000000009999123100000010000000000000BRRPADACNPB2197
012020091402RSID3       010ROSSI RESID ON      NM   R$  000000000052900000000005560000000000523000000000053600000000005400000000000539000000000054000224000000000000095200000000000051067800000000000000009999123100000010000000000000BRRSIDACNOR8119
012020091402S1LG34      010SL GREEN READRN          R$  000000001242300000000124230000000012423000000001242300000000124230000000000000000000000000000001000000000000000050000000000000621150000000000000009999123100000010000000000000BRS1LGBDR007106
012020091402S1YF34      010SYNCHRONY FIDRN          R$  000000001437400000000143740000000014374000000001437400000000143740000000000000000000000000000001000000000000000050000000000000718700000000000000009999123100000010000000000000BRS1YFBDR002103
012020091402SANB3       010SANTANDER BRON           R$  000000000136000000000013690000000001341000000000135300000000013620000000001362000000000136900410000000000000088100000000000119211700000000000000009999123100000010000000000000BRSANBACNOR8153
012020091402SANB4       010SANTANDER BRPN           R$  000000000151500000000015270000000001489000000000150800000000015100000000001510000000000151900699000000000000152300000000000229786200000000000000009999123100000010000000000000BRSANBACNPR5153
012020091402SANB11      010SANTANDER BRUNT          R$  000000000287500000000028960000000002824000000000286300000000028630000000002863000000000286410427000000000002485300000000007115680200000000000000009999123100000010000000000000BRSANBCDAM13146
012020091402SAPP34      010SAP SE      DRN          R$  000000008519800000000851980000000085198000000008519800000000851980000000000000000000000000000001000000000000000040000000000003407920000000000000009999123100000010000000000000BRSAPPBDR007101
012020091402SAPR3       010SANEPAR     ON      N2   R$  000000000057900000000005790000000000564000000000056800000000005650000000000565000000000056700448000000000000119500000000000067987500000000000000009999123100000010000000000000BRSAPRACNOR9150
012020091402SAPR4       010SANEPAR     PN      N2   R$  000000000054000000000005430000000000536000000000053900000000005410000000000540000000000054104242000000000001992800000000001075811500000000000000009999123100000010000000000000BRSAPRACNPR6150
012020091402SAPR11      010SANEPAR     UNT     N2   R$  000000000275000000000027540000000002707000000000272800000000027160000000002716000000000271709986000000000003162300000000008628213300000000000000009999123100000010000000000000BRSAPRCDAM13109
012020091402SBSP3       010SABESP      ON      NM   R$  000000000472500000000047930000000004700000000000475200000000047650000000004764000000000476511935000000000002208100000000010494977400000000000000009999123100000010000000000000BRSBSPACNOR5157
012020091402SCAR3       010SAO CARLOS  ON      NM   R$  000000000384000000000039050000000003840000000000388900000000038830000000003864000000000393300025000000000000003200000000000012447000000000000000009999123100000010000000000000BRSCARACNOR7128
012020091402SEER3       010SER EDUCA   ON      NM   R$  000000000161900000000016950000000001601000000000165400000000016300000000001630000000000163117110000000000006341700000000010489269200000000000000009999123100000010000000000000BRSEERACNOR5115
012020091402SGPS3       010SPRINGS     ON      NM   R$  000000000069400000000007320000000000694000000000071700000000007300000000000722000000000073000409000000000000252700000000000181295400000000000000009999123100000010000000000000BRSGPSACNOR4104
012020091402SHOW3       010TIME FOR FUNON      NM   R$  000000000027300000000002790000000000270000000000027500000000002770000000000277000000000027800572000000000000610000000000000168318000000000000000009999123100000010000000000000BRSHOWACNOR7105
012020091402SHUL4       010SCHULZ      PN           R$  000000000130100000000013610000000001293000000000133100000000013510000000001351000000000135501753000000000000467800000000000622858800000000000000009999123100000010000000000000BRSHULACNPR4136
012020091402SIMN34      010SIMON PROP  DRN          R$  000000000859000000000089190000000008590000000000873900000000089190000000006666000000000000000005000000000000000760000000000006641760000000000000009999123100000010000000000000BRSIMNBDR002104
012020091402SLCE3       010SLC AGRICOLAON      NM   R$  000000000245800000000024860000000002442000000000246100000000024520000000002452000000000245303409000000000000693300000000001706664400000000000000009999123100000010000000000000BRSLCEACNOR2115
012020091402SMLS3       010SMILES      ON      NM   R$  000000000155000000000016260000000001538000000000159800000000016210000000001620000000000162106459000000000001927200000000003079805300000000000000009999123100000010000000000000BRSMLSACNOR1109
012020091402SMTO3       010SAO MARTINHOON      NM   R$  000000000232800000000023440000000002276000000000231300000000023270000000002327000000000233504406000000000000913200000000002112499000000000000000009999123100000010000000000000BRSMTOACNOR3117
012020091402SOMA3       010GRUPO SOMA  ON      NM   R$  000000000106000000000010600000000001013000000000102800000000010390000000001039000000000104002611000000000002360500000000002428452200000000000000009999123100000010000000000000BRSOMAACNOR3100
012020091402SQIA3       010SINQIA      ON      NM   R$  000000000235200000000023910000000002328000000000236700000000023910000000002390000000000239102597000000000000480300000000001137137200000000000000009999123100000010000000000000BRSQIAACNOR6102
012020091402SRXM34      010SIRIUS XM HDDRN          R$  000000000299200000000029920000000002992000000000299200000000029920000000000000000000000000000001000000000000002100000000000006283200000000000000009999123100000010000000000000BRSRXMBDR002104
012020091402SSFO34      010SALESFORCE  DRN          R$  000000006560000000000656000000000065000000000006552500000000650000000000033333000000006568000002000000000000000080000000000005242000000000000000009999123100000010000000000000BRSSFOBDR003100
012020091402STBP3       010SANTOS BRP  ON      NM   R$  000000000050500000000005210000000000503000000000051100000000005190000000000518000000000051905241000000000003317200000000001695834800000000000000009999123100000010000000000000BRSTBPACNOR3117
012020091402SULA3       010SUL AMERICA ON      N2   R$  000000000174000000000017990000000001710000000000174400000000017410000000001735000000000177000034000000000000004100000000000007152000000000000000009999123100000010000000000000BRSULAACNOR2141
012020091402SULA4       010SUL AMERICA PN      N2   R$  000000000123200000000012390000000001200000000000121400000000012390000000001223000000000123800046000000000000007900000000000009593700000000000000009999123100000010000000000000BRSULAACNPR9141
012020091402SULA11      010SUL AMERICA UNT     N2   R$  000000000418900000000042200000000004129000000000417900000000041880000000004188000000000421210727000000000001632200000000006822071500000000000000009999123100000010000000000000BRSULACDAM12141
012020091402SUZB3       010SUZANO S.A. ON      NM   R$  000000000455100000000046300000000004538000000000458600000000046120000000004612000000000461509982000000000002135500000000009794104300000000000000009999123100000010000000000000BRSUZBACNOR0124
012020091402TAEE3       010TAESA       ON      N2   R$  000000000094600000000009580000000000943000000000094900000000009540000000000947000000000095400373000000000000055400000000000052580100000000000000009999123100000010000000000000BRTAEEACNOR9132
012020091402TAEE4       010TAESA       PN      N2   R$  000000000095500000000009630000000000949000000000095200000000009630000000000962000000000096400491000000000000107100000000000102057600000000000000009999123100000010000000000000BRTAEEACNPR6132
012020091402TAEE11      010TAESA       UNT     N2   R$  000000000285600000000028830000000002839000000000285500000000028600000000002859000000000286008107000000000002124000000000006065633300000000000000009999123100000010000000000000BRTAEECDAM10132
012020091402TASA3       010TAURUS ARMASON      N2   R$  000000000073500000000007980000000000733000000000076600000000007900000000000780000000000079000661000000000000383000000000000293394100000000000000009999123100000010000000000000BRTASAACNOR7100
012020091402TASA4       010TAURUS ARMASPN      N2   R$  000000000080800000000008600000000000793000000000083500000000008460000000000844000000000084604039000000000002674800000000002235790100000000000000009999123100000010000000000000BRTASAACNPR4100
012020091402TCSA3       010TECNISA     ON      NM   R$  000000000106300000000011140000000001058000000000108500000000011050000000001100000000000110504326000000000001531200000000001661562600000000000000009999123100000010000000000000BRTCSAACNOR3112
012020091402TECN3       010TECHNOS     ON      NM   R$  000000000010500000000001080000000000105000000000010600000000001070000000000107000000000010800291000000000000461400000000000049202300000000000000009999123100000010000000000000BRTECNACNOR6106
012020091402TELB3       010TELEBRAS    ON           R$  000000001300000000000130000000000013000000000001300000000000130000000000013000000000001380000001000000000000000100000000000001300000000000000000009999123100000010000000000000BRTELBACNOR2139
012020091402TELB4       010TELEBRAS    PN           R$  000000000332900000000034300000000003329000000000337900000000033680000000003368000000000337000155000000000000038100000000000128766600000000000000009999123100000010000000000000BRTELBACNPR9139
012020091402TEND3       010TENDA       ON      NM   R$  000000000303100000000031070000000003026000000000307400000000030980000000003098000000000310005690000000000000989700000000003043044400000000000000009999123100000010000000000000BRTENDACNOR4108
012020091402TESA3       010TERRA SANTA ON      NM   R$  000000000171300000000017600000000001713000000000174500000000017530000000001729000000000175300107000000000000024200000000000042229100000000000000009999123100000010000000000000BRTESAACNOR9101
012020091402TEXA34      010TEXAS INC   DRN          R$  000000007338600000000733860000000073045000000007312300000000730450000000000000000000000000000002000000000000000260000000000019012160000000000000009999123100000010000000000000BRTEXABDR003120
012020091402TGMA3       010TEGMA       ON      NM   R$  000000000256300000000026260000000002563000000000260600000000026150000000002614000000000261502367000000000000503400000000001312099000000000000000009999123100000010000000000000BRTGMAACNOR7133
012020091402TGTB34      010TARGET CORP DRN          R$  000000007845800000000784580000000078458000000007845800000000784580000000000000000000000000000001000000000000000300000000000023537400000000000000009999123100000010000000000000BRTGTBBDR004120
012020091402TIET3       010AES TIETE E ON      N2   R$  000000000030000000000003000000000000295000000000029700000000002970000000000297000000000029800869000000000000252700000000000075105400000000000000009999123100000010000000000000BRTIETACNOR0125
012020091402TIET4       010AES TIETE E PN      N2   R$  000000000029500000000002980000000000292000000000029500000000002960000000000296000000000029801472000000000001326200000000000392449500000000000000009999123100000010000000000000BRTIETACNPR7125
012020091402TIET11      010AES TIETE E UNT     N2   R$  000000000147300000000014890000000001467000000000147600000000014770000000001476000000000147704959000000000001193600000000001762544200000000000000009999123100000010000000000000BRTIETCDAM15125
012020091402TIMP3       010TIM PART S/AON      NM   R$  000000000145200000000014610000000001438000000000145100000000014520000000001452000000000145312553000000000004212400000000006112693300000000000000009999123100000010000000000000BRTIMPACNOR1114
012020091402TMCO34      010TOYOTAMO    DRN          R$  000000007070000000000707000000000070700000000007070000000000707000000000000000000000000000000001000000000000000020000000000001414000000000000000009999123100000010000000000000BRTMCOBDR001101
012020091402TOTS3       010TOTVS       ON      NM   R$  000000000278000000000029150000000002778000000000288500000000028850000000002884000000000288518529000000000003617100000000010435570500000000000000009999123100000010000000000000BRTOTSACNOR8136
012020091402TPIS3       010TRIUNFO PARTON      NM   R$  000000000012500000000001250000000000123000000000012400000000001240000000000124000000000012500179000000000000150400000000000018662800000000000000009999123100000010000000000000BRTPISACNOR8115
012020091402TRIS3       010TRISUL      ON      NM   R$  000000000116000000000012120000000001155000000000118300000000012050000000001205000000000120704133000000000001184300000000001401629600000000000000009999123100000010000000000000BRTRISACNOR4113
012020091402TRPL3       010TRAN PAULISTON      N1   R$  000000000260900000000026590000000002609000000000262700000000026320000000002633000000000266000018000000000000001900000000000004992600000000000000009999123100000010000000000000BRTRPLACNOR4176
