00COTAHIST.2020BOVESPA 20200921                                                                                                                                                                                                                      
012020092102A1BM34      010ABIOMED INC DRN          R$  000000003585300000000358530000000035853000000003585300000000358530000000000000000000000000000001000000000000000020000000000000717060000000000000009999123100000010000000000000BRA1BMBDR006100
012020092102A1MD34      010ADVANCED MICDRN          R$  000000004137000000000413700000000041251000000004131900000000413420000000000000000000005250000004000000000000000180000000000007437500000000000000009999123100000010000000000000BRA1MDBDR002100
012020092102A1MT34      010APPLIED MATEDRN          R$  000000003048000000000305420000000030480000000003052100000000305420000000000000000000000000000003000000000000000350000000000010682550000000000000009999123100000010000000000000BRA1MTBDR008103
012020092102A1NT34      010ANTHEM INC  DRN          R$  000000002742000000000275320000000027250000000002745600000000275320000000000000000000000000000027000000000000005170000000000141951170000000000000009999123100000010000000000000BRA1NTBDR006103
012020092102A1ON34      010AON PLC     DRN          R$  000000002663900000000267730000000026639000000002670400000000267730000000000000000000000000000014000000000000003980000000000106284060000000000000009999123100000010000000000000BRA1ONBDR007103
012020092102A1PD34      010AIR PRODUCTSDRN          R$  000000003885000000000390180000000038850000000003893600000000390180000000000000000000000000000016000000000000003940000000000153409820000000000000009999123100000010000000000000BRA1PDBDR005102
012020092102AALL34      010AMERICAN AIRDRN          R$  000000000693900000000069390000000006669000000000678900000000066690000000006500000000000681100007000000000000000380000000000002579940000000000000009999123100000010000000000000BRAALLBDR003115
012020092102AALR3       010ALLIAR      ON      NM   R$  000000000109700000000011250000000001066000000000108700000000011210000000001121000000000112201762000000000000617000000000000670920900000000000000009999123100000010000000000000BRAALRACNOR6102
012020092102AAPL34      010APPLE       DRN          R$  000000000570200000000059200000000005619000000000578600000000059200000000005900000000000592000336000000000000097920000000000566588660000000000000009999123100000010000000000000BRAAPLBDR004135
012020092102ABBV34      010ABBVIE      DRN          R$  000000004719000000000475810000000047190000000004743300000000475810000000000000000000000000000003000000000000000130000000000006166330000000000000009999123100000010000000000000BRABBVBDR001118
012020092102ABCB4       010ABC BRASIL  PN      N2   R$  000000000128500000000012880000000001258000000000127500000000012760000000001276000000000127703448000000000000567400000000000723622000000000000000009999123100000010000000000000BRABCBACNPR4134
012020092102ABEV3       010AMBEV S/A   ON           R$  000000000127000000000012800000000001251000000000126500000000012730000000001271000000000127331290000000000018966300000000023997535600000000000000009999123100000010000000000000BRABEVACNOR1122
012020092102ABTT34      010ABBOTT      DRN          R$  000000001408000000000141220000000014080000000001410800000000141220000000000000000000001799500003000000000000001300000000000018340540000000000000009999123100000010000000000000BRABTTBDR007135
012020092102ACNB34      010ACCENTURE   DRN          R$  000000012620100000001262010000000124477000000012555500000001246640000000000000000000000000000004000000000000000170000000000021344400000000000000009999123100000010000000000000BRACNBBDR006112
012020092102ADBE34      010ADOBE INC   DRN          R$  000000005082300000000511640000000050463000000005059200000000505230000000000000000000000000000005000000000000000300000000000015177880000000000000009999123100000010000000000000BRADBEBDR003100
012020092102ADHM3       010ADVANCED-DH ON           R$  000000000020300000000002030000000000200000000000020000000000002000000000000201000000000020300015000000000000021800000000000004380600000000000000009999123100000010000000000000BRADHMACNOR9102
012020092102AFLT3       010AFLUENTE T  ON           R$  000000000098000000000009940000000000976000000000097900000000009800000000000977000000000098900015000000000000002500000000000002447900000000000000009999123100000010000000000000BRAFLTACNOR1115
012020092102AGRO3       010BRASILAGRO  ON      NM   R$  000000000220000000000022350000000002170000000000220900000000022200000000002220000000000222700628000000000000129600000000000286370300000000000000009999123100000010000000000000BRAGROACNOR7109
012020092102AHEB3       010SPTURIS     ON           R$  000000000250000000000025000000000002500000000000250000000000025000000000002350000000000269700001000000000000001000000000000002500000000000000000009999123100000010000000000000BRAHEBACNOR0106
012020092102ALPA3       010ALPARGATAS  ON      N1   R$  000000000328000000000032800000000003140000000000324400000000031950000000003194000000000325000017000000000000005500000000000017845000000000000000009999123100000010000000000000BRALPAACNOR0229
012020092102ALPA4       010ALPARGATAS  PN      N1   R$  000000000345000000000036000000000003384000000000347800000000036000000000003596000000000360008849000000000001881200000000006543169400000000000000009999123100000010000000000000BRALPAACNPR7229
012020092102ALPK3       010ESTAPAR     ON      NM   R$  000000000092300000000009290000000000920000000000092300000000009220000000000922000000000093000044000000000000045900000000000042373400000000000000009999123100000010000000000000BRALPKACNOR9100
012020092102ALSO3       010ALIANSCSONAEON      NM   R$  000000000259900000000025990000000002525000000000255900000000025720000000002570000000000257207758000000000001796400000000004598309100000000000000009999123100000010000000000000BRALSOACNOR5100
012020092102ALUP3       010ALUPAR      ON      N2   R$  000000000094900000000009650000000000946000000000095900000000009560000000000955000000000096500064000000000000007400000000000007098100000000000000009999123100000010000000000000BRALUPACNOR8111
012020092102ALUP4       010ALUPAR      PN      N2   R$  000000000069500000000007040000000000690000000000069400000000007040000000000700000000000071000127000000000000024600000000000017090000000000000000009999123100000010000000000000BRALUPACNPR5111
012020092102ALUP11      010ALUPAR      UNT     N2   R$  000000000234500000000023900000000002328000000000236300000000023900000000002374000000000239002656000000000000577400000000001364405300000000000000009999123100000010000000000000BRALUPCDAM15111
012020092102AMAR3       010LOJAS MARISAON      NM   R$  000000000079300000000008030000000000772000000000078300000000007800000000000779000000000078007831000000000005322500000000004170518000000000000000009999123100000010000000000000BRAMARACNOR4112
012020092102AMBP3       010AMBIPAR     ON      NM   R$  000000000302800000000030750000000002964000000000303300000000030750000000003030000000000307500443000000000000117400000000000356159500000000000000009999123100000010000000000000BRAMBPACNOR6100
012020092102AMGN34      010AMGEN       DRN          R$  000000012940000000001294000000000128989000000012909900000001290010000000000000000000000000000004000000000000000080000000000010327940000000000000009999123100000010000000000000BRAMGNBDR004135
012020092102AMZO34      010AMAZON      DRN          R$  000000079230000000007943430000000782859000000078901100000007943430000000742062000000082000000025000000000000000560000000000441846420000000000000009999123100000010000000000000BRAMZOBDR002101
012020092102ANIM3       010ANIMA       ON      NM   R$  000000000283000000000029420000000002747000000000284900000000029250000000002904000000000292602477000000000000491400000000001400459000000000000000009999123100000010000000000000BRANIMACNOR6106
012020092102APER3       010ALPER S.A.  ON      NM   R$  000000000306100000000030810000000003007000000000304200000000030310000000003029000000000308800119000000000000023400000000000071195800000000000000009999123100000010000000000000BRAPERACNOR9102
012020092102ARMT34      010ARCELOR     DRN          R$  000000000375900000000037590000000003397000000000339700000000033970000000002764000000000380000009000000000000005010000000000017022590000000000000009999123100000010000000000000BRARMTBDR008117
012020092102ARZZ3       010AREZZO CO   ON      NM   R$  000000000535000000000054760000000005299000000000539900000000054100000000005407000000000541502944000000000000445500000000002405547400000000000000009999123100000010000000000000BRARZZACNOR3137
012020092102ATOM3       010ATOMPAR     ON           R$  000000000029100000000002920000000000272000000000028500000000002830000000000283000000000028600123000000000000092600000000000026461200000000000000009999123100000010000000000000BRATOMACNOR1103
012020092102ATTB34      010ATT INC     DRN          R$  000000001553600000000155360000000015240000000001536300000000154410000000015260000000001580000013000000000000002530000000000038868670000000000000009999123100000010000000000000BRATTBBDR007132
012020092102ATVI34      010ACTIVISION  DRN          R$  000000004350000000000435920000000043500000000004355500000000435920000000041100000000000000000004000000000000000180000000000007839900000000000000009999123100000010000000000000BRATVIBDR008101
012020092102AURA32      010AURA 360    DR2          R$  000000000640500000000065970000000006390000000000650200000000065950000000006502000000000659800288000000000000041400000000000269206100000000000000009999123100000010000000000000BRAURABDR001102
012020092102AVGO34      010BROADCOM INCDRN ED       R$  000000003789800000000378980000000037898000000003789800000000378980000000000000000000000000000001000000000000000900000000000034108200000000000000009999123100000010000000000000BRAVGOBDR003106
012020092102AZEV3       010AZEVEDO     ON           R$  000000000106000000000010600000000001000000000000102700000000010000000000000980000000000100000015000000000000001500000000000001541000000000000000009999123100000010000000000000BRAZEVACNOR0117
012020092102AZEV4       010AZEVEDO     PN           R$  000000000033900000000003390000000000319000000000032400000000003210000000000320000000000033000038000000000000009700000000000003144500000000000000009999123100000010000000000000BRAZEVACNPR7117
012020092102AZUL4       010AZUL        PN      N2   R$  000000000272900000000027590000000002589000000000265000000000026000000000002600000000000260346884000000000022940200000000060807693700000000000000009999123100000010000000000000BRAZULACNPR4100
012020092102B1DX34      010BECTON DICKIDRN          R$  000000002427000000000245410000000024270000000002442700000000245410000000000000000000000000000003000000000000000240000000000005862540000000000000009999123100000010000000000000BRB1DXBDR008103
012020092102B1SX34      010BOSTON SCIENDRN          R$  000000002050000000000205000000000020500000000002050000000000205000000000000000000000000000000003000000000000000110000000000002255000000000000000009999123100000010000000000000BRB1SXBDR006100
012020092102B3SA3       010B3          ON      NM   R$  000000000550600000000056100000000005445000000000553700000000056100000000005609000000000561034424000000000011424500000000063268499300000000000000009999123100000010000000000000BRB3SAACNOR6111
012020092102BABA34      010ALIBABAGR   DRN          R$  000000014576600000001477900000000145601000000014628500000001477900000000143600000000014900000020000000000000000470000000000068754240000000000000009999123100000010000000000000BRBABABDR005100
012020092102BAHI3       010BAHEMA      ON      MA   R$  000000001100100000000112000000000010800000000001106400000000112000000000010751000000001134900010000000000000001100000000000012170400000000000000009999123100000010000000000000BRBAHIACNOR1071
012020092102BALM4       010BAUMER      PN           R$  000000000144000000000015000000000001400000000000147500000000014980000000001100000000000149800011000000000000002500000000000003687900000000000000009999123100000010000000000000BRBALMACNPR2051
012020092102BAUH4       010EXCELSIOR   PN           R$  000000000869900000000086990000000008699000000000869900000000086990000000008001000000000884700002000000000000000200000000000001739800000000000000009999123100000010000000000000BRBAUHACNPR3115
012020092102BAZA3       010AMAZONIA    ON           R$  000000000384000000000038700000000003750000000000380000000000038700000000003800000000000387000025000000000000003700000000000014062600000000000000009999123100000010000000000000BRBAZAACNOR0174
012020092102BBAS3       010BRASIL      ON  EJ  NM   R$  000000000307100000000031130000000003041000000000308100000000030880000000003088000000000308928296000000000013418000000000041341753500000000000000009999123100000010000000000000BRBBASACNOR3293
012020092102BBDC3       010BRADESCO    ON      N1   R$  000000000183800000000018510000000001808000000000183400000000018440000000001843000000000184418412000000000006704800000000012303257500000000000000009999123100000010000000000000BRBBDCACNOR1715
012020092102BBDC4       010BRADESCO    PN      N1   R$  000000000197000000000019880000000001950000000000197200000000019780000000001977000000000197862635000000000047795400000000094270969300000000000000009999123100000010000000000000BRBBDCACNPR8715
012020092102BBRK3       010BR BROKERS  ON      NM   R$  000000000015900000000001600000000000155000000000015600000000001560000000000157000000000015900342000000000000282900000000000044342900000000000000009999123100000010000000000000BRBBRKACNOR4113
012020092102BBSE3       010BBSEGURIDADEON      NM   R$  000000000253800000000025410000000002496000000000252200000000025140000000002514000000000251917750000000000004115400000000010379948500000000000000009999123100000010000000000000BRBBSEACNOR5117
012020092102BCSA34      010SANTANDER   DRN          R$  000000000103700000000010510000000001018000000000103400000000010300000000001032000000000107100055000000000000010510000000000010877170000000000000009999123100000010000000000000BRBCSABDR005101
012020092102BEEF3       010MINERVA     ON      NM   R$  000000000129300000000013040000000001272000000000128600000000012890000000001289000000000129010593000000000004203100000000005409196400000000000000009999123100000010000000000000BRBEEFACNOR6108
012020092102BEES3       010BANESTES    ON           R$  000000000050500000000005090000000000501000000000050400000000005070000000000506000000000050700101000000000000025000000000000012624200000000000000009999123100000010000000000000BRBEESACNOR9339
012020092102BEES4       010BANESTES    PN           R$  000000000053000000000005300000000000521000000000052500000000005220000000000521000000000052600017000000000000003400000000000001786000000000000000009999123100000010000000000000BRBEESACNPR6264
012020092102BERK34      010BERKSHIRE   DRN          R$  000000011649300000001175100000000113000000000011396500000001145400000000112500000000011682900045000000000000006960000000000793202370000000000000009999123100000010000000000000BRBERKBDR002100
012020092102BGIP3       010BANESE      ON           R$  000000000437900000000043790000000004379000000000437900000000043790000000002800000000000470000001000000000000000100000000000000437900000000000000009999123100000010000000000000BRBGIPACNOR1199
012020092102BGIP4       010BANESE      PN           R$  000000000257500000000025750000000002569000000000257200000000025690000000002517000000000257000002000000000000000200000000000000514400000000000000009999123100000010000000000000BRBGIPACNPR8199
012020092102BHPG34      010BHP GROUP   DRN          R$  000000002870800000000287080000000028708000000002870800000000287080000000028000000000000000000001000000000000000010000000000000287080000000000000009999123100000010000000000000BRBHPGBDR007102
012020092102BIDI3       010BANCO INTER ON      N2   R$  000000000169000000000016900000000001597000000000163300000000016040000000001601000000000160404385000000000000816000000000001332757800000000000000009999123100000010000000000000BRBIDIACNOR3107
012020092102BIDI4       010BANCO INTER PN      N2   R$  000000000179600000000018080000000001739000000000176700000000017740000000001771000000000177411040000000000002824900000000004993319100000000000000009999123100000010000000000000BRBIDIACNPR0111
012020092102BIDI11      010BANCO INTER UNT     N2   R$  000000000538400000000053840000000005083000000000515100000000051400000000005140000000000514910682000000000001756400000000009047679800000000000000009999123100000010000000000000BRBIDICDAXX3106
012020092102BILB34      010BILBAOVIZ   DRN          R$  000000000155000000000015500000000001378000000000144400000000013780000000000000000000000000000003000000000000000600000000000000866600000000000000009999123100000010000000000000BRBILBBDR005101
012020092102BIOM3       010BIOMM       ON      MA   R$  000000000162400000000016360000000001602000000000161100000000016190000000001612000000000162600090000000000000021100000000000033994700000000000000009999123100000010000000000000BRBIOMACNOR2107
012020092102BKBR3       010BK BRASIL   ON      NM   R$  000000000113100000000011310000000001089000000000110500000000011080000000001107000000000110906640000000000001586500000000001754165500000000000000009999123100000010000000000000BRBKBRACNOR4103
012020092102BKNG34      010BOOKING     DRN          R$  000000003650000000000365000000000035358000000003565400000000355000000000035360000000003670000025000000000000004630000000000165079250000000000000009999123100000010000000000000BRBKNGBDR006100
012020092102BLAK34      010BLACKROCK   DRN          R$  000000004985000000000498500000000048810000000004932600000000489610000000000000000000000000000005000000000000000260000000000012824880000000000000009999123100000010000000000000BRBLAKBDR003118
012020092102BMEB3       010MERC BRASIL ON           R$  000000000172000000000019000000000001712000000000178500000000019000000000001752000000000193000009000000000000000900000000000001607100000000000000009999123100000010000000000000BRBMEBACNOR8196
012020092102BMEB4       010MERC BRASIL PN           R$  000000000165000000000017490000000001610000000000163800000000016400000000001640000000000164900046000000000000023700000000000038829300000000000000009999123100000010000000000000BRBMEBACNPR5201
012020092102BMGB4       010BANCO BMG   PN      N1   R$  000000000049000000000004970000000000482000000000048900000000004900000000000490000000000049303604000000000001330900000000000651007700000000000000009999123100000010000000000000BRBMGBACNPR0101
012020092102BMIN3       010MERC INVEST ON           R$  000000000204000000000020400000000002040000000000204000000000020400000000001900000000000204000001000000000000000100000000000000204000000000000000009999123100000010000000000000BRBMINACNOR4168
012020092102BMIN4       010MERC INVEST PN           R$  000000000190900000000019090000000001835000000000187400000000018350000000001821000000000191100003000000000000000300000000000000562300000000000000009999123100000010000000000000BRBMINACNPR1171
012020092102BMKS3       010BIC MONARK  ON           R$  000000002310000000000231000000000022500000000002281500000000231000000000021600000000002310000007000000000000000053000000000001209200000000000000009999123100000010000000000000BRBMKSACNOR9162
012020092102BOAC34      010BANK AMERICADRN          R$  000000001327500000000132750000000012993000000001310900000000132020000000012987000000000000000013000000000000005790000000000075906100000000000000009999123100000010000000000000BRBOACBDR004140
012020092102BOBR4       010BOMBRIL     PN           R$  000000000020000000000002050000000000196000000000020000000000002010000000000201000000000020200109000000000000125200000000000025124500000000000000009999123100000010000000000000BRBOBRACNPR3128
012020092102BOEI34      010BOEING      DRN          R$  000000008400100000000845010000000084001000000008436400000000845010000000000000000000010850000004000000000000000120000000000010123720000000000000009999123100000010000000000000BRBOEIBDR003132
012020092102BOXP34      010BOSTON PROP DRN          R$  000000000445000000000044500000000004400000000000440800000000044000000000004350000000000592000002000000000000000120000000000000529000000000000000009999123100000010000000000000BRBOXPBDR008120
012020092102BPAC3       010BTGP BANCO  ON      N2   R$  000000000399900000000039990000000003851000000000394700000000039740000000003974000000000403600075000000000000009000000000000035523900000000000000009999123100000010000000000000BRBPACACNOR7122
012020092102BPAC5       010BTGP BANCO  PNA     N2   R$  000000000171500000000017600000000001660000000000170300000000016600000000001625000000000167900037000000000000004900000000000008347500000000000000009999123100000010000000000000BRBPACACNPA0122
012020092102BPAC11      010BTGP BANCO  UNT     N2   R$  000000000740000000000074800000000007202000000000731400000000072600000000007255000000000726024735000000000006090500000000044551675100000000000000009999123100000010000000000000BRBPACUNT006107
012020092102BPAN4       010BANCO PAN   PN      N1   R$  000000000081800000000008410000000000803000000000082600000000008230000000000823000000000082406202000000000005486700000000004533735100000000000000009999123100000010000000000000BRBPANACNPR1109
012020092102BRAP3       010BRADESPAR   ON      N1   R$  000000000392400000000039240000000003849000000000387100000000038650000000003851000000000388300064000000000000011900000000000046066500000000000000009999123100000010000000000000BRBRAPACNOR5136
012020092102BRAP4       010BRADESPAR   PN      N1   R$  000000000447500000000045100000000004387000000000443400000000044380000000004433000000000443813998000000000002522900000000011186689200000000000000009999123100000010000000000000BRBRAPACNPR2136
012020092102BRDT3       010PETROBRAS BRON      NM   R$  000000000212900000000021510000000002081000000000211800000000021200000000002119000000000212015869000000000005854800000000012403576000000000000000009999123100000010000000000000BRBRDTACNOR1120
012020092102BRFS3       010BRF SA      ON      NM   R$  000000000205000000000020710000000002018000000000203900000000020520000000002052000000000205322511000000000008481800000000017298200000000000000000009999123100000010000000000000BRBRFSACNOR8119
012020092102BRGE3       010ALFA CONSORCON           R$  000000000094500000000009450000000000912000000000094000000000009120000000000912000000000099200003000000000000000800000000000000752700000000000000009999123100000010000000000000BRBRGEACNOR6202
012020092102BRGE6       010ALFA CONSORCPNB          R$  000000000378400000000037840000000003105000000000327400000000031050000000003105000000000378000004000000000000000400000000000001309900000000000000009999123100000010000000000000BRBRGEACNPB7212
012020092102BRGE8       010ALFA CONSORCPND          R$  000000000089000000000009000000000000820000000000085600000000008330000000000833000000000087000070000000000000023600000000000020215600000000000000009999123100000010000000000000BRBRGEACNPD3214
012020092102BRGE12      010ALFA CONSORCPNF          R$  000000000062000000000006350000000000620000000000062700000000006350000000000602000000000062800002000000000000000200000000000000125500000000000000009999123100000010000000000000BRBRGEACNPF8096
012020092102BRIV3       010ALFA INVEST ON           R$  000000000085000000000008500000000000850000000000085000000000008500000000000825000000000089000001000000000000000300000000000000255000000000000000009999123100000010000000000000BRBRIVACNOR6205
012020092102BRIV4       010ALFA INVEST PN           R$  000000000082500000000008270000000000825000000000082500000000008250000000000826000000000084400012000000000000005300000000000004373700000000000000009999123100000010000000000000BRBRIVACNPR3211
012020092102BRKM3       010BRASKEM     ON      N1   R$  000000000216100000000021990000000002084000000000211900000000021550000000002155000000000221000181000000000000044500000000000094322600000000000000009999123100000010000000000000BRBRKMACNOR1117
012020092102BRKM5       010BRASKEM     PNA     N1   R$  000000000213500000000022360000000002086000000000215500000000022130000000002213000000000221413383000000000003860900000000008323868300000000000000009999123100000010000000000000BRBRKMACNPA4117
012020092102BRKM6       010BRASKEM     PNB     N1   R$  000000000189600000000018960000000001896000000000189600000000018960000000001400000000000000000001000000000000000100000000000000189600000000000000009999123100000010000000000000BRBRKMACNPB2113
012020092102BRML3       010BR MALLS PARON      NM   R$  000000000092400000000009260000000000901000000000091000000000009130000000000913000000000091427072000000000018624000000000016960700900000000000000009999123100000010000000000000BRBRMLACNOR9115
012020092102BRPR3       010BR PROPERT  ON      NM   R$  000000000093500000000009350000000000909000000000091900000000009200000000000916000000000092014231000000000003562700000000003274971100000000000000009999123100000010000000000000BRBRPRACNOR9119
012020092102BRSR3       010BANRISUL    ON      N1   R$  000000000140100000000014270000000001401000000000141100000000014180000000001407000000000141900039000000000000006500000000000009171600000000000000009999123100000010000000000000BRBRSRACNOR3168
012020092102BRSR5       010BANRISUL    PNA     N1   R$  000000000209000000000021200000000001950000000000203800000000019570000000001800000000000213000026000000000000002600000000000005301300000000000000009999123100000010000000000000BRBRSRACNPA6172
012020092102BRSR6       010BANRISUL    PNB     N1   R$  000000000122000000000012320000000001198000000000121600000000012210000000001221000000000122508691000000000002178800000000002650835700000000000000009999123100000010000000000000BRBRSRACNPB4171
012020092102BSEV3       010BIOSEV      ON      NM   R$  000000000048000000000004820000000000452000000000046000000000004630000000000461000000000046300303000000000000151100000000000069577400000000000000009999123100000010000000000000BRBSEVACNOR3102
012020092102BTOW3       010B2W DIGITAL ON      NM   R$  000000000911000000000098430000000009099000000000954400000000097970000000009797000000000979817996000000000003659100000000034925507500000000000000009999123100000010000000000000BRBTOWACNOR8111
012020092102BTTL3       010BATTISTELLA ON           R$  000000000131100000000013250000000001105000000000123600000000012990000000001270000000000130000057000000000000009000000000000011131700000000000000009999123100000010000000000000BRBTTLACNOR0108
012020092102C1BL34      010CHUBB LTD   DRN ED       R$  000000001543800000000155190000000015438000000001548100000000155190000000000000000000000000000021000000000000007410000000000114717630000000000000009999123100000010000000000000BRC1BLBDR006103
012020092102C1CI34      010CROWN CASTLEDRN ED       R$  000000002142100000000215410000000021187000000002141000000000211870000000000000000000000000000012000000000000000630000000000013488900000000000000009999123100000010000000000000BRC1CIBDR000103
012020092102C1CL34      010CARNIVAL CORDRN          R$  000000000800900000000080090000000007719000000000793600000000077190000000000000000000001300000002000000000000000040000000000000317460000000000000009999123100000010000000000000BRC1CLBDR004101
012020092102C1FG34      010CITIZENS FINDRN          R$  000000001445900000000144590000000014404000000001443300000000144040000000000000000000000000000004000000000000000180000000000002597970000000000000009999123100000010000000000000BRC1FGBDR007102
012020092102C1HR34      010CH ROBINSON DRN          R$  000000002723900000000272390000000027239000000002723900000000272390000000000000000000000000000001000000000000000030000000000000817170000000000000009999123100000010000000000000BRC1HRBDR000103
012020092102CAMB3       010CAMBUCI     ON           R$  000000000040700000000004230000000000381000000000040300000000004190000000000412000000000041900154000000000000082000000000000033081200000000000000009999123100000010000000000000BRCAMBACNOR4119
012020092102CAML3       010CAMIL       ON      NM   R$  000000000133000000000013460000000001302000000000132900000000013360000000001336000000000133907639000000000001883600000000002504571900000000000000009999123100000010000000000000BRCAMLACNOR3111
012020092102CARD3       010CSU CARDSYSTON      NM   R$  000000000143000000000014990000000001391000000000144900000000014790000000001479000000000148001072000000000000297700000000000431399700000000000000009999123100000010000000000000BRCARDACNOR9118
012020092102CATP34      010CATERPILLAR DRN          R$  000000007834900000000783490000000078349000000007834900000000783490000000000000000000000000000001000000000000000200000000000015669800000000000000009999123100000010000000000000BRCATPBDR003136
012020092102CCPR3       010CYRE COM-CCPON      NM   R$  000000000140000000000014230000000001370000000000140000000000013900000000001389000000000139001153000000000000200700000000000281091200000000000000009999123100000010000000000000BRCCPRACNOR9114
012020092102CCRO3       010CCR SA      ON      NM   R$  000000000135600000000013640000000001335000000000134900000000013350000000001335000000000133718958000000000009811000000000013242902800000000000000009999123100000010000000000000BRCCROACNOR2137
012020092102CEAB3       010CEA MODAS   ON      NM   R$  000000000127700000000012800000000001201000000000122700000000012350000000001235000000000123609637000000000002982400000000003661997000000000000000009999123100000010000000000000BRCEABACNOR1101
012020092102CEBR5       010CEB         PNA          R$  000000000952800000000095280000000009528000000000952800000000095280000000008100000000000952000001000000000000000100000000000000952800000000000000009999123100000010000000000000BRCEBRACNPA8117
012020092102CEBR6       010CEB         PNB          R$  000000000729900000000072990000000007299000000000729900000000072990000000006800000000000729300002000000000000000200000000000001459800000000000000009999123100000010000000000000BRCEBRACNPB6117
012020092102CEDO3       010CEDRO       ON      N1   R$  000000000085300000000008530000000000853000000000085300000000008530000000000863000000000089900001000000000000000300000000000000255900000000000000009999123100000010000000000000BRCEDOACNOR8096
012020092102CEDO4       010CEDRO       PN      N1   R$  000000000053900000000005390000000000539000000000053900000000005390000000000515000000000053900001000000000000000100000000000000053900000000000000009999123100000010000000000000BRCEDOACNPR5128
012020092102CEED3       010CEEE-D      ON      N1   R$  000000000560000000000056000000000005600000000000560000000000056000000000005000000000000599000002000000000000000200000000000001120000000000000000009999123100000010000000000000BRCEEDACNOR9102
012020092102CEPE5       010CELPE       PNA          R$  000000000280000000000028500000000002799000000000281200000000027990000000002600000000000285000004000000000000000400000000000001124900000000000000009999123100000010000000000000BRCEPEACNPA6163
012020092102CESP3       010CESP        ON      N1   R$  000000000323400000000033350000000003234000000000329100000000033350000000003217000000000333500018000000000000004900000000000016129300000000000000009999123100000010000000000000BRCESPACNOR3169
012020092102CESP5       010CESP        PNA     N1   R$  000000000358800000000035880000000003255000000000342100000000032550000000003275000000000358800002000000000000000200000000000000684300000000000000009999123100000010000000000000BRCESPACNPA6116
012020092102CESP6       010CESP        PNB     N1   R$  000000000281800000000028650000000002785000000000282600000000028650000000002860000000000286510437000000000002505600000000007081361000000000000000009999123100000010000000000000BRCESPACNPB4128
012020092102CGAS3       010COMGAS      ON           R$  000000001661200000000166120000000016240000000001633300000000162400000000016240000000001670000004000000000000000400000000000006533500000000000000009999123100000010000000000000BRCGASACNOR0151
012020092102CGAS5       010COMGAS      PNA          R$  000000001790000000000179000000000017735000000001781600000000177350000000017735000000001800000031000000000000003500000000000062358900000000000000009999123100000010000000000000BRCGASACNPA3148
012020092102CGRA3       010GRAZZIOTIN  ON           R$  000000000260300000000026100000000002586000000000260000000000025860000000002570000000000259000007000000000000003300000000000008582900000000000000009999123100000010000000000000BRCGRAACNOR2071
012020092102CGRA4       010GRAZZIOTIN  PN           R$  000000000255700000000025650000000002522000000000254200000000025310000000002527000000000253500097000000000000020100000000000051101300000000000000009999123100000010000000000000BRCGRAACNPR9071
012020092102CHCM34      010CHARTER COMMDRN          R$  000000006629600000000662960000000065360000000006623700000000655210000000000000000000000000000006000000000000001690000000000111941040000000000000009999123100000010000000000000BRCHCMBDR001100
012020092102CHME34      010CME GROUP   DRN          R$  000000002290000000000229000000000022900000000002290000000000229000000000000000000000000000000001000000000000000190000000000004351000000000000000009999123100000010000000000000BRCHMEBDR007106
012020092102CHVX34      010CHEVRON     DRN          R$  000000002051900000000205190000000020180000000002028900000000204780000000000000000000000000000008000000000000001960000000000039767180000000000000009999123100000010000000000000BRCHVXBDR008138
012020092102CIEL3       010CIELO       ON      NM   R$  000000000041200000000004260000000000404000000000041600000000004150000000000415000000000041624665000000000069565200000000028959109100000000000000009999123100000010000000000000BRCIELACNOR3142
012020092102CLSC4       010CELESC      PN      N2   R$  000000000534600000000053730000000005340000000000534900000000053400000000005340000000000537500010000000000000001100000000000005883900000000000000009999123100000010000000000000BRCLSCACNPR3115
012020092102CMCS34      010COMCAST     DRN          R$  000000002390000000000241110000000023653000000002374600000000236870000000023400000000000000000034000000000000008450000000000200655340000000000000009999123100000010000000000000BRCMCSBDR008135
012020092102CMIG3       010CEMIG       ON      N1   R$  000000000111200000000011120000000001081000000000109100000000010810000000001081000000000109304966000000000002781500000000003035730500000000000000009999123100000010000000000000BRCMIGACNOR6224
012020092102CMIG4       010CEMIG       PN      N1   R$  000000000105000000000010560000000001030000000000104200000000010440000000001044000000000104518585000000000008134100000000008482170700000000000000009999123100000010000000000000BRCMIGACNPR3225
012020092102CNTO3       010CENTAURO    ON      NM   R$  000000000268600000000027160000000002616000000000266500000000026790000000002674000000000267907484000000000001701600000000004535106100000000000000009999123100000010000000000000BRCNTOACNOR5100
012020092102COCA34      010COCA COLA   DRN ED       R$  000000002720000000000272000000000026220000000002633400000000264580000000026200000000000000000008000000000000000470000000000012377190000000000000009999123100000010000000000000BRCOCABDR002136
012020092102COCE5       010COELCE      PNA          R$  000000000580000000000058520000000005545000000000564400000000056080000000005608000000000565000109000000000000027800000000000156914200000000000000009999123100000010000000000000BRCOCEACNPA3140
012020092102COGN3       010COGNA ON    ON      NM   R$  000000000053400000000005570000000000528000000000054300000000005560000000000555000000000055632903000000000066313700000000036024798800000000000000009999123100000010000000000000BRCOGNACNOR2101
012020092102COTY34      010COTY INC    DRN          R$  000000000084000000000008540000000000818000000000083600000000008180000000000801000000000102800019000000000000021870000000000018300980000000000000009999123100000010000000000000BRCOTYBDR006116
012020092102COWC34      010COSTCO      DRN          R$  000000004518000000000455450000000045180000000004546200000000455110000000044000000000000000000005000000000000001310000000000059555810000000000000009999123100000010000000000000BRCOWCBDR006119
012020092102CPFE3       010CPFL ENERGIAON      NM   R$  000000000286800000000028880000000002830000000000285100000000028500000000002850000000000285112724000000000003119800000000008896092200000000000000009999123100000010000000000000BRCPFEACNOR0130
012020092102CPLE3       010COPEL       ON      N1   R$  000000000606500000000062250000000006003000000000615300000000062060000000006185000000000620602376000000000000440800000000002712442700000000000000009999123100000010000000000000BRCPLEACNOR8139
012020092102CPLE6       010COPEL       PNB     N1   R$  000000000627900000000065130000000006245000000000640600000000064570000000006450000000000645708105000000000001344200000000008611289200000000000000009999123100000010000000000000BRCPLEACNPB9136
012020092102CRDE3       010CR2         ON           R$  000000000224900000000022490000000002249000000000224900000000022490000000002100000000000223000002000000000000000400000000000000899600000000000000009999123100000010000000000000BRCRDEACNOR1112
012020092102CRFB3       010CARREFOUR BRON      NM   R$  000000000208700000000021300000000002064000000000210300000000021020000000002100000000000210215295000000000005170400000000010877362100000000000000009999123100000010000000000000BRCRFBACNOR2107
012020092102CRIV3       010ALFA FINANC ON           R$  000000000060000000000006240000000000600000000000060800000000006200000000000597000000000062000004000000000000000500000000000000304400000000000000009999123100000010000000000000BRCRIVACNOR4194
012020092102CRIV4       010ALFA FINANC PN           R$  000000000063000000000007050000000000630000000000067500000000006500000000000648000000000069500022000000000000009400000000000006345500000000000000009999123100000010000000000000BRCRIVACNPR1204
012020092102CRPG3       010CRISTAL     ON           R$  000000000250100000000027000000000002350000000000254300000000023610000000002325000000000240000021000000000000002100000000000005341200000000000000009999123100000010000000000000BRCRPGACNOR0108
012020092102CRPG5       010CRISTAL     PNA          R$  000000000198000000000020190000000001980000000000199900000000020080000000001980000000000200800010000000000000001500000000000002998900000000000000009999123100000010000000000000BRCRPGACNPA3108
012020092102CRPG6       010CRISTAL     PNB          R$  000000000199900000000019990000000001999000000000199900000000019990000000001801000000000199900001000000000000000300000000000000599700000000000000009999123100000010000000000000BRCRPGACNPB1108
012020092102CSAN3       010COSAN       ON      NM   R$  000000000738000000000074250000000007213000000000731500000000073360000000007336000000000734805951000000000000933100000000006826532500000000000000009999123100000010000000000000BRCSANACNOR6120
012020092102CSMG3       010COPASA      ON      NM   R$  000000000484700000000049140000000004774000000000487000000000048850000000004885000000000489705294000000000000791700000000003856110200000000000000009999123100000010000000000000BRCSMGACNOR5156
012020092102CSNA3       010SID NACIONALON           R$  000000000162000000000017260000000001597000000000164500000000016230000000001616000000000162338268000000000021582700000000035504796100000000000000009999123100000010000000000000BRCSNAACNOR6252
012020092102CSRN3       010COSERN      ON           R$  000000000177900000000017790000000001779000000000177900000000017790000000001710000000000178900001000000000000000100000000000000177900000000000000009999123100000010000000000000BRCSRNACNOR0172
012020092102CSRN6       010COSERN      PNB          R$  000000000180100000000018010000000001700000000000174700000000017010000000001700000000000175000047000000000000007900000000000013807400000000000000009999123100000010000000000000BRCSRNACNPB1173
012020092102CTGP34      010CITIGROUP   DRN          R$  000000002354900000000237030000000023340000000002357800000000237030000000020466000000000000000005000000000000000610000000000014383180000000000000009999123100000010000000000000BRCTGPBDR000139
012020092102CTKA4       010KARSTEN     PN           R$  000000000120000000000012390000000001200000000000120300000000012390000000001156000000000123500002000000000000001100000000000001323900000000000000009999123100000010000000000000BRCTKAACNPR7043
012020092102CTNM4       010COTEMINAS   PN           R$  000000000053600000000005480000000000532000000000053700000000005420000000000540000000000054200079000000000000030700000000000016497400000000000000009999123100000010000000000000BRCTNMACNPR6129
012020092102CTSA3       010SANTANENSE  ON           R$  000000000023900000000002540000000000233000000000024200000000002540000000000254000000000027000024000000000000005700000000000001384600000000000000009999123100000010000000000000BRCTSAACNOR3060
012020092102CTSA4       010SANTANENSE  PN           R$  000000000022300000000002230000000000211000000000021500000000002160000000000215000000000022000035000000000000008700000000000001872000000000000000009999123100000010000000000000BRCTSAACNPR0060
012020092102CURY3       010CURY S/A    ON      NM   R$  000000000089100000000009690000000000872000000000092400000000009460000000000941000000000094618965000000000017307900000000015997481900000000000000009999123100000010000000000000BRCURYACNOR3100
012020092102CVCB3       010CVC BRASIL  ON      NM   R$  000000000167800000000016800000000001625000000000164800000000016520000000001650000000000165213668000000000004377500000000007216666500000000000000009999123100000010000000000000BRCVCBACNOR1113
012020092102CVSH34      010CVS HEALTH  DRN          R$  000000001594100000000160770000000015720000000001577900000000158840000000015100000000001690000006000000000000001030000000000016253060000000000000009999123100000010000000000000BRCVSHBDR008117
012020092102CYRE3       010CYRELA REALTON      NM   R$  000000000225400000000022840000000002206000000000225100000000022810000000002279000000000228122231000000000005506600000000012397331800000000000000009999123100000010000000000000BRCYREACNOR7134
012020092102D1HI34      010DR HORTON INDRN          R$  000000003857900000000385790000000038579000000003857900000000385790000000000000000000000000000001000000000000000010000000000000385790000000000000009999123100000010000000000000BRD1HIBDR008103
012020092102D1OM34      010DOMINION ENEDRN          R$  000000002118300000000211830000000021133000000002115800000000211330000000000000000000000000000002000000000000000140000000000002962120000000000000009999123100000010000000000000BRD1OMBDR006103
012020092102D1VN34      010DEVON ENERGYDRN ED       R$  000000000504000000000050400000000005040000000000504000000000050400000000000000000000000000000001000000000000000100000000000000504000000000000000009999123100000010000000000000BRD1VNBDR009104
012020092102D1XC34      010DXC TECHNOLODRN          R$  000000000982500000000098300000000009825000000000982900000000098300000000000000000000000000000002000000000000000360000000000003538700000000000000009999123100000010000000000000BRD1XCBDR008101
012020092102DEAI34      010DELTA       DRN          R$  000000001830000000000183000000000016300000000001643600000000163000000000015101000000002300000008000000000000000220000000000003616000000000000000009999123100000010000000000000BRDEAIBDR008116
012020092102DGCO34      010DOLLAR GENERDRN          R$  000000005448100000000544840000000054481000000005448300000000544840000000000000000000000000000004000000000000000110000000000005993150000000000000009999123100000010000000000000BRDGCOBDR007105
012020092102DHER34      010DANAHER CORPDRN          R$  000000002730000000000274810000000027300000000002740900000000274810000000000000000000000000000003000000000000000270000000000007400430000000000000009999123100000010000000000000BRDHERBDR004121
012020092102DIRR3       010DIRECIONAL  ON      NM   R$  000000000139500000000013970000000001351000000000136900000000013800000000001380000000000138203490000000000000731800000000001001937500000000000000009999123100000010000000000000BRDIRRACNOR0112
012020092102DISB34      010WALT DISNEY DRN          R$  000000006871900000000687190000000066972000000006750000000000674900000000063000000000007100000045000000000000003360000000000226802450000000000000009999123100000010000000000000BRDISBBDR006114
012020092102DMMO3       010DOMMO       ON           R$  000000000011600000000001160000000000113000000000011300000000001130000000000112000000000011300845000000000001132600000000000128723800000000000000009999123100000010000000000000BRDMMOACNOR0102
012020092102DMVF3       010D1000VFARMA ON      NM   R$  000000000103800000000012020000000001010000000000107400000000011500000000001149000000000115004364000000000001775800000000001908209600000000000000009999123100000010000000000000BRDMVFACNOR9100
012020092102DOHL3       010DOHLER      ON           R$  000000000150000000000015000000000001301000000000141000000000013010000000001200000000000149000034000000000000005100000000000007194400000000000000009999123100000010000000000000BRDOHLACNOR2058
012020092102DOHL4       010DOHLER      PN           R$  000000000049000000000004900000000000476000000000048200000000004800000000000480000000000048900012000000000000002100000000000001013200000000000000009999123100000010000000000000BRDOHLACNPR9061
012020092102DTCY3       010DTCOM-DIRECTON           R$  000000000064700000000006500000000000647000000000064800000000006470000000000646000000000065500009000000000000001100000000000000713300000000000000009999123100000010000000000000BRDTCYACNOR5109
012020092102DTEX3       010DURATEX     ON      NM   R$  000000000170800000000017230000000001644000000000168000000000016830000000001682000000000168309955000000000002569800000000004319242400000000000000009999123100000010000000000000BRDTEXACNOR3128
012020092102E1IX34      010EDISON INTERDRN          R$  000000001386800000000138680000000013868000000001386800000000138680000000000000000000000000000001000000000000000040000000000000554720000000000000009999123100000010000000000000BRE1IXBDR004103
012020092102E1SS34      010ESSEX PROPERDRN          R$  000000001120400000000112040000000011121000000001120100000000111210000000000000000000000000000007000000000000000620000000000006945210000000000000009999123100000010000000000000BRE1SSBDR003102
012020092102EAIN34      010ELECTR ARTS DRN          R$  000000003464500000000347000000000034574000000003464000000000345740000000032000000000003650000003000000000000000210000000000007274560000000000000009999123100000010000000000000BREAINBDR007100
012020092102EALT3       010ACO ALTONA  ON           R$  000000000119100000000011910000000001191000000000119100000000011910000000001191000000000120200001000000000000000100000000000000119100000000000000009999123100000010000000000000BREALTACNOR4133
012020092102EALT4       010ACO ALTONA  PN           R$  000000000051300000000005130000000000494000000000050600000000005100000000000506000000000051000063000000000000030000000000000015194800000000000000009999123100000010000000000000BREALTACNPR1133
012020092102EBAY34      010EBAY        DRN          R$  000000001320100000000132010000000013201000000001320100000000132010000000000000000000000000000001000000000000000010000000000000132010000000000000009999123100000010000000000000BREBAYBDR009108
012020092102ECOR3       010ECORODOVIAS ON      NM   R$  000000000127300000000012750000000001231000000000124400000000012400000000001239000000000124017711000000000005980000000000007441761400000000000000009999123100000010000000000000BRECORACNOR8116
012020092102EEEL4       010CEEE-GT     PN      N1   R$  000000003800000000000380000000000038000000000003800000000000380000000000010000000000003999800001000000000000000100000000000003800000000000000000009999123100000010000000000000BREEELACNPR5107
012020092102EGIE3       010ENGIE BRASILON      NM   R$  000000000420000000000042580000000004131000000000421000000000042270000000004225000000000422708348000000000001436300000000006047064200000000000000009999123100000010000000000000BREGIEACNOR9113
012020092102ELCI34      010ESTEE LAUDERDRN          R$  000000005608000000000560800000000055729000000005585400000000557290000000000000000000000000000016000000000000001850000000000103331060000000000000009999123100000010000000000000BRELCIBDR007104
012020092102ELET3       010ELETROBRAS  ON      N1   R$  000000000317700000000032840000000003125000000000322300000000032700000000003270000000000327120038000000000004521800000000014576830500000000000000009999123100000010000000000000BRELETACNOR6155
012020092102ELET5       010ELETROBRAS  PNA     N1   R$  000000000430000000000044000000000004100000000000425700000000043980000000004001000000000430000038000000000000003800000000000016179800000000000000009999123100000010000000000000BRELETACNPA9072
012020092102ELET6       010ELETROBRAS  PNB     N1   R$  000000000331000000000033900000000003230000000000332300000000033750000000003375000000000337809652000000000002001100000000006650115300000000000000009999123100000010000000000000BRELETACNPB7072
012020092102EMAE4       010EMAE        PN           R$  000000000330600000000033900000000003300000000000332200000000033900000000003304000000000339000020000000000000003900000000000012959300000000000000009999123100000010000000000000BREMAEACNPR1114
012020092102EMBR3       010EMBRAER     ON      NM   R$  000000000065600000000006600000000000633000000000064200000000006360000000000635000000000063618164000000000015098400000000009703038700000000000000009999123100000010000000000000BREMBRACNOR4189
012020092102ENAT3       010ENAUTA PART ON      NM   R$  000000000106500000000010800000000001040000000000105100000000010400000000001040000000000104304158000000000000982800000000001033296100000000000000009999123100000010000000000000BRENATACNOR0101
012020092102ENBR3       010ENERGIAS BR ON      NM   R$  000000000180000000000018320000000001776000000000181300000000018260000000001826000000000182714347000000000003570600000000006474388100000000000000009999123100000010000000000000BRENBRACNOR2129
012020092102ENEV3       010ENEVA       ON      NM   R$  000000000501400000000051760000000004941000000000506900000000051610000000005160000000000516109444000000000001556500000000007890030500000000000000009999123100000010000000000000BRENEVACNOR8104
012020092102ENGI3       010ENERGISA    ON      N2   R$  000000000124700000000012840000000001225000000000124600000000012840000000001279000000000128400068000000000000008400000000000010473600000000000000009999123100000010000000000000BRENGIACNOR0138
012020092102ENGI4       010ENERGISA    PN      N2   R$  000000000074900000000007690000000000730000000000074900000000007480000000000742000000000075600098000000000000020600000000000015445100000000000000009999123100000010000000000000BRENGIACNPR7134
012020092102ENGI11      010ENERGISA    UNT     N2   R$  000000000424900000000043320000000004173000000000427700000000042680000000004268000000000427306471000000000001241200000000005308691500000000000000009999123100000010000000000000BRENGICDAM16128
012020092102ENMT3       010ENERGISA MT ON           R$  000000000298900000000029900000000002800000000000290900000000029900000000002820000000000299000048000000000000006000000000000017459200000000000000009999123100000010000000000000BRENMTACNOR5111
012020092102ENMT4       010ENERGISA MT PN           R$  000000000298900000000029900000000002740000000000290100000000029900000000002855000000000299000021000000000000002100000000000006093800000000000000009999123100000010000000000000BRENMTACNPR2114
012020092102EQPA3       010EQTL PARA   ON           R$  000000000031500000000003240000000000310000000000031600000000003200000000000316000000000032000047000000000000043300000000000013694500000000000000009999123100000010000000000000BREQPAACNOR1101
012020092102EQTL3       010EQUATORIAL  ON      NM   R$  000000000224500000000022960000000002230000000000227700000000022850000000002280000000000228517272000000000003814000000000008687115000000000000000009999123100000010000000000000BREQTLACNOR0126
012020092102EUCA3       010EUCATEX     ON      N1   R$  000000000220100000000022400000000002200000000000221800000000022000000000002200000000000223400011000000000000001600000000000003549600000000000000009999123100000010000000000000BREUCAACNOR1151
012020092102EUCA4       010EUCATEX     PN      N1   R$  000000000069000000000006900000000000642000000000065700000000006630000000000662000000000067900231000000000000062400000000000041050200000000000000009999123100000010000000000000BREUCAACNPR8038
012020092102EVEN3       010EVEN        ON      NM   R$  000000000114900000000011800000000001108000000000114000000000011800000000001165000000000119405563000000000001791000000000002042942500000000000000009999123100000010000000000000BREVENACNOR8112
012020092102EXXO34      010EXXON MOBIL DRN          R$  000000000488200000000049100000000004830000000000485500000000048970000000004850000000000564500023000000000000012820000000000062246430000000000000009999123100000010000000000000BREXXOBDR006140
012020092102EZTC3       010EZTEC       ON      NM   R$  000000000371800000000037430000000003636000000000369900000000037430000000003741000000000374311337000000000002041700000000007552826400000000000000009999123100000010000000000000BREZTCACNOR0114
012020092102F1AN34      010DIAMONDBACK DRN          R$  000000000871900000000087200000000008500000000000869400000000085000000000000000000000000000000006000000000000000490000000000004260230000000000000009999123100000010000000000000BRF1ANBDR001103
012020092102F1RI34      010FEDERAL REALDRN ED       R$  000000000998000000000100000000000009980000000000998900000000100000000000000000000000000000000003000000000000000390000000000003896000000000000000009999123100000010000000000000BRF1RIBDR005103
012020092102FBOK34      010FACEBOOK    DRN          R$  000000006770000000000677000000000066427000000006712600000000671070000000066425000000006910000090000000000000016500000000001107594160000000000000009999123100000010000000000000BRFBOKBDR006100
012020092102FDXB34      010FEDEX CORP  DRN          R$  000000012858600000001289250000000127393000000012806500000001289250000000127200000000000000000007000000000000000080000000000010245200000000000000009999123100000010000000000000BRFDXBBDR002128
012020092102FESA3       010FERBASA     ON      N1   R$  000000000255700000000026000000000002353000000000246900000000023710000000002300000000000245000032000000000000003200000000000007903000000000000000009999123100000010000000000000BRFESAACNOR8171
012020092102FESA4       010FERBASA     PN      N1   R$  000000000179900000000017990000000001730000000000176300000000017680000000001759000000000176800710000000000000173700000000000306265400000000000000009999123100000010000000000000BRFESAACNPR5067
012020092102FLRY3       010FLEURY      ON      NM   R$  000000000288500000000029230000000002848000000000288200000000029230000000002903000000000292311244000000000001926400000000005552734900000000000000009999123100000010000000000000BRFLRYACNOR5127
012020092102FRAS3       010FRAS-LE     ON      N1   R$  000000000053000000000005470000000000520000000000052900000000005470000000000535000000000054700343000000000000096100000000000050921400000000000000009999123100000010000000000000BRFRASACNOR0149
012020092102FRIO3       010METALFRIO   ON      NM   R$  000000000780000000000078000000000007800000000000780000000000078000000000007200000000000889300001000000000000000100000000000000780000000000000000009999123100000010000000000000BRFRIOACNOR2110
012020092102G1MI34      010GENERAL MILLDRN          R$  000000003146900000000314690000000031420000000003144400000000314200000000000000000000000000000002000000000000000020000000000000628890000000000000009999123100000010000000000000BRG1MIBDR005102
012020092102G1PI34      010GLOBAL PAYMEDRN          R$  000000002349000000000235220000000023462000000002349500000000235220000000000000000000000000000003000000000000000240000000000005638840000000000000009999123100000010000000000000BRG1PIBDR008103
012020092102GEOO34      010GE          DRN          R$  000000000367800000000036780000000003366000000000339000000000034210000000003372000000000000000007000000000000004130000000000014003260000000000000009999123100000010000000000000BRGEOOBDR000140
012020092102GEPA4       010GER PARANAP PN           R$  000000000458200000000045820000000004551000000000457200000000045530000000004552000000000458000006000000000000001100000000000005030200000000000000009999123100000010000000000000BRGEPAACNPR9153
012020092102GFSA3       010GAFISA      ON      NM   R$  000000000042200000000004260000000000412000000000042000000000004220000000000422000000000042405516000000000004747400000000001994150900000000000000009999123100000010000000000000BRGFSAACNOR3119
012020092102GGBR3       010GERDAU      ON      N1   R$  000000000169800000000017490000000001660000000000169500000000017010000000001701000000000170200394000000000000117100000000000198495500000000000000009999123100000010000000000000BRGGBRACNOR1173
012020092102GGBR4       010GERDAU      PN      N1   R$  000000000206900000000021320000000002043000000000206300000000020590000000002059000000000206036308000000000020543700000000042388914800000000000000009999123100000010000000000000BRGGBRACNPR8173
012020092102GILD34      010GILEAD      DRN ED       R$  000000001733800000000173380000000017338000000001733800000000173380000000000000000000001733800001000000000000000060000000000001040280000000000000009999123100000010000000000000BRGILDBDR000118
012020092102GMCO34      010GENERAL MOT DRN          R$  000000001650000000000165000000000015978000000001609100000000160990000000000000000000000000000034000000000000001960000000000031539810000000000000009999123100000010000000000000BRGMCOBDR008115
012020092102GNDI3       010INTERMEDICA ON      NM   R$  000000000686000000000069290000000006712000000000684900000000069170000000006902000000000691712280000000000002483200000000017008118200000000000000009999123100000010000000000000BRGNDIACNOR2102
012020092102GOAU3       010GERDAU MET  ON      N1   R$  000000000081000000000008240000000000788000000000080700000000008170000000000812000000000081700230000000000000051600000000000041659400000000000000009999123100000010000000000000BRGOAUACNOR1250
012020092102GOAU4       010GERDAU MET  PN      N1   R$  000000000092600000000009540000000000917000000000092800000000009300000000000928000000000093018849000000000018362600000000017058801200000000000000009999123100000010000000000000BRGOAUACNPR8251
012020092102GOGL34      010ALPHABET    DRN A        R$  000000003131500000000313750000000030606000000003096400000000308910000000030833000000003089100089000000000000011100000000000343707180000000000000009999123100000010000000000000BRGOGLBDR001100
012020092102GOGL35      010ALPHABET    DRN C        R$  000000003101900000000310190000000030808000000003091300000000309300000000000000000000000000000004000000000000000400000000000012365220000000000000009999123100000010000000000000BRGOGLBDR019100
012020092102GOLL4       010GOL         PN      N2   R$  000000000194900000000019640000000001834000000000188300000000018400000000001839000000000184037858000000000017146100000000032295196200000000000000009999123100000010000000000000BRGOLLACNPR4125
012020092102GPIV33      010GP INVEST   DR3          R$  000000000048400000000004980000000000455000000000047300000000004630000000000462000000000046800132000000000000104500000000000049469100000000000000009999123100000010000000000000BRGPIVBDR003104
012020092102GPRK34      010GEOPARK LTD DRN          R$  000000000440900000000044140000000004409000000000441200000000044140000000000000000000000000000003000000000000000660000000000002912040000000000000009999123100000010000000000000BRGPRKBDR007103
012020092102GRND3       010GRENDENE    ON      NM   R$  000000000074300000000007510000000000733000000000074000000000007500000000000748000000000075002945000000000000983400000000000728224700000000000000009999123100000010000000000000BRGRNDACNOR3158
012020092102GSGI34      010GOLDMANSACHSDRN          R$  000000001031000000000104790000000010310000000001036600000000104790000000010300000000000000000002000000000000000030000000000000310990000000000000009999123100000010000000000000BRGSGIBDR008140
012020092102GSHP3       010GENERALSHOPPON      NM   R$  000000000477000000000047700000000004760000000000476300000000047600000000004760000000000550000003000000000000000300000000000001429000000000000000009999123100000010000000000000BRGSHPACNOR7102
012020092102GUAR3       010GUARARAPES  ON           R$  000000000160500000000016050000000001535000000000155500000000015510000000001550000000000155303361000000000000802900000000001248639900000000000000009999123100000010000000000000BRGUARACNOR4165
012020092102H1RB34      010HER BLOCK INDRN ED       R$  000000000740100000000074300000000007401000000000740700000000074300000000000000000000000000000010000000000000000830000000000006148040000000000000009999123100000010000000000000BRH1RBBDR008103
012020092102HAGA3       010HAGA S/A    ON           R$  000000000031100000000003300000000000311000000000032100000000003170000000000317000000000031900021000000000000004200000000000001350400000000000000009999123100000010000000000000BRHAGAACNOR7103
012020092102HAGA4       010HAGA S/A    PN           R$  000000000018700000000001890000000000179000000000018400000000001820000000000182000000000018400126000000000000090800000000000016744400000000000000009999123100000010000000000000BRHAGAACNPR4103
012020092102HALI34      010HALLIBURTON DRN          R$  000000000704300000000070430000000007030000000000703400000000070300000000006040000000000000000002000000000000000080000000000000562790000000000000009999123100000010000000000000BRHALIBDR004135
012020092102HAPV3       010HAPVIDA     ON  EJ  NM   R$  000000000622900000000063010000000006122000000000622100000000062910000000006264000000000629507551000000000001272200000000007915063400000000000000009999123100000010000000000000BRHAPVACNOR4106
012020092102HBOR3       010HELBOR      ON      NM   R$  000000000107100000000010770000000001021000000000104500000000010590000000001058000000000105905428000000000004033500000000004216047800000000000000009999123100000010000000000000BRHBORACNOR3114
012020092102HBTS5       010HABITASUL   PNA          R$  000000000249900000000026910000000002300000000000251000000000025000000000002002000000000260000071000000000000011900000000000029880100000000000000009999123100000010000000000000BRHBTSACNPA3124
012020092102HETA4       010HERCULES    PN           R$  000000000075600000000007560000000000756000000000075600000000007560000000000752000000000078700001000000000000000100000000000000075600000000000000009999123100000010000000000000BRHETAACNPR9136
012020092102HGTX3       010CIA HERING  ON      NM   R$  000000000177000000000018040000000001741000000000176800000000017790000000001779000000000178006976000000000002542700000000004497909300000000000000009999123100000010000000000000BRHGTXACNOR9151
012020092102HOME34      010HOME DEPOT  DRN          R$  000000007296300000000729630000000072963000000007296300000000729630000000000000000000000000000001000000000000001600000000000116740800000000000000009999123100000010000000000000BRHOMEBDR002134
012020092102HYPE3       010HYPERA      ON      NM   R$  000000000300200000000030510000000002960000000000302000000000030360000000003030000000000303610904000000000002042500000000006169363500000000000000009999123100000010000000000000BRHYPEACNOR0122
012020092102I1LM34      010ILLUMINA INCDRN          R$  000000002931000000000293100000000029039000000002920100000000292490000000000000000000000000000006000000000000000690000000000020149030000000000000009999123100000010000000000000BRI1LMBDR007100
012020092102I1SR34      010INTUITIVE SUDRN          R$  000000003462000000000346300000000034558000000003460700000000346300000000000000000000000000000003000000000000000110000000000003806840000000000000009999123100000010000000000000BRI1SRBDR001100
012020092102I1TW34      010ILLINOIS TOODRN          R$  000000002571000000000257100000000025708000000002570800000000257080000000000000000000000000000015000000000000004770000000000122630300000000000000009999123100000010000000000000BRI1TWBDR009102
012020092102IBMB34      010IBM         DRN          R$  000000006416000000000641600000000064081000000006412100000000640810000000060000000000000000000004000000000000000080000000000005129740000000000000009999123100000010000000000000BRIBMBBDR003135
012020092102IDVL3       010INDUSVAL    ON      N2   R$  000000000024700000000002520000000000242000000000024800000000002500000000000243000000000024600028000000000000012900000000000003210600000000000000009999123100000010000000000000BRIDVLACNOR5130
012020092102IDVL4       010INDUSVAL    PN      N2   R$  000000000024600000000002490000000000238000000000024400000000002490000000000243000000000024900026000000000000013900000000000003394400000000000000009999123100000010000000000000BRIDVLACNPR2130
012020092102IGTA3       010IGUATEMI    ON      NM   R$  000000000346200000000034840000000003346000000000338900000000033850000000003380000000000338513751000000000002797200000000009480856000000000000000009999123100000010000000000000BRIGTAACNOR5124
012020092102IRBR3       010IRBBRASIL REON      NM   R$  000000000055100000000005520000000000533000000000054100000000005410000000000540000000000054122153000000000027066600000000014644190600000000000000009999123100000010000000000000BRIRBRACNOR4108
012020092102ITLC34      010INTEL       DRN          R$  000000002661100000000268750000000026550000000002668600000000268750000000000000000000002719600005000000000000001210000000000032290450000000000000009999123100000010000000000000BRITLCBDR005139
012020092102ITSA3       010ITAUSA      ON      N1   R$  000000000102700000000010370000000001011000000000102600000000010370000000001029000000000103700581000000000000147700000000000151642800000000000000009999123100000010000000000000BRITSAACNOR0401
012020092102ITSA4       010ITAUSA      PN      N1   R$  000000000088900000000009000000000000879000000000089200000000008980000000000897000000000089855747000000000038461700000000034318332400000000000000009999123100000010000000000000BRITSAACNPR7401
012020092102ITUB3       010ITAUUNIBANCOON      N1   R$  000000000217000000000021880000000002145000000000217000000000021870000000002186000000000218701992000000000000449400000000000975512700000000000000009999123100000010000000000000BRITUBACNOR4273
012020092102ITUB4       010ITAUUNIBANCOPN      N1   R$  000000000227500000000023020000000002245000000000228100000000022900000000002290000000000229160016000000000036572200000000083445018200000000000000009999123100000010000000000000BRITUBACNPR1273
012020092102J1WN34      010NORDSTROM INDRN          R$  000000000739600000000074190000000007269000000000739200000000072690000000005816000000001571500008000000000000001010000000000007466840000000000000009999123100000010000000000000BRJ1WNBDR001101
012020092102JBDU3       010J B DUARTE  ON           R$  000000000024900000000002490000000000214000000000022500000000002330000000000233000000000023400085000000000000024500000000000005521100000000000000009999123100000010000000000000BRJBDUACNOR6142
012020092102JBDU4       010J B DUARTE  PN           R$  000000000013700000000001370000000000125000000000012900000000001280000000000128000000000013100202000000000000188700000000000024365000000000000000009999123100000010000000000000BRJBDUACNPR3142
012020092102JBSS3       010JBS         ON      NM   R$  000000000229000000000023180000000002277000000000229600000000022990000000002298000000000229926194000000000011097200000000025486127000000000000000009999123100000010000000000000BRJBSSACNOR8115
012020092102JDCO34      010JD COM      DRN          R$  000000004054300000000405430000000040543000000004054300000000405430000000039099000000004700000001000000000000000040000000000001621720000000000000009999123100000010000000000000BRJDCOBDR001100
012020092102JHSF3       010JHSF PART   ON      NM   R$  000000000072000000000007300000000000701000000000071600000000007150000000000714000000000071512560000000000010011400000000007169731200000000000000009999123100000010000000000000BRJHSFACNOR2116
012020092102JNJB34      010JOHNSON     DRN          R$  000000007990000000000799000000000077000000000007796700000000780620000000077288000000007980000009000000000000003910000000000304853910000000000000009999123100000010000000000000BRJNJBBDR002135
012020092102JOPA3       010JOSAPAR     ON           R$  000000000334800000000033480000000003054000000000319500000000030900000000002801000000000333000014000000000000001400000000000004473600000000000000009999123100000010000000000000BRJOPAACNOR5131
012020092102JPMC34      010JPMORGAN    DRN          R$  000000002562000000000260000000000025300000000002567600000000256800000000025000000000002568000071000000000000004570000000000117339790000000000000009999123100000010000000000000BRJPMCBDR009134
012020092102JPSA3       010JEREISSATI  ON           R$  000000000223500000000022350000000002147000000000217800000000021970000000002180000000000219701617000000000000316500000000000689484200000000000000009999123100000010000000000000BRJPSAACNOR6103
012020092102JSLG11      010JSL         ON  P   NM   R$  000000000092000000000009200000000000871000000000088300000000008870000000000886000000000088801078000000000000441600000000000390223200000000000000009999123100000010000000000000BRJSLGA02OR1100
012020092102K1RC34      010KROGER CO   DRN          R$  000000001805900000000180590000000018059000000001805900000000180590000000000000000000000000000001000000000000000010000000000000180590000000000000009999123100000010000000000000BRK1RCBDR001103
012020092102KEPL3       010KEPLER WEBERON           R$  000000000406000000000040780000000003961000000000400900000000039610000000003961000000000398200259000000000000047800000000000191645700000000000000009999123100000010000000000000BRKEPLACNOR1049
012020092102KHCB34      010KRAFT HEINZ DRN          R$  000000001620100000000162010000000016201000000001620100000000162010000000015000000000001750000001000000000000000170000000000002754170000000000000009999123100000010000000000000BRKHCBBDR007121
012020092102KLBN3       010KLABIN S/A  ON      N2   R$  000000000053700000000005370000000000507000000000051600000000005110000000000511000000000051401059000000000000374300000000000193184000000000000000009999123100000010000000000000BRKLBNACNOR2156
012020092102KLBN4       010KLABIN S/A  PN      N2   R$  000000000049800000000005030000000000480000000000048900000000004900000000000488000000000049002336000000000001189200000000000581893100000000000000009999123100000010000000000000BRKLBNACNPR9156
012020092102KLBN11      010KLABIN S/A  UNT     N2   R$  000000000250800000000025480000000002425000000000246900000000024780000000002476000000000247819614000000000004650500000000011486316400000000000000009999123100000010000000000000BRKLBNCDAM18128
012020092102L1RC34      010LAM RESEARCHDRN          R$  000000004197000000000421210000000041970000000004206700000000421210000000000000000000000000000003000000000000000270000000000011358270000000000000009999123100000010000000000000BRL1RCBDR000102
012020092102LAME3       010LOJAS AMERICON      N1   R$  000000000249000000000025460000000002449000000000250100000000025460000000002540000000000254612101000000000002081600000000005207039700000000000000009999123100000010000000000000BRLAMEACNOR9202
012020092102LAME4       010LOJAS AMERICPN      N1   R$  000000000288300000000029880000000002851000000000291400000000029490000000002949000000000295624023000000000005762100000000016793203600000000000000009999123100000010000000000000BRLAMEACNPR6202
012020092102LAVV3       010LAVVI       ON      NM   R$  000000000078000000000008000000000000736000000000076500000000008000000000000795000000000080003612000000000002530900000000001938200900000000000000009999123100000010000000000000BRLAVVACNOR4100
012020092102LBRN34      010L BRANDS    DRN          R$  000000000391700000000039740000000003917000000000397200000000039740000000000000000000000000000002000000000000002310000000000009176520000000000000009999123100000010000000000000BRLBRNBDR001119
012020092102LCAM3       010LOCAMERICA  ON  EJ  NM   R$  000000000214700000000021470000000002068000000000210700000000021150000000002110000000000211508311000000000002531400000000005333903400000000000000009999123100000010000000000000BRLCAMACNOR3134
012020092102LEVE3       010METAL LEVE  ON      NM   R$  000000000173400000000017340000000001701000000000171700000000017100000000001710000000000171702042000000000000391200000000000671965600000000000000009999123100000010000000000000BRLEVEACNOR2187
012020092102LIGT3       010LIGHT S/A   ON      NM   R$  000000000142600000000014640000000001406000000000143900000000014450000000001445000000000145006202000000000001409900000000002029532900000000000000009999123100000010000000000000BRLIGTACNOR2120
012020092102LILY34      010LILLY       DRN          R$  000000004035000000000403500000000040300000000004032300000000403210000000000000000000004230000004000000000000000420000000000016935860000000000000009999123100000010000000000000BRLILYBDR006134
012020092102LINX3       010LINX        ON      NM   R$  000000000352800000000035470000000003487000000000351400000000035010000000003501000000000350904788000000000001484900000000005218798800000000000000009999123100000010000000000000BRLINXACNOR0118
012020092102LJQQ3       010QUERO-QUERO ON      NM   R$  000000000147900000000015220000000001434000000000148600000000015000000000001498000000000150001969000000000000648200000000000963808500000000000000009999123100000010000000000000BRLJQQACNOR5100
012020092102LOGG3       010LOG COM PROPON      NM   R$  000000000316400000000031650000000003060000000000309400000000030880000000003082000000000308802722000000000000434500000000001344455200000000000000009999123100000010000000000000BRLOGGACNOR7103
012020092102LOGN3       010LOG-IN      ON      NM   R$  000000000172100000000017210000000001643000000000166400000000016530000000001653000000000165403157000000000000930000000000001547911400000000000000009999123100000010000000000000BRLOGNACNOR3104
012020092102LOWC34      010LOWES COMPA DRN          R$  000000004257000000000426720000000042342000000004252600000000426720000000000000000000000000000005000000000000000170000000000007229530000000000000009999123100000010000000000000BRLOWCBDR007105
012020092102LPSB3       010LOPES BRASILON      NM   R$  000000000054600000000005460000000000523000000000053400000000005400000000000535000000000054002656000000000001320800000000000705625900000000000000009999123100000010000000000000BRLPSBACNOR0111
012020092102LREN3       010LOJAS RENNERON      NM   R$  000000000418800000000041880000000004027000000000410100000000041450000000004142000000000414530024000000000012893300000000052878906100000000000000009999123100000010000000000000BRLRENACNOR1203
012020092102LUXM4       010TREVISA     PN           R$  000000000460000000000046000000000004600000000000460000000000046000000000003800000000000465000001000000000000000100000000000000460000000000000000009999123100000010000000000000BRLUXMACNPR4047
012020092102LWSA3       010LOCAWEB     ON      NM   R$  000000000570000000000058870000000005575000000000576200000000058420000000005833000000000584207162000000000001128500000000006503308000000000000000009999123100000010000000000000BRLWSAACNOR8100
012020092102M1CH34      010MICROCHIP TEDRN          R$  000000002700000000000270000000000027000000000002700000000000270000000000000000000000000000000001000000000000000080000000000002160000000000000000009999123100000010000000000000BRM1CHBDR000103
012020092102M1MC34      010MARSH E MCLEDRN          R$  000000003117000000000312140000000031170000000003119400000000312140000000000000000000000000000013000000000000004260000000000132889040000000000000009999123100000010000000000000BRM1MCBDR000102
012020092102M1PC34      010MARATHON PETDRN          R$  000000001675200000000167520000000016752000000001675200000000167520000000000000000000000000000001000000000000000030000000000000502560000000000000009999123100000010000000000000BRM1PCBDR003103
012020092102M1TT34      010MARRIOTT INTDRN          R$  000000001290100000000129010000000012700000000001280500000000127000000000000000000000000000000003000000000000000190000000000002433100000000000000009999123100000010000000000000BRM1TTBDR009101
012020092102MCDC34      010MCDONALDS   DRN          R$  000000002922000000000292200000000028920000000002913800000000291550000000028900000000000000000007000000000000004570000000000133163230000000000000009999123100000010000000000000BRMCDCBDR000140
012020092102MDIA3       010M.DIASBRANCOON      NM   R$  000000000368300000000036830000000003561000000000361800000000036540000000003619000000000365506997000000000001117700000000004043983600000000000000009999123100000010000000000000BRMDIAACNOR7118
012020092102MDNE3       010MOURA DUBEUXON      NM   R$  000000000084000000000008630000000000808000000000083400000000008210000000000821000000000083005017000000000000759100000000000633295100000000000000009999123100000010000000000000BRMDNEACNOR9100
012020092102MEAL3       010IMC S/A     ON      NM   R$  000000000033200000000003350000000000319000000000032400000000003210000000000321000000000032315484000000000016690900000000005415527600000000000000009999123100000010000000000000BRMEALACNOR9105
012020092102MELI34      010MERCADOLIBREDRN          R$  000000005360000000000546610000000052960000000005376900000000543700000000053868000000005480000090000000000000012590000000000676955250000000000000009999123100000010000000000000BRMELIBDR006100
012020092102MGEL4       010MANGELS INDLPN           R$  000000000056000000000005990000000000540000000000057800000000005950000000000571000000000059500020000000000000007500000000000004340700000000000000009999123100000010000000000000BRMGELACNPR3147
012020092102MGLU3       010MAGAZ LUIZA ON      NM   R$  000000000852300000000089150000000008433000000000869100000000088700000000008869000000000887061699000000000015244800000000132498777000000000000000009999123100000010000000000000BRMGLUACNOR2116
012020092102MILS3       010MILLS       ON      NM   R$  000000000064600000000006460000000000606000000000061700000000006100000000000610000000000061303568000000000001841100000000001137799600000000000000009999123100000010000000000000BRMILSACNOR2112
012020092102MMMC34      0103M          DRN          R$  000000002168800000000218040000000021620000000002179900000000218040000000015000000000000000000003000000000000001850000000000040329560000000000000009999123100000010000000000000BRMMMCBDR000134
012020092102MNDL3       010MUNDIAL     ON           R$  000000000226000000000022600000000002250000000000225100000000022500000000002260000000000240000004000000000000002500000000000005629500000000000000009999123100000010000000000000BRMNDLACNOR4107
012020092102MNPR3       010MINUPAR     ON           R$  000000000058900000000005970000000000563000000000057500000000005970000000000561000000000059700013000000000000002900000000000001669200000000000000009999123100000010000000000000BRMNPRACNOR5122
012020092102MOAR3       010MONT ARANHA ON           R$  000000002000000000000200000000000020000000000002000000000000200000000000018800000000002039000001000000000000000100000000000002000000000000000000009999123100000010000000000000BRMOARACNOR5212
012020092102MOOO34      010ALTRIA GROUPDRN ED       R$  000000002100000000000210000000000020853000000002089600000000209160000000000000000000000000000004000000000000000410000000000008567430000000000000009999123100000010000000000000BRMOOOBDR007105
012020092102MOVI3       010MOVIDA      ON      NM   R$  000000000170100000000017090000000001640000000000167100000000016790000000001679000000000168010236000000000002469300000000004126231900000000000000009999123100000010000000000000BRMOVIACNOR0111
012020092102MRCK34      010MERCK       DRN ED       R$  000000004520000000000452000000000044160000000004459000000000447550000000044160000000000000000006000000000000000620000000000027646290000000000000009999123100000010000000000000BRMRCKBDR003140
012020092102MRFG3       010MARFRIG     ON      NM   R$  000000000160600000000016630000000001601000000000163000000000016530000000001653000000000165424614000000000009477600000000015455593400000000000000009999123100000010000000000000BRMRFGACNOR0109
012020092102MRVE3       010MRV         ON      NM   R$  000000000159200000000016200000000001573000000000159500000000016100000000001610000000000161413675000000000003890800000000006207567500000000000000009999123100000010000000000000BRMRVEACNOR2120
012020092102MSCD34      010MASTERCARD  DRN          R$  000000017715000000001771500000000174601000000017650900000001761730000000151600000000000000000007000000000000001750000000000308891060000000000000009999123100000010000000000000BRMSCDBDR006137
012020092102MSFT34      010MICROSOFT   DRN          R$  000000010760000000001091220000000106743000000010782900000001091070000000105000000000011331400193000000000000008260000000000890668820000000000000009999123100000010000000000000BRMSFTBDR005139
012020092102MSPA3       010MELHOR SP   ON           R$  000000000529900000000052990000000004780000000000503900000000047800000000004401000000000530000002000000000000000200000000000001007900000000000000009999123100000010000000000000BRMSPAACNOR0125
012020092102MSPA4       010MELHOR SP   PN           R$  000000000450000000000045000000000004500000000000450000000000045000000000004210000000000533500001000000000000000100000000000000450000000000000000009999123100000010000000000000BRMSPAACNPR7125
012020092102MTRE3       010MITRE REALTYON      NM   R$  000000000143700000000014430000000001382000000000141400000000014290000000001427000000000143003163000000000000522100000000000738337800000000000000009999123100000010000000000000BRMTREACNOR6100
012020092102MTSA4       010METISA      PN           R$  000000000263500000000027400000000002600000000000263300000000026760000000002600000000000267600012000000000000002500000000000006583100000000000000009999123100000010000000000000BRMTSAACNPR9056
012020092102MULT3       010MULTIPLAN   ON      N2   R$  000000000217200000000021730000000002114000000000213900000000021440000000002143000000000214426213000000000005962200000000012755432100000000000000009999123100000010000000000000BRMULTACNOR5127
012020092102MUTC34      010MICRON TECHNDRN          R$  000000002637000000000263700000000026308000000002632800000000263110000000000000000000000000000003000000000000000250000000000006582230000000000000009999123100000010000000000000BRMUTCBDR008100
012020092102MYPK3       010IOCHP-MAXIONON      NM   R$  000000000138800000000013930000000001313000000000134400000000013410000000001340000000000134111299000000000003089000000000004154286800000000000000009999123100000010000000000000BRMYPKACNOR7148
012020092102N1CL34      010NORWEGIAN CRDRN          R$  000000000840000000000084000000000008400000000000840000000000084000000000000000000000001058000001000000000000000030000000000000252000000000000000009999123100000010000000000000BRN1CLBDR001100
012020092102N1DA34      010NASDAQ INC  DRN ED       R$  000000003329900000000332990000000033108000000003318400000000331080000000000000000000000000000002000000000000000250000000000008296100000000000000009999123100000010000000000000BRN1DABDR002103
012020092102N1EM34      010NEWMONT GOLDDRN          R$  000000003472000000000348020000000034410000000003462700000000346870000000033000000000000000000031000000000000008300000000000287409850000000000000009999123100000010000000000000BRN1EMBDR005103
012020092102N1SC34      010NORFOLK SOUTDRN          R$  000000002868000000000286910000000028649000000002867300000000286910000000000000000000000000000017000000000000004320000000000123869860000000000000009999123100000010000000000000BRN1SCBDR006103
012020092102NEOE3       010NEOENERGIA  ON      NM   R$  000000000176400000000017930000000001734000000000176500000000017730000000001772000000000177306684000000000001869000000000003300182100000000000000009999123100000010000000000000BRNEOEACNOR3111
012020092102NEXT34      010NEXTERA ENERDRN          R$  000000003693000000000369520000000036872000000003692200000000369520000000036389000000000000000003000000000000000170000000000006276740000000000000009999123100000010000000000000BRNEXTBDR006105
012020092102NFLX34      010NETFLIX     DRN          R$  000000025280100000002631450000000252801000000025955500000002631450000000251100000000027500000023000000000000001410000000000365973100000000000000009999123100000010000000000000BRNFLXBDR000101
012020092102NIKE34      010NIKE        DRN          R$  000000006107000000000610700000000061070000000006107000000000610700000000000000000000000000000001000000000000000010000000000000610700000000000000009999123100000010000000000000BRNIKEBDR006139
012020092102NOKI34      010NOKIA CORP  DRN          R$  000000000216100000000021610000000002137000000000214900000000021370000000000000000000000000000002000000000000000920000000000001977080000000000000009999123100000010000000000000BRNOKIBDR005100
012020092102NTCO3       010GRUPO NATURAON      NM   R$  000000000516500000000052000000000005069000000000512500000000051490000000005149000000000515119742000000000003614300000000018523321000000000000000009999123100000010000000000000BRNTCOACNOR5101
012020092102NVDC34      010NVIDIA CORP DRN          R$  000000006512100000000675190000000065121000000006658000000000675190000000065921000000006780000022000000000000001280000000000085222870000000000000009999123100000010000000000000BRNVDCBDR008106
012020092102ODPV3       010ODONTOPREV  ON  EJ  NM   R$  000000000125500000000012850000000001237000000000126000000000012850000000001285000000000128603969000000000001588300000000002002249500000000000000009999123100000010000000000000BRODPVACNOR4179
012020092102OFSA3       010OUROFINO S/AON      NM   R$  000000000285000000000028500000000002721000000000279700000000028090000000002790000000000281500098000000000000015800000000000044202500000000000000009999123100000010000000000000BROFSAACNOR7109
012020092102OMGE3       010OMEGA GER   ON      NM   R$  000000000384000000000039390000000003732000000000383100000000038300000000003828000000000383106479000000000001084800000000004156660200000000000000009999123100000010000000000000BROMGEACNOR0101
012020092102ORCL34      010ORACLE      DRN          R$  000000003322200000000332220000000032430000000003265000000000328830000000032097000000000000000008000000000000000690000000000022529030000000000000009999123100000010000000000000BRORCLBDR007134
012020092102P1GR34      010THE PROGRESSDRN          R$  000000002568000000000258920000000025680000000002581300000000258920000000000000000000000000000003000000000000000230000000000005937030000000000000009999123100000010000000000000BRP1GRBDR007102
012020092102P1LD34      010PROLOGIS INCDRN ED       R$  000000002630800000000263080000000026308000000002630800000000263080000000000000000000000000000001000000000000000040000000000001052320000000000000009999123100000010000000000000BRP1LDBDR007103
012020092102P1SX34      010PHILLIPS 66 DRN          R$  000000001554400000000155440000000015544000000001554400000000155440000000000000000000000000000003000000000000000270000000000004196880000000000000009999123100000010000000000000BRP1SXBDR000103
012020092102PARD3       010IHPARDINI   ON  EJ  NM   R$  000000000234000000000023920000000002309000000000236300000000023830000000002379000000000238304697000000000000895300000000002116015400000000000000009999123100000010000000000000BRPARDACNOR1115
012020092102PCAR3       010P.ACUCAR-CBDON      NM   R$  000000000743000000000075140000000007367000000000745100000000074550000000007455000000000746009080000000000002014000000000015006393600000000000000009999123100000010000000000000BRPCARACNOR3163
012020092102PDTC3       010PADTEC      ON           R$  000000000052100000000005300000000000505000000000051600000000005050000000000505000000000051900119000000000000034100000000000017619600000000000000009999123100000010000000000000BRPDTCACNOR3100
012020092102PEAB3       010PAR AL BAHIAON           R$  000000000640000000000070000000000006400000000000670000000000070000000000006336000000000700000002000000000000000200000000000001340000000000000000009999123100000010000000000000BRPEABACNOR3124
012020092102PEPB34      010PEPSICO INC DRN          R$  000000007081100000000708110000000070000000000007043300000000705870000000065100000000000000000005000000000000000610000000000042964150000000000000009999123100000010000000000000BRPEPBBDR005132
012020092102PETR3       010PETROBRAS   ON      N2   R$  000000000216300000000021760000000002112000000000213000000000021280000000002125000000000212829055000000000018287300000000038958534800000000000000009999123100000010000000000000BRPETRACNOR9191
012020092102PETR4       010PETROBRAS   PN      N2   R$  000000000212900000000021460000000002081000000000210400000000020900000000002089000000000209075333000000000073300000000000154249901700000000000000009999123100000010000000000000BRPETRACNPR6197
012020092102PETZ3       010PETZ        ON      NM   R$  000000000151500000000015320000000001481000000000149600000000014950000000001492000000000149508763000000000003364200000000005035563500000000000000009999123100000010000000000000BRPETZACNOR2100
012020092102PFIZ34      010PFIZER      DRN          R$  000000001978000000000197800000000019100000000001933400000000194200000000019272000000001983900011000000000000001410000000000027261950000000000000009999123100000010000000000000BRPFIZBDR006140
012020092102PFRM3       010PROFARMA    ON      NM   R$  000000000047100000000004940000000000453000000000047600000000004900000000000487000000000049002034000000000000826600000000000393731800000000000000009999123100000010000000000000BRPFRMACNOR1112
012020092102PGCO34      010PG          DRN          R$  000000007330000000000735820000000072600000000007307300000000735820000000000000000000007430000008000000000000000700000000000051151730000000000000009999123100000010000000000000BRPGCOBDR001139
012020092102PGMN3       010PAGUE MENOS ON      NM   R$  000000000093800000000009380000000000903000000000092100000000009300000000000925000000000093200903000000000000359200000000000330999100000000000000009999123100000010000000000000BRPGMNACNOR8100
012020092102PINE4       010PINE        PN      N2   R$  000000000026400000000002640000000000255000000000025800000000002590000000000258000000000025900289000000000000191000000000000049445100000000000000009999123100000010000000000000BRPINEACNPR8144
012020092102PLAS3       010PLASCAR PARTON           R$  000000000044200000000004420000000000440000000000044000000000004400000000000440000000000045900006000000000000001400000000000000616800000000000000009999123100000010000000000000BRPLASACNOR2106
012020092102PLPL3       010PLANOEPLANO ON      NM   R$  000000000086400000000008680000000000830000000000084700000000008500000000000842000000000085002935000000000002249700000000001906484400000000000000009999123100000010000000000000BRPLPLACNOR5100
012020092102PMAM3       010PARANAPANEMAON      NM   R$  000000000110500000000011050000000001050000000000107000000000010640000000001064000000000106900453000000000000129900000000000139085200000000000000009999123100000010000000000000BRPMAMACNOR3037
012020092102PNVL3       010DIMED       ON           R$  000000000238400000000024260000000002304000000000236200000000023300000000002325000000000233003822000000000000746100000000001762728400000000000000009999123100000010000000000000BRPNVLACNOR9196
012020092102PNVL4       010DIMED       PN           R$  000000000214700000000021470000000002057000000000208900000000020960000000002080000000000209600197000000000000068000000000000142072000000000000000009999123100000010000000000000BRPNVLACNPR6196
012020092102POMO3       010MARCOPOLO   ON      N2   R$  000000000027300000000002730000000000266000000000026700000000002690000000000269000000000027000645000000000000223800000000000059838400000000000000009999123100000010000000000000BRPOMOACNOR0087
012020092102POMO4       010MARCOPOLO   PN      N2   R$  000000000028800000000002880000000000277000000000028000000000002780000000000278000000000027904376000000000009828400000000002761368500000000000000009999123100000010000000000000BRPOMOACNPR7087
012020092102POSI3       010POSITIVO TECON      NM   R$  000000000046100000000004620000000000445000000000045100000000004450000000000445000000000044603159000000000001924800000000000869191900000000000000009999123100000010000000000000BRPOSIACNOR9112
012020092102PPLA11      010PPLA        UNT          R$  000000000148600000000015600000000001450000000000148000000000015230000000001486000000000152300017000000000000004000000000000005923800000000000000009999123100000010000000000000BRPPLAUNT007101
012020092102PRIO3       010PETRORIO    ON      NM   R$  000000000370000000000037840000000003624000000000368900000000037110000000003703000000000371107263000000000001785600000000006588805500000000000000009999123100000010000000000000BRPRIOACNOR1102
012020092102PRNR3       010PRINER      ON      NM   R$  000000000096400000000009640000000000887000000000091600000000009080000000000908000000000090901803000000000000611500000000000560651200000000000000009999123100000010000000000000BRPRNRACNOR4105
012020092102PSSA3       010PORTO SEGUROON      NM   R$  000000000499900000000049990000000004870000000000491100000000049360000000004905000000000493604473000000000000844100000000004145553000000000000000009999123100000010000000000000BRPSSAACNOR7142
012020092102PTBL3       010PORTOBELLO  ON      NM   R$  000000000053800000000005430000000000522000000000053000000000005250000000000525000000000052602731000000000001988800000000001054292900000000000000009999123100000010000000000000BRPTBLACNOR8125
012020092102PTNT3       010PETTENATI   ON           R$  000000000056000000000005660000000000520000000000053700000000005310000000000531000000000056000035000000000000016200000000000008700900000000000000009999123100000010000000000000BRPTNTACNOR6039
012020092102PTNT4       010PETTENATI   PN           R$  000000000047000000000004720000000000460000000000046400000000004680000000000461000000000046800048000000000000006100000000000002832300000000000000009999123100000010000000000000BRPTNTACNPR3044
012020092102PYPL34      010PAYPAL HOLD DRN          R$  000000004723600000000494150000000047236000000004866700000000494150000000000000000000004999000014000000000000001260000000000061320430000000000000009999123100000010000000000000BRPYPLBDR002101
012020092102QUAL3       010QUALICORP   ON      NM   R$  000000000313800000000032190000000003101000000000317800000000032190000000003210000000000321911211000000000003843700000000012216493800000000000000009999123100000010000000000000BRQUALACNOR6113
012020092102R1CL34      010ROYAL CARIBBDRN          R$  000000001634500000000163450000000016345000000001634500000000163450000000000000000000000000000001000000000000000010000000000000163450000000000000009999123100000010000000000000BRR1CLBDR007101
012020092102R1IN34      010REALTY INCOMDRN          R$  000000001610400000000161220000000016104000000001611000000000161220000000000000000000000000000002000000000000000120000000000001933200000000000000009999123100000010000000000000BRR1INBDR000108
012020092102RADL3       010RAIADROGASILON  EB  NM   R$  000000000230900000000023240000000002253000000000228900000000022860000000002285000000000228629362000000000007272600000000016653422500000000000000009999123100000010000000000000BRRADLACNOR0137
012020092102RAIL3       010RUMO S.A.   ON      NM   R$  000000000211000000000021110000000002030000000000205200000000020440000000002043000000000204429765000000000008575300000000017600155900000000000000009999123100000010000000000000BRRAILACNOR9101
012020092102RANI3       010IRANI       ON           R$  000000000049200000000005080000000000482000000000049500000000005080000000000507000000000050805656000000000002672200000000001325378000000000000000009999123100000010000000000000BRRANIACNOR5053
012020092102RANI4       010IRANI       PN           R$  000000000084800000000008620000000000825000000000084500000000008530000000000837000000000087000050000000000000016900000000000014295400000000000000009999123100000010000000000000BRRANIACNPR2054
012020092102RAPT3       010RANDON PART ON      N1   R$  000000000093000000000009750000000000927000000000095800000000009660000000000953000000000096800050000000000000011600000000000011120500000000000000009999123100000010000000000000BRRAPTACNOR7153
012020092102RAPT4       010RANDON PART PN      N1   R$  000000000120000000000012020000000001164000000000118300000000011760000000001175000000000117608225000000000003534700000000004183498100000000000000009999123100000010000000000000BRRAPTACNPR4153
012020092102RCSL3       010RECRUSUL    ON           R$  000000000019200000000002010000000000192000000000019400000000001930000000000193000000000019500035000000000000011800000000000002289200000000000000009999123100000010000000000000BRRCSLACNOR4130
012020092102RCSL4       010RECRUSUL    PN           R$  000000000014500000000001480000000000138000000000014300000000001420000000000142000000000014309518000000000006026000000000000863656400000000000000009999123100000010000000000000BRRCSLACNPR1130
012020092102RDNI3       010RNI         ON      NM   R$  000000000100200000000010280000000000982000000000100400000000010250000000000996000000000102600059000000000000033000000000000033147800000000000000009999123100000010000000000000BRRDNIACNOR9113
012020092102RDSA34      010RD SHELL    DRN          R$  000000001421900000000142190000000014219000000001421900000000142190000000000000000000000000000001000000000000000010000000000000142190000000000000009999123100000010000000000000BRRDSABDR009104
012020092102REDE3       010REDE ENERGIAON           R$  000000000104900000000010490000000001034000000000104600000000010480000000001000000000000104900003000000000000000700000000000000732700000000000000009999123100000010000000000000BRREDEACNOR7115
012020092102REGN34      010REGENERON PHDRN          R$  000000006020300000000602030000000060203000000006020300000000602030000000000000000000000000000001000000000000000010000000000000602030000000000000009999123100000010000000000000BRREGNBDR005100
012020092102RENT3       010LOCALIZA    ON  EJ  NM   R$  000000000518000000000052100000000004998000000000508800000000050810000000005080000000000508128270000000000008970800000000045645132800000000000000009999123100000010000000000000BRRENTACNOR4179
012020092102RIGG34      010TRANSOCEAN  DRN          R$  000000000055000000000005570000000000533000000000054900000000005370000000000490000000000062500015000000000000007010000000000003854560000000000000009999123100000010000000000000BRRIGGBDR000100
012020092102RLOG3       010COSAN LOG   ON      NM   R$  000000000197700000000019770000000001927000000000194200000000019280000000001928000000000193501998000000000000396300000000000769853200000000000000009999123100000010000000000000BRRLOGACNOR4106
012020092102ROMI3       010INDS ROMI   ON      NM   R$  000000000119200000000011920000000001144000000000115800000000011450000000001145000000000115502081000000000000393600000000000456098100000000000000009999123100000010000000000000BRROMIACNOR8173
012020092102RPAD3       010ALFA HOLDINGON           R$  000000000060900000000006090000000000600000000000060500000000006090000000000601000000000064000004000000000000000800000000000000484500000000000000009999123100000010000000000000BRRPADACNOR1197
012020092102RPAD5       010ALFA HOLDINGPNA          R$  000000000087000000000008700000000000870000000000087000000000008700000000000860000000000089800001000000000000000200000000000000174000000000000000009999123100000010000000000000BRRPADACNPA4211
012020092102RPAD6       010ALFA HOLDINGPNB          R$  000000000058600000000005860000000000584000000000058400000000005840000000000567000000000059000002000000000000000600000000000000350800000000000000009999123100000010000000000000BRRPADACNPB2197
012020092102RSID3       010ROSSI RESID ON      NM   R$  000000000051000000000005160000000000488000000000049800000000004920000000000492000000000049600215000000000000101300000000000050483500000000000000009999123100000010000000000000BRRSIDACNOR8119
012020092102RYTT34      010RAYTHEONTECHDRN          R$  000000003237000000000323710000000032341000000003236100000000323710000000000000000000000000000004000000000000000180000000000005824980000000000000009999123100000010000000000000BRRYTTBDR003102
012020092102S1HW34      010THE SHERWIN DRN          R$  000000003675000000000367500000000036629000000003671000000000367500000000000000000000000000000014000000000000003390000000000124448190000000000000009999123100000010000000000000BRS1HWBDR002103
