00COTAHIST.2020BOVESPA 20200903                                                                                                                                                                                                                      
012020090302A1AP34      010ADVANCE AUTODRN          R$  000000002099100000000209910000000020650000000002090100000000206500000000000000000000000000000009000000000000005420000000000113283590000000000000009999123100000010000000000000BRA1APBDR001102
012020090302A1BM34      010ABIOMED INC DRN          R$  000000003906000000000390600000000039060000000003906000000000390600000000000000000000000000000001000000000000000060000000000002343600000000000000009999123100000010000000000000BRA1BMBDR006100
012020090302A1KA34      010AKAMAI TECHNDRN          R$  000000003069600000000309270000000030696000000003079700000000309270000000000000000000000000000004000000000000001290000000000039729030000000000000009999123100000010000000000000BRA1KABDR002100
012020090302A1LB34      010ALBEMARLE CODRN          R$  000000005140000000000514000000000049067000000004932200000000493000000000000000000000000000000125000000000000016850000000000831079800000000000000009999123100000010000000000000BRA1LBBDR008102
012020090302A1LX34      010ALEXION PHARDRN          R$  000000002984200000000298420000000029842000000002984200000000298420000000000000000000000000000002000000000000004200000000000125336400000000000000009999123100000010000000000000BRA1LXBDR002100
012020090302A1MD34      010ADVANCED MICDRN          R$  000000004420000000000442000000000043429000000004393000000000434290000000000000000000005250000018000000000000004750000000000208670830000000000000009999123100000010000000000000BRA1MDBDR002100
012020090302A1PA34      010APACHE CORP DRN          R$  000000000759000000000075900000000007590000000000759000000000075900000000000000000000000000000002000000000000000110000000000000834900000000000000009999123100000010000000000000BRA1PABDR001103
012020090302A1RE34      010ALEXANDRIA RDRN          R$  000000002240900000000224090000000022409000000002240900000000224090000000000000000000000000000001000000000000000180000000000004033620000000000000009999123100000010000000000000BRA1REBDR009102
012020090302AALL34      010AMERICAN AIRDRN          R$  000000000705900000000071990000000007059000000000710600000000071650000000005333000000000840000004000000000000000160000000000001136990000000000000009999123100000010000000000000BRAALLBDR003115
012020090302AALR3       010ALLIAR      ON      NM   R$  000000000126000000000012700000000001210000000000123700000000012380000000001230000000000123802200000000000000647700000000000801626100000000000000009999123100000010000000000000BRAALRACNOR6102
012020090302AAPL34      010APPLE       DRN EB       R$  000000000688000000000069010000000006380000000000652900000000063990000000006399000000000641301570000000000000448000000000002925262390000000000000009999123100000010000000000000BRAAPLBDR004135
012020090302ABBV34      010ABBVIE      DRN          R$  000000004867900000000486790000000048679000000004867900000000486790000000000000000000000000000001000000000000000180000000000008762220000000000000009999123100000010000000000000BRABBVBDR001118
012020090302ABCB4       010ABC BRASIL  PN      N2   R$  000000000139400000000014160000000001361000000000138800000000013790000000001374000000000137904974000000000000936500000000001300205200000000000000009999123100000010000000000000BRABCBACNPR4134
012020090302ABEV3       010AMBEV S/A   ON           R$  000000000127100000000013090000000001250000000000127800000000012600000000001260000000000126142040000000000037438600000000047879498800000000000000009999123100000010000000000000BRABEVACNOR1122
012020090302ACNB34      010ACCENTURE   DRN          R$  000000013019300000001301930000000130193000000013019300000001301930000000000000000000000000000001000000000000000010000000000001301930000000000000009999123100000010000000000000BRACNBBDR006112
012020090302ADBE34      010ADOBE INC   DRN          R$  000000005423000000000543200000000052700000000005383500000000537440000000000000000000000000000023000000000000004870000000000262177470000000000000009999123100000010000000000000BRADBEBDR003100
012020090302ADHM3       010ADVANCED-DH ON           R$  000000000021500000000002220000000000212000000000021800000000002160000000000215000000000022000030000000000000010000000000000002185000000000000000009999123100000010000000000000BRADHMACNOR9102
012020090302AFLT3       010AFLUENTE T  ON           R$  000000000106700000000010670000000001030000000000104400000000010500000000001025000000000105000008000000000000000800000000000000835700000000000000009999123100000010000000000000BRAFLTACNOR1115
012020090302AGRO3       010BRASILAGRO  ON      NM   R$  000000000214500000000021700000000002113000000000213800000000021340000000002126000000000213600566000000000000150400000000000321562900000000000000009999123100000010000000000000BRAGROACNOR7109
012020090302AHEB3       010SPTURIS     ON           R$  000000000269900000000026990000000002510000000000255700000000025110000000002511000000000269800004000000000000000400000000000001023100000000000000009999123100000010000000000000BRAHEBACNOR0106
012020090302ALPA3       010ALPARGATAS  ON      N1   R$  000000000341000000000034130000000003346000000000338900000000033900000000003201000000000334800013000000000000001600000000000005423600000000000000009999123100000010000000000000BRALPAACNOR0229
012020090302ALPA4       010ALPARGATAS  PN      N1   R$  000000000376400000000037720000000003677000000000373700000000037430000000003743000000000374406862000000000001523800000000005695471100000000000000009999123100000010000000000000BRALPAACNPR7229
012020090302ALPK3       010ESTAPAR     ON      NM   R$  000000000095500000000009630000000000938000000000095000000000009480000000000948000000000095300106000000000000033000000000000031369300000000000000009999123100000010000000000000BRALPKACNOR9100
012020090302ALSO3       010ALIANSCSONAEON      NM   R$  000000000275000000000027740000000002675000000000271600000000027050000000002705000000000270606143000000000001122600000000003049770300000000000000009999123100000010000000000000BRALSOACNOR5100
012020090302ALUP3       010ALUPAR      ON      N2   R$  000000000096300000000009720000000000954000000000095900000000009540000000000950000000000095600092000000000000009900000000000009499000000000000000009999123100000010000000000000BRALUPACNOR8111
012020090302ALUP4       010ALUPAR      PN      N2   R$  000000000071000000000007160000000000700000000000070700000000007040000000000701000000000070400134000000000000022300000000000015776700000000000000009999123100000010000000000000BRALUPACNPR5111
012020090302ALUP11      010ALUPAR      UNT     N2   R$  000000000238500000000024010000000002350000000000237200000000023810000000002375000000000238102209000000000000654300000000001552347200000000000000009999123100000010000000000000BRALUPCDAM15111
012020090302AMAR3       010LOJAS MARISAON      NM   R$  000000000087700000000008890000000000832000000000085900000000008550000000000849000000000085513100000000000006177100000000005307800500000000000000009999123100000010000000000000BRAMARACNOR4112
012020090302AMBP3       010AMBIPAR     ON      NM   R$  000000000316500000000032000000000003100000000000316400000000031750000000003132000000000317500528000000000000128600000000000406897300000000000000009999123100000010000000000000BRAMBPACNOR6100
012020090302AMGN34      010AMGEN       DRN          R$  000000013638000000001363800000000136380000000013638000000001363800000000000000000000000000000002000000000000000580000000000079100400000000000000009999123100000010000000000000BRAMGNBDR004135
012020090302AMZO34      010AMAZON      DRN          R$  000000092580000000009258000000000876510000000089352300000008854080000000885408000000090200000043000000000000001390000000001241998110000000000000009999123100000010000000000000BRAMZOBDR002101
012020090302ANIM3       010ANIMA       ON      NM   R$  000000000301600000000030930000000002991000000000304400000000030400000000003038000000000304003694000000000000671800000000002045221000000000000000009999123100000010000000000000BRANIMACNOR6106
012020090302APER3       010ALPER S.A.  ON      NM   R$  000000000286500000000028900000000002757000000000282500000000028900000000002800000000000289900068000000000000016200000000000045773300000000000000009999123100000010000000000000BRAPERACNOR9102
012020090302APTV34      010APTIV PLC   DRN          R$  000000002378600000000237860000000023786000000002378600000000237860000000000000000000000000000001000000000000001810000000000043052660000000000000009999123100000010000000000000BRAPTVBDR003102
012020090302ARNC34      010HOWMET AERO DRN          R$  000000000974100000000098600000000009741000000000980000000000098600000000000000000000000000000003000000000000001190000000000011662000000000000000009999123100000010000000000000BRARNCBDR002115
012020090302ARZZ3       010AREZZO CO   ON      NM   R$  000000000593800000000059800000000005756000000000586200000000058170000000005809000000000581702714000000000000380400000000002230259400000000000000009999123100000010000000000000BRARZZACNOR3137
012020090302ATOM3       010ATOMPAR     ON           R$  000000000031300000000003200000000000292000000000030500000000002940000000000294000000000029600394000000000000263000000000000080341000000000000000009999123100000010000000000000BRATOMACNOR1103
012020090302ATTB34      010ATT INC     DRN          R$  000000001589900000000158990000000015617000000001571900000000156170000000015400000000001561700002000000000000000110000000000001729150000000000000009999123100000010000000000000BRATTBBDR007132
012020090302ATVI34      010ACTIVISION  DRN          R$  000000004350000000000436000000000042400000000004272600000000424000000000042000000000000000000007000000000000000160000000000006836240000000000000009999123100000010000000000000BRATVIBDR008101
012020090302AURA32      010AURA 360    DR2 EB       R$  000000000650000000000066400000000006353000000000648200000000066400000000006640000000000664900398000000000000061600000000000399299100000000000000009999123100000010000000000000BRAURABDR001102
012020090302AVGO34      010BROADCOM INCDRN          R$  000000003915100000000391510000000037276000000003770400000000372760000000000000000000000000000004000000000000001990000000000075031390000000000000009999123100000010000000000000BRAVGOBDR003105
012020090302AXPB34      010AMERICAN EXPDRN          R$  000000005704300000000570430000000055449000000005697800000000554490000000047700000000000000000003000000000000001230000000000070083190000000000000009999123100000010000000000000BRAXPBBDR007133
012020090302AZEV3       010AZEVEDO     ON           R$  000000000107100000000010710000000001052000000000105600000000010520000000001027000000000116800017000000000000004900000000000005175400000000000000009999123100000010000000000000BRAZEVACNOR0117
012020090302AZEV4       010AZEVEDO     PN           R$  000000000040000000000004000000000000382000000000038600000000003830000000000383000000000039700021000000000000004300000000000001662400000000000000009999123100000010000000000000BRAZEVACNPR7117
012020090302AZUL4       010AZUL        PN      N2   R$  000000000231500000000024200000000002302000000000238100000000023990000000002399000000000240047206000000000022388500000000053318857000000000000000009999123100000010000000000000BRAZULACNPR4100
012020090302B1KR34      010BAKER HUGHESDRN          R$  000000000780200000000078600000000007720000000000779600000000077300000000000000000000000000000013000000000000001970000000000015360010000000000000009999123100000010000000000000BRB1KRBDR005103
012020090302B3SA3       010B3          ON      NM   R$  000000000602000000000060670000000005630000000000579200000000057820000000005782000000000578375395000000000025880200000000149920782500000000000000009999123100000010000000000000BRB3SAACNOR6111
012020090302BABA34      010ALIBABAGR   DRN          R$  000000015500000000001550000000000147754000000015056600000001488660000000148500000000016500000016000000000000000790000000000118947780000000000000009999123100000010000000000000BRBABABDR005100
012020090302BALM3       010BAUMER      ON           R$  000000000188700000000018900000000001700000000000179600000000017240000000001724000000000177500044000000000000010000000000000017967500000000000000009999123100000010000000000000BRBALMACNOR5050
012020090302BALM4       010BAUMER      PN           R$  000000000114000000000011690000000001140000000000115100000000011510000000001150000000000118000006000000000000000700000000000000806100000000000000009999123100000010000000000000BRBALMACNPR2051
012020090302BAUH4       010EXCELSIOR   PN           R$  000000000885000000000089990000000008850000000000897400000000089990000000008300000000000900000005000000000000000600000000000005384500000000000000009999123100000010000000000000BRBAUHACNPR3115
012020090302BAZA3       010AMAZONIA    ON           R$  000000000409300000000040980000000003815000000000402900000000040200000000004020000000000408100016000000000000002200000000000008863900000000000000009999123100000010000000000000BRBAZAACNOR0174
012020090302BBAS3       010BRASIL      ON      NM   R$  000000000331900000000034790000000003311000000000341200000000033770000000003377000000000338055951000000000029833900000000101794878600000000000000009999123100000010000000000000BRBBASACNOR3292
012020090302BBDC3       010BRADESCO    ON  EJ  N1   R$  000000000195900000000020700000000001952000000000203600000000020350000000002028000000000203529349000000000020516300000000041781020700000000000000009999123100000010000000000000BRBBDCACNOR1715
012020090302BBDC4       010BRADESCO    PN  EJ  N1   R$  000000000210600000000022290000000002105000000000219600000000021950000000002194000000000219510949000000000106794400000000234611473100000000000000009999123100000010000000000000BRBBDCACNPR8715
012020090302BBRK3       010BR BROKERS  ON      NM   R$  000000000017900000000001820000000000171000000000017500000000001710000000000171000000000017200640000000000000692500000000000121499700000000000000009999123100000010000000000000BRBBRKACNOR4113
012020090302BBSE3       010BBSEGURIDADEON      NM   R$  000000000271100000000027890000000002675000000000271700000000026970000000002696000000000269724018000000000004838300000000013149670100000000000000009999123100000010000000000000BRBBSEACNOR5117
012020090302BCSA34      010SANTANDER   DRN          R$  000000000117100000000011910000000001150000000000116400000000011500000000001145000000000118800067000000000000007890000000000009186860000000000000009999123100000010000000000000BRBCSABDR005101
012020090302BEEF3       010MINERVA     ON      NM   R$  000000000129000000000012950000000001256000000000127200000000012690000000001269000000000127011738000000000004928900000000006273443400000000000000009999123100000010000000000000BRBEEFACNOR6108
012020090302BEES3       010BANESTES    ON  EJ       R$  000000000054000000000005420000000000537000000000053900000000005420000000000538000000000054200123000000000000034800000000000018784500000000000000009999123100000010000000000000BRBEESACNOR9339
012020090302BEES4       010BANESTES    PN  EJ       R$  000000000056800000000005690000000000552000000000056300000000005520000000000551000000000056700026000000000000003800000000000002141800000000000000009999123100000010000000000000BRBEESACNPR6264
012020090302BERK34      010BERKSHIRE   DRN          R$  000000011801900000001181690000000114700000000011658500000001150010000000114200000000011716000068000000000000008140000000000949008930000000000000009999123100000010000000000000BRBERKBDR002100
012020090302BGIP3       010BANESE      ON           R$  000000000451600000000048500000000004350000000000458100000000046160000000004397000000000470000037000000000000005500000000000025199200000000000000009999123100000010000000000000BRBGIPACNOR1199
012020090302BGIP4       010BANESE      PN           R$  000000000274300000000027430000000002701000000000272700000000027390000000002600000000000273900003000000000000000300000000000000818300000000000000009999123100000010000000000000BRBGIPACNPR8199
012020090302BHPG34      010BHP GROUP   DRN ED       R$  000000002876900000000287690000000028410000000002854900000000284100000000000000000000000000000003000000000000000090000000000002569440000000000000009999123100000010000000000000BRBHPGBDR007102
012020090302BIDI3       010BANCO INTER ON      N2   R$  000000000210100000000021310000000001999000000000205300000000020000000000001999000000000200003498000000000000635700000000001305239800000000000000009999123100000010000000000000BRBIDIACNOR3107
012020090302BIDI4       010BANCO INTER PN      N2   R$  000000000241400000000024480000000002214000000000230900000000022270000000002227000000000222814870000000000004048900000000009351625600000000000000009999123100000010000000000000BRBIDIACNPR0111
012020090302BIDI11      010BANCO INTER UNT     N2   R$  000000000690200000000069920000000006416000000000663900000000064490000000006449000000000649109451000000000002343500000000015560045100000000000000009999123100000010000000000000BRBIDICDAXX3106
012020090302BIIB34      010BIOGEN      DRN          R$  000000002430000000000243000000000024300000000002430000000000243000000000000000000000000000000018000000000000005800000000000140940000000000000000009999123100000010000000000000BRBIIBBDR001101
012020090302BIOM3       010BIOMM       ON      MA   R$  000000000160000000000016100000000001579000000000158800000000015850000000001585000000000159500063000000000000024500000000000038915700000000000000009999123100000010000000000000BRBIOMACNOR2107
012020090302BKBR3       010BK BRASIL   ON      NM   R$  000000000116700000000011830000000001114000000000114700000000011330000000001133000000000113403124000000000000697300000000000800128000000000000000009999123100000010000000000000BRBKBRACNOR4103
012020090302BKNG34      010BOOKING     DRN          R$  000000004143000000000415770000000040635000000004118800000000406350000000040020000000004133800011000000000000002310000000000095145670000000000000009999123100000010000000000000BRBKNGBDR006100
012020090302BMEB3       010MERC BRASIL ON           R$  000000000160200000000016020000000001600000000000160100000000016000000000001565000000000160000002000000000000000200000000000000320200000000000000009999123100000010000000000000BRBMEBACNOR8196
012020090302BMEB4       010MERC BRASIL PN           R$  000000000157900000000015830000000001500000000000157300000000015400000000001540000000000157700015000000000000006600000000000010383700000000000000009999123100000010000000000000BRBMEBACNPR5201
012020090302BMGB4       010BANCO BMG   PN      N1   R$  000000000054700000000005590000000000529000000000054400000000005320000000000532000000000053407035000000000003110800000000001693689800000000000000009999123100000010000000000000BRBMGBACNPR0101
012020090302BMIN3       010MERC INVEST ON           R$  000000000234900000000023600000000002150000000000229200000000021500000000002101000000000228000025000000000000004100000000000009400800000000000000009999123100000010000000000000BRBMINACNOR4168
012020090302BMIN4       010MERC INVEST PN           R$  000000000198000000000020980000000001900000000000200000000000019500000000001901000000000209800021000000000000002800000000000005600900000000000000009999123100000010000000000000BRBMINACNPR1171
012020090302BMKS3       010BIC MONARK  ON           R$  000000002271000000000234900000000021100000000002240600000000234900000000021300000000002350000006000000000000000017000000000000380910000000000000009999123100000010000000000000BRBMKSACNOR9162
012020090302BMYB34      010BRISTOLMYERSDRN          R$  000000003180100000000318010000000031801000000003180100000000318010000000028400000000000000000001000000000000000130000000000004134130000000000000009999123100000010000000000000BRBMYBBDR000127
012020090302BNBR3       010NORD BRASIL ON           R$  000000000830000000000084420000000007900000000000821200000000084420000000008100000000000844400019000000000000001900000000000015604100000000000000009999123100000010000000000000BRBNBRACNOR8200
012020090302BOAC34      010BANK AMERICADRN ED       R$  000000001414000000000141400000000013551000000001368500000000135510000000011402000000001355100004000000000000000120000000000001642240000000000000009999123100000010000000000000BRBOACBDR004140
012020090302BOBR4       010BOMBRIL     PN           R$  000000000020800000000002080000000000201000000000020400000000002030000000000203000000000020500160000000000000066800000000000013660700000000000000009999123100000010000000000000BRBOBRACNPR3128
012020090302BOEI34      010BOEING      DRN          R$  000000009593500000000959350000000095935000000009593500000000959350000000000000000000009690000001000000000000000010000000000000959350000000000000009999123100000010000000000000BRBOEIBDR003132
012020090302BONY34      010BNY MELLON  DRN          R$  000000001955900000000195590000000019559000000001955900000000195590000000018600000000000000000001000000000000000020000000000000391180000000000000009999123100000010000000000000BRBONYBDR001120
012020090302BOXP34      010BOSTON PROP DRN          R$  000000000476700000000047670000000004607000000000467100000000046070000000004400000000000592000002000000000000000050000000000000233550000000000000009999123100000010000000000000BRBOXPBDR008120
012020090302BPAC3       010BTGP BANCO  ON      N2   R$  000000000469900000000047000000000004560000000000460600000000045800000000004562000000000469900034000000000000004000000000000018426100000000000000009999123100000010000000000000BRBPACACNOR7122
012020090302BPAC5       010BTGP BANCO  PNA     N2   R$  000000000183800000000018380000000001777000000000179300000000017770000000001775000000000179000018000000000000002400000000000004304300000000000000009999123100000010000000000000BRBPACACNPA0122
012020090302BPAC11      010BTGP BANCO  UNT     N2   R$  000000000832500000000084410000000008022000000000816200000000081470000000008147000000000814919684000000000006259900000000051094809100000000000000009999123100000010000000000000BRBPACUNT006107
012020090302BPAN4       010BANCO PAN   PN      N1   R$  000000000088200000000009200000000000874000000000089800000000009050000000000905000000000090618747000000000009157600000000008226043400000000000000009999123100000010000000000000BRBPANACNPR1109
012020090302BRAP3       010BRADESPAR   ON      N1   R$  000000000388300000000039000000000003791000000000381200000000038350000000003801000000000383500159000000000000747100000000002848399400000000000000009999123100000010000000000000BRBRAPACNOR5136
012020090302BRAP4       010BRADESPAR   PN      N1   R$  000000000445600000000044560000000004323000000000437200000000043780000000004374000000000437812503000000000002122300000000009279204200000000000000009999123100000010000000000000BRBRAPACNPR2136
012020090302BRDT3       010PETROBRAS BRON      NM   R$  000000000220500000000022500000000002178000000000221000000000021910000000002191000000000219531468000000000007842900000000017333811600000000000000009999123100000010000000000000BRBRDTACNOR1120
012020090302BRFS3       010BRF SA      ON      NM   R$  000000000204600000000020710000000001977000000000201400000000019860000000001985000000000198627135000000000011537500000000023239655800000000000000009999123100000010000000000000BRBRFSACNOR8119
012020090302BRGE3       010ALFA CONSORCON           R$  000000000094200000000009430000000000942000000000094200000000009430000000000900000000000094300002000000000000000200000000000000188500000000000000009999123100000010000000000000BRBRGEACNOR6202
012020090302BRGE8       010ALFA CONSORCPND          R$  000000000077000000000007800000000000770000000000077300000000007700000000000750000000000083000009000000000000001100000000000000850500000000000000009999123100000010000000000000BRBRGEACNPD3214
012020090302BRGE11      010ALFA CONSORCPNE          R$  000000000099700000000009970000000000997000000000099700000000009970000000000980000000000102000002000000000000000500000000000000498500000000000000009999123100000010000000000000BRBRGEACNPE1105
012020090302BRGE12      010ALFA CONSORCPNF          R$  000000000060000000000006250000000000600000000000060100000000006000000000000560000000000062000011000000000000002900000000000001744800000000000000009999123100000010000000000000BRBRGEACNPF8096
012020090302BRIV3       010ALFA INVEST ON           R$  000000000080000000000008000000000000755000000000077700000000007990000000000761000000000080500004000000000000000400000000000000311000000000000000009999123100000010000000000000BRBRIVACNOR6205
012020090302BRIV4       010ALFA INVEST PN           R$  000000000074500000000007480000000000731000000000074200000000007310000000000734000000000074300012000000000000001900000000000001411200000000000000009999123100000010000000000000BRBRIVACNPR3211
012020090302BRKM3       010BRASKEM     ON      N1   R$  000000000228800000000023790000000002200000000000225900000000022120000000002202000000000220800121000000000000032600000000000073662300000000000000009999123100000010000000000000BRBRKMACNOR1117
012020090302BRKM5       010BRASKEM     PNA     N1   R$  000000000216700000000022260000000002081000000000213600000000021020000000002101000000000210215073000000000004206400000000008988240600000000000000009999123100000010000000000000BRBRKMACNPA4117
012020090302BRML3       010BR MALLS PARON      NM   R$  000000000096000000000009700000000000929000000000094300000000009340000000000934000000000093546368000000000020330900000000019187628200000000000000009999123100000010000000000000BRBRMLACNOR9115
012020090302BRPR3       010BR PROPERT  ON      NM   R$  000000000093600000000009460000000000912000000000092600000000009250000000000925000000000092603844000000000001224600000000001134414400000000000000009999123100000010000000000000BRBRPRACNOR9119
012020090302BRSR3       010BANRISUL    ON      N1   R$  000000000149500000000014950000000001478000000000149200000000014850000000001480000000000148500061000000000000014600000000000021785200000000000000009999123100000010000000000000BRBRSRACNOR3168
012020090302BRSR5       010BANRISUL    PNA     N1   R$  000000000197500000000020980000000001975000000000205100000000020980000000002080000000000209800003000000000000000300000000000000615300000000000000009999123100000010000000000000BRBRSRACNPA6172
012020090302BRSR6       010BANRISUL    PNB     N1   R$  000000000133900000000013880000000001331000000000136400000000013520000000001350000000000135207556000000000002191500000000002989215100000000000000009999123100000010000000000000BRBRSRACNPB4171
012020090302BSEV3       010BIOSEV      ON      NM   R$  000000000045800000000004580000000000420000000000043700000000004200000000000420000000000042900303000000000000111200000000000048685600000000000000009999123100000010000000000000BRBSEVACNOR3102
012020090302BTOW3       010B2W DIGITAL ON      NM   R$  000000001110000000000111710000000010063000000001039700000000102500000000010221000000001025034618000000000007241400000000075290840100000000000000009999123100000010000000000000BRBTOWACNOR8111
012020090302BTTL3       010BATTISTELLA ON           R$  000000000110000000000014900000000001100000000000132600000000012500000000001227000000000131500324000000000000059000000000000078256500000000000000009999123100000010000000000000BRBTTLACNOR0108
012020090302C1CL34      010CARNIVAL CORDRN          R$  000000000926100000000097550000000009260000000000951100000000092600000000005616000000001300000020000000000000002050000000000019498930000000000000009999123100000010000000000000BRC1CLBDR004101
012020090302C1IC34      010CIGNA CORP  DRN          R$  000000002405000000000240500000000024050000000002405000000000240500000000000000000000000000000001000000000000000020000000000000481000000000000000009999123100000010000000000000BRC1ICBDR000101
012020090302CAMB3       010CAMBUCI     ON           R$  000000000042900000000004320000000000412000000000042200000000004160000000000415000000000041600187000000000000072100000000000030427400000000000000009999123100000010000000000000BRCAMBACNOR4119
012020090302CAML3       010CAMIL       ON  EJ  NM   R$  000000000126900000000012970000000001264000000000128100000000012930000000001291000000000129307718000000000001616700000000002072583200000000000000009999123100000010000000000000BRCAMLACNOR3111
012020090302CARD3       010CSU CARDSYSTON      NM   R$  000000000166900000000016820000000001559000000000161000000000016080000000001585000000000160901358000000000000407000000000000655523300000000000000009999123100000010000000000000BRCARDACNOR9118
012020090302CCPR3       010CYRE COM-CCPON      NM   R$  000000000148400000000014900000000001439000000000145800000000014900000000001471000000000149001282000000000000211600000000000308712900000000000000009999123100000010000000000000BRCCPRACNOR9114
012020090302CCRO3       010CCR SA      ON      NM   R$  000000000141700000000014390000000001366000000000139600000000013800000000001379000000000138034554000000000011165400000000015588223900000000000000009999123100000010000000000000BRCCROACNOR2137
012020090302CEAB3       010CEA MODAS   ON      NM   R$  000000000127400000000013090000000001228000000000126500000000012520000000001252000000000125308617000000000002700100000000003417646700000000000000009999123100000010000000000000BRCEABACNOR1101
012020090302CEBR3       010CEB         ON           R$  000000000640000000000064000000000006210000000000631100000000063000000000006010000000000658900019000000000000002200000000000013885600000000000000009999123100000010000000000000BRCEBRACNOR5118
012020090302CEDO3       010CEDRO       ON      N1   R$  000000000113000000000011400000000001030000000000109700000000010300000000001030000000000107000032000000000000010600000000000011638300000000000000009999123100000010000000000000BRCEDOACNOR8096
012020090302CEDO4       010CEDRO       PN      N1   R$  000000000057900000000005790000000000579000000000057900000000005790000000000527000000000058000002000000000000000200000000000000115800000000000000009999123100000010000000000000BRCEDOACNPR5128
012020090302CEED3       010CEEE-D      ON      N1   R$  000000000590000000000064440000000005700000000000592900000000059300000000005950000000000640000011000000000000001100000000000006522500000000000000009999123100000010000000000000BRCEEDACNOR9102
012020090302CEPE6       010CELPE       PNB          R$  000000000233500000000023350000000002335000000000233500000000023350000000000000000000000000000001000000000000000100000000000000233500000000000000009999123100000010000000000000BRCEPEACNPB4163
012020090302CESP3       010CESP        ON      N1   R$  000000000349900000000034990000000003420000000000346100000000034200000000003400000000000347200011000000000000001100000000000003807100000000000000009999123100000010000000000000BRCESPACNOR3169
012020090302CESP5       010CESP        PNA     N1   R$  000000000330100000000033010000000003300000000000330000000000033000000000003301000000000370000002000000000000000200000000000000660100000000000000009999123100000010000000000000BRCESPACNPA6116
012020090302CESP6       010CESP        PNB     N1   R$  000000000301700000000030250000000002929000000000295700000000029380000000002938000000000293911020000000000001856300000000005490559900000000000000009999123100000010000000000000BRCESPACNPB4128
012020090302CGAS3       010COMGAS      ON           R$  000000001730700000000173070000000017307000000001730700000000173070000000017309000000001770000001000000000000000100000000000001730700000000000000009999123100000010000000000000BRCGASACNOR0151
012020090302CGAS5       010COMGAS      PNA          R$  000000001884900000000190600000000018600000000001887700000000188850000000018884000000001917500015000000000000001600000000000030204500000000000000009999123100000010000000000000BRCGASACNPA3148
012020090302CGRA3       010GRAZZIOTIN  ON           R$  000000000267100000000026800000000002628000000000265900000000026380000000002631000000000266000019000000000000002200000000000005851600000000000000009999123100000010000000000000BRCGRAACNOR2071
012020090302CGRA4       010GRAZZIOTIN  PN           R$  000000000278800000000027890000000002653000000000270300000000026540000000002654000000000267500123000000000000023100000000000062455800000000000000009999123100000010000000000000BRCGRAACNPR9071
012020090302CHCM34      010CHARTER COMMDRN          R$  000000006445000000000644500000000064450000000006445000000000644500000000000000000000000000000020000000000000002500000000000161125000000000000000009999123100000010000000000000BRCHCMBDR001100
012020090302CHVX34      010CHEVRON     DRN          R$  000000002168700000000216870000000021687000000002168700000000216870000000021000000000002168700001000000000000000030000000000000650610000000000000009999123100000010000000000000BRCHVXBDR008138
012020090302CIEL3       010CIELO       ON      NM   R$  000000000047700000000004800000000000452000000000046400000000004560000000000456000000000045738911000000000068068700000000031645733700000000000000009999123100000010000000000000BRCIELACNOR3142
012020090302CLSC3       010CELESC      ON      N2   R$  000000000628800000000062880000000005810000000000605300000000060400000000005700000000000610000041000000000000004100000000000024817900000000000000009999123100000010000000000000BRCLSCACNOR6136
012020090302CLSC4       010CELESC      PN      N2   R$  000000000569500000000056950000000005542000000000563700000000056000000000005536000000000562800014000000000000002400000000000013529000000000000000009999123100000010000000000000BRCLSCACNPR3115
012020090302CMCS34      010COMCAST     DRN          R$  000000002411600000000241990000000023380000000002361000000000234240000000022000000000002342400021000000000000008290000000000195730910000000000000009999123100000010000000000000BRCMCSBDR008135
012020090302CMIG3       010CEMIG       ON      N1   R$  000000000110600000000011310000000001094000000000110400000000011080000000001102000000000110804785000000000002381100000000002631097000000000000000009999123100000010000000000000BRCMIGACNOR6224
012020090302CMIG4       010CEMIG       PN      N1   R$  000000000108700000000011170000000001078000000000109700000000010920000000001089000000000109226565000000000012142200000000013325776900000000000000009999123100000010000000000000BRCMIGACNPR3225
012020090302CNTO3       010CENTAURO    ON      NM   R$  000000000321000000000032320000000003070000000000312800000000031300000000003113000000000313012427000000000002237800000000007000699000000000000000009999123100000010000000000000BRCNTOACNOR5100
012020090302COCA34      010COCA COLA   DRN          R$  000000002700000000000270000000000026564000000002662900000000265640000000023000000000000000000004000000000000000590000000000015711360000000000000009999123100000010000000000000BRCOCABDR002135
012020090302COCE3       010COELCE      ON           R$  000000000760000000000076000000000007112000000000738800000000071120000000006500000000000740000026000000000000002600000000000019210500000000000000009999123100000010000000000000BRCOCEACNOR0139
012020090302COCE5       010COELCE      PNA          R$  000000000607000000000061080000000006032000000000608400000000060800000000006055000000000611500206000000000000027700000000000168550600000000000000009999123100000010000000000000BRCOCEACNPA3140
012020090302COGN3       010COGNA ON    ON      NM   R$  000000000059300000000006070000000000571000000000058600000000005800000000000580000000000058148665000000000064899900000000038053178900000000000000009999123100000010000000000000BRCOGNACNOR2101
012020090302COLG34      010COLGATE     DRN          R$  000000004235800000000423580000000042358000000004235800000000423580000000041190000000000000000001000000000000000020000000000000847160000000000000009999123100000010000000000000BRCOLGBDR000137
012020090302COPH34      010COPHILLIPS  DRN          R$  000000000480600000000048060000000004806000000000480600000000048060000000004500000000000000000003000000000000001000000000000004806000000000000000009999123100000010000000000000BRCOPHBDR009135
012020090302COTY34      010COTY INC    DRN          R$  000000000097700000000009900000000000958000000000098300000000009580000000000900000000000103600013000000000000007430000000000007303920000000000000009999123100000010000000000000BRCOTYBDR006116
012020090302COWC34      010COSTCO      DRN          R$  000000004758300000000477200000000045982000000004638900000000459820000000000000000000004650000023000000000000004300000000000199473600000000000000009999123100000010000000000000BRCOWCBDR006119
012020090302CPFE3       010CPFL ENERGIAON      NM   R$  000000000290500000000029950000000002904000000000294200000000029410000000002941000000000294212322000000000002440600000000007180929300000000000000009999123100000010000000000000BRCPFEACNOR0130
012020090302CPLE3       010COPEL       ON      N1   R$  000000000625900000000063680000000006138000000000622600000000062500000000006250000000000625201652000000000000336100000000002092611900000000000000009999123100000010000000000000BRCPLEACNOR8139
012020090302CPLE6       010COPEL       PNB     N1   R$  000000000641900000000065430000000006272000000000636700000000063150000000006311000000000631506441000000000001021700000000006505997400000000000000009999123100000010000000000000BRCPLEACNPB9136
012020090302CRFB3       010CARREFOUR BRON      NM   R$  000000000205000000000021230000000002046000000000208400000000020750000000002067000000000207532899000000000013602500000000028348991300000000000000009999123100000010000000000000BRCRFBACNOR2107
012020090302CRIV3       010ALFA FINANC ON           R$  000000000058000000000005800000000000551000000000056300000000005510000000000550000000000057100004000000000000001300000000000000733000000000000000009999123100000010000000000000BRCRIVACNOR4194
012020090302CRPG5       010CRISTAL     PNA          R$  000000000205800000000020600000000002007000000000203200000000020370000000002037000000000203800052000000000000007300000000000014836700000000000000009999123100000010000000000000BRCRPGACNPA3108
012020090302CRPG6       010CRISTAL     PNB          R$  000000000204700000000020470000000002002000000000202100000000020400000000001981000000000204800008000000000000000900000000000001819100000000000000009999123100000010000000000000BRCRPGACNPB1108
012020090302CSAB3       010SEG AL BAHIAON           R$  000000000509400000000050940000000004800000000000495000000000050500000000004801000000000499400009000000000000000900000000000004455400000000000000009999123100000010000000000000BRCSABACNOR1058
012020090302CSAN3       010COSAN       ON      NM   R$  000000000789100000000079640000000007657000000000775400000000076700000000007670000000000769316705000000000002991400000000023196518800000000000000009999123100000010000000000000BRCSANACNOR6120
012020090302CSCO34      010CISCO       DRN          R$  000000002171500000000217150000000021640000000002164200000000216400000000000000000000000000000026000000000000005180000000000112108700000000000000009999123100000010000000000000BRCSCOBDR004138
012020090302CSMG3       010COPASA      ON      NM   R$  000000000490800000000049480000000004786000000000484600000000048670000000004857000000000486704902000000000001049000000000005084321500000000000000009999123100000010000000000000BRCSMGACNOR5156
012020090302CSNA3       010SID NACIONALON           R$  000000000151500000000015440000000001485000000000150600000000015030000000001502000000000150328165000000000013781900000000020759372600000000000000009999123100000010000000000000BRCSNAACNOR6252
012020090302CTGP34      010CITIGROUP   DRN          R$  000000002726600000000272660000000027266000000002726600000000272660000000027000000000002726600001000000000000000020000000000000545320000000000000009999123100000010000000000000BRCTGPBDR000139
012020090302CTKA4       010KARSTEN     PN           R$  000000000123400000000012990000000001181000000000120500000000011810000000001181000000000120700024000000000000003500000000000004220700000000000000009999123100000010000000000000BRCTKAACNPR7043
012020090302CTNM3       010COTEMINAS   ON           R$  000000000111000000000011100000000001090000000000109700000000010900000000001090000000000112900006000000000000000900000000000000987500000000000000009999123100000010000000000000BRCTNMACNOR9130
012020090302CTNM4       010COTEMINAS   PN           R$  000000000060100000000006010000000000580000000000058700000000005800000000000580000000000058800053000000000000013000000000000007639400000000000000009999123100000010000000000000BRCTNMACNPR6129
012020090302CTSA3       010SANTANENSE  ON           R$  000000000027000000000002700000000000260000000000026400000000002620000000000260000000000026200024000000000000006600000000000001745400000000000000009999123100000010000000000000BRCTSAACNOR3060
012020090302CTSA4       010SANTANENSE  PN           R$  000000000023700000000002370000000000230000000000023300000000002340000000000234000000000023500033000000000000012800000000000002991300000000000000009999123100000010000000000000BRCTSAACNPR0060
012020090302CVCB3       010CVC BRASIL  ON      NM   R$  000000000187000000000018990000000001794000000000183800000000018100000000001803000000000181017608000000000005802900000000010669694700000000000000009999123100000010000000000000BRCVCBACNOR1113
012020090302CVSH34      010CVS HEALTH  DRN          R$  000000001637200000000163720000000016005000000001624900000000160050000000015500000000001690000002000000000000000030000000000000487490000000000000009999123100000010000000000000BRCVSHBDR008117
012020090302CYRE3       010CYRELA REALTON      NM   R$  000000000243100000000024530000000002365000000000240800000000024300000000002420000000000243039846000000000013665400000000032916539700000000000000009999123100000010000000000000BRCYREACNOR7134
012020090302D1FS34      010DISCOVER FINDRN          R$  000000001470000000000147000000000014700000000001470000000000147000000000000000000000000000000001000000000000000010000000000000147000000000000000009999123100000010000000000000BRD1FSBDR001103
012020090302D1XC34      010DXC TECHNOLODRN          R$  000000001194100000000119410000000011417000000001164400000000114480000000000000000000000000000010000000000000000200000000000002328950000000000000009999123100000010000000000000BRD1XCBDR008101
012020090302DEAI34      010DELTA       DRN          R$  000000001650000000000165800000000016400000000001644400000000164000000000014500000000002300000004000000000000000090000000000001480000000000000000009999123100000010000000000000BRDEAIBDR008116
012020090302DEEC34      010DEERE CO    DRN          R$  000000005578000000000557800000000055780000000005578000000000557800000000047500000000000000000001000000000000000200000000000011156000000000000000009999123100000010000000000000BRDEECBDR003105
012020090302DHER34      010DANAHER CORPDRN          R$  000000002646000000000264600000000026460000000002646000000000264600000000000000000000000000000027000000000000005300000000000140238000000000000000009999123100000010000000000000BRDHERBDR004121
012020090302DIRR3       010DIRECIONAL  ON      NM   R$  000000000158900000000015980000000001454000000000152000000000015020000000001501000000000150206010000000000001905200000000002896206400000000000000009999123100000010000000000000BRDIRRACNOR0112
012020090302DISB34      010WALT DISNEY DRN          R$  000000007243000000000725080000000070000000000007095000000000700000000000067000000000000000000044000000000000004850000000000344108920000000000000009999123100000010000000000000BRDISBBDR006114
012020090302DMMO3       010DOMMO       ON           R$  000000000012400000000001290000000000122000000000012500000000001240000000000123000000000012402523000000000005136800000000000644239800000000000000009999123100000010000000000000BRDMMOACNOR0102
012020090302DMVF3       010D1000VFARMA ON      NM   R$  000000000119100000000012120000000001187000000000119800000000011970000000001192000000000119700498000000000000126800000000000151947400000000000000009999123100000010000000000000BRDMVFACNOR9100
012020090302DOHL4       010DOHLER      PN           R$  000000000051500000000005150000000000510000000000051000000000005100000000000510000000000051400011000000000000003100000000000001583500000000000000009999123100000010000000000000BRDOHLACNPR9061
012020090302DTCY3       010DTCOM-DIRECTON           R$  000000000064500000000007090000000000644000000000065400000000006740000000000652000000000067500023000000000000006100000000000003990500000000000000009999123100000010000000000000BRDTCYACNOR5109
012020090302DTEX3       010DURATEX     ON      NM   R$  000000000170200000000017420000000001673000000000170700000000017120000000001712000000000172009490000000000003544200000000006050248500000000000000009999123100000010000000000000BRDTEXACNOR3128
012020090302EAIN34      010ELECTR ARTS DRN          R$  000000003752900000000375290000000034810000000003588200000000350500000000034790000000000000000047000000000000000820000000000029423340000000000000009999123100000010000000000000BREAINBDR007100
012020090302EALT3       010ACO ALTONA  ON           R$  000000000123200000000012320000000001211000000000122100000000012110000000001200000000000124900004000000000000000400000000000000488500000000000000009999123100000010000000000000BREALTACNOR4133
012020090302EALT4       010ACO ALTONA  PN           R$  000000000056500000000005650000000000547000000000055500000000005590000000000555000000000055900107000000000000024800000000000013781200000000000000009999123100000010000000000000BREALTACNPR1133
012020090302ECOR3       010ECORODOVIAS ON      NM   R$  000000000134000000000013660000000001303000000000132300000000013120000000001312000000000131314722000000000004107300000000005433976200000000000000009999123100000010000000000000BRECORACNOR8116
012020090302EGIE3       010ENGIE BRASILON      NM   R$  000000000439300000000044190000000004297000000000435000000000043280000000004328000000000433010402000000000001693200000000007366121100000000000000009999123100000010000000000000BREGIEACNOR9113
012020090302ELET3       010ELETROBRAS  ON      N1   R$  000000000378100000000038500000000003650000000000373300000000036610000000003660000000000366124588000000000006336900000000023657387500000000000000009999123100000010000000000000BRELETACNOR6155
012020090302ELET6       010ELETROBRAS  PNB     N1   R$  000000000380100000000038750000000003706000000000377800000000037490000000003746000000000374915994000000000003230500000000012207441000000000000000009999123100000010000000000000BRELETACNPB7072
012020090302EMAE4       010EMAE        PN           R$  000000000297200000000029720000000002872000000000291700000000029200000000002920000000000297100037000000000000006200000000000018089200000000000000009999123100000010000000000000BREMAEACNPR1114
012020090302EMBR3       010EMBRAER     ON      NM   R$  000000000075600000000007940000000000734000000000075900000000007440000000000741000000000074427694000000000019511000000000014827717300000000000000009999123100000010000000000000BREMBRACNOR4189
012020090302ENAT3       010ENAUTA PART ON      NM   R$  000000000116300000000011720000000001085000000000113200000000011260000000001126000000000112908962000000000002323600000000002631217400000000000000009999123100000010000000000000BRENATACNOR0101
012020090302ENBR3       010ENERGIAS BR ON      NM   R$  000000000189200000000019110000000001844000000000187600000000018780000000001876000000000187818803000000000008201300000000015387491800000000000000009999123100000010000000000000BRENBRACNOR2129
012020090302ENEV3       010ENEVA       ON      NM   R$  000000000491800000000049550000000004743000000000483600000000048590000000004849000000000485912804000000000002040800000000009869783400000000000000009999123100000010000000000000BRENEVACNOR8104
012020090302ENGI3       010ENERGISA    ON      N2   R$  000000000134700000000013680000000001297000000000133800000000013010000000001300000000000131600078000000000000009600000000000012852300000000000000009999123100000010000000000000BRENGIACNOR0138
012020090302ENGI4       010ENERGISA    PN      N2   R$  000000000077700000000007930000000000765000000000077100000000007650000000000764000000000078400096000000000000019100000000000014745000000000000000009999123100000010000000000000BRENGIACNPR7134
012020090302ENGI11      010ENERGISA    UNT     N2   R$  000000000442800000000045370000000004352000000000441700000000043520000000004352000000000436108065000000000001274000000000005628145200000000000000009999123100000010000000000000BRENGICDAM16128
012020090302ENMT3       010ENERGISA MT ON           R$  000000000299000000000029900000000002990000000000299000000000029900000000002615000000000299000001000000000000000100000000000000299000000000000000009999123100000010000000000000BRENMTACNOR5111
012020090302ENMT4       010ENERGISA MT PN           R$  000000000299000000000029900000000002990000000000299000000000029900000000002615000000000299000001000000000000000100000000000000299000000000000000009999123100000010000000000000BRENMTACNPR2114
012020090302EQIX34      010EQUINIX INC DRN          R$  000000008209900000000832280000000082099000000008238300000000832280000000000000000000000000000005000000000000000470000000000038720260000000000000009999123100000010000000000000BREQIXBDR002106
012020090302EQPA3       010EQTL PARA   ON           R$  000000000034200000000003450000000000330000000000033500000000003310000000000330000000000033500091000000000000037900000000000012702700000000000000009999123100000010000000000000BREQPAACNOR1101
012020090302EQPA7       010EQTL PARA   PNC          R$  000000000056000000000005990000000000560000000000056300000000005990000000000515000000000060000004000000000000001300000000000000731900000000000000009999123100000010000000000000BREQPAACNPC0101
012020090302EQTL3       010EQUATORIAL  ON      NM   R$  000000000239900000000024290000000002328000000000236500000000023560000000002353000000000235618655000000000005579600000000013197072300000000000000009999123100000010000000000000BREQTLACNOR0126
012020090302EUCA3       010EUCATEX     ON      N1   R$  000000000231000000000023490000000002290000000000230000000000022900000000002290000000000234700015000000000000001900000000000004371500000000000000009999123100000010000000000000BREUCAACNOR1151
012020090302EUCA4       010EUCATEX     PN      N1   R$  000000000065200000000006580000000000632000000000064800000000006500000000000638000000000065000182000000000000098200000000000063707200000000000000009999123100000010000000000000BREUCAACNPR8038
012020090302EVEN3       010EVEN        ON      NM   R$  000000000130500000000013110000000001254000000000127500000000012720000000001272000000000127608584000000000002343400000000002987925800000000000000009999123100000010000000000000BREVENACNOR8112
012020090302EXXO34      010EXXON MOBIL DRN          R$  000000000520000000000052000000000005163000000000517800000000051640000000005000000000000516400064000000000000030380000000000157313110000000000000009999123100000010000000000000BREXXOBDR006140
012020090302EZTC3       010EZTEC       ON      NM   R$  000000000408000000000041200000000003922000000000399200000000039760000000003956000000000397613970000000000002635600000000010523783200000000000000009999123100000010000000000000BREZTCACNOR0114
012020090302F1NI34      010FIDELITY NATDRN          R$  000000002035000000000203500000000020253000000002029500000000203360000000000000000000000000000006000000000000001740000000000035313720000000000000009999123100000010000000000000BRF1NIBDR004102
012020090302F1RA34      010FRANKLIN RESDRN          R$  000000001157900000000117310000000011479000000001165200000000114790000000000000000000000000000004000000000000001190000000000013866170000000000000009999123100000010000000000000BRF1RABDR002102
012020090302F1RI34      010FEDERAL REALDRN          R$  000000001085400000000108540000000010854000000001085400000000108540000000000000000000001208000001000000000000000010000000000000108540000000000000009999123100000010000000000000BRF1RIBDR005102
012020090302FBOK34      010FACEBOOK    DRN          R$  000000007927200000000792720000000075500000000007641600000000765000000000076537000000007827100091000000000000010250000000000783264390000000000000009999123100000010000000000000BRFBOKBDR006100
012020090302FCXO34      010FREEPORT    DRN          R$  000000000819200000000081920000000008192000000000819200000000081920000000000000000000000000000001000000000000000400000000000003276800000000000000009999123100000010000000000000BRFCXOBDR007132
012020090302FESA3       010FERBASA     ON      N1   R$  000000000291000000000029100000000002910000000000291000000000029100000000002540000000000291000001000000000000000100000000000000291000000000000000009999123100000010000000000000BRFESAACNOR8170
012020090302FESA4       010FERBASA     PN      N1   R$  000000000184500000000018550000000001792000000000181500000000018000000000001799000000000180501079000000000000308700000000000560555300000000000000009999123100000010000000000000BRFESAACNPR5066
012020090302FLRY3       010FLEURY      ON      NM   R$  000000000282300000000028720000000002756000000000280700000000027700000000002768000000000277217814000000000002917800000000008191227900000000000000009999123100000010000000000000BRFLRYACNOR5127
012020090302FRAS3       010FRAS-LE     ON      N1   R$  000000000053800000000005450000000000523000000000052900000000005250000000000523000000000052500313000000000000118200000000000062621600000000000000009999123100000010000000000000BRFRASACNOR0149
012020090302G1WW34      010WW GRAINGER DRN          R$  000000003899000000000389900000000038990000000003899000000000389900000000000000000000000000000001000000000000000820000000000031971800000000000000009999123100000010000000000000BRG1WWBDR005103
012020090302GEOO34      010GE          DRN          R$  000000000340100000000034960000000003339000000000343700000000033390000000000000000000000333900013000000000000003080000000000010586220000000000000009999123100000010000000000000BRGEOOBDR000140
012020090302GEPA4       010GER PARANAP PN           R$  000000000470400000000047090000000004702000000000470400000000047020000000004702000000000489200004000000000000000400000000000001881800000000000000009999123100000010000000000000BRGEPAACNPR9153
012020090302GFSA3       010GAFISA      ON      NM   R$  000000000049100000000004930000000000470000000000047900000000004750000000000475000000000047606338000000000005605000000000002685667000000000000000009999123100000010000000000000BRGFSAACNOR3119
012020090302GGBR3       010GERDAU      ON      N1   R$  000000000164600000000016760000000001607000000000163100000000016190000000001619000000000162000408000000000000100800000000000164489600000000000000009999123100000010000000000000BRGGBRACNOR1173
012020090302GGBR4       010GERDAU      PN      N1   R$  000000000196600000000020050000000001912000000000194700000000019380000000001936000000000193840582000000000012674900000000024678618300000000000000009999123100000010000000000000BRGGBRACNPR8173
012020090302GILD34      010GILEAD      DRN          R$  000000001744200000000174420000000017400000000001740000000000174000000000000000000000002156000013000000000000004040000000000070297680000000000000009999123100000010000000000000BRGILDBDR000117
012020090302GMCO34      010GENERAL MOT DRN          R$  000000001645900000000165380000000015438000000001603100000000154380000000010000000000000000000006000000000000001700000000000027253000000000000000009999123100000010000000000000BRGMCOBDR008115
012020090302GNDI3       010INTERMEDICA ON      NM   R$  000000000739700000000074950000000007257000000000740900000000074330000000007433000000000743420067000000000002907100000000021541319900000000000000009999123100000010000000000000BRGNDIACNOR2102
012020090302GOAU3       010GERDAU MET  ON      N1   R$  000000000079600000000007980000000000772000000000078300000000007760000000000775000000000078100185000000000000048100000000000037698200000000000000009999123100000010000000000000BRGOAUACNOR1250
012020090302GOAU4       010GERDAU MET  PN      N1   R$  000000000089700000000009090000000000869000000000088400000000008820000000000881000000000088238097000000000019350300000000017121075400000000000000009999123100000010000000000000BRGOAUACNPR8251
012020090302GOGL34      010ALPHABET    DRN A        R$  000000003692300000000369230000000034120000000003490000000000342800000000034280000000003430100301000000000000038990000000001360772750000000000000009999123100000010000000000000BRGOGLBDR001100
012020090302GOGL35      010ALPHABET    DRN C        R$  000000003557900000000355790000000034489000000003489900000000344890000000000000000000003448900009000000000000000110000000000003838920000000000000009999123100000010000000000000BRGOGLBDR019100
012020090302GOLL4       010GOL         PN      N2   R$  000000000187600000000019670000000001870000000000191900000000019270000000001925000000000192724386000000000010899000000000020924266400000000000000009999123100000010000000000000BRGOLLACNPR4125
012020090302GPAR3       010CELGPAR     ON           R$  000000000328500000000033000000000002960000000000315300000000029750000000002980000000000335000046000000000000006400000000000020183900000000000000009999123100000010000000000000BRGPARACNOR4104
012020090302GPIV33      010GP INVEST   DR3          R$  000000000055400000000005600000000000530000000000055000000000005300000000000521000000000053000163000000000000094000000000000051709800000000000000009999123100000010000000000000BRGPIVBDR003104
012020090302GPRK34      010GEOPARK LTD DRN          R$  000000000478400000000047840000000004784000000000478400000000047840000000000000000000000000000007000000000000000700000000000003348800000000000000009999123100000010000000000000BRGPRKBDR007103
012020090302GPRO34      010GOPRO       DRN          R$  000000000225000000000022500000000002229000000000223900000000022290000000001580000000000000000002000000000000000020000000000000044790000000000000009999123100000010000000000000BRGPROBDR009100
012020090302GRND3       010GRENDENE    ON      NM   R$  000000000083700000000008630000000000830000000000084400000000008350000000000835000000000083608007000000000002918100000000002465036700000000000000009999123100000010000000000000BRGRNDACNOR3158
012020090302GSGI34      010GOLDMANSACHSDRN ED       R$  000000001125000000000112500000000010980000000001098000000000109800000000000000000000000000000033000000000000015020000000000164925000000000000000009999123100000010000000000000BRGSGIBDR008140
012020090302GSHP3       010GENERALSHOPPON      NM   R$  000000000479600000000047960000000004796000000000479600000000047960000000004795000000000550000001000000000000000100000000000000479600000000000000009999123100000010000000000000BRGSHPACNOR7102
012020090302GUAR3       010GUARARAPES  ON           R$  000000000188000000000018890000000001808000000000185500000000018250000000001824000000000182505636000000000001559000000000002892523800000000000000009999123100000010000000000000BRGUARACNOR4165
012020090302HAGA3       010HAGA S/A    ON           R$  000000000037500000000004150000000000342000000000039000000000003760000000000375000000000037600144000000000000085700000000000033425500000000000000009999123100000010000000000000BRHAGAACNOR7103
012020090302HAGA4       010HAGA S/A    PN           R$  000000000020900000000002100000000000193000000000020100000000002040000000000203000000000020400195000000000000121200000000000024476800000000000000009999123100000010000000000000BRHAGAACNPR4103
012020090302HALI34      010HALLIBURTON DRN ED       R$  000000000860900000000086090000000008609000000000860900000000086090000000000000000000000000000001000000000000000090000000000000774810000000000000009999123100000010000000000000BRHALIBDR004135
012020090302HAPV3       010HAPVIDA     ON      NM   R$  000000000678000000000068660000000006597000000000671300000000066900000000006689000000000669010834000000000001583200000000010629229100000000000000009999123100000010000000000000BRHAPVACNOR4105
012020090302HBOR3       010HELBOR      ON      NM   R$  000000000120100000000012130000000001124000000000117100000000011920000000001186000000000119308871000000000004576900000000005362963300000000000000009999123100000010000000000000BRHBORACNOR3114
012020090302HBTS5       010HABITASUL   PNA          R$  000000000230000000000024000000000002300000000000236200000000023500000000002350000000000260000004000000000000000400000000000000945000000000000000009999123100000010000000000000BRHBTSACNPA3124
012020090302HETA4       010HERCULES    PN           R$  000000000079000000000007900000000000790000000000079000000000007900000000000790000000000081900001000000000000000400000000000000316000000000000000009999123100000010000000000000BRHETAACNPR9136
012020090302HGTX3       010CIA HERING  ON      NM   R$  000000000199800000000021100000000001998000000000205700000000020810000000002076000000000208125183000000000010101200000000020787785100000000000000009999123100000010000000000000BRHGTXACNOR9151
012020090302HOME34      010HOME DEPOT  DRN ED       R$  000000007513700000000752000000000075137000000007519300000000752000000000072000000000000000000003000000000000003580000000000269194060000000000000009999123100000010000000000000BRHOMEBDR002134
012020090302HYPE3       010HYPERA      ON      NM   R$  000000000332500000000033660000000003239000000000329400000000032620000000003258000000000326216394000000000002767000000000009115804500000000000000009999123100000010000000000000BRHYPEACNOR0122
012020090302I1NF34      010IHS MARKIT LDRN          R$  000000002207900000000220790000000022079000000002207900000000220790000000000000000000000000000001000000000000001740000000000038417460000000000000009999123100000010000000000000BRI1NFBDR007103
012020090302I1VZ34      010INVESCO LTD DRN          R$  000000000591900000000060100000000005919000000000596400000000059200000000000000000000000000000004000000000000001800000000000010735200000000000000009999123100000010000000000000BRI1VZBDR008103
012020090302IBMB34      010IBM         DRN          R$  000000006600000000000660000000000066000000000006600000000000660000000000065000000000000000000001000000000000000010000000000000660000000000000000009999123100000010000000000000BRIBMBBDR003135
012020090302IDVL3       010INDUSVAL    ON      N2   R$  000000000024100000000002470000000000239000000000024300000000002450000000000245000000000024600018000000000000003900000000000000949900000000000000009999123100000010000000000000BRIDVLACNOR5130
012020090302IDVL4       010INDUSVAL    PN      N2   R$  000000000026400000000002640000000000257000000000026000000000002570000000000256000000000026000008000000000000004100000000000001066600000000000000009999123100000010000000000000BRIDVLACNPR2130
012020090302IGTA3       010IGUATEMI    ON      NM   R$  000000000348200000000035270000000003391000000000344800000000034170000000003416000000000341713139000000000002152600000000007423454800000000000000009999123100000010000000000000BRIGTAACNOR5124
012020090302IRBR3       010IRBBRASIL REON      NM   R$  000000000070300000000007160000000000683000000000069500000000006840000000000684000000000068526955000000000028111900000000019538478100000000000000009999123100000010000000000000BRIRBRACNOR4108
012020090302ITLC34      010INTEL       DRN          R$  000000002784600000000278460000000026550000000002716300000000266460000000026500000000002664600013000000000000002170000000000058945670000000000000009999123100000010000000000000BRITLCBDR005139
012020090302ITSA3       010ITAUSA      ON  ED  N1   R$  000000000106300000000011020000000001063000000000108700000000010760000000001076000000000108500873000000000000263700000000000286700000000000000000009999123100000010000000000000BRITSAACNOR0401
012020090302ITSA4       010ITAUSA      PN  ED  N1   R$  000000000095800000000010030000000000957000000000098400000000009790000000000978000000000097942618000000000038084400000000037510772200000000000000009999123100000010000000000000BRITSAACNPR7401
012020090302ITUB3       010ITAUUNIBANCOON  ED  N1   R$  000000000231500000000024100000000002303000000000236600000000023370000000002337000000000234103743000000000000924700000000002188111800000000000000009999123100000010000000000000BRITUBACNOR4273
012020090302ITUB4       010ITAUUNIBANCOPN  ED  N1   R$  000000000242000000000025500000000002416000000000250600000000024880000000002487000000000248920350000000000081001700000000203031915300000000000000009999123100000010000000000000BRITUBACNPR1273
012020090302JBDU3       010J B DUARTE  ON           R$  000000000025300000000002540000000000245000000000025200000000002450000000000245000000000024700008000000000000001400000000000000353000000000000000009999123100000010000000000000BRJBDUACNOR6142
012020090302JBDU4       010J B DUARTE  PN           R$  000000000013500000000001350000000000129000000000013100000000001290000000000128000000000012900094000000000000038100000000000005000500000000000000009999123100000010000000000000BRJBDUACNPR3142
012020090302JBSS3       010JBS         ON      NM   R$  000000000225000000000022690000000002180000000000221000000000022010000000002200000000000220139873000000000017302200000000038253292900000000000000009999123100000010000000000000BRJBSSACNOR8115
012020090302JDCO34      010JD COM      DRN          R$  000000004200000000000420000000000041373000000004144900000000414000000000040000000000004420000006000000000000000110000000000004559460000000000000009999123100000010000000000000BRJDCOBDR001100
012020090302JHSF3       010JHSF PART   ON      NM   R$  000000000071200000000007220000000000682000000000069800000000006920000000000692000000000069315138000000000010588900000000007396957700000000000000009999123100000010000000000000BRJHSFACNOR2116
012020090302JNJB34      010JOHNSON     DRN          R$  000000008203900000000820390000000078743000000007993100000000787430000000075000000000007874300036000000000000004170000000000333315360000000000000009999123100000010000000000000BRJNJBBDR002135
012020090302JOPA3       010JOSAPAR     ON           R$  000000000330000000000033000000000003300000000000330000000000033000000000002751000000000330000001000000000000000100000000000000330000000000000000009999123100000010000000000000BRJOPAACNOR5131
012020090302JPMC34      010JPMORGAN    DRN          R$  000000002769200000000278670000000026700000000002686700000000267810000000026000000000002678100047000000000000009030000000000242611770000000000000009999123100000010000000000000BRJPMCBDR009134
012020090302JPSA3       010JEREISSATI  ON           R$  000000000241800000000024600000000002317000000000235300000000023800000000002346000000000238001395000000000000264900000000000623478600000000000000009999123100000010000000000000BRJPSAACNOR6103
012020090302JSLG3       010JSL         ON      NM   R$  000000000339800000000034370000000003282000000000334400000000033150000000003315000000000333206210000000000001379800000000004614639000000000000000009999123100000010000000000000BRJSLGACNOR2114
012020090302KEPL3       010KEPLER WEBERON           R$  000000000444300000000044500000000004371000000000442800000000044120000000004412000000000445000458000000000000086700000000000383942400000000000000009999123100000010000000000000BRKEPLACNOR1049
012020090302KHCB34      010KRAFT HEINZ DRN ED       R$  000000001850000000000185000000000018500000000001850000000000185000000000000000000000001950000001000000000000000050000000000000925000000000000000009999123100000010000000000000BRKHCBBDR007121
012020090302KLBN3       010KLABIN S/A  ON      N2   R$  000000000054100000000005530000000000529000000000053900000000005350000000000535000000000053901137000000000000381500000000000205968700000000000000009999123100000010000000000000BRKLBNACNOR2156
012020090302KLBN4       010KLABIN S/A  PN      N2   R$  000000000049900000000005050000000000486000000000049400000000004950000000000493000000000049503683000000000001943700000000000960453500000000000000009999123100000010000000000000BRKLBNACNPR9156
012020090302KLBN11      010KLABIN S/A  UNT     N2   R$  000000000253300000000025770000000002472000000000251800000000025200000000002518000000000252016727000000000003994400000000010060843300000000000000009999123100000010000000000000BRKLBNCDAM18128
012020090302L1UL34      010LULULEMON ATDRN          R$  000000005009700000000500970000000050097000000005009700000000500970000000000000000000000000000001000000000000000010000000000000500970000000000000009999123100000010000000000000BRL1ULBDR005100
012020090302LAME3       010LOJAS AMERICON      N1   R$  000000000274500000000027470000000002600000000000264400000000026000000000002600000000000260112587000000000002877700000000007609952600000000000000009999123100000010000000000000BRLAMEACNOR9202
012020090302LAME4       010LOJAS AMERICPN      N1   R$  000000000325700000000032660000000003051000000000311800000000030860000000003080000000000308639086000000000010948400000000034144390600000000000000009999123100000010000000000000BRLAMEACNPR6202
012020090302LAVV3       010LAVVI       ON      NM   R$  000000000087500000000009190000000000871000000000089200000000008860000000000886000000000088708542000000000006823600000000006092716300000000000000009999123100000010000000000000BRLAVVACNOR4100
012020090302LBRN34      010L BRANDS    DRN          R$  000000000402200000000040220000000003977000000000400500000000039770000000000000000000000000000002000000000000000480000000000001922460000000000000009999123100000010000000000000BRLBRNBDR001119
012020090302LCAM3       010LOCAMERICA  ON      NM   R$  000000000207000000000021270000000002049000000000209700000000021120000000002112000000000211412748000000000004267000000000008950381300000000000000009999123100000010000000000000BRLCAMACNOR3133
012020090302LEVE3       010METAL LEVE  ON      NM   R$  000000000175000000000018260000000001732000000000177000000000017600000000001752000000000176003380000000000000704600000000001247700200000000000000009999123100000010000000000000BRLEVEACNOR2187
012020090302LIGT3       010LIGHT S/A   ON      NM   R$  000000000159800000000015980000000001523000000000155300000000015720000000001568000000000157209428000000000002991700000000004647207500000000000000009999123100000010000000000000BRLIGTACNOR2120
012020090302LINX3       010LINX        ON      NM   R$  000000000370000000000037180000000003573000000000363100000000036670000000003654000000000366710897000000000002102600000000007635264400000000000000009999123100000010000000000000BRLINXACNOR0118
012020090302LIPR3       010ELETROPAR   ON           R$  000000000756000000000075600000000007200000000000735300000000072110000000007050000000000739500022000000000000002200000000000016178600000000000000009999123100000010000000000000BRLIPRACNOR7117
012020090302LJQQ3       010QUERO-QUERO ON      NM   R$  000000000146600000000014700000000001442000000000145400000000014580000000001456000000000146501823000000000000959700000000001395716200000000000000009999123100000010000000000000BRLJQQACNOR5100
012020090302LOGG3       010LOG COM PROPON      NM   R$  000000000331300000000033640000000003184000000000325800000000032250000000003222000000000322502543000000000000378200000000001232490500000000000000009999123100000010000000000000BRLOGGACNOR7103
012020090302LOGN3       010LOG-IN      ON      NM   R$  000000000197300000000019820000000001928000000000195200000000019550000000001953000000000195603194000000000000821200000000001603313900000000000000009999123100000010000000000000BRLOGNACNOR3104
012020090302LPSB3       010LOPES BRASILON      NM   R$  000000000053700000000005430000000000506000000000052000000000005150000000000514000000000051803149000000000001635600000000000850828400000000000000009999123100000010000000000000BRLPSBACNOR0111
012020090302LREN3       010LOJAS RENNERON      NM   R$  000000000457000000000046930000000004502000000000460300000000045690000000004568000000000456937823000000000011465400000000052783410800000000000000009999123100000010000000000000BRLRENACNOR1203
012020090302LUXM4       010TREVISA     PN           R$  000000000460000000000046230000000004500000000000456800000000045000000000004276000000000450000004000000000000000400000000000001827300000000000000009999123100000010000000000000BRLUXMACNPR4047
012020090302LWSA3       010LOCAWEB     ON      NM   R$  000000000667800000000068540000000006116000000000638700000000061320000000006132000000000615922877000000000004255100000000027180314700000000000000009999123100000010000000000000BRLWSAACNOR8100
012020090302M1GM34      010MGM RESORTS DRN          R$  000000001253900000000125390000000012539000000001253900000000125390000000000000000000000000000002000000000000000500000000000006269500000000000000009999123100000010000000000000BRM1GMBDR019102
012020090302M1NS34      010MONSTER BEVEDRN          R$  000000004551400000000455140000000045514000000004551400000000455140000000000000000000000000000002000000000000001300000000000059168200000000000000009999123100000010000000000000BRM1NSBDR004100
012020090302M1RO34      010MARATHON OILDRN          R$  000000000272600000000027260000000002726000000000272600000000027260000000000000000000000000000002000000000000000500000000000001363000000000000000009999123100000010000000000000BRM1ROBDR004101
012020090302MACY34      010MACY S      DRN          R$  000000000410300000000041030000000003990000000000405900000000039900000000003890000000000890000006000000000000001530000000000006211760000000000000009999123100000010000000000000BRMACYBDR000116
012020090302MAPT4       010CEMEPE      PN           R$  000000000474900000000049990000000004400000000000470900000000044000000000004150000000000440000005000000000000000500000000000002354700000000000000009999123100000010000000000000BRMAPTACNPR5106
012020090302MCDC34      010MCDONALDS   DRN ED       R$  000000002825000000000282500000000028044000000002816100000000280440000000000000000000003000000010000000000000003520000000000099127880000000000000009999123100000010000000000000BRMCDCBDR000140
012020090302MDIA3       010M.DIASBRANCOON      NM   R$  000000000375000000000037600000000003682000000000370800000000037110000000003710000000000371107593000000000001308500000000004852758100000000000000009999123100000010000000000000BRMDIAACNOR7118
012020090302MDNE3       010MOURA DUBEUXON      NM   R$  000000000090500000000009280000000000897000000000091500000000009250000000000910000000000092501528000000000000487700000000000446410800000000000000009999123100000010000000000000BRMDNEACNOR9100
012020090302MDTC34      010MEDTRONIC   DRN          R$  000000002800000000000280000000000027970000000002798100000000279700000000000000000000000000000016000000000000005200000000000145504000000000000000009999123100000010000000000000BRMDTCBDR004117
012020090302MEAL3       010IMC S/A     ON      NM   R$  000000000039700000000004120000000000380000000000039200000000003830000000000382000000000038313374000000000027506700000000010796118400000000000000009999123100000010000000000000BRMEALACNOR9105
012020090302MELI34      010MERCADOLIBREDRN          R$  000000006435000000000643500000000056507000000005932100000000580000000000057550000000005800000777000000000000054210000000003215806030000000000000009999123100000010000000000000BRMELIBDR006100
012020090302MERC4       010MERC FINANC PN           R$  000000000120000000000012000000000001200000000000120000000000012000000000001171000000000138800001000000000000000100000000000000120000000000000000009999123100000010000000000000BRMERCACNPR9173
012020090302METB34      010METLIFE INC DRN          R$  000000002022700000000202270000000020227000000002022700000000202270000000000000000000000000000001000000000000000200000000000004045400000000000000009999123100000010000000000000BRMETBBDR004121
012020090302MGEL4       010MANGELS INDLPN           R$  000000000053500000000005500000000000520000000000054300000000005440000000000525000000000054500024000000000000007400000000000004023100000000000000009999123100000010000000000000BRMGELACNPR3147
012020090302MGLU3       010MAGAZ LUIZA ON      NM   R$  000000000938100000000094300000000008720000000000894900000000088500000000008849000000000885089231000000000021280200000000190449785000000000000000009999123100000010000000000000BRMGLUACNOR2116
012020090302MILS3       010MILLS       ON      NM   R$  000000000070500000000007120000000000684000000000069400000000006860000000000686000000000069403634000000000001342000000000000932471100000000000000009999123100000010000000000000BRMILSACNOR2112
012020090302MMMC34      0103M          DRN          R$  000000002250000000000225000000000021836000000002195600000000218360000000015000000000000000000011000000000000003850000000000084533800000000000000009999123100000010000000000000BRMMMCBDR000134
012020090302MNDL3       010MUNDIAL     ON           R$  000000000230000000000023000000000002280000000000228600000000022800000000002280000000000234900005000000000000000900000000000002058000000000000000009999123100000010000000000000BRMNDLACNOR4107
012020090302MNPR3       010MINUPAR     ON           R$  000000000057200000000005850000000000543000000000056900000000005630000000000545000000000056300023000000000000008300000000000004724100000000000000009999123100000010000000000000BRMNPRACNOR5122
012020090302MOAR3       010MONT ARANHA ON           R$  000000002080000000000208000000000020800000000002080000000000208000000000019100000000002079900001000000000000000100000000000002080000000000000000009999123100000010000000000000BRMOARACNOR5212
012020090302MOOO34      010ALTRIA GROUPDRN          R$  000000002320000000000232000000000023200000000002320000000000232000000000000000000000000000000001000000000000000020000000000000464000000000000000009999123100000010000000000000BRMOOOBDR007104
012020090302MOVI3       010MOVIDA      ON      NM   R$  000000000172700000000017430000000001695000000000171900000000017130000000001710000000000171308861000000000002281000000000003922946600000000000000009999123100000010000000000000BRMOVIACNOR0111
012020090302MRCK34      010MERCK       DRN          R$  000000004490800000000451160000000044908000000004501700000000450820000000000000000000000000000003000000000000000700000000000031512000000000000000009999123100000010000000000000BRMRCKBDR003139
012020090302MRFG3       010MARFRIG     ON      NM   R$  000000000175100000000017540000000001672000000000170500000000016900000000001690000000000169133164000000000011168400000000019044844300000000000000009999123100000010000000000000BRMRFGACNOR0109
012020090302MRVE3       010MRV         ON      NM   R$  000000000182900000000018430000000001776000000000181000000000018220000000001821000000000182216145000000000004189500000000007585850900000000000000009999123100000010000000000000BRMRVEACNOR2120
012020090302MSBR34      010MORGAN STAN DRN          R$  000000002805000000000280500000000028050000000002805000000000280500000000000000000000000000000007000000000000001240000000000034782000000000000000009999123100000010000000000000BRMSBRBDR008129
012020090302MSCD34      010MASTERCARD  DRN          R$  000000018187300000001818730000000181873000000018187300000001818730000000151600000000000000000001000000000000000900000000000163685700000000000000009999123100000010000000000000BRMSCDBDR006137
012020090302MSFT34      010MICROSOFT   DRN          R$  000000012170000000001217000000000113899000000011560600000001148040000000114705000000011480400093000000000000010940000000001264739900000000000000009999123100000010000000000000BRMSFTBDR005139
012020090302MTRE3       010MITRE REALTYON      NM   R$  000000000149000000000014900000000001426000000000144600000000014500000000001450000000000145301832000000000000406100000000000587383700000000000000009999123100000010000000000000BRMTREACNOR6100
012020090302MTSA4       010METISA      PN           R$  000000000245000000000024980000000002450000000000246400000000024950000000002460000000000249600011000000000000001800000000000004436600000000000000009999123100000010000000000000BRMTSAACNPR9056
012020090302MULT3       010MULTIPLAN   ON      N2   R$  000000000220400000000022340000000002151000000000219000000000021670000000002167000000000216933204000000000007322000000000016037176500000000000000009999123100000010000000000000BRMULTACNOR5127
012020090302MUTC34      010MICRON TECHNDRN          R$  000000002489700000000248970000000024897000000002489700000000248970000000000000000000000000000001000000000000000020000000000000497940000000000000009999123100000010000000000000BRMUTCBDR008100
012020090302MYPK3       010IOCHP-MAXIONON      NM   R$  000000000114800000000011740000000001133000000000115000000000011560000000001156000000000115708446000000000002627900000000003023268700000000000000009999123100000010000000000000BRMYPKACNOR7148
012020090302N1CL34      010NORWEGIAN CRDRN          R$  000000000929900000000100390000000009299000000000981700000000096190000000000000000000001003500006000000000000000820000000000008050100000000000000009999123100000010000000000000BRN1CLBDR001100
012020090302N1DA34      010NASDAQ INC  DRN          R$  000000003605800000000360580000000036058000000003605800000000360580000000035000000000000000000001000000000000000010000000000000360580000000000000009999123100000010000000000000BRN1DABDR002102
012020090302N1EM34      010NEWMONT GOLDDRN          R$  000000003540000000000354000000000034388000000003487500000000347420000000033190000000003700000300000000000000047310000000001649964010000000000000009999123100000010000000000000BRN1EMBDR005102
012020090302NEOE3       010NEOENERGIA  ON      NM   R$  000000000187900000000019060000000001831000000000186000000000018450000000001842000000000184608965000000000008186300000000015233672700000000000000009999123100000010000000000000BRNEOEACNOR3111
012020090302NFLX34      010NETFLIX     DRN          R$  000000029000000000002900000000000277100000000027789200000002778460000000277500000000034500000009000000000000001490000000000414059960000000000000009999123100000010000000000000BRNFLXBDR000101
012020090302NIKE34      010NIKE        DRN ED       R$  000000006170000000000617000000000061700000000006170000000000617000000000000000000000000000000001000000000000000020000000000001234000000000000000009999123100000010000000000000BRNIKEBDR006139
012020090302NORD3       010NORDON MET  ON           R$  000000000051000000000005100000000000492000000000049900000000004950000000000496000000000054900014000000000000001400000000000000699000000000000000009999123100000010000000000000BRNORDACNOR7135
012020090302NTCO3       010GRUPO NATURAON      NM   R$  000000000506000000000051740000000004920000000000505800000000050270000000005026000000000502727422000000000006551200000000033136287200000000000000009999123100000010000000000000BRNTCOACNOR5101
012020090302NVDC34      010NVIDIA CORP DRN ED       R$  000000007420000000000742000000000068300000000006979800000000686530000000069000000000007482300100000000000000011400000000000795707410000000000000009999123100000010000000000000BRNVDCBDR008106
012020090302ODPV3       010ODONTOPREV  ON      NM   R$  000000000132500000000013390000000001305000000000131800000000013140000000001314000000000131503417000000000000957100000000001261825300000000000000009999123100000010000000000000BRODPVACNOR4178
012020090302OFSA3       010OUROFINO S/AON      NM   R$  000000000283700000000028670000000002820000000000284500000000028530000000002853000000000286800064000000000000011700000000000033293000000000000000009999123100000010000000000000BROFSAACNOR7109
012020090302OMGE3       010OMEGA GER   ON      NM   R$  000000000398000000000039970000000003903000000000395400000000039800000000003952000000000398007971000000000001183900000000004682301000000000000000009999123100000010000000000000BROMGEACNOR0101
012020090302ORCL34      010ORACLE      DRN          R$  000000003000000000000300000000000030000000000003000000000000300000000000029000000000000000000001000000000000000100000000000003000000000000000000009999123100000010000000000000BRORCLBDR007134
012020090302OXYP34      010OCCIDENT PTRDRN          R$  000000000331100000000033110000000003311000000000331100000000033110000000003011000000000000000001000000000000000100000000000000331100000000000000009999123100000010000000000000BROXYPBDR000105
012020090302P1SX34      010PHILLIPS 66 DRN          R$  000000001601900000000160190000000015799000000001599100000000157990000000000000000000000000000003000000000000000160000000000002558640000000000000009999123100000010000000000000BRP1SXBDR000103
012020090302PARD3       010IHPARDINI   ON      NM   R$  000000000264000000000026550000000002530000000000257500000000025440000000002544000000000255103246000000000000482100000000001241527000000000000000009999123100000010000000000000BRPARDACNOR1114
012020090302PATI3       010PANATLANTICAON           R$  000000000216000000000022900000000002122000000000219100000000022100000000002130000000000222000008000000000000000800000000000001753200000000000000009999123100000010000000000000BRPATIACNOR6060
012020090302PATI4       010PANATLANTICAPN           R$  000000000290000000000029500000000002706000000000282200000000027250000000002750000000000285000039000000000000007400000000000020886100000000000000009999123100000010000000000000BRPATIACNPR3060
012020090302PCAR3       010P.ACUCAR-CBDON      NM   R$  000000000646000000000064800000000006211000000000630200000000062770000000006260000000000627712386000000000001968000000000012403745300000000000000009999123100000010000000000000BRPCARACNOR3163
012020090302PDTC3       010PADTEC      ON           R$  000000000059700000000006050000000000571000000000058100000000005730000000000573000000000057600142000000000000054600000000000031733300000000000000009999123100000010000000000000BRPDTCACNOR3100
012020090302PETR3       010PETROBRAS   ON      N2   R$  000000000231100000000023690000000002300000000000232700000000023300000000002328000000000233051771000000000025692800000000059797678700000000000000009999123100000010000000000000BRPETRACNOR9191
012020090302PETR4       010PETROBRAS   PN      N2   R$  000000000226100000000023120000000002257000000000228400000000022880000000002287000000000228889319000000000087642400000000200190195900000000000000009999123100000010000000000000BRPETRACNPR6197
012020090302PFIZ34      010PFIZER      DRN          R$  000000001973800000000197600000000019100000000001936200000000192050000000019100000000001920500021000000000000001620000000000031366870000000000000009999123100000010000000000000BRPFIZBDR006140
012020090302PFRM3       010PROFARMA    ON      NM   R$  000000000052100000000005210000000000502000000000051000000000005070000000000506000000000050701930000000000000692600000000000353902800000000000000009999123100000010000000000000BRPFRMACNOR1112
012020090302PGCO34      010PG          DRN          R$  000000007287400000000728740000000072874000000007287400000000728740000000000000000000007287400001000000000000000010000000000000728740000000000000009999123100000010000000000000BRPGCOBDR001139
012020090302PGMN3       010PAGUE MENOS ON      NM   R$  000000000107800000000011300000000001010000000000106800000000010400000000001040000000000104227694000000000012416100000000013268908100000000000000009999123100000010000000000000BRPGMNACNOR8100
012020090302PINE4       010PINE        PN      N2   R$  000000000027900000000002840000000000277000000000028000000000002770000000000277000000000027800282000000000000161800000000000045400100000000000000009999123100000010000000000000BRPINEACNPR8144
012020090302PLAS3       010PLASCAR PARTON           R$  000000000045300000000004530000000000453000000000045300000000004530000000000443000000000046600003000000000000000400000000000000181200000000000000009999123100000010000000000000BRPLASACNOR2106
012020090302PMAM3       010PARANAPANEMAON      NM   R$  000000000120100000000012380000000001171000000000119600000000011820000000001182000000000118500311000000000000099000000000000118432800000000000000009999123100000010000000000000BRPMAMACNOR3037
012020090302PNVL3       010DIMED       ON           R$  000000000263700000000026940000000002549000000000261000000000026280000000002619000000000262804425000000000000819600000000002139918700000000000000009999123100000010000000000000BRPNVLACNOR9196
012020090302PNVL4       010DIMED       PN           R$  000000000235100000000023780000000002211000000000229900000000023250000000002264000000000232500261000000000000057200000000000131559800000000000000009999123100000010000000000000BRPNVLACNPR6196
012020090302POMO3       010MARCOPOLO   ON      N2   R$  000000000026700000000002720000000000265000000000026900000000002700000000000268000000000027000476000000000000264700000000000071287200000000000000009999123100000010000000000000BRPOMOACNOR0087
012020090302POMO4       010MARCOPOLO   PN      N2   R$  000000000028800000000002940000000000283000000000028800000000002880000000000287000000000028806749000000000012399000000000003570942800000000000000009999123100000010000000000000BRPOMOACNPR7087
012020090302POSI3       010POSITIVO TECON      NM   R$  000000000050300000000005160000000000480000000000049700000000004850000000000485000000000048604259000000000003337400000000001661137000000000000000009999123100000010000000000000BRPOSIACNOR9112
012020090302PPLA11      010PPLA        UNT          R$  000000000143800000000014880000000001403000000000143900000000014460000000001405000000000144900024000000000000004700000000000006764200000000000000009999123100000010000000000000BRPPLAUNT007101
012020090302PRIO3       010PETRORIO    ON      NM   R$  000000000428400000000044140000000004262000000000432900000000043370000000004337000000000433814373000000000004182500000000018106975900000000000000009999123100000010000000000000BRPRIOACNOR1102
012020090302PRNR3       010PRINER      ON      NM   R$  000000000096100000000009730000000000926000000000094800000000009550000000000954000000000095500920000000000000442900000000000420164100000000000000009999123100000010000000000000BRPRNRACNOR4105
012020090302PSSA3       010PORTO SEGUROON      NM   R$  000000000539800000000054580000000005291000000000535800000000053390000000005339000000000534105969000000000000937100000000005021143100000000000000009999123100000010000000000000BRPSSAACNOR7142
012020090302PTBL3       010PORTOBELLO  ON      NM   R$  000000000052500000000005350000000000488000000000050500000000004890000000000489000000000049306420000000000004765100000000002409660800000000000000009999123100000010000000000000BRPTBLACNOR8125
012020090302PTNT3       010PETTENATI   ON           R$  000000000062300000000006390000000000610000000000062100000000006100000000000610000000000062000061000000000000019800000000000012312800000000000000009999123100000010000000000000BRPTNTACNOR6039
012020090302PTNT4       010PETTENATI   PN           R$  000000000051400000000005450000000000497000000000052400000000004980000000000498000000000050600210000000000000088600000000000046428100000000000000009999123100000010000000000000BRPTNTACNPR3044
012020090302PYPL34      010PAYPAL HOLD DRN          R$  000000005400000000000540000000000052001000000005265800000000539280000000052321000000005900000009000000000000000150000000000007898730000000000000009999123100000010000000000000BRPYPLBDR002101
012020090302QCOM34      010QUALCOMM    DRN ED       R$  000000006409000000000640900000000061521000000006400800000000615210000000000000000000000000000012000000000000003790000000000242593070000000000000009999123100000010000000000000BRQCOMBDR007135
012020090302QUAL3       010QUALICORP   ON      NM   R$  000000000323200000000032600000000003138000000000317600000000031530000000003153000000000315518890000000000003992700000000012681398700000000000000009999123100000010000000000000BRQUALACNOR6113
012020090302R1CL34      010ROYAL CARIBBDRN          R$  000000001858800000000185880000000018588000000001858800000000185880000000000000000000000000000002000000000000000200000000000003717600000000000000009999123100000010000000000000BRR1CLBDR007101
012020090302RADL3       010RAIADROGASILON      NM   R$  000000001125400000000114000000000011053000000001124400000000111580000000011127000000001115808895000000000001839800000000020688191700000000000000009999123100000010000000000000BRRADLACNOR0136
012020090302RAIL3       010RUMO S.A.   ON      NM   R$  000000000222500000000022350000000002168000000000219800000000022180000000002207000000000221838049000000000012511000000000027505587600000000000000009999123100000010000000000000BRRAILACNOR9101
012020090302RANI3       010IRANI       ON  EDJ      R$  000000000050500000000005140000000000485000000000050000000000004980000000000498000000000049904064000000000002926900000000001464394500000000000000009999123100000010000000000000BRRANIACNOR5053
012020090302RANI4       010IRANI       PN  EDJ      R$  000000000072000000000007590000000000720000000000073500000000007250000000000720000000000073400028000000000000004800000000000003529900000000000000009999123100000010000000000000BRRANIACNPR2054
012020090302RAPT3       010RANDON PART ON      N1   R$  000000000094800000000009480000000000902000000000092200000000009100000000000910000000000093400025000000000000005300000000000004891000000000000000009999123100000010000000000000BRRAPTACNOR7153
012020090302RAPT4       010RANDON PART PN      N1   R$  000000000110000000000011250000000001085000000000110000000000010850000000001085000000000108715204000000000003400500000000003740643200000000000000009999123100000010000000000000BRRAPTACNPR4153
012020090302RCSL3       010RECRUSUL    ON           R$  000000000020700000000002080000000000200000000000020200000000002040000000000200000000000020400053000000000000018500000000000003751000000000000000009999123100000010000000000000BRRCSLACNOR4130
012020090302RCSL4       010RECRUSUL    PN           R$  000000000014800000000001500000000000134000000000014300000000001420000000000142000000000014304910000000000008154600000000001167303600000000000000009999123100000010000000000000BRRCSLACNPR1130
012020090302RDNI3       010RNI         ON      NM   R$  000000000104000000000010470000000000977000000000100500000000010090000000001001000000000101000068000000000000036500000000000036696200000000000000009999123100000010000000000000BRRDNIACNOR9113
012020090302RDSA34      010RD SHELL    DRN          R$  000000001532200000000153220000000015322000000001532200000000153220000000000000000000000000000001000000000000000300000000000004596600000000000000009999123100000010000000000000BRRDSABDR009104
012020090302REDE3       010REDE ENERGIAON           R$  000000000104900000000010490000000001021000000000103900000000010480000000000000000000000104900003000000000000000300000000000000311800000000000000009999123100000010000000000000BRREDEACNOR7115
012020090302RENT3       010LOCALIZA    ON      NM   R$  000000000510500000000052090000000005040000000000512400000000050690000000005068000000000506920770000000000004694900000000024059912300000000000000009999123100000010000000000000BRRENTACNOR4178
012020090302RIGG34      010TRANSOCEAN  DRN          R$  000000000065000000000006500000000000634000000000063900000000006410000000000634000000000067000013000000000000002010000000000001285330000000000000009999123100000010000000000000BRRIGGBDR000100
012020090302RLOG3       010COSAN LOG   ON      NM   R$  000000000210400000000021120000000002025000000000205800000000020680000000002068000000000206903770000000000001118800000000002303429000000000000000009999123100000010000000000000BRRLOGACNOR4106
012020090302ROMI3       010INDS ROMI   ON      NM   R$  000000000123600000000012490000000001207000000000122700000000012200000000001218000000000122001875000000000000281300000000000345216800000000000000009999123100000010000000000000BRROMIACNOR8173
012020090302RPAD5       010ALFA HOLDINGPNA          R$  000000000085000000000008500000000000850000000000085000000000008500000000000850000000000089700001000000000000000100000000000000085000000000000000009999123100000010000000000000BRRPADACNPA4211
012020090302RSID3       010ROSSI RESID ON      NM   R$  000000000058400000000005840000000000562000000000056900000000005660000000000562000000000056600228000000000000082900000000000047198400000000000000009999123100000010000000000000BRRSIDACNOR8119
012020090302RYTT34      010RAYTHEONTECHDRN          R$  000000003317100000000331710000000033171000000003317100000000331710000000000000000000000000000002000000000000003140000000000104156940000000000000009999123100000010000000000000BRRYTTBDR003102
012020090302S1OU34      010SOUTHWEST AIDRN          R$  000000002079000000000207900000000020790000000002079000000000207900000000000000000000000000000001000000000000000010000000000000207900000000000000009999123100000010000000000000BRS1OUBDR002101
012020090302S1PO34      010SPOTIFY TECHDRN          R$  000000003463300000000346330000000034633000000003463300000000346330000000000000000000000000000001000000000000000020000000000000692660000000000000009999123100000010000000000000BRS1POBDR002100
012020090302SANB3       010SANTANDER BRON           R$  000000000137200000000014490000000001364000000000141900000000014140000000001400000000000141500929000000000000260500000000000369728100000000000000009999123100000010000000000000BRSANBACNOR8153
012020090302SANB4       010SANTANDER BRPN           R$  000000000150500000000015820000000001504000000000155400000000015400000000001523000000000154001176000000000000285500000000000443763600000000000000009999123100000010000000000000BRSANBACNPR5153
012020090302SANB11      010SANTANDER BRUNT          R$  000000000288100000000030350000000002866000000000297100000000029650000000002960000000000296617595000000000004496000000000013361637000000000000000009999123100000010000000000000BRSANBCDAM13146
012020090302SAPR3       010SANEPAR     ON      N2   R$  000000000058000000000005820000000000567000000000057500000000005690000000000568000000000057100896000000000000242500000000000139467300000000000000009999123100000010000000000000BRSAPRACNOR9150
012020090302SAPR4       010SANEPAR     PN      N2   R$  000000000054600000000005520000000000538000000000054300000000005440000000000541000000000054405475000000000003064200000000001666074000000000000000009999123100000010000000000000BRSAPRACNPR6150
012020090302SAPR11      010SANEPAR     UNT     N2   R$  000000000276900000000027960000000002723000000000276400000000027400000000002740000000000274111244000000000003272600000000009046690700000000000000009999123100000010000000000000BRSAPRCDAM13109
012020090302SBSP3       010SABESP      ON      NM   R$  000000000502900000000050600000000004860000000000492700000000048990000000004897000000000489918336000000000004196300000000020678896800000000000000009999123100000010000000000000BRSBSPACNOR5157
012020090302SBUB34      010STARBUCKS   DRN          R$  000000004547000000000454700000000045470000000004547000000000454700000000039000000000000000000029000000000000003300000000000150051000000000000000009999123100000010000000000000BRSBUBBDR005130
012020090302SCAR3       010SAO CARLOS  ON      NM   R$  000000000391600000000039320000000003887000000000391300000000038980000000003897000000000392500032000000000000004900000000000019176400000000000000009999123100000010000000000000BRSCARACNOR7128
012020090302SCHW34      010SCHWAB      DRN          R$  000000001900000000000190190000000019000000000001900200000000190050000000018500000000000000000003000000000000000230000000000004370630000000000000009999123100000010000000000000BRSCHWBDR006118
012020090302SEER3       010SER EDUCA   ON      NM   R$  000000000154100000000015670000000001518000000000154700000000015600000000001555000000000156006977000000000001467400000000002270349700000000000000009999123100000010000000000000BRSEERACNOR5115
012020090302SGPS3       010SPRINGS     ON      NM   R$  000000000076300000000007650000000000713000000000073600000000007170000000000716000000000072200390000000000000165200000000000121688500000000000000009999123100000010000000000000BRSGPSACNOR4104
012020090302SHOW3       010TIME FOR FUNON      NM   R$  000000000029400000000002970000000000274000000000028300000000002750000000000275000000000027701431000000000001296700000000000368260100000000000000009999123100000010000000000000BRSHOWACNOR7105
012020090302SHUL4       010SCHULZ      PN           R$  000000000117700000000011860000000001144000000000116400000000011860000000001186000000000118900655000000000000196100000000000228404700000000000000009999123100000010000000000000BRSHULACNPR4136
012020090302SLCE3       010SLC AGRICOLAON      NM   R$  000000000255200000000025900000000002511000000000254100000000025200000000002520000000000252104618000000000000746500000000001897033100000000000000009999123100000010000000000000BRSLCEACNOR2115
012020090302SMLS3       010SMILES      ON      NM   R$  000000000150100000000015370000000001465000000000149400000000014850000000001483000000000148507031000000000002140300000000003198945500000000000000009999123100000010000000000000BRSMLSACNOR1109
012020090302SMTO3       010SAO MARTINHOON      NM   R$  000000000242300000000024410000000002326000000000237600000000023650000000002360000000000236506753000000000001345000000000003196899600000000000000009999123100000010000000000000BRSMTOACNOR3117
