00COTAHIST.2020BOVESPA 20200908                                                                                                                                                                                                                      
012020090802A1AP34      010ADVANCE AUTODRN          R$  000000002053200000000205320000000020532000000002053200000000205320000000000000000000000000000001000000000000001250000000000025665000000000000000009999123100000010000000000000BRA1APBDR001102
012020090802A1BM34      010ABIOMED INC DRN          R$  000000003618300000000361830000000035789000000003582300000000359960000000000000000000000000000006000000000000000350000000000012538370000000000000009999123100000010000000000000BRA1BMBDR006100
012020090802A1DI34      010ANALOG DEVICDRN ED       R$  000000003092700000000309270000000030435000000003088100000000304350000000000000000000000000000005000000000000001190000000000036749210000000000000009999123100000010000000000000BRA1DIBDR000103
012020090802A1DM34      010ARCHER DANIEDRN          R$  000000002477500000000247750000000024599000000002468700000000245990000000000000000000002574900002000000000000000020000000000000493740000000000000009999123100000010000000000000BRA1DMBDR002103
012020090802A1EP34      010AMERICAN ELEDRN          R$  000000002101700000000210170000000021017000000002101700000000210170000000000000000000000000000001000000000000000050000000000001050850000000000000009999123100000010000000000000BRA1EPBDR003103
012020090802A1KA34      010AKAMAI TECHNDRN          R$  000000002802100000000280210000000028021000000002802100000000280210000000000000000000000000000001000000000000001200000000000033625200000000000000009999123100000010000000000000BRA1KABDR002100
012020090802A1LK34      010ALASKA AIR GDRN          R$  000000002238000000000223800000000022380000000002238000000000223800000000000000000000000000000001000000000000000010000000000000223800000000000000009999123100000010000000000000BRA1LKBDR009101
012020090802A1LX34      010ALEXION PHARDRN          R$  000000002981000000000298100000000029348000000002946600000000293480000000000000000000000000000002000000000000001170000000000034475760000000000000009999123100000010000000000000BRA1LXBDR002100
012020090802A1MD34      010ADVANCED MICDRN          R$  000000004218800000000433800000000042188000000004311300000000425420000000000000000000005250000015000000000000004600000000000198320460000000000000009999123100000010000000000000BRA1MDBDR002100
012020090802A1MT34      010APPLIED MATEDRN          R$  000000003066100000000306610000000029763000000003023000000000297630000000000000000000000000000012000000000000002170000000000065600140000000000000009999123100000010000000000000BRA1MTBDR008103
012020090802A1PA34      010APACHE CORP DRN          R$  000000000754600000000075460000000007065000000000720500000000070650000000000000000000000000000013000000000000003430000000000024715870000000000000009999123100000010000000000000BRA1PABDR001103
012020090802A1UT34      010AUTODESK INCDRN          R$  000000003090000000000309000000000030354000000003044400000000304560000000000000000000000000000004000000000000000240000000000007306780000000000000009999123100000010000000000000BRA1UTBDR001100
012020090802AALL34      010AMERICAN AIRDRN          R$  000000000722000000000074500000000007220000000000737300000000073790000000007378000000000750000016000000000000006900000000000050879040000000000000009999123100000010000000000000BRAALLBDR003115
012020090802AALR3       010ALLIAR      ON      NM   R$  000000000125900000000012870000000001231000000000126500000000012570000000001257000000000125902037000000000000584000000000000738833200000000000000009999123100000010000000000000BRAALRACNOR6102
012020090802AAPL34      010APPLE       DRN EB       R$  000000000625000000000063770000000006069000000000620300000000061000000000006100000000000619901076000000000000623910000000003870586630000000000000009999123100000010000000000000BRAAPLBDR004135
012020090802ABBV34      010ABBVIE      DRN          R$  000000004808700000000484490000000048064000000004810000000000482070000000000000000000000000000005000000000000002230000000000107263050000000000000009999123100000010000000000000BRABBVBDR001118
012020090802ABCB4       010ABC BRASIL  PN      N2   R$  000000000139000000000013900000000001362000000000137700000000013750000000001375000000000138402595000000000000419300000000000577573300000000000000009999123100000010000000000000BRABCBACNPR4134
012020090802ABEV3       010AMBEV S/A   ON           R$  000000000125500000000012550000000001232000000000123900000000012350000000001235000000000123624918000000000020712000000000025680960400000000000000009999123100000010000000000000BRABEVACNOR1122
012020090802ABTT34      010ABBOTT      DRN          R$  000000001379000000000138800000000013764000000001379500000000137640000000000000000000001799500007000000000000010950000000000151065620000000000000009999123100000010000000000000BRABTTBDR007135
012020090802ABUD34      010AB INBEV    DRN          R$  000000003005700000000300570000000029807000000003002400000000298070000000000000000000000000000003000000000000003250000000000097578750000000000000009999123100000010000000000000BRABUDBDR009102
012020090802ACNB34      010ACCENTURE   DRN          R$  000000012500000000001259990000000124683000000012486700000001246830000000000000000000000000000006000000000000001010000000000126115710000000000000009999123100000010000000000000BRACNBBDR006112
012020090802ADBE34      010ADOBE INC   DRN          R$  000000005120000000000512000000000049966000000005067400000000499660000000000000000000000000000009000000000000005000000000000253373670000000000000009999123100000010000000000000BRADBEBDR003100
012020090802ADHM3       010ADVANCED-DH ON           R$  000000000021200000000002150000000000211000000000021100000000002120000000000212000000000021400022000000000000004400000000000000931500000000000000009999123100000010000000000000BRADHMACNOR9102
012020090802ADPR34      010AUTOMATIC DTDRN          R$  000000003679700000000368450000000036366000000003649100000000363660000000030825000000000000000007000000000000001350000000000049264030000000000000009999123100000010000000000000BRADPRBDR005104
012020090802AFLT3       010AFLUENTE T  ON           R$  000000000107100000000010710000000001020000000000104600000000010210000000001020000000000106000005000000000000000500000000000000523100000000000000009999123100000010000000000000BRAFLTACNOR1115
012020090802AGRO3       010BRASILAGRO  ON      NM   R$  000000000210000000000021300000000002078000000000209600000000021020000000002099000000000210200527000000000000101300000000000212415500000000000000009999123100000010000000000000BRAGROACNOR7109
012020090802AHEB3       010SPTURIS     ON           R$  000000000240000000000025900000000002300000000000244000000000023900000000002390000000000248900032000000000000004500000000000010980700000000000000009999123100000010000000000000BRAHEBACNOR0106
012020090802ALPA3       010ALPARGATAS  ON      N1   R$  000000000339000000000034000000000003290000000000332700000000033510000000003351000000000338800017000000000000004200000000000013976100000000000000009999123100000010000000000000BRALPAACNOR0229
012020090802ALPA4       010ALPARGATAS  PN      N1   R$  000000000368300000000037940000000003665000000000373800000000037190000000003718000000000372904750000000000000945500000000003534589900000000000000009999123100000010000000000000BRALPAACNPR7229
012020090802ALPK3       010ESTAPAR     ON      NM   R$  000000000095000000000009550000000000930000000000094500000000009300000000000929000000000093000092000000000000022100000000000020886400000000000000009999123100000010000000000000BRALPKACNOR9100
012020090802ALSO3       010ALIANSCSONAEON      NM   R$  000000000270100000000028500000000002677000000000280000000000028420000000002831000000000284206225000000000001335200000000003739426200000000000000009999123100000010000000000000BRALSOACNOR5100
012020090802ALUP3       010ALUPAR      ON      N2   R$  000000000094900000000009670000000000949000000000095900000000009590000000000955000000000096000054000000000000005400000000000005182200000000000000009999123100000010000000000000BRALUPACNOR8111
012020090802ALUP4       010ALUPAR      PN      N2   R$  000000000070500000000007190000000000694000000000070900000000007180000000000714000000000071900092000000000000013900000000000009857500000000000000009999123100000010000000000000BRALUPACNPR5111
012020090802ALUP11      010ALUPAR      UNT     N2   R$  000000000235300000000024110000000002350000000000239100000000023990000000002393000000000239902957000000000000684600000000001637387600000000000000009999123100000010000000000000BRALUPCDAM15111
012020090802AMAR3       010LOJAS MARISAON      NM   R$  000000000082600000000008440000000000818000000000082700000000008210000000000821000000000082311658000000000004491900000000003717864300000000000000009999123100000010000000000000BRAMARACNOR4112
012020090802AMBP3       010AMBIPAR     ON      NM   R$  000000000315500000000031740000000003115000000000315700000000031500000000003149000000000315001737000000000001022100000000003226938100000000000000009999123100000010000000000000BRAMBPACNOR6100
012020090802AMGN34      010AMGEN       DRN          R$  000000013240100000001324010000000129113000000012943600000001292010000000000000000000000000000008000000000000001450000000000187682840000000000000009999123100000010000000000000BRAMGNBDR004135
012020090802AMZO34      010AMAZON      DRN          R$  000000086000000000008630000000000843979000000085642000000008470450000000720000000000087250000069000000000000002780000000002380848210000000000000009999123100000010000000000000BRAMZOBDR002101
012020090802ANIM3       010ANIMA       ON      NM   R$  000000000308800000000031660000000002950000000000311200000000030990000000003099000000000312504109000000000000734500000000002285861400000000000000009999123100000010000000000000BRANIMACNOR6106
012020090802APER3       010ALPER S.A.  ON      NM   R$  000000000299800000000029980000000002899000000000296000000000029890000000002900000000000298900082000000000000018300000000000054185900000000000000009999123100000010000000000000BRAPERACNOR9102
012020090802APTV34      010APTIV PLC   DRN          R$  000000002291100000000229110000000022911000000002291100000000229110000000000000000000000000000001000000000000000720000000000016495920000000000000009999123100000010000000000000BRAPTVBDR003102
012020090802ARZZ3       010AREZZO CO   ON      NM   R$  000000000580500000000059590000000005792000000000588100000000058620000000005848000000000586201692000000000000237100000000001394451100000000000000009999123100000010000000000000BRARZZACNOR3137
012020090802ASML34      010ASML HOLD   DRN          R$  000000018656700000001871140000000186567000000018659500000001871140000000000000000000000000000002000000000000000580000000000108225270000000000000009999123100000010000000000000BRASMLBDR003102
012020090802ATOM3       010ATOMPAR     ON           R$  000000000031200000000003130000000000300000000000030400000000003030000000000303000000000030600150000000000000053500000000000016281100000000000000009999123100000010000000000000BRATOMACNOR1103
012020090802ATTB34      010ATT INC     DRN          R$  000000001569200000000158620000000015692000000001569400000000158620000000015500000000001586200006000000000000013700000000000215017160000000000000009999123100000010000000000000BRATTBBDR007132
012020090802ATVI34      010ACTIVISION  DRN          R$  000000004130000000000413000000000040884000000004105700000000408840000000040000000000000000000005000000000000001110000000000045574000000000000000009999123100000010000000000000BRATVIBDR008101
012020090802AURA32      010AURA 360    DR2          R$  000000000672600000000067260000000006471000000000657800000000066350000000006635000000000663900248000000000000056700000000000373027800000000000000009999123100000010000000000000BRAURABDR001102
012020090802AVGO34      010BROADCOM INCDRN          R$  000000003794200000000379710000000037942000000003794300000000379560000000000000000000000000000003000000000000005810000000000220454080000000000000009999123100000010000000000000BRAVGOBDR003105
012020090802AXPB34      010AMERICAN EXPDRN          R$  000000005582100000000560550000000055581000000005581200000000555810000000047700000000000000000005000000000000002970000000000165763210000000000000009999123100000010000000000000BRAXPBBDR007133
012020090802AZEV3       010AZEVEDO     ON           R$  000000000101600000000010790000000001016000000000104800000000010790000000001021000000000107900006000000000000000900000000000000943900000000000000009999123100000010000000000000BRAZEVACNOR0117
012020090802AZEV4       010AZEVEDO     PN           R$  000000000037000000000003800000000000350000000000035800000000003600000000000359000000000036500062000000000000026100000000000009345100000000000000009999123100000010000000000000BRAZEVACNPR7117
012020090802AZUL4       010AZUL        PN      N2   R$  000000000243500000000026500000000002410000000000259000000000026260000000002625000000000262652867000000000023371200000000060538470700000000000000009999123100000010000000000000BRAZULACNPR4100
012020090802B1BT34      010TRUIST FINANDRN          R$  000000002021000000000204130000000020210000000002029100000000204130000000000000000000000000000004000000000000000180000000000003652470000000000000009999123100000010000000000000BRB1BTBDR000103
012020090802B1DX34      010BECTON DICKIDRN ED       R$  000000002508000000000251410000000025050000000002511900000000251410000000000000000000000000000006000000000000000830000000000020849370000000000000009999123100000010000000000000BRB1DXBDR008103
012020090802B1MR34      010BIOMARIN PHADRN          R$  000000002003500000000200350000000020035000000002003500000000200350000000016720000000000000000001000000000000002430000000000048685050000000000000009999123100000010000000000000BRB1MRBDR001100
012020090802B1SX34      010BOSTON SCIENDRN          R$  000000002192300000000220770000000021893000000002192700000000218930000000000000000000000000000005000000000000003830000000000083982450000000000000009999123100000010000000000000BRB1SXBDR006100
012020090802B3SA3       010B3          ON      NM   R$  000000000571100000000058110000000005641000000000572100000000057040000000005704000000000570536534000000000009902000000000056656668200000000000000009999123100000010000000000000BRB3SAACNOR6111
012020090802BABA34      010ALIBABAGR   DRN          R$  000000014600000000001502030000000144400000000014564400000001502030000000145093000000015020400051000000000000007680000000001118547460000000000000009999123100000010000000000000BRBABABDR005100
012020090802BAHI3       010BAHEMA      ON      MA   R$  000000001280000000000128000000000012350000000001255600000000124000000000011860000000001269500008000000000000000800000000000010044900000000000000009999123100000010000000000000BRBAHIACNOR1071
012020090802BALM3       010BAUMER      ON           R$  000000000175000000000018470000000001640000000000171600000000016400000000001635000000000185000022000000000000005300000000000009099900000000000000009999123100000010000000000000BRBALMACNOR5050
012020090802BAUH4       010EXCELSIOR   PN           R$  000000000899900000000089990000000008550000000000880400000000089990000000008500000000000900000021000000000000002300000000000020249300000000000000009999123100000010000000000000BRBAUHACNPR3115
012020090802BAZA3       010AMAZONIA    ON           R$  000000000410000000000041000000000003950000000000400800000000040020000000003998000000000403900021000000000000002500000000000010020700000000000000009999123100000010000000000000BRBAZAACNOR0174
012020090802BBAS3       010BRASIL      ON      NM   R$  000000000335400000000033690000000003307000000000333300000000033260000000003326000000000332834966000000000013460400000000044866021100000000000000009999123100000010000000000000BRBBASACNOR3292
012020090802BBDC3       010BRADESCO    ON  EJ  N1   R$  000000000200600000000020130000000001975000000000199200000000019930000000001993000000000199414766000000000021204900000000042253198900000000000000009999123100000010000000000000BRBBDCACNOR1715
012020090802BBDC4       010BRADESCO    PN  EJ  N1   R$  000000000216700000000021830000000002150000000000216300000000021620000000002160000000000216245142000000000027961300000000060504535800000000000000009999123100000010000000000000BRBBDCACNPR8715
012020090802BBRK3       010BR BROKERS  ON      NM   R$  000000000017400000000001760000000000169000000000017100000000001710000000000171000000000017200816000000000000543400000000000093324100000000000000009999123100000010000000000000BRBBRKACNOR4113
012020090802BBSE3       010BBSEGURIDADEON      NM   R$  000000000267000000000026940000000002641000000000266000000000026580000000002658000000000265918135000000000003396700000000009037054600000000000000009999123100000010000000000000BRBBSEACNOR5117
012020090802BCSA34      010SANTANDER   DRN          R$  000000000120100000000012010000000001170000000000117600000000011770000000001171000000000117700028000000000000085840000000000100980320000000000000009999123100000010000000000000BRBCSABDR005101
012020090802BEEF3       010MINERVA     ON      NM   R$  000000000125800000000012670000000001243000000000125400000000012560000000001255000000000125611683000000000003972400000000004982026300000000000000009999123100000010000000000000BRBEEFACNOR6108
012020090802BEES3       010BANESTES    ON  EJ       R$  000000000054000000000005400000000000530000000000053600000000005370000000000537000000000053800147000000000000032200000000000017264100000000000000009999123100000010000000000000BRBEESACNOR9339
012020090802BEES4       010BANESTES    PN  EJ       R$  000000000057200000000005720000000000566000000000056700000000005690000000000569000000000057000017000000000000002700000000000001533200000000000000009999123100000010000000000000BRBEESACNPR6264
012020090802BERK34      010BERKSHIRE   DRN          R$  000000011628400000001172790000000116100000000011627100000001172790000000115000000000011600000025000000000000002510000000000291840710000000000000009999123100000010000000000000BRBERKBDR002100
012020090802BGIP3       010BANESE      ON           R$  000000000441500000000046500000000004415000000000455600000000045100000000004305000000000466800008000000000000000800000000000003644800000000000000009999123100000010000000000000BRBGIPACNOR1199
012020090802BGIP4       010BANESE      PN           R$  000000000269100000000026910000000002676000000000268600000000026760000000002600000000000269800003000000000000000300000000000000805800000000000000009999123100000010000000000000BRBGIPACNPR8199
012020090802BHPG34      010BHP GROUP   DRN ED       R$  000000002849700000000285000000000028497000000002849700000000285000000000000000000000000000000002000000000000003980000000000113418390000000000000009999123100000010000000000000BRBHPGBDR007102
012020090802BIDI3       010BANCO INTER ON      N2   R$  000000000188100000000018900000000001761000000000180400000000018140000000001780000000000181404083000000000000734800000000001325816100000000000000009999123100000010000000000000BRBIDIACNOR3107
012020090802BIDI4       010BANCO INTER PN      N2   R$  000000000210500000000021220000000001984000000000204000000000020350000000002034000000000203513089000000000003549100000000007241771500000000000000009999123100000010000000000000BRBIDIACNPR0111
012020090802BIDI11      010BANCO INTER UNT     N2   R$  000000000605300000000061290000000005680000000000584000000000057980000000005785000000000579909318000000000001773000000000010354614200000000000000009999123100000010000000000000BRBIDICDAXX3106
012020090802BIDU34      010BAIDU INC   DRN          R$  000000006305400000000630540000000063054000000006305400000000630540000000000000000000000000000004000000000000000100000000000006305400000000000000009999123100000010000000000000BRBIDUBDR002100
012020090802BIIB34      010BIOGEN      DRN          R$  000000002391300000000241350000000023913000000002391500000000239720000000000000000000000000000003000000000000003520000000000084181290000000000000009999123100000010000000000000BRBIIBBDR001101
012020090802BILB34      010BILBAOVIZ   DRN          R$  000000000157500000000015750000000001559000000000156700000000015590000000000000000000000000000002000000000000000060000000000000094020000000000000009999123100000010000000000000BRBILBBDR005101
012020090802BIOM3       010BIOMM       ON      MA   R$  000000000158900000000016200000000001580000000000160200000000016000000000001600000000000161000064000000000000027000000000000043271300000000000000009999123100000010000000000000BRBIOMACNOR2107
012020090802BKBR3       010BK BRASIL   ON      NM   R$  000000000112300000000011660000000001114000000000115000000000011470000000001147000000000115004147000000000000913700000000001051327300000000000000009999123100000010000000000000BRBKBRACNOR4103
012020090802BKNG34      010BOOKING     DRN          R$  000000004135500000000413550000000040620000000004087600000000406200000000040020000000005000000009000000000000003280000000000134073560000000000000009999123100000010000000000000BRBKNGBDR006100
012020090802BLAK34      010BLACKROCK   DRN ED       R$  000000004939700000000497160000000049121000000004941200000000491210000000000000000000000000000005000000000000002860000000000141319040000000000000009999123100000010000000000000BRBLAKBDR003118
012020090802BMEB3       010MERC BRASIL ON           R$  000000000156000000000015600000000001560000000000156000000000015600000000001280000000000165000001000000000000000100000000000000156000000000000000009999123100000010000000000000BRBMEBACNOR8196
012020090802BMEB4       010MERC BRASIL PN           R$  000000000156600000000015660000000001450000000000151700000000015420000000001525000000000153900026000000000000003400000000000005160000000000000000009999123100000010000000000000BRBMEBACNPR5201
012020090802BMGB4       010BANCO BMG   PN      N1   R$  000000000053300000000005350000000000520000000000052500000000005230000000000523000000000052603832000000000001298300000000000682114800000000000000009999123100000010000000000000BRBMGBACNPR0101
012020090802BMIN3       010MERC INVEST ON           R$  000000000219900000000021990000000002050000000000210500000000020550000000002051000000000219900026000000000000003000000000000006316600000000000000009999123100000010000000000000BRBMINACNOR4168
012020090802BMIN4       010MERC INVEST PN           R$  000000000205000000000020500000000001900000000000197400000000019310000000001905000000000204900009000000000000000900000000000001776700000000000000009999123100000010000000000000BRBMINACNPR1171
012020090802BMKS3       010BIC MONARK  ON           R$  000000002330000000000233000000000023300000000002330000000000233000000000021625000000002300000001000000000000000001000000000000023300000000000000009999123100000010000000000000BRBMKSACNOR9162
012020090802BMYB34      010BRISTOLMYERSDRN          R$  000000003147000000000314700000000031143000000003120100000000311430000000028400000000000000000004000000000000006390000000000199377050000000000000009999123100000010000000000000BRBMYBBDR000127
012020090802BNBR3       010NORD BRASIL ON           R$  000000000828000000000082800000000007850000000000801800000000079710000000007961000000000837000007000000000000000700000000000005613100000000000000009999123100000010000000000000BRBNBRACNOR8200
012020090802BOAC34      010BANK AMERICADRN ED       R$  000000001409900000000140990000000013666000000001370000000000137490000000013595000000001374900014000000000000019210000000000263189370000000000000009999123100000010000000000000BRBOACBDR004140
012020090802BOBR4       010BOMBRIL     PN           R$  000000000020200000000002040000000000194000000000019800000000001980000000000198000000000019900184000000000000085100000000000016901400000000000000009999123100000010000000000000BRBOBRACNPR3128
012020090802BOEI34      010BOEING      DRN          R$  000000008750000000000879980000000086500000000008741000000000865000000000085000000000010850000012000000000000002250000000000196672700000000000000009999123100000010000000000000BRBOEIBDR003132
012020090802BONY34      010BNY MELLON  DRN          R$  000000001933800000000193380000000019338000000001933800000000193380000000019000000000000000000001000000000000000060000000000001160280000000000000009999123100000010000000000000BRBONYBDR001120
012020090802BOXP34      010BOSTON PROP DRN          R$  000000000470900000000047090000000004709000000000470900000000047090000000000000000000000592000001000000000000000200000000000000941800000000000000009999123100000010000000000000BRBOXPBDR008120
012020090802BPAC3       010BTGP BANCO  ON      N2   R$  000000000469800000000046980000000004552000000000456600000000045550000000004555000000000465000044000000000000006100000000000027856400000000000000009999123100000010000000000000BRBPACACNOR7122
012020090802BPAC5       010BTGP BANCO  PNA     N2   R$  000000000174000000000017400000000001713000000000173300000000017390000000001725000000000173900011000000000000001300000000000002253000000000000000009999123100000010000000000000BRBPACACNPA0122
012020090802BPAC11      010BTGP BANCO  UNT     N2   R$  000000000781500000000079130000000007719000000000782000000000078030000000007803000000000781316334000000000003544800000000027723737700000000000000009999123100000010000000000000BRBPACUNT006107
012020090802BPAN4       010BANCO PAN   PN      N1   R$  000000000091700000000009340000000000899000000000091300000000009150000000000915000000000091609753000000000003527600000000003221464900000000000000009999123100000010000000000000BRBPANACNPR1109
012020090802BRAP3       010BRADESPAR   ON      N1   R$  000000000386800000000038680000000003801000000000383000000000038290000000003810000000000390000077000000000000708500000000002713579700000000000000009999123100000010000000000000BRBRAPACNOR5136
012020090802BRAP4       010BRADESPAR   PN      N1   R$  000000000436400000000043850000000004325000000000435400000000043530000000004353000000000435708775000000000001543000000000006718347300000000000000009999123100000010000000000000BRBRAPACNPR2136
012020090802BRDT3       010PETROBRAS BRON      NM   R$  000000000218800000000023000000000002185000000000226900000000022970000000002296000000000229733807000000000010093300000000022902567200000000000000009999123100000010000000000000BRBRDTACNOR1120
012020090802BRFS3       010BRF SA      ON      NM   R$  000000000196200000000020320000000001954000000000199200000000019850000000001982000000000198518012000000000008628100000000017187710500000000000000009999123100000010000000000000BRBRFSACNOR8119
012020090802BRGE3       010ALFA CONSORCON           R$  000000000094000000000009400000000000940000000000094000000000009400000000000850000000000094000001000000000000000200000000000000188000000000000000009999123100000010000000000000BRBRGEACNOR6202
012020090802BRGE12      010ALFA CONSORCPNF          R$  000000000060000000000006150000000000581000000000059600000000006150000000000521000000000061500015000000000000005100000000000003039800000000000000009999123100000010000000000000BRBRGEACNPF8096
012020090802BRIV4       010ALFA INVEST PN           R$  000000000073200000000007320000000000732000000000073200000000007320000000000732000000000074000002000000000000000700000000000000512400000000000000009999123100000010000000000000BRBRIVACNPR3211
012020090802BRKM3       010BRASKEM     ON      N1   R$  000000000224800000000022570000000002218000000000224100000000022500000000002230000000000224900047000000000000007600000000000017034400000000000000009999123100000010000000000000BRBRKMACNOR1117
012020090802BRKM5       010BRASKEM     PNA     N1   R$  000000000215300000000022550000000002153000000000222400000000022200000000002220000000000222309360000000000002575300000000005729169300000000000000009999123100000010000000000000BRBRKMACNPA4117
012020090802BRML3       010BR MALLS PARON      NM   R$  000000000093000000000009940000000000927000000000097200000000009860000000000986000000000098753851000000000028094600000000027314021000000000000000009999123100000010000000000000BRBRMLACNOR9115
012020090802BRPR3       010BR PROPERT  ON      NM   R$  000000000092000000000009600000000000918000000000094900000000009550000000000953000000000095507901000000000002269100000000002155024400000000000000009999123100000010000000000000BRBRPRACNOR9119
012020090802BRSR3       010BANRISUL    ON      N1   R$  000000000146600000000015090000000001466000000000149500000000014930000000001493000000000150500030000000000000006100000000000009123900000000000000009999123100000010000000000000BRBRSRACNOR3168
012020090802BRSR6       010BANRISUL    PNB     N1   R$  000000000136000000000013710000000001341000000000135500000000013520000000001352000000000135309913000000000002466300000000003344044700000000000000009999123100000010000000000000BRBRSRACNPB4171
012020090802BSEV3       010BIOSEV      ON      NM   R$  000000000043400000000004460000000000418000000000043100000000004230000000000425000000000042600145000000000000087400000000000037673300000000000000009999123100000010000000000000BRBSEVACNOR3102
012020090802BTOW3       010B2W DIGITAL ON      NM   R$  000000000987000000000102640000000009765000000001003900000000099360000000009936000000000995017054000000000003066500000000030785885300000000000000009999123100000010000000000000BRBTOWACNOR8111
012020090802BTTL3       010BATTISTELLA ON           R$  000000000122000000000013280000000001220000000000126500000000012890000000001247000000000127800039000000000000007000000000000008857800000000000000009999123100000010000000000000BRBTTLACNOR0108
012020090802C1CI34      010CROWN CASTLEDRN          R$  000000002155600000000215560000000021407000000002147200000000214070000000000000000000000000000004000000000000000530000000000011380250000000000000009999123100000010000000000000BRC1CIBDR000102
012020090802C1CL34      010CARNIVAL CORDRN          R$  000000000962000000000100610000000009620000000000987400000000099200000000000000000000001300000047000000000000009750000000000096275020000000000000009999123100000010000000000000BRC1CLBDR004101
012020090802C1HR34      010CH ROBINSON DRN ED       R$  000000002583500000000258350000000025835000000002583500000000258350000000000000000000000000000001000000000000001050000000000027126750000000000000009999123100000010000000000000BRC1HRBDR000103
012020090802C1IC34      010CIGNA CORP  DRN          R$  000000002355000000000235500000000023313000000002346300000000234160000000000000000000000000000003000000000000000120000000000002815590000000000000009999123100000010000000000000BRC1ICBDR000101
012020090802C1TX34      010CITRIX SYSTEDRN          R$  000000003594200000000359420000000035942000000003594200000000359420000000000000000000000000000001000000000000000080000000000002875360000000000000009999123100000010000000000000BRC1TXBDR003102
012020090802CAMB3       010CAMBUCI     ON           R$  000000000040100000000004270000000000401000000000041300000000004180000000000414000000000041900072000000000000021200000000000008771500000000000000009999123100000010000000000000BRCAMBACNOR4119
012020090802CAML3       010CAMIL       ON  EJ  NM   R$  000000000130800000000013250000000001293000000000131800000000013250000000001322000000000132505194000000000001361600000000001794965200000000000000009999123100000010000000000000BRCAMLACNOR3111
012020090802CAPH34      010CAPRI HOLDI DRN          R$  000000000920600000000092060000000009206000000000920600000000092060000000000000000000000000000003000000000000000300000000000002761800000000000000009999123100000010000000000000BRCAPHBDR008100
012020090802CARD3       010CSU CARDSYSTON      NM   R$  000000000160900000000016180000000001550000000000158200000000015500000000001550000000000156300783000000000000197900000000000313185500000000000000009999123100000010000000000000BRCARDACNOR9118
012020090802CATP34      010CATERPILLAR DRN          R$  000000007930000000000803400000000079300000000007958100000000801010000000000000000000000000000004000000000000001800000000000143245800000000000000009999123100000010000000000000BRCATPBDR003136
012020090802CBEE3       010AMPLA ENERG ON           R$  000000000178500000000017850000000001785000000000178500000000017850000000001605000000000178500001000000000000000100000000000000178500000000000000009999123100000010000000000000BRCBEEACNOR3155
012020090802CCPR3       010CYRE COM-CCPON      NM   R$  000000000149300000000015150000000001455000000000149700000000014990000000001494000000000149901466000000000000279800000000000419091100000000000000009999123100000010000000000000BRCCPRACNOR9114
012020090802CCRO3       010CCR SA      ON      NM   R$  000000000141100000000014710000000001411000000000144700000000014510000000001448000000000145122161000000000008525000000000012339291300000000000000009999123100000010000000000000BRCCROACNOR2137
012020090802CEAB3       010CEA MODAS   ON      NM   R$  000000000127000000000012800000000001236000000000126600000000012670000000001265000000000126704832000000000001282000000000001623117500000000000000009999123100000010000000000000BRCEABACNOR1101
012020090802CEBR3       010CEB         ON           R$  000000000623900000000064500000000006101000000000627700000000061510000000006151000000000635000023000000000000002900000000000018204300000000000000009999123100000010000000000000BRCEBRACNOR5118
012020090802CEDO3       010CEDRO       ON      N1   R$  000000000109700000000010970000000001065000000000107400000000010800000000001011000000000108500006000000000000000900000000000000966700000000000000009999123100000010000000000000BRCEDOACNOR8096
012020090802CEDO4       010CEDRO       PN      N1   R$  000000000054000000000005590000000000540000000000054400000000005430000000000543000000000058900013000000000000002100000000000001144100000000000000009999123100000010000000000000BRCEDOACNPR5128
012020090802CEEB3       010COELBA      ON           R$  000000000419000000000041900000000003850000000000400700000000038500000000003825000000000413000046000000000000004800000000000019234600000000000000009999123100000010000000000000BRCEEBACNOR3179
012020090802CEED3       010CEEE-D      ON      N1   R$  000000000560000000000064000000000005600000000000609000000000060500000000005700000000000610000013000000000000001300000000000007917100000000000000009999123100000010000000000000BRCEEDACNOR9102
012020090802CESP3       010CESP        ON      N1   R$  000000000334500000000033470000000003302000000000331800000000033200000000003320000000000334800034000000000000007300000000000024221700000000000000009999123100000010000000000000BRCESPACNOR3169
012020090802CESP6       010CESP        PNB     N1   R$  000000000296600000000029820000000002928000000000294500000000029490000000002949000000000295709012000000000002644300000000007788204500000000000000009999123100000010000000000000BRCESPACNPB4128
012020090802CGAS5       010COMGAS      PNA          R$  000000001870000000000194710000000018700000000001917900000000194710000000019175000000001947100015000000000000004200000000000080555100000000000000009999123100000010000000000000BRCGASACNPA3148
012020090802CGRA3       010GRAZZIOTIN  ON           R$  000000000265800000000027090000000002630000000000267500000000026300000000002603000000000263000010000000000000001800000000000004816700000000000000009999123100000010000000000000BRCGRAACNOR2071
012020090802CGRA4       010GRAZZIOTIN  PN           R$  000000000266500000000027000000000002585000000000264900000000025900000000002590000000000263900161000000000000027200000000000072060800000000000000009999123100000010000000000000BRCGRAACNPR9071
012020090802CHCM34      010CHARTER COMMDRN          R$  000000006379600000000645200000000063791000000006379800000000637910000000000000000000000000000004000000000000003060000000000195223660000000000000009999123100000010000000000000BRCHCMBDR001100
012020090802CHME34      010CME GROUP   DRN          R$  000000002250000000000226500000000022140000000002216200000000222730000000000000000000000000000006000000000000004040000000000089535100000000000000009999123100000010000000000000BRCHMEBDR007105
012020090802CHVX34      010CHEVRON     DRN          R$  000000002100000000000213590000000021000000000002105300000000212260000000000000000000002122600012000000000000011650000000000245275490000000000000009999123100000010000000000000BRCHVXBDR008138
012020090802CIEL3       010CIELO       ON      NM   R$  000000000046000000000004760000000000458000000000046800000000004700000000000470000000000047115707000000000028027200000000013142844500000000000000009999123100000010000000000000BRCIELACNOR3142
012020090802CLSC3       010CELESC      ON      N2   R$  000000000638900000000063900000000005811000000000614300000000058110000000003800000000000630000030000000000000003400000000000020889100000000000000009999123100000010000000000000BRCLSCACNOR6136
012020090802CLSC4       010CELESC      PN      N2   R$  000000000556400000000057000000000005564000000000568800000000057000000000005579000000000570000010000000000000002000000000000011376400000000000000009999123100000010000000000000BRCLSCACNPR3115
012020090802CLXC34      010CLOROX CO   DRN          R$  000000002798700000000279870000000027987000000002798700000000279870000000000000000000000000000001000000000000000010000000000000279870000000000000009999123100000010000000000000BRCLXCBDR000104
012020090802CMCS34      010COMCAST     DRN          R$  000000002323100000000235300000000023200000000002323100000000235300000000022000000000002353000010000000000000012700000000000295039270000000000000009999123100000010000000000000BRCMCSBDR008135
012020090802CMIG3       010CEMIG       ON      N1   R$  000000000110900000000011110000000001081000000000109100000000010950000000001095000000000109703459000000000001477600000000001612360700000000000000009999123100000010000000000000BRCMIGACNOR6224
012020090802CMIG4       010CEMIG       PN      N1   R$  000000000106600000000010780000000001057000000000106700000000010720000000001071000000000107217965000000000006800200000000007256929800000000000000009999123100000010000000000000BRCMIGACNPR3225
012020090802CNIC34      010CANAD NATIONDRN ED       R$  000000002743000000000274300000000027300000000002730300000000273090000000000000000000000000000003000000000000003880000000000105937990000000000000009999123100000010000000000000BRCNICBDR007105
012020090802CNTO3       010CENTAURO    ON      NM   R$  000000000305200000000031770000000002986000000000309500000000030790000000003079000000000308008539000000000001483700000000004593116700000000000000009999123100000010000000000000BRCNTOACNOR5100
012020090802COCA34      010COCA COLA   DRN          R$  000000002694200000000270500000000026583000000002665200000000270000000000026359000000002700000010000000000000009340000000000248934790000000000000009999123100000010000000000000BRCOCABDR002135
012020090802COCE3       010COELCE      ON           R$  000000000680000000000072000000000006800000000000700000000000072000000000006801000000000739800002000000000000000200000000000001400000000000000000009999123100000010000000000000BRCOCEACNOR0139
012020090802COCE5       010COELCE      PNA          R$  000000000600100000000061590000000005930000000000602300000000061590000000005997000000000615900131000000000000027500000000000165651400000000000000009999123100000010000000000000BRCOCEACNPA3140
012020090802COGN3       010COGNA ON    ON      NM   R$  000000000059500000000006270000000000586000000000061300000000006150000000000615000000000061651196000000000080244100000000049243819600000000000000009999123100000010000000000000BRCOGNACNOR2101
012020090802COLG34      010COLGATE     DRN          R$  000000004151900000000415190000000040627000000004068200000000406270000000000000000000000000000006000000000000002490000000000101300280000000000000009999123100000010000000000000BRCOLGBDR000137
012020090802COPH34      010COPHILLIPS  DRN          R$  000000000474900000000047490000000004574000000000459100000000045740000000004500000000000000000006000000000000014580000000000066943840000000000000009999123100000010000000000000BRCOPHBDR009135
012020090802COTY34      010COTY INC    DRN          R$  000000000103600000000010450000000001020000000000104100000000010200000000000958000000000105000006000000000000013090000000000013634100000000000000009999123100000010000000000000BRCOTYBDR006116
012020090802COWC34      010COSTCO      DRN          R$  000000004592900000000459600000000045370000000004572700000000457470000000000000000000000000000011000000000000005640000000000257900790000000000000009999123100000010000000000000BRCOWCBDR006119
012020090802CPFE3       010CPFL ENERGIAON      NM   R$  000000000293500000000029700000000002895000000000294000000000029520000000002952000000000295509167000000000002445500000000007190799000000000000000009999123100000010000000000000BRCPFEACNOR0130
012020090802CPLE3       010COPEL       ON      N1   R$  000000000616600000000062880000000006141000000000623700000000062700000000006270000000000627202298000000000000386100000000002408351700000000000000009999123100000010000000000000BRCPLEACNOR8139
012020090802CPLE6       010COPEL       PNB     N1   R$  000000000635000000000064640000000006291000000000639100000000064340000000006405000000000643405499000000000000829400000000005301176200000000000000009999123100000010000000000000BRCPLEACNPB9136
012020090802CRFB3       010CARREFOUR BRON      NM   R$  000000000203900000000020980000000002031000000000206400000000020770000000002069000000000207812788000000000005238800000000010814301200000000000000009999123100000010000000000000BRCRFBACNOR2107
012020090802CRIV3       010ALFA FINANC ON           R$  000000000054100000000005670000000000540000000000054900000000005670000000000545000000000056800003000000000000000300000000000000164800000000000000009999123100000010000000000000BRCRIVACNOR4194
012020090802CRIV4       010ALFA FINANC PN           R$  000000000062500000000006390000000000625000000000063200000000006390000000000625000000000063900002000000000000000200000000000000126400000000000000009999123100000010000000000000BRCRIVACNPR1204
012020090802CRPG5       010CRISTAL     PNA          R$  000000000209800000000020980000000002036000000000205200000000020490000000002043000000000205000027000000000000003700000000000007595900000000000000009999123100000010000000000000BRCRPGACNPA3108
012020090802CRPG6       010CRISTAL     PNB          R$  000000000206000000000020600000000002060000000000206000000000020600000000002001000000000207000001000000000000000100000000000000206000000000000000009999123100000010000000000000BRCRPGACNPB1108
012020090802CSAB3       010SEG AL BAHIAON           R$  000000000519500000000052890000000004700000000000504600000000049150000000004915000000000509900086000000000000008600000000000043398600000000000000009999123100000010000000000000BRCSABACNOR1058
012020090802CSAN3       010COSAN       ON      NM   R$  000000000755100000000076490000000007493000000000756600000000076020000000007602000000000760410279000000000001770700000000013398551800000000000000009999123100000010000000000000BRCSANACNOR6120
012020090802CSCO34      010CISCO       DRN          R$  000000002158000000000215800000000021580000000002158000000000215800000000000000000000000000000001000000000000006300000000000135954000000000000000009999123100000010000000000000BRCSCOBDR004138
012020090802CSMG3       010COPASA      ON      NM   R$  000000000483900000000049380000000004785000000000486800000000048960000000004896000000000490007428000000000001012500000000004929385300000000000000009999123100000010000000000000BRCSMGACNOR5156
012020090802CSNA3       010SID NACIONALON           R$  000000000146900000000015170000000001444000000000148500000000015060000000001504000000000150621287000000000013084200000000019430097700000000000000009999123100000010000000000000BRCSNAACNOR6252
012020090802CSXC34      010CSX CORP    DRN ED       R$  000000002019600000000204030000000020196000000002020500000000202100000000000000000000000000000006000000000000004460000000000090115320000000000000009999123100000010000000000000BRCSXCBDR005105
012020090802CTGP34      010CITIGROUP   DRN          R$  000000002742000000000275740000000027150000000002716200000000275740000000027000000000002757400007000000000000007690000000000208883450000000000000009999123100000010000000000000BRCTGPBDR000139
012020090802CTKA3       010KARSTEN     ON           R$  000000000155000000000015500000000001550000000000155000000000015500000000001550000000000159000003000000000000000300000000000000465000000000000000009999123100000010000000000000BRCTKAACNOR0043
012020090802CTKA4       010KARSTEN     PN           R$  000000000117100000000011970000000001162000000000117500000000011700000000001170000000000117900027000000000000004100000000000004821100000000000000009999123100000010000000000000BRCTKAACNPR7043
012020090802CTNM3       010COTEMINAS   ON           R$  000000000109500000000010950000000001086000000000109000000000010860000000001085000000000114300002000000000000000200000000000000218100000000000000009999123100000010000000000000BRCTNMACNOR9130
012020090802CTNM4       010COTEMINAS   PN           R$  000000000058900000000005950000000000585000000000059000000000005880000000000587000000000058800020000000000000005500000000000003250300000000000000009999123100000010000000000000BRCTNMACNPR6129
012020090802CTSA3       010SANTANENSE  ON           R$  000000000026300000000002630000000000251000000000025500000000002550000000000251000000000025500037000000000000007800000000000001990000000000000000009999123100000010000000000000BRCTSAACNOR3060
012020090802CTSA4       010SANTANENSE  PN           R$  000000000023000000000002300000000000223000000000022700000000002300000000000229000000000023000029000000000000007300000000000001659100000000000000009999123100000010000000000000BRCTSAACNPR0060
012020090802CTSH34      010COGNIZANT   DRN          R$  000000003521300000000352130000000035213000000003521300000000352130000000000000000000000000000001000000000000000030000000000001056390000000000000009999123100000010000000000000BRCTSHBDR002114
012020090802CVCB3       010CVC BRASIL  ON      NM   R$  000000000180400000000019000000000001768000000000184200000000018000000000001800000000000180920539000000000007380700000000013602066200000000000000009999123100000010000000000000BRCVCBACNOR1113
012020090802CVSH34      010CVS HEALTH  DRN          R$  000000001604200000000160500000000016042000000001604200000000160500000000000000000000001690000003000000000000007820000000000125450040000000000000009999123100000010000000000000BRCVSHBDR008117
012020090802CYRE3       010CYRELA REALTON      NM   R$  000000000235100000000024180000000002331000000000238300000000023950000000002395000000000239826467000000000006178900000000014727120600000000000000009999123100000010000000000000BRCYREACNOR7134
012020090802D1FS34      010DISCOVER FINDRN          R$  000000001506000000000150600000000015060000000001506000000000150600000000000000000000000000000001000000000000000010000000000000150600000000000000009999123100000010000000000000BRD1FSBDR001103
012020090802D1IS34      010DISH NETWORKDRN          R$  000000001782200000000178220000000017822000000001782200000000178220000000000000000000000000000002000000000000000400000000000007128800000000000000009999123100000010000000000000BRD1ISBDR005100
012020090802D1LR34      010DIGITAL REALDRN          R$  000000001926800000000192680000000019268000000001926800000000192680000000019090000000000000000003000000000000000500000000000009634000000000000000009999123100000010000000000000BRD1LRBDR001102
012020090802D1OM34      010DOMINION ENEDRN ED       R$  000000002079300000000209380000000020793000000002079500000000208750000000000000000000000000000003000000000000004420000000000091915530000000000000009999123100000010000000000000BRD1OMBDR006103
012020090802D1XC34      010DXC TECHNOLODRN          R$  000000001095600000000110110000000010956000000001098300000000110110000000000000000000000000000005000000000000000100000000000001098350000000000000009999123100000010000000000000BRD1XCBDR008101
012020090802DASA3       010DASA        ON           R$  000000000640000000000064000000000006400000000000640000000000064000000000005200000000000640000001000000000000000100000000000000640000000000000000009999123100000010000000000000BRDASAACNOR1119
012020090802DCVY35      010DISCOVERY INDRN C        R$  000000001109000000000110900000000011065000000001107800000000110650000000000000000000000000000004000000000000000190000000000002104850000000000000009999123100000010000000000000BRDCVYBDR013100
012020090802DDNB34      010DUPONT N INCDRN          R$  000000003053300000000306730000000030300000000003041600000000305010000000027100000000000000000015000000000000010440000000000317545990000000000000009999123100000010000000000000BRDDNBBDR008105
012020090802DEAI34      010DELTA       DRN          R$  000000001704000000000176220000000017040000000001758500000000176220000000011500000000002300000003000000000000003330000000000058559640000000000000009999123100000010000000000000BRDEAIBDR008116
012020090802DEEC34      010DEERE CO    DRN          R$  000000005624400000000564460000000056244000000005624900000000564460000000047500000000000000000002000000000000001560000000000087748720000000000000009999123100000010000000000000BRDEECBDR003105
012020090802DEOP34      010DIAGEO PL   DRN          R$  000000007238800000000723880000000071875000000007237500000000718750000000000000000000000000000002000000000000001590000000000115076400000000000000009999123100000010000000000000BRDEOPBDR004102
012020090802DGCO34      010DOLLAR GENERDRN          R$  000000005155200000000515910000000051552000000005155200000000515910000000000000000000000000000003000000000000002180000000000112384140000000000000009999123100000010000000000000BRDGCOBDR007105
012020090802DHER34      010DANAHER CORPDRN          R$  000000002606000000000260760000000026060000000002606000000000260760000000000000000000000000000002000000000000007560000000000197016640000000000000009999123100000010000000000000BRDHERBDR004121
012020090802DIRR3       010DIRECIONAL  ON      NM   R$  000000000151600000000015690000000001496000000000154200000000015610000000001558000000000156103791000000000001084100000000001671771500000000000000009999123100000010000000000000BRDIRRACNOR0112
012020090802DISB34      010WALT DISNEY DRN          R$  000000007049600000000731050000000070496000000007232600000000722740000000072100000000007299800028000000000000007710000000000557634060000000000000009999123100000010000000000000BRDISBBDR006114
012020090802DMMO3       010DOMMO       ON           R$  000000000012500000000001260000000000123000000000012300000000001240000000000124000000000012501326000000000001944100000000000240763500000000000000009999123100000010000000000000BRDMMOACNOR0102
012020090802DMVF3       010D1000VFARMA ON      NM   R$  000000000118500000000012000000000001180000000000119500000000011980000000001191000000000119800428000000000000163200000000000195156900000000000000009999123100000010000000000000BRDMVFACNOR9100
012020090802DOHL4       010DOHLER      PN           R$  000000000051000000000005110000000000510000000000051000000000005110000000000511000000000051500004000000000000001500000000000000765900000000000000009999123100000010000000000000BRDOHLACNPR9061
012020090802DTCY3       010DTCOM-DIRECTON           R$  000000000064700000000006510000000000647000000000064900000000006510000000000650000000000066000002000000000000000200000000000000129800000000000000009999123100000010000000000000BRDTCYACNOR5109
012020090802DTEX3       010DURATEX     ON      NM   R$  000000000169400000000017480000000001680000000000172100000000017240000000001724000000000172604699000000000001301900000000002241539600000000000000009999123100000010000000000000BRDTEXACNOR3128
012020090802DUKB34      010DUKE ENERGY DRN          R$  000000004276400000000433190000000042764000000004278100000000429420000000042902000000000000000004000000000000002000000000000085563860000000000000009999123100000010000000000000BRDUKBBDR008116
012020090802E1CL34      010ECOLAB INC  DRN          R$  000000002677000000000267700000000026577000000002658900000000267200000000000000000000000000000003000000000000001070000000000028450830000000000000009999123100000010000000000000BRE1CLBDR002102
012020090802E1WL34      010EDWARDS LIFEDRN          R$  000000001108000000000110800000000011032000000001106300000000110520000000000000000000001200000003000000000000000160000000000001770080000000000000009999123100000010000000000000BRE1WLBDR000101
012020090802E1XC34      010EXELON CORP DRN          R$  000000001948900000000194890000000019489000000001948900000000194890000000000000000000000000000001000000000000000050000000000000974450000000000000009999123100000010000000000000BRE1XCBDR007103
012020090802EAIN34      010ELECTR ARTS DRN          R$  000000003465000000000346500000000033000000000003330300000000335310000000032990000000000000000010000000000000002410000000000080261980000000000000009999123100000010000000000000BREAINBDR007100
012020090802EALT4       010ACO ALTONA  PN           R$  000000000055200000000005520000000000531000000000053800000000005310000000000531000000000053300114000000000000045800000000000024679600000000000000009999123100000010000000000000BREALTACNPR1133
012020090802EBAY34      010EBAY        DRN ED       R$  000000001391600000000139160000000013820000000001391300000000138390000000000000000000000000000003000000000000005840000000000081254070000000000000009999123100000010000000000000BREBAYBDR009108
012020090802ECOR3       010ECORODOVIAS ON      NM   R$  000000000133500000000013670000000001325000000000135100000000013620000000001355000000000136211018000000000003087100000000004171568500000000000000009999123100000010000000000000BRECORACNOR8116
012020090802EGIE3       010ENGIE BRASILON      NM   R$  000000000429300000000044400000000004288000000000439100000000044120000000004409000000000441209513000000000001455100000000006390478700000000000000009999123100000010000000000000BREGIEACNOR9113
012020090802ELCI34      010ESTEE LAUDERDRN ED       R$  000000005749900000000575850000000057499000000005750000000000575850000000000000000000000000000002000000000000001090000000000062675630000000000000009999123100000010000000000000BRELCIBDR007104
012020090802ELET3       010ELETROBRAS  ON      N1   R$  000000000359300000000036540000000003563000000000360800000000036370000000003635000000000363712447000000000002953000000000010654969700000000000000009999123100000010000000000000BRELETACNOR6155
012020090802ELET6       010ELETROBRAS  PNB     N1   R$  000000000365000000000037150000000003613000000000366500000000037050000000003705000000000370608463000000000001909200000000006998162100000000000000009999123100000010000000000000BRELETACNPB7072
012020090802EMAE4       010EMAE        PN           R$  000000000304600000000030850000000002950000000000301000000000030850000000003001000000000308500020000000000000003200000000000009634500000000000000009999123100000010000000000000BREMAEACNPR1114
012020090802EMBR3       010EMBRAER     ON      NM   R$  000000000073000000000007390000000000726000000000073100000000007360000000000735000000000073615113000000000009907000000000007249625900000000000000009999123100000010000000000000BREMBRACNOR4189
012020090802ENAT3       010ENAUTA PART ON      NM   R$  000000000112900000000011350000000001102000000000111000000000011080000000001108000000000111105588000000000001585200000000001760692000000000000000009999123100000010000000000000BRENATACNOR0101
012020090802ENBR3       010ENERGIAS BR ON      NM   R$  000000000188400000000018980000000001871000000000188300000000018810000000001881000000000188510962000000000003222000000000006068427900000000000000009999123100000010000000000000BRENBRACNOR2129
012020090802ENEV3       010ENEVA       ON      NM   R$  000000000486600000000049330000000004778000000000486100000000049150000000004899000000000491506155000000000001079200000000005246236900000000000000009999123100000010000000000000BRENEVACNOR8104
012020090802ENGI3       010ENERGISA    ON      N2   R$  000000000132400000000013300000000001300000000000131100000000013120000000001312000000000132000032000000000000003400000000000004459800000000000000009999123100000010000000000000BRENGIACNOR0138
012020090802ENGI4       010ENERGISA    PN      N2   R$  000000000076300000000007780000000000751000000000076400000000007640000000000764000000000077500054000000000000010600000000000008101800000000000000009999123100000010000000000000BRENGIACNPR7134
012020090802ENGI11      010ENERGISA    UNT     N2   R$  000000000431100000000044350000000004311000000000437100000000043780000000004378000000000439107546000000000001491600000000006520635900000000000000009999123100000010000000000000BRENGICDAM16128
012020090802ENMT3       010ENERGISA MT ON           R$  000000000299000000000029900000000002990000000000299000000000029900000000002611000000000299000001000000000000000100000000000000299000000000000000009999123100000010000000000000BRENMTACNOR5111
012020090802ENMT4       010ENERGISA MT PN           R$  000000000299000000000029900000000002990000000000299000000000029900000000002611000000000299000001000000000000000100000000000000299000000000000000009999123100000010000000000000BRENMTACNPR2114
012020090802EQIX34      010EQUINIX INC DRN          R$  000000008019200000000803000000000079121000000008006400000000791210000000000000000000000000000005000000000000001490000000000119296390000000000000009999123100000010000000000000BREQIXBDR002106
012020090802EQPA3       010EQTL PARA   ON           R$  000000000033800000000003380000000000326000000000033100000000003370000000000330000000000033700049000000000000011200000000000003712100000000000000009999123100000010000000000000BREQPAACNOR1101
012020090802EQTL3       010EQUATORIAL  ON      NM   R$  000000000234400000000023740000000002320000000000234900000000023690000000002364000000000236914764000000000004748500000000011158035900000000000000009999123100000010000000000000BREQTLACNOR0126
012020090802ESTR4       010ESTRELA     PN           R$  000000000328700000000033000000000002900000000000314900000000030400000000002907000000000305000094000000000000025000000000000078732200000000000000009999123100000010000000000000BRESTRACNPR0143
012020090802EUCA3       010EUCATEX     ON      N1   R$  000000000229000000000023190000000002270000000000229500000000023190000000002240000000000232500005000000000000000500000000000001147600000000000000009999123100000010000000000000BREUCAACNOR1151
012020090802EUCA4       010EUCATEX     PN      N1   R$  000000000062700000000006330000000000621000000000062700000000006250000000000625000000000063200138000000000000054600000000000034235900000000000000009999123100000010000000000000BREUCAACNPR8038
012020090802EVEN3       010EVEN        ON      NM   R$  000000000124100000000012790000000001234000000000125600000000012600000000001260000000000126105238000000000001307200000000001642635200000000000000009999123100000010000000000000BREVENACNOR8112
012020090802EXXO34      010EXXON MOBIL DRN          R$  000000000520000000000052000000000005045000000000507800000000051450000000005005000000000514500030000000000000044890000000000227979850000000000000009999123100000010000000000000BREXXOBDR006140
012020090802EZTC3       010EZTEC       ON      NM   R$  000000000388900000000040120000000003854000000000394700000000039690000000003960000000000396915813000000000002311000000000009122220400000000000000009999123100000010000000000000BREZTCACNOR0114
012020090802F1AN34      010DIAMONDBACK DRN          R$  000000000890000000000089000000000008720000000000881600000000087200000000007750000000000000000003000000000000000100000000000000881600000000000000009999123100000010000000000000BRF1ANBDR001103
012020090802F1EC34      010FIRSTENERGY DRN          R$  000000001567900000000156790000000015679000000001567900000000156790000000012632000000000000000001000000000000000300000000000004703700000000000000009999123100000010000000000000BRF1ECBDR006103
012020090802F1IS34      010FISERV INC  DRN          R$  000000002565000000000258580000000025448000000002546300000000255830000000000000000000000000000006000000000000004070000000000103637220000000000000009999123100000010000000000000BRF1ISBDR003100
012020090802F1NI34      010FIDELITY NATDRN          R$  000000001953100000000195990000000019414000000001952900000000194140000000000000000000000000000009000000000000006850000000000133775310000000000000009999123100000010000000000000BRF1NIBDR004102
012020090802F1RA34      010FRANKLIN RESDRN          R$  000000001119900000000111990000000011199000000001119900000000111990000000000000000000000000000001000000000000000100000000000001119900000000000000009999123100000010000000000000BRF1RABDR002102
012020090802FBOK34      010FACEBOOK    DRN          R$  000000007400000000000748140000000072813000000007357100000000731630000000071000000000007301700088000000000000019180000000001411099060000000000000009999123100000010000000000000BRFBOKBDR006100
012020090802FCXO34      010FREEPORT    DRN          R$  000000000840100000000084900000000008375000000000844300000000084900000000000000000000000000000015000000000000004550000000000038415750000000000000009999123100000010000000000000BRFCXOBDR007132
012020090802FDXB34      010FEDEX CORP  DRN ED       R$  000000012063900000001206390000000119785000000011981100000001203360000000000000000000000000000003000000000000000730000000000087462610000000000000009999123100000010000000000000BRFDXBBDR002128
012020090802FESA3       010FERBASA     ON  EJ  N1   R$  000000000289700000000028970000000002641000000000274000000000027000000000002661000000000298000039000000000000004000000000000010962100000000000000009999123100000010000000000000BRFESAACNOR8171
012020090802FESA4       010FERBASA     PN  EJ  N1   R$  000000000180600000000018210000000001781000000000180500000000018170000000001798000000000181700885000000000000173800000000000313768600000000000000009999123100000010000000000000BRFESAACNPR5067
012020090802FLRY3       010FLEURY      ON      NM   R$  000000000279400000000028890000000002792000000000285700000000028460000000002841000000000284612454000000000002491500000000007118289200000000000000009999123100000010000000000000BRFLRYACNOR5127
012020090802FRAS3       010FRAS-LE     ON      N1   R$  000000000054900000000005500000000000531000000000053700000000005410000000000539000000000054100254000000000000119000000000000064013000000000000000009999123100000010000000000000BRFRASACNOR0149
012020090802G1MI34      010GENERAL MILLDRN          R$  000000003304100000000330410000000032945000000003301700000000329450000000000000000000000000000003000000000000000200000000000006603400000000000000009999123100000010000000000000BRG1MIBDR005102
012020090802G1PI34      010GLOBAL PAYMEDRN          R$  000000002289000000000228900000000022740000000002282400000000227400000000000000000000000000000003000000000000000050000000000001141200000000000000009999123100000010000000000000BRG1PIBDR008102
012020090802G1WW34      010WW GRAINGER DRN          R$  000000003800500000000380050000000038005000000003800500000000380050000000000000000000000000000001000000000000000750000000000028503750000000000000009999123100000010000000000000BRG1WWBDR005103
012020090802GDBR34      010GEN DYNAMICSDRN          R$  000000007899600000000790570000000078996000000007899600000000790570000000000000000000000000000002000000000000000810000000000063987370000000000000009999123100000010000000000000BRGDBRBDR002120
012020090802GEOO34      010GE          DRN          R$  000000000341000000000034100000000003323000000000332600000000033230000000002989000000000332300006000000000000020880000000000069461750000000000000009999123100000010000000000000BRGEOOBDR000140
012020090802GEPA4       010GER PARANAP PN           R$  000000000461000000000048090000000004610000000000474200000000048090000000004621000000000489200003000000000000000300000000000001422800000000000000009999123100000010000000000000BRGEPAACNPR9153
012020090802GFSA3       010GAFISA      ON      NM   R$  000000000048300000000004910000000000475000000000048300000000004820000000000482000000000048405536000000000005326100000000002572755100000000000000009999123100000010000000000000BRGFSAACNOR3119
012020090802GGBR3       010GERDAU      ON      N1   R$  000000000164900000000016650000000001600000000000163500000000016390000000001638000000000164000289000000000000098400000000000160930100000000000000009999123100000010000000000000BRGGBRACNOR1173
012020090802GGBR4       010GERDAU      PN      N1   R$  000000000197300000000019880000000001930000000000196200000000019690000000001964000000000196919466000000000008549800000000016774867000000000000000009999123100000010000000000000BRGGBRACNPR8173
012020090802GILD34      010GILEAD      DRN          R$  000000001750000000000175000000000017179000000001724100000000172990000000000000000000002156000005000000000000005540000000000095517900000000000000009999123100000010000000000000BRGILDBDR000117
012020090802GMCO34      010GENERAL MOT DRN          R$  000000001697500000000174830000000016837000000001704100000000174800000000016013000000000000000062000000000000012250000000000208762310000000000000009999123100000010000000000000BRGMCOBDR008115
012020090802GNDI3       010INTERMEDICA ON      NM   R$  000000000725000000000075700000000007200000000000745800000000074280000000007413000000000743122704000000000003719700000000027744295400000000000000009999123100000010000000000000BRGNDIACNOR2102
012020090802GOAU3       010GERDAU MET  ON      N1   R$  000000000080000000000008010000000000774000000000078200000000007850000000000782000000000078500178000000000000046400000000000036306100000000000000009999123100000010000000000000BRGOAUACNOR1250
012020090802GOAU4       010GERDAU MET  PN      N1   R$  000000000089600000000008970000000000878000000000088700000000008930000000000892000000000089314241000000000015064000000000013374213600000000000000009999123100000010000000000000BRGOAUACNPR8251
012020090802GOGL34      010ALPHABET    DRN A        R$  000000003330000000000334050000000032585000000003299400000000325850000000032585000000003286700160000000000000038310000000001264006330000000000000009999123100000010000000000000BRGOGLBDR001100
012020090802GOGL35      010ALPHABET    DRN C        R$  000000003350000000000335000000000033015000000003314500000000330670000000000000000000003306700023000000000000022340000000000740478560000000000000009999123100000010000000000000BRGOGLBDR019100
012020090802GOLL4       010GOL         PN      N2   R$  000000000195100000000021020000000001921000000000204200000000020390000000002039000000000204033574000000000014739700000000030098833800000000000000009999123100000010000000000000BRGOLLACNPR4125
012020090802GPAR3       010CELGPAR     ON           R$  000000000337000000000033700000000002951000000000315500000000030010000000003001000000000322000032000000000000003500000000000011044900000000000000009999123100000010000000000000BRGPARACNOR4104
012020090802GPIV33      010GP INVEST   DR3          R$  000000000053300000000005330000000000506000000000051500000000005060000000000506000000000053000102000000000000043700000000000022535300000000000000009999123100000010000000000000BRGPIVBDR003104
012020090802GPRK34      010GEOPARK LTD DRN          R$  000000000458200000000045820000000004582000000000458200000000045820000000000000000000000458200001000000000000000700000000000003207400000000000000009999123100000010000000000000BRGPRKBDR007103
012020090802GRND3       010GRENDENE    ON      NM   R$  000000000084700000000008660000000000834000000000084700000000008380000000000838000000000084105060000000000001691300000000001433592800000000000000009999123100000010000000000000BRGRNDACNOR3158
012020090802GSGI34      010GOLDMANSACHSDRN ED       R$  000000001092400000000109480000000010916000000001092400000000109480000000000000000000000000000003000000000000010580000000000115576960000000000000009999123100000010000000000000BRGSGIBDR008140
012020090802GUAR3       010GUARARAPES  ON           R$  000000000179400000000018160000000001747000000000179200000000018120000000001808000000000181203311000000000000777000000000001392649300000000000000009999123100000010000000000000BRGUARACNOR4165
012020090802H1CA34      010HCA HEALTHCADRN          R$  000000003576000000000357600000000035517000000003575400000000355170000000000000000000000000000002000000000000001710000000000061139880000000000000009999123100000010000000000000BRH1CABDR002101
012020090802H1UM34      010HUMANA INC  DRN          R$  000000004395000000000439500000000043702000000004380100000000437020000000000000000000000000000002000000000000000050000000000002190060000000000000009999123100000010000000000000BRH1UMBDR009102
012020090802HAGA3       010HAGA S/A    ON           R$  000000000037600000000003970000000000353000000000037200000000003660000000000363000000000039100093000000000000043900000000000016333300000000000000009999123100000010000000000000BRHAGAACNOR7103
012020090802HAGA4       010HAGA S/A    PN           R$  000000000020600000000002060000000000197000000000020200000000001970000000000197000000000020000089000000000000054000000000000010949700000000000000009999123100000010000000000000BRHAGAACNPR4103
012020090802HALI34      010HALLIBURTON DRN ED       R$  000000000800000000000080000000000008000000000000800000000000080000000000000000000000000000000006000000000000000060000000000000480000000000000000009999123100000010000000000000BRHALIBDR004135
012020090802HAPV3       010HAPVIDA     ON      NM   R$  000000000666000000000069730000000006655000000000685000000000067340000000006734000000000674015909000000000003017500000000020672604300000000000000009999123100000010000000000000BRHAPVACNOR4105
012020090802HBOR3       010HELBOR      ON      NM   R$  000000000115500000000012110000000001132000000000118000000000011980000000001198000000000119905797000000000003930300000000004638469600000000000000009999123100000010000000000000BRHBORACNOR3114
012020090802HETA4       010HERCULES    PN           R$  000000000077700000000007770000000000777000000000077700000000007770000000000765000000000081000001000000000000000100000000000000077700000000000000009999123100000010000000000000BRHETAACNPR9136
012020090802HGTX3       010CIA HERING  ON      NM   R$  000000000194800000000019990000000001920000000000195500000000019420000000001942000000000194414964000000000004346000000000008499472700000000000000009999123100000010000000000000BRHGTXACNOR9151
012020090802HOME34      010HOME DEPOT  DRN ED       R$  000000007171300000000722410000000071713000000007188600000000722180000000000000000000000000000011000000000000009560000000000687230630000000000000009999123100000010000000000000BRHOMEBDR002134
012020090802HONB34      010HONEYWELL   DRN          R$  000000008848100000000889650000000087879000000008794600000000882740000000000000000000000000000005000000000000002060000000000181169870000000000000009999123100000010000000000000BRHONBBDR006127
012020090802HOND34      010HONDA MO    DRN          R$  000000001354000000000135950000000013540000000001354100000000135950000000000000000000000000000002000000000000004630000000000062696250000000000000009999123100000010000000000000BRHONDBDR002103
012020090802HYPE3       010HYPERA      ON      NM   R$  000000000318200000000032140000000003158000000000318200000000031590000000003159000000000316511434000000000002111400000000006720299700000000000000009999123100000010000000000000BRHYPEACNOR0122
012020090802I1CE34      010INTERCONTINEDRN          R$  000000002652000000000265200000000026489000000002649900000000264890000000000000000000000000000004000000000000000340000000000009009980000000000000009999123100000010000000000000BRI1CEBDR003102
012020090802I1LM34      010ILLUMINA INCDRN          R$  000000003648000000000368520000000036480000000003667200000000368520000000000000000000000000000003000000000000000220000000000008068040000000000000009999123100000010000000000000BRI1LMBDR007100
012020090802I1NF34      010IHS MARKIT LDRN          R$  000000002064200000000206420000000020642000000002064200000000206420000000000000000000000000000001000000000000001600000000000033027200000000000000009999123100000010000000000000BRI1NFBDR007103
012020090802I1RM34      010IRON MOUNTAIDRN          R$  000000001618000000000161800000000016180000000001618000000000161800000000000000000000000000000001000000000000000100000000000001618000000000000000009999123100000010000000000000BRI1RMBDR004102
012020090802I1SR34      010INTUITIVE SUDRN          R$  000000003799600000000379960000000037607000000003786400000000376070000000000000000000000000000005000000000000000570000000000021582990000000000000009999123100000010000000000000BRI1SRBDR001100
012020090802I1VZ34      010INVESCO LTD DRN          R$  000000000586400000000058640000000005864000000000586400000000058640000000000000000000000000000006000000000000000900000000000005277600000000000000009999123100000010000000000000BRI1VZBDR008103
012020090802IBMB34      010IBM         DRN          R$  000000006490100000000650070000000064901000000006490300000000650070000000000000000000000000000002000000000000002530000000000164205890000000000000009999123100000010000000000000BRIBMBBDR003135
012020090802IDVL3       010INDUSVAL    ON      N2   R$  000000000024500000000002460000000000237000000000024200000000002430000000000240000000000024200029000000000000010000000000000002424200000000000000009999123100000010000000000000BRIDVLACNOR5130
012020090802IDVL4       010INDUSVAL    PN      N2   R$  000000000025600000000002580000000000249000000000025100000000002580000000000251000000000025800024000000000000008500000000000002139900000000000000009999123100000010000000000000BRIDVLACNPR2130
012020090802IGTA3       010IGUATEMI    ON      NM   R$  000000000339000000000036230000000003368000000000354200000000036100000000003608000000000361016952000000000002917100000000010332555400000000000000009999123100000010000000000000BRIGTAACNOR5124
012020090802INTU34      010INTUIT INC  DRN          R$  000000004363400000000436490000000043178000000004360000000000433790000000000000000000000000000006000000000000003170000000000138214550000000000000009999123100000010000000000000BRINTUBDR003105
012020090802IRBR3       010IRBBRASIL REON      NM   R$  000000000068600000000006860000000000668000000000067500000000006720000000000672000000000067322860000000000020059300000000013554939200000000000000009999123100000010000000000000BRIRBRACNOR4108
012020090802ITLC34      010INTEL       DRN          R$  000000002659200000000265920000000026364000000002659000000000263640000000026061000000002636400005000000000000007350000000000195437210000000000000009999123100000010000000000000BRITLCBDR005139
012020090802ITSA3       010ITAUSA      ON  ED  N1   R$  000000000108600000000010900000000001072000000000108100000000010790000000001078000000000108800891000000000000276200000000000298627200000000000000009999123100000010000000000000BRITSAACNOR0401
012020090802ITSA4       010ITAUSA      PN  ED  N1   R$  000000000096500000000009720000000000957000000000096300000000009640000000000963000000000096428020000000000022789500000000021950696300000000000000009999123100000010000000000000BRITSAACNPR7401
012020090802ITUB3       010ITAUUNIBANCOON  ED  N1   R$  000000000234800000000023480000000002310000000000232600000000023240000000002320000000000232401780000000000000574800000000001337011700000000000000009999123100000010000000000000BRITUBACNOR4273
012020090802ITUB4       010ITAUUNIBANCOPN  ED  N1   R$  000000000245600000000024770000000002427000000000244700000000024400000000002439000000000244046466000000000029238000000000071548782900000000000000009999123100000010000000000000BRITUBACNPR1273
012020090802J1WN34      010NORDSTROM INDRN          R$  000000000867900000000086790000000008679000000000867900000000086790000000000000000000001571500001000000000000000400000000000003471600000000000000009999123100000010000000000000BRJ1WNBDR001101
012020090802JBDU3       010J B DUARTE  ON           R$  000000000023800000000002380000000000228000000000023100000000002310000000000225000000000023600020000000000000005400000000000001251100000000000000009999123100000010000000000000BRJBDUACNOR6142
012020090802JBDU4       010J B DUARTE  PN           R$  000000000013100000000001310000000000123000000000012600000000001260000000000125000000000012900087000000000000055700000000000007023900000000000000009999123100000010000000000000BRJBDUACNPR3142
012020090802JBSS3       010JBS         ON      NM   R$  000000000217000000000022030000000002156000000000217900000000021850000000002185000000000218620648000000000009672800000000021081558700000000000000009999123100000010000000000000BRJBSSACNOR8115
012020090802JDCO34      010JD COM      DRN          R$  000000004500000000000450000000000040713000000004091100000000407130000000040000000000004700000009000000000000004370000000000178783000000000000000009999123100000010000000000000BRJDCOBDR001100
012020090802JHSF3       010JHSF PART   ON      NM   R$  000000000070200000000007450000000000693000000000072300000000007320000000000731000000000073212532000000000010901000000000007882880500000000000000009999123100000010000000000000BRJHSFACNOR2116
012020090802JNJB34      010JOHNSON     DRN          R$  000000007930000000000793280000000078839000000007921000000000793280000000075000000000007932800037000000000000008320000000000659032470000000000000009999123100000010000000000000BRJNJBBDR002135
012020090802JPMC34      010JPMORGAN    DRN          R$  000000002779800000000277980000000026700000000002690900000000270120000000026500000000002701200024000000000000013680000000000368126740000000000000009999123100000010000000000000BRJPMCBDR009134
012020090802JPSA3       010JEREISSATI  ON           R$  000000000240000000000024280000000002355000000000239700000000023950000000002395000000000240503862000000000000957300000000002295278800000000000000009999123100000010000000000000BRJPSAACNOR6103
012020090802JSLG3       010JSL         ON      NM   R$  000000000322900000000033400000000003148000000000324700000000032270000000003227000000000324405906000000000001225200000000003979367100000000000000009999123100000010000000000000BRJSLGACNOR2114
012020090802KEPL3       010KEPLER WEBERON           R$  000000000442000000000044200000000004375000000000440200000000043750000000004375000000000442000563000000000000122500000000000539329100000000000000009999123100000010000000000000BRKEPLACNOR1049
012020090802KHCB34      010KRAFT HEINZ DRN ED       R$  000000001736000000000173600000000017200000000001735900000000172000000000000000000000001950000002000000000000002980000000000051731200000000000000009999123100000010000000000000BRKHCBBDR007121
012020090802KLBN3       010KLABIN S/A  ON      N2   R$  000000000054000000000005400000000000520000000000052600000000005220000000000522000000000052501122000000000000323300000000000170359200000000000000009999123100000010000000000000BRKLBNACNOR2156
012020090802KLBN4       010KLABIN S/A  PN      N2   R$  000000000048700000000004880000000000477000000000048100000000004780000000000477000000000047802735000000000001342700000000000646823900000000000000009999123100000010000000000000BRKLBNACNPR9156
012020090802KLBN11      010KLABIN S/A  UNT     N2   R$  000000000249800000000025030000000002427000000000245000000000024430000000002443000000000244416123000000000003796300000000009300982900000000000000009999123100000010000000000000BRKLBNCDAM18128
012020090802KMBB34      010KIMBERLY CL DRN ED       R$  000000008022500000000807770000000079768000000008023400000000797680000000000000000000000000000004000000000000000930000000000074618210000000000000009999123100000010000000000000BRKMBBBDR009121
012020090802KMIC34      010KINDER MORGADRN          R$  000000000712000000000071200000000007120000000000712000000000071200000000000000000000000000000001000000000000000130000000000000925600000000000000009999123100000010000000000000BRKMICBDR002105
012020090802L1RC34      010LAM RESEARCHDRN          R$  000000004203300000000420950000000041342000000004180100000000413750000000000000000000000000000015000000000000000860000000000035948990000000000000009999123100000010000000000000BRL1RCBDR000102
012020090802L1YB34      010LYONDELLBASEDRN ED       R$  000000001880000000000188000000000018800000000001880000000000188000000000000000000000000000000001000000000000000300000000000005640000000000000000009999123100000010000000000000BRL1YBBDR008103
012020090802LAME3       010LOJAS AMERICON      N1   R$  000000000259500000000026790000000002580000000000264500000000026550000000002646000000000265510864000000000002048100000000005418174500000000000000009999123100000010000000000000BRLAMEACNOR9202
012020090802LAME4       010LOJAS AMERICPN      N1   R$  000000000300200000000031460000000003002000000000309900000000030970000000003097000000000310027681000000000007636900000000023673008300000000000000009999123100000010000000000000BRLAMEACNPR6202
012020090802LAVV3       010LAVVI       ON      NM   R$  000000000085000000000008500000000000821000000000083000000000008270000000000827000000000082904647000000000002424200000000002014370500000000000000009999123100000010000000000000BRLAVVACNOR4100
012020090802LBRN34      010L BRANDS    DRN          R$  000000000398400000000039840000000003984000000000398400000000039840000000000000000000000000000027000000000000000270000000000001075680000000000000009999123100000010000000000000BRLBRNBDR001119
012020090802LCAM3       010LOCAMERICA  ON      NM   R$  000000000212900000000022440000000002102000000000220200000000022350000000002225000000000223513067000000000003318100000000007308782600000000000000009999123100000010000000000000BRLCAMACNOR3133
012020090802LEVE3       010METAL LEVE  ON      NM   R$  000000000180000000000018290000000001782000000000180800000000018040000000001802000000000180502940000000000000596700000000001079371600000000000000009999123100000010000000000000BRLEVEACNOR2187
012020090802LIGT3       010LIGHT S/A   ON      NM   R$  000000000153100000000015560000000001510000000000154000000000015480000000001547000000000154807630000000000002430900000000003743770800000000000000009999123100000010000000000000BRLIGTACNOR2120
012020090802LILY34      010LILLY       DRN          R$  000000004020000000000404290000000039682000000003973200000000401510000000000000000000004120000006000000000000006370000000000253098360000000000000009999123100000010000000000000BRLILYBDR006134
012020090802LINX3       010LINX        ON      NM   R$  000000000360000000000036060000000003500000000000352200000000035450000000003527000000000354516174000000000008230500000000028994014400000000000000009999123100000010000000000000BRLINXACNOR0118
012020090802LIPR3       010ELETROPAR   ON           R$  000000000735000000000076000000000007220000000000739600000000072500000000007100000000000750000072000000000000009400000000000069525100000000000000009999123100000010000000000000BRLIPRACNOR7117
012020090802LJQQ3       010QUERO-QUERO ON      NM   R$  000000000143300000000014650000000001419000000000143300000000014250000000001425000000000143202393000000000000628300000000000900385200000000000000009999123100000010000000000000BRLJQQACNOR5100
012020090802LMTB34      010LOCKHEED    DRN ED       R$  000000020302700000002058960000000203027000000020310900000002041620000000000000000000000000000005000000000000000790000000000160456110000000000000009999123100000010000000000000BRLMTBBDR009134
012020090802LOGG3       010LOG COM PROPON      NM   R$  000000000313600000000033090000000003110000000000324200000000032460000000003246000000000328003708000000000000561700000000001821233300000000000000009999123100000010000000000000BRLOGGACNOR7103
012020090802LOGN3       010LOG-IN      ON      NM   R$  000000000189000000000019940000000001870000000000195800000000019740000000001959000000000197404164000000000000921700000000001805375300000000000000009999123100000010000000000000BRLOGNACNOR3104
012020090802LOWC34      010LOWES COMPA DRN          R$  000000004115600000000415400000000040930000000004117300000000413420000000000000000000000000000007000000000000004580000000000188573640000000000000009999123100000010000000000000BRLOWCBDR007105
012020090802LPSB3       010LOPES BRASILON      NM   R$  000000000058200000000006220000000000567000000000060000000000006010000000000601000000000060306594000000000002465100000000001480925600000000000000009999123100000010000000000000BRLPSBACNOR0111
012020090802LREN3       010LOJAS RENNERON      NM   R$  000000000455000000000046690000000004525000000000462100000000046170000000004613000000000461725729000000000006593500000000030469645100000000000000009999123100000010000000000000BRLRENACNOR1203
012020090802LUXM4       010TREVISA     PN           R$  000000000445900000000045290000000004450000000000448300000000045280000000004100000000000469000007000000000000000800000000000003586600000000000000009999123100000010000000000000BRLUXMACNPR4047
012020090802LWSA3       010LOCAWEB     ON      NM   R$  000000000609900000000062900000000005817000000000603400000000059500000000005944000000000595017480000000000003520300000000021243221200000000000000009999123100000010000000000000BRLWSAACNOR8100
012020090802M1CH34      010MICROCHIP TEDRN          R$  000000002880000000000288000000000028800000000002880000000000288000000000000000000000000000000001000000000000000120000000000003456000000000000000009999123100000010000000000000BRM1CHBDR000103
012020090802M1NS34      010MONSTER BEVEDRN          R$  000000004304400000000430870000000043044000000004306100000000430870000000000000000000000000000004000000000000001030000000000044353810000000000000009999123100000010000000000000BRM1NSBDR004100
012020090802M1PC34      010MARATHON PETDRN          R$  000000001776400000000177640000000017764000000001776400000000177640000000000000000000000000000001000000000000000020000000000000355280000000000000009999123100000010000000000000BRM1PCBDR003103
012020090802M1TT34      010MARRIOTT INTDRN          R$  000000001389100000000139620000000013891000000001392500000000139620000000000000000000000000000003000000000000000780000000000010861960000000000000009999123100000010000000000000BRM1TTBDR009101
012020090802MACY34      010MACY S      DRN          R$  000000000408500000000040850000000004085000000000408500000000040850000000002600000000000420000001000000000000001550000000000006331750000000000000009999123100000010000000000000BRMACYBDR000116
012020090802MAPT4       010CEMEPE      PN           R$  000000000460000000000047000000000004351000000000450000000000043510000000004220000000000449700006000000000000000600000000000002700100000000000000009999123100000010000000000000BRMAPTACNPR5106
012020090802MCDC34      010MCDONALDS   DRN ED       R$  000000002885400000000288540000000028680000000002881800000000287710000000000000000000003000000004000000000000009920000000000285880310000000000000009999123100000010000000000000BRMCDCBDR000140
012020090802MCOR34      010MOODYS CORP DRN          R$  000000003740600000000376200000000037213000000003741100000000372130000000000000000000000000000005000000000000002040000000000076319030000000000000009999123100000010000000000000BRMCORBDR005105
012020090802MDIA3       010M.DIASBRANCOON      NM   R$  000000000370000000000037360000000003652000000000369100000000036950000000003695000000000370905693000000000000901200000000003326533900000000000000009999123100000010000000000000BRMDIAACNOR7118
012020090802MDLZ34      010MONDELEZ INTDRN          R$  000000001528000000000152800000000015099000000001517100000000150990000000000000000000000000000006000000000000008500000000000128958440000000000000009999123100000010000000000000BRMDLZBDR002120
012020090802MDNE3       010MOURA DUBEUXON      NM   R$  000000000089200000000009000000000000872000000000088400000000008890000000000889000000000089002017000000000000455500000000000402819000000000000000009999123100000010000000000000BRMDNEACNOR9100
012020090802MDTC34      010MEDTRONIC   DRN          R$  000000002785600000000281170000000027856000000002785900000000279440000000000000000000000000000004000000000000007530000000000209781340000000000000009999123100000010000000000000BRMDTCBDR004117
012020090802MEAL3       010IMC S/A     ON      NM   R$  000000000037500000000004040000000000369000000000039100000000004000000000000399000000000040011997000000000024821300000000009719105200000000000000009999123100000010000000000000BRMEALACNOR9105
012020090802MELI34      010MERCADOLIBREDRN          R$  000000005600000000000577550000000054405000000005630000000000564890000000055002000000005648900225000000000000024730000000001392301580000000000000009999123100000010000000000000BRMELIBDR006100
012020090802MERC4       010MERC FINANC PN           R$  000000000126900000000012800000000001200000000000124100000000012200000000001190000000000125000054000000000000013900000000000017255900000000000000009999123100000010000000000000BRMERCACNPR9173
012020090802METB34      010METLIFE INC DRN          R$  000000002031000000000203220000000020310000000002031000000000203220000000000000000000000000000002000000000000002970000000000060321540000000000000009999123100000010000000000000BRMETBBDR004121
012020090802MGEL4       010MANGELS INDLPN           R$  000000000052000000000005490000000000519000000000054000000000005400000000000535000000000054700015000000000000008500000000000004590900000000000000009999123100000010000000000000BRMGELACNPR3147
012020090802MGLU3       010MAGAZ LUIZA ON      NM   R$  000000000870500000000089510000000008550000000000881100000000087690000000008769000000000877046221000000000011322600000000099765808500000000000000009999123100000010000000000000BRMGLUACNOR2116
012020090802MILS3       010MILLS       ON      NM   R$  000000000070600000000007100000000000683000000000069700000000007000000000000700000000000070304606000000000002472000000000001723147700000000000000009999123100000010000000000000BRMILSACNOR2112
012020090802MMMC34      0103M          DRN          R$  000000002208100000000221050000000021900000000002191600000000219470000000015000000000002400000007000000000000006110000000000133909160000000000000009999123100000010000000000000BRMMMCBDR000134
012020090802MNDL3       010MUNDIAL     ON           R$  000000000229100000000023000000000002285000000000229200000000022850000000002280000000000237800003000000000000000300000000000000687600000000000000009999123100000010000000000000BRMNDLACNOR4107
012020090802MNPR3       010MINUPAR     ON           R$  000000000055200000000005640000000000541000000000055300000000005640000000000551000000000056500008000000000000001400000000000000775100000000000000009999123100000010000000000000BRMNPRACNOR5122
012020090802MOAR3       010MONT ARANHA ON           R$  000000002078800000000207880000000020788000000002078800000000207880000000019300000000002073300001000000000000000100000000000002078800000000000000009999123100000010000000000000BRMOARACNOR5212
012020090802MOOO34      010ALTRIA GROUPDRN          R$  000000002360000000000236000000000022896000000002290000000000229610000000022850000000000000000004000000000000005040000000000115418450000000000000009999123100000010000000000000BRMOOOBDR007104
012020090802MOVI3       010MOVIDA      ON      NM   R$  000000000169500000000018100000000001682000000000177600000000017890000000001788000000000178913454000000000004347000000000007724459800000000000000009999123100000010000000000000BRMOVIACNOR0111
012020090802MRCK34      010MERCK       DRN          R$  000000004610800000000461080000000044460000000004453600000000444790000000044300000000000000000010000000000000007640000000000340258580000000000000009999123100000010000000000000BRMRCKBDR003139
012020090802MRFG3       010MARFRIG     ON      NM   R$  000000000167300000000016730000000001620000000000164000000000016330000000001632000000000163322826000000000007176400000000011774387400000000000000009999123100000010000000000000BRMRFGACNOR0109
012020090802MRVE3       010MRV         ON      NM   R$  000000000176800000000018270000000001761000000000179300000000017890000000001789000000000179911301000000000002998700000000005379177700000000000000009999123100000010000000000000BRMRVEACNOR2120
012020090802MSBR34      010MORGAN STAN DRN          R$  000000002714200000000272570000000027142000000002714900000000271450000000000000000000000000000004000000000000000540000000000014660480000000000000009999123100000010000000000000BRMSBRBDR008129
012020090802MSCD34      010MASTERCARD  DRN          R$  000000017739900000001773990000000177043000000017710200000001770430000000151600000000000000000002000000000000000120000000000021252280000000000000009999123100000010000000000000BRMSCDBDR006137
012020090802MSFT34      010MICROSOFT   DRN          R$  000000011462500000001146250000000108600000000011040500000001086000000000107105000000010860000375000000000000023690000000002615510730000000000000009999123100000010000000000000BRMSFTBDR005139
012020090802MTRE3       010MITRE REALTYON      NM   R$  000000000146500000000015390000000001457000000000150500000000015390000000001536000000000153903957000000000000962300000000001448318900000000000000009999123100000010000000000000BRMTREACNOR6100
012020090802MTSA4       010METISA      PN           R$  000000000249000000000024990000000002465000000000248200000000024990000000002465000000000249900030000000000000005000000000000012413000000000000000009999123100000010000000000000BRMTSAACNPR9056
012020090802MULT3       010MULTIPLAN   ON      N2   R$  000000000218200000000023470000000002177000000000228600000000023150000000002314000000000231927242000000000007372200000000016855073500000000000000009999123100000010000000000000BRMULTACNOR5127
012020090802MUTC34      010MICRON TECHNDRN          R$  000000002445200000000245880000000024264000000002444900000000242640000000000000000000000000000005000000000000003090000000000075549650000000000000009999123100000010000000000000BRMUTCBDR008100
012020090802MYPK3       010IOCHP-MAXIONON      NM   R$  000000000121600000000012630000000001209000000000123900000000012260000000001226000000000122710875000000000002721500000000003373368500000000000000009999123100000010000000000000BRMYPKACNOR7148
012020090802N1CL34      010NORWEGIAN CRDRN          R$  000000000971100000000099710000000009709000000000989100000000099000000000000000000000001300000014000000000000002000000000000019783720000000000000009999123100000010000000000000BRN1CLBDR001100
012020090802N1EM34      010NEWMONT GOLDDRN          R$  000000003480200000000354600000000034802000000003531100000000351000000000036100000000003700000006000000000000002070000000000073094500000000000000009999123100000010000000000000BRN1EMBDR005102
012020090802N1WL34      010NEWELL BRANDDRN ED       R$  000000000879500000000087950000000008795000000000879500000000087950000000000000000000000000000001000000000000000020000000000000175900000000000000009999123100000010000000000000BRN1WLBDR009103
012020090802N1XP34      010NXP SEMICONDDRN          R$  000000003260300000000326030000000032603000000003260300000000326030000000000000000000000000000001000000000000000530000000000017279590000000000000009999123100000010000000000000BRN1XPBDR008102
012020090802NEOE3       010NEOENERGIA  ON      NM   R$  000000000185900000000019160000000001850000000000188900000000019020000000001901000000000190204922000000000001679200000000003173434600000000000000009999123100000010000000000000BRNEOEACNOR3111
012020090802NETE34      010NETEASE     DRN          R$  000000024860100000002486010000000247802000000024799200000002478020000000000000000000000000000002000000000000000420000000000104156740000000000000009999123100000010000000000000BRNETEBDR006104
012020090802NEXT34      010NEXTERA ENERDRN ED       R$  000000003704600000000375070000000037017000000003706200000000370170000000036000000000000000000005000000000000005540000000000205328510000000000000009999123100000010000000000000BRNEXTBDR006105
012020090802NFLX34      010NETFLIX     DRN          R$  000000027110000000002796010000000266401000000027539700000002724350000000266500000000027189000017000000000000001360000000000374539990000000000000009999123100000010000000000000BRNFLXBDR000101
012020090802NIKE34      010NIKE        DRN ED       R$  000000006040700000000605000000000060398000000006040700000000603980000000000000000000000000000003000000000000004540000000000274248560000000000000009999123100000010000000000000BRNIKEBDR006139
012020090802NOCG34      010NORTHROP GRUDRN ED       R$  000000003589400000000361180000000035797000000003590500000000357970000000000000000000000000000006000000000000002420000000000086892280000000000000009999123100000010000000000000BRNOCGBDR006105
012020090802NOKI34      010NOKIA CORP  DRN          R$  000000000225400000000022540000000002205000000000221700000000022120000000000000000000000230000003000000000000000420000000000000931140000000000000009999123100000010000000000000BRNOKIBDR005100
012020090802NORD3       010NORDON MET  ON           R$  000000000051500000000005150000000000515000000000051500000000005150000000000470000000000051500001000000000000000100000000000000051500000000000000009999123100000010000000000000BRNORDACNOR7135
012020090802NTCO3       010GRUPO NATURAON      NM   R$  000000000493000000000049850000000004802000000000489200000000048700000000004870000000000487427203000000000005381600000000026330203600000000000000009999123100000010000000000000BRNTCOACNOR5101
012020090802NVDC34      010NVIDIA CORP DRN ED       R$  000000006389900000000667450000000063100000000006568300000000646360000000066850000000007016700050000000000000010730000000000704788620000000000000009999123100000010000000000000BRNVDCBDR008106
012020090802ODPV3       010ODONTOPREV  ON      NM   R$  000000000130200000000013300000000001297000000000131000000000013150000000001314000000000131508382000000000003688900000000004835087700000000000000009999123100000010000000000000BRODPVACNOR4178
012020090802OFSA3       010OUROFINO S/AON      NM   R$  000000000287000000000029390000000002852000000000289900000000029240000000002896000000000292400041000000000000005900000000000017104200000000000000009999123100000010000000000000BROFSAACNOR7109
012020090802OMGE3       010OMEGA GER   ON      NM   R$  000000000400500000000040950000000003915000000000401500000000040460000000004046000000000405007028000000000001221200000000004903768600000000000000009999123100000010000000000000BROMGEACNOR0101
012020090802ORCL34      010ORACLE      DRN          R$  000000002954400000000297170000000029544000000002954600000000296460000000000000000000000000000004000000000000012070000000000356623370000000000000009999123100000010000000000000BRORCLBDR007134
012020090802OXYP34      010OCCIDENT PTRDRN          R$  000000000320700000000032070000000002985000000000299400000000029850000000002950000000000318500013000000000000011420000000000034192630000000000000009999123100000010000000000000BROXYPBDR000105
012020090802P1LD34      010PROLOGIS INCDRN          R$  000000002660500000000266690000000026605000000002664000000000266690000000000000000000000000000002000000000000000090000000000002397650000000000000009999123100000010000000000000BRP1LDBDR007102
012020090802P1PL34      010PPL CORP    DRN          R$  000000001526000000000152600000000015260000000001526000000000152600000000000000000000000000000001000000000000000100000000000001526000000000000000009999123100000010000000000000BRP1PLBDR001102
012020090802P1SX34      010PHILLIPS 66 DRN          R$  000000001579000000000158640000000015585000000001575700000000155850000000000000000000000000000005000000000000000920000000000014496480000000000000009999123100000010000000000000BRP1SXBDR000103
012020090802PARD3       010IHPARDINI   ON      NM   R$  000000000250000000000025230000000002436000000000247600000000024360000000002436000000000243804953000000000000912700000000002259925400000000000000009999123100000010000000000000BRPARDACNOR1114
012020090802PATI3       010PANATLANTICAON           R$  000000000226000000000022600000000002050000000000217200000000021040000000002103000000000223000025000000000000005600000000000012165700000000000000009999123100000010000000000000BRPATIACNOR6060
012020090802PATI4       010PANATLANTICAPN           R$  000000000288000000000029290000000002707000000000283300000000028930000000002708000000000287500008000000000000000800000000000002266800000000000000009999123100000010000000000000BRPATIACNPR3060
012020090802PCAR3       010P.ACUCAR-CBDON      NM   R$  000000000629900000000063150000000006200000000000625700000000062490000000006249000000000625006063000000000000950900000000005950170000000000000000009999123100000010000000000000BRPCARACNOR3163
012020090802PDTC3       010PADTEC      ON           R$  000000000057000000000005700000000000557000000000056300000000005570000000000557000000000056200166000000000000046400000000000026128900000000000000009999123100000010000000000000BRPDTCACNOR3100
012020090802PEPB34      010PEPSICO INC DRN ED       R$  000000007290000000000729000000000072369000000007248800000000724300000000065100000000000000000007000000000000004530000000000328374290000000000000009999123100000010000000000000BRPEPBBDR005132
