00COTAHIST.2020BOVESPA 20200915                                                                                                                                                                                                                      
012020091502A1BM34      010ABIOMED INC DRN          R$  000000003698600000000369860000000036986000000003698600000000369860000000000000000000000000000001000000000000000020000000000000739720000000000000009999123100000010000000000000BRA1BMBDR006100
012020091502A1FL34      010AFLAC INC   DRN          R$  000000001971900000000197190000000019719000000001971900000000197190000000000000000000000000000001000000000000000010000000000000197190000000000000009999123100000010000000000000BRA1FLBDR009103
012020091502A1LX34      010ALEXION PHARDRN          R$  000000003058300000000305830000000030583000000003058300000000305830000000000000000000000000000001000000000000000600000000000018349800000000000000009999123100000010000000000000BRA1LXBDR002100
012020091502A1MD34      010ADVANCED MICDRN          R$  000000004184900000000418490000000041729000000004177800000000417290000000000000000000005250000009000000000000000090000000000003760060000000000000009999123100000010000000000000BRA1MDBDR002100
012020091502A1PA34      010APACHE CORP DRN          R$  000000000646300000000064630000000006409000000000644300000000064090000000000000000000000000000006000000000000000110000000000000708830000000000000009999123100000010000000000000BRA1PABDR001103
012020091502A1RE34      010ALEXANDRIA RDRN          R$  000000002186300000000218630000000021863000000002186300000000218630000000000000000000000000000001000000000000000100000000000002186300000000000000009999123100000010000000000000BRA1REBDR009102
012020091502AALL34      010AMERICAN AIRDRN          R$  000000000698200000000070210000000006982000000000700100000000069890000000005333000000000850000013000000000000001820000000000012742770000000000000009999123100000010000000000000BRAALLBDR003115
012020091502AALR3       010ALLIAR      ON      NM   R$  000000000119500000000011980000000001152000000000117200000000011660000000001156000000000116600857000000000000254000000000000297846000000000000000009999123100000010000000000000BRAALRACNOR6102
012020091502AAPL34      010APPLE       DRN          R$  000000000620000000000062680000000006016000000000612200000000060700000000006070000000000608900473000000000000271360000000001661380320000000000000009999123100000010000000000000BRAAPLBDR004135
012020091502ABBV34      010ABBVIE      DRN          R$  000000004820000000000482000000000048200000000004820000000000482000000000000000000000000000000001000000000000000020000000000000964000000000000000009999123100000010000000000000BRABBVBDR001118
012020091502ABCB4       010ABC BRASIL  PN      N2   R$  000000000133700000000013390000000001308000000000131900000000013200000000001320000000000132102537000000000000471300000000000621876200000000000000009999123100000010000000000000BRABCBACNPR4134
012020091502ABEV3       010AMBEV S/A   ON           R$  000000000126100000000012960000000001250000000000127800000000012890000000001288000000000128940922000000000029444700000000037630500200000000000000009999123100000010000000000000BRABEVACNOR1122
012020091502ADBE34      010ADOBE INC   DRN          R$  000000005259700000000525970000000052597000000005259700000000525970000000000000000000000000000002000000000000000370000000000019460890000000000000009999123100000010000000000000BRADBEBDR003100
012020091502ADHM3       010ADVANCED-DH ON           R$  000000000021400000000002140000000000206000000000020900000000002100000000000212000000000021500012000000000000002200000000000000461700000000000000009999123100000010000000000000BRADHMACNOR9102
012020091502AFLT3       010AFLUENTE T  ON           R$  000000000101000000000010100000000001000000000000100600000000010000000000000990000000000100900003000000000000000300000000000000302000000000000000009999123100000010000000000000BRAFLTACNOR1115
012020091502AGRO3       010BRASILAGRO  ON      NM   R$  000000000221400000000022380000000002182000000000222000000000022240000000002220000000000222401004000000000000204000000000000453014500000000000000009999123100000010000000000000BRAGROACNOR7109
012020091502AHEB3       010SPTURIS     ON           R$  000000000269700000000026970000000002311000000000250500000000023110000000002310000000000250000004000000000000000400000000000001002000000000000000009999123100000010000000000000BRAHEBACNOR0106
012020091502ALPA3       010ALPARGATAS  ON      N1   R$  000000000342000000000034200000000003260000000000333600000000033430000000003290000000000339500027000000000000003300000000000011010100000000000000009999123100000010000000000000BRALPAACNOR0229
012020091502ALPA4       010ALPARGATAS  PN      N1   R$  000000000376000000000037620000000003586000000000365600000000036830000000003679000000000368309888000000000002473700000000009044112700000000000000009999123100000010000000000000BRALPAACNPR7229
012020091502ALPK3       010ESTAPAR     ON      NM   R$  000000000092800000000009300000000000923000000000092500000000009250000000000925000000000094200058000000000000020800000000000019245100000000000000009999123100000010000000000000BRALPKACNOR9100
012020091502ALSO3       010ALIANSCSONAEON      NM   R$  000000000280600000000028100000000002737000000000275800000000027530000000002752000000000275304596000000000000875300000000002414536600000000000000009999123100000010000000000000BRALSOACNOR5100
012020091502ALUP3       010ALUPAR      ON      N2   R$  000000000093700000000009580000000000937000000000095100000000009500000000000948000000000096000046000000000000005300000000000005042300000000000000009999123100000010000000000000BRALUPACNOR8111
012020091502ALUP4       010ALUPAR      PN      N2   R$  000000000071100000000007140000000000701000000000071000000000007060000000000700000000000071100049000000000000007800000000000005538600000000000000009999123100000010000000000000BRALUPACNPR5111
012020091502ALUP11      010ALUPAR      UNT     N2   R$  000000000234500000000023900000000002341000000000236500000000023620000000002361000000000236202435000000000000574400000000001358761100000000000000009999123100000010000000000000BRALUPCDAM15111
012020091502AMAR3       010LOJAS MARISAON      NM   R$  000000000083100000000008360000000000805000000000081500000000008140000000000814000000000081505579000000000002523400000000002057878300000000000000009999123100000010000000000000BRAMARACNOR4112
012020091502AMBP3       010AMBIPAR     ON      NM   R$  000000000306900000000030860000000003019000000000306200000000030780000000003078000000000310001255000000000000231500000000000709022000000000000000009999123100000010000000000000BRAMBPACNOR6100
012020091502AMGN34      010AMGEN       DRN          R$  000000013204900000001320490000000132049000000013204900000001320490000000000000000000000000000001000000000000000100000000000013204900000000000000009999123100000010000000000000BRAMGNBDR004135
012020091502AMZO34      010AMAZON      DRN          R$  000000082500000000008343940000000825000000000083166200000008326680000000828000000000083980000017000000000000000900000000000748496110000000000000009999123100000010000000000000BRAMZOBDR002101
012020091502ANIM3       010ANIMA       ON      NM   R$  000000000314900000000031790000000003065000000000309500000000030700000000003068000000000307002182000000000000329700000000001020672700000000000000009999123100000010000000000000BRANIMACNOR6106
012020091502APER3       010ALPER S.A.  ON      NM   R$  000000000308000000000031490000000002977000000000306500000000030010000000003001000000000310000189000000000000030300000000000092889600000000000000009999123100000010000000000000BRAPERACNOR9102
012020091502ARZZ3       010AREZZO CO   ON      NM   R$  000000000574000000000058150000000005665000000000573400000000057550000000005741000000000575502288000000000000282100000000001617638300000000000000009999123100000010000000000000BRARZZACNOR3137
012020091502ASML34      010ASML HOLD   DRN          R$  000000019619900000001961990000000196199000000019619900000001961990000000000000000000000000000001000000000000000020000000000003923980000000000000009999123100000010000000000000BRASMLBDR003102
012020091502ATOM3       010ATOMPAR     ON           R$  000000000028200000000002870000000000279000000000028200000000002860000000000282000000000028600150000000000000073300000000000020739300000000000000009999123100000010000000000000BRATOMACNOR1103
012020091502ATTB34      010ATT INC     DRN          R$  000000001541900000000154530000000015400000000001544000000000154530000000015400000000001545300018000000000000000660000000000010190640000000000000009999123100000010000000000000BRATTBBDR007132
012020091502ATVI34      010ACTIVISION  DRN          R$  000000004334900000000433490000000043349000000004334900000000433490000000041810000000000000000001000000000000000050000000000002167450000000000000009999123100000010000000000000BRATVIBDR008101
012020091502AURA32      010AURA 360    DR2          R$  000000000639900000000066000000000006399000000000652900000000065200000000006401000000000652000227000000000000035800000000000233756000000000000000009999123100000010000000000000BRAURABDR001102
012020091502AVGO34      010BROADCOM INCDRN          R$  000000003870000000000387000000000038700000000003870000000000387000000000000000000000000000000001000000000000000100000000000003870000000000000000009999123100000010000000000000BRAVGOBDR003105
012020091502AZEV4       010AZEVEDO     PN           R$  000000000036800000000003680000000000340000000000035500000000003550000000000353000000000035600021000000000000004700000000000001671800000000000000009999123100000010000000000000BRAZEVACNPR7117
012020091502AZUL4       010AZUL        PN      N2   R$  000000000282100000000028660000000002765000000000281000000000028030000000002801000000000280335009000000000015758800000000044289656400000000000000009999123100000010000000000000BRAZULACNPR4100
012020091502B1SX34      010BOSTON SCIENDRN          R$  000000002189900000000218990000000021899000000002189900000000218990000000000000000000000000000001000000000000000100000000000002189900000000000000009999123100000010000000000000BRB1SXBDR006100
012020091502B3SA3       010B3          ON      NM   R$  000000000589000000000058990000000005717000000000575700000000057280000000005728000000000573029507000000000007545200000000043444055900000000000000009999123100000010000000000000BRB3SAACNOR6111
012020091502BABA34      010ALIBABAGR   DRN          R$  000000014650000000001468320000000145600000000014646500000001468320000000145000000000014950000037000000000000001160000000000169899990000000000000009999123100000010000000000000BRBABABDR005100
012020091502BALM4       010BAUMER      PN           R$  000000000123000000000012500000000001230000000000124000000000012500000000001100000000000125000003000000000000000400000000000000496000000000000000009999123100000010000000000000BRBALMACNPR2051
012020091502BAUH4       010EXCELSIOR   PN           R$  000000000890000000000089000000000008690000000000874200000000086900000000008300000000000869000004000000000000000400000000000003497000000000000000009999123100000010000000000000BRBAUHACNPR3115
012020091502BAZA3       010AMAZONIA    ON           R$  000000000399800000000039980000000003929000000000394800000000039290000000003890000000000397400005000000000000000500000000000001974300000000000000009999123100000010000000000000BRBAZAACNOR0174
012020091502BBAS3       010BRASIL      ON  EJ  NM   R$  000000000326000000000032600000000003187000000000320600000000031990000000003195000000000319925548000000000011585100000000037151009400000000000000009999123100000010000000000000BRBBASACNOR3293
012020091502BBDC3       010BRADESCO    ON      N1   R$  000000000192300000000019230000000001876000000000189000000000018920000000001888000000000189213005000000000004542500000000008585734300000000000000009999123100000010000000000000BRBBDCACNOR1715
012020091502BBDC4       010BRADESCO    PN      N1   R$  000000000207500000000020770000000002029000000000204500000000020480000000002048000000000204953264000000000037427100000000076563812200000000000000009999123100000010000000000000BRBBDCACNPR8715
012020091502BBRK3       010BR BROKERS  ON      NM   R$  000000000017000000000001730000000000166000000000016900000000001690000000000167000000000016900220000000000000171700000000000029066500000000000000009999123100000010000000000000BRBBRKACNOR4113
012020091502BBSE3       010BBSEGURIDADEON      NM   R$  000000000259600000000026400000000002580000000000260700000000026100000000002610000000000261122961000000000004826100000000012582239100000000000000009999123100000010000000000000BRBBSEACNOR5117
012020091502BBYY34      010BEST BUY    DRN ED       R$  000000005735900000000573590000000057359000000005735900000000573590000000000000000000000000000001000000000000000010000000000000573590000000000000009999123100000010000000000000BRBBYYBDR005114
012020091502BCSA34      010SANTANDER   DRN          R$  000000000113600000000011360000000001116000000000112400000000011230000000001123000000000113200042000000000000003960000000000004451280000000000000009999123100000010000000000000BRBCSABDR005101
012020091502BEEF3       010MINERVA     ON      NM   R$  000000000140900000000014760000000001361000000000140100000000013840000000001384000000000138546020000000000031842700000000044612072200000000000000009999123100000010000000000000BRBEEFACNOR6108
012020091502BEES3       010BANESTES    ON           R$  000000000051800000000005210000000000508000000000051200000000005090000000000509000000000051000242000000000000056200000000000028800800000000000000009999123100000010000000000000BRBEESACNOR9339
012020091502BEES4       010BANESTES    PN           R$  000000000057200000000005720000000000545000000000054900000000005480000000000548000000000054900031000000000000004000000000000002197300000000000000009999123100000010000000000000BRBEESACNPR6264
012020091502BERK34      010BERKSHIRE   DRN          R$  000000011595000000001168090000000115363000000011552700000001161280000000115000000000011612800055000000000000006690000000000772876090000000000000009999123100000010000000000000BRBERKBDR002100
012020091502BGIP4       010BANESE      PN           R$  000000000259400000000025940000000002510000000000255400000000025130000000002513000000000262700021000000000000006800000000000017373200000000000000009999123100000010000000000000BRBGIPACNPR8199
012020091502BIDI3       010BANCO INTER ON      N2   R$  000000000186000000000018620000000001799000000000182400000000018420000000001830000000000184201794000000000000352300000000000642916100000000000000009999123100000010000000000000BRBIDIACNOR3107
012020091502BIDI4       010BANCO INTER PN      N2   R$  000000000204100000000020630000000001979000000000200500000000019970000000001996000000000199705400000000000001529800000000003067441700000000000000009999123100000010000000000000BRBIDIACNPR0111
012020091502BIDI11      010BANCO INTER UNT     N2   R$  000000000594100000000059810000000005752000000000582800000000058510000000005810000000000585103515000000000000589500000000003435963600000000000000009999123100000010000000000000BRBIDICDAXX3106
012020091502BIOM3       010BIOMM       ON      MA   R$  000000000168200000000017300000000001662000000000168400000000016620000000001642000000000166900089000000000000016800000000000028294900000000000000009999123100000010000000000000BRBIOMACNOR2107
012020091502BKBR3       010BK BRASIL   ON      NM   R$  000000000110000000000011160000000001085000000000110100000000011070000000001107000000000110802998000000000000648200000000000714078800000000000000009999123100000010000000000000BRBKBRACNOR4103
012020091502BKNG34      010BOOKING     DRN          R$  000000003825400000000384890000000037880000000003802900000000378800000000037500000000003880000010000000000000001000000000000038029650000000000000009999123100000010000000000000BRBKNGBDR006100
012020091502BMEB3       010MERC BRASIL ON           R$  000000000160500000000016050000000001605000000000160500000000016050000000001600000000000165900001000000000000000100000000000000160500000000000000009999123100000010000000000000BRBMEBACNOR8196
012020091502BMEB4       010MERC BRASIL PN           R$  000000000159900000000016000000000001556000000000158200000000015560000000001540000000000158100014000000000000003000000000000004748500000000000000009999123100000010000000000000BRBMEBACNPR5201
012020091502BMGB4       010BANCO BMG   PN      N1   R$  000000000051700000000005210000000000506000000000051300000000005140000000000514000000000051502527000000000001747600000000000896622000000000000000009999123100000010000000000000BRBMGBACNPR0101
012020091502BMIN3       010MERC INVEST ON           R$  000000000210000000000023000000000002100000000000218300000000021500000000002028000000000229900003000000000000000300000000000000655000000000000000009999123100000010000000000000BRBMINACNOR4168
012020091502BMKS3       010BIC MONARK  ON           R$  000000002129800000000212990000000021298000000002129800000000212990000000021800000000002356000002000000000000000005000000000000106494000000000000009999123100000010000000000000BRBMKSACNOR9162
012020091502BOAC34      010BANK AMERICADRN ED       R$  000000001341600000000134340000000013366000000001342500000000134070000000012100000000001340700023000000000000004120000000000055313710000000000000009999123100000010000000000000BRBOACBDR004140
012020091502BOBR4       010BOMBRIL     PN           R$  000000000019700000000002010000000000197000000000019800000000001990000000000198000000000019900068000000000000041100000000000008161400000000000000009999123100000010000000000000BRBOBRACNPR3128
012020091502BOEI34      010BOEING      DRN          R$  000000008801300000000887000000000087060000000008808600000000870600000000000000000000010850000008000000000000000370000000000032591840000000000000009999123100000010000000000000BRBOEIBDR003132
012020091502BONY34      010BNY MELLON  DRN          R$  000000001860000000000186000000000018419000000001855400000000184190000000000000000000000000000002000000000000000040000000000000742190000000000000009999123100000010000000000000BRBONYBDR001120
012020091502BOXP34      010BOSTON PROP DRN          R$  000000000470000000000047000000000004700000000000470000000000047000000000004450000000000592000001000000000000000400000000000001880000000000000000009999123100000010000000000000BRBOXPBDR008120
012020091502BPAC3       010BTGP BANCO  ON      N2   R$  000000000451100000000045210000000004302000000000444700000000043900000000004390000000000448100039000000000000004900000000000021794700000000000000009999123100000010000000000000BRBPACACNOR7122
012020091502BPAC5       010BTGP BANCO  PNA     N2   R$  000000000177300000000018100000000001703000000000178900000000018080000000001720000000000180800015000000000000002100000000000003758300000000000000009999123100000010000000000000BRBPACACNPA0122
012020091502BPAC11      010BTGP BANCO  UNT     N2   R$  000000000823800000000082660000000007944000000000802200000000079890000000007977000000000798916805000000000003409900000000027354958200000000000000009999123100000010000000000000BRBPACUNT006107
012020091502BPAN4       010BANCO PAN   PN      N1   R$  000000000088000000000008840000000000856000000000086700000000008640000000000863000000000086404486000000000001710400000000001483295400000000000000009999123100000010000000000000BRBPANACNPR1109
012020091502BRAP3       010BRADESPAR   ON      N1   R$  000000000390600000000041800000000003906000000000415400000000040340000000003950000000000407000164000000000000834500000000003466631200000000000000009999123100000010000000000000BRBRAPACNOR5136
012020091502BRAP4       010BRADESPAR   PN      N1   R$  000000000449500000000045580000000004441000000000451700000000045300000000004528000000000453016968000000000002797300000000012636594900000000000000009999123100000010000000000000BRBRAPACNPR2136
012020091502BRDT3       010PETROBRAS BRON      NM   R$  000000000223300000000022410000000002175000000000219400000000022070000000002207000000000221118927000000000006016500000000013201085900000000000000009999123100000010000000000000BRBRDTACNOR1120
012020091502BRFS3       010BRF SA      ON      NM   R$  000000000209200000000021760000000002068000000000214000000000021610000000002161000000000216229281000000000014861400000000031816475500000000000000009999123100000010000000000000BRBRFSACNOR8119
012020091502BRGE3       010ALFA CONSORCON           R$  000000000096000000000010960000000000960000000000100000000000010000000000000950000000000100000033000000000000007300000000000007305000000000000000009999123100000010000000000000BRBRGEACNOR6202
012020091502BRGE8       010ALFA CONSORCPND          R$  000000000080000000000009350000000000800000000000084800000000008130000000000812000000000090000023000000000000003700000000000003140800000000000000009999123100000010000000000000BRBRGEACNPD3214
012020091502BRGE11      010ALFA CONSORCPNE          R$  000000000110100000000011010000000001100000000000110000000000011000000000000997000000000113000006000000000000001000000000000001100400000000000000009999123100000010000000000000BRBRGEACNPE1105
012020091502BRGE12      010ALFA CONSORCPNF          R$  000000000062900000000007000000000000629000000000066500000000006880000000000663000000000069000054000000000000016700000000000011105900000000000000009999123100000010000000000000BRBRGEACNPF8096
012020091502BRIV3       010ALFA INVEST ON           R$  000000000079600000000009300000000000796000000000085400000000009300000000000820000000000094300042000000000000008500000000000007261000000000000000009999123100000010000000000000BRBRIVACNOR6205
012020091502BRIV4       010ALFA INVEST PN           R$  000000000074500000000008550000000000730000000000080800000000008400000000000821000000000084000162000000000000069800000000000056400000000000000000009999123100000010000000000000BRBRIVACNPR3211
012020091502BRKM3       010BRASKEM     ON      N1   R$  000000000223800000000022750000000002209000000000225000000000022620000000002255000000000226200032000000000000007300000000000016429900000000000000009999123100000010000000000000BRBRKMACNOR1117
012020091502BRKM5       010BRASKEM     PNA     N1   R$  000000000219000000000022660000000002190000000000223600000000022300000000002229000000000223010224000000000002506900000000005606633600000000000000009999123100000010000000000000BRBRKMACNPA4117
012020091502BRML3       010BR MALLS PARON      NM   R$  000000000098900000000010080000000000963000000000097800000000009770000000000976000000000097731335000000000019294900000000018875815300000000000000009999123100000010000000000000BRBRMLACNOR9115
012020091502BRPR3       010BR PROPERT  ON      NM   R$  000000000098700000000009930000000000960000000000097500000000009760000000000974000000000097606354000000000001844700000000001799764600000000000000009999123100000010000000000000BRBRPRACNOR9119
012020091502BRSR3       010BANRISUL    ON      N1   R$  000000000147500000000015080000000001452000000000147000000000014550000000001455000000000146600050000000000000012700000000000018672900000000000000009999123100000010000000000000BRBRSRACNOR3168
012020091502BRSR6       010BANRISUL    PNB     N1   R$  000000000129300000000013070000000001265000000000127900000000012740000000001272000000000127409313000000000003335900000000004268505800000000000000009999123100000010000000000000BRBRSRACNPB4171
012020091502BSEV3       010BIOSEV      ON      NM   R$  000000000051700000000005360000000000503000000000051600000000005090000000000509000000000051500453000000000000172900000000000089333400000000000000009999123100000010000000000000BRBSEVACNOR3102
012020091502BTOW3       010B2W DIGITAL ON      NM   R$  000000001016900000000101830000000009857000000000995300000000099900000000009979000000000999013821000000000002565400000000025535117700000000000000009999123100000010000000000000BRBTOWACNOR8111
012020091502BTTL3       010BATTISTELLA ON           R$  000000000102600000000010950000000001026000000000106400000000010950000000001094000000000111000026000000000000004900000000000005213900000000000000009999123100000010000000000000BRBTTLACNOR0108
012020091502C1CL34      010CARNIVAL CORDRN          R$  000000000890000000000089000000000008529000000000869600000000085290000000000000000000001300000041000000000000007850000000000068264960000000000000009999123100000010000000000000BRC1CLBDR004101
012020091502C1IC34      010CIGNA CORP  DRN          R$  000000002249900000000224990000000022100000000002220500000000221000000000000000000000000000000002000000000000000190000000000004218950000000000000009999123100000010000000000000BRC1ICBDR000101
012020091502CAMB3       010CAMBUCI     ON           R$  000000000042400000000004240000000000414000000000042100000000004190000000000419000000000042100076000000000000102500000000000043173800000000000000009999123100000010000000000000BRCAMBACNOR4119
012020091502CAML3       010CAMIL       ON      NM   R$  000000000136400000000013880000000001344000000000136900000000013690000000001369000000000137207300000000000001705100000000002335079200000000000000009999123100000010000000000000BRCAMLACNOR3111
012020091502CARD3       010CSU CARDSYSTON      NM   R$  000000000150300000000015670000000001471000000000153100000000015000000000001500000000000150501467000000000000457000000000000699695700000000000000009999123100000010000000000000BRCARDACNOR9118
012020091502CATP34      010CATERPILLAR DRN          R$  000000007893000000000789300000000078930000000007893000000000789300000000000000000000000000000001000000000000000300000000000023679000000000000000009999123100000010000000000000BRCATPBDR003136
012020091502CBEE3       010AMPLA ENERG ON           R$  000000000170900000000017090000000001709000000000170900000000017090000000001600000000000170900001000000000000000100000000000000170900000000000000009999123100000010000000000000BRCBEEACNOR3155
012020091502CCPR3       010CYRE COM-CCPON      NM   R$  000000000145000000000014930000000001450000000000147600000000014740000000001474000000000148101411000000000000201900000000000298010100000000000000009999123100000010000000000000BRCCPRACNOR9114
012020091502CCRO3       010CCR SA      ON      NM   R$  000000000148600000000014900000000001444000000000146100000000014550000000001455000000000145613620000000000005235300000000007651031600000000000000009999123100000010000000000000BRCCROACNOR2137
012020091502CEAB3       010CEA MODAS   ON      NM   R$  000000000131100000000013200000000001268000000000129100000000012900000000001290000000000129408473000000000002177400000000002813183000000000000000009999123100000010000000000000BRCEABACNOR1101
012020091502CEBR3       010CEB         ON           R$  000000000680000000000068820000000006400000000000660200000000067000000000006450000000000680000009000000000000000900000000000005942100000000000000009999123100000010000000000000BRCEBRACNOR5118
012020091502CEBR6       010CEB         PNB          R$  000000000719900000000071990000000007199000000000719900000000071990000000006500000000000719900001000000000000000100000000000000719900000000000000009999123100000010000000000000BRCEBRACNPB6117
012020091502CEDO3       010CEDRO       ON      N1   R$  000000000095500000000009550000000000955000000000095500000000009550000000000958000000000099800001000000000000000100000000000000095500000000000000009999123100000010000000000000BRCEDOACNOR8096
012020091502CEDO4       010CEDRO       PN      N1   R$  000000000055900000000005680000000000550000000000056500000000005680000000000530000000000056800009000000000000001700000000000000960600000000000000009999123100000010000000000000BRCEDOACNPR5128
012020091502CEEB3       010COELBA      ON           R$  000000000409000000000041000000000003850000000000398000000000041000000000003950000000000409900014000000000000001400000000000005573100000000000000009999123100000010000000000000BRCEEBACNOR3179
012020091502CESP3       010CESP        ON      N1   R$  000000000324100000000032630000000003220000000000324800000000032200000000003219000000000327000008000000000000000800000000000002598700000000000000009999123100000010000000000000BRCESPACNOR3169
012020091502CESP6       010CESP        PNB     N1   R$  000000000289700000000029160000000002868000000000289400000000028990000000002899000000000290406861000000000002650800000000007671768200000000000000009999123100000010000000000000BRCESPACNPB4128
012020091502CGAS5       010COMGAS      PNA          R$  000000001850000000000188510000000018400000000001847900000000188510000000018850000000001889400010000000000000001100000000000020327600000000000000009999123100000010000000000000BRCGASACNPA3148
012020091502CGRA3       010GRAZZIOTIN  ON           R$  000000000271100000000028000000000002688000000000273400000000027080000000002680000000000275900037000000000000006300000000000017230400000000000000009999123100000010000000000000BRCGRAACNOR2071
012020091502CGRA4       010GRAZZIOTIN  PN           R$  000000000266100000000026850000000002653000000000266400000000026540000000002654000000000266500105000000000000022000000000000058610300000000000000009999123100000010000000000000BRCGRAACNPR9071
012020091502CHCM34      010CHARTER COMMDRN          R$  000000006608200000000660830000000066082000000006608200000000660830000000000000000000000000000002000000000000000770000000000050883710000000000000009999123100000010000000000000BRCHCMBDR001100
012020091502CHVX34      010CHEVRON     DRN          R$  000000002017100000000201710000000020171000000002017100000000201710000000000000000000002017100001000000000000000090000000000001815390000000000000009999123100000010000000000000BRCHVXBDR008138
012020091502CIEL3       010CIELO       ON      NM   R$  000000000047700000000004880000000000458000000000047500000000004600000000000460000000000046131167000000000107080300000000050966871700000000000000009999123100000010000000000000BRCIELACNOR3142
012020091502CLSC3       010CELESC      ON      N2   R$  000000000599900000000060000000000005651000000000584900000000059000000000005545000000000590000014000000000000001400000000000008189000000000000000009999123100000010000000000000BRCLSCACNOR6136
012020091502CLSC4       010CELESC      PN      N2   R$  000000000545000000000054500000000005404000000000542000000000054040000000005401000000000544400021000000000000003400000000000018429900000000000000009999123100000010000000000000BRCLSCACNPR3115
012020091502CMCS34      010COMCAST     DRN          R$  000000002465300000000246720000000024529000000002455000000000246640000000022000000000002466400020000000000000002520000000000061866600000000000000009999123100000010000000000000BRCMCSBDR008135
012020091502CMIG3       010CEMIG       ON      N1   R$  000000000115500000000011700000000001131000000000114000000000011370000000001137000000000113806832000000000003061600000000003490662000000000000000009999123100000010000000000000BRCMIGACNOR6224
012020091502CMIG4       010CEMIG       PN      N1   R$  000000000108900000000011000000000001058000000000107000000000010620000000001062000000000106332933000000000012173300000000013033759400000000000000009999123100000010000000000000BRCMIGACNPR3225
012020091502CNTO3       010CENTAURO    ON      NM   R$  000000000293000000000029690000000002852000000000290700000000029190000000002919000000000292004727000000000001187000000000003451411800000000000000009999123100000010000000000000BRCNTOACNOR5100
012020091502COCA34      010COCA COLA   DRN ED       R$  000000002700200000000270020000000026944000000002694500000000269930000000026700000000002750000082000000000000009070000000000244394220000000000000009999123100000010000000000000BRCOCABDR002136
012020091502COCE5       010COELCE      PNA          R$  000000000596100000000059670000000005889000000000592400000000059100000000005910000000000598900050000000000000007500000000000044435900000000000000009999123100000010000000000000BRCOCEACNPA3140
012020091502COGN3       010COGNA ON    ON      NM   R$  000000000060500000000006070000000000575000000000058300000000005800000000000580000000000058133213000000000059775300000000034903351800000000000000009999123100000010000000000000BRCOGNACNOR2101
012020091502COPH34      010COPHILLIPS  DRN          R$  000000000447400000000044780000000004474000000000447600000000044780000000000000000000000000000005000000000000004860000000000021753500000000000000009999123100000010000000000000BRCOPHBDR009135
012020091502COTY34      010COTY INC    DRN          R$  000000000090400000000009040000000000858000000000087800000000008580000000000801000000000094000024000000000000009630000000000008456360000000000000009999123100000010000000000000BRCOTYBDR006116
012020091502COWC34      010COSTCO      DRN          R$  000000004570000000000457490000000045508000000004556700000000455420000000045000000000000000000013000000000000001210000000000055136090000000000000009999123100000010000000000000BRCOWCBDR006119
012020091502CPFE3       010CPFL ENERGIAON      NM   R$  000000000301900000000030250000000002962000000000299100000000029700000000002970000000000297115870000000000003351200000000010026221400000000000000009999123100000010000000000000BRCPFEACNOR0130
012020091502CPLE3       010COPEL       ON      N1   R$  000000000621500000000063070000000006190000000000624200000000062510000000006251000000000625201845000000000000329800000000002058897000000000000000009999123100000010000000000000BRCPLEACNOR8139
012020091502CPLE6       010COPEL       PNB     N1   R$  000000000645600000000065630000000006442000000000651000000000065010000000006494000000000650504724000000000000727300000000004734792600000000000000009999123100000010000000000000BRCPLEACNPB9136
012020091502CRDE3       010CR2         ON           R$  000000000224900000000022490000000002249000000000224900000000022490000000002100000000000224900001000000000000000100000000000000224900000000000000009999123100000010000000000000BRCRDEACNOR1112
012020091502CRFB3       010CARREFOUR BRON      NM   R$  000000000206700000000021060000000002044000000000209000000000020920000000002090000000000209208727000000000003571100000000007465643300000000000000009999123100000010000000000000BRCRFBACNOR2107
012020091502CRIV3       010ALFA FINANC ON           R$  000000000056500000000006740000000000562000000000062500000000006150000000000615000000000065000101000000000000045700000000000028596800000000000000009999123100000010000000000000BRCRIVACNOR4194
012020091502CRIV4       010ALFA FINANC PN           R$  000000000062000000000007000000000000620000000000065800000000006600000000000630000000000066000040000000000000016200000000000010674500000000000000009999123100000010000000000000BRCRIVACNPR1204
012020091502CRPG3       010CRISTAL     ON           R$  000000000250000000000027000000000002500000000000258000000000025010000000002200000000000269900005000000000000000500000000000001290100000000000000009999123100000010000000000000BRCRPGACNOR0108
012020091502CRPG5       010CRISTAL     PNA          R$  000000000198000000000020430000000001979000000000200500000000020340000000002013000000000203500036000000000000006200000000000012435500000000000000009999123100000010000000000000BRCRPGACNPA3108
012020091502CRPG6       010CRISTAL     PNB          R$  000000000199900000000020000000000001999000000000199900000000020000000000001961000000000200000043000000000000006000000000000011998900000000000000009999123100000010000000000000BRCRPGACNPB1108
012020091502CSAN3       010COSAN       ON      NM   R$  000000000750000000000076430000000007401000000000754500000000075710000000007570000000000758910166000000000001697800000000012810147200000000000000009999123100000010000000000000BRCSANACNOR6120
012020091502CSCO34      010CISCO       DRN          R$  000000002144900000000214490000000021449000000002144900000000214490000000000000000000000000000017000000000000000230000000000004933270000000000000009999123100000010000000000000BRCSCOBDR004138
012020091502CSMG3       010COPASA      ON      NM   R$  000000000480300000000049530000000004796000000000487700000000048920000000004889000000000489207645000000000001301800000000006349312400000000000000009999123100000010000000000000BRCSMGACNOR5156
012020091502CSNA3       010SID NACIONALON           R$  000000000163800000000016740000000001614000000000165200000000016590000000001659000000000166026436000000000011663000000000019272251100000000000000009999123100000010000000000000BRCSNAACNOR6252
012020091502CTGP34      010CITIGROUP   DRN          R$  000000002418000000000241800000000023913000000002416900000000239130000000020466000000002391300002000000000000001250000000000030211650000000000000009999123100000010000000000000BRCTGPBDR000139
012020091502CTKA4       010KARSTEN     PN           R$  000000000118900000000011890000000001189000000000118900000000011890000000001169000000000119800003000000000000001300000000000001545700000000000000009999123100000010000000000000BRCTKAACNPR7043
012020091502CTNM3       010COTEMINAS   ON           R$  000000000108600000000010990000000001085000000000108600000000010990000000001085000000000109900004000000000000001100000000000001195100000000000000009999123100000010000000000000BRCTNMACNOR9130
012020091502CTNM4       010COTEMINAS   PN           R$  000000000056100000000005650000000000557000000000056000000000005570000000000557000000000056300043000000000000012500000000000007008400000000000000009999123100000010000000000000BRCTNMACNPR6129
012020091502CTSA3       010SANTANENSE  ON           R$  000000000025600000000002600000000000253000000000025600000000002600000000000253000000000026000009000000000000001600000000000000409800000000000000009999123100000010000000000000BRCTSAACNOR3060
012020091502CTSA4       010SANTANENSE  PN           R$  000000000022200000000002260000000000222000000000022300000000002250000000000221000000000022500029000000000000009900000000000002217100000000000000009999123100000010000000000000BRCTSAACNPR0060
012020091502CVCB3       010CVC BRASIL  ON      NM   R$  000000000177900000000018330000000001739000000000177600000000017480000000001748000000000175012104000000000004776900000000008484814300000000000000009999123100000010000000000000BRCVCBACNOR1113
012020091502CVSH34      010CVS HEALTH  DRN          R$  000000001537300000000153730000000015179000000001525500000000151790000000000000000000001690000017000000000000000390000000000005949710000000000000009999123100000010000000000000BRCVSHBDR008117
012020091502CYRE3       010CYRELA REALTON      NM   R$  000000000247000000000024850000000002407000000000243900000000024460000000002446000000000244822475000000000005396300000000013166887500000000000000009999123100000010000000000000BRCYREACNOR7134
012020091502D1EL34      010DELL TECHNOLDRN          R$  000000003580000000000358000000000035800000000003580000000000358000000000031000000000000000000001000000000000000050000000000001790000000000000000009999123100000010000000000000BRD1ELBDR009100
012020091502D1OM34      010DOMINION ENEDRN ED       R$  000000002115000000000213600000000021150000000002125500000000213600000000000000000000000000000002000000000000000140000000000002975700000000000000009999123100000010000000000000BRD1OMBDR006103
012020091502D1VN34      010DEVON ENERGYDRN ED       R$  000000000488300000000048830000000004883000000000488300000000048830000000000000000000000000000002000000000000000600000000000002929800000000000000009999123100000010000000000000BRD1VNBDR009104
012020091502D1XC34      010DXC TECHNOLODRN          R$  000000001059400000000105940000000010594000000001059400000000105940000000000000000000000000000001000000000000000010000000000000105940000000000000009999123100000010000000000000BRD1XCBDR008101
012020091502DEAI34      010DELTA       DRN          R$  000000001784000000000178600000000017680000000001777800000000176800000000011500000000001820300009000000000000000140000000000002489000000000000000009999123100000010000000000000BRDEAIBDR008116
012020091502DGCO34      010DOLLAR GENERDRN          R$  000000005350000000000535000000000053500000000005350000000000535000000000000000000000000000000001000000000000000100000000000005350000000000000000009999123100000010000000000000BRDGCOBDR007105
012020091502DIRR3       010DIRECIONAL  ON      NM   R$  000000000155200000000015740000000001472000000000149400000000014850000000001484000000000148507157000000000001614600000000002412474500000000000000009999123100000010000000000000BRDIRRACNOR0112
012020091502DISB34      010WALT DISNEY DRN          R$  000000007023000000000702300000000069410000000006959500000000694100000000068500000000007100000052000000000000003730000000000259591020000000000000009999123100000010000000000000BRDISBBDR006114
012020091502DMMO3       010DOMMO       ON           R$  000000000012100000000001240000000000118000000000012000000000001200000000000120000000000012100794000000000002093600000000000251643300000000000000009999123100000010000000000000BRDMMOACNOR0102
012020091502DMVF3       010D1000VFARMA ON      NM   R$  000000000115000000000011560000000001112000000000112000000000011120000000001112000000000111700881000000000000192600000000000215789200000000000000009999123100000010000000000000BRDMVFACNOR9100
012020091502DOHL3       010DOHLER      ON           R$  000000000170000000000017000000000001700000000000170000000000017000000000001200000000000169000002000000000000000200000000000000340000000000000000009999123100000010000000000000BRDOHLACNOR2058
012020091502DOHL4       010DOHLER      PN           R$  000000000050900000000005150000000000486000000000050100000000005150000000000500000000000051500015000000000000003600000000000001804900000000000000009999123100000010000000000000BRDOHLACNPR9061
012020091502DTCY3       010DTCOM-DIRECTON           R$  000000000064600000000006470000000000645000000000064500000000006460000000000646000000000065500008000000000000001200000000000000774900000000000000009999123100000010000000000000BRDTCYACNOR5109
012020091502DTEX3       010DURATEX     ON      NM   R$  000000000177200000000017800000000001736000000000175300000000017410000000001740000000000174308698000000000001780400000000003121150800000000000000009999123100000010000000000000BRDTEXACNOR3128
012020091502E1TN34      010EATON CORP PDRN          R$  000000002760000000000276000000000027600000000002760000000000276000000000000000000000000000000001000000000000000150000000000004140000000000000000009999123100000010000000000000BRE1TNBDR002103
012020091502EAIN34      010ELECTR ARTS DRN          R$  000000003418800000000343190000000034021000000003418200000000340210000000033000000000003650000003000000000000000070000000000002392800000000000000009999123100000010000000000000BREAINBDR007100
012020091502EALT3       010ACO ALTONA  ON           R$  000000000120300000000012030000000001200000000000120100000000012000000000001200000000000125000002000000000000000800000000000000961500000000000000009999123100000010000000000000BREALTACNOR4133
012020091502EALT4       010ACO ALTONA  PN           R$  000000000052300000000005250000000000514000000000051700000000005160000000000515000000000051900038000000000000016700000000000008637700000000000000009999123100000010000000000000BREALTACNPR1133
012020091502ECOR3       010ECORODOVIAS ON      NM   R$  000000000136000000000013720000000001317000000000133500000000013330000000001332000000000133310765000000000003391300000000004528168200000000000000009999123100000010000000000000BRECORACNOR8116
012020091502ECPR4       010ENCORPAR    PN           R$  000000000749800000000074980000000007498000000000749800000000074980000000000000000000000749900002000000000000000200000000000001499600000000000000009999123100000010000000000000BRECPRACNPR2111
012020091502EEEL4       010CEEE-GT     PN      N1   R$  000000003675000000000367500000000036750000000003675000000000367500000000034001000000003998800002000000000000000200000000000007350000000000000000009999123100000010000000000000BREEELACNPR5107
012020091502EGIE3       010ENGIE BRASILON      NM   R$  000000000433300000000043870000000004289000000000435700000000043740000000004374000000000437508589000000000001528000000000006658481400000000000000009999123100000010000000000000BREGIEACNOR9113
012020091502ELET3       010ELETROBRAS  ON      N1   R$  000000000345400000000035000000000003297000000000334500000000033100000000003309000000000331025186000000000007362000000000024627138700000000000000009999123100000010000000000000BRELETACNOR6155
012020091502ELET6       010ELETROBRAS  PNB     N1   R$  000000000354900000000035790000000003412000000000346000000000034560000000003454000000000345614191000000000003573600000000012366247100000000000000009999123100000010000000000000BRELETACNPB7072
012020091502EMAE4       010EMAE        PN           R$  000000000340300000000034500000000003302000000000334000000000033020000000003302000000000338500012000000000000002900000000000009686600000000000000009999123100000010000000000000BREMAEACNPR1114
012020091502EMBR3       010EMBRAER     ON      NM   R$  000000000069700000000007000000000000679000000000068500000000006870000000000686000000000068710945000000000006830000000000004685062800000000000000009999123100000010000000000000BREMBRACNOR4189
012020091502ENAT3       010ENAUTA PART ON      NM   R$  000000000109000000000010970000000001063000000000107800000000010700000000001070000000000107203016000000000000665400000000000717337200000000000000009999123100000010000000000000BRENATACNOR0101
012020091502ENBR3       010ENERGIAS BR ON      NM   R$  000000000185400000000018800000000001837000000000185100000000018600000000001857000000000186011341000000000002613200000000004837941700000000000000009999123100000010000000000000BRENBRACNOR2129
012020091502ENEV3       010ENEVA       ON      NM   R$  000000000477600000000048650000000004740000000000481400000000048240000000004808000000000482405935000000000000883000000000004251149800000000000000009999123100000010000000000000BRENEVACNOR8104
012020091502ENGI3       010ENERGISA    ON      N2   R$  000000000136800000000013680000000001321000000000135100000000013210000000001300000000000132900041000000000000005200000000000007028800000000000000009999123100000010000000000000BRENGIACNOR0138
012020091502ENGI4       010ENERGISA    PN      N2   R$  000000000078700000000007980000000000771000000000078100000000007830000000000778000000000078400057000000000000010600000000000008284600000000000000009999123100000010000000000000BRENGIACNPR7134
012020091502ENGI11      010ENERGISA    UNT     N2   R$  000000000452800000000045500000000004426000000000448800000000044460000000004446000000000444808665000000000002442300000000010962362000000000000000009999123100000010000000000000BRENGICDAM16128
012020091502ENMT3       010ENERGISA MT ON           R$  000000000299000000000029900000000002950000000000296000000000029900000000002600000000000299000004000000000000000800000000000002368000000000000000009999123100000010000000000000BRENMTACNOR5111
012020091502ENMT4       010ENERGISA MT PN           R$  000000000299000000000029900000000002990000000000299000000000029900000000002600000000000299000001000000000000000100000000000000299000000000000000009999123100000010000000000000BRENMTACNPR2114
012020091502EQIX34      010EQUINIX INC DRN          R$  000000008146600000000814660000000081466000000008146600000000814660000000000000000000000000000001000000000000000020000000000001629320000000000000009999123100000010000000000000BREQIXBDR002106
012020091502EQPA3       010EQTL PARA   ON           R$  000000000033200000000003400000000000324000000000032800000000003260000000000326000000000033300053000000000000009100000000000002991000000000000000009999123100000010000000000000BREQPAACNOR1101
012020091502EQPA7       010EQTL PARA   PNC          R$  000000000055000000000005700000000000550000000000056600000000005700000000000570000000000058900003000000000000000500000000000000283000000000000000009999123100000010000000000000BREQPAACNPC0101
012020091502EQTL3       010EQUATORIAL  ON      NM   R$  000000000233000000000023300000000002275000000000228600000000022780000000002278000000000227919958000000000005996100000000013708513400000000000000009999123100000010000000000000BREQTLACNOR0126
012020091502ESTR4       010ESTRELA     PN           R$  000000000290000000000030000000000002900000000000298000000000029600000000002910000000000300000007000000000000000700000000000002086000000000000000009999123100000010000000000000BRESTRACNPR0143
012020091502EUCA3       010EUCATEX     ON      N1   R$  000000000230000000000023000000000002280000000000228700000000022810000000002280000000000230000011000000000000001500000000000003431600000000000000009999123100000010000000000000BREUCAACNOR1151
012020091502EUCA4       010EUCATEX     PN      N1   R$  000000000072500000000007280000000000664000000000068300000000006710000000000670000000000067200427000000000000158400000000000108290400000000000000009999123100000010000000000000BREUCAACNPR8038
012020091502EVEN3       010EVEN        ON      NM   R$  000000000129300000000012960000000001249000000000126700000000012830000000001280000000000128407808000000000001797900000000002279021200000000000000009999123100000010000000000000BREVENACNOR8112
012020091502EXXO34      010EXXON MOBIL DRN          R$  000000000484100000000048560000000004800000000000481900000000048090000000004781000000000480900027000000000000001890000000000009109150000000000000009999123100000010000000000000BREXXOBDR006140
012020091502EZTC3       010EZTEC       ON      NM   R$  000000000410000000000041440000000004035000000000408500000000041050000000004100000000000410510200000000000001609800000000006576859700000000000000009999123100000010000000000000BREZTCACNOR0114
012020091502F1IS34      010FISERV INC  DRN          R$  000000002660000000000266500000000026549000000002660900000000266500000000000000000000000000000004000000000000000830000000000022085880000000000000009999123100000010000000000000BRF1ISBDR003100
012020091502F1NI34      010FIDELITY NATDRN ED       R$  000000001956200000000196410000000019540000000001958000000000196410000000000000000000000000000004000000000000001240000000000024279740000000000000009999123100000010000000000000BRF1NIBDR004103
012020091502FBOK34      010FACEBOOK    DRN          R$  000000007114600000000726510000000070901000000007188100000000724950000000071000000000007968800064000000000000010420000000000749008250000000000000009999123100000010000000000000BRFBOKBDR006100
012020091502FCXO34      010FREEPORT    DRN          R$  000000000875900000000087590000000008759000000000875900000000087590000000000000000000000000000001000000000000000070000000000000613130000000000000009999123100000010000000000000BRFCXOBDR007132
012020091502FESA4       010FERBASA     PN  EJ  N1   R$  000000000181600000000018440000000001803000000000182800000000018380000000001825000000000183800733000000000000188900000000000345495400000000000000009999123100000010000000000000BRFESAACNPR5067
012020091502FLRY3       010FLEURY      ON      NM   R$  000000000293100000000029490000000002892000000000292300000000029170000000002917000000000291811793000000000001812100000000005298571300000000000000009999123100000010000000000000BRFLRYACNOR5127
012020091502FRAS3       010FRAS-LE     ON      N1   R$  000000000053900000000005450000000000533000000000053900000000005420000000000537000000000054200238000000000000077200000000000041654000000000000000009999123100000010000000000000BRFRASACNOR0149
012020091502GEOO34      010GE          DRN          R$  000000000322000000000032300000000003211000000000321900000000032300000000002989000000000323000017000000000000000650000000000002092530000000000000009999123100000010000000000000BRGEOOBDR000140
012020091502GEPA3       010GER PARANAP ON           R$  000000000419300000000041930000000004193000000000419300000000041930000000004193000000000435900001000000000000000100000000000000419300000000000000009999123100000010000000000000BRGEPAACNOR2146
012020091502GEPA4       010GER PARANAP PN           R$  000000000461700000000046180000000004537000000000459100000000046150000000004552000000000461800007000000000000000700000000000003214100000000000000009999123100000010000000000000BRGEPAACNPR9153
012020091502GFSA3       010GAFISA      ON      NM   R$  000000000047200000000004770000000000462000000000046800000000004650000000000465000000000046703307000000000003264400000000001528663000000000000000009999123100000010000000000000BRGFSAACNOR3119
012020091502GGBR3       010GERDAU      ON      N1   R$  000000000168600000000017730000000001672000000000174900000000017650000000001752000000000176500762000000000000244100000000000427062400000000000000009999123100000010000000000000BRGGBRACNOR1173
012020091502GGBR4       010GERDAU      PN      N1   R$  000000000203300000000021550000000002006000000000212100000000021450000000002142000000000214546734000000000024642600000000052276256300000000000000009999123100000010000000000000BRGGBRACNPR8173
012020091502GILD34      010GILEAD      DRN ED       R$  000000001760000000000176200000000017600000000001760400000000176000000000000000000000000000000012000000000000000140000000000002464600000000000000009999123100000010000000000000BRGILDBDR000118
012020091502GMCO34      010GENERAL MOT DRN          R$  000000001645000000000168190000000016450000000001671100000000167310000000016700000000000000000004000000000000001030000000000017213180000000000000009999123100000010000000000000BRGMCOBDR008115
012020091502GNDI3       010INTERMEDICA ON      NM   R$  000000000732900000000073290000000006998000000000712400000000071270000000007127000000000713014438000000000002776100000000019778473000000000000000009999123100000010000000000000BRGNDIACNOR2102
012020091502GOAU3       010GERDAU MET  ON      N1   R$  000000000081000000000008450000000000799000000000082800000000008450000000000839000000000084500539000000000000202600000000000167905000000000000000009999123100000010000000000000BRGOAUACNOR1250
012020091502GOAU4       010GERDAU MET  PN      N1   R$  000000000091800000000009670000000000909000000000095000000000009620000000000961000000000096223832000000000024927100000000023693609200000000000000009999123100000010000000000000BRGOAUACNPR8251
012020091502GOGL34      010ALPHABET    DRN A        R$  000000003207300000000328000000000032073000000003244800000000324820000000032200000000003248200104000000000000028500000000000924789080000000000000009999123100000010000000000000BRGOGLBDR001100
012020091502GOGL35      010ALPHABET    DRN C        R$  000000003252100000000326480000000032483000000003256400000000326480000000000000000000003264800036000000000000003930000000000127979090000000000000009999123100000010000000000000BRGOGLBDR019100
012020091502GOLL4       010GOL         PN      N2   R$  000000000214500000000021970000000002082000000000212100000000020860000000002085000000000208622743000000000010490000000000022258165800000000000000009999123100000010000000000000BRGOLLACNPR4125
012020091502GPIV33      010GP INVEST   DR3          R$  000000000050500000000005190000000000483000000000049200000000004890000000000489000000000049100189000000000000122000000000000060099700000000000000009999123100000010000000000000BRGPIVBDR003104
012020091502GRND3       010GRENDENE    ON      NM   R$  000000000079200000000007980000000000777000000000078600000000007840000000000784000000000078903054000000000001267900000000000996623300000000000000009999123100000010000000000000BRGRNDACNOR3158
012020091502GSGI34      010GOLDMANSACHSDRN          R$  000000001065000000000106500000000010579000000001060600000000105790000000000000000000000000000019000000000000000420000000000004454880000000000000009999123100000010000000000000BRGSGIBDR008140
012020091502GSHP3       010GENERALSHOPPON      NM   R$  000000000480000000000048000000000004800000000000480000000000048000000000004780000000000550000001000000000000000100000000000000480000000000000000009999123100000010000000000000BRGSHPACNOR7102
012020091502GUAR3       010GUARARAPES  ON           R$  000000000174900000000017680000000001687000000000171100000000017080000000001707000000000170803790000000000000977600000000001673414800000000000000009999123100000010000000000000BRGUARACNOR4165
012020091502HAGA3       010HAGA S/A    ON           R$  000000000034500000000003590000000000322000000000033200000000003230000000000323000000000033300077000000000000018700000000000006222600000000000000009999123100000010000000000000BRHAGAACNOR7103
012020091502HAGA4       010HAGA S/A    PN           R$  000000000020000000000002080000000000197000000000019900000000001980000000000197000000000019900056000000000000017400000000000003479100000000000000009999123100000010000000000000BRHAGAACNPR4103
012020091502HALI34      010HALLIBURTON DRN          R$  000000000763400000000076450000000007634000000000763500000000076450000000006040000000000000000008000000000000004150000000000031687100000000000000009999123100000010000000000000BRHALIBDR004135
012020091502HAPV3       010HAPVIDA     ON  EJ  NM   R$  000000000666300000000066650000000006422000000000655900000000066050000000006605000000000661610586000000000001775000000000011642989900000000000000009999123100000010000000000000BRHAPVACNOR4106
012020091502HBOR3       010HELBOR      ON      NM   R$  000000000117000000000011870000000001134000000000115700000000011520000000001151000000000115202317000000000001472000000000001703418600000000000000009999123100000010000000000000BRHBORACNOR3114
012020091502HBTS5       010HABITASUL   PNA          R$  000000000230000000000025000000000002300000000000241100000000025000000000002500000000000260000004000000000000000900000000000002170000000000000000009999123100000010000000000000BRHBTSACNPA3124
012020091502HETA4       010HERCULES    PN           R$  000000000073700000000008580000000000737000000000081300000000007530000000000755000000000082000013000000000000001800000000000001464300000000000000009999123100000010000000000000BRHETAACNPR9136
012020091502HGTX3       010CIA HERING  ON      NM   R$  000000000197700000000020090000000001890000000000191500000000018980000000001898000000000189914942000000000004895700000000009377621000000000000000009999123100000010000000000000BRHGTXACNOR9151
012020091502HOME34      010HOME DEPOT  DRN          R$  000000007555800000000755580000000075558000000007555800000000755580000000000000000000000000000001000000000000000700000000000052890600000000000000009999123100000010000000000000BRHOMEBDR002134
012020091502HOND34      010HONDA MO    DRN          R$  000000001346200000000134620000000013462000000001346200000000134620000000000000000000000000000001000000000000000020000000000000269240000000000000009999123100000010000000000000BRHONDBDR002103
012020091502HYPE3       010HYPERA      ON      NM   R$  000000000313600000000032240000000003100000000000317400000000031640000000003164000000000316820093000000000003459600000000010983856600000000000000009999123100000010000000000000BRHYPEACNOR0122
012020091502IDVL3       010INDUSVAL    ON      N2   R$  000000000024700000000002530000000000246000000000024900000000002530000000000249000000000025500009000000000000002400000000000000598100000000000000009999123100000010000000000000BRIDVLACNOR5130
012020091502IDVL4       010INDUSVAL    PN      N2   R$  000000000025400000000002540000000000247000000000025200000000002520000000000243000000000025300009000000000000001800000000000000453800000000000000009999123100000010000000000000BRIDVLACNPR2130
012020091502IGTA3       010IGUATEMI    ON      NM   R$  000000000360100000000036560000000003563000000000361000000000036070000000003607000000000360814489000000000002270900000000008199902700000000000000009999123100000010000000000000BRIGTAACNOR5124
012020091502IRBR3       010IRBBRASIL REON      NM   R$  000000000061900000000006270000000000592000000000060100000000005920000000000592000000000059424021000000000025532800000000015370738900000000000000009999123100000010000000000000BRIRBRACNOR4108
012020091502ITLC34      010INTEL       DRN          R$  000000002673100000000268140000000026505000000002662100000000265520000000025600000000002655200021000000000000000350000000000009317540000000000000009999123100000010000000000000BRITLCBDR005139
012020091502ITSA3       010ITAUSA      ON      N1   R$  000000000106600000000010710000000001057000000000106200000000010580000000001058000000000105900419000000000000088700000000000094262100000000000000009999123100000010000000000000BRITSAACNOR0401
012020091502ITSA4       010ITAUSA      PN      N1   R$  000000000094900000000009490000000000924000000000093100000000009260000000000925000000000092639315000000000028980600000000027008457700000000000000009999123100000010000000000000BRITSAACNPR7401
012020091502ITUB3       010ITAUUNIBANCOON      N1   R$  000000000228500000000022850000000002243000000000225400000000022470000000002247000000000225001404000000000000269400000000000607475800000000000000009999123100000010000000000000BRITUBACNOR4273
012020091502ITUB4       010ITAUUNIBANCOPN      N1   R$  000000000241700000000024230000000002360000000000238300000000023730000000002373000000000237457563000000000029225600000000069654662000000000000000009999123100000010000000000000BRITUBACNPR1273
012020091502JBDU3       010J B DUARTE  ON           R$  000000000020500000000002070000000000198000000000020400000000002070000000000207000000000020800025000000000000009000000000000001841400000000000000009999123100000010000000000000BRJBDUACNOR6142
012020091502JBDU4       010J B DUARTE  PN           R$  000000000012200000000001310000000000115000000000012100000000001230000000000123000000000012700084000000000000032000000000000003902500000000000000009999123100000010000000000000BRJBDUACNPR3142
012020091502JBSS3       010JBS         ON      NM   R$  000000000235600000000024190000000002261000000000236100000000024100000000002409000000000241046986000000000026191800000000061847380700000000000000009999123100000010000000000000BRJBSSACNOR8115
012020091502JDCO34      010JD COM      DRN          R$  000000004126400000000412640000000040739000000004125900000000407390000000040700000000004700000004000000000000003150000000000129968170000000000000009999123100000010000000000000BRJDCOBDR001100
012020091502JHSF3       010JHSF PART   ON      NM   R$  000000000077500000000007880000000000750000000000076700000000007500000000000750000000000075116067000000000012099700000000009289602900000000000000009999123100000010000000000000BRJHSFACNOR2116
012020091502JNJB34      010JOHNSON     DRN          R$  000000007933900000000793390000000078800000000007884600000000789270000000078000000000007892700027000000000000002330000000000183712550000000000000009999123100000010000000000000BRJNJBBDR002135
012020091502JOPA3       010JOSAPAR     ON           R$  000000000330000000000033550000000003300000000000333300000000033550000000003250000000000335500004000000000000000500000000000001666500000000000000009999123100000010000000000000BRJOPAACNOR5131
012020091502JPMC34      010JPMORGAN    DRN          R$  000000002700000000000271000000000026361000000002646500000000263920000000026300000000002639200089000000000000015760000000000417100450000000000000009999123100000010000000000000BRJPMCBDR009134
012020091502JPSA3       010JEREISSATI  ON           R$  000000000237300000000023880000000002321000000000235100000000023500000000002344000000000235500664000000000000137100000000000322338100000000000000009999123100000010000000000000BRJPSAACNOR6103
012020091502JSLG11      010JSL         ON  P   NM   R$  000000000095000000000009500000000000905000000000092100000000009200000000000915000000000092000420000000000000626300000000000577280500000000000000009999123100000010000000000000BRJSLGA02OR1100
012020091502JSLG3       010JSL         ON      NM   R$  000000000322200000000032510000000003080000000000311500000000030800000000003080000000000308802954000000000000715800000000002230207700000000000000009999123100000010000000000000BRJSLGACNOR2114
012020091502KEPL3       010KEPLER WEBERON           R$  000000000426900000000043150000000004260000000000429400000000042880000000004286000000000428800606000000000000110500000000000474545800000000000000009999123100000010000000000000BRKEPLACNOR1049
012020091502KHCB34      010KRAFT HEINZ DRN          R$  000000001713800000000172830000000017017000000001720400000000170170000000016500000000001710000014000000000000003080000000000052988860000000000000009999123100000010000000000000BRKHCBBDR007121
012020091502KLBN3       010KLABIN S/A  ON      N2   R$  000000000051800000000005380000000000515000000000052600000000005370000000000537000000000053800854000000000000229800000000000120889000000000000000009999123100000010000000000000BRKLBNACNOR2156
012020091502KLBN4       010KLABIN S/A  PN      N2   R$  000000000048900000000005050000000000483000000000049600000000005030000000000502000000000050301730000000000001058500000000000525347300000000000000009999123100000010000000000000BRKLBNACNPR9156
012020091502KLBN11      010KLABIN S/A  UNT     N2   R$  000000000248400000000025590000000002448000000000250900000000025500000000002550000000000255220919000000000005189300000000013023969700000000000000009999123100000010000000000000BRKLBNCDAM18128
012020091502L1HX34      010L3HARRIS TECDRN ED       R$  000000002380000000000238000000000023800000000002380000000000238000000000000000000000000000000001000000000000000100000000000002380000000000000000009999123100000010000000000000BRL1HXBDR007103
012020091502LAME3       010LOJAS AMERICON      N1   R$  000000000267800000000026950000000002623000000000265800000000026920000000002685000000000269409991000000000002199800000000005848532600000000000000009999123100000010000000000000BRLAMEACNOR9202
012020091502LAME4       010LOJAS AMERICPN      N1   R$  000000000313000000000031340000000003062000000000310500000000031260000000003119000000000312616006000000000003972500000000012338145400000000000000009999123100000010000000000000BRLAMEACNPR6202
012020091502LAVV3       010LAVVI       ON      NM   R$  000000000081200000000008140000000000784000000000080000000000008050000000000803000000000080502805000000000001367400000000001095197000000000000000009999123100000010000000000000BRLAVVACNOR4100
012020091502LBRN34      010L BRANDS    DRN          R$  000000000385300000000038530000000003853000000000385300000000038530000000000000000000000000000001000000000000000220000000000000847660000000000000009999123100000010000000000000BRLBRNBDR001119
012020091502LCAM3       010LOCAMERICA  ON      NM   R$  000000000222500000000022500000000002149000000000218000000000021710000000002163000000000217110588000000000003073200000000006702115500000000000000009999123100000010000000000000BRLCAMACNOR3133
012020091502LEVE3       010METAL LEVE  ON      NM   R$  000000000180400000000018120000000001772000000000178700000000017750000000001775000000000178501898000000000000499900000000000893742400000000000000009999123100000010000000000000BRLEVEACNOR2187
012020091502LIGT3       010LIGHT S/A   ON      NM   R$  000000000150000000000015070000000001454000000000147900000000014820000000001473000000000148210692000000000002514400000000003719188400000000000000009999123100000010000000000000BRLIGTACNOR2120
012020091502LINX3       010LINX        ON      NM   R$  000000000362500000000036350000000003565000000000359900000000036160000000003609000000000361604315000000000000715100000000002574022100000000000000009999123100000010000000000000BRLINXACNOR0118
012020091502LJQQ3       010QUERO-QUERO ON      NM   R$  000000000147300000000015090000000001444000000000148700000000015090000000001506000000000150902712000000000000831000000000001235712800000000000000009999123100000010000000000000BRLJQQACNOR5100
012020091502LMTB34      010LOCKHEED    DRN          R$  000000020751100000002075110000000207511000000020751100000002075110000000000000000000000000000001000000000000000100000000000020751100000000000000009999123100000010000000000000BRLMTBBDR009134
012020091502LOGG3       010LOG COM PROPON      NM   R$  000000000312300000000031780000000003076000000000313200000000031400000000003133000000000314301694000000000000268300000000000840342900000000000000009999123100000010000000000000BRLOGGACNOR7103
012020091502LOGN3       010LOG-IN      ON      NM   R$  000000000185900000000018670000000001786000000000181100000000018000000000001799000000000180003704000000000001043900000000001890758400000000000000009999123100000010000000000000BRLOGNACNOR3104
012020091502LPSB3       010LOPES BRASILON      NM   R$  000000000059500000000006000000000000561000000000057400000000005660000000000566000000000057103118000000000001300800000000000746825700000000000000009999123100000010000000000000BRLPSBACNOR0111
012020091502LREN3       010LOJAS RENNERON      NM   R$  000000000451400000000045340000000004370000000000442800000000044260000000004426000000000443026005000000000006499300000000028782083300000000000000009999123100000010000000000000BRLRENACNOR1203
012020091502LUXM4       010TREVISA     PN           R$  000000000464900000000046490000000004636000000000464200000000046360000000004550000000000465000002000000000000000200000000000000928500000000000000009999123100000010000000000000BRLUXMACNPR4047
012020091502LWSA3       010LOCAWEB     ON      NM   R$  000000000616100000000062710000000005960000000000615200000000061000000000006100000000000610309970000000000001571800000000009670460500000000000000009999123100000010000000000000BRLWSAACNOR8100
012020091502M1CH34      010MICROCHIP TEDRN          R$  000000002740000000000274000000000027400000000002740000000000274000000000000000000000000000000001000000000000000110000000000003014000000000000000009999123100000010000000000000BRM1CHBDR000103
012020091502MACY34      010MACY S      DRN          R$  000000000377700000000037770000000003765000000000377100000000037650000000002600000000000890000004000000000000000040000000000000150840000000000000009999123100000010000000000000BRMACYBDR000116
012020091502MAPT4       010CEMEPE      PN           R$  000000000465000000000046500000000004106000000000443700000000041410000000004106000000000450000017000000000000001700000000000007543800000000000000009999123100000010000000000000BRMAPTACNPR5106
012020091502MCDC34      010MCDONALDS   DRN          R$  000000002950200000000295490000000029300000000002943500000000293990000000029250000000002955000019000000000000001360000000000040032350000000000000009999123100000010000000000000BRMCDCBDR000140
012020091502MDIA3       010M.DIASBRANCOON      NM   R$  000000000374000000000038550000000003711000000000379400000000038120000000003785000000000381207686000000000001477800000000005606960700000000000000009999123100000010000000000000BRMDIAACNOR7118
012020091502MDNE3       010MOURA DUBEUXON      NM   R$  000000000089400000000009030000000000872000000000088400000000008850000000000883000000000088800595000000000000156400000000000138407400000000000000009999123100000010000000000000BRMDNEACNOR9100
012020091502MDTC34      010MEDTRONIC   DRN          R$  000000002868900000000286890000000028689000000002868900000000286890000000000000000000000000000001000000000000000010000000000000286890000000000000009999123100000010000000000000BRMDTCBDR004117
012020091502MEAL3       010IMC S/A     ON      NM   R$  000000000038300000000003860000000000366000000000037000000000003690000000000368000000000036915209000000000020238400000000007503941100000000000000009999123100000010000000000000BRMEALACNOR9105
012020091502MELI34      010MERCADOLIBREDRN          R$  000000005520000000000555050000000053701000000005448900000000547620000000054500000000005476200107000000000000008530000000000464795040000000000000009999123100000010000000000000BRMELIBDR006100
012020091502MERC4       010MERC FINANC PN           R$  000000000119800000000011980000000001198000000000119800000000011980000000001185000000000127900001000000000000000100000000000000119800000000000000009999123100000010000000000000BRMERCACNPR9173
012020091502MGEL4       010MANGELS INDLPN           R$  000000000058600000000005900000000000560000000000057400000000005690000000000569000000000059000015000000000000007400000000000004248700000000000000009999123100000010000000000000BRMGELACNPR3147
012020091502MGLU3       010MAGAZ LUIZA ON      NM   R$  000000000914100000000092440000000008908000000000899600000000089580000000008958000000000896045099000000000011389300000000102463927600000000000000009999123100000010000000000000BRMGLUACNOR2116
012020091502MILS3       010MILLS       ON      NM   R$  000000000070200000000007070000000000671000000000068000000000006710000000000671000000000067302564000000000001410300000000000960382300000000000000009999123100000010000000000000BRMILSACNOR2112
012020091502MMMC34      0103M          DRN          R$  000000002206000000000221100000000022060000000002210500000000221100000000015000000000000000000013000000000000001120000000000024758060000000000000009999123100000010000000000000BRMMMCBDR000134
012020091502MNDL3       010MUNDIAL     ON           R$  000000000249800000000024980000000002350000000000239800000000023500000000002302000000000235000004000000000000000600000000000001438800000000000000009999123100000010000000000000BRMNDLACNOR4107
012020091502MNPR3       010MINUPAR     ON           R$  000000000056200000000006140000000000560000000000056800000000006140000000000577000000000061200055000000000000023400000000000013299000000000000000009999123100000010000000000000BRMNPRACNOR5122
012020091502MOAR3       010MONT ARANHA ON           R$  000000002040000000000204000000000020400000000002040000000000204000000000019350000000002040000001000000000000000100000000000002040000000000000000009999123100000010000000000000BRMOARACNOR5212
012020091502MOOO34      010ALTRIA GROUPDRN ED       R$  000000002279900000000227990000000022799000000002279900000000227990000000000000000000000000000001000000000000000010000000000000227990000000000000009999123100000010000000000000BRMOOOBDR007105
012020091502MOVI3       010MOVIDA      ON      NM   R$  000000000178500000000017980000000001739000000000177300000000017590000000001758000000000175909842000000000002197700000000003898444500000000000000009999123100000010000000000000BRMOVIACNOR0111
012020091502MRCK34      010MERCK       DRN ED       R$  000000004479600000000447960000000044397000000004444300000000443970000000000000000000004550000003000000000000000340000000000015110940000000000000009999123100000010000000000000BRMRCKBDR003140
012020091502MRFG3       010MARFRIG     ON      NM   R$  000000000168500000000017140000000001590000000000166700000000017110000000001710000000000171136065000000000016178300000000026981176000000000000000009999123100000010000000000000BRMRFGACNOR0109
012020091502MRVE3       010MRV         ON      NM   R$  000000000179700000000018000000000001735000000000175900000000017620000000001760000000000176311801000000000002583200000000004544021200000000000000009999123100000010000000000000BRMRVEACNOR2120
012020091502MSCD34      010MASTERCARD  DRN          R$  000000018120000000001812000000000179500000000018043200000001795000000000151600000000000000000003000000000000000250000000000045108000000000000000009999123100000010000000000000BRMSCDBDR006137
012020091502MSFT34      010MICROSOFT   DRN          R$  000000010931500000001109000000000109315000000010995700000001101870000000109500000000011018700065000000000000006920000000000760903460000000000000009999123100000010000000000000BRMSFTBDR005139
012020091502MSPA4       010MELHOR SP   PN           R$  000000000479900000000047990000000004433000000000461600000000044330000000004210000000000479900002000000000000000200000000000000923200000000000000009999123100000010000000000000BRMSPAACNPR7125
012020091502MTRE3       010MITRE REALTYON      NM   R$  000000000154500000000015450000000001487000000000150900000000015110000000001511000000000151602066000000000000350200000000000528524500000000000000009999123100000010000000000000BRMTREACNOR6100
012020091502MTSA4       010METISA      PN           R$  000000000263000000000026990000000002630000000000266200000000026600000000002660000000000267000015000000000000002900000000000007721700000000000000009999123100000010000000000000BRMTSAACNPR9056
012020091502MULT3       010MULTIPLAN   ON      N2   R$  000000000228300000000022990000000002223000000000225700000000022590000000002259000000000226125728000000000005375400000000012133038900000000000000009999123100000010000000000000BRMULTACNOR5127
012020091502MYPK3       010IOCHP-MAXIONON      NM   R$  000000000136400000000013760000000001301000000000132900000000013100000000001310000000000131208529000000000001874000000000002491072400000000000000009999123100000010000000000000BRMYPKACNOR7148
012020091502N1CL34      010NORWEGIAN CRDRN          R$  000000000914700000000091470000000009147000000000914700000000091470000000000000000000001300000001000000000000000010000000000000091470000000000000009999123100000010000000000000BRN1CLBDR001100
012020091502N1DA34      010NASDAQ INC  DRN ED       R$  000000003390000000000339000000000033900000000003390000000000339000000000000000000000000000000001000000000000000100000000000003390000000000000000009999123100000010000000000000BRN1DABDR002103
012020091502N1EM34      010NEWMONT GOLDDRN ED       R$  000000003596900000000360000000000035964000000003597600000000359900000000033000000000000000000008000000000000000110000000000003957360000000000000009999123100000010000000000000BRN1EMBDR005103
012020091502NEOE3       010NEOENERGIA  ON      NM   R$  000000000181600000000018350000000001779000000000179100000000017900000000001790000000000179806919000000000001933900000000003464281400000000000000009999123100000010000000000000BRNEOEACNOR3111
012020091502NFLX34      010NETFLIX     DRN          R$  000000025450000000002628000000000254500000000026227500000002612000000000248176000000027500000015000000000000000950000000000249161950000000000000009999123100000010000000000000BRNFLXBDR000101
012020091502NOKI34      010NOKIA CORP  DRN          R$  000000000220100000000022010000000002201000000000220100000000022010000000002201000000000000000003000000000000001010000000000002223010000000000000009999123100000010000000000000BRNOKIBDR005100
012020091502NORD3       010NORDON MET  ON           R$  000000000053200000000005650000000000531000000000054700000000005640000000000528000000000056300009000000000000000900000000000000492700000000000000009999123100000010000000000000BRNORDACNOR7135
012020091502NTCO3       010GRUPO NATURAON      NM   R$  000000000540000000000054260000000005274000000000536900000000053500000000005350000000000537324116000000000004826800000000025916912000000000000000009999123100000010000000000000BRNTCOACNOR5101
012020091502NVDC34      010NVIDIA CORP DRN          R$  000000006936100000000709000000000068079000000006845700000000709000000000067100000000007091700049000000000000002670000000000182781080000000000000009999123100000010000000000000BRNVDCBDR008106
012020091502ODPV3       010ODONTOPREV  ON      NM   R$  000000000126700000000012740000000001252000000000126400000000012700000000001268000000000127004849000000000001193700000000001509522500000000000000009999123100000010000000000000BRODPVACNOR4178
012020091502OFSA3       010OUROFINO S/AON      NM   R$  000000000290800000000029080000000002880000000000289200000000028850000000002850000000000288500031000000000000005500000000000015907400000000000000009999123100000010000000000000BROFSAACNOR7109
012020091502OMGE3       010OMEGA GER   ON      NM   R$  000000000395300000000039710000000003896000000000393300000000039640000000003959000000000396603967000000000000922800000000003629874500000000000000009999123100000010000000000000BROMGEACNOR0101
012020091502ORCL34      010ORACLE      DRN          R$  000000003157000000000323390000000031570000000003188000000000323390000000032000000000000000000003000000000000000300000000000009564070000000000000009999123100000010000000000000BRORCLBDR007134
012020091502OXYP34      010OCCIDENT PTRDRN ED       R$  000000000284100000000028470000000002841000000000284400000000028440000000000000000000000318500015000000000000000270000000000000768030000000000000009999123100000010000000000000BROXYPBDR000106
012020091502P1LD34      010PROLOGIS INCDRN          R$  000000002740000000000274000000000027400000000002740000000000274000000000000000000000000000000001000000000000000080000000000002192000000000000000009999123100000010000000000000BRP1LDBDR007102
012020091502PARD3       010IHPARDINI   ON      NM   R$  000000000244000000000024430000000002405000000000242000000000024220000000002421000000000242605220000000000000895700000000002168011900000000000000009999123100000010000000000000BRPARDACNOR1114
012020091502PCAR3       010P.ACUCAR-CBDON      NM   R$  000000000735100000000075000000000007325000000000742700000000073840000000007384000000000738707213000000000001230500000000009139084700000000000000009999123100000010000000000000BRPCARACNOR3163
012020091502PDTC3       010PADTEC      ON           R$  000000000051000000000005600000000000501000000000051800000000005490000000000549000000000055000200000000000000092200000000000047822500000000000000009999123100000010000000000000BRPDTCACNOR3100
012020091502PEPB34      010PEPSICO INC DRN ED       R$  000000007255000000000725500000000071920000000007197700000000719200000000065100000000000000000002000000000000001320000000000095010000000000000000009999123100000010000000000000BRPEPBBDR005132
012020091502PETR3       010PETROBRAS   ON      N2   R$  000000000221700000000022170000000002170000000000219600000000021870000000002187000000000218823989000000000011694700000000025682810300000000000000009999123100000010000000000000BRPETRACNOR9191
012020091502PETR4       010PETROBRAS   PN      N2   R$  000000000219800000000022080000000002155000000000217700000000021670000000002165000000000216766544000000000058546700000000127461161800000000000000009999123100000010000000000000BRPETRACNPR6197
012020091502PETZ3       010PETZ        ON      NM   R$  000000000158000000000015950000000001481000000000152800000000015500000000001549000000000155316831000000000011901600000000018188066300000000000000009999123100000010000000000000BRPETZACNOR2100
012020091502PFIZ34      010PFIZER      DRN          R$  000000001963400000000196340000000019462000000001957300000000196060000000019400000000001960600026000000000000001670000000000032687120000000000000009999123100000010000000000000BRPFIZBDR006140
012020091502PFRM3       010PROFARMA    ON      NM   R$  000000000049000000000004960000000000482000000000048900000000004960000000000490000000000049601539000000000000452800000000000221478500000000000000009999123100000010000000000000BRPFRMACNOR1112
012020091502PGCO34      010PG          DRN          R$  000000007379800000000737980000000073594000000007374500000000736600000000000000000000007366000003000000000000000170000000000012536780000000000000009999123100000010000000000000BRPGCOBDR001139
012020091502PGMN3       010PAGUE MENOS ON      NM   R$  000000000097500000000009830000000000950000000000096600000000009780000000000978000000000098003653000000000000838400000000000810167500000000000000009999123100000010000000000000BRPGMNACNOR8100
012020091502PINE4       010PINE        PN      N2   R$  000000000027400000000002740000000000270000000000027100000000002720000000000271000000000027200212000000000000063300000000000017180400000000000000009999123100000010000000000000BRPINEACNPR8144
012020091502PMAM3       010PARANAPANEMAON      NM   R$  000000000116500000000011830000000001141000000000116000000000011540000000001154000000000115900184000000000000043300000000000050248000000000000000009999123100000010000000000000BRPMAMACNOR3037
012020091502PNVL3       010DIMED       ON           R$  000000000248200000000025080000000002412000000000244000000000024120000000002411000000000241202206000000000000527600000000001287429900000000000000009999123100000010000000000000BRPNVLACNOR9196
012020091502PNVL4       010DIMED       PN           R$  000000000218900000000021890000000002101000000000211800000000021290000000002129000000000214500689000000000000167000000000000353743100000000000000009999123100000010000000000000BRPNVLACNPR6196
012020091502POMO3       010MARCOPOLO   ON      N2   R$  000000000027800000000002800000000000276000000000027700000000002770000000000277000000000027900254000000000000153300000000000042566500000000000000009999123100000010000000000000BRPOMOACNOR0087
012020091502POMO4       010MARCOPOLO   PN      N2   R$  000000000030300000000003040000000000297000000000030000000000003000000000000300000000000030104457000000000006562600000000001972835000000000000000009999123100000010000000000000BRPOMOACNPR7087
012020091502POSI3       010POSITIVO TECON      NM   R$  000000000048700000000004880000000000475000000000048100000000004840000000000483000000000048402042000000000001493100000000000719054900000000000000009999123100000010000000000000BRPOSIACNOR9112
012020091502PPLA11      010PPLA        UNT          R$  000000000154400000000016990000000001506000000000162300000000016240000000001603000000000164000124000000000000023800000000000038645000000000000000009999123100000010000000000000BRPPLAUNT007101
012020091502PRIO3       010PETRORIO    ON      NM   R$  000000000393700000000039890000000003880000000000391900000000038990000000003895000000000389909517000000000002243600000000008793476300000000000000009999123100000010000000000000BRPRIOACNOR1102
012020091502PRNR3       010PRINER      ON      NM   R$  000000000095500000000009620000000000940000000000094700000000009490000000000948000000000095200306000000000000134600000000000127484600000000000000009999123100000010000000000000BRPRNRACNOR4105
012020091502PSSA3       010PORTO SEGUROON      NM   R$  000000000520000000000052020000000005115000000000515300000000051440000000005144000000000515502304000000000000328400000000001692341100000000000000009999123100000010000000000000BRPSSAACNOR7142
012020091502PTBL3       010PORTOBELLO  ON      NM   R$  000000000057300000000005780000000000543000000000055800000000005510000000000551000000000055203576000000000002581800000000001442444900000000000000009999123100000010000000000000BRPTBLACNOR8125
012020091502PTNT3       010PETTENATI   ON           R$  000000000057900000000005950000000000579000000000058900000000005820000000000576000000000058300013000000000000002900000000000001709800000000000000009999123100000010000000000000BRPTNTACNOR6039
012020091502PTNT4       010PETTENATI   PN           R$  000000000046500000000004660000000000461000000000046400000000004660000000000464000000000046600048000000000000015900000000000007388100000000000000009999123100000010000000000000BRPTNTACNPR3044
012020091502PYPL34      010PAYPAL HOLD DRN          R$  000000004980000000000498000000000048958000000004907400000000489580000000048600000000005000000017000000000000000180000000000008833410000000000000009999123100000010000000000000BRPYPLBDR002101
012020091502QCOM34      010QUALCOMM    DRN          R$  000000006231900000000623190000000062000000000006207900000000620000000000061800000000000000000002000000000000000040000000000002483190000000000000009999123100000010000000000000BRQCOMBDR007135
012020091502QUAL3       010QUALICORP   ON      NM   R$  000000000335900000000033730000000003260000000000330200000000032960000000003292000000000329611517000000000002619600000000008650639700000000000000009999123100000010000000000000BRQUALACNOR6113
012020091502R1IN34      010REALTY INCOMDRN          R$  000000001730000000000173490000000017300000000001732400000000173490000000000000000000000000000002000000000000000020000000000000346490000000000000009999123100000010000000000000BRR1INBDR000108
012020091502RADL3       010RAIADROGASILON      NM   R$  000000001139400000000115440000000011368000000001143300000000113980000000011398000000001141004160000000000000702800000000008035649800000000000000009999123100000010000000000000BRRADLACNOR0136
012020091502RAIL3       010RUMO S.A.   ON      NM   R$  000000000216800000000021680000000002080000000000210900000000021290000000002120000000000212929755000000000008953200000000018884103600000000000000009999123100000010000000000000BRRAILACNOR9101
012020091502RANI3       010IRANI       ON           R$  000000000053000000000005310000000000515000000000052200000000005200000000000519000000000052002611000000000001480900000000000773222500000000000000009999123100000010000000000000BRRANIACNOR5053
012020091502RANI4       010IRANI       PN           R$  000000000089000000000009150000000000870000000000088900000000008850000000000872000000000089000111000000000000029200000000000025980200000000000000009999123100000010000000000000BRRANIACNPR2054
012020091502RAPT3       010RANDON PART ON      N1   R$  000000000097000000000010150000000000967000000000098200000000009700000000000963000000000097000072000000000000013500000000000013270400000000000000009999123100000010000000000000BRRAPTACNOR7153
012020091502RAPT4       010RANDON PART PN      N1   R$  000000000123100000000012630000000001196000000000122500000000012250000000001224000000000122509913000000000004008700000000004910924100000000000000009999123100000010000000000000BRRAPTACNPR4153
012020091502RCSL3       010RECRUSUL    ON           R$  000000000021000000000002250000000000202000000000021300000000002090000000000205000000000020900300000000000000401800000000000085779200000000000000009999123100000010000000000000BRRCSLACNOR4130
012020091502RCSL4       010RECRUSUL    PN           R$  000000000015300000000001730000000000153000000000016200000000001610000000000161000000000016220985000000000017095600000000002776896600000000000000009999123100000010000000000000BRRCSLACNPR1130
012020091502RDNI3       010RNI         ON      NM   R$  000000000103700000000010370000000000991000000000101400000000010290000000001003000000000102900117000000000000047500000000000048189700000000000000009999123100000010000000000000BRRDNIACNOR9113
012020091502REDE3       010REDE ENERGIAON           R$  000000000104800000000010480000000001048000000000104800000000010480000000001040000000000104800002000000000000000400000000000000419200000000000000009999123100000010000000000000BRREDEACNOR7115
012020091502REGN34      010REGENERON PHDRN          R$  000000006167900000000616790000000061679000000006167900000000616790000000000000000000000000000001000000000000000020000000000001233580000000000000009999123100000010000000000000BRREGNBDR005100
012020091502RENT3       010LOCALIZA    ON  EJ  NM   R$  000000000529800000000053310000000005204000000000525400000000052820000000005281000000000528219786000000000004853200000000025500394500000000000000009999123100000010000000000000BRRENTACNOR4179
012020091502RIGG34      010TRANSOCEAN  DRN          R$  000000000053500000000005770000000000535000000000055200000000005610000000000435000000000059000018000000000000006690000000000003692930000000000000009999123100000010000000000000BRRIGGBDR000100
012020091502RLOG3       010COSAN LOG   ON      NM   R$  000000000203500000000020500000000001970000000000199100000000020040000000001998000000000200504520000000000000662200000000001319090700000000000000009999123100000010000000000000BRRLOGACNOR4106
012020091502ROMI3       010INDS ROMI   ON      NM   R$  000000000121800000000012630000000001218000000000124400000000012260000000001226000000000123502096000000000000342200000000000425716700000000000000009999123100000010000000000000BRROMIACNOR8173
012020091502RPAD3       010ALFA HOLDINGON           R$  000000000059800000000007000000000000598000000000067300000000006250000000000620000000000065500029000000000000006600000000000004441800000000000000009999123100000010000000000000BRRPADACNOR1197
012020091502RPAD5       010ALFA HOLDINGPNA          R$  000000000089300000000009300000000000890000000000090600000000009090000000000880000000000090900008000000000000001200000000000001087400000000000000009999123100000010000000000000BRRPADACNPA4211
012020091502RPAD6       010ALFA HOLDINGPNB          R$  000000000056800000000006590000000000568000000000061900000000006200000000000531000000000062000037000000000000012000000000000007429000000000000000009999123100000010000000000000BRRPADACNPB2197
012020091502RSID3       010ROSSI RESID ON      NM   R$  000000000053900000000005510000000000529000000000053800000000005370000000000537000000000054000108000000000000046500000000000025053000000000000000009999123100000010000000000000BRRSIDACNOR8119
012020091502S1LG34      010SL GREEN READRN          R$  000000001330000000000133000000000013250000000001327500000000132500000000000000000000000000000002000000000000000100000000000001327500000000000000009999123100000010000000000000BRS1LGBDR007106
012020091502S1PO34      010SPOTIFY TECHDRN          R$  000000003215000000000321500000000031599000000003207100000000315990000000000000000000000000000002000000000000000070000000000002244990000000000000009999123100000010000000000000BRS1POBDR002100
012020091502SANB3       010SANTANDER BRON           R$  000000000136500000000013730000000001339000000000134600000000013440000000001344000000000134600772000000000000160500000000000216121200000000000000009999123100000010000000000000BRSANBACNOR8153
012020091502SANB4       010SANTANDER BRPN           R$  000000000151000000000015180000000001488000000000149700000000014940000000001492000000000150500917000000000000202500000000000303313900000000000000009999123100000010000000000000BRSANBACNPR5153
012020091502SANB11      010SANTANDER BRUNT          R$  000000000288000000000028850000000002825000000000284100000000028440000000002843000000000284409086000000000001697500000000004823724800000000000000009999123100000010000000000000BRSANBCDAM13146
012020091502SAPR3       010SANEPAR     ON      N2   R$  000000000056800000000005760000000000552000000000056200000000005550000000000555000000000055800591000000000000152500000000000085743000000000000000009999123100000010000000000000BRSAPRACNOR9150
012020091502SAPR4       010SANEPAR     PN      N2   R$  000000000054300000000005470000000000536000000000054000000000005380000000000538000000000053904183000000000002930100000000001584469800000000000000009999123100000010000000000000BRSAPRACNPR6150
012020091502SAPR11      010SANEPAR     UNT     N2   R$  000000000272600000000027680000000002680000000000271800000000026800000000002679000000000268007663000000000001902400000000005171537900000000000000009999123100000010000000000000BRSAPRCDAM13109
012020091502SBSP3       010SABESP      ON      NM   R$  000000000477100000000048020000000004661000000000470200000000046800000000004678000000000468011208000000000002551300000000011998210900000000000000009999123100000010000000000000BRSBSPACNOR5157
012020091502SCAR3       010SAO CARLOS  ON      NM   R$  000000000388500000000039030000000003840000000000387300000000038600000000003840000000000389900033000000000000010900000000000042216800000000000000009999123100000010000000000000BRSCARACNOR7128
012020091502SCHW34      010SCHWAB      DRN          R$  000000001843200000000184400000000018432000000001843600000000184400000000017800000000000000000002000000000000000930000000000017146000000000000000009999123100000010000000000000BRSCHWBDR006118
012020091502SEER3       010SER EDUCA   ON      NM   R$  000000000164500000000016560000000001556000000000158200000000015800000000001580000000000158109754000000000002259700000000003576938500000000000000009999123100000010000000000000BRSEERACNOR5115
012020091502SGPS3       010SPRINGS     ON      NM   R$  000000000072000000000007370000000000691000000000070700000000007000000000000700000000000070800467000000000000247000000000000174702500000000000000009999123100000010000000000000BRSGPSACNOR4104
012020091502SHOW3       010TIME FOR FUNON      NM   R$  000000000028000000000002830000000000274000000000027800000000002780000000000278000000000027900469000000000000424800000000000118464200000000000000009999123100000010000000000000BRSHOWACNOR7105
012020091502SHUL4       010SCHULZ      PN           R$  000000000136800000000013750000000001324000000000135200000000013240000000001324000000000134001130000000000000371900000000000503045500000000000000009999123100000010000000000000BRSHULACNPR4136
012020091502SIMN34      010SIMON PROP  DRN          R$  000000000913000000000094370000000009130000000000926800000000094300000000006666000000000000000017000000000000000500000000000004634090000000000000009999123100000010000000000000BRSIMNBDR002104
012020091502SLBG34      010SCHLUMBERGERDRN          R$  000000000954200000000095930000000009542000000000957100000000095930000000000000000000000000000006000000000000001490000000000014262080000000000000009999123100000010000000000000BRSLBGBDR003137
012020091502SLCE3       010SLC AGRICOLAON      NM   R$  000000000246300000000025950000000002456000000000253200000000025860000000002586000000000258707455000000000002441600000000006182791000000000000000009999123100000010000000000000BRSLCEACNOR2115
012020091502SMLS3       010SMILES      ON      NM   R$  000000000162700000000017040000000001623000000000166500000000016400000000001640000000000164108250000000000002749200000000004577570300000000000000009999123100000010000000000000BRSMLSACNOR1109
012020091502SMTO3       010SAO MARTINHOON      NM   R$  000000000233700000000024540000000002298000000000241500000000024400000000002439000000000244009717000000000001928600000000004658493700000000000000009999123100000010000000000000BRSMTOACNOR3117
012020091502SNEC34      010SONY CORP   DRN          R$  000000004200000000000420000000000040292000000004065900000000403900000000031000000000004250000007000000000000000160000000000006505510000000000000009999123100000010000000000000BRSNECBDR002101
012020091502SOMA3       010GRUPO SOMA  ON      NM   R$  000000000103100000000010590000000000999000000000101600000000010590000000001059000000000106004536000000000002453300000000002492663500000000000000009999123100000010000000000000BRSOMAACNOR3100
012020091502SOND6       010SONDOTECNICAPNB          R$  000000000370100000000037010000000003701000000000370100000000037010000000003701000000000590000001000000000000000200000000000000740200000000000000009999123100000010000000000000BRSONDACNPB6161
012020091502SQIA3       010SINQIA      ON      NM   R$  000000000239200000000024140000000002354000000000237400000000023810000000002381000000000238402816000000000000504000000000001196834500000000000000009999123100000010000000000000BRSQIAACNOR6102
012020091502SSFO34      010SALESFORCE  DRN          R$  000000006671900000000667190000000066081000000006635400000000667190000000033333000000000000000020000000000000000580000000000038485480000000000000009999123100000010000000000000BRSSFOBDR003100
012020091502STBP3       010SANTOS BRP  ON      NM   R$  000000000052200000000005260000000000496000000000050700000000005110000000000511000000000051207646000000000005571300000000002827706500000000000000009999123100000010000000000000BRSTBPACNOR3117
012020091502SULA3       010SUL AMERICA ON      N2   R$  000000000175200000000017680000000001701000000000172900000000017010000000001703000000000171500027000000000000002700000000000004668900000000000000009999123100000010000000000000BRSULAACNOR2141
012020091502SULA4       010SUL AMERICA PN      N2   R$  000000000122300000000012230000000001204000000000121200000000012050000000001205000000000122000053000000000000008900000000000010789500000000000000009999123100000010000000000000BRSULAACNPR9141
012020091502SULA11      010SUL AMERICA UNT     N2   R$  000000000421600000000042280000000004108000000000414300000000041440000000004136000000000414412665000000000002596000000000010756636100000000000000009999123100000010000000000000BRSULACDAM12141
012020091502SUZB3       010SUZANO S.A. ON      NM   R$  000000000460400000000048910000000004581000000000477900000000048890000000004884000000000488924758000000000007081300000000033847587500000000000000009999123100000010000000000000BRSUZBACNOR0124
012020091502T1EC34      010TECHNIPFMC PDRN          R$  000000000365300000000036530000000003615000000000363400000000036400000000000000000000000000000004000000000000001400000000000005088100000000000000009999123100000010000000000000BRT1ECBDR000101
012020091502T1OW34      010AMERICAN TOWDRN          R$  000000003495000000000349500000000034950000000003495000000000349500000000000000000000000000000001000000000000000070000000000002446500000000000000009999123100000010000000000000BRT1OWBDR007102
012020091502T1TW34      010TAKE-TWO INTDRN          R$  000000002103500000000212830000000021035000000002126000000000212830000000000070000000000000000002000000000000000110000000000002338650000000000000009999123100000010000000000000BRT1TWBDR006100
012020091502TAEE3       010TAESA       ON      N2   R$  000000000095400000000009560000000000949000000000095200000000009520000000000952000000000095500278000000000000040800000000000038846400000000000000009999123100000010000000000000BRTAEEACNOR9132
012020091502TAEE4       010TAESA       PN      N2   R$  000000000096300000000009650000000000952000000000095600000000009530000000000953000000000095700402000000000000080300000000000076839400000000000000009999123100000010000000000000BRTAEEACNPR6132
012020091502TAEE11      010TAESA       UNT     N2   R$  000000000286300000000028780000000002850000000000286300000000028560000000002856000000000286013239000000000002625700000000007518869900000000000000009999123100000010000000000000BRTAEECDAM10132
