00COTAHIST.2020BOVESPA 20200925                                                                                                                                                                                                                      
012020092502TPIS3       010TRIUNFO PARTON      NM   R$  000000000011600000000001180000000000113000000000011500000000001180000000000117000000000011800365000000000000959900000000000110648800000000000000009999123100000010000000000000BRTPISACNOR8115
012020092502TGTB34      010TARGET CORP DRN          R$  000000008587300000000858730000000085873000000008587300000000858730000000000000000000008642000001000000000000000300000000000025761900000000000000009999123100000010000000000000BRTGTBBDR004120
012020092502TECN3       010TECHNOS     ON      NM   R$  000000000010200000000001040000000000102000000000010200000000001030000000000102000000000010300508000000000000315200000000000032420800000000000000009999123100000010000000000000BRTECNACNOR6106
012020092502TCSA3       010TECNISA     ON      NM   R$  000000000095600000000009660000000000936000000000095100000000009500000000000950000000000095703062000000000001178500000000001121490500000000000000009999123100000010000000000000BRTCSAACNOR3112
012020092502SULA11      010SUL AMERICA UNT     N2   R$  000000000407900000000041380000000004050000000000409100000000041340000000004125000000000413410703000000000002021600000000008270422900000000000000009999123100000010000000000000BRSULACDAM12141
012020092502SMLS3       010SMILES      ON      NM   R$  000000000152500000000015330000000001498000000000150800000000015010000000001501000000000150204432000000000001068700000000001612345100000000000000009999123100000010000000000000BRSMLSACNOR1109
012020092502SHOW3       010TIME FOR FUNON      NM   R$  000000000027500000000002750000000000263000000000026700000000002650000000000264000000000026501406000000000000866000000000000231699900000000000000009999123100000010000000000000BRSHOWACNOR7105
012020092502RAIL3       010RUMO S.A.   ON      NM   R$  000000000205500000000020910000000002026000000000206400000000020840000000002080000000000208411488000000000003949600000000008155537100000000000000009999123100000010000000000000BRRAILACNOR9101
012020092502QUAL3       010QUALICORP   ON      NM   R$  000000000326900000000033390000000003215000000000327600000000033250000000003321000000000332616167000000000003702200000000012129390900000000000000009999123100000010000000000000BRQUALACNOR6113
012020092502PTBL3       010PORTOBELLO  ON      NM   R$  000000000052900000000005380000000000517000000000052700000000005230000000000523000000000052403001000000000002615500000000001379489100000000000000009999123100000010000000000000BRPTBLACNOR8125
012020092502PRIO3       010PETRORIO    ON      NM   R$  000000000363300000000036330000000003502000000000354400000000035500000000003550000000000355109433000000000002176000000000007713517500000000000000009999123100000010000000000000BRPRIOACNOR1102
012020092502PDTC3       010PADTEC      ON           R$  000000000047200000000005000000000000470000000000047700000000004700000000000470000000000048000109000000000000028200000000000013458700000000000000009999123100000010000000000000BRPDTCACNOR3100
012020092502MGEL4       010MANGELS INDLPN           R$  000000000055500000000005900000000000551000000000057400000000005900000000000555000000000059000012000000000000006700000000000003850100000000000000009999123100000010000000000000BRMGELACNPR3147
012020092502MEAL3       010IMC S/A     ON      NM   R$  000000000033900000000003480000000000333000000000033700000000003360000000000336000000000033711583000000000020629600000000006962830300000000000000009999123100000010000000000000BRMEALACNOR9105
012020092502MDNE3       010MOURA DUBEUXON      NM   R$  000000000093800000000009840000000000916000000000096300000000009770000000000960000000000097701985000000000000408500000000000393697200000000000000009999123100000010000000000000BRMDNEACNOR9100
012020092502LEVE3       010METAL LEVE  ON      NM   R$  000000000169300000000017060000000001678000000000168800000000016810000000001681000000000169001113000000000000229600000000000387680500000000000000009999123100000010000000000000BRLEVEACNOR2187
012020092502LBRN34      010L BRANDS    DRN          R$  000000000415300000000042120000000004153000000000416600000000042120000000000000000000000000000002000000000000000130000000000000541660000000000000009999123100000010000000000000BRLBRNBDR001119
012020092502LAVV3       010LAVVI       ON      NM   R$  000000000079000000000007960000000000773000000000078500000000007900000000000790000000000079105106000000000002069200000000001626345200000000000000009999123100000010000000000000BRLAVVACNOR4100
012020092502K1RC34      010KROGER CO   DRN          R$  000000001857200000000185720000000018572000000001857200000000185720000000000000000000000000000001000000000000000030000000000000557160000000000000009999123100000010000000000000BRK1RCBDR001103
012020092502JNJB34      010JOHNSON     DRN          R$  000000008089900000000809900000000080894000000008098100000000808940000000000000000000008089400005000000000000000800000000000064785230000000000000009999123100000010000000000000BRJNJBBDR002135
012020092507ATMP3       010ATMASA      ON      NM   R$  000000000040600000000004130000000000403000000000040600000000004030000000000403000000000041200003000000000000000700000000000000284300000000000000009999123100000010000000000000BRATMPACNOR8100
012020092502JBSS3       010JBS         ON      NM   R$  000000000216200000000021760000000002115000000000214400000000021600000000002160000000000216114643000000000006516900000000013977459000000000000000009999123100000010000000000000BRJBSSACNOR8115
012020092502J1WN34      010NORDSTROM INDRN          R$  000000000672200000000067220000000006722000000000672200000000067220000000005816000000001571500002000000000000000400000000000002688800000000000000009999123100000010000000000000BRJ1WNBDR001101
012020092508BDLL4       010BARDELLA    PN           R$  000000000097100000000010450000000000950000000000100800000000010350000000000985000000000104500026000000000000004000000000000004034500000000000000009999123100000010000000000000BRBDLLACNPR8151
012020092502HAPV3       010HAPVIDA     ON      NM   R$  000000000625000000000062990000000006127000000000623300000000062890000000006289000000000629106270000000000000948600000000005913539200000000000000009999123100000010000000000000BRHAPVACNOR4106
012020092502GUAR3       010GUARARAPES  ON           R$  000000000150300000000015120000000001468000000000148000000000014740000000001474000000000148405142000000000000966100000000001430661500000000000000009999123100000010000000000000BRGUARACNOR4165
012020092502GSGI34      010GOLDMANSACHSDRN          R$  000000001072900000000107290000000010729000000001072900000000107290000000000000000000000000000001000000000000000050000000000000536450000000000000009999123100000010000000000000BRGSGIBDR008140
012020092502GOAU3       010GERDAU MET  ON      N1   R$  000000000079700000000008150000000000785000000000079900000000008150000000000800000000000081500154000000000000044000000000000035196300000000000000009999123100000010000000000000BRGOAUACNOR1250
012020092502GEPA4       010GER PARANAP PN           R$  000000000451800000000045180000000004518000000000451800000000045180000000004470000000000464200001000000000000000200000000000000903600000000000000009999123100000010000000000000BRGEPAACNPR9153
012020092502GEOO34      010GE          DRN ED       R$  000000000340400000000034040000000003404000000000340400000000034040000000000000000000000340400001000000000000000510000000000001736040000000000000009999123100000010000000000000BRGEOOBDR000141
012020092502DMVF3       010D1000VFARMA ON      NM   R$  000000000129000000000013640000000001214000000000128900000000012880000000001288000000000129502523000000000000997600000000001286590300000000000000009999123100000010000000000000BRDMVFACNOR9100
012020092502BOAC34      010BANK AMERICADRN          R$  000000001299800000000130880000000012998000000001305200000000130470000000012400000000001304700003000000000000002380000000000031065960000000000000009999123100000010000000000000BRBOACBDR004140
012020092502BMIN4       010MERC INVEST PN           R$  000000000190700000000019070000000001907000000000190700000000019070000000001862000000000190700001000000000000000100000000000000190700000000000000009999123100000010000000000000BRBMINACNPR1171
012020092502BMGB4       010BANCO BMG   PN      N1   R$  000000000050000000000005040000000000495000000000049800000000004950000000000495000000000049702647000000000000721900000000000359705900000000000000009999123100000010000000000000BRBMGBACNPR0101
012020092502BEES4       010BANESTES    PN           R$  000000000052000000000005650000000000510000000000054000000000005650000000000518000000000056500035000000000000007600000000000004111300000000000000009999123100000010000000000000BRBEESACNPR6264
012020092502BAZA3       010AMAZONIA    ON           R$  000000000392000000000039690000000003918000000000393300000000039350000000003904000000000397600016000000000000001700000000000006686800000000000000009999123100000010000000000000BRBAZAACNOR0174
012020092502ADHM3       010ADVANCED-DH ON           R$  000000000020100000000002140000000000200000000000020800000000002060000000000204000000000020600027000000000000011600000000000002415100000000000000009999123100000010000000000000BRADHMACNOR9102
012020092502ADBE34      010ADOBE INC   DRN          R$  000000005265000000000528550000000052650000000005269700000000528550000000000000000000000000000002000000000000000130000000000006850650000000000000009999123100000010000000000000BRADBEBDR003100
012020092502ACNB34      010ACCENTURE   DRN          R$  000000011827800000001182780000000118278000000011827800000001182780000000000000000000000000000001000000000000000010000000000001182780000000000000009999123100000010000000000000BRACNBBDR006112
012020092502VALE3       010VALE        ON  EDJ NM   R$  000000000583500000000059450000000005820000000000589100000000059250000000005925000000000592638572000000000027582200000000162510974300000000000000009999123100000010000000000000BRVALEACNOR0200
012020092502USIM3       010USIMINAS    ON      N1   R$  000000000105000000000010580000000001030000000000104300000000010520000000001044000000000105200487000000000000155400000000000162175700000000000000009999123100000010000000000000BRUSIMACNOR3160
012020092502UPSS34      010UPS         DRN          R$  000000002296300000000231450000000022963000000002300800000000231450000000023145000000000000000003000000000000000070000000000001610600000000000000009999123100000010000000000000BRUPSSBDR009134
012020092502UPAC34      010UNIONPACIFICDRN          R$  000000002756900000000275690000000027569000000002756900000000275690000000000000000000002756900001000000000000000100000000000002756900000000000000009999123100000010000000000000BRUPACBDR001121
012020092502UNIP6       010UNIPAR      PNB          R$  000000000278600000000028000000000002740000000000276800000000027820000000002758000000000278200567000000000000096200000000000266310800000000000000009999123100000010000000000000BRUNIPACNPB8192
012020092502UGPA3       010ULTRAPAR    ON      NM   R$  000000000212100000000021210000000002070000000000209300000000021180000000002116000000000211814228000000000004236800000000008870442500000000000000009999123100000010000000000000BRUGPAACNOR8146
012020092502UCAS3       010UNICASA     ON      NM   R$  000000000041600000000004160000000000394000000000040400000000004010000000000400000000000040300273000000000000188700000000000076303500000000000000009999123100000010000000000000BRUCASACNOR1108
012020092502TRPL4       010TRAN PAULISTPN      N1   R$  000000000222900000000022290000000002200000000000221000000000022030000000002203000000000220505724000000000000998900000000002208539300000000000000009999123100000010000000000000BRTRPLACNPR1176
012020092502TRPL3       010TRAN PAULISTON      N1   R$  000000000265000000000026500000000002636000000000264600000000026360000000002635000000000264500003000000000000000400000000000001058500000000000000009999123100000010000000000000BRTRPLACNOR4176
012020092502TRIS3       010TRISUL      ON      NM   R$  000000000112400000000011260000000001097000000000110300000000011000000000001100000000000110703458000000000001288600000000001422475300000000000000009999123100000010000000000000BRTRISACNOR4113
012020092502TOTS3       010TOTVS       ON      NM   R$  000000000276200000000028320000000002730000000000278600000000028310000000002827000000000283116602000000000003559700000000009917720500000000000000009999123100000010000000000000BRTOTSACNOR8136
012020092502TKNO4       010TEKNO       PN           R$  000000000420000000000043500000000003801000000000413400000000038010000000003800000000000000000013000000000000001300000000000005375300000000000000009999123100000010000000000000BRTKNOACNPR5064
012020092502TIMP3       010TIM PART S/AON      NM   R$  000000000135000000000013620000000001329000000000134200000000013580000000001355000000000135813899000000000008265000000000011094578400000000000000009999123100000010000000000000BRTIMPACNOR1114
012020092502TIET11      010AES TIETE E UNT     N2   R$  000000000146000000000014620000000001450000000000145600000000014590000000001457000000000145904584000000000000990100000000001441660400000000000000009999123100000010000000000000BRTIETCDAM15125
012020092502TIET4       010AES TIETE E PN      N2   R$  000000000029400000000002940000000000290000000000029100000000002920000000000291000000000029201396000000000000765200000000000223089200000000000000009999123100000010000000000000BRTIETACNPR7125
012020092512AFCR11      010FII AFINVCR CI           R$  000000001079500000000107950000000010790000000001079000000000107900000000010595000000001070000002000000000000000011000000000000118695000000000000009999123100000010000000000000BRAFCRCTF007104
012020092502TIET3       010AES TIETE E ON      N2   R$  000000000029400000000002950000000000291000000000029200000000002940000000000292000000000029400398000000000000141200000000000041328200000000000000009999123100000010000000000000BRTIETACNOR0125
012020092502TGMA3       010TEGMA       ON      NM   R$  000000000224900000000022710000000002205000000000223200000000022570000000002250000000000225702244000000000000396600000000000885475800000000000000009999123100000010000000000000BRTGMAACNOR7133
012020092502TESA3       010TERRA SANTA ON      NM   R$  000000000176900000000017740000000001730000000000176000000000017650000000001755000000000176500122000000000000015600000000000027465700000000000000009999123100000010000000000000BRTESAACNOR9101
012020092502TEND3       010TENDA       ON      NM   R$  000000000283400000000028770000000002790000000000283800000000028400000000002840000000000284304095000000000000930500000000002641163700000000000000009999123100000010000000000000BRTENDACNOR4108
012020092502TELB4       010TELEBRAS    PN           R$  000000000308900000000030900000000003033000000000306700000000030900000000003090000000000311000029000000000000003400000000000010428800000000000000009999123100000010000000000000BRTELBACNPR9139
012020092502TELB3       010TELEBRAS    ON           R$  000000001020000000000102000000000010200000000001020000000000102000000000010000000000001020000001000000000000000100000000000001020000000000000000009999123100000010000000000000BRTELBACNOR2139
012020092512BBFI11B     010FII BB PROGRCI      MB   R$  000000024853000000002546970000000247500000000025009500000002475300000000247540000000025000000084000000000000000196000000000049018752000000000000009999123100000010000000000000BRBBFICTF006282
012020092502TASA4       010TAURUS ARMASPN      N2   R$  000000000082500000000008930000000000810000000000085900000000008930000000000890000000000089304091000000000002258200000000001940861600000000000000009999123100000010000000000000BRTASAACNPR4100
012020092502TASA3       010TAURUS ARMASON      N2   R$  000000000078000000000008300000000000761000000000080500000000008230000000000815000000000082300350000000000000151500000000000122022000000000000000009999123100000010000000000000BRTASAACNOR7100
012020092502TAEE11      010TAESA       UNT     N2   R$  000000000285000000000028510000000002821000000000283000000000028300000000002829000000000283006651000000000001599400000000004526611100000000000000009999123100000010000000000000BRTAEECDAM10132
012020092502TAEE4       010TAESA       PN      N2   R$  000000000095200000000009520000000000942000000000094600000000009460000000000946000000000094900543000000000000109000000000000103205400000000000000009999123100000010000000000000BRTAEEACNPR6132
012020092502TAEE3       010TAESA       ON      N2   R$  000000000094800000000009480000000000940000000000094200000000009410000000000940000000000094100359000000000000053000000000000049966100000000000000009999123100000010000000000000BRTAEEACNOR9132
012020092502T1SC34      010TRACTOR SUPPDRN          R$  000000003871000000000387100000000038710000000003871000000000387100000000000000000000000000000001000000000000000010000000000000387100000000000000009999123100000010000000000000BRT1SCBDR000103
012020092502SULA3       010SUL AMERICA ON      N2   R$  000000000167000000000016810000000001640000000000165600000000016700000000001643000000000167000012000000000000001600000000000002650800000000000000009999123100000010000000000000BRSULAACNOR2141
012020092502SSFO34      010SALESFORCE  DRN          R$  000000006643100000000673930000000066431000000006732000000000673930000000033333000000000000000003000000000000001760000000000118484910000000000000009999123100000010000000000000BRSSFOBDR003100
012020092502SQIA3       010SINQIA      ON      NM   R$  000000000222100000000022510000000002195000000000222900000000022350000000002232000000000223501640000000000000325700000000000726145300000000000000009999123100000010000000000000BRSQIAACNOR6102
012020092502SOND5       010SONDOTECNICAPNA          R$  000000000560100000000056010000000005601000000000560100000000056010000000005000000000000650000001000000000000000100000000000000560100000000000000009999123100000010000000000000BRSONDACNPA8161
012020092502SOMA3       010GRUPO SOMA  ON      NM   R$  000000000099100000000010090000000000980000000000099000000000010050000000001005000000000100801551000000000001986900000000001968013500000000000000009999123100000010000000000000BRSOMAACNOR3100
012020092502SNEC34      010SONY CORP   DRN          R$  000000004251000000000429340000000042510000000004282800000000429340000000031000000000000000000002000000000000000040000000000001713120000000000000009999123100000010000000000000BRSNECBDR002101
012020092502SMTO3       010SAO MARTINHOON      NM   R$  000000000225700000000022570000000002195000000000222800000000022230000000002223000000000223503961000000000000544700000000001213593800000000000000009999123100000010000000000000BRSMTOACNOR3117
012020092512BTCR11      010FII BTG CRI CI           R$  000000000856200000000085900000000008554000000000858800000000085540000000008554000000000858702233000000000000003840000000000032978004000000000000009999123100000010000000000000BRBTCRCTF006130
012020092502SLCE3       010SLC AGRICOLAON      NM   R$  000000000253700000000025570000000002484000000000252900000000025270000000002527000000000252803729000000000001033200000000002613804900000000000000009999123100000010000000000000BRSLCEACNOR2115
012020092502SIMN34      010SIMON PROP  DRN          R$  000000000882000000000088200000000008820000000000882000000000088200000000006666000000000960000001000000000000000060000000000000529200000000000000009999123100000010000000000000BRSIMNBDR002104
012020092502SIMH3       010SIMPAR      ON      NM   R$  000000000281000000000028190000000002780000000000279900000000027900000000002790000000000280102721000000000000534100000000001495185300000000000000009999123100000010000000000000BRSIMHACNOR0100
012020092502SGPS3       010SPRINGS     ON      NM   R$  000000000065600000000006620000000000639000000000065200000000006600000000000660000000000066100406000000000000145300000000000094774800000000000000009999123100000010000000000000BRSGPSACNOR4104
012020092502SEER3       010SER EDUCA   ON      NM   R$  000000000154200000000015420000000001495000000000151300000000015150000000001514000000000151504901000000000000969100000000001466953000000000000000009999123100000010000000000000BRSEERACNOR5115
012020092502SCAR3       010SAO CARLOS  ON      NM   R$  000000000372700000000037640000000003727000000000373800000000037400000000003727000000000374100011000000000000001200000000000004485900000000000000009999123100000010000000000000BRSCARACNOR7128
012020092502RSID3       010ROSSI RESID ON      NM   R$  000000000051500000000005240000000000509000000000051400000000005200000000000520000000000052300111000000000000032100000000000016527900000000000000009999123100000010000000000000BRRSIDACNOR8119
012020092502RPAD5       010ALFA HOLDINGPNA          R$  000000000092000000000009200000000000850000000000088500000000008500000000000851000000000092800002000000000000000200000000000000177000000000000000009999123100000010000000000000BRRPADACNPA4211
012020092512CTXT11      010FII C TEXTILCI           R$  000000000490000000000049340000000004830000000000489500000000048940000000004890000000000489400063000000000000000515000000000002521325000000000000009999123100000010000000000000BRCTXTCTF014193
012020092502RLOG3       010COSAN LOG   ON      NM   R$  000000000193600000000019360000000001890000000000191700000000019290000000001929000000000193101527000000000000279900000000000536676500000000000000009999123100000010000000000000BRRLOGACNOR4106
012020092502RIGG34      010TRANSOCEAN  DRN          R$  000000000048400000000004840000000000440000000000045700000000004430000000000443000000000055500025000000000000019140000000000008757100000000000000009999123100000010000000000000BRRIGGBDR000100
012020092502RAPT4       010RANDON PART PN      N1   R$  000000000119900000000012150000000001182000000000119300000000011980000000001198000000000119914723000000000004662200000000005565426200000000000000009999123100000010000000000000BRRAPTACNPR4153
012020092502RAPT3       010RANDON PART ON      N1   R$  000000000094100000000009740000000000941000000000095400000000009670000000000956000000000096700011000000000000001300000000000001240900000000000000009999123100000010000000000000BRRAPTACNOR7153
012020092502RANI3       010IRANI       ON           R$  000000000048400000000004870000000000470000000000047800000000004800000000000480000000000048102608000000000001621200000000000775880500000000000000009999123100000010000000000000BRRANIACNOR5053
012020092502RADL3       010RAIADROGASILON  EJB NM   R$  000000000233900000000023460000000002292000000000230600000000023050000000002305000000000230912050000000000003373600000000007779728400000000000000009999123100000010000000000000BRRADLACNOR0138
012020092512DRIT11B     010FII MTGESTAOCI      MB   R$  000000001372000000000141000000000012800000000001349900000000137000000000013010000000001370000093000000000000001141000000000015403170000000000000009999123100000010000000000000BRDRITCTF009207
012020092502R1IN34      010REALTY INCOMDRN          R$  000000001644000000000164400000000016440000000001644000000000164400000000000000000000000000000001000000000000000050000000000000822000000000000000009999123100000010000000000000BRR1INBDR000108
012020092502PYPL34      010PAYPAL HOLD DRN          R$  000000005080000000000520300000000050600000000005092700000000520300000000049900000000005900000006000000000000000530000000000026991490000000000000009999123100000010000000000000BRPYPLBDR002101
012020092502PTNT4       010PETTENATI   PN           R$  000000000046500000000004730000000000463000000000046500000000004670000000000467000000000047300017000000000000004300000000000002000200000000000000009999123100000010000000000000BRPTNTACNPR3044
012020092502PTNT3       010PETTENATI   ON           R$  000000000050000000000005000000000000488000000000049300000000004950000000000488000000000049500012000000000000003000000000000001481700000000000000009999123100000010000000000000BRPTNTACNOR6039
012020092512FAMB11B     010FII ALMIRANTCI      MB   R$  000000031150000000003143000000000310600000000031160700000003106000000000310600000000031100000013000000000000000014000000000004362500000000000000009999123100000010000000000000BRFAMBCTF018310
012020092502PSSA3       010PORTO SEGUROON      NM   R$  000000000491000000000049430000000004858000000000489900000000049170000000004906000000000491702563000000000000411100000000002014071700000000000000009999123100000010000000000000BRPSSAACNOR7142
012020092502PRNR3       010PRINER      ON      NM   R$  000000000088600000000009000000000000880000000000089000000000008880000000000888000000000088900389000000000000105400000000000093813800000000000000009999123100000010000000000000BRPRNRACNOR4105
012020092502PPLA11      010PPLA        UNT          R$  000000000155500000000015790000000001550000000000155500000000015500000000001512000000000157100007000000000000000800000000000001244100000000000000009999123100000010000000000000BRPPLAUNT007101
012020092502POSI3       010POSITIVO TECON      NM   R$  000000000043900000000004520000000000436000000000044400000000004450000000000443000000000044501678000000000001093300000000000486225800000000000000009999123100000010000000000000BRPOSIACNOR9112
012020092502POMO4       010MARCOPOLO   PN      N2   R$  000000000027200000000002740000000000268000000000027000000000002700000000000270000000000027104779000000000005378100000000001454595700000000000000009999123100000010000000000000BRPOMOACNPR7087
012020092512FIIP11B     010FII RB CAP ICI      MB   R$  000000001890000000000189000000000018766000000001881100000000188000000000018767000000001880000095000000000000001665000000000031321622000000000000009999123100000010000000000000BRFIIPCTF001229
012020092502POMO3       010MARCOPOLO   ON      N2   R$  000000000026400000000002640000000000260000000000026100000000002630000000000263000000000026400188000000000000058100000000000015220500000000000000009999123100000010000000000000BRPOMOACNOR0087
012020092502PNVL4       010DIMED       PN           R$  000000000199500000000020480000000001964000000000200100000000020400000000002017000000000204000372000000000000084600000000000169306400000000000000009999123100000010000000000000BRPNVLACNPR6196
012020092502PNVL3       010DIMED       ON           R$  000000000227300000000023400000000002238000000000229400000000023400000000002333000000000234001904000000000000591800000000001358059000000000000000009999123100000010000000000000BRPNVLACNOR9196
012020092502PMAM3       010PARANAPANEMAON      NM   R$  000000000101100000000010300000000001000000000000101600000000010270000000001021000000000103000198000000000000069400000000000070524600000000000000009999123100000010000000000000BRPMAMACNOR3037
012020092502PLPL3       010PLANOEPLANO ON      NM   R$  000000000091800000000009280000000000895000000000090300000000009050000000000899000000000090703089000000000002064400000000001865216700000000000000009999123100000010000000000000BRPLPLACNOR5100
012020092502PLAS3       010PLASCAR PARTON           R$  000000000043100000000004550000000000431000000000044200000000004550000000000440000000000045500007000000000000001900000000000000840900000000000000009999123100000010000000000000BRPLASACNOR2106
012020092502PINE4       010PINE        PN      N2   R$  000000000026800000000002720000000000261000000000026300000000002720000000000272000000000027300119000000000000171300000000000045211900000000000000009999123100000010000000000000BRPINEACNPR8144
012020092502PGMN3       010PAGUE MENOS ON      NM   R$  000000000095900000000009590000000000938000000000094600000000009480000000000948000000000095002066000000000000406700000000000385122700000000000000009999123100000010000000000000BRPGMNACNOR8100
012020092502PGCO34      010PG          DRN          R$  000000007663500000000766350000000076635000000007663500000000766350000000000000000000007663500001000000000000000060000000000004598100000000000000009999123100000010000000000000BRPGCOBDR001139
012020092502PFIZ34      010PFIZER      DRN          R$  000000001988000000000200390000000019880000000001995000000000200390000000019765000000002003900050000000000000011570000000000230827280000000000000009999123100000010000000000000BRPFIZBDR006140
012020092512HABT11      010FII HABIT IICI           R$  000000001141700000000114250000000011350000000001137900000000113570000000011357000000001135901697000000000000014164000000000161172714000000000000009999123100000010000000000000BRHABTCTF001113
012020092502PETZ3       010PETZ        ON      NM   R$  000000000151100000000015190000000001480000000000149400000000015000000000001495000000000150005653000000000002061800000000003081128600000000000000009999123100000010000000000000BRPETZACNOR2100
012020092502PETR4       010PETROBRAS   PN      N2   R$  000000000201500000000020260000000001987000000000200700000000020130000000002013000000000201442274000000000040150400000000080620250300000000000000009999123100000010000000000000BRPETRACNPR6197
012020092502PETR3       010PETROBRAS   ON      N2   R$  000000000206900000000020860000000002040000000000206300000000020680000000002064000000000206819155000000000010833600000000022356594100000000000000009999123100000010000000000000BRPETRACNOR9191
012020092502NFLX34      010NETFLIX     DRN          R$  000000026471200000002687090000000264712000000026726500000002687090000000251100000000026890000015000000000000000360000000000096215670000000000000009999123100000010000000000000BRNFLXBDR000101
012020092502N1EM34      010NEWMONT GOLDDRN          R$  000000003418000000000341800000000034180000000003418000000000341800000000033000000000000000000001000000000000000020000000000000683600000000000000009999123100000010000000000000BRN1EMBDR005103
012020092502MYPK3       010IOCHP-MAXIONON      NM   R$  000000000139400000000013980000000001361000000000137600000000013610000000001361000000000136605693000000000001183200000000001628315200000000000000009999123100000010000000000000BRMYPKACNOR7148
012020092512HGFF11      010FII CSHG FOFCI           R$  000000000985100000000100000000000009802000000000993300000000098970000000009897000000000990000149000000000000002412000000000023959557000000000000009999123100000010000000000000BRHGFFCTF008115
012020092502MULT3       010MULTIPLAN   ON      N2   R$  000000000205700000000020600000000002000000000000201500000000020120000000002011000000000201225091000000000007475900000000015070844400000000000000009999123100000010000000000000BRMULTACNOR5127
012020092502MTRE3       010MITRE REALTYON      NM   R$  000000000140500000000014120000000001372000000000139100000000013910000000001391000000000139901694000000000000261000000000000363138600000000000000009999123100000010000000000000BRMTREACNOR6100
012020092502MSPA3       010MELHOR SP   ON           R$  000000000529900000000052990000000004855000000000507700000000048550000000004250000000000529900002000000000000000200000000000001015400000000000000009999123100000010000000000000BRMSPAACNOR0125
012020092502MRSA3B      010MRS LOGIST  ON      MB   R$  000000000350100000000036450000000003499000000000352800000000036450000000003645000000000375000005000000000000000500000000000001764400000000000000009999123100000010000000000000BRMRSAACNOR6120
012020092502MRFG3       010MARFRIG     ON      NM   R$  000000000156200000000015750000000001534000000000155500000000015740000000001571000000000157424980000000000006612900000000010288463300000000000000009999123100000010000000000000BRMRFGACNOR0109
012020092502MNDL3       010MUNDIAL     ON           R$  000000000236000000000024490000000002360000000000242200000000024380000000002303000000000243900004000000000000000400000000000000969100000000000000009999123100000010000000000000BRMNDLACNOR4107
012020092502MMMC34      0103M          DRN          R$  000000002239400000000223940000000022394000000002239400000000223940000000015000000000000000000001000000000000000600000000000013436400000000000000009999123100000010000000000000BRMMMCBDR000134
012020092502MILS3       010MILLS       ON      NM   R$  000000000060600000000006150000000000596000000000060500000000006030000000000603000000000060803403000000000001288000000000000780182400000000000000009999123100000010000000000000BRMILSACNOR2112
012020092502MELI34      010MERCADOLIBREDRN          R$  000000005728000000000593000000000057200000000005833800000000592000000000059200000000005930000140000000000000020090000000001172012530000000000000009999123100000010000000000000BRMELIBDR006100
012020092502WIZS3       010WIZ S.A.    ON      NM   R$  000000000093100000000009320000000000910000000000091800000000009200000000000920000000000092302441000000000000468000000000000429993700000000000000009999123100000010000000000000BRWIZSACNOR1105
012020092502WLMM3       010WLM IND COM ON           R$  000000000155000000000015500000000001550000000000155000000000015500000000001524000000000158900001000000000000000100000000000000155000000000000000009999123100000010000000000000BRWLMMACNOR6102
012020092502MDIA3       010M.DIASBRANCOON      NM   R$  000000000359700000000036040000000003545000000000357400000000035970000000003596000000000359704486000000000000558100000000001995037300000000000000009999123100000010000000000000BRMDIAACNOR7118
012020092502MCDC34      010MCDONALDS   DRN          R$  000000003025000000000304880000000030250000000003028600000000304880000000029851000000003048800023000000000000005900000000000178689200000000000000009999123100000010000000000000BRMCDCBDR000140
012020092502M1CH34      010MICROCHIP TEDRN          R$  000000002738000000000273800000000027380000000002738000000000273800000000000000000000000000000002000000000000000380000000000010404400000000000000009999123100000010000000000000BRM1CHBDR000103
012020092502LUXM4       010TREVISA     PN           R$  000000000468900000000046900000000004493000000000466500000000046890000000003803000000000469000004000000000000000800000000000003732000000000000000009999123100000010000000000000BRLUXMACNPR4047
012020092502LREN3       010LOJAS RENNERON  EJ  NM   R$  000000000401000000000040200000000003932000000000396200000000039820000000003980000000000398225356000000000008597900000000034069571000000000000000009999123100000010000000000000BRLRENACNOR1204
012020092502LPSB3       010LOPES BRASILON      NM   R$  000000000049200000000005100000000000486000000000049700000000005000000000000499000000000050001604000000000000692100000000000344517200000000000000009999123100000010000000000000BRLPSBACNOR0111
012020092502LOGN3       010LOG-IN      ON      NM   R$  000000000161600000000016320000000001571000000000161000000000016170000000001617000000000161802050000000000000485300000000000781414800000000000000009999123100000010000000000000BRLOGNACNOR3104
012020092502LOGG3       010LOG COM PROPON      NM   R$  000000000286400000000028700000000002826000000000284400000000028530000000002844000000000285302950000000000000386300000000001098843600000000000000009999123100000010000000000000BRLOGGACNOR7103
012020092502LJQQ3       010QUERO-QUERO ON      NM   R$  000000000153000000000015300000000001482000000000149600000000014820000000001482000000000148502270000000000000851900000000001275116000000000000000009999123100000010000000000000BRLJQQACNOR5100
012020092502LINX3       010LINX        ON      NM   R$  000000000346100000000034900000000003440000000000346800000000034660000000003466000000000347303781000000000000793500000000002752505800000000000000009999123100000010000000000000BRLINXACNOR0118
012020092502LCAM3       010LOCAMERICA  ON  EJ  NM   R$  000000000242900000000025010000000002410000000000244500000000025010000000002501000000000250417442000000000008138800000000019904767300000000000000009999123100000010000000000000BRLCAMACNOR3134
012020092502KLBN11      010KLABIN S/A  UNT     N2   R$  000000000245900000000024670000000002389000000000243200000000024550000000002455000000000245915541000000000003746900000000009115470100000000000000009999123100000010000000000000BRKLBNCDAM18128
012020092502KLBN4       010KLABIN S/A  PN      N2   R$  000000000048400000000004860000000000473000000000047900000000004760000000000476000000000048401871000000000001219400000000000585018200000000000000009999123100000010000000000000BRKLBNACNPR9156
012020092502KLBN3       010KLABIN S/A  ON      N2   R$  000000000050300000000005250000000000502000000000051200000000005250000000000523000000000052500823000000000000280300000000000143766000000000000000009999123100000010000000000000BRKLBNACNOR2156
012020092502KHCB34      010KRAFT HEINZ DRN          R$  000000001609900000000160990000000016050000000001606400000000160500000000014500000000001950000002000000000000000350000000000005622400000000000000009999123100000010000000000000BRKHCBBDR007121
012020092502JSLG11      010JSL         ON  P   NM   R$  000000000085000000000008500000000000830000000000084700000000008500000000000837000000000085000368000000000000350600000000000297190600000000000000009999123100000010000000000000BRJSLGA02OR1100
012020092507LLIS3       010LE LIS BLANCON      NM   R$  000000000050600000000005060000000000497000000000050000000000004990000000000499000000000050300245000000000000124700000000000062461900000000000000009999123100000010000000000000BRLLISACNOR4113
012020092512LOFT11B     010FII LOFT I  CI      MB   R$  000000001015000000000101500000000010150000000001015000000000101500000000010050000000001015000001000000000000000002000000000000020300000000000000009999123100000010000000000000BRLOFTCTF005105
012020092512LOFT13B     010FII LOFT I  CI      MB   R$  000000001180000000000120000000000010650000000001153800000000106500000000010650000000001143700033000000000000000096000000000001107700000000000000009999123100000010000000000000BRLOFTCTF021101
012020092502JHSF3       010JHSF PART   ON      NM   R$  000000000070300000000007320000000000703000000000071700000000007250000000000725000000000072710008000000000006456500000000004632491000000000000000009999123100000010000000000000BRJHSFACNOR2116
012020092502JDCO34      010JD COM      DRN          R$  000000004085000000000415000000000040850000000004127500000000415000000000041441000000004200000009000000000000001740000000000071819000000000000000009999123100000010000000000000BRJDCOBDR001100
012020092502JBDU3       010J B DUARTE  ON           R$  000000000021700000000002170000000000213000000000021400000000002130000000000213000000000021700005000000000000000500000000000000107300000000000000009999123100000010000000000000BRJBDUACNOR6142
012020092502ITUB4       010ITAUUNIBANCOPN      N1   R$  000000000228100000000022980000000002262000000000227800000000022910000000002290000000000229133710000000000021771300000000049610164300000000000000009999123100000010000000000000BRITUBACNPR1273
012020092502ITSA4       010ITAUSA      PN      N1   R$  000000000090000000000009070000000000893000000000089800000000009020000000000901000000000090219679000000000014201800000000012761879500000000000000009999123100000010000000000000BRITSAACNPR7401
012020092502ITSA3       010ITAUSA      ON      N1   R$  000000000104000000000010470000000001021000000000103000000000010450000000001026000000000104500542000000000000141700000000000146052300000000000000009999123100000010000000000000BRITSAACNOR0401
012020092502IDVL4       010INDUSVAL    PN      N2   R$  000000000023700000000002400000000000234000000000023600000000002360000000000233000000000023600022000000000000024700000000000005840100000000000000009999123100000010000000000000BRIDVLACNPR2130
012020092502I1VZ34      010INVESCO LTD DRN          R$  000000000587900000000058930000000005879000000000588600000000058930000000000000000000000000000002000000000000000020000000000000117720000000000000009999123100000010000000000000BRI1VZBDR008103
012020092502HOME34      010HOME DEPOT  DRN          R$  000000007436700000000751570000000074367000000007513500000000751570000000000000000000000000000002000000000000000720000000000054097240000000000000009999123100000010000000000000BRHOMEBDR002134
012020092502HALI34      010HALLIBURTON DRN          R$  000000000694800000000069480000000006948000000000694800000000069480000000006040000000000000000001000000000000000060000000000000416880000000000000009999123100000010000000000000BRHALIBDR004135
012020092508FRTA3       010POMIFRUTAS  ON      NM   R$  000000000044900000000004490000000000447000000000044700000000004470000000000447000000000045000004000000000000000600000000000000268500000000000000009999123100000010000000000000BRFRTAACNOR8103
012020092502GSHP3       010GENERALSHOPPON      NM   R$  000000000480000000000048000000000004800000000000480000000000048000000000004750000000000550000001000000000000000100000000000000480000000000000000009999123100000010000000000000BRGSHPACNOR7102
012020092502GRND3       010GRENDENE    ON      NM   R$  000000000076700000000008090000000000766000000000078500000000007870000000000784000000000078706113000000000002949200000000002316631100000000000000009999123100000010000000000000BRGRNDACNOR3158
012020092502GPIV33      010GP INVEST   DR3          R$  000000000044700000000004670000000000434000000000044700000000004570000000000440000000000045700056000000000000030100000000000013473200000000000000009999123100000010000000000000BRGPIVBDR003104
012020092502GOLL4       010GOL         PN      N2   R$  000000000178100000000018050000000001747000000000177900000000017840000000001783000000000178415630000000000007225600000000012861545000000000000000009999123100000010000000000000BRGOLLACNPR4125
012020092502GOGL35      010ALPHABET    DRN C        R$  000000003185000000000322170000000031850000000003197700000000322170000000000000000000003221700002000000000000000230000000000007354860000000000000009999123100000010000000000000BRGOGLBDR019100
012020092502GOGL34      010ALPHABET    DRN A        R$  000000003160000000000320980000000031600000000003195100000000320980000000031900000000003209800028000000000000001370000000000043773340000000000000009999123100000010000000000000BRGOGLBDR001100
012020092502GOAU4       010GERDAU MET  PN      N1   R$  000000000092000000000009320000000000908000000000092100000000009230000000000923000000000092611368000000000010317400000000009507376900000000000000009999123100000010000000000000BRGOAUACNPR8251
012020092502GNDI3       010INTERMEDICA ON      NM   R$  000000000676600000000067880000000006592000000000669400000000067680000000006745000000000676812437000000000001985800000000013294525700000000000000009999123100000010000000000000BRGNDIACNOR2102
012020092502GGBR4       010GERDAU      PN      N1   R$  000000000205000000000020670000000002026000000000204400000000020510000000002051000000000205420881000000000012590100000000025741216000000000000000009999123100000010000000000000BRGGBRACNPR8173
012020092502GGBR3       010GERDAU      ON      N1   R$  000000000168700000000016870000000001662000000000167400000000016840000000001668000000000168400124000000000000037400000000000062614900000000000000009999123100000010000000000000BRGGBRACNOR1173
012020092508HOOT4       010HOTEIS OTHONPN           R$  000000000026800000000002740000000000264000000000026800000000002640000000000264000000000027300013000000000000002600000000000000698300000000000000009999123100000010000000000000BRHOOTACNPR9015
012020092502GDBR34      010GEN DYNAMICSDRN          R$  000000007600000000000760000000000076000000000007600000000000760000000000000000000000000000000001000000000000000010000000000000760000000000000000009999123100000010000000000000BRGDBRBDR002120
012020092502FRAS3       010FRAS-LE     ON      N1   R$  000000000058400000000005840000000000557000000000056600000000005690000000000569000000000057000566000000000000161200000000000091378500000000000000009999123100000010000000000000BRFRASACNOR0149
012020092502FLRY3       010FLEURY      ON      NM   R$  000000000276100000000027810000000002709000000000273400000000027320000000002731000000000273218185000000000003186400000000008714696800000000000000009999123100000010000000000000BRFLRYACNOR5127
012020092502FESA4       010FERBASA     PN      N1   R$  000000000175800000000017760000000001741000000000176200000000017730000000001751000000000177300597000000000000159700000000000281429600000000000000009999123100000010000000000000BRFESAACNPR5067
012020092502FESA3       010FERBASA     ON      N1   R$  000000000268400000000026840000000002683000000000268300000000026830000000002400000000000268400003000000000000000400000000000001073500000000000000009999123100000010000000000000BRFESAACNOR8171
012020092502EZTC3       010EZTEC       ON      NM   R$  000000000368000000000036950000000003618000000000365700000000036580000000003657000000000365807556000000000001229900000000004498253300000000000000009999123100000010000000000000BREZTCACNOR0114
012020092502EXXO34      010EXXON MOBIL DRN          R$  000000000476000000000048260000000004757000000000478400000000048260000000004781000000000482600008000000000000001600000000000007654570000000000000009999123100000010000000000000BREXXOBDR006140
012020092502EQPA5       010EQTL PARA   PNA          R$  000000000060700000000006070000000000607000000000060700000000006070000000000552000000000060400002000000000000000200000000000000121400000000000000009999123100000010000000000000BREQPAACNPA4101
012020092512PRSN11B     010FII PERSONALCI      MB   R$  000000000009000000000000920000000000090000000000009000000000000920000000000090000000000009200013000000000000000429000000000000038780000000000000009999123100000010000000000000BRPRSNCTF005115
012020092502EALT4       010ACO ALTONA  PN           R$  000000000051700000000005280000000000516000000000051800000000005240000000000517000000000052400037000000000000010300000000000005342500000000000000009999123100000010000000000000BREALTACNPR1133
012020092502EALT3       010ACO ALTONA  ON           R$  000000000119000000000011900000000001190000000000119000000000011900000000001190000000000122000001000000000000000100000000000000119000000000000000009999123100000010000000000000BREALTACNOR4133
012020092502EAIN34      010ELECTR ARTS DRN          R$  000000003630000000000363000000000036300000000003630000000000363000000000035000000000000000000001000000000000000040000000000001452000000000000000009999123100000010000000000000BREAINBDR007100
012020092502DTEX3       010DURATEX     ON      NM   R$  000000000174500000000017470000000001691000000000171000000000017160000000001714000000000171611197000000000002816000000000004816066700000000000000009999123100000010000000000000BRDTEXACNOR3128
012020092502DMMO3       010DOMMO       ON           R$  000000000010600000000001240000000000105000000000011600000000001220000000000122000000000012304118000000000012283800000000001427735500000000000000009999123100000010000000000000BRDMMOACNOR0102
012020092502DISB34      010WALT DISNEY DRN          R$  000000006808300000000689000000000068067000000006873100000000689000000000068000000000006895000007000000000000000420000000000028867310000000000000009999123100000010000000000000BRDISBBDR006114
012020092502DIRR3       010DIRECIONAL  ON      NM   R$  000000000136900000000013820000000001349000000000136800000000013740000000001374000000000137602438000000000000397000000000000543213300000000000000009999123100000010000000000000BRDIRRACNOR0112
012020092502DEOP34      010DIAGEO PL   DRN          R$  000000007186700000000718670000000071780000000007184200000000717800000000000000000000000000000002000000000000000070000000000005028950000000000000009999123100000010000000000000BRDEOPBDR004102
012020092502DASA3       010DASA        ON           R$  000000000580000000000058000000000005800000000000580000000000058000000000005600000000000639700001000000000000000100000000000000580000000000000000009999123100000010000000000000BRDASAACNOR1119
012020092502CYRE3       010CYRELA REALTON      NM   R$  000000000232300000000023950000000002294000000000235500000000023600000000002360000000000236423858000000000006249700000000014723404600000000000000009999123100000010000000000000BRCYREACNOR7134
012020092502CVSH34      010CVS HEALTH  DRN          R$  000000001584700000000158470000000015847000000001584700000000158470000000015100000000001610000001000000000000000030000000000000475410000000000000009999123100000010000000000000BRCVSHBDR008117
012020092502CVCB3       010CVC BRASIL  ON      NM   R$  000000000170000000000017180000000001671000000000168500000000016750000000001675000000000167609942000000000003078500000000005187729000000000000000009999123100000010000000000000BRCVCBACNOR1113
012020092502CURY3       010CURY S/A    ON      NM   R$  000000000099800000000010390000000000982000000000102300000000010390000000001006000000000103900867000000000000863900000000000884112600000000000000009999123100000010000000000000BRCURYACNOR3100
012020092502CTSA4       010SANTANENSE  PN           R$  000000000021000000000002160000000000205000000000021000000000002110000000000210000000000021300013000000000000002500000000000000526400000000000000009999123100000010000000000000BRCTSAACNPR0060
012020092502CTSA3       010SANTANENSE  ON           R$  000000000024500000000002470000000000242000000000024400000000002420000000000241000000000024700013000000000000002500000000000000610200000000000000009999123100000010000000000000BRCTSAACNOR3060
012020092502CTNM4       010COTEMINAS   PN           R$  000000000054000000000005480000000000535000000000054300000000005480000000000542000000000054800017000000000000003200000000000001739100000000000000009999123100000010000000000000BRCTNMACNPR6129
012020092502CTNM3       010COTEMINAS   ON           R$  000000000111400000000011150000000001114000000000111400000000011150000000001090000000000115000005000000000000001100000000000001225500000000000000009999123100000010000000000000BRCTNMACNOR9130
012020092502CTKA3       010KARSTEN     ON           R$  000000000140000000000014000000000001400000000000140000000000014000000000001381000000000145000003000000000000000500000000000000700000000000000000009999123100000010000000000000BRCTKAACNOR0043
012020092502CTGP34      010CITIGROUP   DRN          R$  000000002322200000000234430000000023222000000002340900000000233150000000020466000000002331500003000000000000000530000000000012407220000000000000009999123100000010000000000000BRCTGPBDR000139
012020092502CSNA3       010SID NACIONALON           R$  000000000156900000000015910000000001539000000000156900000000015910000000001590000000000159120597000000000008641100000000013558624700000000000000009999123100000010000000000000BRCSNAACNOR6252
012020092502CSMG3       010COPASA      ON  EJ  NM   R$  000000000484200000000048680000000004781000000000482300000000048180000000004816000000000481802962000000000000488600000000002356835700000000000000009999123100000010000000000000BRCSMGACNOR5157
012020092502CSCO34      010CISCO       DRN          R$  000000002123100000000212310000000021231000000002123100000000212310000000020100000000000000000001000000000000000060000000000001273860000000000000009999123100000010000000000000BRCSCOBDR004138
012020092502CSAN3       010COSAN       ON      NM   R$  000000000692700000000069310000000006789000000000683700000000068300000000006829000000000684405285000000000000857800000000005865073600000000000000009999123100000010000000000000BRCSANACNOR6120
012020092502CRPG5       010CRISTAL     PNA          R$  000000000204900000000020490000000001950000000000196700000000019610000000001961000000000199600023000000000000003700000000000007280800000000000000009999123100000010000000000000BRCRPGACNPA3108
012020092502CRIV4       010ALFA FINANC PN           R$  000000000063200000000006320000000000608000000000062500000000006080000000000625000000000065900003000000000000001100000000000000688100000000000000009999123100000010000000000000BRCRIVACNPR1204
012020092502CRFB3       010CARREFOUR BRON      NM   R$  000000000208800000000021150000000002058000000000207500000000020890000000002088000000000208910536000000000003473600000000007210128400000000000000009999123100000010000000000000BRCRFBACNOR2107
012020092502CPLE6       010COPEL       PNB     N1   R$  000000000650000000000065500000000006276000000000639000000000063880000000006386000000000638810035000000000002397300000000015319618000000000000000009999123100000010000000000000BRCPLEACNPB9136
012020092502COWC34      010COSTCO      DRN          R$  000000004772900000000477290000000047729000000004772900000000477290000000045269000000000000000001000000000000001500000000000071593500000000000000009999123100000010000000000000BRCOWCBDR006119
012020092502COTY34      010COTY INC    DRN          R$  000000000079600000000007960000000000750000000000078500000000007500000000000639000000000094500007000000000000007200000000000005656200000000000000009999123100000010000000000000BRCOTYBDR006116
012020092502COLG34      010COLGATE     DRN          R$  000000004217700000000421770000000042177000000004217700000000421770000000000000000000000000000001000000000000000030000000000001265310000000000000009999123100000010000000000000BRCOLGBDR000137
012020092502COGN3       010COGNA ON    ON      NM   R$  000000000054600000000005690000000000542000000000055600000000005580000000000558000000000055928703000000000040429800000000022488746300000000000000009999123100000010000000000000BRCOGNACNOR2101
012020092502COCE5       010COELCE      PNA          R$  000000000585000000000059850000000005750000000000585100000000059850000000005825000000000598500075000000000000012600000000000073727000000000000000009999123100000010000000000000BRCOCEACNPA3140
012020092502CNTO3       010CENTAURO    ON      NM   R$  000000000261200000000026260000000002537000000000257800000000025600000000002557000000000256006684000000000003181400000000008203654400000000000000009999123100000010000000000000BRCNTOACNOR5100
012020092502CMIG4       010CEMIG       PN      N1   R$  000000000107100000000010740000000001042000000000105100000000010540000000001053000000000105426388000000000010998000000000011567169500000000000000009999123100000010000000000000BRCMIGACNPR3225
012020092502CMIG3       010CEMIG       ON      N1   R$  000000000111800000000011240000000001091000000000110000000000011010000000001100000000000110102997000000000003204900000000003525845800000000000000009999123100000010000000000000BRCMIGACNOR6224
012020092502CMCS34      010COMCAST     DRN          R$  000000002530100000000257210000000025301000000002566300000000257210000000022000000000002572100006000000000000001460000000000037468940000000000000009999123100000010000000000000BRCMCSBDR008135
012020092502CLSC4       010CELESC      PN      N2   R$  000000000534500000000053450000000005300000000000530600000000053000000000005300000000000534500004000000000000000700000000000003714500000000000000009999123100000010000000000000BRCLSCACNPR3115
012020092502CIEL3       010CIELO       ON      NM   R$  000000000041600000000004250000000000411000000000041700000000004150000000000415000000000041616062000000000028087200000000011733285800000000000000009999123100000010000000000000BRCIELACNOR3142
012020092502CEBR3       010CEB         ON           R$  000000000680000000000069490000000006800000000000688300000000069000000000006400000000000699000003000000000000000300000000000002064900000000000000009999123100000010000000000000BRCEBRACNOR5118
012020092502BTTL3       010BATTISTELLA ON           R$  000000000123900000000012390000000001180000000000120400000000011990000000001200000000000122500019000000000000002500000000000003011100000000000000009999123100000010000000000000BRBTTLACNOR0108
012020092502BTOW3       010B2W DIGITAL ON      NM   R$  000000000949900000000096000000000009315000000000948000000000095410000000009541000000000954712243000000000002649500000000025118889500000000000000009999123100000010000000000000BRBTOWACNOR8111
012020092502BSEV3       010BIOSEV      ON      NM   R$  000000000043100000000004350000000000428000000000043000000000004280000000000428000000000043000090000000000000031300000000000013465400000000000000009999123100000010000000000000BRBSEVACNOR3102
012020092502BRSR6       010BANRISUL    PNB     N1   R$  000000000122300000000012260000000001209000000000121700000000012250000000001225000000000122603406000000000001379500000000001679748000000000000000009999123100000010000000000000BRBRSRACNPB4171
012020092502BRSR3       010BANRISUL    ON      N1   R$  000000000140300000000014030000000001390000000000139600000000014030000000001404000000000142000017000000000000001900000000000002653600000000000000009999123100000010000000000000BRBRSRACNOR3168
012020092502BRPR3       010BR PROPERT  ON      NM   R$  000000000091900000000009300000000000907000000000092000000000009300000000000923000000000093006353000000000001993600000000001834570300000000000000009999123100000010000000000000BRBRPRACNOR9119
012020092502BRML3       010BR MALLS PARON      NM   R$  000000000087700000000008820000000000866000000000087200000000008720000000000871000000000087222156000000000010556200000000009211821500000000000000009999123100000010000000000000BRBRMLACNOR9115
012020092502BRKM5       010BRASKEM     PNA     N1   R$  000000000208600000000021050000000002037000000000205900000000020780000000002076000000000207808242000000000002297400000000004732410200000000000000009999123100000010000000000000BRBRKMACNPA4117
012020092502BRKM3       010BRASKEM     ON      N1   R$  000000000207300000000020730000000002016000000000203700000000020430000000002028000000000211500045000000000000008200000000000016708400000000000000009999123100000010000000000000BRBRKMACNOR1117
012020092502BRIV4       010ALFA INVEST PN           R$  000000000080000000000008750000000000800000000000085000000000008260000000000826000000000083900105000000000000037800000000000032149700000000000000009999123100000010000000000000BRBRIVACNPR3211
012020092502BRGE12      010ALFA CONSORCPNF          R$  000000000062700000000006270000000000600000000000061500000000006200000000000585000000000062700003000000000000000300000000000000184700000000000000009999123100000010000000000000BRBRGEACNPF8096
012020092502BRFS3       010BRF SA      ON      NM   R$  000000000197800000000019820000000001930000000000195300000000019590000000001958000000000195916263000000000005851300000000011429527500000000000000009999123100000010000000000000BRBRFSACNOR8119
012020092502BRDT3       010PETROBRAS BRON      NM   R$  000000000209500000000021010000000002065000000000207900000000020880000000002087000000000208911290000000000002894900000000006019524000000000000000009999123100000010000000000000BRBRDTACNOR1120
012020092502BPAN4       010BANCO PAN   PN      N1   R$  000000000081900000000008290000000000806000000000081600000000008150000000000815000000000081602995000000000001140400000000000930949200000000000000009999123100000010000000000000BRBPANACNPR1109
012020092502BPAC11      010BTGP BANCO  UNT     N2   R$  000000000737000000000074300000000007250000000000735700000000074300000000007430000000000743110615000000000002042200000000015024704500000000000000009999123100000010000000000000BRBPACUNT006107
012020092502BPAC5       010BTGP BANCO  PNA     N2   R$  000000000167000000000017470000000001645000000000169900000000017470000000001700000000000176000058000000000000013100000000000022263200000000000000009999123100000010000000000000BRBPACACNPA0122
012020092502BPAC3       010BTGP BANCO  ON      N2   R$  000000000396900000000039690000000003861000000000391100000000038660000000003866000000000397300096000000000000012900000000000050458700000000000000009999123100000010000000000000BRBPACACNOR7122
012020092502BONY34      010BNY MELLON  DRN          R$  000000001850100000000185010000000018501000000001850100000000185010000000000000000000000000000001000000000000000150000000000002775150000000000000009999123100000010000000000000BRBONYBDR001120
012020092502BOBR4       010BOMBRIL     PN           R$  000000000019600000000001990000000000195000000000019600000000001990000000000197000000000019900050000000000000023400000000000004604400000000000000009999123100000010000000000000BRBOBRACNPR3128
012020092502BMYB34      010BRISTOLMYERSDRN          R$  000000003268500000000331200000000032685000000003277400000000331200000000028400000000000000000015000000000000001620000000000053095080000000000000009999123100000010000000000000BRBMYBBDR000127
012020092512WTSP11B     010FII WTC SP  CI  ER  MB   R$  000000000520000000000052000000000005200000000000520000000000052000000000005106000000000555500001000000000000000001000000000000005200000000000000009999123100000010000000000000BRWTSPCTF002127
012020092502BMKS3       010BIC MONARK  ON           R$  000000002270000000000229000000000022600000000002267200000000229000000000022610000000002290000004000000000000000011000000000000249400000000000000009999123100000010000000000000BRBMKSACNOR9162
012020092502BMEB4       010MERC BRASIL PN           R$  000000000189500000000018950000000001813000000000185100000000018540000000001836000000000185400041000000000000020400000000000037775400000000000000009999123100000010000000000000BRBMEBACNPR5201
012020092502BMEB3       010MERC BRASIL ON           R$  000000000190000000000019000000000001900000000000190000000000019000000000001827000000000190000004000000000000000800000000000001520000000000000000009999123100000010000000000000BRBMEBACNOR8196
012020092502BIOM3       010BIOMM       ON      MA   R$  000000000168000000000016800000000001641000000000165700000000016650000000001642000000000166500058000000000000007600000000000012595500000000000000009999123100000010000000000000BRBIOMACNOR2107
012020092502BIDI11      010BANCO INTER UNT     N2   R$  000000000533200000000053850000000005246000000000530000000000053210000000005316000000000532106030000000000000945600000000005012548600000000000000009999123100000010000000000000BRBIDICDAXX3106
012020092502BIDI4       010BANCO INTER PN      N2   R$  000000000180500000000018240000000001776000000000179200000000017830000000001782000000000178303057000000000000787100000000001410621100000000000000009999123100000010000000000000BRBIDIACNPR0111
012020092502BIDI3       010BANCO INTER ON      N2   R$  000000000171600000000017260000000001680000000000171100000000017080000000001708000000000171801151000000000000159400000000000272809700000000000000009999123100000010000000000000BRBIDIACNOR3107
012020092502BERK34      010BERKSHIRE   DRN          R$  000000011602400000001169140000000115906000000011641100000001169140000000112000000000011691400020000000000000000910000000000105934550000000000000009999123100000010000000000000BRBERKBDR002100
012020092502BEES3       010BANESTES    ON           R$  000000000050000000000005050000000000499000000000050100000000005000000000000500000000000050200116000000000000025600000000000012837500000000000000009999123100000010000000000000BRBEESACNOR9339
012020092502BEEF3       010MINERVA     ON      NM   R$  000000000120700000000012230000000001185000000000119700000000011950000000001194000000000119510589000000000004417800000000005289328900000000000000009999123100000010000000000000BRBEEFACNOR6108
012020092502BCSA34      010SANTANDER   DRN          R$  000000000100000000000010140000000001000000000000100600000000010050000000001005000000000108000017000000000000001070000000000001077400000000000000009999123100000010000000000000BRBCSABDR005101
012020092502BBSE3       010BBSEGURIDADEON      NM   R$  000000000251000000000025270000000002488000000000250300000000025030000000002503000000000250816180000000000003466000000000008676498500000000000000009999123100000010000000000000BRBBSEACNOR5117
012020092502BBRK3       010BR BROKERS  ON      NM   R$  000000000017000000000001800000000000170000000000017600000000001780000000000178000000000017900884000000000000805400000000000142226100000000000000009999123100000010000000000000BRBBRKACNOR4113
012020092502BBDC4       010BRADESCO    PN      N1   R$  000000000196900000000019780000000001947000000000196300000000019780000000001977000000000197828886000000000017282200000000033940628200000000000000009999123100000010000000000000BRBBDCACNPR8715
012020092502BBDC3       010BRADESCO    ON      N1   R$  000000000183800000000018410000000001815000000000182500000000018390000000001836000000000183911578000000000003785800000000006911565700000000000000009999123100000010000000000000BRBBDCACNOR1715
012020092502BBAS3       010BRASIL      ON      NM   R$  000000000302400000000030480000000002997000000000301700000000030300000000003029000000000303022906000000000009350100000000028217683900000000000000009999123100000010000000000000BRBBASACNOR3293
012020092514DIVO11      010IT NOW IDIV CI           R$  000000000559000000000056900000000005540000000000556100000000055670000000005567000000000567000078000000000000008130000000000045217110000000000000009999123100000010000000000000BRDIVOCTF002100
012020092502BAUH4       010EXCELSIOR   PN           R$  000000000869700000000086970000000008697000000000869700000000086970000000008300000000000878200003000000000000000300000000000002609100000000000000009999123100000010000000000000BRBAUHACNPR3115
012020092502BABA34      010ALIBABAGR   DRN          R$  000000014878700000001509470000000148787000000014939200000001509470000000149900000000015380000008000000000000000120000000000017927150000000000000009999123100000010000000000000BRBABABDR005100
012020092502AURA32      010AURA 360    DR2          R$  000000000595000000000061270000000005701000000000589200000000061270000000005900000000000612700138000000000000076600000000000451333200000000000000009999123100000010000000000000BRAURABDR001102
012020092502ATTB34      010ATT INC     DRN          R$  000000001561100000000156110000000015611000000001561100000000156110000000015350000000001561100001000000000000000420000000000006556620000000000000009999123100000010000000000000BRATTBBDR007132
012020092502ATOM3       010ATOMPAR     ON           R$  000000000030000000000003300000000000300000000000031900000000003300000000000329000000000033100673000000000000516300000000000164731000000000000000009999123100000010000000000000BRATOMACNOR1103
012020092502ARZZ3       010AREZZO CO   ON      NM   R$  000000000537000000000055290000000005322000000000540100000000054540000000005453000000000545403223000000000000471100000000002544567500000000000000009999123100000010000000000000BRARZZACNOR3137
012020092502ARNC34      010HOWMET AERO DRN          R$  000000000915900000000091590000000009159000000000915900000000091590000000000000000000000000000002000000000000000600000000000005495400000000000000009999123100000010000000000000BRARNCBDR002115
012020092502APER3       010ALPER S.A.  ON      NM   R$  000000000290000000000029000000000002750000000000278700000000027500000000002730000000000275000191000000000000039600000000000110389600000000000000009999123100000010000000000000BRAPERACNOR9102
012020092502AHEB5       010SPTURIS     PNA          R$  000000000236500000000023650000000002365000000000236500000000023650000000002364000000000600000001000000000000000100000000000000236500000000000000009999123100000010000000000000BRAHEBACNPA3106
012020092502ABEV3       010AMBEV S/A   ON           R$  000000000126500000000012910000000001250000000000126800000000012840000000001283000000000128423252000000000026495500000000033621440300000000000000009999123100000010000000000000BRABEVACNOR1122
012020092502ABCB4       010ABC BRASIL  PN      N2   R$  000000000124000000000012460000000001216000000000122300000000012300000000001229000000000123004523000000000000818500000000001001141300000000000000009999123100000010000000000000BRABCBACNPR4134
012020092502ABBV34      010ABBVIE      DRN          R$  000000004778000000000480000000000047758000000004785400000000480000000000000000000000000000000019000000000000001660000000000079438280000000000000009999123100000010000000000000BRABBVBDR001118
012020092502AAPL34      010APPLE       DRN          R$  000000000605000000000062400000000006025000000000618700000000062370000000006213000000000623700426000000000000105480000000000652681940000000000000009999123100000010000000000000BRAAPLBDR004135
012020092502AALR3       010ALLIAR      ON      NM   R$  000000000106400000000010710000000001048000000000106000000000010590000000001058000000000105901042000000000000251700000000000266833400000000000000009999123100000010000000000000BRAALRACNOR6102
012020092502USIM5       010USIMINAS    PNA     N1   R$  000000000102800000000010490000000001017000000000102900000000010270000000001026000000000102724839000000000020107400000000020709400700000000000000009999123100000010000000000000BRUSIMACNPA6162
012020092502UNIP3       010UNIPAR      ON           R$  000000000340000000000034500000000003370000000000340800000000034500000000003360000000000345000036000000000000010300000000000035107100000000000000009999123100000010000000000000BRUNIPACNOR7192
012020092502UNHH34      010UNITEDHEALTHDRN          R$  000000003308000000000336210000000033080000000003345100000000336210000000000000000000003362100002000000000000000160000000000005352310000000000000009999123100000010000000000000BRUNHHBDR000106
012020092508SLED4       010SARAIVA LIVRPN      N2   R$  000000000007100000000000710000000000069000000000006900000000000690000000000069000000000007000481000000000000673700000000000046846400000000000000009999123100000010000000000000BRSLEDACNPR7156
012020092502U1BE34      010UBER TECH INDRN          R$  000000001900000000000190000000000019000000000001900000000000190000000000016000000000000000000016000000000000005200000000000098800000000000000000009999123100000010000000000000BRU1BEBDR009100
012020092502U1AI34      010UNDER ARMOURDRN          R$  000000000547300000000054730000000005443000000000546300000000054730000000000000000000000000000003000000000000000030000000000000163890000000000000009999123100000010000000000000BRU1AIBDR002100
012020092502TUPY3       010TUPY        ON      NM   R$  000000000158000000000015980000000001569000000000158200000000015880000000001588000000000159001894000000000000615300000000000973772300000000000000009999123100000010000000000000BRTUPYACNOR1175
012020092502TSLA34      010TESLA INC   DRN          R$  000000005360000000000569200000000053600000000005578900000000564000000000056400000000005650000227000000000000023320000000001301013230000000000000009999123100000010000000000000BRTSLABDR008101
012020092502VERZ34      010VERIZON     DRN          R$  000000003305300000000330530000000033053000000003305300000000330530000000030000000000003305300001000000000000000200000000000006610600000000000000009999123100000010000000000000BRVERZBDR008134
012020092512ALZR11      010FII ALIANZA CI  ER       R$  000000001289000000000128900000000012803000000001285000000000128790000000012879000000001288203637000000000000013003000000000167094783000000000000009999123100000010000000000000BRALZRCTF006134
012020092522BEEF11      010MINERVA     BNS ORD NM   R$  000000000065100000000006540000000000622000000000064400000000006490000000000640000000000064900297000000000000113100000000000072887100000000000000009999123100000010000000000000BRBEEFN02OR8100
012020092512ATSA11      010FII HATRIUM CI           R$  000000001050300000000110990000000010503000000001090000000000110990000000010600000000001110000003000000000000000003000000000000032701000000000000009999123100000010000000000000BRATSACTF000135
012020092512BARI11      010FII BARIGUI CI           R$  000000001067400000000106740000000010546000000001055700000000105600000000010555000000001057900444000000000000010326000000000109016201000000000000009999123100000010000000000000BRBARICTF003116
012020092512BBPO11      010FII BB PRGIICI           R$  000000001384500000000138900000000013820000000001386600000000138610000000013861000000001388000641000000000000014328000000000198675141000000000000009999123100000010000000000000BRBBPOCTF003194
012020092512BBRC11      010FII BB CORP CI           R$  000000001508000000000150870000000014804000000001497500000000150580000000014985000000001505800099000000000000000943000000000014121560000000000000009999123100000010000000000000BRBBRCCTF004208
012020092512BBVJ11      010FII C JARDIMCI           R$  000000000609600000000061160000000006096000000000610700000000060960000000006060000000000609200009000000000000000012000000000000073295000000000000009999123100000010000000000000BRBBVJCTF001192
012020092512BCFF11      010FII BC FFII CI           R$  000000000909000000000090990000000009033000000000908400000000090680000000009065000000000906804586000000000000047799000000000434247821000000000000009999123100000010000000000000BRBCFFCTF000231
012020092596A1DM34F     020ARCHER DANIEDRN          R$  000000002556000000000255600000000025560000000002556000000000255600000000000000000000000000000001000000000000000001000000000000025560000000000000009999123100000010000000000000BRA1DMBDR002103
012020092596A1GI34F     020AGILENT TECHDRN          R$  000000002682000000000268200000000026820000000002682000000000268200000000000000000000000000000001000000000000000005000000000000134100000000000000009999123100000010000000000000BRA1GIBDR003102
012020092596A1MD34F     020ADVANCED MICDRN          R$  000000004230000000000429300000000042300000000004277200000000429300000000020300000000004750000003000000000000000004000000000000171090000000000000009999123100000010000000000000BRA1MDBDR002100
012020092596AALR3F      020ALLIAR      ON      NM   R$  000000000105400000000010680000000001049000000000105900000000010600000000001060000000000107500151000000000000003748000000000003969265000000000000009999123100000010000000000000BRAALRACNOR6102
012020092596AAPL34F     020APPLE       DRN          R$  000000000610000000000062400000000006065000000000613400000000062340000000006209000000000623400030000000000000000092000000000000564376000000000000009999123100000010000000000000BRAAPLBDR004135
012020092596ABCB4F      020ABC BRASIL  PN      N2   R$  000000000125000000000012500000000001217000000000122500000000012320000000001230000000000123201070000000000000015886000000000019462793000000000000009999123100000010000000000000BRABCBACNPR4134
012020092512BCIA11      010FII BCIA    CI           R$  000000001247100000000125200000000012402000000001247000000000124890000000012488000000001248900302000000000000009281000000000115742930000000000000009999123100000010000000000000BRBCIACTF005165
012020092596ABEV3F      020AMBEV S/A   ON           R$  000000000126400000000012890000000001250000000000126800000000012860000000001285000000000128603244000000000000050860000000000064532945000000000000009999123100000010000000000000BRABEVACNOR1122
012020092596ABTT34F     020ABBOTT      DRN          R$  000000001428000000000142800000000014280000000001428000000000142800000000013000000000001580000001000000000000000008000000000000114240000000000000009999123100000010000000000000BRABTTBDR007135
012020092596ADBE34F     020ADOBE INC   DRN          R$  000000005184000000000528000000000051840000000005260800000000528000000000049320000000000000000004000000000000000005000000000000263040000000000000009999123100000010000000000000BRADBEBDR003100
012020092596ADHM3F      020ADVANCED-DH ON           R$  000000000020500000000002100000000000205000000000020600000000002100000000000205000000000021000019000000000000000261000000000000053974000000000000009999123100000010000000000000BRADHMACNOR9102
012020092596AFLT3F      020AFLUENTE T  ON  ED       R$  000000000099500000000009950000000000992000000000099300000000009920000000000981000000000099200011000000000000000036000000000000035777000000000000009999123100000010000000000000BRAFLTACNOR1116
012020092596AGRO3F      020BRASILAGRO  ON      NM   R$  000000000219200000000021990000000002155000000000216600000000021680000000002168000000000218800183000000000000002492000000000005398101000000000000009999123100000010000000000000BRAGROACNOR7109
012020092596AHEB3F      020SPTURIS     ON           R$  000000000230000000000023100000000002300000000000230000000000023100000000002151000000000249800003000000000000000024000000000000055220000000000000009999123100000010000000000000BRAHEBACNOR0106
012020092596ALPA3F      020ALPARGATAS  ON      N1   R$  000000000310100000000033600000000003101000000000326500000000033600000000003297000000000336000067000000000000000842000000000002749564000000000000009999123100000010000000000000BRALPAACNOR0229
012020092596ALPA4F      020ALPARGATAS  PN      N1   R$  000000000361000000000038830000000003610000000000380000000000038600000000003847000000000386000598000000000000011790000000000044803060000000000000009999123100000010000000000000BRALPAACNPR7229
012020092596ALPK3F      020ESTAPAR     ON      NM   R$  000000000091800000000009290000000000915000000000092100000000009280000000000921000000000093000019000000000000000264000000000000243359000000000000009999123100000010000000000000BRALPKACNOR9100
012020092596ALSO3F      020ALIANSCSONAEON      NM   R$  000000000251000000000025240000000002466000000000248400000000025030000000002492000000000250300887000000000000015398000000000038256318000000000000009999123100000010000000000000BRALSOACNOR5100
012020092596ALUP3F      020ALUPAR      ON      N2   R$  000000000100000000000010010000000000990000000000099600000000009950000000000987000000000099500015000000000000000144000000000000143508000000000000009999123100000010000000000000BRALUPACNOR8111
012020092596ALUP4F      020ALUPAR      PN      N2   R$  000000000071000000000007100000000000700000000000070400000000007040000000000705000000000071000077000000000000000996000000000000702090000000000000009999123100000010000000000000BRALUPACNPR5111
012020092512BCRI11      010FII BEES CRICI           R$  000000001081600000000108160000000010793000000001080200000000107970000000010796000000001079700413000000000000006681000000000072172200000000000000009999123100000010000000000000BRBCRICTF009168
012020092596AMAR3F      020LOJAS MARISAON      NM   R$  000000000073700000000007570000000000721000000000074000000000007410000000000741000000000074700641000000000000014921000000000011050548000000000000009999123100000010000000000000BRAMARACNOR4112
012020092596AMBP3F      020AMBIPAR     ON      NM   R$  000000000302500000000030420000000002959000000000299300000000030420000000002997000000000304200262000000000000003852000000000011530670000000000000009999123100000010000000000000BRAMBPACNOR6100
012020092596AMZO34F     020AMAZON      DRN          R$  000000084300000000008591000000000843000000000085332400000008590000000000860000000000086200000010000000000000000017000000000014506514000000000000009999123100000010000000000000BRAMZOBDR002101
012020092596ANIM3F      020ANIMA       ON      NM   R$  000000000276400000000028820000000002764000000000282600000000028820000000002860000000000288200121000000000000002474000000000006993440000000000000009999123100000010000000000000BRANIMACNOR6106
012020092596APER3F      020ALPER S.A.  ON      NM   R$  000000000285800000000029010000000002761000000000281900000000027980000000002761000000000279700053000000000000000575000000000001621281000000000000009999123100000010000000000000BRAPERACNOR9102
012020092596ARMT34F     020ARCELOR     DRN          R$  000000000332100000000033210000000003321000000000332100000000033210000000000000000000000000000001000000000000000005000000000000016605000000000000009999123100000010000000000000BRARMTBDR008117
012020092596ARZZ3F      020AREZZO CO   ON      NM   R$  000000000541000000000055200000000005328000000000539900000000055040000000005454000000000550400300000000000000004895000000000026430294000000000000009999123100000010000000000000BRARZZACNOR3137
012020092596ATMP3F      020ATMASA      ON      NM   R$  000000000040100000000004060000000000401000000000040300000000004050000000000405000000000041400008000000000000000123000000000000049675000000000000009999123100000010000000000000BRATMPACNOR8100
012020092596ATOM3F      020ATOMPAR     ON           R$  000000000030100000000003300000000000301000000000031600000000003250000000000325000000000032900293000000000000004944000000000001566821000000000000009999123100000010000000000000BRATOMACNOR1103
012020092596AURA32F     020AURA 360    DR2          R$  000000000608000000000060800000000005699000000000588600000000060100000000006010000000000636500071000000000000001021000000000006009742000000000000009999123100000010000000000000BRAURABDR001102
012020092596AZEV3F      020AZEVEDO     ON           R$  000000000098000000000010400000000000970000000000098000000000009720000000000971000000000103000027000000000000000167000000000000163809000000000000009999123100000010000000000000BRAZEVACNOR0117
012020092596AZEV4F      020AZEVEDO     PN           R$  000000000034000000000003400000000000311000000000031400000000003120000000000313000000000033400019000000000000000139000000000000043739000000000000009999123100000010000000000000BRAZEVACNPR7117
012020092596AZUL4F      020AZUL        PN      N2   R$  000000000267000000000027330000000002635000000000268800000000026790000000002677000000000267902949000000000000064749000000000174051517000000000000009999123100000010000000000000BRAZULACNPR4100
012020092596B3SA3F      020B3          ON  EDJ NM   R$  000000000576800000000057900000000005664000000000571800000000057390000000005732000000000573903479000000000000050268000000000287471137000000000000009999123100000010000000000000BRB3SAACNOR6112
012020092596BABA34F     020ALIBABAGR   DRN          R$  000000014905000000001500000000000149000000000014976300000001500000000000149600000000017150000007000000000000000015000000000002246450000000000000009999123100000010000000000000BRBABABDR005100
012020092512BICR11      010FII INTER   CI           R$  000000000999900000000099990000000009995000000000999500000000099950000000009707000000001008800002000000000000000049000000000000489763000000000000009999123100000010000000000000BRBICRCTF009109
012020092596BALM4F      020BAUMER      PN           R$  000000000148800000000014880000000001488000000000148800000000014880000000001200000000000148000004000000000000000007000000000000010416000000000000009999123100000010000000000000BRBALMACNPR2051
012020092596BAZA3F      020AMAZONIA    ON           R$  000000000397000000000039700000000003910000000000394800000000039100000000003909000000000395500045000000000000000300000000000001184480000000000000009999123100000010000000000000BRBAZAACNOR0174
012020092596BBAS3F      020BRASIL      ON      NM   R$  000000000303700000000030480000000002999000000000301700000000030320000000003031000000000303205076000000000000074605000000000225139292000000000000009999123100000010000000000000BRBBASACNOR3293
012020092596BBDC3F      020BRADESCO    ON      N1   R$  000000000184300000000018430000000001816000000000182600000000018360000000001836000000000184001493000000000000023312000000000042569520000000000000009999123100000010000000000000BRBBDCACNOR1715
012020092596BBDC4F      020BRADESCO    PN      N1   R$  000000000197900000000019790000000001948000000000196200000000019790000000001978000000000197905290000000000000077573000000000152255934000000000000009999123100000010000000000000BRBBDCACNPR8715
012020092596BBRK3F      020BR BROKERS  ON      NM   R$  000000000017200000000001800000000000172000000000017600000000001760000000000176000000000017700318000000000000004964000000000000876891000000000000009999123100000010000000000000BRBBRKACNOR4113
012020092596BBSD11F     020BB ETF SP DVCI           R$  000000000780000000000078240000000007400000000000756400000000076650000000007665000000000810000008000000000000000013000000000000098337000000000000009999123100000010000000000000BRBBSDCTF000100
012020092596BBSE3F      020BBSEGURIDADEON      NM   R$  000000000251600000000025260000000002489000000000250200000000025130000000002510000000000251504269000000000000052079000000000130329761000000000000009999123100000010000000000000BRBBSEACNOR5117
012020092596BCSA34F     020SANTANDER   DRN          R$  000000000101700000000010170000000000999000000000100800000000010100000000001010000000000101300013000000000000000059000000000000059507000000000000009999123100000010000000000000BRBCSABDR005101
012020092596BDLL4F      020BARDELLA    PN           R$  000000000097000000000010690000000000952000000000099500000000010290000000001000000000000105000030000000000000000849000000000000845172000000000000009999123100000010000000000000BRBDLLACNPR8151
012020092596BEEF3F      020MINERVA     ON      NM   R$  000000000122700000000012270000000001186000000000119700000000011960000000001196000000000120001159000000000000021902000000000026231813000000000000009999123100000010000000000000BRBEEFACNOR6108
012020092596BEEF11F     020MINERVA     BNS ORD NM   R$  000000000066500000000006850000000000631000000000065500000000006500000000000631000000000065000031000000000000000290000000000000190055000000000000009999123100000010000000000000BRBEEFN02OR8100
012020092596BEES3F      020BANESTES    ON           R$  000000000050400000000005050000000000497000000000050100000000005020000000000504000000000050500258000000000000002053000000000001030117000000000000009999123100000010000000000000BRBEESACNOR9339
012020092596BEES4F      020BANESTES    PN           R$  000000000052500000000005650000000000515000000000053600000000005650000000000519000000000056500094000000000000001068000000000000573104000000000000009999123100000010000000000000BRBEESACNPR6264
012020092596BERK34F     020BERKSHIRE   DRN          R$  000000011700000000001176000000000115948000000011731800000001176000000000114569000000000000000007000000000000000016000000000001877094000000000000009999123100000010000000000000BRBERKBDR002100
012020092502SUZB3       010SUZANO S.A. ON      NM   R$  000000000469100000000048240000000004608000000000473300000000048140000000004810000000000481422483000000000006333400000000029977755500000000000000009999123100000010000000000000BRSUZBACNOR0124
012020092596BIDI3F      020BANCO INTER ON      N2   R$  000000000172500000000017260000000001675000000000170900000000017100000000001715000000000172500346000000000000007183000000000012278659000000000000009999123100000010000000000000BRBIDIACNOR3107
012020092596BIDI4F      020BANCO INTER PN      N2   R$  000000000181300000000018220000000001777000000000179100000000017920000000001792000000000179801323000000000000021399000000000038343022000000000000009999123100000010000000000000BRBIDIACNPR0111
012020092596BIDI11F     020BANCO INTER UNT     N2   R$  000000000535000000000053990000000005252000000000530400000000053000000000005300000000000532500236000000000000003640000000000019309654000000000000009999123100000010000000000000BRBIDICDAXX3106
012020092596BIOM3F      020BIOMM       ON      MA   R$  000000000165500000000016550000000001610000000000161800000000016350000000001635000000000166500011000000000000000192000000000000310830000000000000009999123100000010000000000000BRBIOMACNOR2107
012020092596BKBR3F      020BK BRASIL   ON      NM   R$  000000000110300000000011290000000001102000000000111800000000011100000000001109000000000112000323000000000000010545000000000011795952000000000000009999123100000010000000000000BRBKBRACNOR4103
012020092596BKNG34F     020BOOKING     DRN          R$  000000003735000000000373500000000036450000000003681000000000364500000000000000000000000000000003000000000000000003000000000000110430000000000000009999123100000010000000000000BRBKNGBDR006100
012020092596BMEB3F      020MERC BRASIL ON           R$  000000000185500000000019600000000001854000000000187200000000018550000000001855000000000196000008000000000000000030000000000000056174000000000000009999123100000010000000000000BRBMEBACNOR8196
012020092502VIVT4       010TELEF BRASILPN           R$  000000000456600000000045740000000004490000000000452400000000045320000000004532000000000453707500000000000001530600000000006924875200000000000000009999123100000010000000000000BRVIVTACNPR7152
012020092502SULA4       010SUL AMERICA PN      N2   R$  000000000121500000000012300000000001201000000000121600000000012300000000001210000000000123000019000000000000002700000000000003284000000000000000009999123100000010000000000000BRSULAACNPR9141
012020092512BMLC11B     010FII BMBRC LCCI      MB   R$  000000000958000000000095990000000009222000000000944800000000095910000000009265000000000959200068000000000000001378000000000013020213000000000000009999123100000010000000000000BRBMLCCTF004204
012020092502STBP3       010SANTOS BRP  ON      NM   R$  000000000042800000000004320000000000417000000000042400000000004220000000000421000000000042221213000000000024921300000000010587152000000000000000009999123100000010000000000000BRSTBPACNOR3117
012020092596BOBR4F      020BOMBRIL     PN           R$  000000000020000000000002000000000000195000000000019600000000001970000000000196000000000019700088000000000000000832000000000000163583000000000000009999123100000010000000000000BRBOBRACNPR3128
012020092596BOVA11F     020ISHARES BOVACI           R$  000000000931900000000093300000000009206000000000927000000000093300000000009330000000000933500925000000000000002255000000000020905927000000000000009999123100000010000000000000BRBOVACTF003104
012020092596BOVB11F     020ETF BRAD BOVCI           R$  000000000971100000000100000000000009594000000000973000000000100000000000009500000000001000000004000000000000000009000000000000087571000000000000009999123100000010000000000000BRBOVBCTF001100
012020092596BOVV11F     020IT NOW IBOV CI           R$  000000000985000000000098500000000009616000000000972100000000098450000000009635000000000984500045000000000000000116000000000001127743000000000000009999123100000010000000000000BRBOVVCTF009100
012020092596BOXP34F     020BOSTON PROP DRN          R$  000000000441900000000044190000000004419000000000441900000000044190000000000000000000000000000001000000000000000002000000000000008838000000000000009999123100000010000000000000BRBOXPBDR008120
012020092596BPAC3F      020BTGP BANCO  ON      N2   R$  000000000402400000000040390000000003875000000000392700000000038750000000003875000000000399800048000000000000000389000000000001527985000000000000009999123100000010000000000000BRBPACACNOR7122
012020092596BPAC5F      020BTGP BANCO  PNA     N2   R$  000000000166000000000017500000000001641000000000169600000000017500000000001720000000000180000025000000000000000313000000000000530872000000000000009999123100000010000000000000BRBPACACNPA0122
012020092512BPFF11      010FII ABSOLUTOCI           R$  000000000815400000000081930000000008148000000000816800000000081840000000008184000000000819301056000000000000018159000000000148323707000000000000009999123100000010000000000000BRBPFFCTF002191
012020092596BPAN4F      020BANCO PAN   PN      N1   R$  000000000082300000000008280000000000807000000000081700000000008170000000000815000000000081700528000000000000011761000000000009618693000000000000009999123100000010000000000000BRBPANACNPR1109
012020092596BRAP3F      020BRADESPAR   ON      N1   R$  000000000390400000000039420000000003851000000000390900000000038510000000003851000000000394500022000000000000000355000000000001387827000000000000009999123100000010000000000000BRBRAPACNOR5136
012020092596BRAP4F      020BRADESPAR   PN      N1   R$  000000000448700000000045780000000004460000000000453600000000045660000000004555000000000456600356000000000000004751000000000021553206000000000000009999123100000010000000000000BRBRAPACNPR2136
012020092596BRAX11F     020ISHARES BRAXCI           R$  000000000835000000000083500000000008001000000000809800000000080010000000007760000000000832900011000000000000000023000000000000186256000000000000009999123100000010000000000000BRBRAXCTF002100
012020092596BRDT3F      020PETROBRAS BRON      NM   R$  000000000209600000000021100000000002066000000000207800000000020890000000002081000000000208900545000000000000008352000000000017362676000000000000009999123100000010000000000000BRBRDTACNOR1120
012020092596BRFS3F      020BRF SA      ON      NM   R$  000000000198200000000019910000000001931000000000195500000000019850000000001975000000000198501306000000000000019875000000000038858919000000000000009999123100000010000000000000BRBRFSACNOR8119
012020092512BRCO11      010FII BRESCO  CI           R$  000000001290100000000129510000000012555000000001284100000000129300000000012800000000001293000336000000000000005851000000000075137207000000000000009999123100000010000000000000BRBRCOCTF007109
012020092596BRGE12F     020ALFA CONSORCPNF          R$  000000000060000000000006800000000000550000000000063900000000005520000000000552000000000067500035000000000000003171000000000002027911000000000000009999123100000010000000000000BRBRGEACNPF8096
012020092512BRCR11      010FII BC FUND CI           R$  000000000917400000000091750000000008990000000000909000000000090320000000009032000000000904007346000000000000047974000000000436084097000000000000009999123100000010000000000000BRBRCRCTF000221
012020092596BRIV4F      020ALFA INVEST PN           R$  000000000085700000000008600000000000832000000000085400000000008510000000000832000000000085100017000000000000000123000000000000105082000000000000009999123100000010000000000000BRBRIVACNPR3211
012020092596BRKM3F      020BRASKEM     ON      N1   R$  000000000204000000000020590000000002013000000000203800000000020500000000002040000000000210000036000000000000000488000000000000994615000000000000009999123100000010000000000000BRBRKMACNOR1117
012020092596BRKM5F      020BRASKEM     PNA     N1   R$  000000000209600000000021020000000002039000000000206000000000020780000000002078000000000208000597000000000000011026000000000022715353000000000000009999123100000010000000000000BRBRKMACNPA4117
012020092596BRML3F      020BR MALLS PARON      NM   R$  000000000088300000000008830000000000867000000000087200000000008740000000000873000000000087401609000000000000027755000000000024208496000000000000009999123100000010000000000000BRBRMLACNOR9115
012020092596BRPR3F      020BR PROPERT  ON      NM   R$  000000000092400000000009260000000000910000000000091700000000009260000000000917000000000092700109000000000000003341000000000003065756000000000000009999123100000010000000000000BRBRPRACNOR9119
012020092596BRSR3F      020BANRISUL    ON      N1   R$  000000000140000000000014380000000001380000000000141200000000014300000000001404000000000143000036000000000000000197000000000000278221000000000000009999123100000010000000000000BRBRSRACNOR3168
012020092512BTLG11      010FII BTLG    CI  ER       R$  000000001045000000000104600000000010421000000001043300000000104500000000010448000000001045002670000000000000032533000000000339434801000000000000009999123100000010000000000000BRBTLGCTF000113
012020092596BSEV3F      020BIOSEV      ON      NM   R$  000000000043100000000004350000000000427000000000042900000000004350000000000429000000000043500065000000000000001040000000000000446970000000000000009999123100000010000000000000BRBSEVACNOR3102
012020092512CBOP11      010FII C BRANCOCI           R$  000000000795000000000079500000000007898000000000790100000000078980000000007898000000000793100040000000000000000876000000000006922062000000000000009999123100000010000000000000BRCBOPCTF001185
012020092596BTOW3F      020B2W DIGITAL ON      NM   R$  000000000952000000000095990000000009322000000000947700000000095600000000009550000000000956000982000000000000019473000000000184564053000000000000009999123100000010000000000000BRBTOWACNOR8111
012020092502SHUL4       010SCHULZ      PN           R$  000000000118600000000012480000000001173000000000121200000000012480000000001246000000000124900742000000000000248500000000000301425600000000000000009999123100000010000000000000BRSHULACNPR4136
012020092512CNES11      010FII CENESP  CI  ER       R$  000000000655000000000065500000000006525000000000654500000000065500000000006545000000000655000024000000000000000339000000000002218820000000000000009999123100000010000000000000BRCNESCTF001214
012020092512CPFF11      010FII CAP REITCI           R$  000000000779800000000078000000000007737000000000778000000000077400000000007740000000000775400461000000000000005030000000000039135804000000000000009999123100000010000000000000BRCPFFCTF000110
012020092596CAMB3F      020CAMBUCI     ON           R$  000000000041200000000004120000000000400000000000040400000000004030000000000400000000000040800013000000000000000096000000000000038789000000000000009999123100000010000000000000BRCAMBACNOR4119
012020092596CAML3F      020CAMIL       ON      NM   R$  000000000130500000000013110000000001284000000000129400000000013090000000001306000000000131000504000000000000010895000000000014107573000000000000009999123100000010000000000000BRCAMLACNOR3111
012020092596CARD3F      020CSU CARDSYSTON      NM   R$  000000000141600000000014330000000001397000000000141700000000014280000000001428000000000143500197000000000000003576000000000005068735000000000000009999123100000010000000000000BRCARDACNOR9118
012020092596CCPR3F      020CYRE COM-CCPON      NM   R$  000000000136900000000014000000000001342000000000135100000000013600000000001342000000000136400097000000000000001324000000000001789022000000000000009999123100000010000000000000BRCCPRACNOR9114
012020092596CCRO3F      020CCR SA      ON      NM   R$  000000000137800000000013880000000001356000000000137400000000013840000000001380000000000138400429000000000000008267000000000011366591000000000000009999123100000010000000000000BRCCROACNOR2137
012020092512CPTS11      010FII CAPI SECCI           R$  000000000969200000000097480000000009641000000000968500000000096500000000009650000000000973401304000000000000037005000000000358425836000000000000009999123100000010000000000000BRCPTSCTF004180
012020092502SBSP3       010SABESP      ON      NM   R$  000000000476100000000048560000000004713000000000480700000000048310000000004831000000000483214618000000000003551400000000017073024600000000000000009999123100000010000000000000BRSBSPACNOR5157
012020092502SAPR11      010SANEPAR     UNT     N2   R$  000000000268200000000027020000000002640000000000265500000000026430000000002642000000000264304828000000000000919200000000002440854000000000000000009999123100000010000000000000BRSAPRCDAM13109
012020092502SAPR4       010SANEPAR     PN      N2   R$  000000000053400000000005370000000000526000000000053000000000005270000000000527000000000052904105000000000002148500000000001139619700000000000000009999123100000010000000000000BRSAPRACNPR6150
012020092502SAPR3       010SANEPAR     ON      N2   R$  000000000055400000000005540000000000540000000000054700000000005470000000000545000000000054700456000000000000128200000000000070168000000000000000009999123100000010000000000000BRSAPRACNOR9150
012020092502SAPP34      010SAP SE      DRN          R$  000000008448600000000844860000000084486000000008448600000000844860000000000000000000000000000001000000000000000020000000000001689720000000000000009999123100000010000000000000BRSAPPBDR007101
012020092502SANB4       010SANTANDER BRPN           R$  000000000144200000000014460000000001424000000000143500000000014390000000001439000000000145000491000000000000103800000000000149025700000000000000009999123100000010000000000000BRSANBACNPR5153
012020092596CESP3F      020CESP        ON      N1   R$  000000000327000000000032700000000003054000000000319800000000030540000000003060000000000332800002000000000000000003000000000000009594000000000000009999123100000010000000000000BRCESPACNOR3169
012020092502SANB3       010SANTANDER BRON           R$  000000000128000000000012830000000001261000000000126800000000012770000000001270000000000127700401000000000000106900000000000135632600000000000000009999123100000010000000000000BRSANBACNOR8153
012020092596CESP6F      020CESP        PNB     N1   R$  000000000292000000000029360000000002875000000000291400000000029250000000002900000000000292500278000000000000003494000000000010183074000000000000009999123100000010000000000000BRCESPACNPB4128
012020092502S1YF34      010SYNCHRONY FIDRN          R$  000000001390800000000139080000000013907000000001390700000000139070000000000000000000000000000003000000000000001800000000000025034000000000000000009999123100000010000000000000BRS1YFBDR002103
012020092596CGAS5F      020COMGAS      PNA          R$  000000001793500000000179350000000017300000000001760100000000178000000000017550000000001795000063000000000000000355000000000006248384000000000000009999123100000010000000000000BRCGASACNPA3148
012020092596CGRA3F      020GRAZZIOTIN  ON           R$  000000000278700000000027920000000002650000000000274000000000027600000000002700000000000279400025000000000000000371000000000001016705000000000000009999123100000010000000000000BRCGRAACNOR2071
012020092596CGRA4F      020GRAZZIOTIN  PN           R$  000000000267300000000026840000000002599000000000265000000000026500000000002630000000000265000116000000000000001324000000000003508988000000000000009999123100000010000000000000BRCGRAACNPR9071
012020092596CHVX34F     020CHEVRON     DRN          R$  000000001986000000000198600000000019860000000001986000000000198600000000019600000000000000000001000000000000000005000000000000099300000000000000009999123100000010000000000000BRCHVXBDR008138
012020092596CIEL3F      020CIELO       ON      NM   R$  000000000041600000000004240000000000412000000000041600000000004150000000000415000000000041602351000000000000041711000000000017380849000000000000009999123100000010000000000000BRCIELACNOR3142
