00COTAHIST.2020BOVESPA 20200910                                                                                                                                                                                                                      
012020091002A1BM34      010ABIOMED INC DRN          R$  000000003699600000000369960000000036996000000003699600000000369960000000000000000000000000000001000000000000000020000000000000739920000000000000009999123100000010000000000000BRA1BMBDR006100
012020091002A1DI34      010ANALOG DEVICDRN          R$  000000003061100000000306110000000030611000000003061100000000306110000000000000000000000000000001000000000000001000000000000030611000000000000000009999123100000010000000000000BRA1DIBDR000103
012020091002A1MD34      010ADVANCED MICDRN          R$  000000004370000000000437000000000043290000000004339100000000432900000000000000000000005250000004000000000000003030000000000131474900000000000000009999123100000010000000000000BRA1MDBDR002100
012020091002A1MT34      010APPLIED MATEDRN          R$  000000002919000000000291900000000029190000000002919000000000291900000000000000000000000000000001000000000000001000000000000029190000000000000000009999123100000010000000000000BRA1MTBDR008103
012020091002A1PA34      010APACHE CORP DRN          R$  000000000679100000000067910000000006750000000000678900000000067500000000000000000000000000000002000000000000002070000000000014054500000000000000009999123100000010000000000000BRA1PABDR001103
012020091002AALL34      010AMERICAN AIRDRN          R$  000000000697000000000070000000000006970000000000699800000000070000000000006800000000000840000003000000000000003140000000000021976800000000000000009999123100000010000000000000BRAALLBDR003115
012020091002AALR3       010ALLIAR      ON      NM   R$  000000000120000000000012180000000001164000000000119100000000011750000000001175000000000117602485000000000000639200000000000761788600000000000000009999123100000010000000000000BRAALRACNOR6102
012020091002AAPL34      010APPLE       DRN EB       R$  000000000630000000000063970000000005984000000000621300000000060440000000006035000000000604400646000000000000496350000000003084128260000000000000009999123100000010000000000000BRAAPLBDR004135
012020091002ABBV34      010ABBVIE      DRN          R$  000000004776200000000477620000000047762000000004776200000000477620000000000000000000000000000001000000000000002000000000000095524000000000000000009999123100000010000000000000BRABBVBDR001118
012020091002ABCB4       010ABC BRASIL  PN      N2   R$  000000000135300000000013630000000001318000000000133700000000013220000000001322000000000132303017000000000000571100000000000763657800000000000000009999123100000010000000000000BRABCBACNPR4134
012020091002ABEV3       010AMBEV S/A   ON           R$  000000000123200000000012620000000001225000000000124500000000012310000000001231000000000123237062000000000030209800000000037612596100000000000000009999123100000010000000000000BRABEVACNOR1122
012020091002ABTT34      010ABBOTT      DRN          R$  000000001383200000000138320000000013832000000001383200000000138320000000000000000000001799500001000000000000010000000000000138320000000000000000009999123100000010000000000000BRABTTBDR007135
012020091002ABUD34      010AB INBEV    DRN          R$  000000003045000000000304500000000030450000000003045000000000304500000000000000000000000000000002000000000000003010000000000091654500000000000000009999123100000010000000000000BRABUDBDR009102
012020091002ACNB34      010ACCENTURE   DRN          R$  000000012589500000001269960000000125895000000012599500000001269960000000000000000000000000000002000000000000001100000000000138594600000000000000009999123100000010000000000000BRACNBBDR006112
012020091002ADBE34      010ADOBE INC   DRN          R$  000000005192300000000519230000000051736000000005191700000000517360000000000000000000000000000002000000000000004130000000000214417680000000000000009999123100000010000000000000BRADBEBDR003100
012020091002ADHM3       010ADVANCED-DH ON           R$  000000000021000000000002270000000000210000000000021800000000002170000000000213000000000022300030000000000000017500000000000003830400000000000000009999123100000010000000000000BRADHMACNOR9102
012020091002ADPR34      010AUTOMATIC DTDRN ED       R$  000000003549700000000354970000000035497000000003549700000000354970000000030825000000000000000001000000000000001000000000000035497000000000000000009999123100000010000000000000BRADPRBDR005105
012020091002AFLT3       010AFLUENTE T  ON           R$  000000000102000000000010600000000001000000000000101700000000010000000000001000000000000105300008000000000000001000000000000001017000000000000000009999123100000010000000000000BRAFLTACNOR1115
012020091002AGRO3       010BRASILAGRO  ON      NM   R$  000000000211700000000021630000000002111000000000213900000000021260000000002122000000000212900772000000000000193900000000000414825600000000000000009999123100000010000000000000BRAGROACNOR7109
012020091002AHEB3       010SPTURIS     ON           R$  000000000268900000000027000000000002450000000000258900000000025000000000002500000000000259800052000000000000007900000000000020459400000000000000009999123100000010000000000000BRAHEBACNOR0106
012020091002ALPA3       010ALPARGATAS  ON      N1   R$  000000000334200000000033420000000003290000000000331600000000033000000000003293000000000334000009000000000000001100000000000003647900000000000000009999123100000010000000000000BRALPAACNOR0229
012020091002ALPA4       010ALPARGATAS  PN      N1   R$  000000000373100000000038380000000003662000000000372400000000036890000000003680000000000368905386000000000001019900000000003798156500000000000000009999123100000010000000000000BRALPAACNPR7229
012020091002ALPK3       010ESTAPAR     ON      NM   R$  000000000096300000000009630000000000944000000000094900000000009480000000000945000000000094800019000000000000002600000000000002468700000000000000009999123100000010000000000000BRALPKACNOR9100
012020091002ALSO3       010ALIANSCSONAEON      NM   R$  000000000278400000000028050000000002702000000000274600000000027170000000002716000000000271804166000000000000954000000000002619922600000000000000009999123100000010000000000000BRALSOACNOR5100
012020091002ALUP3       010ALUPAR      ON      N2   R$  000000000097000000000009720000000000955000000000096200000000009550000000000955000000000096000045000000000000005300000000000005102200000000000000009999123100000010000000000000BRALUPACNOR8111
012020091002ALUP4       010ALUPAR      PN      N2   R$  000000000072400000000007250000000000711000000000071800000000007110000000000707000000000071400082000000000000011900000000000008555100000000000000009999123100000010000000000000BRALUPACNPR5111
012020091002ALUP11      010ALUPAR      UNT     N2   R$  000000000242800000000024280000000002375000000000239400000000023770000000002377000000000237802083000000000000469400000000001123890600000000000000009999123100000010000000000000BRALUPCDAM15111
012020091002AMAR3       010LOJAS MARISAON      NM   R$  000000000081700000000008270000000000802000000000081200000000008050000000000805000000000080607767000000000002789900000000002267199000000000000000009999123100000010000000000000BRAMARACNOR4112
012020091002AMBP3       010AMBIPAR     ON      NM   R$  000000000314700000000031760000000003043000000000312300000000030580000000003054000000000305800651000000000000196200000000000612751400000000000000009999123100000010000000000000BRAMBPACNOR6100
012020091002AMGN34      010AMGEN       DRN          R$  000000012840000000001284000000000127599000000012824600000001275990000000000000000000000000000005000000000000001300000000000166719900000000000000009999123100000010000000000000BRAMGNBDR004135
012020091002AMZO34      010AMAZON      DRN          R$  000000088100000000008835400000000845313000000087905600000008496310000000720000000000087970000018000000000000002560000000002250385510000000000000009999123100000010000000000000BRAMZOBDR002101
012020091002ANIM3       010ANIMA       ON      NM   R$  000000000315900000000031600000000002997000000000305800000000030430000000003007000000000304302625000000000000514100000000001572367200000000000000009999123100000010000000000000BRANIMACNOR6106
012020091002APER3       010ALPER S.A.  ON      NM   R$  000000000308600000000030860000000002947000000000301000000000030270000000002951000000000302700121000000000000025300000000000076169900000000000000009999123100000010000000000000BRAPERACNOR9102
012020091002ARZZ3       010AREZZO CO   ON      NM   R$  000000000602100000000060560000000005696000000000584600000000056960000000005696000000000570004616000000000000731200000000004275202700000000000000009999123100000010000000000000BRARZZACNOR3137
012020091002ASML34      010ASML HOLD   DRN          R$  000000019141500000001914150000000191415000000019141500000001914150000000000000000000000000000001000000000000000650000000000124419750000000000000009999123100000010000000000000BRASMLBDR003102
012020091002ATOM3       010ATOMPAR     ON           R$  000000000030700000000003070000000000280000000000029700000000002920000000000292000000000029300197000000000000110700000000000032917200000000000000009999123100000010000000000000BRATOMACNOR1103
012020091002ATTB34      010ATT INC     DRN          R$  000000001550000000000155000000000015412000000001546900000000154120000000015381000000001541200004000000000000016260000000000251529660000000000000009999123100000010000000000000BRATTBBDR007132
012020091002ATVI34      010ACTIVISION  DRN          R$  000000004242000000000424200000000042420000000004242000000000424200000000040000000000000000000001000000000000001000000000000042420000000000000000009999123100000010000000000000BRATVIBDR008101
012020091002AURA32      010AURA 360    DR2          R$  000000000646100000000064610000000006320000000000640600000000063880000000006388000000000644700138000000000000042900000000000274824700000000000000009999123100000010000000000000BRAURABDR001102
012020091002AVGO34      010BROADCOM INCDRN          R$  000000003843600000000384360000000038436000000003843600000000384360000000000000000000000000000001000000000000006000000000000230616000000000000000009999123100000010000000000000BRAVGOBDR003105
012020091002AXPB34      010AMERICAN EXPDRN          R$  000000005502400000000550240000000054923000000005502000000000549230000000047700000000000000000002000000000000003110000000000171113530000000000000009999123100000010000000000000BRAXPBBDR007133
012020091002AZEV3       010AZEVEDO     ON           R$  000000000114000000000011410000000001052000000000109200000000010700000000001052000000000106800016000000000000006300000000000006885700000000000000009999123100000010000000000000BRAZEVACNOR0117
012020091002AZEV4       010AZEVEDO     PN           R$  000000000037500000000003750000000000360000000000036700000000003750000000000376000000000038300010000000000000003900000000000001432300000000000000009999123100000010000000000000BRAZEVACNPR7117
012020091002AZUL4       010AZUL        PN      N2   R$  000000000263000000000027450000000002610000000000267100000000026100000000002610000000000261142632000000000017115900000000045720695900000000000000009999123100000010000000000000BRAZULACNPR4100
012020091002B1DX34      010BECTON DICKIDRN ED       R$  000000002475000000000247500000000024750000000002475000000000247500000000000000000000000000000001000000000000000010000000000000247500000000000000009999123100000010000000000000BRB1DXBDR008103
012020091002B1SX34      010BOSTON SCIENDRN          R$  000000002188800000000218880000000021888000000002188800000000218880000000000000000000000000000001000000000000004000000000000087552000000000000000009999123100000010000000000000BRB1SXBDR006100
012020091002B3SA3       010B3          ON      NM   R$  000000000583000000000058300000000005585000000000567800000000056000000000005599000000000560035998000000000011145300000000063289014500000000000000009999123100000010000000000000BRB3SAACNOR6111
012020091002BABA34      010ALIBABAGR   DRN          R$  000000014599900000001466000000000142700000000014602600000001427000000000140000000000015380000035000000000000005820000000000849874060000000000000009999123100000010000000000000BRBABABDR005100
012020091002BAHI3       010BAHEMA      ON      MA   R$  000000001180000000000120000000000011800000000001190300000000120000000000011750000000001235800016000000000000002300000000000027378600000000000000009999123100000010000000000000BRBAHIACNOR1071
012020091002BALM3       010BAUMER      ON           R$  000000000160000000000016000000000001550000000000155600000000015500000000001530000000000155000010000000000000003500000000000005446700000000000000009999123100000010000000000000BRBALMACNOR5050
012020091002BALM4       010BAUMER      PN           R$  000000000122900000000012500000000001205000000000122600000000012390000000001140000000000123900012000000000000003200000000000003924400000000000000009999123100000010000000000000BRBALMACNPR2051
012020091002BAUH4       010EXCELSIOR   PN           R$  000000000900000000000090000000000008990000000000899000000000089900000000008600000000000900000022000000000000002400000000000021578000000000000000009999123100000010000000000000BRBAUHACNPR3115
012020091002BAZA3       010AMAZONIA    ON           R$  000000000404900000000040490000000003975000000000399800000000039750000000004000000000000403400013000000000000001700000000000006797200000000000000009999123100000010000000000000BRBAZAACNOR0174
012020091002BBAS3       010BRASIL      ON      NM   R$  000000000331400000000033490000000003244000000000328200000000032530000000003251000000000325332836000000000013387400000000043948324900000000000000009999123100000010000000000000BRBBASACNOR3292
012020091002BBDC3       010BRADESCO    ON  EJ  N1   R$  000000000199500000000020050000000001925000000000193900000000019310000000001930000000000193115159000000000021322100000000041352660000000000000000009999123100000010000000000000BRBBDCACNOR1715
012020091002BBDC4       010BRADESCO    PN  EJ  N1   R$  000000000215200000000021660000000002081000000000211700000000020850000000002084000000000208659148000000000046551900000000098563399900000000000000009999123100000010000000000000BRBBDCACNPR8715
012020091002BBRK3       010BR BROKERS  ON      NM   R$  000000000017000000000001710000000000160000000000016400000000001600000000000160000000000016300897000000000000773800000000000127516200000000000000009999123100000010000000000000BRBBRKACNOR4113
012020091002BBSE3       010BBSEGURIDADEON      NM   R$  000000000266000000000026700000000002613000000000263500000000026280000000002627000000000262814344000000000002749100000000007246494500000000000000009999123100000010000000000000BRBBSEACNOR5117
012020091002BCSA34      010SANTANDER   DRN          R$  000000000115700000000011780000000001137000000000115800000000011410000000001141000000000116500039000000000000096210000000000111488200000000000000009999123100000010000000000000BRBCSABDR005101
012020091002BEEF3       010MINERVA     ON      NM   R$  000000000126700000000013210000000001256000000000129900000000012930000000001293000000000129418301000000000008949900000000011631938700000000000000009999123100000010000000000000BRBEEFACNOR6108
012020091002BEES3       010BANESTES    ON  EJ       R$  000000000053900000000005410000000000535000000000053700000000005350000000000535000000000053700071000000000000012800000000000006883200000000000000009999123100000010000000000000BRBEESACNOR9339
012020091002BEES4       010BANESTES    PN  EJ       R$  000000000057400000000005740000000000550000000000056300000000005620000000000562000000000057100020000000000000003700000000000002084400000000000000009999123100000010000000000000BRBEESACNPR6264
012020091002BERK34      010BERKSHIRE   DRN          R$  000000011610000000001164260000000115540000000011611800000001159710000000115000000000011597100028000000000000003140000000000364611120000000000000009999123100000010000000000000BRBERKBDR002100
012020091002BGIP3       010BANESE      ON           R$  000000000447500000000047990000000004400000000000456100000000044830000000002701000000000479800018000000000000001800000000000008210600000000000000009999123100000010000000000000BRBGIPACNOR1199
012020091002BGIP4       010BANESE      PN           R$  000000000262600000000026260000000002625000000000262500000000026250000000002612000000000262500004000000000000002000000000000005250100000000000000009999123100000010000000000000BRBGIPACNPR8199
012020091002BHPG34      010BHP GROUP   DRN ED       R$  000000002827100000000282710000000028271000000002827100000000282710000000000000000000000000000001000000000000004000000000000113084000000000000000009999123100000010000000000000BRBHPGBDR007102
012020091002BIDI3       010BANCO INTER ON      N2   R$  000000000176700000000017830000000001696000000000173200000000017360000000001736000000000174302621000000000000492700000000000853580600000000000000009999123100000010000000000000BRBIDIACNOR3107
012020091002BIDI4       010BANCO INTER PN      N2   R$  000000000199400000000020290000000001947000000000198300000000019850000000001985000000000198607685000000000002312300000000004586326800000000000000009999123100000010000000000000BRBIDIACNPR0111
012020091002BIDI11      010BANCO INTER UNT     N2   R$  000000000572000000000058500000000005576000000000567600000000056880000000005687000000000568808136000000000001299300000000007375604000000000000000009999123100000010000000000000BRBIDICDAXX3106
012020091002BIDU34      010BAIDU INC   DRN          R$  000000006309000000000630900000000063090000000006309000000000630900000000000000000000000000000003000000000000000300000000000018927000000000000000009999123100000010000000000000BRBIDUBDR002100
012020091002BIIB34      010BIOGEN      DRN          R$  000000002392800000000239280000000023928000000002392800000000239280000000000000000000000000000001000000000000004000000000000095712000000000000000009999123100000010000000000000BRBIIBBDR001101
012020091002BIOM3       010BIOMM       ON      MA   R$  000000000160600000000016300000000001585000000000161700000000016150000000001605000000000161500065000000000000014500000000000023458700000000000000009999123100000010000000000000BRBIOMACNOR2107
012020091002BKBR3       010BK BRASIL   ON      NM   R$  000000000112600000000011470000000001081000000000110700000000010860000000001086000000000109104364000000000001048000000000001160593100000000000000009999123100000010000000000000BRBKBRACNOR4103
012020091002BKNG34      010BOOKING     DRN          R$  000000004002000000000400200000000038602000000003956000000000386020000000038602000000004050000012000000000000003460000000000136878980000000000000009999123100000010000000000000BRBKNGBDR006100
012020091002BLAK34      010BLACKROCK   DRN ED       R$  000000004884000000000488400000000048358000000004883800000000483580000000045000000000000000000002000000000000003010000000000147003580000000000000009999123100000010000000000000BRBLAKBDR003118
012020091002BMEB3       010MERC BRASIL ON           R$  000000000164000000000016500000000001562000000000160400000000015620000000001560000000000160000018000000000000003800000000000006097000000000000000009999123100000010000000000000BRBMEBACNOR8196
012020091002BMEB4       010MERC BRASIL PN           R$  000000000155000000000016000000000001530000000000158500000000015980000000001551000000000159800039000000000000020200000000000032025000000000000000009999123100000010000000000000BRBMEBACNPR5201
012020091002BMGB4       010BANCO BMG   PN      N1   R$  000000000052900000000005350000000000519000000000052400000000005230000000000521000000000052302931000000000001689800000000000886794700000000000000009999123100000010000000000000BRBMGBACNPR0101
012020091002BMIN3       010MERC INVEST ON           R$  000000000213000000000021300000000001950000000000203700000000020220000000002021000000000211800013000000000000001300000000000002648300000000000000009999123100000010000000000000BRBMINACNOR4168
012020091002BMIN4       010MERC INVEST PN           R$  000000000209500000000020950000000001952000000000200800000000019520000000001950000000000210000019000000000000001900000000000003816700000000000000009999123100000010000000000000BRBMINACNPR1171
012020091002BMKS3       010BIC MONARK  ON           R$  000000002200100000000230000000000022000000000002204400000000230000000000021630000000002300000006000000000000000023000000000000507016000000000000009999123100000010000000000000BRBMKSACNOR9162
012020091002BMYB34      010BRISTOLMYERSDRN          R$  000000003113500000000312290000000031100000000003113500000000311000000000028400000000000000000004000000000000007070000000000220128540000000000000009999123100000010000000000000BRBMYBBDR000127
012020091002BNBR3       010NORD BRASIL ON           R$  000000000829900000000082990000000007961000000000809600000000079610000000007750000000000823500005000000000000000500000000000004048400000000000000009999123100000010000000000000BRBNBRACNOR8200
012020091002BOAC34      010BANK AMERICADRN ED       R$  000000001362000000000136200000000013399000000001359100000000134240000000012100000000001342400007000000000000018910000000000257009460000000000000009999123100000010000000000000BRBOACBDR004140
012020091002BOBR4       010BOMBRIL     PN           R$  000000000019600000000002010000000000196000000000019800000000001980000000000198000000000020000079000000000000038000000000000007537200000000000000009999123100000010000000000000BRBOBRACNPR3128
012020091002BOEI34      010BOEING      DRN          R$  000000008582700000000858270000000085827000000008582700000000858270000000000000000000010850000001000000000000002000000000000171654000000000000000009999123100000010000000000000BRBOEIBDR003132
012020091002BOXP34      010BOSTON PROP DRN          R$  000000000450000000000045000000000004500000000000450000000000045000000000000000000000000592000001000000000000000010000000000000045000000000000000009999123100000010000000000000BRBOXPBDR008120
012020091002BPAC3       010BTGP BANCO  ON      N2   R$  000000000460100000000046480000000004521000000000459400000000045270000000004527000000000464700014000000000000001700000000000007810200000000000000009999123100000010000000000000BRBPACACNOR7122
012020091002BPAC5       010BTGP BANCO  PNA     N2   R$  000000000175800000000017580000000001701000000000173000000000017020000000001701000000000172300011000000000000001300000000000002249000000000000000009999123100000010000000000000BRBPACACNPA0122
012020091002BPAC11      010BTGP BANCO  UNT     N2   R$  000000000812100000000081700000000007895000000000799400000000079130000000007913000000000791509295000000000002325100000000018588577500000000000000009999123100000010000000000000BRBPACUNT006107
012020091002BPAN4       010BANCO PAN   PN      N1   R$  000000000091400000000009200000000000879000000000089400000000008840000000000884000000000088608041000000000003629600000000003245563700000000000000009999123100000010000000000000BRBPANACNPR1109
012020091002BRAP3       010BRADESPAR   ON      N1   R$  000000000385200000000038520000000003767000000000381300000000037670000000003739000000000379000055000000000000009600000000000036612800000000000000009999123100000010000000000000BRBRAPACNOR5136
012020091002BRAP4       010BRADESPAR   PN      N1   R$  000000000437300000000044100000000004286000000000435200000000043030000000004303000000000430710993000000000002502500000000010892441700000000000000009999123100000010000000000000BRBRAPACNPR2136
012020091002BRDT3       010PETROBRAS BRON      NM   R$  000000000229900000000023230000000002235000000000227900000000022490000000002248000000000224920126000000000006576600000000014991982300000000000000009999123100000010000000000000BRBRDTACNOR1120
012020091002BRFS3       010BRF SA      ON      NM   R$  000000000199900000000021060000000001983000000000206300000000020620000000002060000000000206239179000000000019347500000000039916974400000000000000009999123100000010000000000000BRBRFSACNOR8119
012020091002BRGE3       010ALFA CONSORCON           R$  000000000099200000000009920000000000845000000000096000000000009300000000000858000000000093000034000000000000012600000000000012106000000000000000009999123100000010000000000000BRBRGEACNOR6202
012020091002BRGE8       010ALFA CONSORCPND          R$  000000000080000000000008000000000000800000000000080000000000008000000000000700000000000080000001000000000000000100000000000000080000000000000000009999123100000010000000000000BRBRGEACNPD3214
012020091002BRIV3       010ALFA INVEST ON           R$  000000000080000000000008000000000000800000000000080000000000008000000000000761000000000080000001000000000000000100000000000000080000000000000000009999123100000010000000000000BRBRIVACNOR6205
012020091002BRKM3       010BRASKEM     ON      N1   R$  000000000222800000000022590000000002207000000000224500000000022110000000002211000000000221800039000000000000031300000000000070290100000000000000009999123100000010000000000000BRBRKMACNOR1117
012020091002BRKM5       010BRASKEM     PNA     N1   R$  000000000221000000000022620000000002164000000000220100000000021860000000002180000000000218608537000000000002042900000000004496458500000000000000009999123100000010000000000000BRBRKMACNPA4117
012020091002BRML3       010BR MALLS PARON      NM   R$  000000000096600000000009740000000000940000000000095600000000009470000000000945000000000094732624000000000012670200000000012112925200000000000000009999123100000010000000000000BRBRMLACNOR9115
012020091002BRPR3       010BR PROPERT  ON      NM   R$  000000000095800000000009600000000000928000000000094500000000009330000000000933000000000093404352000000000001275100000000001205668300000000000000009999123100000010000000000000BRBRPRACNOR9119
012020091002BRSR3       010BANRISUL    ON      N1   R$  000000000150000000000015010000000001480000000000149300000000014800000000001471000000000148000029000000000000005000000000000007469400000000000000009999123100000010000000000000BRBRSRACNOR3168
012020091002BRSR6       010BANRISUL    PNB     N1   R$  000000000135300000000013770000000001320000000000134900000000013200000000001320000000000132505539000000000001280700000000001727934700000000000000009999123100000010000000000000BRBRSRACNPB4171
012020091002BSEV3       010BIOSEV      ON      NM   R$  000000000055300000000006020000000000537000000000056400000000005540000000000549000000000055404027000000000002313400000000001305566600000000000000009999123100000010000000000000BRBSEVACNOR3102
012020091002BTOW3       010B2W DIGITAL ON      NM   R$  000000001027600000000103000000000009972000000001015600000000100180000000010018000000001001911925000000000002620800000000026617301900000000000000009999123100000010000000000000BRBTOWACNOR8111
012020091002BTTL3       010BATTISTELLA ON           R$  000000000125000000000012500000000001050000000000112600000000011200000000001102000000000115000098000000000000029600000000000033338900000000000000009999123100000010000000000000BRBTTLACNOR0108
012020091002C1CL34      010CARNIVAL CORDRN          R$  000000000976900000000097690000000009608000000000962100000000097000000000000000000000001300000003000000000000004400000000000042332700000000000000009999123100000010000000000000BRC1CLBDR004101
012020091002CAMB3       010CAMBUCI     ON           R$  000000000041600000000004300000000000416000000000042200000000004190000000000416000000000042000083000000000000021600000000000009116800000000000000009999123100000010000000000000BRCAMBACNOR4119
012020091002CAML3       010CAMIL       ON  EJ  NM   R$  000000000132400000000013370000000001308000000000132000000000013230000000001319000000000132306568000000000001304600000000001723107800000000000000009999123100000010000000000000BRCAMLACNOR3111
012020091002CAPH34      010CAPRI HOLDI DRN          R$  000000001084300000000108430000000010627000000001079300000000106270000000000000000000000000000002000000000000000390000000000004209330000000000000009999123100000010000000000000BRCAPHBDR008100
012020091002CARD3       010CSU CARDSYSTON      NM   R$  000000000152500000000015520000000001480000000000151400000000015020000000001500000000000150201028000000000000265800000000000402552100000000000000009999123100000010000000000000BRCARDACNOR9118
012020091002CASN3       010CASAN       ON           R$  000000000152000000000015200000000001520000000000152000000000015200000000001520000000000500000001000000000000000100000000000000152000000000000000009999123100000010000000000000BRCASNACNOR6116
012020091002CATP34      010CATERPILLAR DRN          R$  000000008004300000000800430000000080043000000008004300000000800430000000000000000000000000000001000000000000002000000000000160086000000000000000009999123100000010000000000000BRCATPBDR003136
012020091002CBEE3       010AMPLA ENERG ON           R$  000000000170000000000017850000000001700000000000177400000000017840000000001690000000000178400007000000000000000800000000000001419300000000000000009999123100000010000000000000BRCBEEACNOR3155
012020091002CCPR3       010CYRE COM-CCPON      NM   R$  000000000147500000000014850000000001424000000000145700000000014400000000001440000000000144401231000000000000201800000000000294096900000000000000009999123100000010000000000000BRCCPRACNOR9114
012020091002CCRO3       010CCR SA      ON      NM   R$  000000000147100000000014970000000001421000000000146100000000014350000000001433000000000143527542000000000014810300000000021644339300000000000000009999123100000010000000000000BRCCROACNOR2137
012020091002CEAB3       010CEA MODAS   ON      NM   R$  000000000129000000000013320000000001220000000000128900000000012360000000001236000000000123814449000000000004396700000000005667711900000000000000009999123100000010000000000000BRCEABACNOR1101
012020091002CEBR3       010CEB         ON           R$  000000000657500000000067500000000006208000000000647300000000062510000000006250000000000665000050000000000000005000000000000032368200000000000000009999123100000010000000000000BRCEBRACNOR5118
012020091002CEDO3       010CEDRO       ON      N1   R$  000000000100500000000010990000000001005000000000104600000000010990000000001005000000000109900012000000000000001600000000000001674100000000000000009999123100000010000000000000BRCEDOACNOR8096
012020091002CEDO4       010CEDRO       PN      N1   R$  000000000056800000000005950000000000535000000000055000000000005950000000000546000000000059800017000000000000003600000000000001980200000000000000009999123100000010000000000000BRCEDOACNPR5128
012020091002CEEB3       010COELBA      ON           R$  000000000400100000000040900000000003921000000000398900000000040000000000003800000000000416000007000000000000000700000000000002792500000000000000009999123100000010000000000000BRCEEBACNOR3179
012020091002CEED3       010CEEE-D      ON      N1   R$  000000000615000000000062400000000005970000000000609000000000060200000000005960000000000626000034000000000000004200000000000025581500000000000000009999123100000010000000000000BRCEEDACNOR9102
012020091002CESP3       010CESP        ON      N1   R$  000000000328000000000033550000000003280000000000331200000000032870000000003285000000000333300014000000000000002700000000000008944400000000000000009999123100000010000000000000BRCESPACNOR3169
012020091002CESP6       010CESP        PNB     N1   R$  000000000300000000000030210000000002901000000000293900000000029120000000002910000000000291305117000000000001053900000000003097605800000000000000009999123100000010000000000000BRCESPACNPB4128
012020091002CGAS5       010COMGAS      PNA          R$  000000001911700000000191170000000018829000000001903400000000188290000000018676000000001883000010000000000000001200000000000022841800000000000000009999123100000010000000000000BRCGASACNPA3148
012020091002CGRA3       010GRAZZIOTIN  ON           R$  000000000264000000000026410000000002616000000000262800000000026390000000002631000000000264000006000000000000000700000000000001839600000000000000009999123100000010000000000000BRCGRAACNOR2071
012020091002CGRA4       010GRAZZIOTIN  PN           R$  000000000260000000000026630000000002600000000000264300000000026490000000002630000000000265000037000000000000005400000000000014276400000000000000009999123100000010000000000000BRCGRAACNPR9071
012020091002CHCM34      010CHARTER COMMDRN          R$  000000006457100000000645710000000064571000000006457100000000645710000000000000000000000000000001000000000000003000000000000193713000000000000000009999123100000010000000000000BRCHCMBDR001100
012020091002CHME34      010CME GROUP   DRN ED       R$  000000002199000000000219900000000021990000000002199000000000219900000000000000000000000000000001000000000000004000000000000087960000000000000000009999123100000010000000000000BRCHMEBDR007106
012020091002CHVX34      010CHEVRON     DRN          R$  000000002118700000000212500000000020834000000002118200000000208340000000000000000000002083400005000000000000011230000000000237878660000000000000009999123100000010000000000000BRCHVXBDR008138
012020091002CIEL3       010CIELO       ON      NM   R$  000000000046800000000004810000000000463000000000047200000000004640000000000463000000000046415711000000000030933200000000014604068700000000000000009999123100000010000000000000BRCIELACNOR3142
012020091002CLSC3       010CELESC      ON      N2   R$  000000000608000000000060800000000005750000000000589800000000058200000000005500000000000595000025000000000000002500000000000014745400000000000000009999123100000010000000000000BRCLSCACNOR6136
012020091002CLSC4       010CELESC      PN      N2   R$  000000000567000000000056700000000005432000000000550000000000054580000000005400000000000545800064000000000000442700000000002434919300000000000000009999123100000010000000000000BRCLSCACNPR3115
012020091002CLXC34      010CLOROX CO   DRN          R$  000000002926100000000292610000000029261000000002926100000000292610000000000000000000000000000001000000000000000100000000000002926100000000000000009999123100000010000000000000BRCLXCBDR000104
012020091002CMCS34      010COMCAST     DRN          R$  000000002371500000000237150000000023360000000002365200000000234730000000022000000000002347300008000000000000013600000000000321675820000000000000009999123100000010000000000000BRCMCSBDR008135
012020091002CMIG3       010CEMIG       ON      N1   R$  000000000114900000000011810000000001133000000000114900000000011400000000001140000000000114207113000000000004659900000000005355677200000000000000009999123100000010000000000000BRCMIGACNOR6224
012020091002CMIG4       010CEMIG       PN      N1   R$  000000000112000000000011510000000001094000000000112100000000011030000000001102000000000110330556000000000015379400000000017244471000000000000000009999123100000010000000000000BRCMIGACNPR3225
012020091002CNIC34      010CANAD NATIONDRN ED       R$  000000002760000000000276000000000027600000000002760000000000276000000000000000000000000000000001000000000000004000000000000110400000000000000000009999123100000010000000000000BRCNICBDR007105
012020091002CNTO3       010CENTAURO    ON      NM   R$  000000000306700000000031100000000002921000000000300600000000029560000000002947000000000295603676000000000000889000000000002672524700000000000000009999123100000010000000000000BRCNTOACNOR5100
012020091002COCA34      010COCA COLA   DRN          R$  000000002662900000000266290000000026629000000002662900000000266290000000026500000000002700000001000000000000012000000000000319548000000000000000009999123100000010000000000000BRCOCABDR002135
012020091002COCE3       010COELCE      ON           R$  000000000705800000000074940000000006511000000000688900000000073950000000006546000000000731600053000000000000005300000000000036514700000000000000009999123100000010000000000000BRCOCEACNOR0139
012020091002COCE5       010COELCE      PNA          R$  000000000597000000000060300000000005942000000000596900000000059500000000005950000000000600000133000000000000017000000000000101477700000000000000009999123100000010000000000000BRCOCEACNPA3140
012020091002COGN3       010COGNA ON    ON      NM   R$  000000000059000000000006040000000000586000000000059200000000005880000000000588000000000058928968000000000050769700000000030078512800000000000000009999123100000010000000000000BRCOGNACNOR2101
012020091002COLG34      010COLGATE     DRN          R$  000000004073700000000407370000000040737000000004073700000000407370000000000000000000000000000001000000000000002000000000000081474000000000000000009999123100000010000000000000BRCOLGBDR000137
012020091002COPH34      010COPHILLIPS  DRN          R$  000000000450000000000045000000000004400000000000449000000000044000000000000000000000000000000004000000000000015560000000000069874780000000000000009999123100000010000000000000BRCOPHBDR009135
012020091002COTY34      010COTY INC    DRN          R$  000000000099500000000009950000000000991000000000099300000000009910000000000900000000000105000003000000000000008600000000000008539800000000000000009999123100000010000000000000BRCOTYBDR006116
012020091002COWC34      010COSTCO      DRN          R$  000000004590200000000459020000000045100000000004575400000000451000000000000000000000004525000005000000000000006390000000000292371400000000000000009999123100000010000000000000BRCOWCBDR006119
012020091002CPFE3       010CPFL ENERGIAON      NM   R$  000000000303700000000030670000000002960000000000301500000000029780000000002977000000000297806784000000000001683600000000005076479800000000000000009999123100000010000000000000BRCPFEACNOR0130
012020091002CPLE3       010COPEL       ON      N1   R$  000000000642400000000065100000000006251000000000633500000000062980000000006280000000000629802202000000000000419400000000002657034200000000000000009999123100000010000000000000BRCPLEACNOR8139
012020091002CPLE6       010COPEL       PNB     N1   R$  000000000665900000000067260000000006424000000000652800000000064620000000006459000000000646305044000000000001159600000000007570855800000000000000009999123100000010000000000000BRCPLEACNPB9136
012020091002CRDE3       010CR2         ON           R$  000000000220000000000022990000000002200000000000220700000000022500000000002200000000000225000006000000000000002100000000000004634900000000000000009999123100000010000000000000BRCRDEACNOR1112
012020091002CRFB3       010CARREFOUR BRON      NM   R$  000000000214200000000021900000000002030000000000210700000000020550000000002044000000000205523760000000000009675600000000020393822200000000000000009999123100000010000000000000BRCRFBACNOR2107
012020091002CRIV3       010ALFA FINANC ON           R$  000000000054100000000005610000000000541000000000055300000000005610000000000548000000000056100013000000000000001800000000000000996500000000000000009999123100000010000000000000BRCRIVACNOR4194
012020091002CRIV4       010ALFA FINANC PN           R$  000000000061100000000006180000000000611000000000061400000000006170000000000611000000000061700006000000000000004200000000000002581000000000000000009999123100000010000000000000BRCRIVACNPR1204
012020091002CRPG5       010CRISTAL     PNA          R$  000000000206000000000020900000000002025000000000204700000000020250000000002025000000000204000044000000000000015600000000000031936100000000000000009999123100000010000000000000BRCRPGACNPA3108
012020091002CRPG6       010CRISTAL     PNB          R$  000000000207000000000020800000000001960000000000201000000000019600000000001960000000000201000062000000000000016800000000000033768000000000000000009999123100000010000000000000BRCRPGACNPB1108
012020091002CSAB3       010SEG AL BAHIAON           R$  000000000530000000000053000000000004897000000000501600000000048970000000004722000000000500000023000000000000002300000000000011537000000000000000009999123100000010000000000000BRCSABACNOR1058
012020091002CSAN3       010COSAN       ON      NM   R$  000000000783100000000078700000000007516000000000766000000000075560000000007554000000000755607944000000000001410500000000010805274100000000000000009999123100000010000000000000BRCSANACNOR6120
012020091002CSCO34      010CISCO       DRN          R$  000000002136800000000213680000000021000000000002132000000000210000000000000000000000000000000013000000000000008070000000000172054330000000000000009999123100000010000000000000BRCSCOBDR004138
012020091002CSMG3       010COPASA      ON      NM   R$  000000000520000000000052060000000004835000000000500900000000048710000000004870000000000487106618000000000001826800000000009150868000000000000000009999123100000010000000000000BRCSMGACNOR5156
012020091002CSNA3       010SID NACIONALON           R$  000000000157400000000016060000000001532000000000157000000000015380000000001537000000000153819989000000000010967200000000017224529300000000000000009999123100000010000000000000BRCSNAACNOR6252
012020091002CSXC34      010CSX CORP    DRN          R$  000000002016000000000201600000000020160000000002016000000000201600000000000000000000000000000001000000000000005000000000000100800000000000000000009999123100000010000000000000BRCSXCBDR005105
012020091002CTGP34      010CITIGROUP   DRN          R$  000000002743500000000274350000000027108000000002740100000000271300000000026500000000002713000005000000000000008930000000000244697700000000000000009999123100000010000000000000BRCTGPBDR000139
012020091002CTKA4       010KARSTEN     PN           R$  000000000116100000000012000000000001161000000000119300000000011950000000001167000000000118700014000000000000012100000000000014437700000000000000009999123100000010000000000000BRCTKAACNPR7043
012020091002CTNM3       010COTEMINAS   ON           R$  000000000108500000000010850000000001085000000000108500000000010850000000001085000000000111800002000000000000001200000000000001302000000000000000009999123100000010000000000000BRCTNMACNOR9130
012020091002CTNM4       010COTEMINAS   PN           R$  000000000058900000000005890000000000549000000000056000000000005570000000000557000000000056900116000000000000053400000000000029911700000000000000009999123100000010000000000000BRCTNMACNPR6129
012020091002CTSA3       010SANTANENSE  ON           R$  000000000025500000000002550000000000251000000000025300000000002520000000000251000000000025300004000000000000001300000000000000329200000000000000009999123100000010000000000000BRCTSAACNOR3060
012020091002CTSA4       010SANTANENSE  PN           R$  000000000022600000000002300000000000212000000000021900000000002260000000000217000000000022600046000000000000014500000000000003186600000000000000009999123100000010000000000000BRCTSAACNPR0060
012020091002CVCB3       010CVC BRASIL  ON      NM   R$  000000000177100000000018050000000001704000000000175000000000017060000000001706000000000170715950000000000005643800000000009878274100000000000000009999123100000010000000000000BRCVCBACNOR1113
012020091002CVSH34      010CVS HEALTH  DRN          R$  000000001574000000000157400000000015599000000001572900000000155990000000000000000000001690000006000000000000008820000000000138734920000000000000009999123100000010000000000000BRCVSHBDR008117
012020091002CYRE3       010CYRELA REALTON      NM   R$  000000000245400000000024930000000002385000000000244300000000024040000000002400000000000240429313000000000008786600000000021469519600000000000000009999123100000010000000000000BRCYREACNOR7134
012020091002D1EL34      010DELL TECHNOLDRN          R$  000000003550000000000355640000000034720000000003484700000000349330000000031000000000000000000007000000000000000740000000000025786970000000000000009999123100000010000000000000BRD1ELBDR009100
012020091002D1OM34      010DOMINION ENEDRN ED       R$  000000002082500000000208250000000020825000000002082500000000208250000000000000000000000000000001000000000000005000000000000104125000000000000000009999123100000010000000000000BRD1OMBDR006103
012020091002D1VN34      010DEVON ENERGYDRN          R$  000000000489100000000048910000000004891000000000489100000000048910000000000000000000000000000001000000000000000010000000000000048910000000000000009999123100000010000000000000BRD1VNBDR009103
012020091002DASA3       010DASA        ON           R$  000000000651000000000065100000000006500000000000650000000000065000000000006500000000000655000016000000000000002400000000000015602000000000000000009999123100000010000000000000BRDASAACNOR1119
012020091002DDNB34      010DUPONT N INCDRN          R$  000000003075700000000307570000000030757000000003075700000000307570000000027100000000000000000001000000000000007000000000000215299000000000000000009999123100000010000000000000BRDDNBBDR008105
012020091002DEAI34      010DELTA       DRN          R$  000000001708000000000170800000000017080000000001708000000000170800000000011500000000002300000001000000000000004000000000000068320000000000000000009999123100000010000000000000BRDEAIBDR008116
012020091002DEEC34      010DEERE CO    DRN          R$  000000005720000000000572000000000057200000000005720000000000572000000000000000000000000000000001000000000000002000000000000114400000000000000000009999123100000010000000000000BRDEECBDR003105
012020091002DEOP34      010DIAGEO PL   DRN          R$  000000007180000000000718000000000071800000000007180000000000718000000000000000000000000000000001000000000000002000000000000143600000000000000000009999123100000010000000000000BRDEOPBDR004102
012020091002DGCO34      010DOLLAR GENERDRN          R$  000000005248000000000524900000000052480000000005248000000000524900000000000000000000000000000002000000000000002100000000000110209000000000000000009999123100000010000000000000BRDGCOBDR007105
012020091002DHER34      010DANAHER CORPDRN          R$  000000002700000000000270000000000027000000000002700000000000270000000000000000000000000000000001000000000000008000000000000216000000000000000000009999123100000010000000000000BRDHERBDR004121
012020091002DIRR3       010DIRECIONAL  ON      NM   R$  000000000158200000000016230000000001517000000000157600000000015320000000001532000000000153305010000000000001573500000000002480857200000000000000009999123100000010000000000000BRDIRRACNOR0112
012020091002DISB34      010WALT DISNEY DRN          R$  000000007080000000000722000000000070450000000007181000000000710800000000070300000000007290000024000000000000005670000000000407165370000000000000009999123100000010000000000000BRDISBBDR006114
012020091002DMMO3       010DOMMO       ON           R$  000000000012300000000001240000000000121000000000012200000000001220000000000122000000000012300876000000000001453600000000000178163600000000000000009999123100000010000000000000BRDMMOACNOR0102
012020091002DMVF3       010D1000VFARMA ON      NM   R$  000000000119700000000011970000000001105000000000117600000000011830000000001150000000000118300667000000000000247500000000000291106400000000000000009999123100000010000000000000BRDMVFACNOR9100
012020091002DOHL4       010DOHLER      PN           R$  000000000051300000000005150000000000510000000000051300000000005150000000000512000000000051500006000000000000001000000000000000513300000000000000009999123100000010000000000000BRDOHLACNPR9061
012020091002DTCY3       010DTCOM-DIRECTON           R$  000000000064600000000006600000000000646000000000064700000000006500000000000646000000000065900006000000000000001800000000000001164600000000000000009999123100000010000000000000BRDTCYACNOR5109
012020091002DTEX3       010DURATEX     ON      NM   R$  000000000176600000000017820000000001695000000000174400000000017140000000001714000000000171506394000000000001585400000000002765832900000000000000009999123100000010000000000000BRDTEXACNOR3128
012020091002DUKB34      010DUKE ENERGY DRN          R$  000000004320000000000437390000000043200000000004335400000000437390000000042000000000000000000003000000000000002040000000000088444170000000000000009999123100000010000000000000BRDUKBBDR008116
012020091002E1XC34      010EXELON CORP DRN          R$  000000001931000000000193100000000019310000000001931000000000193100000000000000000000000000000001000000000000000150000000000002896500000000000000009999123100000010000000000000BRE1XCBDR007103
012020091002EAIN34      010ELECTR ARTS DRN          R$  000000003417100000000342850000000033973000000003426500000000339730000000032900000000000000000005000000000000002150000000000073671050000000000000009999123100000010000000000000BREAINBDR007100
012020091002EALT3       010ACO ALTONA  ON           R$  000000000121500000000012150000000001200000000000120200000000012000000000001200000000000123900006000000000000002500000000000003005900000000000000009999123100000010000000000000BREALTACNOR4133
012020091002EALT4       010ACO ALTONA  PN           R$  000000000055000000000005500000000000521000000000052800000000005250000000000525000000000052600037000000000000012300000000000006495300000000000000009999123100000010000000000000BREALTACNPR1133
012020091002EBAY34      010EBAY        DRN ED       R$  000000001418600000000142630000000014186000000001418900000000142630000000000000000000000000000002000000000000007290000000000103438270000000000000009999123100000010000000000000BREBAYBDR009108
012020091002ECOR3       010ECORODOVIAS ON      NM   R$  000000000137100000000013880000000001315000000000134700000000013250000000001324000000000132513855000000000004504400000000006071315600000000000000009999123100000010000000000000BRECORACNOR8116
012020091002EGIE3       010ENGIE BRASILON      NM   R$  000000000453000000000045460000000004381000000000445300000000044320000000004431000000000443207372000000000001479400000000006588793500000000000000009999123100000010000000000000BREGIEACNOR9113
012020091002EKTR3       010ELEKTRO     ON           R$  000000000249000000000025000000000002250000000000236800000000022700000000002261000000000235700060000000000000009100000000000021555100000000000000009999123100000010000000000000BREKTRACNOR0144
012020091002ELCI34      010ESTEE LAUDERDRN          R$  000000005772200000000577220000000057722000000005772200000000577220000000000000000000000000000001000000000000001000000000000057722000000000000000009999123100000010000000000000BRELCIBDR007104
012020091002ELET3       010ELETROBRAS  ON      N1   R$  000000000365400000000037830000000003480000000000361600000000035100000000003508000000000351028247000000000007016300000000025373046800000000000000009999123100000010000000000000BRELETACNOR6155
012020091002ELET6       010ELETROBRAS  PNB     N1   R$  000000000372200000000038070000000003570000000000366000000000035970000000003595000000000359713227000000000003374300000000012350428800000000000000009999123100000010000000000000BRELETACNPB7072
012020091002EMAE4       010EMAE        PN           R$  000000000304800000000033290000000003048000000000310200000000032310000000003200000000000323200076000000000000033200000000000103012100000000000000009999123100000010000000000000BREMAEACNPR1114
012020091002EMBR3       010EMBRAER     ON      NM   R$  000000000072000000000007260000000000699000000000070900000000007010000000000700000000000070117858000000000016683100000000011829304100000000000000009999123100000010000000000000BREMBRACNOR4189
012020091002ENAT3       010ENAUTA PART ON      NM   R$  000000000110000000000011120000000001075000000000109000000000010830000000001081000000000108305069000000000001416600000000001545277100000000000000009999123100000010000000000000BRENATACNOR0101
012020091002ENBR3       010ENERGIAS BR ON      NM   R$  000000000192200000000019310000000001868000000000189500000000018680000000001868000000000187208678000000000001795700000000003403219000000000000000009999123100000010000000000000BRENBRACNOR2129
012020091002ENEV3       010ENEVA       ON      NM   R$  000000000497300000000049730000000004778000000000484100000000047780000000004778000000000478304043000000000000995600000000004819897500000000000000009999123100000010000000000000BRENEVACNOR8104
012020091002ENGI3       010ENERGISA    ON      N2   R$  000000000134900000000013500000000001305000000000132900000000013170000000001317000000000132000046000000000000006000000000000007978200000000000000009999123100000010000000000000BRENGIACNOR0138
012020091002ENGI4       010ENERGISA    PN      N2   R$  000000000078000000000007910000000000761000000000077500000000007890000000000755000000000078900056000000000000010700000000000008298200000000000000009999123100000010000000000000BRENGIACNPR7134
012020091002ENGI11      010ENERGISA    UNT     N2   R$  000000000450500000000045260000000004371000000000443800000000043730000000004373000000000438807151000000000001791300000000007951148500000000000000009999123100000010000000000000BRENGICDAM16128
012020091002ENMT3       010ENERGISA MT ON           R$  000000000299000000000029900000000002700000000000290100000000029890000000002750000000000299000024000000000000003700000000000010735200000000000000009999123100000010000000000000BRENMTACNOR5111
012020091002ENMT4       010ENERGISA MT PN           R$  000000000299000000000029900000000002850000000000292800000000029890000000002702000000000299000032000000000000003600000000000010544300000000000000009999123100000010000000000000BRENMTACNPR2114
012020091002EQIX34      010EQUINIX INC DRN          R$  000000007880000000000790000000000078800000000007880300000000790000000000000000000000000000000002000000000000001020000000000080380000000000000000009999123100000010000000000000BREQIXBDR002106
012020091002EQPA3       010EQTL PARA   ON           R$  000000000033500000000003350000000000326000000000032800000000003270000000000327000000000033500077000000000000027600000000000009078800000000000000009999123100000010000000000000BREQPAACNOR1101
012020091002EQTL3       010EQUATORIAL  ON      NM   R$  000000000242400000000024370000000002333000000000236800000000023410000000002340000000000234111370000000000003626000000000008587714800000000000000009999123100000010000000000000BREQTLACNOR0126
012020091002ESTR4       010ESTRELA     PN           R$  000000000362500000000037010000000003002000000000340500000000030500000000003050000000000317800136000000000000021100000000000071858600000000000000009999123100000010000000000000BRESTRACNPR0143
012020091002EUCA3       010EUCATEX     ON      N1   R$  000000000224300000000022430000000002240000000000224100000000022400000000002240000000000232000006000000000000000800000000000001792800000000000000009999123100000010000000000000BREUCAACNOR1151
012020091002EUCA4       010EUCATEX     PN      N1   R$  000000000063000000000006890000000000625000000000065900000000006600000000000660000000000066200515000000000000151400000000000099858000000000000000009999123100000010000000000000BREUCAACNPR8038
012020091002EVEN3       010EVEN        ON      NM   R$  000000000126500000000012800000000001224000000000124900000000012320000000001230000000000123305043000000000000944100000000001180014200000000000000009999123100000010000000000000BREVENACNOR8112
012020091002EXXO34      010EXXON MOBIL DRN          R$  000000000502100000000050300000000004911000000000502700000000049270000000004901000000000492700021000000000000045560000000000229063010000000000000009999123100000010000000000000BREXXOBDR006140
012020091002EZTC3       010EZTEC       ON      NM   R$  000000000407600000000041680000000003941000000000406700000000039960000000003991000000000399611426000000000002241100000000009115899000000000000000009999123100000010000000000000BREZTCACNOR0114
012020091002F1IS34      010FISERV INC  DRN          R$  000000002569500000000256950000000025695000000002569500000000256950000000000000000000000000000001000000000000004000000000000102780000000000000000009999123100000010000000000000BRF1ISBDR003100
012020091002F1NI34      010FIDELITY NATDRN ED       R$  000000001970100000000197010000000019701000000001970100000000197010000000000000000000000000000002000000000000007000000000000137907000000000000000009999123100000010000000000000BRF1NIBDR004103
012020091002FBOK34      010FACEBOOK    DRN          R$  000000007281700000000733620000000071202000000007303500000000712020000000071000000000007248000045000000000000013240000000000966988350000000000000009999123100000010000000000000BRFBOKBDR006100
012020091002FDXB34      010FEDEX CORP  DRN ED       R$  000000011957800000001195780000000119578000000011957800000001195780000000000000000000000000000001000000000000001000000000000119578000000000000000009999123100000010000000000000BRFDXBBDR002128
012020091002FESA3       010FERBASA     ON  EJ  N1   R$  000000000290200000000029020000000002645000000000277100000000027010000000002600000000000300000015000000000000001500000000000004157800000000000000009999123100000010000000000000BRFESAACNOR8171
012020091002FESA4       010FERBASA     PN  EJ  N1   R$  000000000183100000000018310000000001787000000000181000000000018190000000001792000000000181900544000000000000103200000000000186833300000000000000009999123100000010000000000000BRFESAACNPR5067
012020091002FLRY3       010FLEURY      ON      NM   R$  000000000285600000000028950000000002850000000000286600000000028620000000002860000000000286211313000000000002127100000000006096696500000000000000009999123100000010000000000000BRFLRYACNOR5127
012020091002FRAS3       010FRAS-LE     ON      N1   R$  000000000054500000000005450000000000520000000000053300000000005250000000000525000000000053100351000000000000107100000000000057173800000000000000009999123100000010000000000000BRFRASACNOR0149
012020091002GDBR34      010GEN DYNAMICSDRN          R$  000000007751500000000775150000000077515000000007751500000000775150000000000000000000000000000001000000000000001000000000000077515000000000000000009999123100000010000000000000BRGDBRBDR002120
012020091002GEOO34      010GE          DRN          R$  000000000326000000000032640000000003200000000000325100000000032040000000002989000000000320400006000000000000023290000000000075726330000000000000009999123100000010000000000000BRGEOOBDR000140
012020091002GEPA3       010GER PARANAP ON           R$  000000000420000000000042010000000004200000000000420000000000042000000000004170000000000439900007000000000000001000000000000004200400000000000000009999123100000010000000000000BRGEPAACNOR2146
012020091002GEPA4       010GER PARANAP PN           R$  000000000474000000000048790000000004665000000000474300000000047060000000004663000000000489200016000000000000001600000000000007589800000000000000009999123100000010000000000000BRGEPAACNPR9153
012020091002GFSA3       010GAFISA      ON      NM   R$  000000000046800000000004810000000000467000000000047300000000004700000000000469000000000047004975000000000004893600000000002317035800000000000000009999123100000010000000000000BRGFSAACNOR3119
012020091002GGBR3       010GERDAU      ON      N1   R$  000000000169900000000017180000000001642000000000167800000000016460000000001646000000000166200373000000000000125800000000000211147900000000000000009999123100000010000000000000BRGGBRACNOR1173
012020091002GGBR4       010GERDAU      PN      N1   R$  000000000205300000000020780000000001980000000000202200000000019850000000001984000000000198521893000000000009634100000000019482779600000000000000009999123100000010000000000000BRGGBRACNPR8173
012020091002GILD34      010GILEAD      DRN          R$  000000001710000000000171960000000016900000000001708700000000169000000000000000000000002156000017000000000000007370000000000125937480000000000000009999123100000010000000000000BRGILDBDR000117
012020091002GMCO34      010GENERAL MOT DRN          R$  000000001627800000000162800000000016145000000001624900000000161450000000016013000000000000000004000000000000000990000000000016087000000000000000009999123100000010000000000000BRGMCOBDR008115
012020091002GNDI3       010INTERMEDICA ON      NM   R$  000000000749200000000075550000000007165000000000736300000000072600000000007258000000000726215321000000000003182300000000023433402900000000000000009999123100000010000000000000BRGNDIACNOR2102
012020091002GOAU3       010GERDAU MET  ON      N1   R$  000000000081100000000008200000000000788000000000080200000000007950000000000790000000000079500274000000000000061400000000000049244500000000000000009999123100000010000000000000BRGOAUACNOR1250
012020091002GOAU4       010GERDAU MET  PN      N1   R$  000000000093600000000009420000000000900000000000091900000000009010000000000901000000000090315153000000000013258900000000012186400500000000000000009999123100000010000000000000BRGOAUACNPR8251
012020091002GOGL34      010ALPHABET    DRN A        R$  000000003297000000000332070000000032347000000003287400000000325300000000032370000000003253000131000000000000031890000000001048355830000000000000009999123100000010000000000000BRGOGLBDR001100
012020091002GOGL35      010ALPHABET    DRN C        R$  000000003350500000000335050000000032684000000003350300000000326840000000000000000000003268400002000000000000015030000000000503555520000000000000009999123100000010000000000000BRGOGLBDR019100
012020091002GOLL4       010GOL         PN      N2   R$  000000000198400000000021030000000001977000000000205900000000020250000000002024000000000202530521000000000014647100000000030166094600000000000000009999123100000010000000000000BRGOLLACNPR4125
012020091002GPAR3       010CELGPAR     ON           R$  000000000319900000000032500000000003020000000000311700000000030640000000001005000000000330000057000000000000014200000000000044264900000000000000009999123100000010000000000000BRGPARACNOR4104
012020091002GPIV33      010GP INVEST   DR3          R$  000000000050200000000005170000000000484000000000050000000000005170000000000483000000000051700135000000000000078000000000000039035500000000000000009999123100000010000000000000BRGPIVBDR003104
012020091002GRND3       010GRENDENE    ON      NM   R$  000000000083800000000008420000000000803000000000081900000000008130000000000813000000000081403957000000000001120700000000000918811800000000000000009999123100000010000000000000BRGRNDACNOR3158
012020091002GSGI34      010GOLDMANSACHSDRN ED       R$  000000001083900000000108390000000010839000000001083900000000108390000000000000000000000000000001000000000000012000000000000130068000000000000000009999123100000010000000000000BRGSGIBDR008140
012020091002GSHP3       010GENERALSHOPPON      NM   R$  000000000477500000000047750000000004770000000000477100000000047700000000004770000000000480000003000000000000000300000000000001431500000000000000009999123100000010000000000000BRGSHPACNOR7102
012020091002GUAR3       010GUARARAPES  ON           R$  000000000179500000000018170000000001756000000000177600000000017600000000001760000000000176103982000000000000959200000000001703711000000000000000009999123100000010000000000000BRGUARACNOR4165
012020091002H1CA34      010HCA HEALTHCADRN          R$  000000003564000000000356400000000035640000000003564000000000356400000000000000000000000000000001000000000000002000000000000071280000000000000000009999123100000010000000000000BRH1CABDR002101
012020091002H1LT34      010HILTON WORLDDRN          R$  000000002418000000000241800000000024180000000002418000000000241800000000000000000000000000000001000000000000000150000000000003627000000000000000009999123100000010000000000000BRH1LTBDR003101
012020091002HAGA3       010HAGA S/A    ON           R$  000000000036900000000003690000000000341000000000035000000000003540000000000346000000000035700051000000000000016800000000000005884200000000000000009999123100000010000000000000BRHAGAACNOR7103
012020091002HAGA4       010HAGA S/A    PN           R$  000000000020200000000002110000000000196000000000020600000000002030000000000199000000000020300176000000000000205900000000000042523600000000000000009999123100000010000000000000BRHAGAACNPR4103
012020091002HALI34      010HALLIBURTON DRN ED       R$  000000000795100000000079510000000007951000000000795100000000079510000000000000000000000000000001000000000000000020000000000000159020000000000000009999123100000010000000000000BRHALIBDR004135
012020091002HAPV3       010HAPVIDA     ON      NM   R$  000000000690200000000069060000000006502000000000667200000000065500000000006550000000000655210437000000000001679900000000011208452900000000000000009999123100000010000000000000BRHAPVACNOR4105
012020091002HBOR3       010HELBOR      ON      NM   R$  000000000116700000000011890000000001140000000000116600000000011450000000001144000000000114502799000000000001955300000000002281404600000000000000009999123100000010000000000000BRHBORACNOR3114
012020091002HBTS5       010HABITASUL   PNA          R$  000000000230000000000023000000000002300000000000230000000000023000000000002200000000000255000001000000000000000100000000000000230000000000000000009999123100000010000000000000BRHBTSACNPA3124
012020091002HETA4       010HERCULES    PN           R$  000000000079900000000008040000000000735000000000077000000000007350000000000735000000000078900018000000000000004800000000000003696500000000000000009999123100000010000000000000BRHETAACNPR9136
012020091002HGTX3       010CIA HERING  ON      NM   R$  000000000193800000000020190000000001873000000000194800000000018820000000001882000000000188416486000000000005684500000000011074620900000000000000009999123100000010000000000000BRHGTXACNOR9151
012020091002HOME34      010HOME DEPOT  DRN ED       R$  000000007308000000000730800000000072399000000007294300000000723990000000000000000000000000000003000000000000010020000000000730893600000000000000009999123100000010000000000000BRHOMEBDR002134
012020091002HONB34      010HONEYWELL   DRN          R$  000000008762400000000876240000000087624000000008762400000000876240000000000000000000000000000001000000000000002000000000000175248000000000000000009999123100000010000000000000BRHONBBDR006127
012020091002HOND34      010HONDA MO    DRN          R$  000000001329500000000132950000000013295000000001329500000000132950000000000000000000000000000001000000000000005000000000000066475000000000000000009999123100000010000000000000BRHONDBDR002103
012020091002HPQB34      010HP COMPANY  DRN ED       R$  000000001017100000000101710000000010171000000001017100000000101710000000006800000000000000000001000000000000000010000000000000101710000000000000009999123100000010000000000000BRHPQBBDR006133
012020091002HYPE3       010HYPERA      ON      NM   R$  000000000316400000000032330000000003125000000000318700000000031790000000003172000000000317917298000000000003732400000000011898338800000000000000009999123100000010000000000000BRHYPEACNOR0122
012020091002IBMB34      010IBM         DRN          R$  000000006453400000000645340000000064530000000006453300000000645300000000060000000000000000000002000000000000003100000000000200055000000000000000009999123100000010000000000000BRIBMBBDR003135
012020091002IDVL3       010INDUSVAL    ON      N2   R$  000000000024900000000002580000000000248000000000025400000000002540000000000250000000000025400059000000000000067100000000000017087600000000000000009999123100000010000000000000BRIDVLACNOR5130
012020091002IDVL4       010INDUSVAL    PN      N2   R$  000000000026000000000002600000000000246000000000024900000000002580000000000247000000000025800026000000000000008000000000000001993300000000000000009999123100000010000000000000BRIDVLACNPR2130
012020091002IGTA3       010IGUATEMI    ON      NM   R$  000000000352800000000035810000000003450000000000351700000000034730000000003473000000000347510351000000000001679300000000005907479800000000000000009999123100000010000000000000BRIGTAACNOR5124
012020091002INTU34      010INTUIT INC  DRN          R$  000000004317100000000431710000000043171000000004317100000000431710000000000000000000000000000001000000000000003000000000000129513000000000000000009999123100000010000000000000BRINTUBDR003105
012020091002IRBR3       010IRBBRASIL REON      NM   R$  000000000065000000000006650000000000626000000000064100000000006300000000000629000000000063035907000000000032068200000000020556355700000000000000009999123100000010000000000000BRIRBRACNOR4108
012020091002ITLC34      010INTEL       DRN          R$  000000002643100000000264310000000026000000000002638800000000260900000000025600000000002609000008000000000000008990000000000237233600000000000000009999123100000010000000000000BRITLCBDR005139
012020091002ITSA3       010ITAUSA      ON  ED  N1   R$  000000000109000000000010940000000001063000000000107800000000010650000000001065000000000107100604000000000000139800000000000150737400000000000000009999123100000010000000000000BRITSAACNOR0401
012020091002ITSA4       010ITAUSA      PN  ED  N1   R$  000000000096700000000009720000000000943000000000095400000000009460000000000945000000000094634618000000000026779600000000025549233900000000000000009999123100000010000000000000BRITSAACNPR7401
012020091002ITUB3       010ITAUUNIBANCOON  ED  N1   R$  000000000232000000000023380000000002272000000000230200000000022720000000002272000000000228401883000000000000427600000000000984741500000000000000009999123100000010000000000000BRITUBACNOR4273
012020091002ITUB4       010ITAUUNIBANCOPN  ED  N1   R$  000000000244000000000024660000000002390000000000242300000000023910000000002391000000000239541804000000000036321500000000088008025100000000000000009999123100000010000000000000BRITUBACNPR1273
012020091002JBDU3       010J B DUARTE  ON           R$  000000000022900000000002290000000000215000000000021800000000002190000000000218000000000022000043000000000000014700000000000003209000000000000000009999123100000010000000000000BRJBDUACNOR6142
012020091002JBDU4       010J B DUARTE  PN           R$  000000000012600000000001260000000000121000000000012300000000001250000000000125000000000012600050000000000000022300000000000002757900000000000000009999123100000010000000000000BRJBDUACNPR3142
012020091002JBSS3       010JBS         ON      NM   R$  000000000220500000000023010000000002180000000000226300000000022530000000002253000000000225542063000000000024161100000000054683641400000000000000009999123100000010000000000000BRJBSSACNOR8115
012020091002JDCO34      010JD COM      DRN          R$  000000004090000000000410000000000039923000000004094500000000399230000000000000000000004700000005000000000000004090000000000167466220000000000000009999123100000010000000000000BRJDCOBDR001100
012020091002JHSF3       010JHSF PART   ON      NM   R$  000000000071900000000007380000000000694000000000071400000000006960000000000695000000000069610035000000000007540100000000005389158300000000000000009999123100000010000000000000BRJHSFACNOR2116
012020091002JNJB34      010JOHNSON     DRN          R$  000000007950000000000795000000000078117000000007853200000000781170000000000000000000007811700008000000000000008090000000000635324490000000000000009999123100000010000000000000BRJNJBBDR002135
012020091002JOPA3       010JOSAPAR     ON           R$  000000000325000000000033000000000003250000000000327500000000032500000000003001000000000330000012000000000000001400000000000004585000000000000000009999123100000010000000000000BRJOPAACNOR5131
012020091002JPMC34      010JPMORGAN    DRN          R$  000000002679000000000269700000000026600000000002692000000000266370000000026475000000002663700014000000000000013450000000000362076740000000000000009999123100000010000000000000BRJPMCBDR009134
012020091002JPSA3       010JEREISSATI  ON           R$  000000000238300000000023890000000002301000000000234300000000023150000000002315000000000232901146000000000000195600000000000458455300000000000000009999123100000010000000000000BRJPSAACNOR6103
012020091002JSLG11      010JSL         ON  P   NM   R$  000000000096500000000009980000000000922000000000095100000000009490000000000936000000000094901477000000000002780800000000002645475500000000000000009999123100000010000000000000BRJSLGA02OR1100
012020091002JSLG3       010JSL         ON      NM   R$  000000000323000000000032860000000003155000000000322300000000031550000000003155000000000316003843000000000000855100000000002756766400000000000000009999123100000010000000000000BRJSLGACNOR2114
012020091002K1RC34      010KROGER CO   DRN          R$  000000001868800000000186880000000018501000000001861300000000185010000000000000000000000000000002000000000000000250000000000004653300000000000000009999123100000010000000000000BRK1RCBDR001103
012020091002KEPL3       010KEPLER WEBERON           R$  000000000427200000000042720000000004088000000000415500000000041000000000004100000000000415101238000000000000333400000000001385350600000000000000009999123100000010000000000000BRKEPLACNOR1049
012020091002KHCB34      010KRAFT HEINZ DRN          R$  000000001699200000000169920000000016992000000001699200000000169920000000016500000000001950000001000000000000003000000000000050976000000000000000009999123100000010000000000000BRKHCBBDR007121
012020091002KLBN3       010KLABIN S/A  ON      N2   R$  000000000052100000000005350000000000512000000000052200000000005290000000000524000000000052900965000000000000362300000000000189253800000000000000009999123100000010000000000000BRKLBNACNOR2156
012020091002KLBN4       010KLABIN S/A  PN      N2   R$  000000000048700000000004910000000000481000000000048600000000004860000000000485000000000048602376000000000001238400000000000602489100000000000000009999123100000010000000000000BRKLBNACNPR9156
012020091002KLBN11      010KLABIN S/A  UNT     N2   R$  000000000247500000000025000000000002440000000000246900000000024620000000002462000000000246317813000000000003838200000000009479341000000000000000009999123100000010000000000000BRKLBNCDAM18128
012020091002KMBB34      010KIMBERLY CL DRN ED       R$  000000007928100000000801090000000079281000000007933500000000801090000000000000000000000000000002000000000000001070000000000084888630000000000000009999123100000010000000000000BRKMBBBDR009121
012020091002L1UL34      010LULULEMON ATDRN          R$  000000004410000000000441000000000044100000000004410000000000441000000000000000000000000000000001000000000000000030000000000001323000000000000000009999123100000010000000000000BRL1ULBDR005100
012020091002L1YB34      010LYONDELLBASEDRN          R$  000000001887000000000188700000000018870000000001887000000000188700000000000000000000000000000001000000000000000100000000000001887000000000000000009999123100000010000000000000BRL1YBBDR008103
012020091002LAME3       010LOJAS AMERICON      N1   R$  000000000265600000000026840000000002552000000000260500000000025760000000002571000000000257608213000000000001686600000000004393970400000000000000009999123100000010000000000000BRLAMEACNOR9202
012020091002LAME4       010LOJAS AMERICPN      N1   R$  000000000310200000000031330000000002992000000000307100000000030150000000003013000000000301521629000000000009826000000000030180536000000000000000009999123100000010000000000000BRLAMEACNPR6202
012020091002LAVV3       010LAVVI       ON      NM   R$  000000000082700000000008350000000000810000000000082400000000008200000000000815000000000082200912000000000001459400000000001203144500000000000000009999123100000010000000000000BRLAVVACNOR4100
012020091002LBRN34      010L BRANDS    DRN          R$  000000000378700000000037870000000003787000000000378700000000037870000000000000000000000000000001000000000000000270000000000001022490000000000000009999123100000010000000000000BRLBRNBDR001119
012020091002LCAM3       010LOCAMERICA  ON      NM   R$  000000000227600000000022770000000002194000000000222100000000021980000000002197000000000219806563000000000001969600000000004375780900000000000000009999123100000010000000000000BRLCAMACNOR3133
012020091002LEVE3       010METAL LEVE  ON      NM   R$  000000000177400000000017930000000001724000000000175400000000017430000000001730000000000174302043000000000000378600000000000664076600000000000000009999123100000010000000000000BRLEVEACNOR2187
012020091002LIGT3       010LIGHT S/A   ON      NM   R$  000000000156600000000015880000000001509000000000152900000000015090000000001509000000000151009389000000000002585300000000003955062800000000000000009999123100000010000000000000BRLIGTACNOR2120
012020091002LILY34      010LILLY       DRN          R$  000000003921900000000392190000000039219000000003921900000000392190000000000000000000004120000001000000000000007000000000000274533000000000000000009999123100000010000000000000BRLILYBDR006134
012020091002LINX3       010LINX        ON      NM   R$  000000000356800000000035750000000003524000000000354400000000035620000000003553000000000356209531000000000002713800000000009617707900000000000000009999123100000010000000000000BRLINXACNOR0118
012020091002LIPR3       010ELETROPAR   ON           R$  000000000750000000000076000000000007020000000000730300000000070250000000000000000000000730000011000000000000001100000000000008034300000000000000009999123100000010000000000000BRLIPRACNOR7117
012020091002LJQQ3       010QUERO-QUERO ON      NM   R$  000000000146800000000014850000000001417000000000143900000000014400000000001431000000000144406259000000000003015600000000004339533500000000000000009999123100000010000000000000BRLJQQACNOR5100
012020091002LMTB34      010LOCKHEED    DRN ED       R$  000000020390500000002039050000000203905000000020390500000002039050000000000000000000000000000001000000000000001000000000000203905000000000000000009999123100000010000000000000BRLMTBBDR009134
012020091002LOGG3       010LOG COM PROPON      NM   R$  000000000323900000000032390000000003115000000000315300000000031150000000003114000000000314401452000000000000278400000000000877972400000000000000009999123100000010000000000000BRLOGGACNOR7103
012020091002LOGN3       010LOG-IN      ON      NM   R$  000000000194600000000019630000000001889000000000192800000000019090000000001903000000000190902538000000000000697300000000001344526100000000000000009999123100000010000000000000BRLOGNACNOR3104
012020091002LOWC34      010LOWES COMPA DRN          R$  000000004277300000000427730000000042773000000004277300000000427730000000000000000000000000000001000000000000005000000000000213865000000000000000009999123100000010000000000000BRLOWCBDR007105
012020091002LPSB3       010LOPES BRASILON      NM   R$  000000000058600000000006030000000000547000000000057000000000005470000000000547000000000055003081000000000001592200000000000908682100000000000000009999123100000010000000000000BRLPSBACNOR0111
012020091002LREN3       010LOJAS RENNERON      NM   R$  000000000461200000000047190000000004384000000000452900000000044070000000004407000000000440936567000000000009036800000000040933108800000000000000009999123100000010000000000000BRLRENACNOR1203
012020091002LWSA3       010LOCAWEB     ON      NM   R$  000000000593100000000060100000000005670000000000584700000000056990000000005699000000000570007716000000000001555000000000009092970600000000000000009999123100000010000000000000BRLWSAACNOR8100
012020091002MACY34      010MACY S      DRN          R$  000000000404700000000040470000000004036000000000404600000000040360000000002600000000000890000002000000000000002010000000000008134360000000000000009999123100000010000000000000BRMACYBDR000116
012020091002MAPT4       010CEMEPE      PN           R$  000000000449900000000047990000000004200000000000446100000000045490000000003900000000000550000027000000000000002700000000000012044700000000000000009999123100000010000000000000BRMAPTACNPR5106
012020091002MCDC34      010MCDONALDS   DRN ED       R$  000000002883400000000288340000000028800000000002883300000000288320000000028500000000003000000003000000000000008310000000000239607600000000000000009999123100000010000000000000BRMCDCBDR000140
012020091002MCOR34      010MOODYS CORP DRN          R$  000000003804800000000380480000000038048000000003804800000000380480000000000000000000000000000001000000000000002000000000000076096000000000000000009999123100000010000000000000BRMCORBDR005105
012020091002MDIA3       010M.DIASBRANCOON      NM   R$  000000000371000000000037320000000003636000000000368600000000036760000000003665000000000367604276000000000000856100000000003155875800000000000000009999123100000010000000000000BRMDIAACNOR7118
012020091002MDLZ34      010MONDELEZ INTDRN          R$  000000001520000000000152000000000015200000000001520000000000152000000000000000000000000000000001000000000000009000000000000136800000000000000000009999123100000010000000000000BRMDLZBDR002120
012020091002MDNE3       010MOURA DUBEUXON      NM   R$  000000000089000000000008950000000000863000000000088100000000008870000000000875000000000088700899000000000000257500000000000227095800000000000000009999123100000010000000000000BRMDNEACNOR9100
012020091002MDTC34      010MEDTRONIC   DRN          R$  000000002805400000000280540000000028054000000002805400000000280540000000000000000000000000000001000000000000008000000000000224432000000000000000009999123100000010000000000000BRMDTCBDR004117
012020091002MEAL3       010IMC S/A     ON      NM   R$  000000000038300000000003850000000000376000000000037900000000003790000000000378000000000037908421000000000013414100000000005090898300000000000000009999123100000010000000000000BRMEALACNOR9105
012020091002MELI34      010MERCADOLIBREDRN          R$  000000005695000000000580000000000054900000000005698700000000555620000000055200000000005556200083000000000000009430000000000537395800000000000000009999123100000010000000000000BRMELIBDR006100
012020091002MERC4       010MERC FINANC PN           R$  000000000115500000000011990000000001151000000000116400000000011990000000001190000000000121800004000000000000000400000000000000465700000000000000009999123100000010000000000000BRMERCACNPR9173
012020091002METB34      010METLIFE INC DRN          R$  000000002036200000000203620000000020000000000002035700000000200000000000000000000000000000000002000000000000003040000000000061886000000000000000009999123100000010000000000000BRMETBBDR004121
012020091002MGEL4       010MANGELS INDLPN           R$  000000000055000000000005590000000000550000000000055100000000005500000000000550000000000055900016000000000000009000000000000004959900000000000000009999123100000010000000000000BRMGELACNPR3147
012020091002MGLU3       010MAGAZ LUIZA ON      NM   R$  000000000913800000000093690000000008700000000000910300000000088250000000008825000000000882862919000000000016484400000000150065038400000000000000009999123100000010000000000000BRMGLUACNOR2116
012020091002MILS3       010MILLS       ON      NM   R$  000000000069700000000007070000000000681000000000069600000000006910000000000689000000000069101618000000000000868700000000000605032700000000000000009999123100000010000000000000BRMILSACNOR2112
012020091002MMMC34      0103M          DRN          R$  000000002196000000000219600000000021807000000002194000000000218070000000015000000000002500000002000000000000006900000000000151386300000000000000009999123100000010000000000000BRMMMCBDR000134
012020091002MNDL3       010MUNDIAL     ON           R$  000000000229000000000022900000000002290000000000229000000000022900000000002280000000000231000001000000000000000200000000000000458000000000000000009999123100000010000000000000BRMNDLACNOR4107
012020091002MNPR3       010MINUPAR     ON           R$  000000000056300000000005640000000000551000000000055800000000005610000000000550000000000056200015000000000000003300000000000001842900000000000000009999123100000010000000000000BRMNPRACNOR5122
012020091002MOAR3       010MONT ARANHA ON           R$  000000002078000000000207800000000020780000000002078000000000207800000000019000000000002078800001000000000000000100000000000002078000000000000000009999123100000010000000000000BRMOARACNOR5212
012020091002MOOO34      010ALTRIA GROUPDRN          R$  000000002299400000000229940000000022994000000002299400000000229940000000022970000000000000000001000000000000005000000000000114970000000000000000009999123100000010000000000000BRMOOOBDR007104
012020091002MOVI3       010MOVIDA      ON      NM   R$  000000000180200000000018170000000001729000000000176500000000017400000000001735000000000174006273000000000001590900000000002808830700000000000000009999123100000010000000000000BRMOVIACNOR0111
012020091002MRCK34      010MERCK       DRN          R$  000000004449000000000444900000000044490000000004449000000000444900000000044200000000000000000001000000000000008000000000000355920000000000000000009999123100000010000000000000BRMRCKBDR003139
012020091002MRFG3       010MARFRIG     ON      NM   R$  000000000163300000000017040000000001608000000000166700000000016600000000001659000000000166039201000000000014361500000000023946177400000000000000009999123100000010000000000000BRMRFGACNOR0109
012020091002MRSA3B      010MRS LOGIST  ON      MB   R$  000000000330700000000033070000000003307000000000330700000000033070000000003211000000000333400001000000000000000100000000000000330700000000000000009999123100000010000000000000BRMRSAACNOR6120
012020091002MRVE3       010MRV         ON      NM   R$  000000000182100000000018450000000001765000000000180400000000017800000000001780000000000178108458000000000002701300000000004875817900000000000000009999123100000010000000000000BRMRVEACNOR2120
012020091002MSBR34      010MORGAN STAN DRN          R$  000000002673000000000267300000000026720000000002672000000000267200000000000000000000000000000004000000000000015000000000000400808000000000000000009999123100000010000000000000BRMSBRBDR008129
012020091002MSCD34      010MASTERCARD  DRN          R$  000000017719900000001771990000000177199000000017719900000001771990000000151600000000000000000001000000000000000600000000000106319400000000000000009999123100000010000000000000BRMSCDBDR006137
012020091002MSFT34      010MICROSOFT   DRN          R$  000000011218300000001125960000000108500000000011126500000001094110000000105000000000010941100059000000000000019460000000002165222300000000000000009999123100000010000000000000BRMSFTBDR005139
012020091002MTIG4       010METAL IGUACUPN           R$  000000000402500000000040250000000004025000000000402500000000040250000000004025000000000430000001000000000000000100000000000000402500000000000000009999123100000010000000000000BRMTIGACNPR7086
012020091002MTRE3       010MITRE REALTYON      NM   R$  000000000155000000000015590000000001524000000000153700000000015250000000001525000000000153401360000000000000248600000000000382337900000000000000009999123100000010000000000000BRMTREACNOR6100
012020091002MTSA4       010METISA      PN           R$  000000000258000000000026100000000002532000000000258300000000025950000000002511000000000259500011000000000000001500000000000003874700000000000000009999123100000010000000000000BRMTSAACNPR9056
012020091002MULT3       010MULTIPLAN   ON      N2   R$  000000000227400000000022990000000002213000000000226000000000022320000000002231000000000223212650000000000002807300000000006345274000000000000000009999123100000010000000000000BRMULTACNOR5127
012020091002MUTC34      010MICRON TECHNDRN          R$  000000002409000000000243900000000024090000000002409100000000241060000000000000000000000000000003000000000000003070000000000073960260000000000000009999123100000010000000000000BRMUTCBDR008100
012020091002MYPK3       010IOCHP-MAXIONON      NM   R$  000000000123100000000012520000000001227000000000123800000000012430000000001233000000000124306559000000000001539100000000001905964200000000000000009999123100000010000000000000BRMYPKACNOR7148
012020091002N1EM34      010NEWMONT GOLDDRN ED       R$  000000003582000000000361500000000035273000000003581500000000352730000000033000000000003624000007000000000000002250000000000080585440000000000000009999123100000010000000000000BRN1EMBDR005103
012020091002NEOE3       010NEOENERGIA  ON      NM   R$  000000000190200000000019170000000001854000000000187400000000018570000000001857000000000185806286000000000001706600000000003198718700000000000000009999123100000010000000000000BRNEOEACNOR3111
012020091002NEXT34      010NEXTERA ENERDRN          R$  000000003690000000000369000000000036900000000003690000000000369000000000000000000000000000000002000000000000006040000000000222876000000000000000009999123100000010000000000000BRNEXTBDR006105
012020091002NFLX34      010NETFLIX     DRN          R$  000000026650000000002666000000000259253000000026494600000002592530000000253400000000026500000007000000000000001160000000000307337660000000000000009999123100000010000000000000BRNFLXBDR000101
012020091002NIKE34      010NIKE        DRN          R$  000000006203900000000620390000000060741000000006203600000000607410000000000000000000006210000002000000000000005010000000000310802410000000000000009999123100000010000000000000BRNIKEBDR006139
012020091002NOCG34      010NORTHROP GRUDRN          R$  000000003550300000000355030000000035503000000003550300000000355030000000000000000000000000000001000000000000002000000000000071006000000000000000009999123100000010000000000000BRNOCGBDR006105
012020091002NTCO3       010GRUPO NATURAON      NM   R$  000000000509000000000051270000000004939000000000501300000000049750000000004974000000000497522147000000000005253600000000026339948100000000000000009999123100000010000000000000BRNTCOACNOR5101
012020091002NVDC34      010NVIDIA CORP DRN ED       R$  000000006999600000000699960000000065039000000006759500000000653610000000065039000000006950000034000000000000008010000000000541441960000000000000009999123100000010000000000000BRNVDCBDR008106
012020091002ODPV3       010ODONTOPREV  ON      NM   R$  000000000132600000000013260000000001263000000000129000000000012700000000001270000000000127209409000000000002739800000000003535535900000000000000009999123100000010000000000000BRODPVACNOR4178
012020091002OFSA3       010OUROFINO S/AON      NM   R$  000000000294900000000029800000000002920000000000292700000000029300000000002920000000000293000019000000000000006800000000000019908000000000000000009999123100000010000000000000BROFSAACNOR7109
012020091002OMGE3       010OMEGA GER   ON      NM   R$  000000000407600000000040830000000003936000000000400800000000039860000000003974000000000398601592000000000000458900000000001839595700000000000000009999123100000010000000000000BROMGEACNOR0101
012020091002ORCL34      010ORACLE      DRN          R$  000000003054000000000305400000000030540000000003054000000000305400000000000000000000000000000001000000000000013000000000000397020000000000000000009999123100000010000000000000BRORCLBDR007134
012020091002OXYP34      010OCCIDENT PTRDRN          R$  000000000293000000000029300000000002730000000000282400000000027300000000002511000000000318500007000000000000010850000000000030650500000000000000009999123100000010000000000000BROXYPBDR000105
012020091002P1SX34      010PHILLIPS 66 DRN          R$  000000001538300000000153830000000015383000000001538300000000153830000000000000000000000000000004000000000000000250000000000003845750000000000000009999123100000010000000000000BRP1SXBDR000103
012020091002PARD3       010IHPARDINI   ON      NM   R$  000000000246000000000024850000000002383000000000243100000000023970000000002395000000000239702917000000000000563000000000001369089900000000000000009999123100000010000000000000BRPARDACNOR1114
012020091002PATI3       010PANATLANTICAON           R$  000000000219900000000022000000000002061000000000215000000000020610000000002060000000000245000007000000000000000800000000000001720000000000000000009999123100000010000000000000BRPATIACNOR6060
012020091002PATI4       010PANATLANTICAPN           R$  000000000280000000000028680000000002800000000000284200000000028600000000002706000000000286000003000000000000000300000000000000852800000000000000009999123100000010000000000000BRPATIACNPR3060
012020091002PCAR3       010P.ACUCAR-CBDON      NM   R$  000000000741400000000074140000000006950000000000718000000000071350000000007134000000000713554944000000000018485700000000132741683600000000000000009999123100000010000000000000BRPCARACNOR3163
012020091002PDTC3       010PADTEC      ON           R$  000000000052300000000005290000000000485000000000050400000000004870000000000487000000000049700313000000000000106200000000000053582900000000000000009999123100000010000000000000BRPDTCACNOR3100
012020091002PEPB34      010PEPSICO INC DRN ED       R$  000000007220000000000722000000000071699000000007209100000000716990000000065100000000000000000002000000000000005100000000000367668900000000000000009999123100000010000000000000BRPEPBBDR005132
012020091002PETR3       010PETROBRAS   ON      N2   R$  000000000228200000000022870000000002215000000000224100000000022150000000002215000000000221733091000000000023363000000000052357380000000000000000009999123100000010000000000000BRPETRACNOR9191
012020091002PETR4       010PETROBRAS   PN      N2   R$  000000000225800000000022580000000002211000000000223000000000022120000000002212000000000221362288000000000058350000000000130178395800000000000000009999123100000010000000000000BRPETRACNPR6197
012020091002PFIZ34      010PFIZER      DRN          R$  000000001912100000000191460000000018941000000001912600000000189890000000018500000000001898900019000000000000014050000000000268732900000000000000009999123100000010000000000000BRPFIZBDR006140
012020091002PFRM3       010PROFARMA    ON      NM   R$  000000000050300000000005050000000000481000000000049300000000004860000000000486000000000048901611000000000000559200000000000275693700000000000000009999123100000010000000000000BRPFRMACNOR1112
012020091002PGCO34      010PG          DRN          R$  000000007276200000000729660000000072762000000007276200000000729660000000000000000000007296600002000000000000008030000000000584284980000000000000009999123100000010000000000000BRPGCOBDR001139
012020091002PGMN3       010PAGUE MENOS ON      NM   R$  000000000102500000000010250000000001010000000000101500000000010100000000001010000000000101102022000000000000905400000000000919694500000000000000009999123100000010000000000000BRPGMNACNOR8100
012020091002PHGN34      010KOPHILIPS   DRN          R$  000000002523000000000252300000000025230000000002523000000000252300000000000000000000000000000001000000000000003000000000000075690000000000000000009999123100000010000000000000BRPHGNBDR002102
012020091002PHMO34      010PHILIP MORRIDRN          R$  000000002127000000000212700000000021270000000002127000000000212700000000000000000000000000000001000000000000009000000000000191430000000000000000009999123100000010000000000000BRPHMOBDR008113
012020091002PINE4       010PINE        PN      N2   R$  000000000027700000000002800000000000275000000000027600000000002800000000000277000000000028000307000000000000131800000000000036431400000000000000009999123100000010000000000000BRPINEACNPR8144
012020091002PLAS3       010PLASCAR PARTON           R$  000000000044200000000004420000000000441000000000044100000000004410000000000440000000000045000003000000000000000400000000000000176500000000000000009999123100000010000000000000BRPLASACNOR2106
012020091002PMAM3       010PARANAPANEMAON      NM   R$  000000000115900000000012190000000001150000000000118000000000011640000000001158000000000116400184000000000000110600000000000130615800000000000000009999123100000010000000000000BRPMAMACNOR3037
012020091002PNCS34      010PNCFNANCIAL DRN          R$  000000002907200000000290720000000029072000000002907200000000290720000000000000000000000000000001000000000000002000000000000058144000000000000000009999123100000010000000000000BRPNCSBDR008105
012020091002PNVL3       010DIMED       ON           R$  000000000264600000000027060000000002564000000000263400000000025750000000002575000000000257802429000000000000453000000000001193501200000000000000009999123100000010000000000000BRPNVLACNOR9196
012020091002PNVL4       010DIMED       PN           R$  000000000228000000000023000000000002185000000000224500000000021850000000002182000000000220000160000000000000032000000000000071853600000000000000009999123100000010000000000000BRPNVLACNPR6196
012020091002POMO3       010MARCOPOLO   ON      N2   R$  000000000027900000000002800000000000266000000000027400000000002720000000000271000000000027200428000000000000177900000000000048866400000000000000009999123100000010000000000000BRPOMOACNOR0087
012020091002POMO4       010MARCOPOLO   PN      N2   R$  000000000030000000000003010000000000285000000000029100000000002920000000000291000000000029204803000000000013124700000000003832267300000000000000009999123100000010000000000000BRPOMOACNPR7087
012020091002POSI3       010POSITIVO TECON      NM   R$  000000000047800000000004860000000000471000000000047700000000004710000000000471000000000047201739000000000001360700000000000649954500000000000000009999123100000010000000000000BRPOSIACNOR9112
012020091002PPLA11      010PPLA        UNT          R$  000000000154800000000015480000000001520000000000153700000000015300000000001500000000000153000013000000000000001700000000000002614400000000000000009999123100000010000000000000BRPPLAUNT007101
012020091002PRIO3       010PETRORIO    ON      NM   R$  000000000412100000000041350000000003934000000000401800000000039590000000003958000000000395913336000000000003439400000000013821190400000000000000009999123100000010000000000000BRPRIOACNOR1102
012020091002PRNR3       010PRINER      ON      NM   R$  000000000096500000000009730000000000941000000000095100000000009410000000000941000000000095400379000000000000165400000000000157323800000000000000009999123100000010000000000000BRPRNRACNOR4105
012020091002PSSA3       010PORTO SEGUROON      NM   R$  000000000528500000000053030000000005141000000000520400000000051730000000005166000000000517304544000000000000655900000000003413712700000000000000009999123100000010000000000000BRPSSAACNOR7142
012020091002PTBL3       010PORTOBELLO  ON      NM   R$  000000000053800000000005570000000000525000000000054100000000005280000000000528000000000052905200000000000003478800000000001885129300000000000000009999123100000010000000000000BRPTBLACNOR8125
012020091002PTNT3       010PETTENATI   ON           R$  000000000059400000000006000000000000575000000000058500000000005760000000000575000000000058900027000000000000006400000000000003749700000000000000009999123100000010000000000000BRPTNTACNOR6039
012020091002PTNT4       010PETTENATI   PN           R$  000000000048900000000005080000000000473000000000049000000000004830000000000482000000000048600046000000000000009900000000000004851300000000000000009999123100000010000000000000BRPTNTACNPR3044
012020091002PYPL34      010PAYPAL HOLD DRN          R$  000000005186500000000518650000000050300000000005162400000000503000000000048800000000005900000012000000000000005950000000000307166470000000000000009999123100000010000000000000BRPYPLBDR002101
012020091002QCOM34      010QUALCOMM    DRN ED       R$  000000006032800000000603280000000060328000000006032800000000603280000000000000000000000000000001000000000000004000000000000241312000000000000000009999123100000010000000000000BRQCOMBDR007135
012020091002QUAL3       010QUALICORP   ON      NM   R$  000000000343700000000035030000000003321000000000341400000000033360000000003336000000000334021447000000000005261400000000017966329800000000000000009999123100000010000000000000BRQUALACNOR6113
012020091002R1IN34      010REALTY INCOMDRN ED       R$  000000001713800000000171380000000017138000000001713800000000171380000000016510000000000000000001000000000000000150000000000002570700000000000000009999123100000010000000000000BRR1INBDR000108
012020091002RADL3       010RAIADROGASILON      NM   R$  000000001142300000000115550000000011251000000001137000000000112600000000011258000000001127906130000000000001037200000000011793677500000000000000009999123100000010000000000000BRRADLACNOR0136
012020091002RAIL3       010RUMO S.A.   ON      NM   R$  000000000220500000000022140000000002132000000000216600000000021450000000002144000000000214523757000000000006931200000000015015242600000000000000009999123100000010000000000000BRRAILACNOR9101
012020091002RANI3       010IRANI       ON           R$  000000000054400000000005570000000000514000000000053600000000005200000000000520000000000052107084000000000004373000000000002345596800000000000000009999123100000010000000000000BRRANIACNOR5053
012020091002RANI4       010IRANI       PN           R$  000000000093000000000009900000000000840000000000089700000000008420000000000842000000000085200483000000000000124500000000000111768100000000000000009999123100000010000000000000BRRANIACNPR2054
012020091002RAPT3       010RANDON PART ON      N1   R$  000000000092900000000009340000000000918000000000093000000000009250000000000925000000000093300024000000000000005500000000000005115700000000000000009999123100000010000000000000BRRAPTACNOR7153
012020091002RAPT4       010RANDON PART PN      N1   R$  000000000116400000000011820000000001138000000000116000000000011380000000001138000000000114008283000000000002370100000000002750778500000000000000009999123100000010000000000000BRRAPTACNPR4153
012020091002RCSL3       010RECRUSUL    ON           R$  000000000019700000000002280000000000191000000000021000000000002060000000000199000000000020600273000000000000167300000000000035139000000000000000009999123100000010000000000000BRRCSLACNOR4130
012020091002RCSL4       010RECRUSUL    PN           R$  000000000012800000000001410000000000122000000000013200000000001410000000000140000000000014106524000000000012752200000000001689793200000000000000009999123100000010000000000000BRRCSLACNPR1130
012020091002RDNI3       010RNI         ON      NM   R$  000000000102900000000010290000000000990000000000100300000000009900000000000990000000000101200158000000000000041700000000000041859700000000000000009999123100000010000000000000BRRDNIACNOR9113
012020091002RDSA34      010RD SHELL    DRN          R$  000000001499900000000149990000000014990000000001499800000000149900000000000000000000000000000002000000000000007010000000000105142900000000000000009999123100000010000000000000BRRDSABDR009104
