00COTAHIST.2020BOVESPA 20200917                                                                                                                                                                                                                      
012020091702A1BM34      010ABIOMED INC DRN          R$  000000003580500000000358050000000035805000000003580500000000358050000000000000000000000000000001000000000000000050000000000001790250000000000000009999123100000010000000000000BRA1BMBDR006100
012020091702A1LL34      010ALLIANCE DATDRN          R$  000000000613200000000061320000000006132000000000613200000000061320000000000000000000000000000001000000000000000010000000000000061320000000000000009999123100000010000000000000BRA1LLBDR007103
012020091702A1MD34      010ADVANCED MICDRN          R$  000000003934500000000397040000000039299000000003935200000000392990000000000000000000005250000004000000000000000440000000000017315250000000000000009999123100000010000000000000BRA1MDBDR002100
012020091702A1NT34      010ANTHEM INC  DRN ED       R$  000000002751300000000275500000000027449000000002750500000000275500000000000000000000000000000003000000000000000250000000000006876460000000000000009999123100000010000000000000BRA1NTBDR006103
012020091702A1ON34      010AON PLC     DRN          R$  000000002652300000000265230000000026390000000002646500000000263900000000000000000000000000000003000000000000000200000000000005293050000000000000009999123100000010000000000000BRA1ONBDR007103
012020091702A1PD34      010AIR PRODUCTSDRN          R$  000000003953300000000395330000000039377000000003945900000000393770000000000000000000000000000003000000000000000200000000000007891990000000000000009999123100000010000000000000BRA1PDBDR005102
012020091702A1UT34      010AUTODESK INCDRN          R$  000000002918900000000293380000000029189000000002926300000000293380000000000000000000000000000002000000000000000020000000000000585270000000000000009999123100000010000000000000BRA1UTBDR001100
012020091702AALL34      010AMERICAN AIRDRN          R$  000000000720000000000072000000000007200000000000720000000000072000000000005333000000000850000003000000000000000500000000000003600000000000000000009999123100000010000000000000BRAALLBDR003115
012020091702AALR3       010ALLIAR      ON      NM   R$  000000000115000000000011740000000001133000000000115000000000011520000000001140000000000115201148000000000000430700000000000495602000000000000000009999123100000010000000000000BRAALRACNOR6102
012020091702AAPL34      010APPLE       DRN          R$  000000000585000000000058800000000005722000000000576600000000057880000000005780000000000578800442000000000000139660000000000805289910000000000000009999123100000010000000000000BRAAPLBDR004135
012020091702ABBV34      010ABBVIE      DRN          R$  000000004730200000000473020000000047302000000004730200000000473020000000000000000000000000000001000000000000000010000000000000473020000000000000009999123100000010000000000000BRABBVBDR001118
012020091702ABCB4       010ABC BRASIL  PN      N2   R$  000000000131300000000013150000000001290000000000130100000000013150000000001310000000000131503568000000000000519100000000000675634400000000000000009999123100000010000000000000BRABCBACNPR4134
012020091702ABEV3       010AMBEV S/A   ON           R$  000000000125200000000013260000000001240000000000130100000000013160000000001315000000000131661143000000000058483500000000076118473200000000000000009999123100000010000000000000BRABEVACNOR1122
012020091702ABTT34      010ABBOTT      DRN          R$  000000001396500000000139650000000013888000000001392800000000138880000000000000000000001799500003000000000000000030000000000000417860000000000000009999123100000010000000000000BRABTTBDR007135
012020091702ABUD34      010AB INBEV    DRN          R$  000000003030000000000303000000000030300000000003030000000000303000000000000000000000000000000001000000000000000010000000000000303000000000000000009999123100000010000000000000BRABUDBDR009102
012020091702ACNB34      010ACCENTURE   DRN          R$  000000012360700000001236070000000123607000000012360700000001236070000000000000000000000000000001000000000000000010000000000001236070000000000000009999123100000010000000000000BRACNBBDR006112
012020091702ADBE34      010ADOBE INC   DRN          R$  000000004882700000000489180000000048827000000004891200000000489180000000048922000000000000000004000000000000000260000000000012717170000000000000009999123100000010000000000000BRADBEBDR003100
012020091702ADHM3       010ADVANCED-DH ON           R$  000000000020500000000002050000000000205000000000020500000000002050000000000205000000000020900004000000000000005400000000000001107000000000000000009999123100000010000000000000BRADHMACNOR9102
012020091702ADPR34      010AUTOMATIC DTDRN ED       R$  000000003575000000000357500000000035750000000003575000000000357500000000030825000000000000000001000000000000000010000000000000357500000000000000009999123100000010000000000000BRADPRBDR005105
012020091702AFLT3       010AFLUENTE T  ON           R$  000000000098900000000009890000000000988000000000098800000000009880000000000988000000000100000004000000000000000500000000000000494300000000000000009999123100000010000000000000BRAFLTACNOR1115
012020091702AGRO3       010BRASILAGRO  ON      NM   R$  000000000224000000000022490000000002214000000000223300000000022290000000002229000000000223200330000000000000070500000000000157480600000000000000009999123100000010000000000000BRAGROACNOR7109
012020091702ALPA3       010ALPARGATAS  ON      N1   R$  000000000325100000000032880000000003251000000000326500000000032880000000003288000000000328900010000000000000001300000000000004245100000000000000009999123100000010000000000000BRALPAACNOR0229
012020091702ALPA4       010ALPARGATAS  PN      N1   R$  000000000359900000000036270000000003536000000000357700000000036080000000003605000000000360805827000000000000935800000000003347446700000000000000009999123100000010000000000000BRALPAACNPR7229
012020091702ALPK3       010ESTAPAR     ON      NM   R$  000000000092700000000009390000000000927000000000093100000000009360000000000936000000000094000022000000000000006700000000000006239000000000000000009999123100000010000000000000BRALPKACNOR9100
012020091702ALSO3       010ALIANSCSONAEON      NM   R$  000000000280000000000028000000000002699000000000274200000000027460000000002746000000000274907941000000000002069500000000005676145300000000000000009999123100000010000000000000BRALSOACNOR5100
012020091702ALUP3       010ALUPAR      ON      N2   R$  000000000095800000000009590000000000950000000000095300000000009500000000000950000000000095900038000000000000004700000000000004480500000000000000009999123100000010000000000000BRALUPACNOR8111
012020091702ALUP4       010ALUPAR      PN      N2   R$  000000000070700000000007150000000000700000000000070800000000007090000000000709000000000071400054000000000000008200000000000005811400000000000000009999123100000010000000000000BRALUPACNPR5111
012020091702ALUP11      010ALUPAR      UNT     N2   R$  000000000237600000000023930000000002357000000000237500000000023830000000002382000000000238302334000000000000444400000000001055769300000000000000009999123100000010000000000000BRALUPCDAM15111
012020091702AMAR3       010LOJAS MARISAON      NM   R$  000000000084000000000008530000000000822000000000083300000000008270000000000827000000000082806832000000000004255900000000003548221600000000000000009999123100000010000000000000BRAMARACNOR4112
012020091702AMBP3       010AMBIPAR     ON      NM   R$  000000000306300000000031480000000003051000000000311900000000031480000000003101000000000314800865000000000000181800000000000567174200000000000000009999123100000010000000000000BRAMBPACNOR6100
012020091702AMZO34      010AMAZON      DRN          R$  000000079700000000007970000000000782500000000078512300000007837120000000781000000000079332000024000000000000001060000000000832230700000000000000009999123100000010000000000000BRAMZOBDR002101
012020091702ANIM3       010ANIMA       ON      NM   R$  000000000303100000000030310000000002950000000000297200000000029700000000002964000000000297002503000000000000398200000000001183768500000000000000009999123100000010000000000000BRANIMACNOR6106
012020091702APER3       010ALPER S.A.  ON      NM   R$  000000000303600000000031500000000003034000000000310200000000031500000000003113000000000315000118000000000000023200000000000071977900000000000000009999123100000010000000000000BRAPERACNOR9102
012020091702ARMT34      010ARCELOR     DRN          R$  000000000359700000000035970000000003597000000000359700000000035970000000002764000000000000000001000000000000000010000000000000035970000000000000009999123100000010000000000000BRARMTBDR008117
012020091702ARZZ3       010AREZZO CO   ON      NM   R$  000000000567200000000056720000000005553000000000561300000000056200000000005620000000000562501656000000000000214200000000001202305200000000000000009999123100000010000000000000BRARZZACNOR3137
012020091702ATOM3       010ATOMPAR     ON           R$  000000000028100000000002860000000000281000000000028300000000002860000000000284000000000028700057000000000000021800000000000006175200000000000000009999123100000010000000000000BRATOMACNOR1103
012020091702ATTB34      010ATT INC     DRN          R$  000000001533600000000153360000000015270000000001527700000000152700000000015203000000001527000005000000000000000180000000000002749940000000000000009999123100000010000000000000BRATTBBDR007132
012020091702ATVI34      010ACTIVISION  DRN          R$  000000004113900000000411390000000041139000000004113900000000411390000000041100000000004300000002000000000000000020000000000000822780000000000000009999123100000010000000000000BRATVIBDR008101
012020091702AURA32      010AURA 360    DR2          R$  000000000647900000000066200000000006452000000000654300000000064790000000006451000000000647900264000000000000040600000000000265671300000000000000009999123100000010000000000000BRAURABDR001102
012020091702AVGO34      010BROADCOM INCDRN          R$  000000003832700000000384360000000038324000000003832500000000383240000000000000000000000000000003000000000000000620000000000023762030000000000000009999123100000010000000000000BRAVGOBDR003105
012020091702AXPB34      010AMERICAN EXPDRN          R$  000000005474000000000547400000000054740000000005474000000000547400000000047700000000000000000001000000000000000010000000000000547400000000000000009999123100000010000000000000BRAXPBBDR007133
012020091702AZEV4       010AZEVEDO     PN           R$  000000000036000000000003600000000000332000000000034700000000003500000000000349000000000035000035000000000000005500000000000001912100000000000000009999123100000010000000000000BRAZEVACNPR7117
012020091702AZUL4       010AZUL        PN      N2   R$  000000000287700000000029500000000002839000000000290500000000028910000000002890000000000289128445000000000012942000000000037604294100000000000000009999123100000010000000000000BRAZULACNPR4100
012020091702B1SX34      010BOSTON SCIENDRN          R$  000000002065800000000206780000000020641000000002065400000000206410000000000000000000000000000003000000000000000040000000000000826180000000000000009999123100000010000000000000BRB1SXBDR006100
012020091702B3SA3       010B3          ON      NM   R$  000000000563000000000056890000000005585000000000563700000000056680000000005667000000000566833320000000000008491000000000047871761800000000000000009999123100000010000000000000BRB3SAACNOR6111
012020091702BABA34      010ALIBABAGR   DRN          R$  000000014327300000001469700000000143273000000014429100000001469700000000143600000000014700000013000000000000000250000000000036072890000000000000009999123100000010000000000000BRBABABDR005100
012020091702BAHI3       010BAHEMA      ON      MA   R$  000000001169900000000117440000000011518000000001164200000000117390000000011500000000001174000007000000000000000800000000000009314000000000000000009999123100000010000000000000BRBAHIACNOR1071
012020091702BALM3       010BAUMER      ON           R$  000000000161000000000016610000000001552000000000158400000000015520000000001530000000000159900006000000000000000700000000000001109300000000000000009999123100000010000000000000BRBALMACNOR5050
012020091702BALM4       010BAUMER      PN           R$  000000000129800000000014000000000001298000000000134600000000013990000000001320000000000139900050000000000000012300000000000016556700000000000000009999123100000010000000000000BRBALMACNPR2051
012020091702BAZA3       010AMAZONIA    ON           R$  000000000390000000000039000000000003880000000000389000000000038800000000003865000000000390000004000000000000000400000000000001556000000000000000009999123100000010000000000000BRBAZAACNOR0174
012020091702BBAS3       010BRASIL      ON  EJ  NM   R$  000000000318100000000032290000000003170000000000320400000000032150000000003214000000000321523659000000000010209500000000032721076400000000000000009999123100000010000000000000BRBBASACNOR3293
012020091702BBDC3       010BRADESCO    ON      N1   R$  000000000188000000000019110000000001876000000000189400000000019110000000001907000000000191109433000000000003175300000000006016484600000000000000009999123100000010000000000000BRBBDCACNOR1715
012020091702BBDC4       010BRADESCO    PN      N1   R$  000000000202700000000020670000000002024000000000204700000000020570000000002056000000000205732132000000000025503400000000052208435300000000000000009999123100000010000000000000BRBBDCACNPR8715
012020091702BBRK3       010BR BROKERS  ON      NM   R$  000000000016500000000001690000000000165000000000016600000000001660000000000166000000000016700278000000000000243700000000000040582300000000000000009999123100000010000000000000BRBBRKACNOR4113
012020091702BBSE3       010BBSEGURIDADEON      NM   R$  000000000260500000000026390000000002595000000000261200000000026100000000002610000000000261124028000000000003639300000000009509291900000000000000009999123100000010000000000000BRBBSEACNOR5117
012020091702BCSA34      010SANTANDER   DRN          R$  000000000110600000000011060000000001090000000000109900000000010930000000001095000000000110900035000000000000005150000000000005662520000000000000009999123100000010000000000000BRBCSABDR005101
012020091702BEEF3       010MINERVA     ON      NM   R$  000000000132200000000013440000000001295000000000131600000000013160000000001316000000000131722172000000000010706800000000014097610000000000000000009999123100000010000000000000BRBEEFACNOR6108
012020091702BEES3       010BANESTES    ON           R$  000000000051400000000005170000000000511000000000051300000000005110000000000512000000000051300071000000000000025400000000000013052500000000000000009999123100000010000000000000BRBEESACNOR9339
012020091702BEES4       010BANESTES    PN           R$  000000000054700000000005480000000000542000000000054200000000005430000000000543000000000054700012000000000000003100000000000001682300000000000000009999123100000010000000000000BRBEESACNPR6264
012020091702BERK34      010BERKSHIRE   DRN          R$  000000011513200000001152500000000113715000000011445000000001139810000000115370000000011840000022000000000000004980000000000569961390000000000000009999123100000010000000000000BRBERKBDR002100
012020091702BGIP3       010BANESE      ON           R$  000000000443400000000044340000000004434000000000443400000000044340000000002701000000000480000001000000000000000100000000000000443400000000000000009999123100000010000000000000BRBGIPACNOR1199
012020091702BGIP4       010BANESE      PN           R$  000000000251600000000025160000000002500000000000250900000000025000000000002500000000000251100013000000000000002200000000000005520600000000000000009999123100000010000000000000BRBGIPACNPR8199
012020091702BIDI3       010BANCO INTER ON      N2   R$  000000000187500000000018750000000001806000000000183500000000018450000000001827000000000184501354000000000000248900000000000456777900000000000000009999123100000010000000000000BRBIDIACNOR3107
012020091702BIDI4       010BANCO INTER PN      N2   R$  000000000200000000000020200000000001947000000000197800000000019630000000001963000000000196807655000000000001994400000000003945064200000000000000009999123100000010000000000000BRBIDIACNPR0111
012020091702BIDI11      010BANCO INTER UNT     N2   R$  000000000586000000000059150000000005708000000000579700000000058210000000005803000000000582103627000000000000517600000000003000748600000000000000009999123100000010000000000000BRBIDICDAXX3106
012020091702BIOM3       010BIOMM       ON      MA   R$  000000000167200000000016780000000001658000000000166900000000016780000000001620000000000167800014000000000000001800000000000003005800000000000000009999123100000010000000000000BRBIOMACNOR2107
012020091702BKBR3       010BK BRASIL   ON      NM   R$  000000000112500000000011430000000001108000000000112700000000011370000000001137000000000113902897000000000001386700000000001563939200000000000000009999123100000010000000000000BRBKBRACNOR4103
012020091702BKNG34      010BOOKING     DRN          R$  000000003725000000000377900000000037235000000003741600000000374070000000036900000000005000000010000000000000001540000000000057622100000000000000009999123100000010000000000000BRBKNGBDR006100
012020091702BLAK34      010BLACKROCK   DRN          R$  000000004793900000000479390000000047939000000004793900000000479390000000000000000000000000000001000000000000000010000000000000479390000000000000009999123100000010000000000000BRBLAKBDR003118
012020091702BMEB3       010MERC BRASIL ON           R$  000000000169600000000018390000000001696000000000175400000000018390000000001838000000000185000013000000000000001500000000000002631700000000000000009999123100000010000000000000BRBMEBACNOR8196
012020091702BMEB4       010MERC BRASIL PN           R$  000000000156800000000016090000000001568000000000159300000000016080000000001587000000000160800050000000000000016500000000000026299700000000000000009999123100000010000000000000BRBMEBACNPR5201
012020091702BMGB4       010BANCO BMG   PN      N1   R$  000000000051000000000005150000000000506000000000050900000000005080000000000508000000000050902467000000000000885600000000000451637800000000000000009999123100000010000000000000BRBMGBACNPR0101
012020091702BMIN3       010MERC INVEST ON           R$  000000000215000000000021500000000002150000000000215000000000021500000000002002000000000230000001000000000000000200000000000000430000000000000000009999123100000010000000000000BRBMINACNOR4168
012020091702BMIN4       010MERC INVEST PN           R$  000000000190200000000019020000000001902000000000190200000000019020000000001899000000000207500001000000000000000100000000000000190200000000000000009999123100000010000000000000BRBMINACNPR1171
012020091702BMYB34      010BRISTOLMYERSDRN          R$  000000003098900000000309890000000030958000000003097300000000309580000000028400000000000000000002000000000000000020000000000000619470000000000000009999123100000010000000000000BRBMYBBDR000127
012020091702BNBR3       010NORD BRASIL ON           R$  000000000770200000000077020000000007702000000000770200000000077020000000007500000000000780000001000000000000000100000000000000770200000000000000009999123100000010000000000000BRBNBRACNOR8200
012020091702BOAC34      010BANK AMERICADRN          R$  000000001322600000000132870000000013226000000001324600000000132870000000012100000000001328700004000000000000001120000000000014836500000000000000009999123100000010000000000000BRBOACBDR004140
012020091702BOBR4       010BOMBRIL     PN           R$  000000000020000000000002000000000000196000000000019700000000001980000000000198000000000019900053000000000000024800000000000004909600000000000000009999123100000010000000000000BRBOBRACNPR3128
012020091702BOEI34      010BOEING      DRN          R$  000000008570000000000872990000000085700000000008645400000000867400000000000000000000010000000004000000000000000140000000000012103590000000000000009999123100000010000000000000BRBOEIBDR003132
012020091702BOXP34      010BOSTON PROP DRN          R$  000000000460000000000046000000000004600000000000460000000000046000000000004450000000000592000001000000000000000500000000000002300000000000000000009999123100000010000000000000BRBOXPBDR008120
012020091702BPAC3       010BTGP BANCO  ON      N2   R$  000000000437900000000043800000000004231000000000433600000000042730000000004272000000000441000069000000000000007300000000000031659700000000000000009999123100000010000000000000BRBPACACNOR7122
012020091702BPAC5       010BTGP BANCO  PNA     N2   R$  000000000181000000000018290000000001770000000000179700000000018290000000001810000000000183900055000000000000010100000000000018156100000000000000009999123100000010000000000000BRBPACACNPA0122
012020091702BPAC11      010BTGP BANCO  UNT     N2   R$  000000000791500000000080170000000007868000000000795700000000079720000000007969000000000797509332000000000001828100000000014547197200000000000000009999123100000010000000000000BRBPACUNT006107
012020091702BPAN4       010BANCO PAN   PN      N1   R$  000000000084900000000008770000000000838000000000085400000000008710000000000871000000000087211318000000000003414900000000002919116300000000000000009999123100000010000000000000BRBPANACNPR1109
012020091702BRAP3       010BRADESPAR   ON      N1   R$  000000000391800000000040540000000003906000000000400000000000040540000000003915000000000407000182000000000000046600000000000186430000000000000000009999123100000010000000000000BRBRAPACNOR5136
012020091702BRAP4       010BRADESPAR   PN      N1   R$  000000000441700000000045780000000004400000000000452800000000045690000000004569000000000457009196000000000001796600000000008136199800000000000000009999123100000010000000000000BRBRAPACNPR2136
012020091702BRDT3       010PETROBRAS BRON      NM   R$  000000000217500000000022170000000002156000000000219700000000022170000000002216000000000221710378000000000003095600000000006802699900000000000000009999123100000010000000000000BRBRDTACNOR1120
012020091702BRFS3       010BRF SA      ON      NM   R$  000000000210700000000021880000000002092000000000214200000000021360000000002136000000000213831117000000000021810000000000046727620200000000000000009999123100000010000000000000BRBRFSACNOR8119
012020091702BRGE3       010ALFA CONSORCON           R$  000000000104000000000010400000000001037000000000103800000000010370000000000946000000000103500002000000000000000500000000000000519100000000000000009999123100000010000000000000BRBRGEACNOR6202
012020091702BRGE12      010ALFA CONSORCPNF          R$  000000000063900000000006390000000000610000000000062800000000006310000000000613000000000063100014000000000000002300000000000001445500000000000000009999123100000010000000000000BRBRGEACNPF8096
012020091702BRIV4       010ALFA INVEST PN           R$  000000000082600000000008700000000000826000000000086100000000008700000000000844000000000086900023000000000000007700000000000006635700000000000000009999123100000010000000000000BRBRIVACNPR3211
012020091702BRKM3       010BRASKEM     ON      N1   R$  000000000223000000000022810000000002210000000000223900000000022520000000002251000000000225700058000000000000018000000000000040316200000000000000009999123100000010000000000000BRBRKMACNOR1117
012020091702BRKM5       010BRASKEM     PNA     N1   R$  000000000216900000000022810000000002132000000000222800000000022620000000002262000000000226512661000000000003126000000000006966705700000000000000009999123100000010000000000000BRBRKMACNPA4117
012020091702BRML3       010BR MALLS PARON      NM   R$  000000000098300000000009920000000000968000000000097800000000009790000000000979000000000098122910000000000017452700000000017071292700000000000000009999123100000010000000000000BRBRMLACNOR9115
012020091702BRPR3       010BR PROPERT  ON      NM   R$  000000000097600000000009840000000000966000000000097200000000009720000000000972000000000097906658000000000001988300000000001933193400000000000000009999123100000010000000000000BRBRPRACNOR9119
012020091702BRSR3       010BANRISUL    ON      N1   R$  000000000147500000000014750000000001440000000000146400000000014520000000001452000000000146000044000000000000006600000000000009664000000000000000009999123100000010000000000000BRBRSRACNOR3168
012020091702BRSR6       010BANRISUL    PNB     N1   R$  000000000125300000000012650000000001244000000000125700000000012590000000001259000000000126007606000000000001770900000000002226833200000000000000009999123100000010000000000000BRBRSRACNPB4171
012020091702BSEV3       010BIOSEV      ON      NM   R$  000000000050600000000005090000000000483000000000049600000000004990000000000496000000000050500401000000000000166000000000000082356900000000000000009999123100000010000000000000BRBSEVACNOR3102
012020091702BTOW3       010B2W DIGITAL ON      NM   R$  000000000973900000000097920000000009527000000000965600000000097310000000009728000000000973117168000000000002773000000000026776671600000000000000009999123100000010000000000000BRBTOWACNOR8111
012020091702BTTL3       010BATTISTELLA ON           R$  000000000115000000000012500000000001150000000000118800000000012200000000001200000000000122000049000000000000008300000000000009868000000000000000009999123100000010000000000000BRBTTLACNOR0108
012020091702C1BL34      010CHUBB LTD   DRN ED       R$  000000001538000000000154400000000015380000000001540100000000153800000000000000000000000000000004000000000000000350000000000005390400000000000000009999123100000010000000000000BRC1BLBDR006103
012020091702C1BS34      010VIACOMCBS   DRN ED       R$  000000001587600000000158760000000015876000000001587600000000158760000000000000000000000000000001000000000000000020000000000000317520000000000000009999123100000010000000000000BRC1BSBDR001104
012020091702C1CL34      010CARNIVAL CORDRN          R$  000000000849000000000084900000000008490000000000849000000000084900000000000000000000001300000001000000000000000250000000000002122500000000000000009999123100000010000000000000BRC1CLBDR004101
012020091702C1HR34      010CH ROBINSON DRN          R$  000000002740300000000274030000000027403000000002740300000000274030000000000000000000000000000001000000000000000030000000000000822090000000000000009999123100000010000000000000BRC1HRBDR000103
012020091702CAMB3       010CAMBUCI     ON           R$  000000000041100000000004190000000000411000000000041500000000004150000000000415000000000041900026000000000000025300000000000010515800000000000000009999123100000010000000000000BRCAMBACNOR4119
012020091702CAML3       010CAMIL       ON      NM   R$  000000000138000000000013890000000001360000000000137400000000013760000000001376000000000137807560000000000001995300000000002741915900000000000000009999123100000010000000000000BRCAMLACNOR3111
012020091702CARD3       010CSU CARDSYSTON      NM   R$  000000000146300000000014670000000001420000000000144000000000014560000000001450000000000145601144000000000000304700000000000438776700000000000000009999123100000010000000000000BRCARDACNOR9118
012020091702CATP34      010CATERPILLAR DRN          R$  000000008159900000000815990000000081599000000008159900000000815990000000000000000000000000000001000000000000000010000000000000815990000000000000009999123100000010000000000000BRCATPBDR003136
012020091702CCPR3       010CYRE COM-CCPON      NM   R$  000000000145000000000014920000000001420000000000144500000000014200000000001420000000000143402217000000000000357700000000000517009700000000000000009999123100000010000000000000BRCCPRACNOR9114
012020091702CCRO3       010CCR SA      ON      NM   R$  000000000140300000000014270000000001380000000000140800000000014190000000001417000000000141916410000000000005050700000000007112987000000000000000009999123100000010000000000000BRCCROACNOR2137
012020091702CEAB3       010CEA MODAS   ON      NM   R$  000000000130000000000013240000000001263000000000130000000000013220000000001321000000000132207160000000000002040800000000002653104900000000000000009999123100000010000000000000BRCEABACNOR1101
012020091702CEDO3       010CEDRO       ON      N1   R$  000000000096200000000009620000000000960000000000096000000000009600000000000952000000000099800003000000000000001100000000000001057000000000000000009999123100000010000000000000BRCEDOACNOR8096
012020091702CEDO4       010CEDRO       PN      N1   R$  000000000055000000000005890000000000550000000000056600000000005700000000000570000000000059300010000000000000002400000000000001359400000000000000009999123100000010000000000000BRCEDOACNPR5128
012020091702CEEB3       010COELBA      ON           R$  000000000414000000000041440000000003960000000000406200000000041300000000003975000000000413500016000000000000001600000000000006499600000000000000009999123100000010000000000000BRCEEBACNOR3179
012020091702CESP3       010CESP        ON      N1   R$  000000000320000000000032080000000003200000000000320600000000032080000000003100000000000322500004000000000000000400000000000001282400000000000000009999123100000010000000000000BRCESPACNOR3169
012020091702CESP6       010CESP        PNB     N1   R$  000000000288400000000029100000000002828000000000285900000000028610000000002861000000000286310213000000000002595200000000007420137100000000000000009999123100000010000000000000BRCESPACNPB4128
012020091702CGAS5       010COMGAS      PNA          R$  000000001849600000000186000000000018257000000001844800000000182570000000017850000000001860000018000000000000002200000000000040586200000000000000009999123100000010000000000000BRCGASACNPA3148
012020091702CGRA3       010GRAZZIOTIN  ON           R$  000000000263800000000026900000000002608000000000264600000000026310000000002608000000000266900009000000000000000900000000000002382100000000000000009999123100000010000000000000BRCGRAACNOR2071
012020091702CGRA4       010GRAZZIOTIN  PN           R$  000000000262200000000026320000000002600000000000261300000000026000000000002600000000000261200094000000000000020100000000000052523200000000000000009999123100000010000000000000BRCGRAACNPR9071
012020091702CHME34      010CME GROUP   DRN ED       R$  000000002244500000000224450000000022250000000002229800000000222500000000000000000000000000000003000000000000000220000000000004905690000000000000009999123100000010000000000000BRCHMEBDR007106
012020091702CHVX34      010CHEVRON     DRN          R$  000000002052300000000205230000000020523000000002052300000000205230000000019880000000002052300001000000000000000060000000000001231380000000000000009999123100000010000000000000BRCHVXBDR008138
012020091702CIEL3       010CIELO       ON      NM   R$  000000000045400000000004570000000000447000000000045200000000004560000000000455000000000045617307000000000033971300000000015374483700000000000000009999123100000010000000000000BRCIELACNOR3142
012020091702CLSC4       010CELESC      PN      N2   R$  000000000540000000000054050000000005400000000000540300000000054000000000005390000000000540500009000000000000013300000000000071869500000000000000009999123100000010000000000000BRCLSCACNPR3115
012020091702CMCS34      010COMCAST     DRN          R$  000000002378800000000238890000000023760000000002377700000000238890000000022000000000002388900005000000000000005780000000000137436490000000000000009999123100000010000000000000BRCMCSBDR008135
012020091702CMIG3       010CEMIG       ON      N1   R$  000000000115500000000011720000000001141000000000115800000000011510000000001151000000000115904736000000000001284600000000001487957300000000000000009999123100000010000000000000BRCMIGACNOR6224
012020091702CMIG4       010CEMIG       PN      N1   R$  000000000107000000000010920000000001060000000000108300000000010920000000001092000000000109315974000000000006970300000000007549609700000000000000009999123100000010000000000000BRCMIGACNPR3225
012020091702CNTO3       010CENTAURO    ON      NM   R$  000000000283000000000028650000000002783000000000282100000000028440000000002844000000000284805605000000000001158600000000003268814200000000000000009999123100000010000000000000BRCNTOACNOR5100
012020091702COCA34      010COCA COLA   DRN ED       R$  000000002650000000000265000000000026399000000002643900000000264290000000026200000000002720000004000000000000000040000000000001057570000000000000009999123100000010000000000000BRCOCABDR002136
012020091702COCE5       010COELCE      PNA          R$  000000000585000000000058730000000005830000000000585100000000058730000000005873000000000588000044000000000000005400000000000031595600000000000000009999123100000010000000000000BRCOCEACNPA3140
012020091702COGN3       010COGNA ON    ON      NM   R$  000000000057500000000005870000000000565000000000057700000000005770000000000577000000000057829091000000000051672800000000029844133600000000000000009999123100000010000000000000BRCOGNACNOR2101
012020091702COLG34      010COLGATE     DRN          R$  000000004028700000000402870000000040287000000004028700000000402870000000000000000000000000000001000000000000000010000000000000402870000000000000009999123100000010000000000000BRCOLGBDR000137
012020091702COTY34      010COTY INC    DRN          R$  000000000084000000000008400000000000840000000000084000000000008400000000000825000000000096000001000000000000000300000000000000252000000000000000009999123100000010000000000000BRCOTYBDR006116
012020091702COWC34      010COSTCO      DRN          R$  000000004500000000000450000000000044360000000004442900000000443820000000044000000000004510000004000000000000001530000000000067977400000000000000009999123100000010000000000000BRCOWCBDR006119
012020091702CPFE3       010CPFL ENERGIAON      NM   R$  000000000296500000000030190000000002938000000000299200000000030010000000003001000000000300511143000000000002862500000000008567274000000000000000009999123100000010000000000000BRCPFEACNOR0130
012020091702CPLE3       010COPEL       ON      N1   R$  000000000632600000000064310000000006296000000000637000000000063940000000006366000000000639402365000000000000449400000000002862762600000000000000009999123100000010000000000000BRCPLEACNOR8139
012020091702CPLE6       010COPEL       PNB     N1   R$  000000000660200000000066800000000006548000000000659700000000065750000000006570000000000658206372000000000000996800000000006576212900000000000000009999123100000010000000000000BRCPLEACNPB9136
012020091702CRFB3       010CARREFOUR BRON      NM   R$  000000000208800000000021530000000002080000000000212700000000021480000000002146000000000214812174000000000005051400000000010744344600000000000000009999123100000010000000000000BRCRFBACNOR2107
012020091702CRIV3       010ALFA FINANC ON           R$  000000000060000000000007190000000000600000000000064400000000007040000000000601000000000070500061000000000000068600000000000044185500000000000000009999123100000010000000000000BRCRIVACNOR4194
012020091702CRIV4       010ALFA FINANC PN           R$  000000000063900000000006390000000000638000000000063800000000006380000000000610000000000063700004000000000000000600000000000000383100000000000000009999123100000010000000000000BRCRIVACNPR1204
012020091702CRPG5       010CRISTAL     PNA          R$  000000000202100000000020530000000001982000000000202600000000020400000000002040000000000204500027000000000000004200000000000008513000000000000000009999123100000010000000000000BRCRPGACNPA3108
012020091702CRPG6       010CRISTAL     PNB          R$  000000000201900000000020300000000001985000000000200400000000019850000000001950000000000198500004000000000000000400000000000000801900000000000000009999123100000010000000000000BRCRPGACNPB1108
012020091702CSAN3       010COSAN       ON      NM   R$  000000000749100000000075950000000007421000000000749800000000075610000000007559000000000756107408000000000000991000000000007430832200000000000000009999123100000010000000000000BRCSANACNOR6120
012020091702CSCO34      010CISCO       DRN          R$  000000002112700000000211370000000021098000000002111800000000211280000000000000000000000000000005000000000000000050000000000001055920000000000000009999123100000010000000000000BRCSCOBDR004138
012020091702CSMG3       010COPASA      ON      NM   R$  000000000486500000000049750000000004823000000000494300000000049550000000004950000000000495503618000000000000649400000000003210377400000000000000009999123100000010000000000000BRCSMGACNOR5156
012020091702CSNA3       010SID NACIONALON           R$  000000000160700000000016770000000001605000000000165300000000016730000000001672000000000167317781000000000008997900000000014873809100000000000000009999123100000010000000000000BRCSNAACNOR6252
012020091702CSRN6       010COSERN      PNB          R$  000000000180400000000018040000000001731000000000176700000000017310000000001725000000000180300002000000000000000200000000000000353500000000000000009999123100000010000000000000BRCSRNACNPB1173
012020091702CTGP34      010CITIGROUP   DRN          R$  000000002406500000000240650000000023819000000002402100000000238620000000020466000000002386200009000000000000001440000000000034590280000000000000009999123100000010000000000000BRCTGPBDR000139
012020091702CTKA4       010KARSTEN     PN           R$  000000000115100000000012200000000001151000000000118200000000012180000000001155000000000119900006000000000000002500000000000002956900000000000000009999123100000010000000000000BRCTKAACNPR7043
012020091702CTNM4       010COTEMINAS   PN           R$  000000000056700000000005720000000000557000000000056400000000005570000000000557000000000056000042000000000000014200000000000008022100000000000000009999123100000010000000000000BRCTNMACNPR6129
012020091702CTSA3       010SANTANENSE  ON           R$  000000000025500000000002550000000000245000000000025000000000002540000000000254000000000025500037000000000000013900000000000003487200000000000000009999123100000010000000000000BRCTSAACNOR3060
012020091702CTSA4       010SANTANENSE  PN           R$  000000000022500000000002250000000000221000000000022200000000002220000000000221000000000022300013000000000000009200000000000002042500000000000000009999123100000010000000000000BRCTSAACNPR0060
012020091702CVCB3       010CVC BRASIL  ON      NM   R$  000000000180000000000018410000000001770000000000179100000000017800000000001779000000000178014909000000000005805200000000010397412700000000000000009999123100000010000000000000BRCVCBACNOR1113
012020091702CVSH34      010CVS HEALTH  DRN          R$  000000001531300000000153800000000015313000000001532800000000153800000000000000000000001690000004000000000000001170000000000017933900000000000000009999123100000010000000000000BRCVSHBDR008117
012020091702CYRE3       010CYRELA REALTON      NM   R$  000000000236900000000023960000000002323000000000236000000000023630000000002363000000000236622650000000000008926000000000021069055700000000000000009999123100000010000000000000BRCYREACNOR7134
012020091702DEAI34      010DELTA       DRN          R$  000000001810000000000181000000000018100000000001810000000000181000000000011500000000002300000001000000000000000030000000000000543000000000000000009999123100000010000000000000BRDEAIBDR008116
012020091702DEEC34      010DEERE CO    DRN          R$  000000005762600000000576260000000057626000000005762600000000576260000000000000000000005830000001000000000000000010000000000000576260000000000000009999123100000010000000000000BRDEECBDR003105
012020091702DGCO34      010DOLLAR GENERDRN          R$  000000005347600000000534760000000053476000000005347600000000534760000000000000000000000000000001000000000000000010000000000000534760000000000000009999123100000010000000000000BRDGCOBDR007105
012020091702DHER34      010DANAHER CORPDRN          R$  000000002699800000000269980000000026998000000002699800000000269980000000000000000000000000000001000000000000000010000000000000269980000000000000009999123100000010000000000000BRDHERBDR004121
012020091702DIRR3       010DIRECIONAL  ON      NM   R$  000000000146600000000014800000000001425000000000145500000000014620000000001462000000000146502655000000000000603000000000000877367400000000000000009999123100000010000000000000BRDIRRACNOR0112
012020091702DISB34      010WALT DISNEY DRN          R$  000000006816100000000693000000000067756000000006786800000000679000000000067000000000006950000019000000000000001570000000000106553280000000000000009999123100000010000000000000BRDISBBDR006114
012020091702DMMO3       010DOMMO       ON           R$  000000000012000000000001200000000000118000000000011800000000001180000000000118000000000011901062000000000002256800000000000268340600000000000000009999123100000010000000000000BRDMMOACNOR0102
012020091702DMVF3       010D1000VFARMA ON      NM   R$  000000000107900000000010890000000001037000000000106500000000010650000000001062000000000106500795000000000000290300000000000309259000000000000000009999123100000010000000000000BRDMVFACNOR9100
012020091702DOHL3       010DOHLER      ON           R$  000000000155000000000015500000000001550000000000155000000000015500000000001200000000000155000001000000000000000100000000000000155000000000000000009999123100000010000000000000BRDOHLACNOR2058
012020091702DOHL4       010DOHLER      PN           R$  000000000051100000000005110000000000496000000000050300000000004960000000000495000000000050000009000000000000001900000000000000956300000000000000009999123100000010000000000000BRDOHLACNPR9061
012020091702DTEX3       010DURATEX     ON      NM   R$  000000000177100000000017790000000001741000000000176200000000017410000000001740000000000174906818000000000002360700000000004160898400000000000000009999123100000010000000000000BRDTEXACNOR3128
012020091702DUKB34      010DUKE ENERGY DRN          R$  000000004424300000000443370000000044243000000004431300000000443370000000042000000000000000000002000000000000000040000000000001772540000000000000009999123100000010000000000000BRDUKBBDR008116
012020091702E1CL34      010ECOLAB INC  DRN ED       R$  000000002723900000000272390000000027239000000002723900000000272390000000000000000000000000000001000000000000000010000000000000272390000000000000009999123100000010000000000000BRE1CLBDR002103
012020091702EAIN34      010ELECTR ARTS DRN          R$  000000003269900000000326990000000032650000000003268200000000326500000000032000000000003650000003000000000000000030000000000000980480000000000000009999123100000010000000000000BREAINBDR007100
012020091702EALT3       010ACO ALTONA  ON           R$  000000000120200000000012020000000001191000000000119900000000011910000000001191000000000121900004000000000000000500000000000000599500000000000000009999123100000010000000000000BREALTACNOR4133
012020091702EALT4       010ACO ALTONA  PN           R$  000000000051100000000005150000000000507000000000050900000000005090000000000509000000000051700045000000000000020500000000000010444500000000000000009999123100000010000000000000BREALTACNPR1133
012020091702ECOR3       010ECORODOVIAS ON      NM   R$  000000000129500000000013190000000001276000000000130400000000013150000000001314000000000131508828000000000002624500000000003423427000000000000000009999123100000010000000000000BRECORACNOR8116
012020091702EGIE3       010ENGIE BRASILON      NM   R$  000000000426000000000043130000000004223000000000426900000000042850000000004285000000000429005884000000000000866700000000003699955000000000000000009999123100000010000000000000BREGIEACNOR9113
012020091702EKTR4       010ELEKTRO     PN           R$  000000000195100000000019510000000001951000000000195100000000019510000000001950000000000217800002000000000000000200000000000000390200000000000000009999123100000010000000000000BREKTRACNPR7144
012020091702ELCI34      010ESTEE LAUDERDRN          R$  000000005680900000000568090000000056516000000005670200000000565160000000000000000000000000000003000000000000000080000000000004536160000000000000009999123100000010000000000000BRELCIBDR007104
012020091702ELET3       010ELETROBRAS  ON      N1   R$  000000000330400000000033480000000003271000000000331200000000033300000000003329000000000333013614000000000002895000000000009589249300000000000000009999123100000010000000000000BRELETACNOR6155
012020091702ELET5       010ELETROBRAS  PNA     N1   R$  000000000424200000000042420000000004242000000000424200000000042420000000003001000000000460000001000000000000000100000000000000424200000000000000009999123100000010000000000000BRELETACNPA9072
012020091702ELET6       010ELETROBRAS  PNB     N1   R$  000000000339800000000034450000000003371000000000341800000000034430000000003443000000000344508205000000000001444300000000004936919900000000000000009999123100000010000000000000BRELETACNPB7072
012020091702EMAE4       010EMAE        PN           R$  000000000336000000000034120000000003307000000000335400000000033500000000003350000000000344000013000000000000001700000000000005702700000000000000009999123100000010000000000000BREMAEACNPR1114
012020091702EMBR3       010EMBRAER     ON      NM   R$  000000000068500000000007020000000000676000000000068900000000006970000000000696000000000069710865000000000008295500000000005718060100000000000000009999123100000010000000000000BREMBRACNOR4189
012020091702ENAT3       010ENAUTA PART ON      NM   R$  000000000106900000000010950000000001064000000000108100000000010720000000001072000000000107304206000000000001224500000000001324282000000000000000009999123100000010000000000000BRENATACNOR0101
012020091702ENBR3       010ENERGIAS BR ON      NM   R$  000000000184900000000018640000000001840000000000185200000000018550000000001855000000000185609022000000000002021500000000003744508300000000000000009999123100000010000000000000BRENBRACNOR2129
012020091702ENEV3       010ENEVA       ON      NM   R$  000000000474000000000050540000000004718000000000495800000000049850000000004985000000000498712699000000000001937700000000009608313700000000000000009999123100000010000000000000BRENEVACNOR8104
012020091702ENGI3       010ENERGISA    ON      N2   R$  000000000136800000000013690000000001320000000000133300000000013230000000001320000000000132800049000000000000005400000000000007200900000000000000009999123100000010000000000000BRENGIACNOR0138
012020091702ENGI4       010ENERGISA    PN      N2   R$  000000000078400000000008090000000000776000000000078900000000008090000000000786000000000080900062000000000000011500000000000009082600000000000000009999123100000010000000000000BRENGIACNPR7134
012020091702ENGI11      010ENERGISA    UNT     N2   R$  000000000451300000000045210000000004448000000000448100000000044730000000004473000000000447907592000000000001189100000000005329310400000000000000009999123100000010000000000000BRENGICDAM16128
012020091702ENMT3       010ENERGISA MT ON           R$  000000000299000000000029900000000002900000000000296400000000029900000000002600000000000298000011000000000000001100000000000003260800000000000000009999123100000010000000000000BRENMTACNOR5111
012020091702ENMT4       010ENERGISA MT PN           R$  000000000299000000000029900000000002700000000000292400000000029900000000002705000000000298900010000000000000001000000000000002924900000000000000009999123100000010000000000000BRENMTACNPR2114
012020091702EQIX34      010EQUINIX INC DRN          R$  000000007851000000000785100000000078510000000007851000000000785100000000000000000000000000000001000000000000000010000000000000785100000000000000009999123100000010000000000000BREQIXBDR002106
012020091702EQPA3       010EQTL PARA   ON           R$  000000000033400000000003350000000000323000000000032700000000003240000000000324000000000032900049000000000000013700000000000004487000000000000000009999123100000010000000000000BREQPAACNOR1101
012020091702EQPA5       010EQTL PARA   PNA          R$  000000000060800000000006080000000000608000000000060800000000006080000000000468000000000060800001000000000000000100000000000000060800000000000000009999123100000010000000000000BREQPAACNPA4101
012020091702EQTL3       010EQUATORIAL  ON      NM   R$  000000000227400000000023410000000002272000000000231500000000023330000000002332000000000233314487000000000005095700000000011800540600000000000000009999123100000010000000000000BREQTLACNOR0126
012020091702ESTR4       010ESTRELA     PN           R$  000000000299000000000029900000000002990000000000299000000000029900000000002860000000000299000001000000000000000100000000000000299000000000000000009999123100000010000000000000BRESTRACNPR0143
012020091702EUCA3       010EUCATEX     ON      N1   R$  000000000228200000000022990000000002280000000000228300000000022800000000002280000000000230000007000000000000000800000000000001826500000000000000009999123100000010000000000000BREUCAACNOR1151
012020091702EUCA4       010EUCATEX     PN      N1   R$  000000000069200000000007020000000000688000000000069600000000007000000000000695000000000070000163000000000000045000000000000031335000000000000000009999123100000010000000000000BREUCAACNPR8038
012020091702EVEN3       010EVEN        ON      NM   R$  000000000123000000000012400000000001195000000000121700000000012050000000001205000000000121506806000000000001822100000000002218225700000000000000009999123100000010000000000000BREVENACNOR8112
012020091702EXXO34      010EXXON MOBIL DRN          R$  000000000499300000000049930000000004910000000000497800000000049260000000004890000000000492600004000000000000001250000000000006222900000000000000009999123100000010000000000000BREXXOBDR006140
012020091702EZTC3       010EZTEC       ON      NM   R$  000000000397800000000040440000000003838000000000391700000000039350000000003928000000000393519392000000000004673500000000018308600900000000000000009999123100000010000000000000BREZTCACNOR0114
012020091702F1IS34      010FISERV INC  DRN          R$  000000002703000000000270300000000027030000000002703000000000270300000000000000000000000000000001000000000000000160000000000004324800000000000000009999123100000010000000000000BRF1ISBDR003100
012020091702F1NI34      010FIDELITY NATDRN ED       R$  000000001936900000000193690000000019359000000001936400000000193590000000000000000000000000000002000000000000000020000000000000387280000000000000009999123100000010000000000000BRF1NIBDR004103
012020091702FBOK34      010FACEBOOK    DRN          R$  000000006750000000000683830000000065868000000006642400000000661600000000067384000000006920000033000000000000007720000000000512795340000000000000009999123100000010000000000000BRFBOKBDR006100
012020091702FCXO34      010FREEPORT    DRN          R$  000000000890900000000089090000000008909000000000890900000000089090000000000000000000000000000002000000000000000180000000000001603620000000000000009999123100000010000000000000BRFCXOBDR007132
012020091702FDXB34      010FEDEX CORP  DRN          R$  000000012932900000001293290000000129329000000012932900000001293290000000000000000000000000000001000000000000000010000000000001293290000000000000009999123100000010000000000000BRFDXBBDR002128
012020091702FESA4       010FERBASA     PN  EJ  N1   R$  000000000182100000000018930000000001796000000000185500000000018930000000001880000000000189301213000000000000282700000000000524444900000000000000009999123100000010000000000000BRFESAACNPR5067
012020091702FLRY3       010FLEURY      ON      NM   R$  000000000296900000000029800000000002928000000000295300000000029520000000002952000000000295510431000000000001638500000000004838514400000000000000009999123100000010000000000000BRFLRYACNOR5127
012020091702FRAS3       010FRAS-LE     ON      N1   R$  000000000053200000000005490000000000532000000000054100000000005470000000000542000000000054700403000000000000064200000000000034783500000000000000009999123100000010000000000000BRFRASACNOR0149
012020091702FSLR34      010FIRST SOLAR DRN          R$  000000001755800000000175580000000016900000000001724300000000169160000000016800000000000000000004000000000000000480000000000008276820000000000000009999123100000010000000000000BRFSLRBDR001100
012020091702GDBR34      010GEN DYNAMICSDRN          R$  000000007571100000000757110000000075711000000007571100000000757110000000000000000000000000000001000000000000000010000000000000757110000000000000009999123100000010000000000000BRGDBRBDR002120
012020091702GEOO34      010GE          DRN          R$  000000000367500000000036980000000003675000000000368600000000036980000000002989000000000369800003000000000000001170000000000004313430000000000000009999123100000010000000000000BRGEOOBDR000140
012020091702GEPA4       010GER PARANAP PN           R$  000000000460100000000046990000000004601000000000463100000000046990000000004600000000000468800004000000000000000400000000000001852400000000000000009999123100000010000000000000BRGEPAACNPR9153
012020091702GFSA3       010GAFISA      ON      NM   R$  000000000045100000000004570000000000444000000000045000000000004500000000000450000000000045103797000000000004589500000000002067004000000000000000009999123100000010000000000000BRGFSAACNOR3119
012020091702GGBR3       010GERDAU      ON      N1   R$  000000000173400000000017980000000001726000000000177000000000017780000000001760000000000177900318000000000000106100000000000187895000000000000000009999123100000010000000000000BRGGBRACNOR1173
012020091702GGBR4       010GERDAU      PN      N1   R$  000000000208100000000021840000000002080000000000214200000000021440000000002144000000000214529543000000000014165500000000030347901900000000000000009999123100000010000000000000BRGGBRACNPR8173
012020091702GILD34      010GILEAD      DRN ED       R$  000000001688000000000168800000000016880000000001688000000000168800000000000000000000000000000001000000000000000030000000000000506400000000000000009999123100000010000000000000BRGILDBDR000118
012020091702GNDI3       010INTERMEDICA ON      NM   R$  000000000702500000000071190000000006903000000000698700000000069700000000006962000000000697117790000000000003323000000000023220963000000000000000009999123100000010000000000000BRGNDIACNOR2102
012020091702GOAU3       010GERDAU MET  ON      N1   R$  000000000082000000000008490000000000815000000000083700000000008380000000000838000000000084100235000000000000068800000000000057597300000000000000009999123100000010000000000000BRGOAUACNOR1250
012020091702GOAU4       010GERDAU MET  PN      N1   R$  000000000093000000000009650000000000924000000000095100000000009620000000000961000000000096215333000000000016485500000000015684782700000000000000009999123100000010000000000000BRGOAUACNPR8251
012020091702GOGL34      010ALPHABET    DRN A        R$  000000003172000000000317200000000030769000000003094800000000311580000000031158000000003146000095000000000000015370000000000475683730000000000000009999123100000010000000000000BRGOGLBDR001100
012020091702GOGL35      010ALPHABET    DRN C        R$  000000003178700000000317870000000031047000000003124800000000313250000000000000000000003132500005000000000000000080000000000002499910000000000000009999123100000010000000000000BRGOGLBDR019100
012020091702GOLL4       010GOL         PN      N2   R$  000000000212900000000021760000000002084000000000212200000000021110000000002111000000000211222800000000000010825400000000022978258100000000000000009999123100000010000000000000BRGOLLACNPR4125
012020091702GPAR3       010CELGPAR     ON           R$  000000000309300000000032000000000002850000000000304600000000029130000000002912000000000300000032000000000000005400000000000016449500000000000000009999123100000010000000000000BRGPARACNOR4104
012020091702GPIV33      010GP INVEST   DR3          R$  000000000047000000000004950000000000462000000000048800000000004950000000000490000000000049500101000000000000111300000000000054340800000000000000009999123100000010000000000000BRGPIVBDR003104
012020091702GRND3       010GRENDENE    ON      NM   R$  000000000078500000000007940000000000779000000000078600000000007880000000000787000000000078803569000000000001436400000000001129558500000000000000009999123100000010000000000000BRGRNDACNOR3158
012020091702GSGI34      010GOLDMANSACHSDRN          R$  000000001022100000000102210000000010221000000001022100000000102210000000000000000000000000000001000000000000000070000000000000715470000000000000009999123100000010000000000000BRGSGIBDR008140
012020091702GUAR3       010GUARARAPES  ON           R$  000000000171600000000017160000000001665000000000168300000000016870000000001687000000000168903423000000000000927900000000001562040000000000000000009999123100000010000000000000BRGUARACNOR4165
012020091702H1IG34      010HARTFORD FINDRN          R$  000000001971000000000197100000000019710000000001971000000000197100000000000000000000000000000002000000000000000220000000000004336200000000000000009999123100000010000000000000BRH1IGBDR006103
012020091702H1UM34      010HUMANA INC  DRN          R$  000000004133400000000413340000000041334000000004133400000000413340000000000000000000000000000001000000000000000010000000000000413340000000000000009999123100000010000000000000BRH1UMBDR009102
012020091702HAGA3       010HAGA S/A    ON           R$  000000000032500000000003360000000000323000000000032500000000003360000000000323000000000033600009000000000000001100000000000000358200000000000000009999123100000010000000000000BRHAGAACNOR7103
012020091702HAGA4       010HAGA S/A    PN           R$  000000000019700000000001970000000000193000000000019300000000001930000000000193000000000019400080000000000000066200000000000012833000000000000000009999123100000010000000000000BRHAGAACNPR4103
012020091702HAPV3       010HAPVIDA     ON  EJ  NM   R$  000000000655000000000065550000000006391000000000645400000000064060000000006406000000000640808492000000000001446400000000009336091600000000000000009999123100000010000000000000BRHAPVACNOR4106
012020091702HBOR3       010HELBOR      ON      NM   R$  000000000115300000000011620000000001133000000000114800000000011510000000001150000000000115101899000000000001145800000000001315966700000000000000009999123100000010000000000000BRHBORACNOR3114
012020091702HGTX3       010CIA HERING  ON      NM   R$  000000000184700000000018640000000001803000000000183500000000018490000000001848000000000184910305000000000002797900000000005134861800000000000000009999123100000010000000000000BRHGTXACNOR9151
012020091702HOME34      010HOME DEPOT  DRN          R$  000000007336700000000733670000000073095000000007309600000000730950000000000000000000000000000002000000000000002410000000000176161670000000000000009999123100000010000000000000BRHOMEBDR002134
012020091702HONB34      010HONEYWELL   DRN          R$  000000008948700000000894870000000089487000000008948700000000894870000000000000000000000000000001000000000000000010000000000000894870000000000000009999123100000010000000000000BRHONBBDR006127
012020091702HYPE3       010HYPERA      ON      NM   R$  000000000305300000000031700000000003036000000000312300000000031300000000003129000000000313022763000000000003656800000000011421406300000000000000009999123100000010000000000000BRHYPEACNOR0122
012020091702I1CE34      010INTERCONTINEDRN ED       R$  000000002622300000000262230000000026223000000002622300000000262230000000000000000000000000000001000000000000000010000000000000262230000000000000009999123100000010000000000000BRI1CEBDR003103
012020091702I1LM34      010ILLUMINA INCDRN          R$  000000003163800000000316380000000031638000000003163800000000316380000000000000000000000000000001000000000000000010000000000000316380000000000000009999123100000010000000000000BRI1LMBDR007100
012020091702I1SR34      010INTUITIVE SUDRN          R$  000000003559900000000355990000000035599000000003559900000000355990000000000000000000000000000001000000000000000010000000000000355990000000000000009999123100000010000000000000BRI1SRBDR001100
012020091702I1TW34      010ILLINOIS TOODRN          R$  000000002637400000000263740000000026324000000002634700000000263240000000026160000000000000000003000000000000000200000000000005269490000000000000009999123100000010000000000000BRI1TWBDR009102
012020091702IBMB34      010IBM         DRN          R$  000000006545400000000654540000000065454000000006545400000000654540000000060000000000000000000001000000000000000010000000000000654540000000000000009999123100000010000000000000BRIBMBBDR003135
012020091702IDVL3       010INDUSVAL    ON      N2   R$  000000000024800000000002560000000000248000000000025200000000002510000000000251000000000025300011000000000000002700000000000000682400000000000000009999123100000010000000000000BRIDVLACNOR5130
012020091702IDVL4       010INDUSVAL    PN      N2   R$  000000000026300000000002700000000000245000000000026000000000002580000000000256000000000025800129000000000000174600000000000045424200000000000000009999123100000010000000000000BRIDVLACNPR2130
012020091702IGTA3       010IGUATEMI    ON      NM   R$  000000000364300000000036590000000003576000000000362100000000036390000000003636000000000363908288000000000001404300000000005086166600000000000000009999123100000010000000000000BRIGTAACNOR5124
012020091702INTU34      010INTUIT INC  DRN          R$  000000003977900000000397790000000039779000000003977900000000397790000000000000000000000000000001000000000000000010000000000000397790000000000000009999123100000010000000000000BRINTUBDR003105
012020091702IRBR3       010IRBBRASIL REON      NM   R$  000000000058800000000006000000000000581000000000059100000000005910000000000591000000000059219398000000000018526100000000010956072300000000000000009999123100000010000000000000BRIRBRACNOR4108
012020091702ITLC34      010INTEL       DRN          R$  000000002625100000000263800000000026251000000002635600000000263800000000000000000000002638000003000000000000000060000000000001581400000000000000009999123100000010000000000000BRITLCBDR005139
012020091702ITSA3       010ITAUSA      ON      N1   R$  000000000105200000000010670000000001041000000000105600000000010640000000001057000000000106400441000000000000088100000000000093069400000000000000009999123100000010000000000000BRITSAACNOR0401
012020091702ITSA4       010ITAUSA      PN      N1   R$  000000000092000000000009330000000000915000000000092400000000009250000000000924000000000092527440000000000028859700000000026684233200000000000000009999123100000010000000000000BRITSAACNPR7401
012020091702ITUB3       010ITAUUNIBANCOON      N1   R$  000000000223000000000022530000000002216000000000223400000000022330000000002233000000000223901417000000000000263300000000000588215800000000000000009999123100000010000000000000BRITUBACNOR4273
012020091702ITUB4       010ITAUUNIBANCOPN      N1   R$  000000000235000000000023830000000002339000000000235900000000023690000000002369000000000237047951000000000025068700000000059142243300000000000000009999123100000010000000000000BRITUBACNPR1273
012020091702JBDU3       010J B DUARTE  ON           R$  000000000020600000000002060000000000200000000000020100000000002000000000000200000000000020400013000000000000003900000000000000785000000000000000009999123100000010000000000000BRJBDUACNOR6142
012020091702JBDU4       010J B DUARTE  PN           R$  000000000012300000000001240000000000121000000000012200000000001240000000000124000000000012500031000000000000008200000000000001007000000000000000009999123100000010000000000000BRJBDUACNPR3142
012020091702JBSS3       010JBS         ON      NM   R$  000000000232000000000023750000000002306000000000234400000000023290000000002329000000000233024756000000000013402500000000031420331200000000000000009999123100000010000000000000BRJBSSACNOR8115
012020091702JDCO34      010JD COM      DRN          R$  000000003861400000000387350000000038614000000003870100000000387350000000000000000000004700000002000000000000000360000000000013932500000000000000009999123100000010000000000000BRJDCOBDR001100
012020091702JHSF3       010JHSF PART   ON      NM   R$  000000000074500000000007700000000000731000000000075600000000007660000000000766000000000076709773000000000006544600000000004949185600000000000000009999123100000010000000000000BRJHSFACNOR2116
012020091702JNJB34      010JOHNSON     DRN          R$  000000007805000000000780500000000076891000000007691700000000770690000000000000000000007706900006000000000000002080000000000159988740000000000000009999123100000010000000000000BRJNJBBDR002135
012020091702JPMC34      010JPMORGAN    DRN          R$  000000002594900000000259490000000025620000000002577600000000257690000000025600000000002750000021000000000000001270000000000032736320000000000000009999123100000010000000000000BRJPMCBDR009134
012020091702JPSA3       010JEREISSATI  ON           R$  000000000237500000000023910000000002331000000000235000000000023350000000002335000000000234201129000000000000184600000000000433814000000000000000009999123100000010000000000000BRJPSAACNOR6103
012020091702JSLG11      010JSL         ON  P   NM   R$  000000000092500000000009460000000000913000000000092900000000009350000000000935000000000094000613000000000001084500000000001008478600000000000000009999123100000010000000000000BRJSLGA02OR1100
012020091702JSLG3       010JSL         ON      NM   R$  000000000305700000000030700000000003006000000000303400000000030400000000003038000000000304002298000000000000431100000000001308220500000000000000009999123100000010000000000000BRJSLGACNOR2114
012020091702KEPL3       010KEPLER WEBERON           R$  000000000428400000000042840000000004132000000000420200000000042500000000004250000000000426100567000000000000129800000000000545508200000000000000009999123100000010000000000000BRKEPLACNOR1049
012020091702KHCB34      010KRAFT HEINZ DRN          R$  000000001600000000000160000000000016000000000001600000000000160000000000015800000000001730000002000000000000000060000000000000960000000000000000009999123100000010000000000000BRKHCBBDR007121
012020091702KLBN3       010KLABIN S/A  ON      N2   R$  000000000052800000000005350000000000515000000000052400000000005350000000000535000000000053700747000000000000265800000000000139327100000000000000009999123100000010000000000000BRKLBNACNOR2156
012020091702KLBN4       010KLABIN S/A  PN      N2   R$  000000000049200000000005050000000000486000000000049500000000005030000000000500000000000050301647000000000001009900000000000500657500000000000000009999123100000010000000000000BRKLBNACNPR9156
012020091702KLBN11      010KLABIN S/A  UNT     N2   R$  000000000248000000000025480000000002452000000000251200000000025410000000002541000000000254216760000000000003271800000000008220785800000000000000009999123100000010000000000000BRKLBNCDAM18128
012020091702KMBB34      010KIMBERLY CL DRN          R$  000000007675100000000767510000000076751000000007675100000000767510000000000000000000000000000001000000000000000010000000000000767510000000000000009999123100000010000000000000BRKMBBBDR009121
012020091702LAME3       010LOJAS AMERICON      N1   R$  000000000264400000000026500000000002566000000000258800000000025740000000002571000000000257408495000000000001833000000000004744115200000000000000009999123100000010000000000000BRLAMEACNOR9202
012020091702LAME4       010LOJAS AMERICPN      N1   R$  000000000305000000000030670000000002996000000000302200000000030110000000003011000000000301321325000000000005330500000000016109115100000000000000009999123100000010000000000000BRLAMEACNPR6202
012020091702LAVV3       010LAVVI       ON      NM   R$  000000000082000000000008240000000000806000000000081200000000008090000000000809000000000081001108000000000001293300000000001050982700000000000000009999123100000010000000000000BRLAVVACNOR4100
012020091702LBRN34      010L BRANDS    DRN          R$  000000000402900000000040290000000004029000000000402900000000040290000000000000000000000000000001000000000000000180000000000000725220000000000000009999123100000010000000000000BRLBRNBDR001119
012020091702LCAM3       010LOCAMERICA  ON      NM   R$  000000000216700000000022090000000002151000000000218700000000022000000000002200000000000220106570000000000002034900000000004451214700000000000000009999123100000010000000000000BRLCAMACNOR3133
012020091702LEVE3       010METAL LEVE  ON      NM   R$  000000000179900000000018380000000001776000000000180100000000018020000000001800000000000180203053000000000000716500000000001291041100000000000000009999123100000010000000000000BRLEVEACNOR2187
012020091702LIGT3       010LIGHT S/A   ON      NM   R$  000000000150300000000015330000000001490000000000151400000000015150000000001513000000000151504206000000000001128300000000001708891700000000000000009999123100000010000000000000BRLIGTACNOR2120
012020091702LINX3       010LINX        ON      NM   R$  000000000358400000000035840000000003525000000000354400000000035500000000003545000000000355008905000000000001782200000000006317485600000000000000009999123100000010000000000000BRLINXACNOR0118
012020091702LJQQ3       010QUERO-QUERO ON      NM   R$  000000000149500000000015490000000001473000000000150200000000015000000000001497000000000150003605000000000001018800000000001530772200000000000000009999123100000010000000000000BRLJQQACNOR5100
012020091702LOGG3       010LOG COM PROPON      NM   R$  000000000320000000000033200000000003176000000000325600000000031970000000003197000000000320802305000000000000367600000000001197135700000000000000009999123100000010000000000000BRLOGGACNOR7103
012020091702LOGN3       010LOG-IN      ON      NM   R$  000000000178900000000018160000000001759000000000178300000000017800000000001779000000000178002989000000000000903300000000001610805500000000000000009999123100000010000000000000BRLOGNACNOR3104
012020091702LOWC34      010LOWES COMPA DRN          R$  000000004304500000000430490000000043045000000004304700000000430490000000000000000000000000000002000000000000000020000000000000860940000000000000009999123100000010000000000000BRLOWCBDR007105
012020091702LPSB3       010LOPES BRASILON      NM   R$  000000000055900000000005830000000000554000000000057200000000005700000000000570000000000057201685000000000000895400000000000512181000000000000000009999123100000010000000000000BRLPSBACNOR0111
012020091702LREN3       010LOJAS RENNERON      NM   R$  000000000442100000000044580000000004380000000000442400000000044450000000004440000000000444517958000000000004932500000000021823418200000000000000009999123100000010000000000000BRLRENACNOR1203
012020091702LUXM4       010TREVISA     PN           R$  000000000457000000000046000000000004570000000000458000000000046000000000004560000000000460000003000000000000000300000000000001374000000000000000009999123100000010000000000000BRLUXMACNPR4047
012020091702LWSA3       010LOCAWEB     ON      NM   R$  000000000597000000000060450000000005868000000000596000000000059720000000005950000000000597206113000000000001045200000000006230067000000000000000009999123100000010000000000000BRLWSAACNOR8100
012020091702M1CH34      010MICROCHIP TEDRN          R$  000000002708900000000270890000000027089000000002708900000000270890000000000000000000000000000001000000000000000080000000000002167120000000000000009999123100000010000000000000BRM1CHBDR000103
012020091702M1MC34      010MARSH E MCLEDRN          R$  000000003091100000000309110000000030808000000003084500000000308080000000000000000000000000000003000000000000000200000000000006169020000000000000009999123100000010000000000000BRM1MCBDR000102
012020091702M1PC34      010MARATHON PETDRN          R$  000000001670600000000167060000000016706000000001670600000000167060000000000000000000000000000001000000000000000200000000000003341200000000000000009999123100000010000000000000BRM1PCBDR003103
012020091702MCDC34      010MCDONALDS   DRN          R$  000000002961000000000296100000000029050000000002909400000000290860000000027918000000002960000011000000000000003120000000000090775060000000000000009999123100000010000000000000BRMCDCBDR000140
012020091702MCOR34      010MOODYS CORP DRN          R$  000000003698700000000369870000000036987000000003698700000000369870000000000000000000000000000001000000000000000010000000000000369870000000000000009999123100000010000000000000BRMCORBDR005105
012020091702MDIA3       010M.DIASBRANCOON      NM   R$  000000000375000000000038370000000003726000000000380600000000037840000000003784000000000379706277000000000001005600000000003827837300000000000000009999123100000010000000000000BRMDIAACNOR7118
012020091702MDLZ34      010MONDELEZ INTDRN          R$  000000001494600000000149460000000014928000000001493700000000149280000000000000000000000000000002000000000000000020000000000000298740000000000000009999123100000010000000000000BRMDLZBDR002120
012020091702MDNE3       010MOURA DUBEUXON      NM   R$  000000000087200000000008820000000000866000000000087400000000008700000000000870000000000087900801000000000000189200000000000165415500000000000000009999123100000010000000000000BRMDNEACNOR9100
012020091702MDTC34      010MEDTRONIC   DRN          R$  000000002810800000000281080000000028108000000002810800000000281080000000000000000000000000000002000000000000000020000000000000562160000000000000009999123100000010000000000000BRMDTCBDR004117
012020091702MEAL3       010IMC S/A     ON      NM   R$  000000000036500000000003650000000000355000000000035900000000003580000000000357000000000035811066000000000018460900000000006635068200000000000000009999123100000010000000000000BRMEALACNOR9105
012020091702MELI34      010MERCADOLIBREDRN          R$  000000005184000000000521000000000050618000000005138700000000514690000000051439000000005146900181000000000000016820000000000864345400000000000000009999123100000010000000000000BRMELIBDR006100
012020091702MGEL4       010MANGELS INDLPN           R$  000000000060000000000006150000000000600000000000060700000000006150000000000600000000000061500002000000000000000200000000000000121500000000000000009999123100000010000000000000BRMGELACNPR3147
012020091702MGLU3       010MAGAZ LUIZA ON      NM   R$  000000000885900000000089300000000008666000000000875100000000087100000000008710000000000871148371000000000012386700000000108397700100000000000000009999123100000010000000000000BRMGLUACNOR2116
012020091702MILS3       010MILLS       ON      NM   R$  000000000066800000000006830000000000652000000000066900000000006670000000000667000000000067002470000000000001242400000000000832266400000000000000009999123100000010000000000000BRMILSACNOR2112
012020091702MMMC34      0103M          DRN          R$  000000002252800000000225280000000022500000000002250200000000225000000000015000000000000000000008000000000000000870000000000019576960000000000000009999123100000010000000000000BRMMMCBDR000134
012020091702MNDL3       010MUNDIAL     ON           R$  000000000239800000000023980000000002320000000000234600000000023200000000002260000000000240000003000000000000000300000000000000703800000000000000009999123100000010000000000000BRMNDLACNOR4107
012020091702MNPR3       010MINUPAR     ON           R$  000000000059000000000006010000000000572000000000058800000000005990000000000599000000000060000017000000000000003300000000000001941000000000000000009999123100000010000000000000BRMNPRACNOR5122
012020091702MOAR3       010MONT ARANHA ON           R$  000000001999900000000200000000000019999000000001999900000000200000000000018800000000002039000002000000000000000200000000000003999900000000000000009999123100000010000000000000BRMOARACNOR5212
012020091702MOOO34      010ALTRIA GROUPDRN ED       R$  000000002183800000000218380000000021658000000002176700000000216580000000000000000000000000000003000000000000000030000000000000653030000000000000009999123100000010000000000000BRMOOOBDR007105
012020091702MOVI3       010MOVIDA      ON      NM   R$  000000000178100000000017910000000001750000000000177400000000017650000000001765000000000176604332000000000001234400000000002189880400000000000000009999123100000010000000000000BRMOVIACNOR0111
012020091702MRCK34      010MERCK       DRN ED       R$  000000004487900000000448990000000044879000000004488900000000448990000000000000000000004550000002000000000000000020000000000000897780000000000000009999123100000010000000000000BRMRCKBDR003140
012020091702MRFG3       010MARFRIG     ON      NM   R$  000000000165200000000016780000000001606000000000164200000000016540000000001652000000000165432275000000000013130200000000021562036800000000000000009999123100000010000000000000BRMRFGACNOR0109
012020091702MRVE3       010MRV         ON      NM   R$  000000000174000000000017480000000001693000000000170800000000017020000000001702000000000170316171000000000006942100000000011861487200000000000000009999123100000010000000000000BRMRVEACNOR2120
012020091702MSCD34      010MASTERCARD  DRN          R$  000000017830600000001783060000000177101000000017712400000001771010000000151600000000000000000002000000000000000510000000000090333560000000000000009999123100000010000000000000BRMSCDBDR006137
012020091702MSFT34      010MICROSOFT   DRN          R$  000000010750000000001075000000000105400000000010593200000001061780000000105910000000011331400024000000000000003150000000000333687190000000000000009999123100000010000000000000BRMSFTBDR005139
012020091702MTIG4       010METAL IGUACUPN           R$  000000000440000000000044000000000004000000000000414800000000040700000000004070000000000439700014000000000000001400000000000005808200000000000000009999123100000010000000000000BRMTIGACNPR7086
012020091702MTRE3       010MITRE REALTYON      NM   R$  000000000155100000000015510000000001500000000000151900000000015150000000001512000000000151503498000000000000618200000000000939104100000000000000009999123100000010000000000000BRMTREACNOR6100
012020091702MTSA4       010METISA      PN           R$  000000000278000000000027800000000002650000000000269300000000027000000000002661000000000275000012000000000000002100000000000005656900000000000000009999123100000010000000000000BRMTSAACNPR9056
012020091702MULT3       010MULTIPLAN   ON      N2   R$  000000000226700000000023030000000002246000000000227900000000022910000000002290000000000229217710000000000003598500000000008203422800000000000000009999123100000010000000000000BRMULTACNOR5127
012020091702MUTC34      010MICRON TECHNDRN          R$  000000002637700000000267010000000026377000000002653900000000267010000000000000000000000000000002000000000000000020000000000000530780000000000000009999123100000010000000000000BRMUTCBDR008100
012020091702MYPK3       010IOCHP-MAXIONON      NM   R$  000000000131000000000013580000000001280000000000132700000000013060000000001306000000000130709960000000000002037800000000002705169500000000000000009999123100000010000000000000BRMYPKACNOR7148
012020091702N1CL34      010NORWEGIAN CRDRN          R$  000000000898900000000089890000000008989000000000898900000000089890000000000000000000001300000001000000000000000250000000000002247250000000000000009999123100000010000000000000BRN1CLBDR001100
012020091702N1DA34      010NASDAQ INC  DRN ED       R$  000000003287000000000328700000000032870000000003287000000000328700000000000000000000000000000001000000000000000030000000000000986100000000000000009999123100000010000000000000BRN1DABDR002103
012020091702N1EM34      010NEWMONT GOLDDRN ED       R$  000000003490000000000349000000000034589000000003488500000000345890000000033012000000000000000002000000000000000210000000000007325890000000000000009999123100000010000000000000BRN1EMBDR005103
012020091702N1SC34      010NORFOLK SOUTDRN          R$  000000002924400000000292440000000029195000000002922000000000291950000000000000000000000000000003000000000000000200000000000005844110000000000000009999123100000010000000000000BRN1SCBDR006103
012020091702NEOE3       010NEOENERGIA  ON      NM   R$  000000000177000000000018200000000001770000000000180400000000018030000000001803000000000180704554000000000001678900000000003030156200000000000000009999123100000010000000000000BRNEOEACNOR3111
012020091702NEXT34      010NEXTERA ENERDRN          R$  000000003647400000000364740000000036389000000003643100000000363890000000000000000000000000000002000000000000000020000000000000728630000000000000009999123100000010000000000000BRNEXTBDR006105
012020091702NFLX34      010NETFLIX     DRN          R$  000000025070000000002507000000000244908000000024555100000002449080000000249317000000027500000007000000000000000430000000000105586930000000000000009999123100000010000000000000BRNFLXBDR000101
012020091702NIKE34      010NIKE        DRN          R$  000000006103900000000610390000000061039000000006103900000000610390000000000000000000000000000001000000000000000010000000000000610390000000000000009999123100000010000000000000BRNIKEBDR006139
012020091702NOCG34      010NORTHROP GRUDRN          R$  000000003614200000000361420000000036142000000003614200000000361420000000000000000000000000000001000000000000000010000000000000361420000000000000009999123100000010000000000000BRNOCGBDR006105
012020091702NORD3       010NORDON MET  ON           R$  000000000048100000000004960000000000465000000000048200000000004960000000000496000000000054900006000000000000000700000000000000337700000000000000009999123100000010000000000000BRNORDACNOR7135
012020091702NTCO3       010GRUPO NATURAON      NM   R$  000000000525000000000053110000000005204000000000524500000000052740000000005258000000000527419006000000000003868800000000020295322300000000000000009999123100000010000000000000BRNTCOACNOR5101
012020091702NVDC34      010NVIDIA CORP DRN          R$  000000006500100000000656390000000063201000000006522500000000650900000000066928000000006800000013000000000000001930000000000125885530000000000000009999123100000010000000000000BRNVDCBDR008106
012020091702ODPV3       010ODONTOPREV  ON  EJ  NM   R$  000000000126700000000012840000000001261000000000126800000000012730000000001273000000000127707295000000000001873000000000002376334500000000000000009999123100000010000000000000BRODPVACNOR4179
012020091702OFSA3       010OUROFINO S/AON      NM   R$  000000000288300000000028830000000002857000000000286700000000028790000000002858000000000287900021000000000000003100000000000008890300000000000000009999123100000010000000000000BROFSAACNOR7109
012020091702OMGE3       010OMEGA GER   ON      NM   R$  000000000391700000000040050000000003913000000000395500000000039380000000003938000000000397103936000000000000801400000000003170270100000000000000009999123100000010000000000000BROMGEACNOR0101
012020091702ORCL34      010ORACLE      DRN          R$  000000003102000000000316050000000031020000000003155400000000312800000000030000000000000000000006000000000000000430000000000013568290000000000000009999123100000010000000000000BRORCLBDR007134
012020091702OXYP34      010OCCIDENT PTRDRN ED       R$  000000000297000000000030630000000002970000000000301600000000030630000000003060000000000318500002000000000000000020000000000000060330000000000000009999123100000010000000000000BROXYPBDR000106
012020091702P1DT34      010PRUDENTIAL FDRN          R$  000000001795000000000179500000000017950000000001795000000000179500000000015151000000000000000001000000000000000030000000000000538500000000000000009999123100000010000000000000BRP1DTBDR000103
012020091702P1LD34      010PROLOGIS INCDRN ED       R$  000000002636700000000263670000000026367000000002636700000000263670000000000000000000000000000001000000000000000010000000000000263670000000000000009999123100000010000000000000BRP1LDBDR007103
012020091702P1SX34      010PHILLIPS 66 DRN          R$  000000001561400000000157210000000015614000000001563400000000157210000000000000000000000000000002000000000000000370000000000005784670000000000000009999123100000010000000000000BRP1SXBDR000103
012020091702PARD3       010IHPARDINI   ON  EJ  NM   R$  000000000236200000000024040000000002335000000000237600000000023770000000002376000000000238906664000000000001513300000000003596982400000000000000009999123100000010000000000000BRPARDACNOR1115
012020091702PATI4       010PANATLANTICAPN           R$  000000000286500000000028650000000002865000000000286500000000028650000000002780000000000295000004000000000000003100000000000008881500000000000000009999123100000010000000000000BRPATIACNPR3060
012020091702PCAR3       010P.ACUCAR-CBDON      NM   R$  000000000747000000000076710000000007432000000000757300000000076240000000007624000000000762508778000000000002007000000000015199910100000000000000009999123100000010000000000000BRPCARACNOR3163
012020091702PDTC3       010PADTEC      ON           R$  000000000053200000000005500000000000530000000000054200000000005470000000000538000000000054700069000000000000019900000000000010796500000000000000009999123100000010000000000000BRPDTCACNOR3100
012020091702PEPB34      010PEPSICO INC DRN          R$  000000006947200000000696000000000069472000000006959800000000696000000000065100000000000000000002000000000000001210000000000084214720000000000000009999123100000010000000000000BRPEPBBDR005132
012020091702PETR3       010PETROBRAS   ON      N2   R$  000000000217200000000022440000000002170000000000221200000000022440000000002242000000000224433396000000000019604800000000043381973200000000000000009999123100000010000000000000BRPETRACNOR9191
012020091702PETR4       010PETROBRAS   PN      N2   R$  000000000215100000000022170000000002146000000000218900000000022150000000002214000000000221570857000000000060432200000000132290198500000000000000009999123100000010000000000000BRPETRACNPR6197
012020091702PETZ3       010PETZ        ON      NM   R$  000000000152000000000015870000000001500000000000155900000000015600000000001558000000000156006295000000000003829000000000005970233800000000000000009999123100000010000000000000BRPETZACNOR2100
012020091702PFIZ34      010PFIZER      DRN          R$  000000001945000000000194500000000019205000000001924900000000192620000000019200000000001926200011000000000000000720000000000013859480000000000000009999123100000010000000000000BRPFIZBDR006140
012020091702PFRM3       010PROFARMA    ON      NM   R$  000000000049000000000004980000000000480000000000048900000000004980000000000497000000000049801348000000000000456300000000000223433200000000000000009999123100000010000000000000BRPFRMACNOR1112
012020091702PGCO34      010PG          DRN          R$  000000007188400000000720540000000071799000000007186500000000720540000000000000000000007205400003000000000000000090000000000006467860000000000000009999123100000010000000000000BRPGCOBDR001139
012020091702PGMN3       010PAGUE MENOS ON      NM   R$  000000000098600000000009860000000000959000000000096400000000009600000000000960000000000096900924000000000000517300000000000499048500000000000000009999123100000010000000000000BRPGMNACNOR8100
012020091702PHMO34      010PHILIP MORRIDRN          R$  000000002099100000000209910000000020941000000002094800000000209410000000000000000000000000000002000000000000000070000000000001466370000000000000009999123100000010000000000000BRPHMOBDR008113
012020091702PINE4       010PINE        PN      N2   R$  000000000027000000000002730000000000270000000000027100000000002710000000000271000000000027300112000000000000052500000000000014253500000000000000009999123100000010000000000000BRPINEACNPR8144
012020091702PLPL3       010PLANOEPLANO ON      NM   R$  000000000097000000000009990000000000940000000000096200000000009400000000000940000000000094515336000000000014077200000000013549459700000000000000009999123100000010000000000000BRPLPLACNOR5100
012020091702PMAM3       010PARANAPANEMAON      NM   R$  000000000114500000000011750000000001138000000000115200000000011520000000001152000000000115600128000000000000027000000000000031125100000000000000009999123100000010000000000000BRPMAMACNOR3037
012020091702PNVL3       010DIMED       ON           R$  000000000242100000000024340000000002356000000000240800000000024090000000002408000000000241601431000000000000376200000000000906058700000000000000009999123100000010000000000000BRPNVLACNOR9196
012020091702PNVL4       010DIMED       PN           R$  000000000211100000000021280000000002095000000000210800000000020950000000002093000000000212900118000000000000019500000000000041116900000000000000009999123100000010000000000000BRPNVLACNPR6196
012020091702POMO3       010MARCOPOLO   ON      N2   R$  000000000027500000000002790000000000275000000000027600000000002790000000000277000000000027900175000000000000112800000000000031239100000000000000009999123100000010000000000000BRPOMOACNOR0087
012020091702POMO4       010MARCOPOLO   PN      N2   R$  000000000029800000000002990000000000292000000000029600000000002960000000000295000000000029601978000000000003401900000000001007576000000000000000009999123100000010000000000000BRPOMOACNPR7087
012020091702POSI3       010POSITIVO TECON      NM   R$  000000000049000000000004920000000000480000000000048500000000004850000000000484000000000048702071000000000001654300000000000803778800000000000000009999123100000010000000000000BRPOSIACNOR9112
012020091702PPLA11      010PPLA        UNT          R$  000000000166600000000017240000000001578000000000162400000000015800000000001575000000000161500094000000000000021900000000000035565600000000000000009999123100000010000000000000BRPPLAUNT007101
012020091702PRIO3       010PETRORIO    ON      NM   R$  000000000385100000000039530000000003810000000000389500000000039160000000003915000000000391607715000000000002092900000000008153061700000000000000009999123100000010000000000000BRPRIOACNOR1102
012020091702PRNR3       010PRINER      ON      NM   R$  000000000093500000000009490000000000931000000000093900000000009360000000000936000000000094500230000000000000068900000000000064723000000000000000009999123100000010000000000000BRPRNRACNOR4105
012020091702PSSA3       010PORTO SEGUROON      NM   R$  000000000509300000000051670000000005080000000000512500000000051280000000005128000000000512902834000000000000412100000000002112118800000000000000009999123100000010000000000000BRPSSAACNOR7142
012020091702PTBL3       010PORTOBELLO  ON      NM   R$  000000000054700000000005680000000000545000000000055400000000005510000000000550000000000055102019000000000001544600000000000856742200000000000000009999123100000010000000000000BRPTBLACNOR8125
012020091702PTNT3       010PETTENATI   ON           R$  000000000059000000000005900000000000578000000000057800000000005780000000000578000000000058500026000000000000007000000000000004050100000000000000009999123100000010000000000000BRPTNTACNOR6039
012020091702PTNT4       010PETTENATI   PN           R$  000000000050000000000005000000000000476000000000048400000000004850000000000476000000000048500050000000000000011300000000000005478000000000000000009999123100000010000000000000BRPTNTACNPR3044
012020091702PYPL34      010PAYPAL HOLD DRN          R$  000000004587200000000460000000000045872000000004593600000000460000000000046777000000004990000002000000000000000020000000000000918720000000000000009999123100000010000000000000BRPYPLBDR002101
012020091702QUAL3       010QUALICORP   ON      NM   R$  000000000325700000000032920000000003218000000000325100000000032640000000003260000000000326410644000000000002525600000000008211778000000000000000009999123100000010000000000000BRQUALACNOR6113
012020091702R1IN34      010REALTY INCOMDRN          R$  000000001680100000000168190000000016801000000001681000000000168190000000000000000000000000000002000000000000000020000000000000336200000000000000009999123100000010000000000000BRR1INBDR000108
012020091702RADL3       010RAIADROGASILON      NM   R$  000000001140000000000115180000000011371000000001143300000000114000000000011400000000001140504848000000000000835400000000009551542100000000000000009999123100000010000000000000BRRADLACNOR0136
012020091702RAIL3       010RUMO S.A.   ON      NM   R$  000000000212000000000021780000000002120000000000216100000000021780000000002170000000000217821829000000000006015400000000013003342000000000000000009999123100000010000000000000BRRAILACNOR9101
012020091702RANI3       010IRANI       ON           R$  000000000051100000000005210000000000502000000000051200000000005120000000000511000000000051203255000000000001708900000000000876240300000000000000009999123100000010000000000000BRRANIACNOR5053
012020091702RANI4       010IRANI       PN           R$  000000000088400000000009000000000000884000000000089100000000008840000000000884000000000089500056000000000000018500000000000016487100000000000000009999123100000010000000000000BRRANIACNPR2054
012020091702RAPT3       010RANDON PART ON      N1   R$  000000000094900000000009550000000000938000000000094500000000009420000000000942000000000095700035000000000000006000000000000005670700000000000000009999123100000010000000000000BRRAPTACNOR7153
012020091702RAPT4       010RANDON PART PN      N1   R$  000000000117700000000012120000000001160000000000119600000000012000000000001199000000000120005757000000000002983500000000003570125300000000000000009999123100000010000000000000BRRAPTACNPR4153
012020091702RCSL3       010RECRUSUL    ON           R$  000000000020500000000002100000000000196000000000020400000000002050000000000202000000000020600073000000000000049800000000000010172000000000000000009999123100000010000000000000BRRCSLACNOR4130
012020091702RCSL4       010RECRUSUL    PN           R$  000000000013900000000001590000000000137000000000014900000000001520000000000152000000000015312746000000000016498300000000002470037200000000000000009999123100000010000000000000BRRCSLACNPR1130
012020091702RDNI3       010RNI         ON      NM   R$  000000000102000000000010200000000001000000000000100500000000010000000000001000000000000101600053000000000000033500000000000033700500000000000000009999123100000010000000000000BRRDNIACNOR9113
012020091702REDE3       010REDE ENERGIAON           R$  000000000104800000000010490000000001033000000000104500000000010490000000001033000000000104900013000000000000004300000000000004494200000000000000009999123100000010000000000000BRREDEACNOR7115
012020091702REGN34      010REGENERON PHDRN          R$  000000005933400000000593340000000059334000000005933400000000593340000000000000000000000000000001000000000000000010000000000000593340000000000000009999123100000010000000000000BRREGNBDR005100
012020091702RENT3       010LOCALIZA    ON  EJ  NM   R$  000000000521300000000053200000000005209000000000527600000000052950000000005295000000000529714216000000000003180100000000016779920900000000000000009999123100000010000000000000BRRENTACNOR4179
012020091702RIGG34      010TRANSOCEAN  DRN          R$  000000000057500000000005830000000000562000000000056600000000005660000000000490000000000060000007000000000000001130000000000000640220000000000000009999123100000010000000000000BRRIGGBDR000100
012020091702RLOG3       010COSAN LOG   ON      NM   R$  000000000200900000000020450000000001995000000000202900000000020400000000002033000000000204102820000000000000444100000000000901492900000000000000009999123100000010000000000000BRRLOGACNOR4106
012020091702ROMI3       010INDS ROMI   ON      NM   R$  000000000128500000000013070000000001250000000000127100000000012500000000001250000000000125402272000000000000419100000000000533034500000000000000009999123100000010000000000000BRROMIACNOR8173
012020091702RPAD3       010ALFA HOLDINGON           R$  000000000063000000000006300000000000629000000000062900000000006300000000000630000000000063800005000000000000001700000000000001070800000000000000009999123100000010000000000000BRRPADACNOR1197
012020091702RPAD6       010ALFA HOLDINGPNB          R$  000000000060300000000006070000000000584000000000060100000000006000000000000587000000000067000004000000000000000600000000000000360800000000000000009999123100000010000000000000BRRPADACNPB2197
012020091702RSID3       010ROSSI RESID ON      NM   R$  000000000052700000000005350000000000520000000000052600000000005350000000000526000000000053500131000000000000041700000000000021956800000000000000009999123100000010000000000000BRRSIDACNOR8119
012020091702RYTT34      010RAYTHEONTECHDRN          R$  000000003308100000000330810000000033081000000003308100000000330810000000000000000000000000000001000000000000000010000000000000330810000000000000009999123100000010000000000000BRRYTTBDR003102
012020091702S1HW34      010THE SHERWIN DRN          R$  000000003721800000000372180000000037169000000003719500000000371990000000000000000000000000000003000000000000000150000000000005579300000000000000009999123100000010000000000000BRS1HWBDR002103
012020091702S1LG34      010SL GREEN READRN          R$  000000001329900000000133200000000013299000000001330100000000133190000000000000000000000000000003000000000000000350000000000004655690000000000000009999123100000010000000000000BRS1LGBDR007106
012020091702S1PO34      010SPOTIFY TECHDRN          R$  000000003025000000000306500000000030250000000003061300000000306500000000000000000000000000000002000000000000000110000000000003367500000000000000009999123100000010000000000000BRS1POBDR002100
012020091702S1YK34      010STRYKER CORPDRN          R$  000000002804800000000280480000000027730000000002788300000000277300000000000000000000000000000003000000000000000250000000000006970980000000000000009999123100000010000000000000BRS1YKBDR002102
012020091702SANB3       010SANTANDER BRON           R$  000000000133700000000013370000000001306000000000131600000000013210000000001321000000000132401148000000000000318500000000000419333100000000000000009999123100000010000000000000BRSANBACNOR8153
012020091702SANB4       010SANTANDER BRPN           R$  000000000148600000000014900000000001456000000000146800000000014880000000001476000000000148801848000000000000360900000000000530059400000000000000009999123100000010000000000000BRSANBACNPR5153
012020091702SANB11      010SANTANDER BRUNT          R$  000000000281600000000028170000000002761000000000278600000000028060000000002804000000000280612917000000000002991900000000008335924500000000000000009999123100000010000000000000BRSANBCDAM13146
012020091702SAPR3       010SANEPAR     ON      N2   R$  000000000056200000000005650000000000551000000000055800000000005640000000000562000000000056400501000000000000122100000000000068181700000000000000009999123100000010000000000000BRSAPRACNOR9150
012020091702SAPR4       010SANEPAR     PN      N2   R$  000000000053500000000005420000000000533000000000053600000000005340000000000534000000000053503809000000000002253600000000001208820800000000000000009999123100000010000000000000BRSAPRACNPR6150
012020091702SAPR11      010SANEPAR     UNT     N2   R$  000000000268600000000027200000000002671000000000269100000000026840000000002683000000000268405143000000000001471900000000003961569300000000000000009999123100000010000000000000BRSAPRCDAM13109
012020091702SBSP3       010SABESP      ON      NM   R$  000000000465000000000047530000000004571000000000466800000000047490000000004747000000000474915550000000000004636900000000021648807100000000000000009999123100000010000000000000BRSBSPACNOR5157
012020091702SBUB34      010STARBUCKS   DRN          R$  000000004502900000000450880000000045029000000004505800000000450880000000039000000000000000000002000000000000000020000000000000901170000000000000009999123100000010000000000000BRSBUBBDR005130
012020091702SCAR3       010SAO CARLOS  ON      NM   R$  000000000385700000000039320000000003841000000000386700000000038710000000003870000000000390700033000000000000003600000000000013923300000000000000009999123100000010000000000000BRSCARACNOR7128
012020091702SEER3       010SER EDUCA   ON      NM   R$  000000000161600000000016480000000001585000000000162700000000016290000000001629000000000163105763000000000001017400000000001655498000000000000000009999123100000010000000000000BRSEERACNOR5115
012020091702SGPS3       010SPRINGS     ON      NM   R$  000000000070600000000007270000000000700000000000071500000000007200000000000720000000000072400402000000000000185500000000000132804800000000000000009999123100000010000000000000BRSGPSACNOR4104
012020091702SHOW3       010TIME FOR FUNON      NM   R$  000000000028400000000002840000000000275000000000027900000000002820000000000281000000000028200592000000000000402500000000000112420600000000000000009999123100000010000000000000BRSHOWACNOR7105
012020091702SHUL4       010SCHULZ      PN           R$  000000000133000000000013440000000001314000000000132700000000013240000000001318000000000132800532000000000000158400000000000210340500000000000000009999123100000010000000000000BRSHULACNPR4136
012020091702SIMN34      010SIMON PROP  DRN          R$  000000000964300000000096430000000009399000000000952100000000093990000000009371000000000000000002000000000000000600000000000005712600000000000000009999123100000010000000000000BRSIMNBDR002104
012020091702SLCE3       010SLC AGRICOLAON      NM   R$  000000000255500000000026020000000002541000000000258000000000025840000000002583000000000258802680000000000001128400000000002912296400000000000000009999123100000010000000000000BRSLCEACNOR2115
012020091702SMLS3       010SMILES      ON      NM   R$  000000000166400000000016950000000001625000000000166100000000016620000000001659000000000166206803000000000001887300000000003136617700000000000000009999123100000010000000000000BRSMLSACNOR1109
012020091702SMTO3       010SAO MARTINHOON      NM   R$  000000000237000000000023760000000002328000000000235700000000023710000000002371000000000237203854000000000000707500000000001667758400000000000000009999123100000010000000000000BRSMTOACNOR3117
012020091702SNEC34      010SONY CORP   DRN          R$  000000004100000000000410000000000040679000000004095400000000406790000000031000000000004620000002000000000000000140000000000005733580000000000000009999123100000010000000000000BRSNECBDR002101
012020091702SOMA3       010GRUPO SOMA  ON      NM   R$  000000000105700000000010660000000001034000000000105600000000010590000000001057000000000105901459000000000000471700000000000498583400000000000000009999123100000010000000000000BRSOMAACNOR3100
