00COTAHIST.2020BOVESPA 20200923                                                                                                                                                                                                                      
012020092302A1BM34      010ABIOMED INC DRN          R$  000000003711100000000371110000000037111000000003711100000000371110000000000000000000000000000001000000000000000040000000000001484440000000000000009999123100000010000000000000BRA1BMBDR006100
012020092302A1LB34      010ALBEMARLE CODRN ED       R$  000000004765000000000476500000000045200000000004642500000000452000000000000000000000000000000002000000000000000800000000000037140000000000000000009999123100000010000000000000BRA1LBBDR008103
012020092302A1MB34      010AMERISOURCEBDRN          R$  000000002648000000000264800000000026400000000002644000000000264000000000000000000000000000000002000000000000000040000000000001057600000000000000009999123100000010000000000000BRA1MBBDR006103
012020092302AALR3       010ALLIAR      ON      NM   R$  000000000112900000000011290000000001062000000000108400000000010620000000001062000000000106302056000000000000643300000000000697674400000000000000009999123100000010000000000000BRAALRACNOR6102
012020092302AAPL34      010APPLE       DRN          R$  000000000614500000000061850000000005980000000000604400000000060110000000005970000000000601100238000000000000080200000000000484745080000000000000009999123100000010000000000000BRAAPLBDR004135
012020092302ABBV34      010ABBVIE      DRN          R$  000000004892900000000489290000000048929000000004892900000000489290000000000000000000000000000001000000000000000180000000000008807220000000000000009999123100000010000000000000BRABBVBDR001118
012020092302ABCB4       010ABC BRASIL  PN      N2   R$  000000000127300000000012820000000001230000000000124900000000012300000000001230000000000123404278000000000001099300000000001373121300000000000000009999123100000010000000000000BRABCBACNPR4134
012020092302ABEV3       010AMBEV S/A   ON           R$  000000000126800000000012760000000001244000000000125800000000012440000000001244000000000124641593000000000027736700000000034898982700000000000000009999123100000010000000000000BRABEVACNOR1122
012020092302ADBE34      010ADOBE INC   DRN          R$  000000005324000000000532400000000053240000000005324000000000532400000000000000000000000000000001000000000000000010000000000000532400000000000000009999123100000010000000000000BRADBEBDR003100
012020092302ADHM3       010ADVANCED-DH ON           R$  000000000020000000000002080000000000200000000000020300000000002020000000000202000000000020300018000000000000003200000000000000650200000000000000009999123100000010000000000000BRADHMACNOR9102
012020092302AFLT3       010AFLUENTE T  ON           R$  000000000105700000000010580000000001014000000000104200000000010250000000001025000000000103300033000000000000007500000000000007816200000000000000009999123100000010000000000000BRAFLTACNOR1115
012020092302AGRO3       010BRASILAGRO  ON      NM   R$  000000000223000000000022380000000002170000000000220100000000022380000000002184000000000223800522000000000000148600000000000327143100000000000000009999123100000010000000000000BRAGROACNOR7109
012020092302AHEB3       010SPTURIS     ON           R$  000000000252000000000025200000000002500000000000251300000000025200000000002000000000000255000003000000000000000300000000000000754000000000000000009999123100000010000000000000BRAHEBACNOR0106
012020092302AHEB5       010SPTURIS     PNA          R$  000000000248900000000024890000000002489000000000248900000000024890000000002021000000000249000001000000000000000100000000000000248900000000000000009999123100000010000000000000BRAHEBACNPA3106
012020092302ALPA3       010ALPARGATAS  ON      N1   R$  000000000319700000000032780000000003152000000000319700000000031520000000003151000000000321000008000000000000000900000000000002877800000000000000009999123100000010000000000000BRALPAACNOR0229
012020092302ALPA4       010ALPARGATAS  PN      N1   R$  000000000363000000000036430000000003564000000000359600000000035850000000003581000000000358507443000000000001267100000000004556981300000000000000009999123100000010000000000000BRALPAACNPR7229
012020092302ALPK3       010ESTAPAR     ON      NM   R$  000000000092000000000009300000000000914000000000091800000000009170000000000917000000000092700066000000000000065200000000000059871500000000000000009999123100000010000000000000BRALPKACNOR9100
012020092302ALSO3       010ALIANSCSONAEON      NM   R$  000000000261000000000026430000000002522000000000255900000000025220000000002522000000000252805169000000000001018200000000002606064300000000000000009999123100000010000000000000BRALSOACNOR5100
012020092302ALUP3       010ALUPAR      ON      N2   R$  000000000096300000000009750000000000963000000000097100000000009750000000000951000000000097700025000000000000002900000000000002818300000000000000009999123100000010000000000000BRALUPACNOR8111
012020092302ALUP4       010ALUPAR      PN      N2   R$  000000000070700000000007170000000000707000000000071300000000007130000000000701000000000071300045000000000000008100000000000005780800000000000000009999123100000010000000000000BRALUPACNPR5111
012020092302ALUP11      010ALUPAR      UNT     N2   R$  000000000240700000000024080000000002386000000000239900000000023980000000002394000000000239801912000000000000873500000000002095598800000000000000009999123100000010000000000000BRALUPCDAM15111
012020092302AMAR3       010LOJAS MARISAON      NM   R$  000000000078500000000007930000000000736000000000075500000000007440000000000743000000000074409836000000000005219500000000003944862400000000000000009999123100000010000000000000BRAMARACNOR4112
012020092302AMBP3       010AMBIPAR     ON      NM   R$  000000000300200000000030350000000002973000000000300400000000030350000000003000000000000303600829000000000000157100000000000471953600000000000000009999123100000010000000000000BRAMBPACNOR6100
012020092302AMZO34      010AMAZON      DRN          R$  000000086060000000008606000000000837016000000084592900000008370160000000837100000000086625000010000000000000000660000000000558313630000000000000009999123100000010000000000000BRAMZOBDR002101
012020092302ANIM3       010ANIMA       ON      NM   R$  000000000298600000000029870000000002790000000000283200000000027970000000002796000000000280103148000000000000530200000000001501896000000000000000009999123100000010000000000000BRANIMACNOR6106
012020092302APER3       010ALPER S.A.  ON      NM   R$  000000000299400000000030500000000002888000000000297400000000030500000000002886000000000305000130000000000000023000000000000068405100000000000000009999123100000010000000000000BRAPERACNOR9102
012020092302ARZZ3       010AREZZO CO   ON      NM   R$  000000000550000000000055340000000005330000000000540200000000053650000000005361000000000536501478000000000000183100000000000989172100000000000000009999123100000010000000000000BRARZZACNOR3137
012020092302ATOM3       010ATOMPAR     ON           R$  000000000029300000000002930000000000284000000000028600000000002920000000000286000000000029100064000000000000029100000000000008341800000000000000009999123100000010000000000000BRATOMACNOR1103
012020092302ATTB34      010ATT INC     DRN          R$  000000001580000000000158000000000015611000000001564400000000156220000000015000000000001562200004000000000000000270000000000004224120000000000000009999123100000010000000000000BRATTBBDR007132
012020092302AURA32      010AURA 360    DR2          R$  000000000648000000000064800000000006160000000000627700000000062480000000006200000000000624800168000000000000038700000000000242954800000000000000009999123100000010000000000000BRAURABDR001102
012020092302AZEV3       010AZEVEDO     ON           R$  000000000100100000000010010000000000979000000000099200000000009790000000000978000000000097900009000000000000001600000000000001587900000000000000009999123100000010000000000000BRAZEVACNOR0117
012020092302AZEV4       010AZEVEDO     PN           R$  000000000034400000000003440000000000320000000000032600000000003200000000000315000000000032000023000000000000006100000000000001990200000000000000009999123100000010000000000000BRAZEVACNPR7117
012020092302AZUL4       010AZUL        PN      N2   R$  000000000265000000000027270000000002613000000000266500000000026750000000002675000000000267627868000000000014412300000000038411976000000000000000009999123100000010000000000000BRAZULACNPR4100
012020092302B1DX34      010BECTON DICKIDRN          R$  000000002534600000000253460000000025346000000002534600000000253460000000000000000000000000000001000000000000000070000000000001774220000000000000009999123100000010000000000000BRB1DXBDR008103
012020092302B1KR34      010BAKER HUGHESDRN          R$  000000000756600000000075660000000007566000000000756600000000075660000000000000000000000000000001000000000000000100000000000000756600000000000000009999123100000010000000000000BRB1KRBDR005103
012020092302B1RF34      010BROADRIDGE FDRN ED       R$  000000001809100000000180910000000018091000000001809100000000180910000000000000000000000000000001000000000000000010000000000000180910000000000000009999123100000010000000000000BRB1RFBDR005103
012020092302B1SX34      010BOSTON SCIENDRN          R$  000000002117800000000211780000000021178000000002117800000000211780000000000000000000000000000001000000000000000050000000000001058900000000000000009999123100000010000000000000BRB1SXBDR006100
012020092302B3SA3       010B3          ON      NM   R$  000000000568000000000057570000000005545000000000563500000000055890000000005586000000000558935866000000000009978000000000056231172300000000000000009999123100000010000000000000BRB3SAACNOR6111
012020092302BABA34      010ALIBABAGR   DRN          R$  000000015271900000001534030000000151400000000015268000000001523510000000151000000000015380000029000000000000000620000000000094661780000000000000009999123100000010000000000000BRBABABDR005100
012020092302BAHI3       010BAHEMA      ON      MA   R$  000000001130000000000116980000000011300000000001151100000000116980000000010790000000001189000004000000000000000400000000000004604600000000000000009999123100000010000000000000BRBAHIACNOR1071
012020092302BALM3       010BAUMER      ON           R$  000000000163100000000016310000000001590000000000160600000000015900000000001550000000000165000007000000000000000800000000000001285200000000000000009999123100000010000000000000BRBALMACNOR5050
012020092302BALM4       010BAUMER      PN           R$  000000000140000000000014940000000001400000000000146200000000014790000000001100000000000147900022000000000000003400000000000004971500000000000000009999123100000010000000000000BRBALMACNPR2051
012020092302BAUH4       010EXCELSIOR   PN           R$  000000000869700000000086970000000008697000000000869700000000086970000000008100000000000889800002000000000000000200000000000001739400000000000000009999123100000010000000000000BRBAUHACNPR3115
012020092302BAZA3       010AMAZONIA    ON           R$  000000000397600000000039760000000003765000000000391500000000039690000000003900000000000400000006000000000000000600000000000002349400000000000000009999123100000010000000000000BRBAZAACNOR0174
012020092302BBAS3       010BRASIL      ON  EJ  NM   R$  000000000308500000000030940000000003007000000000304500000000030180000000003018000000000301932562000000000012768300000000038891544200000000000000009999123100000010000000000000BRBBASACNOR3293
012020092302BBDC3       010BRADESCO    ON      N1   R$  000000000185200000000018590000000001809000000000183200000000018140000000001811000000000181414465000000000004784600000000008767834700000000000000009999123100000010000000000000BRBBDCACNOR1715
012020092302BBDC4       010BRADESCO    PN      N1   R$  000000000197500000000019890000000001940000000000196100000000019430000000001943000000000194441459000000000026663100000000052306333100000000000000009999123100000010000000000000BRBBDCACNPR8715
012020092302BBRK3       010BR BROKERS  ON      NM   R$  000000000015900000000001630000000000158000000000016000000000001600000000000159000000000016000346000000000000190600000000000030577400000000000000009999123100000010000000000000BRBBRKACNOR4113
012020092302BBSE3       010BBSEGURIDADEON      NM   R$  000000000252800000000025710000000002470000000000251000000000024710000000002471000000000247923638000000000005733700000000014392413800000000000000009999123100000010000000000000BRBBSEACNOR5117
012020092302BBYY34      010BEST BUY    DRN ED       R$  000000006047000000000604700000000060230000000006044600000000602300000000000000000000000000000002000000000000000100000000000006044600000000000000009999123100000010000000000000BRBBYYBDR005114
012020092302BCSA34      010SANTANDER   DRN          R$  000000000101800000000010400000000001003000000000101200000000010090000000001004000000000102500039000000000000004350000000000004404160000000000000009999123100000010000000000000BRBCSABDR005101
012020092302BEEF3       010MINERVA     ON      NM   R$  000000000127000000000012700000000001217000000000123400000000012330000000001229000000000123316988000000000006725600000000008304498700000000000000009999123100000010000000000000BRBEEFACNOR6108
012020092302BEES3       010BANESTES    ON           R$  000000000050800000000005100000000000498000000000050300000000005010000000000501000000000050700158000000000000055100000000000027751100000000000000009999123100000010000000000000BRBEESACNOR9339
012020092302BEES4       010BANESTES    PN           R$  000000000052400000000005300000000000518000000000052600000000005180000000000518000000000052800015000000000000004000000000000002105400000000000000009999123100000010000000000000BRBEESACNPR6264
012020092302BERK34      010BERKSHIRE   DRN          R$  000000011800000000001184000000000117400000000011828800000001175120000000115000000000011751200023000000000000000870000000000102910680000000000000009999123100000010000000000000BRBERKBDR002100
012020092302BIDI3       010BANCO INTER ON      N2   R$  000000000163100000000017040000000001606000000000165500000000016810000000001653000000000168103385000000000000611800000000001013037600000000000000009999123100000010000000000000BRBIDIACNOR3107
012020092302BIDI4       010BANCO INTER PN      N2   R$  000000000177500000000018390000000001740000000000178200000000017570000000001756000000000175808003000000000002168400000000003866007000000000000000009999123100000010000000000000BRBIDIACNPR0111
012020092302BIDI11      010BANCO INTER UNT     N2   R$  000000000522100000000053610000000005101000000000521700000000052340000000005234000000000523506605000000000001155900000000006030616000000000000000009999123100000010000000000000BRBIDICDAXX3106
012020092302BIDU34      010BAIDU INC   DRN          R$  000000006830000000000683000000000068300000000006830000000000683000000000000000000000000000000001000000000000000010000000000000683000000000000000009999123100000010000000000000BRBIDUBDR002100
012020092302BIOM3       010BIOMM       ON      MA   R$  000000000170900000000017150000000001620000000000169200000000016200000000001617000000000165000070000000000000019800000000000033509800000000000000009999123100000010000000000000BRBIOMACNOR2107
012020092302BKBR3       010BK BRASIL   ON      NM   R$  000000000113500000000011550000000001087000000000111200000000010870000000001087000000000108806072000000000001470600000000001636321800000000000000009999123100000010000000000000BRBKBRACNOR4103
012020092302BKNG34      010BOOKING     DRN          R$  000000003670000000000367000000000036631000000003664500000000366310000000035000000000004010300004000000000000000380000000000013925300000000000000009999123100000010000000000000BRBKNGBDR006100
012020092302BLAK34      010BLACKROCK   DRN          R$  000000005072100000000510370000000050721000000005081700000000507350000000050000000000000000000003000000000000000100000000000005081720000000000000009999123100000010000000000000BRBLAKBDR003118
012020092302BMEB3       010MERC BRASIL ON           R$  000000000210000000000022800000000001950000000000205900000000019500000000001930000000000200000017000000000000002400000000000004942000000000000000009999123100000010000000000000BRBMEBACNOR8196
012020092302BMEB4       010MERC BRASIL PN           R$  000000000173600000000019500000000001736000000000188700000000019000000000001832000000000190500222000000000000101200000000000191028600000000000000009999123100000010000000000000BRBMEBACNPR5201
012020092302BMGB4       010BANCO BMG   PN      N1   R$  000000000048600000000004930000000000480000000000048500000000004830000000000482000000000048303226000000000001225600000000000595259900000000000000009999123100000010000000000000BRBMGBACNPR0101
012020092302BMIN3       010MERC INVEST ON           R$  000000000204000000000020400000000002040000000000204000000000020400000000001901000000000210000001000000000000000100000000000000204000000000000000009999123100000010000000000000BRBMINACNOR4168
012020092302BMIN4       010MERC INVEST PN           R$  000000000192000000000019200000000001851000000000189800000000019200000000001840000000000196000005000000000000000500000000000000949100000000000000009999123100000010000000000000BRBMINACNPR1171
012020092302BMKS3       010BIC MONARK  ON           R$  000000002250000000000235000000000021600000000002215200000000235000000000021501000000002350000010000000000000000028000000000000620275000000000000009999123100000010000000000000BRBMKSACNOR9162
012020092302BNBR3       010NORD BRASIL ON           R$  000000000750000000000080000000000007500000000000783300000000079990000000006000000000000805000003000000000000000300000000000002349900000000000000009999123100000010000000000000BRBNBRACNOR8200
012020092302BOAC34      010BANK AMERICADRN          R$  000000001321400000000132140000000013053000000001314800000000130790000000013053000000001307900004000000000000000210000000000002761170000000000000009999123100000010000000000000BRBOACBDR004140
012020092302BOBR4       010BOMBRIL     PN           R$  000000000020000000000002000000000000195000000000019700000000001950000000000195000000000019900106000000000000044900000000000008865600000000000000009999123100000010000000000000BRBOBRACNPR3128
012020092302BOEI34      010BOEING      DRN          R$  000000008730000000000880000000000085599000000008689400000000855990000000000000000000010850000004000000000000000160000000000013903160000000000000009999123100000010000000000000BRBOEIBDR003132
012020092302BPAC3       010BTGP BANCO  ON      N2   R$  000000000420000000000042000000000003950000000000401500000000040000000000004000000000000410000054000000000000006000000000000024094900000000000000009999123100000010000000000000BRBPACACNOR7122
012020092302BPAC5       010BTGP BANCO  PNA     N2   R$  000000000165100000000016900000000001650000000000166900000000016500000000001630000000000166000031000000000000004700000000000007847200000000000000009999123100000010000000000000BRBPACACNPA0122
012020092302BPAC11      010BTGP BANCO  UNT     N2   R$  000000000735100000000074880000000007256000000000736000000000073130000000007313000000000731718029000000000003919500000000028851405800000000000000009999123100000010000000000000BRBPACUNT006107
012020092302BPAN4       010BANCO PAN   PN      N1   R$  000000000083200000000008320000000000796000000000081000000000008010000000000801000000000080204737000000000002466600000000001999484400000000000000009999123100000010000000000000BRBPANACNPR1109
012020092302BRAP3       010BRADESPAR   ON      N1   R$  000000000384200000000039070000000003833000000000388800000000038770000000003833000000000400000084000000000000021900000000000085162600000000000000009999123100000010000000000000BRBRAPACNOR5136
012020092302BRAP4       010BRADESPAR   PN      N1   R$  000000000444600000000044990000000004382000000000444800000000044680000000004468000000000447113086000000000002664100000000011852103000000000000000009999123100000010000000000000BRBRAPACNPR2136
012020092302BRDT3       010PETROBRAS BRON      NM   R$  000000000211900000000021510000000002082000000000211400000000020850000000002084000000000208520610000000000006058500000000012811560200000000000000009999123100000010000000000000BRBRDTACNOR1120
012020092302BRFS3       010BRF SA      ON      NM   R$  000000000204500000000020510000000001979000000000200300000000019800000000001980000000000198227022000000000008758700000000017548628300000000000000009999123100000010000000000000BRBRFSACNOR8119
012020092302BRGE8       010ALFA CONSORCPND          R$  000000000089900000000009600000000000830000000000088300000000008950000000000700000000000089400061000000000000017400000000000015369700000000000000009999123100000010000000000000BRBRGEACNPD3214
012020092302BRGE12      010ALFA CONSORCPNF          R$  000000000060000000000006280000000000600000000000061800000000006280000000000540000000000062800004000000000000000400000000000000247300000000000000009999123100000010000000000000BRBRGEACNPF8096
012020092302BRIV4       010ALFA INVEST PN           R$  000000000081800000000008200000000000817000000000081800000000008200000000000820000000000083000009000000000000002800000000000002293100000000000000009999123100000010000000000000BRBRIVACNPR3211
012020092302BRKM3       010BRASKEM     ON      N1   R$  000000000218000000000021800000000002088000000000211200000000020880000000002088000000000209300055000000000000012200000000000025766600000000000000009999123100000010000000000000BRBRKMACNOR1117
012020092302BRKM5       010BRASKEM     PNA     N1   R$  000000000225900000000022780000000002120000000000216900000000021240000000002123000000000212413664000000000003296800000000007153665100000000000000009999123100000010000000000000BRBRKMACNPA4117
012020092302BRML3       010BR MALLS PARON      NM   R$  000000000091100000000009250000000000877000000000089500000000008770000000000877000000000087930482000000000018341100000000016420225100000000000000009999123100000010000000000000BRBRMLACNOR9115
012020092302BRPR3       010BR PROPERT  ON      NM   R$  000000000093600000000009500000000000911000000000092400000000009140000000000912000000000091405669000000000001450500000000001340344300000000000000009999123100000010000000000000BRBRPRACNOR9119
012020092302BRSR3       010BANRISUL    ON      N1   R$  000000000140400000000014100000000001380000000000139600000000013800000000001370000000000142400030000000000000007800000000000010891700000000000000009999123100000010000000000000BRBRSRACNOR3168
012020092302BRSR5       010BANRISUL    PNA     N1   R$  000000000212000000000021500000000001950000000000204000000000019520000000001952000000000200000027000000000000002800000000000005712100000000000000009999123100000010000000000000BRBRSRACNPA6172
012020092302BRSR6       010BANRISUL    PNB     N1   R$  000000000123100000000012310000000001193000000000120400000000011950000000001195000000000119710048000000000002635600000000003175714500000000000000009999123100000010000000000000BRBRSRACNPB4171
012020092302BSEV3       010BIOSEV      ON      NM   R$  000000000045000000000004570000000000422000000000043300000000004260000000000426000000000043500410000000000000179800000000000077889000000000000000009999123100000010000000000000BRBSEVACNOR3102
012020092302BTOW3       010B2W DIGITAL ON      NM   R$  000000000939100000000095020000000009105000000000924000000000091400000000009136000000000914014689000000000002916200000000026946474900000000000000009999123100000010000000000000BRBTOWACNOR8111
012020092302BTTL3       010BATTISTELLA ON           R$  000000000120500000000012500000000001168000000000120300000000011900000000001190000000000122300020000000000000003300000000000003970200000000000000009999123100000010000000000000BRBTTLACNOR0108
012020092302C1BO34      010CBOE GLOBAL DRN          R$  000000002501900000000250190000000025019000000002501900000000250190000000000000000000000000000001000000000000000010000000000000250190000000000000009999123100000010000000000000BRC1BOBDR000103
012020092302C1HR34      010CH ROBINSON DRN          R$  000000002849900000000284990000000028499000000002849900000000284990000000000000000000000000000001000000000000000020000000000000569980000000000000009999123100000010000000000000BRC1HRBDR000103
012020092302C1MG34      010CHIPOTLE MEXDRN          R$  000000003520200000000352310000000035200000000003521800000000352000000000000000000000000000000008000000000000001370000000000048248980000000000000009999123100000010000000000000BRC1MGBDR003100
012020092302CAMB3       010CAMBUCI     ON           R$  000000000041100000000004110000000000397000000000040300000000003980000000000397000000000040400046000000000000017100000000000006895700000000000000009999123100000010000000000000BRCAMBACNOR4119
012020092302CAML3       010CAMIL       ON      NM   R$  000000000137500000000013790000000001311000000000133500000000013110000000001311000000000131407798000000000001941700000000002593084400000000000000009999123100000010000000000000BRCAMLACNOR3111
012020092302CARD3       010CSU CARDSYSTON      NM   R$  000000000141100000000014600000000001369000000000141100000000013920000000001392000000000140001102000000000000343800000000000485363700000000000000009999123100000010000000000000BRCARDACNOR9118
012020092302CBEE3       010AMPLA ENERG ON           R$  000000000160000000000016000000000001600000000000160000000000016000000000001503000000000166000001000000000000000100000000000000160000000000000000009999123100000010000000000000BRCBEEACNOR3155
012020092302CCPR3       010CYRE COM-CCPON      NM   R$  000000000140200000000014090000000001319000000000137100000000013440000000001334000000000134401556000000000000311200000000000426815600000000000000009999123100000010000000000000BRCCPRACNOR9114
012020092302CCRO3       010CCR SA      ON      NM   R$  000000000135600000000013980000000001354000000000137400000000013640000000001363000000000136417877000000000005888500000000008095716400000000000000009999123100000010000000000000BRCCROACNOR2137
012020092302CEAB3       010CEA MODAS   ON      NM   R$  000000000125900000000012740000000001182000000000121800000000011970000000001192000000000119705618000000000001980000000000002411998700000000000000009999123100000010000000000000BRCEABACNOR1101
012020092302CEBR3       010CEB         ON           R$  000000000687500000000068750000000006875000000000687500000000068750000000006600000000000700000001000000000000000100000000000000687500000000000000009999123100000010000000000000BRCEBRACNOR5118
012020092302CEBR6       010CEB         PNB          R$  000000000764600000000076460000000006900000000000727700000000072950000000006850000000000760000029000000000000002900000000000021104000000000000000009999123100000010000000000000BRCEBRACNPB6117
012020092302CEDO3       010CEDRO       ON      N1   R$  000000000086500000000008650000000000863000000000086400000000008630000000000850000000000090000002000000000000000700000000000000604900000000000000009999123100000010000000000000BRCEDOACNOR8096
012020092302CEDO4       010CEDRO       PN      N1   R$  000000000052100000000005300000000000510000000000052000000000005300000000000510000000000053300006000000000000000700000000000000364500000000000000009999123100000010000000000000BRCEDOACNPR5128
012020092302CEGR3       010CEG         ON           R$  000000000615900000000064000000000005600000000000600000000000060000000000006000000000000635000065000000000000006700000000000040206600000000000000009999123100000010000000000000BRCEGRACNOR4137
012020092302CEPE5       010CELPE       PNA          R$  000000000289900000000028990000000002650000000000278200000000027200000000002667000000000289900012000000000000001200000000000003338800000000000000009999123100000010000000000000BRCEPEACNPA6163
012020092302CESP3       010CESP        ON      N1   R$  000000000328000000000032880000000003263000000000327000000000032630000000003246000000000326300008000000000000000800000000000002616500000000000000009999123100000010000000000000BRCESPACNOR3169
012020092302CESP6       010CESP        PNB     N1   R$  000000000286300000000029130000000002850000000000288400000000028610000000002860000000000286107950000000000003134000000000009039420800000000000000009999123100000010000000000000BRCESPACNPB4128
012020092302CGAS3       010COMGAS      ON           R$  000000001610000000000161000000000016100000000001610000000000161000000000016000000000001730000001000000000000000100000000000001610000000000000000009999123100000010000000000000BRCGASACNOR0151
012020092302CGAS5       010COMGAS      PNA          R$  000000001776900000000182990000000017600000000001785500000000182990000000017572000000001830000017000000000000001900000000000033925600000000000000009999123100000010000000000000BRCGASACNPA3148
012020092302CGRA3       010GRAZZIOTIN  ON           R$  000000000268000000000027150000000002680000000000268800000000026810000000002675000000000270000010000000000000002100000000000005645200000000000000009999123100000010000000000000BRCGRAACNOR2071
012020092302CGRA4       010GRAZZIOTIN  PN           R$  000000000255100000000026400000000002529000000000257200000000025740000000002550000000000260200087000000000000014800000000000038078100000000000000009999123100000010000000000000BRCGRAACNPR9071
012020092302CHVX34      010CHEVRON     DRN          R$  000000002020300000000202030000000020203000000002020300000000202030000000000000000000002020300001000000000000000060000000000001212180000000000000009999123100000010000000000000BRCHVXBDR008138
012020092302CIEL3       010CIELO       ON      NM   R$  000000000042000000000004260000000000409000000000041900000000004130000000000412000000000041315455000000000035737600000000014994364200000000000000009999123100000010000000000000BRCIELACNOR3142
012020092302CLSC4       010CELESC      PN      N2   R$  000000000534100000000053410000000005330000000000533500000000053300000000005320000000000539000015000000000000002000000000000010671700000000000000009999123100000010000000000000BRCLSCACNPR3115
012020092302CMCS34      010COMCAST     DRN          R$  000000002534700000000253800000000025347000000002537300000000253800000000022000000000002538000002000000000000000050000000000001268670000000000000009999123100000010000000000000BRCMCSBDR008135
012020092302CMIG3       010CEMIG       ON      N1   R$  000000000110700000000011100000000001083000000000109300000000010850000000001085000000000108605039000000000006855700000000007499891000000000000000009999123100000010000000000000BRCMIGACNOR6224
012020092302CMIG4       010CEMIG       PN      N1   R$  000000000106200000000010720000000001039000000000105500000000010410000000001040000000000104122999000000000010299300000000010869115900000000000000009999123100000010000000000000BRCMIGACNPR3225
012020092302CNTO3       010CENTAURO    ON      NM   R$  000000000263700000000026670000000002575000000000262100000000026200000000002611000000000262010205000000000003121100000000008180501800000000000000009999123100000010000000000000BRCNTOACNOR5100
012020092302COCA34      010COCA COLA   DRN ED       R$  000000002720800000000272080000000027208000000002720800000000272080000000022900000000002760000001000000000000000010000000000000272080000000000000009999123100000010000000000000BRCOCABDR002136
012020092302COCE5       010COELCE      PNA          R$  000000000588000000000058800000000005645000000000579400000000058600000000005751000000000586000182000000000000038700000000000224230300000000000000009999123100000010000000000000BRCOCEACNPA3140
012020092302COGN3       010COGNA ON    ON      NM   R$  000000000056500000000005770000000000549000000000055900000000005510000000000550000000000055129393000000000047593400000000026624600000000000000000009999123100000010000000000000BRCOGNACNOR2101
012020092302COTY34      010COTY INC    DRN          R$  000000000087200000000008720000000000857000000000086400000000008600000000000801000000000094900005000000000000006200000000000005359900000000000000009999123100000010000000000000BRCOTYBDR006116
012020092302COWC34      010COSTCO      DRN          R$  000000004813000000000482610000000047879000000004801700000000482610000000047883000000000000000004000000000000001370000000000065784500000000000000009999123100000010000000000000BRCOWCBDR006119
012020092302CPFE3       010CPFL ENERGIAON      NM   R$  000000000287400000000029180000000002844000000000288100000000028440000000002844000000000285012314000000000003055000000000008803614500000000000000009999123100000010000000000000BRCPFEACNOR0130
012020092302CPLE3       010COPEL       ON      N1   R$  000000000620200000000062300000000006078000000000614100000000060780000000006078000000000611901218000000000000230900000000001418070100000000000000009999123100000010000000000000BRCPLEACNOR8139
012020092302CPLE6       010COPEL       PNB     N1   R$  000000000645800000000065040000000006337000000000640000000000063460000000006343000000000634607017000000000001285500000000008228034800000000000000009999123100000010000000000000BRCPLEACNPB9136
012020092302CRDE3       010CR2         ON           R$  000000000222000000000022300000000002220000000000222700000000022300000000002100000000000223000003000000000000000500000000000001113800000000000000009999123100000010000000000000BRCRDEACNOR1112
012020092302CRFB3       010CARREFOUR BRON      NM   R$  000000000211500000000021290000000002042000000000208900000000020500000000002050000000000205216289000000000007540400000000015758156300000000000000009999123100000010000000000000BRCRFBACNOR2107
012020092302CRIV3       010ALFA FINANC ON           R$  000000000066900000000006690000000000618000000000064100000000006180000000000590000000000062900008000000000000001900000000000001218000000000000000009999123100000010000000000000BRCRIVACNOR4194
012020092302CRIV4       010ALFA FINANC PN           R$  000000000062000000000006200000000000620000000000062000000000006200000000000620000000000066000001000000000000000100000000000000062000000000000000009999123100000010000000000000BRCRIVACNPR1204
012020092302CRPG5       010CRISTAL     PNA          R$  000000000201400000000020140000000001990000000000200100000000019900000000001970000000000200500024000000000000004400000000000008807300000000000000009999123100000010000000000000BRCRPGACNPA3108
012020092302CSAN3       010COSAN       ON      NM   R$  000000000717200000000072640000000006896000000000699600000000068960000000006896000000000690014450000000000002463400000000017234655300000000000000009999123100000010000000000000BRCSANACNOR6120
012020092302CSCO34      010CISCO       DRN          R$  000000002163000000000216300000000021360000000002156200000000213600000000020100000000000000000003000000000000000150000000000003234440000000000000009999123100000010000000000000BRCSCOBDR004138
012020092302CSMG3       010COPASA      ON  EJ  NM   R$  000000000492100000000049940000000004817000000000491400000000048700000000004865000000000487004818000000000000733100000000003602919000000000000000009999123100000010000000000000BRCSMGACNOR5157
012020092302CSNA3       010SID NACIONALON           R$  000000000168100000000016950000000001611000000000164300000000016110000000001611000000000161226782000000000014451900000000023754405800000000000000009999123100000010000000000000BRCSNAACNOR6252
012020092302CSRN3       010COSERN      ON           R$  000000000178900000000017890000000001650000000000170600000000017890000000001650000000000178800019000000000000001900000000000003242800000000000000009999123100000010000000000000BRCSRNACNOR0172
012020092302CSRN6       010COSERN      PNB          R$  000000000179800000000018500000000001640000000000175300000000016400000000001611000000000175000018000000000000002000000000000003506600000000000000009999123100000010000000000000BRCSRNACNPB1173
012020092302CTGP34      010CITIGROUP   DRN          R$  000000002354900000000235490000000023477000000002353700000000234770000000020466000000002347700002000000000000000240000000000005648880000000000000009999123100000010000000000000BRCTGPBDR000139
012020092302CTKA4       010KARSTEN     PN           R$  000000000118000000000011950000000001180000000000118100000000011950000000001185000000000120000006000000000000002700000000000003189500000000000000009999123100000010000000000000BRCTKAACNPR7043
012020092302CTNM4       010COTEMINAS   PN           R$  000000000056800000000005680000000000532000000000054300000000005360000000000536000000000054200066000000000000020500000000000011150900000000000000009999123100000010000000000000BRCTNMACNPR6129
012020092302CTSA3       010SANTANENSE  ON           R$  000000000024800000000002490000000000242000000000024400000000002450000000000243000000000024500013000000000000002200000000000000538300000000000000009999123100000010000000000000BRCTSAACNOR3060
012020092302CTSA4       010SANTANENSE  PN           R$  000000000021500000000002150000000000211000000000021100000000002110000000000211000000000021400020000000000000006500000000000001373700000000000000009999123100000010000000000000BRCTSAACNPR0060
012020092302CURY3       010CURY S/A    ON      NM   R$  000000000096300000000009730000000000953000000000096200000000009640000000000962000000000096805038000000000002641500000000002543289100000000000000009999123100000010000000000000BRCURYACNOR3100
012020092302CVCB3       010CVC BRASIL  ON      NM   R$  000000000163000000000016880000000001622000000000164900000000016360000000001635000000000163614259000000000004775100000000007877521800000000000000009999123100000010000000000000BRCVCBACNOR1113
012020092302CVSH34      010CVS HEALTH  DRN          R$  000000001605500000000160780000000016055000000001605600000000160590000000015100000000001690000003000000000000000160000000000002569110000000000000009999123100000010000000000000BRCVSHBDR008117
012020092302CYRE3       010CYRELA REALTON      NM   R$  000000000234300000000023680000000002269000000000231000000000022880000000002285000000000228823381000000000005216200000000012050062500000000000000009999123100000010000000000000BRCYREACNOR7134
012020092302DEAI34      010DELTA       DRN          R$  000000001684000000000168400000000016840000000001684000000000168400000000011500000000002300000001000000000000000010000000000000168400000000000000009999123100000010000000000000BRDEAIBDR008116
012020092302DGCO34      010DOLLAR GENERDRN          R$  000000005735000000000573500000000057350000000005735000000000573500000000000000000000000000000001000000000000000020000000000001147000000000000000009999123100000010000000000000BRDGCOBDR007105
012020092302DIRR3       010DIRECIONAL  ON      NM   R$  000000000139100000000013950000000001351000000000137000000000013600000000001355000000000136002735000000000000484500000000000664230400000000000000009999123100000010000000000000BRDIRRACNOR0112
012020092302DISB34      010WALT DISNEY DRN          R$  000000006950000000000695140000000068872000000006900700000000688720000000068100000000006941000012000000000000000920000000000063487010000000000000009999123100000010000000000000BRDISBBDR006114
012020092302DMMO3       010DOMMO       ON           R$  000000000011000000000001110000000000105000000000010800000000001080000000000107000000000010800941000000000002020000000000000218964600000000000000009999123100000010000000000000BRDMMOACNOR0102
012020092302DMVF3       010D1000VFARMA ON      NM   R$  000000000133500000000014490000000001330000000000139100000000014180000000001411000000000141807827000000000003940700000000005483095100000000000000009999123100000010000000000000BRDMVFACNOR9100
012020092302DOHL3       010DOHLER      ON           R$  000000000130100000000013010000000001200000000000123700000000012070000000001206000000000140000015000000000000001500000000000001856400000000000000009999123100000010000000000000BRDOHLACNOR2058
012020092302DOHL4       010DOHLER      PN           R$  000000000049700000000005000000000000497000000000049900000000005000000000000477000000000049700003000000000000000500000000000000249700000000000000009999123100000010000000000000BRDOHLACNPR9061
012020092302DTCY3       010DTCOM-DIRECTON           R$  000000000064600000000006470000000000646000000000064600000000006460000000000646000000000066500003000000000000000300000000000000193900000000000000009999123100000010000000000000BRDTCYACNOR5109
012020092302DTEX3       010DURATEX     ON      NM   R$  000000000171100000000017270000000001686000000000170500000000016960000000001696000000000170209575000000000002190700000000003737187600000000000000009999123100000010000000000000BRDTEXACNOR3128
012020092302E1QR34      010EQUITY RESIDDRN          R$  000000001476000000000147600000000014760000000001476000000000147600000000000000000000000000000003000000000000000650000000000009594000000000000000009999123100000010000000000000BRE1QRBDR009101
012020092302E1SS34      010ESSEX PROPERDRN          R$  000000001129000000000112900000000011290000000001129000000000112900000000000000000000000000000001000000000000000430000000000004854700000000000000009999123100000010000000000000BRE1SSBDR003102
012020092302EAIN34      010ELECTR ARTS DRN          R$  000000003624200000000365000000000035929000000003616000000000359290000000034000000000000000000006000000000000000110000000000003977630000000000000009999123100000010000000000000BREAINBDR007100
012020092302EALT3       010ACO ALTONA  ON           R$  000000000119500000000011950000000001190000000000119000000000011900000000001190000000000121300006000000000000001500000000000001786400000000000000009999123100000010000000000000BREALTACNOR4133
012020092302EALT4       010ACO ALTONA  PN           R$  000000000051600000000005280000000000513000000000052100000000005260000000000515000000000052500037000000000000013900000000000007255400000000000000009999123100000010000000000000BREALTACNPR1133
012020092302EBAY34      010EBAY        DRN          R$  000000001401900000000142500000000014019000000001408400000000142500000000013990000000000000000004000000000000000750000000000010563450000000000000009999123100000010000000000000BREBAYBDR009108
012020092302ECOR3       010ECORODOVIAS ON      NM   R$  000000000126900000000012990000000001258000000000127900000000012650000000001263000000000126515841000000000005821300000000007447852500000000000000009999123100000010000000000000BRECORACNOR8116
012020092302EEEL3       010CEEE-GT     ON      N1   R$  000000003799900000000379990000000037999000000003799900000000379990000000033005000000003800000001000000000000000100000000000003799900000000000000009999123100000010000000000000BREEELACNOR8107
012020092302EEEL4       010CEEE-GT     PN      N1   R$  000000004215800000000450000000000042158000000004357900000000450000000000010000000000005000000002000000000000000200000000000008715800000000000000009999123100000010000000000000BREEELACNPR5107
012020092302EGIE3       010ENGIE BRASILON      NM   R$  000000000422900000000042440000000004140000000000419000000000041400000000004140000000000415406839000000000001196700000000005015294700000000000000009999123100000010000000000000BREGIEACNOR9113
012020092302EKTR4       010ELEKTRO     PN           R$  000000000205000000000021500000000001950000000000208700000000021500000000002100000000000218000022000000000000003200000000000006681400000000000000009999123100000010000000000000BREKTRACNPR7144
012020092302ELET3       010ELETROBRAS  ON      N1   R$  000000000323300000000032660000000003178000000000321200000000031780000000003178000000000318619014000000000004574400000000014696738600000000000000009999123100000010000000000000BRELETACNOR6155
012020092302ELET5       010ELETROBRAS  PNA     N1   R$  000000000410000000000044570000000004050000000000415600000000040500000000003519000000000430000017000000000000002500000000000010390300000000000000009999123100000010000000000000BRELETACNPA9072
012020092302ELET6       010ELETROBRAS  PNB     N1   R$  000000000335200000000033840000000003282000000000332300000000032870000000003287000000000328911197000000000002317200000000007700164800000000000000009999123100000010000000000000BRELETACNPB7072
012020092302EMAE4       010EMAE        PN           R$  000000000335000000000034200000000003300000000000336700000000033510000000003350000000000341000016000000000000005100000000000017175000000000000000009999123100000010000000000000BREMAEACNPR1114
012020092302EMBR3       010EMBRAER     ON      NM   R$  000000000062000000000006360000000000603000000000061600000000006040000000000604000000000060619927000000000014337200000000008844959200000000000000009999123100000010000000000000BREMBRACNOR4189
012020092302ENAT3       010ENAUTA PART ON      NM   R$  000000000103200000000010360000000001010000000000101700000000010130000000001012000000000101305715000000000001259800000000001281586900000000000000009999123100000010000000000000BRENATACNOR0101
012020092302ENBR3       010ENERGIAS BR ON      NM   R$  000000000182200000000018360000000001782000000000181000000000017870000000001787000000000179110096000000000002200200000000003984530500000000000000009999123100000010000000000000BRENBRACNOR2129
012020092302ENEV3       010ENEVA       ON      NM   R$  000000000510200000000052960000000005102000000000518900000000051610000000005148000000000516107916000000000001291900000000006703830600000000000000009999123100000010000000000000BRENEVACNOR8104
012020092302ENGI3       010ENERGISA    ON      N2   R$  000000000128900000000012890000000001252000000000125800000000012530000000001253000000000126300056000000000000006200000000000007801600000000000000009999123100000010000000000000BRENGIACNOR0138
012020092302ENGI4       010ENERGISA    PN      N2   R$  000000000074800000000007540000000000723000000000073400000000007230000000000722000000000073500090000000000000018700000000000013728900000000000000009999123100000010000000000000BRENGIACNPR7134
012020092302ENGI11      010ENERGISA    UNT     N2   R$  000000000427500000000042940000000004132000000000419800000000041540000000004142000000000415406169000000000001077600000000004524665700000000000000009999123100000010000000000000BRENGICDAM16128
012020092302ENMT3       010ENERGISA MT ON           R$  000000000298900000000029900000000002700000000000285600000000029900000000002750000000000297800023000000000000002300000000000006570400000000000000009999123100000010000000000000BRENMTACNOR5111
012020092302ENMT4       010ENERGISA MT PN           R$  000000000290000000000029900000000002900000000000295600000000029900000000002600000000000299000003000000000000000300000000000000887000000000000000009999123100000010000000000000BRENMTACNPR2114
012020092302EQPA3       010EQTL PARA   ON           R$  000000000032900000000003290000000000313000000000031800000000003140000000000314000000000031900027000000000000005400000000000001718900000000000000009999123100000010000000000000BREQPAACNOR1101
012020092302EQTL3       010EQUATORIAL  ON      NM   R$  000000000223900000000022600000000002208000000000223500000000022120000000002212000000000221417058000000000005094000000000011389303500000000000000009999123100000010000000000000BREQTLACNOR0126
012020092302ESTR4       010ESTRELA     PN           R$  000000000281000000000028100000000002750000000000279300000000027990000000002650000000000280000004000000000000000600000000000001675800000000000000009999123100000010000000000000BRESTRACNPR0143
012020092302EUCA3       010EUCATEX     ON      N1   R$  000000000220200000000022020000000002200000000000220000000000022000000000002200000000000225500007000000000000002300000000000005060600000000000000009999123100000010000000000000BREUCAACNOR1151
012020092302EUCA4       010EUCATEX     PN      N1   R$  000000000065700000000006600000000000623000000000064100000000006300000000000630000000000063700225000000000000091200000000000058499500000000000000009999123100000010000000000000BREUCAACNPR8038
012020092302EVEN3       010EVEN        ON      NM   R$  000000000117500000000011860000000001127000000000114600000000011490000000001145000000000114906716000000000001626100000000001863876400000000000000009999123100000010000000000000BREVENACNOR8112
012020092302EXXO34      010EXXON MOBIL DRN          R$  000000000487000000000048810000000004819000000000484300000000048250000000004801000000000482500013000000000000000610000000000002954440000000000000009999123100000010000000000000BREXXOBDR006140
012020092302EZTC3       010EZTEC       ON      NM   R$  000000000374900000000037900000000003620000000000367600000000036390000000003636000000000363909264000000000001700400000000006251226300000000000000009999123100000010000000000000BREZTCACNOR0114
012020092302F1EC34      010FIRSTENERGY DRN          R$  000000001582500000000158250000000015825000000001582500000000158250000000012632000000000000000001000000000000000300000000000004747500000000000000009999123100000010000000000000BRF1ECBDR006103
012020092302FBOK34      010FACEBOOK    DRN          R$  000000007020000000000712110000000069581000000007027800000000695810000000069000000000007490000036000000000000002670000000000187644760000000000000009999123100000010000000000000BRFBOKBDR006100
012020092302FDXB34      010FEDEX CORP  DRN          R$  000000013679900000001383950000000136799000000013779700000001373000000000000000000000000000000003000000000000000090000000000012401730000000000000009999123100000010000000000000BRFDXBBDR002128
012020092302FESA3       010FERBASA     ON      N1   R$  000000000259000000000026950000000002580000000000262300000000025950000000002411000000000269400008000000000000001300000000000003411100000000000000009999123100000010000000000000BRFESAACNOR8171
012020092302FESA4       010FERBASA     PN      N1   R$  000000000177000000000017850000000001740000000000176700000000017760000000001776000000000177700537000000000000126400000000000223364600000000000000009999123100000010000000000000BRFESAACNPR5067
012020092302FLRY3       010FLEURY      ON      NM   R$  000000000288700000000029070000000002756000000000284800000000027890000000002789000000000279012400000000000002873000000000008184721100000000000000009999123100000010000000000000BRFLRYACNOR5127
012020092302FRAS3       010FRAS-LE     ON      N1   R$  000000000057300000000005950000000000555000000000056700000000005620000000000562000000000056300861000000000000407000000000000230995800000000000000009999123100000010000000000000BRFRASACNOR0149
012020092302GEOO34      010GE          DRN          R$  000000000342700000000034280000000003427000000000342700000000034270000000002989000000000342700004000000000000000160000000000000548330000000000000009999123100000010000000000000BRGEOOBDR000140
012020092302GEPA3       010GER PARANAP ON           R$  000000000419300000000041930000000004193000000000419300000000041930000000004002000000000444300001000000000000000200000000000000838600000000000000009999123100000010000000000000BRGEPAACNOR2146
012020092302GEPA4       010GER PARANAP PN           R$  000000000450800000000045180000000004499000000000450800000000045180000000004420000000000451800007000000000000001000000000000004508800000000000000009999123100000010000000000000BRGEPAACNPR9153
012020092302GFSA3       010GAFISA      ON      NM   R$  000000000044000000000004460000000000423000000000043300000000004240000000000424000000000042504448000000000004182500000000001813665700000000000000009999123100000010000000000000BRGFSAACNOR3119
012020092302GGBR3       010GERDAU      ON      N1   R$  000000000172200000000017220000000001680000000000169800000000017040000000001696000000000170400238000000000000068400000000000116200800000000000000009999123100000010000000000000BRGGBRACNOR1173
012020092302GGBR4       010GERDAU      PN      N1   R$  000000000206000000000021050000000002042000000000207300000000020650000000002064000000000206721170000000000011575200000000023997342400000000000000009999123100000010000000000000BRGGBRACNPR8173
012020092302GILD34      010GILEAD      DRN ED       R$  000000001769100000000176910000000017691000000001769100000000176910000000017390000000000000000001000000000000000200000000000003538200000000000000009999123100000010000000000000BRGILDBDR000118
012020092302GMCO34      010GENERAL MOT DRN          R$  000000001621200000000165370000000016212000000001633500000000165370000000016250000000000000000004000000000000000070000000000001143460000000000000009999123100000010000000000000BRGMCOBDR008115
012020092302GNDI3       010INTERMEDICA ON      NM   R$  000000000672700000000068870000000006646000000000674800000000066810000000006681000000000668615221000000000002483500000000016759643800000000000000009999123100000010000000000000BRGNDIACNOR2102
012020092302GOAU3       010GERDAU MET  ON      N1   R$  000000000081900000000008190000000000806000000000081200000000008090000000000809000000000081400120000000000000034400000000000027940600000000000000009999123100000010000000000000BRGOAUACNOR1250
012020092302GOAU4       010GERDAU MET  PN      N1   R$  000000000093300000000009440000000000920000000000093200000000009290000000000928000000000092914901000000000015018800000000014010136200000000000000009999123100000010000000000000BRGOAUACNPR8251
012020092302GOGL34      010ALPHABET    DRN A        R$  000000003205000000000321300000000031381000000003169600000000315380000000031155000000003153800084000000000000011450000000000362928210000000000000009999123100000010000000000000BRGOGLBDR001100
012020092302GOGL35      010ALPHABET    DRN C        R$  000000003165800000000316790000000031658000000003166500000000316640000000000000000000003166400003000000000000000050000000000001583290000000000000009999123100000010000000000000BRGOGLBDR019100
012020092302GOLL4       010GOL         PN      N2   R$  000000000183200000000018550000000001780000000000181000000000017860000000001786000000000178724291000000000010819900000000019585392100000000000000009999123100000010000000000000BRGOLLACNPR4125
012020092302GPIV33      010GP INVEST   DR3          R$  000000000047000000000004840000000000425000000000045700000000004460000000000445000000000044900100000000000000086100000000000039383100000000000000009999123100000010000000000000BRGPIVBDR003104
012020092302GRND3       010GRENDENE    ON      NM   R$  000000000077100000000007760000000000758000000000076500000000007620000000000762000000000076403618000000000001059900000000000811747800000000000000009999123100000010000000000000BRGRNDACNOR3158
012020092302GSGI34      010GOLDMANSACHSDRN          R$  000000001058100000000105810000000010436000000001057500000000104360000000000000000000000000000002000000000000000280000000000002961230000000000000009999123100000010000000000000BRGSGIBDR008140
012020092302GSHP3       010GENERALSHOPPON      NM   R$  000000000476000000000047600000000004750000000000475300000000047500000000004750000000000484000009000000000000001400000000000006655000000000000000009999123100000010000000000000BRGSHPACNOR7102
012020092302GUAR3       010GUARARAPES  ON           R$  000000000155500000000015790000000001522000000000153800000000015240000000001523000000000152702417000000000000601900000000000926262100000000000000009999123100000010000000000000BRGUARACNOR4165
012020092302H1IG34      010HARTFORD FINDRN          R$  000000001982000000000198200000000019820000000001982000000000198200000000015768000000000000000002000000000000000400000000000007928000000000000000009999123100000010000000000000BRH1IGBDR006103
012020092302HAGA3       010HAGA S/A    ON           R$  000000000031500000000003150000000000295000000000030200000000003120000000000301000000000031200014000000000000005000000000000001511600000000000000009999123100000010000000000000BRHAGAACNOR7103
012020092302HAGA4       010HAGA S/A    PN           R$  000000000018500000000001870000000000183000000000018600000000001850000000000184000000000018500030000000000000009000000000000001675600000000000000009999123100000010000000000000BRHAGAACNPR4103
012020092302HALI34      010HALLIBURTON DRN          R$  000000000728900000000072890000000007289000000000728900000000072890000000006040000000000000000001000000000000000060000000000000437340000000000000009999123100000010000000000000BRHALIBDR004135
012020092302HAPV3       010HAPVIDA     ON      NM   R$  000000000622300000000063580000000006200000000000627600000000062640000000006245000000000626411337000000000001788600000000011226606600000000000000009999123100000010000000000000BRHAPVACNOR4106
012020092302HBOR3       010HELBOR      ON      NM   R$  000000000105900000000010850000000001015000000000104300000000010300000000001023000000000103003858000000000001630100000000001701012600000000000000009999123100000010000000000000BRHBORACNOR3114
012020092302HBTS5       010HABITASUL   PNA          R$  000000000265000000000026500000000002599000000000262400000000025990000000002315000000000259900007000000000000000700000000000001836900000000000000009999123100000010000000000000BRHBTSACNPA3124
012020092302HETA4       010HERCULES    PN           R$  000000000075200000000007520000000000752000000000075200000000007520000000000753000000000079600001000000000000000100000000000000075200000000000000009999123100000010000000000000BRHETAACNPR9136
012020092302HGTX3       010CIA HERING  ON      NM   R$  000000000178500000000018070000000001744000000000177000000000017550000000001755000000000175909590000000000002239200000000003965225600000000000000009999123100000010000000000000BRHGTXACNOR9151
012020092302HOME34      010HOME DEPOT  DRN          R$  000000007424300000000742430000000074243000000007424300000000742430000000000000000000000000000001000000000000001100000000000081667300000000000000009999123100000010000000000000BRHOMEBDR002134
012020092302HYPE3       010HYPERA      ON      NM   R$  000000000307000000000030830000000002973000000000303700000000029730000000002973000000000298114629000000000002687100000000008161514800000000000000009999123100000010000000000000BRHYPEACNOR0122
012020092302I1VZ34      010INVESCO LTD DRN          R$  000000000579200000000057920000000005792000000000579200000000057920000000000000000000000579200001000000000000000700000000000004054400000000000000009999123100000010000000000000BRI1VZBDR008103
012020092302IDVL3       010INDUSVAL    ON      N2   R$  000000000024300000000002450000000000243000000000024300000000002440000000000242000000000024400009000000000000001800000000000000438300000000000000009999123100000010000000000000BRIDVLACNOR5130
012020092302IDVL4       010INDUSVAL    PN      N2   R$  000000000024500000000002510000000000239000000000024400000000002430000000000239000000000024400021000000000000007300000000000001784200000000000000009999123100000010000000000000BRIDVLACNPR2130
012020092302IGTA3       010IGUATEMI    ON      NM   R$  000000000334500000000033680000000003243000000000330400000000032580000000003252000000000325810072000000000002911800000000009621924700000000000000009999123100000010000000000000BRIGTAACNOR5124
012020092302INTU34      010INTUIT INC  DRN          R$  000000004330600000000433060000000043270000000004330300000000432700000000000000000000000000000005000000000000000890000000000038540130000000000000009999123100000010000000000000BRINTUBDR003105
012020092302IRBR3       010IRBBRASIL REON      NM   R$  000000000060000000000006480000000000599000000000062600000000006300000000000630000000000063156112000000000094200400000000059018995600000000000000009999123100000010000000000000BRIRBRACNOR4108
012020092302ITLC34      010INTEL       DRN          R$  000000002751100000000275110000000027358000000002749700000000273630000000027000000000002736300008000000000000000570000000000015673800000000000000009999123100000010000000000000BRITLCBDR005139
012020092302ITSA3       010ITAUSA      ON      N1   R$  000000000103600000000010360000000001005000000000102100000000010050000000001005000000000101700508000000000000146200000000000149356000000000000000009999123100000010000000000000BRITSAACNOR0401
012020092302ITSA4       010ITAUSA      PN      N1   R$  000000000089400000000009010000000000880000000000089000000000008800000000000879000000000088033999000000000023778100000000021177859900000000000000009999123100000010000000000000BRITSAACNPR7401
012020092302ITUB3       010ITAUUNIBANCOON      N1   R$  000000000219400000000022020000000002151000000000216900000000021520000000002152000000000215301352000000000000333300000000000723171800000000000000009999123100000010000000000000BRITUBACNOR4273
012020092302ITUB4       010ITAUUNIBANCOPN      N1   R$  000000000229200000000023130000000002247000000000227500000000022480000000002248000000000225046320000000000024621300000000056030961000000000000000009999123100000010000000000000BRITUBACNPR1273
012020092302JBDU3       010J B DUARTE  ON           R$  000000000021900000000002230000000000206000000000021300000000002120000000000212000000000021500057000000000000015100000000000003220600000000000000009999123100000010000000000000BRJBDUACNOR6142
012020092302JBDU4       010J B DUARTE  PN           R$  000000000012300000000001250000000000120000000000012200000000001210000000000121000000000012300128000000000000078100000000000009531700000000000000009999123100000010000000000000BRJBDUACNPR3142
012020092302JBSS3       010JBS         ON      NM   R$  000000000227000000000022700000000002160000000000219000000000021620000000002161000000000216235158000000000016664600000000036509570000000000000000009999123100000010000000000000BRJBSSACNOR8115
012020092302JDCO34      010JD COM      DRN          R$  000000004200000000000422310000000041411000000004170200000000417890000000041620000000004200000024000000000000000930000000000038783640000000000000009999123100000010000000000000BRJDCOBDR001100
012020092302JHSF3       010JHSF PART   ON      NM   R$  000000000072300000000007440000000000701000000000071600000000007040000000000704000000000070512098000000000006699700000000004797622500000000000000009999123100000010000000000000BRJHSFACNOR2116
012020092302JNJB34      010JOHNSON     DRN          R$  000000008080000000000810060000000080200000000008065500000000809420000000070000000000008094200011000000000000002330000000000187927480000000000000009999123100000010000000000000BRJNJBBDR002135
012020092302JOPA3       010JOSAPAR     ON           R$  000000000334500000000033480000000003050000000000321400000000031620000000003160000000000334900007000000000000000700000000000002250200000000000000009999123100000010000000000000BRJOPAACNOR5131
012020092302JOPA4       010JOSAPAR     PN           R$  000000000277000000000027700000000002770000000000277000000000027700000000002800000000000400000001000000000000000100000000000000277000000000000000009999123100000010000000000000BRJOPAACNPR2131
012020092302JPMC34      010JPMORGAN    DRN          R$  000000002611000000000261100000000025872000000002593000000000260020000000025000000000002600200004000000000000000570000000000014780490000000000000009999123100000010000000000000BRJPMCBDR009134
012020092302JPSA3       010JEREISSATI  ON           R$  000000000223500000000022350000000002156000000000218900000000021760000000002161000000000217601123000000000000231400000000000506661300000000000000009999123100000010000000000000BRJPSAACNOR6103
012020092302JSLG11      010JSL         ON  P   NM   R$  000000000087700000000009190000000000841000000000085300000000008650000000000865000000000087001096000000000000267000000000000227938800000000000000009999123100000010000000000000BRJSLGA02OR1100
012020092302KEPL3       010KEPLER WEBERON           R$  000000000410400000000041040000000004014000000000405200000000040310000000004031000000000405600435000000000000080800000000000327443300000000000000009999123100000010000000000000BRKEPLACNOR1049
012020092302KHCB34      010KRAFT HEINZ DRN          R$  000000001615000000000161500000000016150000000001615000000000161500000000000000000000001650000001000000000000000010000000000000161500000000000000009999123100000010000000000000BRKHCBBDR007121
012020092302KLBN3       010KLABIN S/A  ON      N2   R$  000000000050900000000005110000000000492000000000050200000000005050000000000505000000000050700943000000000000324100000000000162783500000000000000009999123100000010000000000000BRKLBNACNOR2156
012020092302KLBN4       010KLABIN S/A  PN      N2   R$  000000000048100000000004840000000000469000000000047600000000004780000000000478000000000047902319000000000001168300000000000556373700000000000000009999123100000010000000000000BRKLBNACNPR9156
012020092302KLBN11      010KLABIN S/A  UNT     N2   R$  000000000241700000000024390000000002377000000000241200000000024260000000002425000000000242618866000000000005262700000000012696864400000000000000009999123100000010000000000000BRKLBNCDAM18128
012020092302L1HX34      010L3HARRIS TECDRN          R$  000000002483800000000248380000000024838000000002483800000000248380000000000000000000000000000001000000000000000250000000000006209500000000000000009999123100000010000000000000BRL1HXBDR007103
012020092302L1RC34      010LAM RESEARCHDRN          R$  000000004403700000000440370000000044037000000004403700000000440370000000000000000000000000000001000000000000000020000000000000880740000000000000009999123100000010000000000000BRL1RCBDR000102
012020092302L1UL34      010LULULEMON ATDRN          R$  000000004430500000000443050000000044250000000004428000000000442500000000000000000000000000000003000000000000000090000000000003985250000000000000009999123100000010000000000000BRL1ULBDR005100
012020092302L1YB34      010LYONDELLBASEDRN          R$  000000002027800000000202780000000019700000000001998900000000197000000000000000000000000000000002000000000000000020000000000000399780000000000000009999123100000010000000000000BRL1YBBDR008103
012020092302LAME3       010LOJAS AMERICON      N1   R$  000000000250500000000025170000000002421000000000246500000000024590000000002459000000000246012348000000000002850300000000007027362900000000000000009999123100000010000000000000BRLAMEACNOR9202
012020092302LAME4       010LOJAS AMERICPN      N1   R$  000000000290700000000029380000000002797000000000286500000000028870000000002886000000000288733669000000000012239300000000035068700600000000000000009999123100000010000000000000BRLAMEACNPR6202
012020092302LAVV3       010LAVVI       ON      NM   R$  000000000079300000000007930000000000760000000000076900000000007740000000000769000000000077401315000000000001118600000000000860847400000000000000009999123100000010000000000000BRLAVVACNOR4100
012020092302LBRN34      010L BRANDS    DRN          R$  000000000427600000000042760000000004276000000000427600000000042760000000000000000000000000000001000000000000000230000000000000983480000000000000009999123100000010000000000000BRLBRNBDR001119
012020092302LCAM3       010LOCAMERICA  ON  EJ  NM   R$  000000000255200000000025950000000002431000000000251800000000024850000000002484000000000248558797000000000033728100000000084940192700000000000000009999123100000010000000000000BRLCAMACNOR3134
012020092302LEVE3       010METAL LEVE  ON      NM   R$  000000000171500000000017310000000001680000000000169900000000016900000000001684000000000169002001000000000000332100000000000564287800000000000000009999123100000010000000000000BRLEVEACNOR2187
012020092302LIGT3       010LIGHT S/A   ON      NM   R$  000000000147200000000015110000000001461000000000148600000000014670000000001467000000000146809594000000000002875500000000004274795500000000000000009999123100000010000000000000BRLIGTACNOR2120
012020092302LINX3       010LINX        ON      NM   R$  000000000349200000000035100000000003450000000000347700000000034700000000003464000000000347109026000000000002118100000000007365852600000000000000009999123100000010000000000000BRLINXACNOR0118
012020092302LIPR3       010ELETROPAR   ON           R$  000000000660000000000066000000000006550000000000657500000000065500000000006500000000000675000002000000000000000200000000000001315000000000000000009999123100000010000000000000BRLIPRACNOR7117
012020092302LJQQ3       010QUERO-QUERO ON      NM   R$  000000000151500000000015800000000001485000000000152500000000014950000000001494000000000149506138000000000001742800000000002658623000000000000000009999123100000010000000000000BRLJQQACNOR5100
012020092302LOGG3       010LOG COM PROPON      NM   R$  000000000306100000000030920000000002910000000000296800000000029100000000002909000000000291002538000000000000411200000000001220534800000000000000009999123100000010000000000000BRLOGGACNOR7103
012020092302LOGN3       010LOG-IN      ON      NM   R$  000000000163800000000016480000000001604000000000161800000000016200000000001619000000000162202939000000000000872900000000001413134100000000000000009999123100000010000000000000BRLOGNACNOR3104
012020092302LPSB3       010LOPES BRASILON      NM   R$  000000000052400000000005380000000000497000000000051500000000005000000000000500000000000050102461000000000001366700000000000704832100000000000000009999123100000010000000000000BRLPSBACNOR0111
012020092302LREN3       010LOJAS RENNERON  EJ  NM   R$  000000000418000000000042160000000004004000000000407100000000040040000000004004000000000400537621000000000008955900000000036463298800000000000000009999123100000010000000000000BRLRENACNOR1204
012020092302LUXM4       010TREVISA     PN           R$  000000000468000000000046800000000004650000000000466500000000046500000000003803000000000467000002000000000000000200000000000000933000000000000000009999123100000010000000000000BRLUXMACNPR4047
012020092302LWSA3       010LOCAWEB     ON      NM   R$  000000000598600000000060900000000005810000000000596700000000058230000000005822000000000582508403000000000001404200000000008379767400000000000000009999123100000010000000000000BRLWSAACNOR8100
012020092302MCDC34      010MCDONALDS   DRN          R$  000000003029900000000302990000000029906000000003006400000000299060000000000000000000000000000018000000000000004450000000000133787750000000000000009999123100000010000000000000BRMCDCBDR000140
012020092302MDIA3       010M.DIASBRANCOON      NM   R$  000000000363300000000037000000000003550000000000359900000000035610000000003561000000000356505840000000000001193900000000004297710000000000000000009999123100000010000000000000BRMDIAACNOR7118
012020092302MDNE3       010MOURA DUBEUXON      NM   R$  000000000088100000000009350000000000878000000000090600000000009200000000000911000000000092002770000000000000598300000000000542366900000000000000009999123100000010000000000000BRMDNEACNOR9100
012020092302MDTC34      010MEDTRONIC   DRN          R$  000000002916000000000291600000000029160000000002916000000000291600000000000000000000000000000001000000000000000010000000000000291600000000000000009999123100000010000000000000BRMDTCBDR004117
012020092302MEAL3       010IMC S/A     ON      NM   R$  000000000033200000000003430000000000324000000000033300000000003360000000000335000000000033615912000000000015539500000000005188200700000000000000009999123100000010000000000000BRMEALACNOR9105
012020092302MELI34      010MERCADOLIBREDRN          R$  000000005900000000000593990000000056002000000005822100000000560020000000056001000000005750000063000000000000007110000000000413952480000000000000009999123100000010000000000000BRMELIBDR006100
012020092302MGEL4       010MANGELS INDLPN           R$  000000000058000000000005800000000000580000000000058000000000005800000000000575000000000062000001000000000000000100000000000000058000000000000000009999123100000010000000000000BRMGELACNPR3147
012020092302MGLU3       010MAGAZ LUIZA ON      NM   R$  000000000894900000000089970000000008621000000000878600000000086480000000008648000000000865042883000000000010835300000000095199877600000000000000009999123100000010000000000000BRMGLUACNOR2116
012020092302MILS3       010MILLS       ON      NM   R$  000000000062600000000006360000000000591000000000060600000000006000000000000600000000000060103555000000000001839100000000001114793700000000000000009999123100000010000000000000BRMILSACNOR2112
012020092302MMMC34      0103M          DRN          R$  000000002255900000000225590000000022559000000002255900000000225590000000015000000000000000000001000000000000000080000000000001804720000000000000009999123100000010000000000000BRMMMCBDR000134
012020092302MNDL3       010MUNDIAL     ON           R$  000000000225000000000022600000000002200000000000223100000000022600000000002260000000000245000006000000000000004200000000000009372000000000000000009999123100000010000000000000BRMNDLACNOR4107
012020092302MNPR3       010MINUPAR     ON           R$  000000000057300000000006080000000000565000000000059000000000005800000000000563000000000059500021000000000000002900000000000001711100000000000000009999123100000010000000000000BRMNPRACNOR5122
012020092302MOAR3       010MONT ARANHA ON           R$  000000002039000000000204000000000020390000000002039500000000204000000000019000000000002075000002000000000000000400000000000008158000000000000000009999123100000010000000000000BRMOARACNOR5212
012020092302MOVI3       010MOVIDA      ON      NM   R$  000000000168000000000018040000000001660000000000175800000000017910000000001790000000000179126079000000000009177000000000016137741100000000000000009999123100000010000000000000BRMOVIACNOR0111
012020092302MRCK34      010MERCK       DRN ED       R$  000000004632400000000463240000000046324000000004632400000000463240000000000000000000000000000001000000000000000010000000000000463240000000000000009999123100000010000000000000BRMRCKBDR003140
012020092302MRFG3       010MARFRIG     ON      NM   R$  000000000162900000000016290000000001541000000000156400000000015630000000001559000000000156338551000000000020319300000000031791761900000000000000009999123100000010000000000000BRMRFGACNOR0109
012020092302MRSA3B      010MRS LOGIST  ON      MB   R$  000000000400000000000040000000000003700000000000384100000000039000000000003500000000000382000102000000000000010200000000000039185200000000000000009999123100000010000000000000BRMRSAACNOR6120
012020092302MRVE3       010MRV         ON      NM   R$  000000000166900000000016960000000001634000000000165800000000016380000000001637000000000163814051000000000003926100000000006511355300000000000000009999123100000010000000000000BRMRVEACNOR2120
012020092302MSBR34      010MORGAN STAN DRN          R$  000000002652000000000265200000000026520000000002652000000000265200000000000000000000000000000002000000000000000160000000000004243200000000000000009999123100000010000000000000BRMSBRBDR008129
012020092302MSCD34      010MASTERCARD  DRN          R$  000000018171600000001817160000000181716000000018171600000001817160000000151600000000000000000001000000000000000400000000000072686400000000000000009999123100000010000000000000BRMSCDBDR006137
012020092302MSFT34      010MICROSOFT   DRN          R$  000000011403800000001143000000000112000000000011263600000001123970000000111091000000011239700029000000000000002030000000000228651710000000000000009999123100000010000000000000BRMSFTBDR005139
012020092302MTIG4       010METAL IGUACUPN           R$  000000000430000000000043000000000004000000000000411200000000040000000000003575000000000400000017000000000000001800000000000007402100000000000000009999123100000010000000000000BRMTIGACNPR7086
012020092302MTRE3       010MITRE REALTYON      NM   R$  000000000143100000000014340000000001387000000000140000000000013920000000001391000000000139201979000000000000339700000000000475790600000000000000009999123100000010000000000000BRMTREACNOR6100
012020092302MTSA4       010METISA      PN           R$  000000000261000000000027980000000002610000000000274400000000027590000000002640000000000276000021000000000000004200000000000011528800000000000000009999123100000010000000000000BRMTSAACNPR9056
012020092302MULT3       010MULTIPLAN   ON      N2   R$  000000000212300000000021480000000002061000000000209900000000020810000000002076000000000208119196000000000006142600000000012896034000000000000000009999123100000010000000000000BRMULTACNOR5127
012020092302MYPK3       010IOCHP-MAXIONON      NM   R$  000000000137400000000014100000000001345000000000137600000000013470000000001347000000000135009617000000000002101400000000002892928200000000000000009999123100000010000000000000BRMYPKACNOR7148
012020092302N1EM34      010NEWMONT GOLDDRN          R$  000000003440000000000344000000000033600000000003393900000000336000000000033000000000000000000038000000000000010020000000000340078500000000000000009999123100000010000000000000BRN1EMBDR005103
012020092302NEOE3       010NEOENERGIA  ON      NM   R$  000000000182100000000018210000000001764000000000179200000000017730000000001773000000000177606011000000000001424900000000002554174300000000000000009999123100000010000000000000BRNEOEACNOR3111
012020092302NEXT34      010NEXTERA ENERDRN          R$  000000003863900000000386390000000038639000000003863900000000386390000000000000000000000000000001000000000000000010000000000000386390000000000000009999123100000010000000000000BRNEXTBDR006105
012020092302NFLX34      010NETFLIX     DRN          R$  000000026857900000002685790000000263343000000026500300000002633430000000251100000000027120000005000000000000000460000000000121901620000000000000009999123100000010000000000000BRNFLXBDR000101
012020092302NIKE34      010NIKE        DRN          R$  000000007230700000000723070000000070364000000007155500000000716000000000000000000000000000000021000000000000000620000000000044364480000000000000009999123100000010000000000000BRNIKEBDR006139
012020092302NTCO3       010GRUPO NATURAON      NM   R$  000000000503300000000050840000000004942000000000501100000000050100000000005005000000000501023057000000000004860300000000024356157500000000000000009999123100000010000000000000BRNTCOACNOR5101
012020092302NVDC34      010NVIDIA CORP DRN          R$  000000006872100000000699000000000067800000000006857800000000683040000000067500000000006850000013000000000000000770000000000052805750000000000000009999123100000010000000000000BRNVDCBDR008106
012020092302ODPV3       010ODONTOPREV  ON  EJ  NM   R$  000000000126300000000012680000000001203000000000121900000000012080000000001207000000000120814142000000000005224700000000006370134800000000000000009999123100000010000000000000BRODPVACNOR4179
012020092302OFSA3       010OUROFINO S/AON      NM   R$  000000000280000000000028000000000002741000000000275200000000027430000000002736000000000275000031000000000000005000000000000013763500000000000000009999123100000010000000000000BROFSAACNOR7109
012020092302OMGE3       010OMEGA GER   ON      NM   R$  000000000379900000000038060000000003693000000000375700000000037420000000003742000000000374603012000000000000912000000000003426594300000000000000009999123100000010000000000000BROMGEACNOR0101
012020092302ORCL34      010ORACLE      DRN          R$  000000003318000000000331800000000033033000000003312100000000330330000000032000000000000000000003000000000000000060000000000001987270000000000000009999123100000010000000000000BRORCLBDR007134
012020092302PARD3       010IHPARDINI   ON  EJ  NM   R$  000000000247700000000024790000000002288000000000234200000000022880000000002288000000000229007729000000000002127600000000004983456700000000000000009999123100000010000000000000BRPARDACNOR1115
012020092302PCAR3       010P.ACUCAR-CBDON      NM   R$  000000000750000000000075040000000007202000000000730500000000072180000000007213000000000721807729000000000001811000000000013230240300000000000000009999123100000010000000000000BRPCARACNOR3163
012020092302PDTC3       010PADTEC      ON           R$  000000000052000000000005200000000000490000000000050000000000004900000000000490000000000050300064000000000000022800000000000011403900000000000000009999123100000010000000000000BRPDTCACNOR3100
012020092302PEAB3       010PAR AL BAHIAON           R$  000000000699900000000070000000000006390000000000668300000000067010000000006700000000001000000085000000000000008500000000000056813300000000000000009999123100000010000000000000BRPEABACNOR3124
012020092302PEPB34      010PEPSICO INC DRN          R$  000000007266400000000726640000000072664000000007266400000000726640000000065100000000000000000001000000000000000200000000000014532800000000000000009999123100000010000000000000BRPEPBBDR005132
012020092302PETR3       010PETROBRAS   ON      N2   R$  000000000212700000000021470000000002075000000000210900000000020750000000002075000000000207628890000000000020264800000000042749130300000000000000009999123100000010000000000000BRPETRACNOR9191
012020092302PETR4       010PETROBRAS   PN      N2   R$  000000000208000000000020960000000002020000000000205800000000020230000000002022000000000202355000000000000057106300000000117532344400000000000000009999123100000010000000000000BRPETRACNPR6197
012020092302PETZ3       010PETZ        ON      NM   R$  000000000153500000000015760000000001480000000000153200000000014800000000001480000000000148107856000000000005019500000000007692159200000000000000009999123100000010000000000000BRPETZACNOR2100
012020092302PFIZ34      010PFIZER      DRN          R$  000000001984000000000202010000000019840000000002017900000000202010000000020000000000002020100067000000000000011550000000000233077270000000000000009999123100000010000000000000BRPFIZBDR006140
012020092302PFRM3       010PROFARMA    ON      NM   R$  000000000049500000000004980000000000472000000000048500000000004850000000000476000000000048501602000000000000718100000000000348564300000000000000009999123100000010000000000000BRPFRMACNOR1112
012020092302PGCO34      010PG          DRN          R$  000000007659400000000765940000000076594000000007659400000000765940000000000000000000007659400001000000000000000010000000000000765940000000000000009999123100000010000000000000BRPGCOBDR001139
012020092302PGMN3       010PAGUE MENOS ON      NM   R$  000000000098000000000009900000000000956000000000096700000000009560000000000956000000000096200862000000000000285500000000000276347800000000000000009999123100000010000000000000BRPGMNACNOR8100
012020092302PINE4       010PINE        PN      N2   R$  000000000026100000000002640000000000258000000000026000000000002620000000000259000000000026200135000000000000067100000000000017501200000000000000009999123100000010000000000000BRPINEACNPR8144
012020092302PLAS3       010PLASCAR PARTON           R$  000000000044000000000004400000000000436000000000043900000000004360000000000430000000000045900003000000000000000800000000000000351200000000000000009999123100000010000000000000BRPLASACNOR2106
012020092302PLPL3       010PLANOEPLANO ON      NM   R$  000000000085500000000008980000000000852000000000087500000000008900000000000890000000000089102069000000000002828200000000002474934200000000000000009999123100000010000000000000BRPLPLACNOR5100
012020092302PMAM3       010PARANAPANEMAON      NM   R$  000000000105200000000010860000000001018000000000104000000000010310000000001030000000000104000788000000000000121200000000000126106200000000000000009999123100000010000000000000BRPMAMACNOR3037
012020092302PNVL3       010DIMED       ON           R$  000000000233600000000023500000000002265000000000230800000000022650000000002265000000000227801332000000000000343300000000000792359000000000000000009999123100000010000000000000BRPNVLACNOR9196
012020092302PNVL4       010DIMED       PN           R$  000000000205800000000020900000000002000000000000203300000000020170000000002004000000000201700217000000000000048900000000000099426600000000000000009999123100000010000000000000BRPNVLACNPR6196
012020092302POMO3       010MARCOPOLO   ON      N2   R$  000000000026600000000002690000000000262000000000026500000000002620000000000262000000000026500533000000000000131000000000000034743100000000000000009999123100000010000000000000BRPOMOACNOR0087
012020092302POMO4       010MARCOPOLO   PN      N2   R$  000000000027800000000002820000000000268000000000027400000000002680000000000268000000000026903581000000000008748100000000002404573400000000000000009999123100000010000000000000BRPOMOACNPR7087
012020092302POSI3       010POSITIVO TECON      NM   R$  000000000044000000000004550000000000438000000000044400000000004410000000000440000000000044102973000000000001940200000000000863210200000000000000009999123100000010000000000000BRPOSIACNOR9112
012020092302PPLA11      010PPLA        UNT          R$  000000000159900000000016990000000001575000000000161800000000015990000000001578000000000160000037000000000000006200000000000010032900000000000000009999123100000010000000000000BRPPLAUNT007101
012020092302PRIO3       010PETRORIO    ON      NM   R$  000000000364200000000036690000000003480000000000355700000000034850000000003484000000000348509112000000000002128200000000007571537400000000000000009999123100000010000000000000BRPRIOACNOR1102
012020092302PRNR3       010PRINER      ON      NM   R$  000000000091800000000009180000000000891000000000090100000000008910000000000891000000000089700675000000000000200900000000000181050300000000000000009999123100000010000000000000BRPRNRACNOR4105
012020092302PSSA3       010PORTO SEGUROON      NM   R$  000000000496000000000049950000000004901000000000494200000000049250000000004924000000000492503117000000000000445400000000002201205400000000000000009999123100000010000000000000BRPSSAACNOR7142
012020092302PTBL3       010PORTOBELLO  ON      NM   R$  000000000056400000000005670000000000528000000000054400000000005290000000000529000000000053005279000000000004371000000000002381468600000000000000009999123100000010000000000000BRPTBLACNOR8125
012020092302PTNT3       010PETTENATI   ON           R$  000000000050300000000005200000000000484000000000049800000000004900000000000490000000000049700055000000000000018800000000000009376800000000000000009999123100000010000000000000BRPTNTACNOR6039
012020092302PTNT4       010PETTENATI   PN           R$  000000000046500000000004790000000000460000000000046200000000004620000000000460000000000046300031000000000000007400000000000003421900000000000000009999123100000010000000000000BRPTNTACNPR3044
012020092302PYPL34      010PAYPAL HOLD DRN          R$  000000005159900000000515990000000050700000000005136000000000510130000000000000000000005900000004000000000000000150000000000007704030000000000000009999123100000010000000000000BRPYPLBDR002101
012020092302QCOM34      010QUALCOMM    DRN          R$  000000006160100000000616010000000061601000000006160100000000616010000000000000000000006500000001000000000000000010000000000000616010000000000000009999123100000010000000000000BRQCOMBDR007135
012020092302QUAL3       010QUALICORP   ON      NM   R$  000000000319000000000032050000000003106000000000314900000000031240000000003123000000000312416474000000000005326900000000016776461200000000000000009999123100000010000000000000BRQUALACNOR6113
012020092302RADL3       010RAIADROGASILON  EB  NM   R$  000000000230200000000023150000000002276000000000229100000000022830000000002283000000000228514679000000000004893700000000011213313400000000000000009999123100000010000000000000BRRADLACNOR0137
012020092302RAIL3       010RUMO S.A.   ON      NM   R$  000000000204000000000020910000000002040000000000206600000000020790000000002077000000000207919466000000000008139500000000016823720500000000000000009999123100000010000000000000BRRAILACNOR9101
012020092302RANI3       010IRANI       ON           R$  000000000050000000000005050000000000475000000000048400000000004800000000000480000000000048104345000000000002481000000000001201928300000000000000009999123100000010000000000000BRRANIACNOR5053
012020092302RANI4       010IRANI       PN           R$  000000000083400000000008340000000000830000000000083100000000008320000000000812000000000083200014000000000000002500000000000002077800000000000000009999123100000010000000000000BRRANIACNPR2054
012020092302RAPT3       010RANDON PART ON      N1   R$  000000000095500000000009550000000000940000000000094500000000009400000000000940000000000095000019000000000000010000000000000009450000000000000000009999123100000010000000000000BRRAPTACNOR7153
012020092302RAPT4       010RANDON PART PN      N1   R$  000000000118500000000012080000000001157000000000117900000000011570000000001157000000000115810787000000000003308000000000003902882500000000000000009999123100000010000000000000BRRAPTACNPR4153
012020092302RCSL3       010RECRUSUL    ON           R$  000000000019600000000002130000000000191000000000020600000000002070000000000205000000000020700147000000000000089000000000000018346200000000000000009999123100000010000000000000BRRCSLACNOR4130
012020092302RCSL4       010RECRUSUL    PN           R$  000000000015300000000001710000000000153000000000016200000000001680000000000168000000000016911546000000000009736600000000001584825200000000000000009999123100000010000000000000BRRCSLACNPR1130
012020092302RDNI3       010RNI         ON      NM   R$  000000000104900000000010770000000000999000000000102500000000010410000000001033000000000104200109000000000000050700000000000052010300000000000000009999123100000010000000000000BRRDNIACNOR9113
012020092302REDE3       010REDE ENERGIAON           R$  000000000104500000000010510000000001035000000000104700000000010500000000001001000000000105100011000000000000005400000000000005654100000000000000009999123100000010000000000000BRREDEACNOR7115
012020092302REGN34      010REGENERON PHDRN          R$  000000006359900000000635990000000063599000000006359900000000635990000000062380000000000000000001000000000000000010000000000000635990000000000000009999123100000010000000000000BRREGNBDR005100
012020092302RENT3       010LOCALIZA    ON      NM   R$  000000000599000000000060290000000005719000000000587900000000058970000000005895000000000589786713000000000031179700000000183319094400000000000000009999123100000010000000000000BRRENTACNOR4179
012020092302RIGG34      010TRANSOCEAN  DRN          R$  000000000054200000000005540000000000505000000000053400000000005050000000000490000000000055400015000000000000014690000000000007849900000000000000009999123100000010000000000000BRRIGGBDR000100
012020092302RLOG3       010COSAN LOG   ON      NM   R$  000000000196000000000019760000000001934000000000194900000000019340000000001934000000000193702076000000000000391300000000000762833100000000000000009999123100000010000000000000BRRLOGACNOR4106
012020092302ROMI3       010INDS ROMI   ON      NM   R$  000000000114400000000011470000000001115000000000112900000000011200000000001120000000000112301972000000000000309900000000000349947500000000000000009999123100000010000000000000BRROMIACNOR8173
012020092302RPAD5       010ALFA HOLDINGPNA          R$  000000000085400000000008540000000000854000000000085400000000008540000000000854000000000093500001000000000000000600000000000000512400000000000000009999123100000010000000000000BRRPADACNPA4211
012020092302RPAD6       010ALFA HOLDINGPNB          R$  000000000055000000000005900000000000541000000000056500000000005410000000000541000000000057900006000000000000001300000000000000734900000000000000009999123100000010000000000000BRRPADACNPB2197
012020092302RSID3       010ROSSI RESID ON      NM   R$  000000000049200000000005060000000000491000000000049600000000005030000000000503000000000050400137000000000000037300000000000018511800000000000000009999123100000010000000000000BRRSIDACNOR8119
012020092302S1LG34      010SL GREEN READRN          R$  000000001247900000000124790000000012479000000001247900000000124790000000000000000000000000000001000000000000000020000000000000249580000000000000009999123100000010000000000000BRS1LGBDR007106
012020092302S1PO34      010SPOTIFY TECHDRN          R$  000000003312200000000331220000000033122000000003312200000000331220000000030500000000000000000001000000000000000010000000000000331220000000000000009999123100000010000000000000BRS1POBDR002100
012020092302SANB3       010SANTANDER BRON           R$  000000000131000000000013190000000001267000000000127900000000012700000000001270000000000128200839000000000000174900000000000223860800000000000000009999123100000010000000000000BRSANBACNOR8153
012020092302SANB4       010SANTANDER BRPN           R$  000000000148000000000014800000000001416000000000143200000000014180000000001417000000000141901092000000000000229100000000000328184900000000000000009999123100000010000000000000BRSANBACNPR5153
012020092302SANB11      010SANTANDER BRUNT          R$  000000000275000000000027660000000002671000000000270700000000026710000000002671000000000268609248000000000001736400000000004701111200000000000000009999123100000010000000000000BRSANBCDAM13146
012020092302SAPR3       010SANEPAR     ON      N2   R$  000000000054900000000005570000000000546000000000055100000000005460000000000546000000000055300425000000000000120500000000000066511400000000000000009999123100000010000000000000BRSAPRACNOR9150
012020092302SAPR4       010SANEPAR     PN      N2   R$  000000000053600000000005460000000000535000000000054000000000005350000000000535000000000053703287000000000001879200000000001016388300000000000000009999123100000010000000000000BRSAPRACNPR6150
012020092302SAPR11      010SANEPAR     UNT     N2   R$  000000000270000000000027400000000002683000000000271000000000026830000000002683000000000268908031000000000001438000000000003898243600000000000000009999123100000010000000000000BRSAPRCDAM13109
012020092302SBSP3       010SABESP      ON      NM   R$  000000000477900000000048780000000004745000000000479900000000047770000000004774000000000477712868000000000002934400000000014083539800000000000000009999123100000010000000000000BRSBSPACNOR5157
012020092302SCAR3       010SAO CARLOS  ON      NM   R$  000000000374800000000037730000000003656000000000372600000000037290000000003716000000000373500027000000000000003300000000000012296900000000000000009999123100000010000000000000BRSCARACNOR7128
012020092302SEER3       010SER EDUCA   ON      NM   R$  000000000163400000000016490000000001548000000000157900000000015500000000001548000000000155005413000000000001169700000000001846962600000000000000009999123100000010000000000000BRSEERACNOR5115
012020092302SGPS3       010SPRINGS     ON      NM   R$  000000000067500000000006760000000000652000000000066000000000006540000000000654000000000065900435000000000000121600000000000080364000000000000000009999123100000010000000000000BRSGPSACNOR4104
012020092302SHOW3       010TIME FOR FUNON      NM   R$  000000000028200000000002860000000000278000000000028100000000002780000000000278000000000027900634000000000000424700000000000119714500000000000000009999123100000010000000000000BRSHOWACNOR7105
012020092302SHUL4       010SCHULZ      PN           R$  000000000123300000000012400000000001179000000000120000000000011810000000001181000000000118700599000000000000182200000000000218682300000000000000009999123100000010000000000000BRSHULACNPR4136
012020092302SIMH3       010SIMPAR      ON      NM   R$  000000000280100000000029320000000002764000000000286700000000028550000000002855000000000285703567000000000000983700000000002820366600000000000000009999123100000010000000000000BRSIMHACNOR0100
012020092302SIMN34      010SIMON PROP  DRN          R$  000000000899800000000089980000000008912000000000898100000000089120000000006666000000000960000003000000000000000600000000000005388600000000000000009999123100000010000000000000BRSIMNBDR002104
012020092302SLCE3       010SLC AGRICOLAON      NM   R$  000000000260100000000026100000000002490000000000253500000000025600000000002560000000000256104886000000000001170200000000002967027300000000000000009999123100000010000000000000BRSLCEACNOR2115
012020092302SMLS3       010SMILES      ON      NM   R$  000000000154300000000015620000000001516000000000153600000000015370000000001533000000000153704931000000000001178600000000001811387500000000000000009999123100000010000000000000BRSMLSACNOR1109
012020092302SMTO3       010SAO MARTINHOON      NM   R$  000000000229900000000023110000000002200000000000224300000000022210000000002210000000000222104582000000000000812000000000001821407600000000000000009999123100000010000000000000BRSMTOACNOR3117
012020092302SNEC34      010SONY CORP   DRN          R$  000000004319900000000431990000000043199000000004319900000000431990000000031000000000000000000001000000000000000010000000000000431990000000000000009999123100000010000000000000BRSNECBDR002101
012020092302SOMA3       010GRUPO SOMA  ON      NM   R$  000000000101300000000010210000000000993000000000100000000000010000000000000997000000000100001344000000000001757700000000001757723700000000000000009999123100000010000000000000BRSOMAACNOR3100
012020092302SOND5       010SONDOTECNICAPNA          R$  000000000650000000000065990000000005861000000000634100000000058610000000005800000000000649900011000000000000001100000000000006975900000000000000009999123100000010000000000000BRSONDACNPA8161
012020092302SQIA3       010SINQIA      ON      NM   R$  000000000231000000000023240000000002201000000000225500000000022010000000002201000000000220202202000000000000397300000000000896223300000000000000009999123100000010000000000000BRSQIAACNOR6102
012020092302SSFO34      010SALESFORCE  DRN          R$  000000006750000000000675000000000066192000000006619700000000663990000000033333000000000000000003000000000000002920000000000193295790000000000000009999123100000010000000000000BRSSFOBDR003100
012020092302STBP3       010SANTOS BRP  ON      NM   R$  000000000048400000000004890000000000467000000000047500000000004710000000000470000000000047103044000000000002046000000000000973024700000000000000009999123100000010000000000000BRSTBPACNOR3117
012020092302SULA3       010SUL AMERICA ON      N2   R$  000000000174000000000017400000000001646000000000169400000000016530000000001646000000000168000013000000000000001300000000000002203400000000000000009999123100000010000000000000BRSULAACNOR2141
012020092302SULA4       010SUL AMERICA PN      N2   R$  000000000121000000000012200000000001180000000000120100000000012070000000001190000000000120700024000000000000003100000000000003723200000000000000009999123100000010000000000000BRSULAACNPR9141
012020092302SULA11      010SUL AMERICA UNT     N2   R$  000000000405600000000041820000000004030000000000408600000000040480000000004048000000000405017094000000000003393000000000013863930200000000000000009999123100000010000000000000BRSULACDAM12141
012020092302SUZB3       010SUZANO S.A. ON      NM   R$  000000000472200000000047380000000004603000000000466300000000046630000000004663000000000467620288000000000005237800000000024425050700000000000000009999123100000010000000000000BRSUZBACNOR0124
012020092302T1OW34      010AMERICAN TOWDRN          R$  000000003302900000000330290000000033029000000003302900000000330290000000000000000000000000000001000000000000000100000000000003302900000000000000009999123100000010000000000000BRT1OWBDR007102
012020092302T1TW34      010TAKE-TWO INTDRN          R$  000000002276300000000227630000000022650000000002266800000000226500000000000000000000000000000002000000000000000060000000000001360130000000000000009999123100000010000000000000BRT1TWBDR006100
012020092302TAEE3       010TAESA       ON      N2   R$  000000000095000000000009510000000000941000000000094600000000009490000000000947000000000094900273000000000000049300000000000046645600000000000000009999123100000010000000000000BRTAEEACNOR9132
012020092302TAEE4       010TAESA       PN      N2   R$  000000000095100000000009530000000000940000000000094500000000009400000000000940000000000094500463000000000000089400000000000084493300000000000000009999123100000010000000000000BRTAEEACNPR6132
012020092302TAEE11      010TAESA       UNT     N2   R$  000000000283100000000028610000000002818000000000283400000000028210000000002821000000000282208806000000000002321300000000006579772400000000000000009999123100000010000000000000BRTAEECDAM10132
012020092302TASA3       010TAURUS ARMASON      N2   R$  000000000082000000000008380000000000770000000000079400000000007700000000000770000000000077100362000000000000139500000000000110776400000000000000009999123100000010000000000000BRTASAACNOR7100
012020092302TASA4       010TAURUS ARMASPN      N2   R$  000000000085900000000008650000000000790000000000082200000000008030000000000803000000000080404427000000000002367600000000001947845100000000000000009999123100000010000000000000BRTASAACNPR4100
012020092302TCSA3       010TECNISA     ON      NM   R$  000000000096000000000009870000000000943000000000095700000000009530000000000953000000000095402752000000000000982600000000000940939300000000000000009999123100000010000000000000BRTCSAACNOR3112
012020092302TECN3       010TECHNOS     ON      NM   R$  000000000010300000000001050000000000102000000000010200000000001020000000000101000000000010200831000000000000677700000000000069548300000000000000009999123100000010000000000000BRTECNACNOR6106
012020092302TELB3       010TELEBRAS    ON           R$  000000001070000000000107000000000010020000000001026700000000102000000000010000000000001039500015000000000000001500000000000015401200000000000000009999123100000010000000000000BRTELBACNOR2139
012020092302TELB4       010TELEBRAS    PN           R$  000000000302600000000031550000000002990000000000307000000000030420000000003041000000000305000045000000000000005900000000000018117100000000000000009999123100000010000000000000BRTELBACNPR9139
012020092302TEND3       010TENDA       ON      NM   R$  000000000282700000000028580000000002773000000000280300000000027840000000002781000000000278404927000000000000871000000000002441776700000000000000009999123100000010000000000000BRTENDACNOR4108
012020092302TESA3       010TERRA SANTA ON      NM   R$  000000000185900000000018760000000001755000000000179800000000017700000000001768000000000177000274000000000000075500000000000135759800000000000000009999123100000010000000000000BRTESAACNOR9101
