00COTAHIST.2020BOVESPA 20200916                                                                                                                                                                                                                      
012020091602A1BM34      010ABIOMED INC DRN          R$  000000003578700000000357870000000035787000000003578700000000357870000000000000000000000000000001000000000000000080000000000002862960000000000000009999123100000010000000000000BRA1BMBDR006100
012020091602A1MD34      010ADVANCED MICDRN          R$  000000004103800000000410380000000040475000000004101100000000404750000000000000000000005250000002000000000000000420000000000017224700000000000000009999123100000010000000000000BRA1MDBDR002100
012020091602A1RE34      010ALEXANDRIA RDRN          R$  000000002170000000000217000000000021700000000002170000000000217000000000000000000000000000000001000000000000000110000000000002387000000000000000009999123100000010000000000000BRA1REBDR009102
012020091602AALL34      010AMERICAN AIRDRN          R$  000000000697600000000072000000000006976000000000713000000000071950000000005333000000000850000006000000000000001390000000000009911800000000000000009999123100000010000000000000BRAALLBDR003115
012020091602AALR3       010ALLIAR      ON      NM   R$  000000000116900000000011900000000001148000000000116500000000011610000000001157000000000116101002000000000000330600000000000385285800000000000000009999123100000010000000000000BRAALRACNOR6102
012020091602AAPL34      010APPLE       DRN          R$  000000000608000000000060980000000005888000000000595000000000059300000000005892000000000593000483000000000000140080000000000833602530000000000000009999123100000010000000000000BRAAPLBDR004135
012020091602ABCB4       010ABC BRASIL  PN      N2   R$  000000000132800000000013460000000001299000000000132300000000013200000000001320000000000132103772000000000000956900000000001266149900000000000000009999123100000010000000000000BRABCBACNPR4134
012020091602ABEV3       010AMBEV S/A   ON           R$  000000000129200000000012940000000001255000000000126500000000012560000000001256000000000125827257000000000018729400000000023711268400000000000000009999123100000010000000000000BRABEVACNOR1122
012020091602ABTT34      010ABBOTT      DRN          R$  000000001391900000000139190000000013919000000001391900000000139190000000000000000000001799500001000000000000000010000000000000139190000000000000009999123100000010000000000000BRABTTBDR007135
012020091602ACNB34      010ACCENTURE   DRN          R$  000000012830900000001283090000000126739000000012791600000001267390000000000000000000000000000002000000000000000040000000000005116660000000000000009999123100000010000000000000BRACNBBDR006112
012020091602ADHM3       010ADVANCED-DH ON           R$  000000000021000000000002100000000000205000000000020700000000002050000000000206000000000020900018000000000000003300000000000000686000000000000000009999123100000010000000000000BRADHMACNOR9102
012020091602AFLT3       010AFLUENTE T  ON           R$  000000000100000000000010000000000001000000000000100000000000010000000000000998000000000100000002000000000000000300000000000000300000000000000000009999123100000010000000000000BRAFLTACNOR1115
012020091602AGRO3       010BRASILAGRO  ON      NM   R$  000000000222800000000022650000000002224000000000224700000000022530000000002249000000000225300739000000000000167700000000000376954900000000000000009999123100000010000000000000BRAGROACNOR7109
012020091602AHEB3       010SPTURIS     ON           R$  000000000238000000000025000000000002380000000000249200000000025000000000002401000000000265000006000000000000001700000000000004237900000000000000009999123100000010000000000000BRAHEBACNOR0106
012020091602ALPA3       010ALPARGATAS  ON      N1   R$  000000000346000000000034700000000003310000000000335000000000033250000000003263000000000332400016000000000000002600000000000008712000000000000000009999123100000010000000000000BRALPAACNOR0229
012020091602ALPA4       010ALPARGATAS  PN      N1   R$  000000000370300000000037400000000003599000000000363700000000036100000000003610000000000361206559000000000002287700000000008321724300000000000000009999123100000010000000000000BRALPAACNPR7229
012020091602ALPK3       010ESTAPAR     ON      NM   R$  000000000093500000000009350000000000933000000000093300000000009340000000000933000000000093700027000000000000009800000000000009147400000000000000009999123100000010000000000000BRALPKACNOR9100
012020091602ALSO3       010ALIANSCSONAEON      NM   R$  000000000275400000000028370000000002735000000000279400000000028190000000002810000000000281905142000000000001813700000000005068668200000000000000009999123100000010000000000000BRALSOACNOR5100
012020091602ALUP3       010ALUPAR      ON      N2   R$  000000000095300000000009660000000000953000000000096100000000009540000000000954000000000096500018000000000000001800000000000001730100000000000000009999123100000010000000000000BRALUPACNOR8111
012020091602ALUP4       010ALUPAR      PN      N2   R$  000000000071400000000007240000000000708000000000071400000000007080000000000708000000000071900035000000000000006800000000000004860900000000000000009999123100000010000000000000BRALUPACNPR5111
012020091602ALUP11      010ALUPAR      UNT     N2   R$  000000000236600000000024150000000002365000000000239100000000023820000000002382000000000238503258000000000000726400000000001737164400000000000000009999123100000010000000000000BRALUPCDAM15111
012020091602AMAR3       010LOJAS MARISAON      NM   R$  000000000081400000000008720000000000810000000000085000000000008590000000000859000000000086012610000000000006922700000000005887278500000000000000009999123100000010000000000000BRAMARACNOR4112
012020091602AMBP3       010AMBIPAR     ON      NM   R$  000000000307800000000030960000000003051000000000307200000000030800000000003076000000000309900440000000000000158600000000000487245700000000000000009999123100000010000000000000BRAMBPACNOR6100
012020091602AMGN34      010AMGEN       DRN          R$  000000013210600000001321060000000130303000000013060300000001303030000000000000000000000000000002000000000000000120000000000015672420000000000000009999123100000010000000000000BRAMGNBDR004135
012020091602AMZO34      010AMAZON      DRN          R$  000000082887000000008288700000000811076000000081635200000008110760000000799900000000084500000016000000000000000440000000000359195180000000000000009999123100000010000000000000BRAMZOBDR002101
012020091602ANIM3       010ANIMA       ON      NM   R$  000000000310000000000031300000000003043000000000308500000000030470000000003047000000000306501895000000000000338500000000001044484100000000000000009999123100000010000000000000BRANIMACNOR6106
012020091602APER3       010ALPER S.A.  ON      NM   R$  000000000298900000000030920000000002989000000000305500000000030810000000003032000000000308100105000000000000033100000000000101136500000000000000009999123100000010000000000000BRAPERACNOR9102
012020091602ARZZ3       010AREZZO CO   ON      NM   R$  000000000578500000000057850000000005668000000000569500000000056710000000005670000000000568401663000000000000341800000000001946642100000000000000009999123100000010000000000000BRARZZACNOR3137
012020091602ATOM3       010ATOMPAR     ON           R$  000000000028700000000002870000000000279000000000028300000000002850000000000282000000000028300051000000000000026700000000000007556800000000000000009999123100000010000000000000BRATOMACNOR1103
012020091602ATTB34      010ATT INC     DRN          R$  000000001544000000000154500000000015380000000001543900000000154500000000015000000000001545000004000000000000002980000000000046010520000000000000009999123100000010000000000000BRATTBBDR007132
012020091602AURA32      010AURA 360    DR2          R$  000000000654900000000065900000000006478000000000651600000000065050000000006505000000000654800036000000000000006100000000000039750800000000000000009999123100000010000000000000BRAURABDR001102
012020091602AZEV3       010AZEVEDO     ON           R$  000000000100900000000010990000000001000000000000102400000000010100000000001010000000000108900009000000000000001100000000000001126500000000000000009999123100000010000000000000BRAZEVACNOR0117
012020091602AZEV4       010AZEVEDO     PN           R$  000000000035200000000003700000000000352000000000035900000000003600000000000361000000000036900029000000000000013900000000000004996800000000000000009999123100000010000000000000BRAZEVACNPR7117
012020091602AZUL4       010AZUL        PN      N2   R$  000000000281000000000029420000000002783000000000288700000000029090000000002909000000000291041345000000000019735300000000056984077500000000000000009999123100000010000000000000BRAZULACNPR4100
012020091602B3SA3       010B3          ON      NM   R$  000000000575700000000057880000000005694000000000574000000000057020000000005702000000000570823794000000000007202900000000041351625500000000000000009999123100000010000000000000BRB3SAACNOR6111
012020091602BABA34      010ALIBABAGR   DRN          R$  000000014817400000001495000000000146426000000014801600000001464260000000145000000000014900000013000000000000001780000000000263469420000000000000009999123100000010000000000000BRBABABDR005100
012020091602BALM3       010BAUMER      ON           R$  000000000160000000000016400000000001570000000000159300000000015700000000001530000000000164000008000000000000001100000000000001753000000000000000009999123100000010000000000000BRBALMACNOR5050
012020091602BALM4       010BAUMER      PN           R$  000000000125000000000013000000000001200000000000127900000000012950000000001220000000000129500026000000000000003600000000000004606200000000000000009999123100000010000000000000BRBALMACNPR2051
012020091602BAUH4       010EXCELSIOR   PN           R$  000000000855000000000085500000000008550000000000855000000000085500000000008001000000000889900001000000000000000100000000000000855000000000000000009999123100000010000000000000BRBAUHACNPR3115
012020091602BAZA3       010AMAZONIA    ON           R$  000000000390000000000039290000000003900000000000390800000000039290000000003900000000000394000005000000000000001100000000000004299700000000000000009999123100000010000000000000BRBAZAACNOR0174
012020091602BBAS3       010BRASIL      ON  EJ  NM   R$  000000000320900000000032620000000003201000000000322900000000032090000000003209000000000321526084000000000013814800000000044617169600000000000000009999123100000010000000000000BRBBASACNOR3293
012020091602BBDC3       010BRADESCO    ON      N1   R$  000000000189800000000019320000000001884000000000191300000000019040000000001904000000000190518285000000000007757900000000014845267900000000000000009999123100000010000000000000BRBBDCACNOR1715
012020091602BBDC4       010BRADESCO    PN      N1   R$  000000000204800000000020860000000002040000000000206300000000020520000000002051000000000205249611000000000035535700000000073332807300000000000000009999123100000010000000000000BRBBDCACNPR8715
012020091602BBRK3       010BR BROKERS  ON      NM   R$  000000000016800000000001750000000000168000000000017100000000001710000000000168000000000017100283000000000000278400000000000047768800000000000000009999123100000010000000000000BRBBRKACNOR4113
012020091602BBSE3       010BBSEGURIDADEON      NM   R$  000000000261900000000026480000000002619000000000263500000000026220000000002622000000000262913071000000000002175700000000005733067800000000000000009999123100000010000000000000BRBBSEACNOR5117
012020091602BCSA34      010SANTANDER   DRN          R$  000000000112000000000011210000000001090000000000110600000000011120000000001111000000000112300057000000000000013400000000000014831270000000000000009999123100000010000000000000BRBCSABDR005101
012020091602BEEF3       010MINERVA     ON      NM   R$  000000000138900000000014170000000001328000000000136300000000013340000000001334000000000133526166000000000015230200000000020760948700000000000000009999123100000010000000000000BRBEEFACNOR6108
012020091602BEES3       010BANESTES    ON           R$  000000000051500000000005190000000000510000000000051500000000005130000000000513000000000051400078000000000000016000000000000008242300000000000000009999123100000010000000000000BRBEESACNOR9339
012020091602BEES4       010BANESTES    PN           R$  000000000055000000000005500000000000549000000000054900000000005490000000000548000000000054900010000000000000002300000000000001264500000000000000009999123100000010000000000000BRBEESACNPR6264
012020091602BERK34      010BERKSHIRE   DRN          R$  000000011599900000001165450000000115200000000011554500000001156060000000115000000000011840000017000000000000000420000000000048529060000000000000009999123100000010000000000000BRBERKBDR002100
012020091602BGIP3       010BANESE      ON           R$  000000000448200000000044820000000004482000000000448200000000044820000000002701000000000460000001000000000000000100000000000000448200000000000000009999123100000010000000000000BRBGIPACNOR1199
012020091602BGIP4       010BANESE      PN           R$  000000000254600000000025460000000002506000000000252800000000025060000000002505000000000255800004000000000000000500000000000001264300000000000000009999123100000010000000000000BRBGIPACNPR8199
012020091602BIDI3       010BANCO INTER ON      N2   R$  000000000186000000000018810000000001815000000000185800000000018510000000001851000000000187801376000000000000295800000000000549670600000000000000009999123100000010000000000000BRBIDIACNOR3107
012020091602BIDI4       010BANCO INTER PN      N2   R$  000000000200400000000020440000000001965000000000201300000000020060000000002006000000000201004749000000000001552300000000003125738600000000000000009999123100000010000000000000BRBIDIACNPR0111
012020091602BIDI11      010BANCO INTER UNT     N2   R$  000000000585400000000059650000000005765000000000589700000000058740000000005874000000000590103268000000000000433600000000002557233300000000000000009999123100000010000000000000BRBIDICDAXX3106
012020091602BIOM3       010BIOMM       ON      MA   R$  000000000165500000000016790000000001645000000000165700000000016790000000001650000000000167800021000000000000003400000000000005636100000000000000009999123100000010000000000000BRBIOMACNOR2107
012020091602BKBR3       010BK BRASIL   ON      NM   R$  000000000110800000000011490000000001101000000000113300000000011390000000001136000000000113903833000000000001221800000000001384820800000000000000009999123100000010000000000000BRBKBRACNOR4103
012020091602BKNG34      010BOOKING     DRN          R$  000000003781000000000380430000000037810000000003791600000000379480000000036900000000005000000003000000000000000410000000000015545830000000000000009999123100000010000000000000BRBKNGBDR006100
012020091602BMEB4       010MERC BRASIL PN           R$  000000000155500000000015920000000001540000000000155800000000015500000000001550000000000156800015000000000000008800000000000013711200000000000000009999123100000010000000000000BRBMEBACNPR5201
012020091602BMGB4       010BANCO BMG   PN      N1   R$  000000000051400000000005240000000000510000000000051700000000005130000000000512000000000051402767000000000000800600000000000414667800000000000000009999123100000010000000000000BRBMGBACNPR0101
012020091602BMKS3       010BIC MONARK  ON           R$  000000002151000000000215100000000021400000000002147000000000214000000000021500000000002378000003000000000000000003000000000000064410000000000000009999123100000010000000000000BRBMKSACNOR9162
012020091602BOAC34      010BANK AMERICADRN          R$  000000001346100000000135220000000013420000000001346400000000135220000000012100000000001352200004000000000000002260000000000030429820000000000000009999123100000010000000000000BRBOACBDR004140
012020091602BOBR4       010BOMBRIL     PN           R$  000000000020100000000002010000000000197000000000019800000000002000000000000197000000000020000075000000000000082100000000000016306400000000000000009999123100000010000000000000BRBOBRACNPR3128
012020091602BOEI34      010BOEING      DRN          R$  000000008670000000000877210000000086700000000008704000000000877210000000000000000000010850000002000000000000000030000000000002611210000000000000009999123100000010000000000000BRBOEIBDR003132
012020091602BPAC3       010BTGP BANCO  ON      N2   R$  000000000439100000000044480000000004311000000000438100000000043600000000004322000000000437800026000000000000002800000000000012268200000000000000009999123100000010000000000000BRBPACACNOR7122
012020091602BPAC5       010BTGP BANCO  PNA     N2   R$  000000000180800000000018400000000001808000000000182900000000018400000000001802000000000184000017000000000000001900000000000003476600000000000000009999123100000010000000000000BRBPACACNPA0122
012020091602BPAC11      010BTGP BANCO  UNT     N2   R$  000000000798900000000081480000000007927000000000801100000000080000000000008000000000000801116740000000000003020000000000024195788000000000000000009999123100000010000000000000BRBPACUNT006107
012020091602BPAN4       010BANCO PAN   PN      N1   R$  000000000086600000000008720000000000847000000000085800000000008530000000000853000000000085405627000000000003147300000000002700614900000000000000009999123100000010000000000000BRBPANACNPR1109
012020091602BRAP3       010BRADESPAR   ON      N1   R$  000000000401000000000040250000000003929000000000396400000000039790000000003922000000000397900062000000000000010900000000000043212800000000000000009999123100000010000000000000BRBRAPACNOR5136
012020091602BRAP4       010BRADESPAR   PN      N1   R$  000000000451600000000045280000000004440000000000447400000000044690000000004469000000000447015320000000000002845100000000012729970100000000000000009999123100000010000000000000BRBRAPACNPR2136
012020091602BRDT3       010PETROBRAS BRON      NM   R$  000000000222000000000022490000000002196000000000221100000000021990000000002199000000000220021860000000000006854100000000015160662300000000000000009999123100000010000000000000BRBRDTACNOR1120
012020091602BRFS3       010BRF SA      ON      NM   R$  000000000216900000000021840000000002123000000000214400000000021350000000002134000000000213516852000000000006318800000000013551321600000000000000009999123100000010000000000000BRBRFSACNOR8119
012020091602BRGE3       010ALFA CONSORCON           R$  000000000096000000000010000000000000960000000000098600000000010000000000000946000000000100000003000000000000000300000000000000296000000000000000009999123100000010000000000000BRBRGEACNOR6202
012020091602BRGE8       010ALFA CONSORCPND          R$  000000000082000000000008200000000000820000000000082000000000008200000000000700000000000110000001000000000000000200000000000000164000000000000000009999123100000010000000000000BRBRGEACNPD3214
012020091602BRGE11      010ALFA CONSORCPNE          R$  000000000108000000000010800000000001080000000000108000000000010800000000000997000000000125000001000000000000000200000000000000216000000000000000009999123100000010000000000000BRBRGEACNPE1105
012020091602BRGE12      010ALFA CONSORCPNF          R$  000000000068800000000006880000000000605000000000061500000000006110000000000600000000000061100030000000000000019900000000000012244900000000000000009999123100000010000000000000BRBRGEACNPF8096
012020091602BRIV3       010ALFA INVEST ON           R$  000000000093000000000009300000000000895000000000091800000000008950000000000895000000000093000003000000000000000700000000000000643000000000000000009999123100000010000000000000BRBRIVACNOR6205
012020091602BRIV4       010ALFA INVEST PN           R$  000000000083900000000008560000000000817000000000082700000000008260000000000826000000000084000040000000000000015000000000000012412700000000000000009999123100000010000000000000BRBRIVACNPR3211
012020091602BRKM3       010BRASKEM     ON      N1   R$  000000000224000000000022650000000002215000000000224400000000022490000000002220000000000225000027000000000000004700000000000010549900000000000000009999123100000010000000000000BRBRKMACNOR1117
012020091602BRKM5       010BRASKEM     PNA     N1   R$  000000000222500000000022480000000002181000000000220600000000022060000000002202000000000220606831000000000001515900000000003344750400000000000000009999123100000010000000000000BRBRKMACNPA4117
012020091602BRML3       010BR MALLS PARON      NM   R$  000000000097600000000010180000000000971000000000100200000000009980000000000998000000000099929212000000000017699000000000017749783000000000000000009999123100000010000000000000BRBRMLACNOR9115
012020091602BRPR3       010BR PROPERT  ON      NM   R$  000000000097500000000010120000000000972000000000099600000000009890000000000989000000000099010364000000000003360500000000003347979400000000000000009999123100000010000000000000BRBRPRACNOR9119
012020091602BRSR3       010BANRISUL    ON      N1   R$  000000000145500000000014800000000001455000000000146700000000014600000000001458000000000147700033000000000000006100000000000008952400000000000000009999123100000010000000000000BRBRSRACNOR3168
012020091602BRSR6       010BANRISUL    PNB     N1   R$  000000000127700000000012840000000001255000000000126700000000012570000000001257000000000125914426000000000003056200000000003873149200000000000000009999123100000010000000000000BRBRSRACNPB4171
012020091602BSEV3       010BIOSEV      ON      NM   R$  000000000051100000000005250000000000500000000000051000000000005000000000000500000000000050500280000000000000114500000000000058506100000000000000009999123100000010000000000000BRBSEVACNOR3102
012020091602BTOW3       010B2W DIGITAL ON      NM   R$  000000000999000000000100880000000009839000000000992600000000098500000000009848000000000989309320000000000001737500000000017247429800000000000000009999123100000010000000000000BRBTOWACNOR8111
012020091602BTTL3       010BATTISTELLA ON           R$  000000000105100000000012400000000001051000000000116700000000011500000000001080000000000115000052000000000000013400000000000015644500000000000000009999123100000010000000000000BRBTTLACNOR0108
012020091602C1BR34      010CBRE GROUP IDRN          R$  000000002653200000000265710000000026532000000002655000000000265710000000000000000000000000000003000000000000000380000000000010089180000000000000009999123100000010000000000000BRC1BRBDR003100
012020091602C1CL34      010CARNIVAL CORDRN          R$  000000000856000000000085600000000008560000000000856000000000085600000000000000000000001300000001000000000000000100000000000000856000000000000000009999123100000010000000000000BRC1CLBDR004101
012020091602C1HR34      010CH ROBINSON DRN          R$  000000002737300000000273730000000027373000000002737300000000273730000000000000000000000000000001000000000000000030000000000000821190000000000000009999123100000010000000000000BRC1HRBDR000103
012020091602C1IC34      010CIGNA CORP  DRN          R$  000000002211600000000221160000000022116000000002211600000000221160000000000000000000000000000001000000000000000120000000000002653920000000000000009999123100000010000000000000BRC1ICBDR000101
012020091602CAMB3       010CAMBUCI     ON           R$  000000000042100000000004210000000000419000000000041900000000004190000000000419000000000042000035000000000000028200000000000011825300000000000000009999123100000010000000000000BRCAMBACNOR4119
012020091602CAML3       010CAMIL       ON      NM   R$  000000000136900000000013970000000001369000000000138700000000013860000000001383000000000138604653000000000001111300000000001542100800000000000000009999123100000010000000000000BRCAMLACNOR3111
012020091602CARD3       010CSU CARDSYSTON      NM   R$  000000000150000000000015330000000001480000000000150200000000014810000000001481000000000150400736000000000000212700000000000319609300000000000000009999123100000010000000000000BRCARDACNOR9118
012020091602CATP34      010CATERPILLAR DRN          R$  000000007933900000000793390000000079339000000007933900000000793390000000000000000000000000000001000000000000000100000000000007933900000000000000009999123100000010000000000000BRCATPBDR003136
012020091602CCPR3       010CYRE COM-CCPON      NM   R$  000000000148100000000015330000000001472000000000150600000000014730000000001473000000000148401808000000000000396700000000000597688700000000000000009999123100000010000000000000BRCCPRACNOR9114
012020091602CCRO3       010CCR SA      ON      NM   R$  000000000145900000000014610000000001412000000000142800000000014120000000001412000000000141618924000000000007027300000000010038779900000000000000009999123100000010000000000000BRCCROACNOR2137
012020091602CEAB3       010CEA MODAS   ON      NM   R$  000000000129000000000013410000000001274000000000131400000000013070000000001307000000000131011197000000000002781700000000003655921200000000000000009999123100000010000000000000BRCEABACNOR1101
012020091602CEBR3       010CEB         ON           R$  000000000670000000000069490000000006700000000000676200000000069490000000006500000000000700000003000000000000000400000000000002704900000000000000009999123100000010000000000000BRCEBRACNOR5118
012020091602CEBR6       010CEB         PNB          R$  000000000719900000000071990000000007199000000000719900000000071990000000006550000000000880000001000000000000000100000000000000719900000000000000009999123100000010000000000000BRCEBRACNPB6117
012020091602CEDO3       010CEDRO       ON      N1   R$  000000000095600000000009600000000000956000000000095700000000009600000000000961000000000099900004000000000000000700000000000000670000000000000000009999123100000010000000000000BRCEDOACNOR8096
012020091602CEEB3       010COELBA      ON           R$  000000000419000000000041900000000004190000000000419000000000041900000000003950000000000400000001000000000000000100000000000000419000000000000000009999123100000010000000000000BRCEEBACNOR3179
012020091602CESP3       010CESP        ON      N1   R$  000000000320200000000032250000000003201000000000321000000000032250000000003201000000000324700006000000000000000600000000000001926400000000000000009999123100000010000000000000BRCESPACNOR3169
012020091602CESP6       010CESP        PNB     N1   R$  000000000290000000000029300000000002895000000000291100000000029000000000002900000000000290904238000000000001990400000000005796030000000000000000009999123100000010000000000000BRCESPACNPB4128
012020091602CGAS5       010COMGAS      PNA          R$  000000001879900000000188000000000018799000000001879900000000188000000000018650000000001880000005000000000000000500000000000009399700000000000000009999123100000010000000000000BRCGASACNPA3148
012020091602CGRA3       010GRAZZIOTIN  ON           R$  000000000275300000000027530000000002670000000000268500000000026700000000002655000000000268700008000000000000001300000000000003491700000000000000009999123100000010000000000000BRCGRAACNOR2071
012020091602CGRA4       010GRAZZIOTIN  PN           R$  000000000265500000000026990000000002645000000000265800000000026460000000002646000000000266000074000000000000015800000000000042008400000000000000009999123100000010000000000000BRCGRAACNPR9071
012020091602CHVX34      010CHEVRON     DRN          R$  000000002065300000000206530000000020653000000002065300000000206530000000000000000000002065300001000000000000000160000000000003304480000000000000009999123100000010000000000000BRCHVXBDR008138
012020091602CIEL3       010CIELO       ON      NM   R$  000000000046300000000004670000000000458000000000046000000000004580000000000458000000000045922690000000000024854000000000011451999600000000000000009999123100000010000000000000BRCIELACNOR3142
012020091602CLSC4       010CELESC      PN      N2   R$  000000000540400000000054690000000005400000000000542100000000054000000000005381000000000542900011000000000000001100000000000005963900000000000000009999123100000010000000000000BRCLSCACNPR3115
012020091602CMCS34      010COMCAST     DRN          R$  000000002491000000000249100000000024575000000002473800000000247270000000022000000000002472700078000000000000021100000000000521985520000000000000009999123100000010000000000000BRCMCSBDR008135
012020091602CMIG3       010CEMIG       ON      N1   R$  000000000113700000000011710000000001137000000000115600000000011570000000001157000000000116402779000000000001259400000000001456202500000000000000009999123100000010000000000000BRCMIGACNOR6224
012020091602CMIG4       010CEMIG       PN      N1   R$  000000000106700000000010930000000001065000000000108300000000010810000000001081000000000108225271000000000011512000000000012469744600000000000000009999123100000010000000000000BRCMIGACNPR3225
012020091602CNTO3       010CENTAURO    ON      NM   R$  000000000291800000000029180000000002837000000000286100000000028430000000002843000000000285306099000000000001437900000000004114808700000000000000009999123100000010000000000000BRCNTOACNOR5100
012020091602COCA34      010COCA COLA   DRN ED       R$  000000002702000000000270200000000027020000000002702000000000270200000000024900000000002720000001000000000000001300000000000035126000000000000000009999123100000010000000000000BRCOCABDR002136
012020091602COCE3       010COELCE      ON           R$  000000000724900000000072490000000006700000000000689500000000067040000000006600000000000725000009000000000000000900000000000006205500000000000000009999123100000010000000000000BRCOCEACNOR0139
012020091602COCE5       010COELCE      PNA          R$  000000000592500000000059250000000005850000000000586100000000058500000000005850000000000591900055000000000000016000000000000093784800000000000000009999123100000010000000000000BRCOCEACNPA3140
012020091602COGN3       010COGNA ON    ON      NM   R$  000000000058400000000005960000000000580000000000058700000000005830000000000582000000000058421182000000000038870000000000022855203600000000000000009999123100000010000000000000BRCOGNACNOR2101
012020091602COLG34      010COLGATE     DRN          R$  000000004060000000000406000000000040600000000004060000000000406000000000000000000000000000000001000000000000000010000000000000406000000000000000009999123100000010000000000000BRCOLGBDR000137
012020091602COPH34      010COPHILLIPS  DRN          R$  000000000451400000000045600000000004514000000000455800000000045600000000000000000000000000000004000000000000000230000000000001048340000000000000009999123100000010000000000000BRCOPHBDR009135
012020091602COTY34      010COTY INC    DRN          R$  000000000084500000000008580000000000845000000000085100000000008580000000000801000000000093600002000000000000001400000000000001192100000000000000009999123100000010000000000000BRCOTYBDR006116
012020091602COWC34      010COSTCO      DRN          R$  000000004554000000000455400000000045320000000004538200000000453200000000045000000000004560000002000000000000000700000000000031768000000000000000009999123100000010000000000000BRCOWCBDR006119
012020091602CPFE3       010CPFL ENERGIAON      NM   R$  000000000297400000000030080000000002965000000000298600000000029950000000002994000000000299509757000000000002576900000000007695218300000000000000009999123100000010000000000000BRCPFEACNOR0130
012020091602CPLE3       010COPEL       ON      N1   R$  000000000625000000000063620000000006242000000000631800000000063330000000006312000000000633302394000000000000383800000000002425142700000000000000009999123100000010000000000000BRCPLEACNOR8139
012020091602CPLE6       010COPEL       PNB     N1   R$  000000000650400000000066430000000006480000000000656000000000065330000000006528000000000653305948000000000001118100000000007334883500000000000000009999123100000010000000000000BRCPLEACNPB9136
012020091602CRFB3       010CARREFOUR BRON      NM   R$  000000000209500000000021170000000002074000000000210000000000021050000000002105000000000210612035000000000002504800000000005261273400000000000000009999123100000010000000000000BRCRFBACNOR2107
012020091602CRIV3       010ALFA FINANC ON           R$  000000000061500000000006490000000000556000000000060600000000006280000000000600000000000062900051000000000000033100000000000020079500000000000000009999123100000010000000000000BRCRIVACNOR4194
012020091602CRIV4       010ALFA FINANC PN           R$  000000000065500000000006550000000000600000000000061300000000006350000000000608000000000063500022000000000000006500000000000003987400000000000000009999123100000010000000000000BRCRIVACNPR1204
012020091602CRPG5       010CRISTAL     PNA          R$  000000000205000000000020500000000002022000000000204300000000020380000000002038000000000204500024000000000000003200000000000006539300000000000000009999123100000010000000000000BRCRPGACNPA3108
012020091602CRPG6       010CRISTAL     PNB          R$  000000000202000000000020200000000002000000000000201000000000020000000000001955000000000200000002000000000000000200000000000000402000000000000000009999123100000010000000000000BRCRPGACNPB1108
012020091602CSAB3       010SEG AL BAHIAON           R$  000000000499800000000049980000000004810000000000490400000000048100000000004511000000000499000002000000000000000200000000000000980800000000000000009999123100000010000000000000BRCSABACNOR1058
012020091602CSAN3       010COSAN       ON      NM   R$  000000000763300000000076330000000007522000000000757400000000075220000000007522000000000753907986000000000001126000000000008529091800000000000000009999123100000010000000000000BRCSANACNOR6120
012020091602CSCO34      010CISCO       DRN          R$  000000002141900000000214500000000021350000000002144400000000213500000000000000000000000000000003000000000000001910000000000040959190000000000000009999123100000010000000000000BRCSCOBDR004138
012020091602CSMG3       010COPASA      ON      NM   R$  000000000489900000000049800000000004882000000000493000000000049180000000004912000000000491804513000000000000684900000000003376620300000000000000009999123100000010000000000000BRCSMGACNOR5156
012020091602CSNA3       010SID NACIONALON           R$  000000000164500000000016520000000001607000000000162300000000016310000000001629000000000163118809000000000008679200000000014086467400000000000000009999123100000010000000000000BRCSNAACNOR6252
012020091602CTGP34      010CITIGROUP   DRN          R$  000000002430600000000243060000000024233000000002429500000000242330000000020466000000002423300002000000000000000580000000000014091640000000000000009999123100000010000000000000BRCTGPBDR000139
012020091602CTKA4       010KARSTEN     PN           R$  000000000118000000000011800000000001180000000000118000000000011800000000001180000000000122400002000000000000000300000000000000354000000000000000009999123100000010000000000000BRCTKAACNPR7043
012020091602CTNM3       010COTEMINAS   ON           R$  000000000108500000000010850000000001085000000000108500000000010850000000001085000000000110700001000000000000000200000000000000217000000000000000009999123100000010000000000000BRCTNMACNOR9130
012020091602CTNM4       010COTEMINAS   PN           R$  000000000056000000000005740000000000560000000000056300000000005680000000000568000000000057300032000000000000011700000000000006597300000000000000009999123100000010000000000000BRCTNMACNPR6129
012020091602CTSA3       010SANTANENSE  ON           R$  000000000026000000000002610000000000257000000000025900000000002600000000000257000000000026000015000000000000002700000000000000701700000000000000009999123100000010000000000000BRCTSAACNOR3060
012020091602CTSA4       010SANTANENSE  PN           R$  000000000022500000000002250000000000222000000000022300000000002250000000000222000000000022400023000000000000007500000000000001678400000000000000009999123100000010000000000000BRCTSAACNPR0060
012020091602CVCB3       010CVC BRASIL  ON      NM   R$  000000000175400000000018400000000001749000000000180900000000018200000000001820000000000182119003000000000006808300000000012322090800000000000000009999123100000010000000000000BRCVCBACNOR1113
012020091602CVSH34      010CVS HEALTH  DRN          R$  000000001491900000000151290000000014919000000001504100000000151290000000000000000000001690000004000000000000002460000000000037001090000000000000009999123100000010000000000000BRCVSHBDR008117
012020091602CYRE3       010CYRELA REALTON      NM   R$  000000000244100000000024810000000002390000000000243000000000024010000000002401000000000240229157000000000007316400000000017779849900000000000000009999123100000010000000000000BRCYREACNOR7134
012020091602D1HI34      010DR HORTON INDRN          R$  000000003872900000000387290000000038729000000003872900000000387290000000000000000000000000000001000000000000000010000000000000387290000000000000009999123100000010000000000000BRD1HIBDR008103
012020091602D1LR34      010DIGITAL REALDRN ED       R$  000000001950000000000195000000000019500000000001950000000000195000000000000000000000000000000001000000000000000060000000000001170000000000000000009999123100000010000000000000BRD1LRBDR001103
012020091602DASA3       010DASA        ON           R$  000000000685000000000068500000000006850000000000685000000000068500000000006400000000000690000001000000000000000100000000000000685000000000000000009999123100000010000000000000BRDASAACNOR1119
012020091602DEAI34      010DELTA       DRN          R$  000000001802000000000182030000000018020000000001816900000000181800000000011500000000002300000004000000000000000290000000000005269250000000000000009999123100000010000000000000BRDEAIBDR008116
012020091602DIRR3       010DIRECIONAL  ON      NM   R$  000000000148600000000015030000000001472000000000148600000000014740000000001474000000000147703336000000000000722600000000001074217400000000000000009999123100000010000000000000BRDIRRACNOR0112
012020091602DISB34      010WALT DISNEY DRN          R$  000000006979900000000698920000000069367000000006952800000000694270000000068500000000007100000012000000000000000580000000000040326250000000000000009999123100000010000000000000BRDISBBDR006114
012020091602DMMO3       010DOMMO       ON           R$  000000000012000000000001220000000000119000000000012000000000001210000000000121000000000012201244000000000001936200000000000233312400000000000000009999123100000010000000000000BRDMMOACNOR0102
012020091602DMVF3       010D1000VFARMA ON      NM   R$  000000000111600000000011260000000001073000000000109000000000010780000000001078000000000108001301000000000000429400000000000468232100000000000000009999123100000010000000000000BRDMVFACNOR9100
012020091602DOHL3       010DOHLER      ON           R$  000000000198000000000021000000000001499000000000176000000000014990000000001310000000000150000030000000000000003500000000000006162800000000000000009999123100000010000000000000BRDOHLACNOR2058
012020091602DOHL4       010DOHLER      PN           R$  000000000051500000000005150000000000500000000000050900000000005000000000000494000000000050900043000000000000022800000000000011624800000000000000009999123100000010000000000000BRDOHLACNPR9061
012020091602DTCY3       010DTCOM-DIRECTON           R$  000000000065500000000006550000000000648000000000065100000000006480000000000648000000000065500002000000000000000200000000000000130300000000000000009999123100000010000000000000BRDTCYACNOR5109
012020091602DTEX3       010DURATEX     ON      NM   R$  000000000177000000000018090000000001756000000000178900000000017900000000001789000000000179017853000000000004343900000000007771697000000000000000009999123100000010000000000000BRDTEXACNOR3128
012020091602EAIN34      010ELECTR ARTS DRN          R$  000000003416900000000341690000000033360000000003377400000000333600000000032000000000003650000012000000000000000520000000000017562890000000000000009999123100000010000000000000BREAINBDR007100
012020091602EALT3       010ACO ALTONA  ON           R$  000000000120000000000012000000000001200000000000120000000000012000000000001200000000000124900001000000000000000100000000000000120000000000000000009999123100000010000000000000BREALTACNOR4133
012020091602EALT4       010ACO ALTONA  PN           R$  000000000051500000000005220000000000512000000000051700000000005160000000000511000000000051600031000000000000011100000000000005744800000000000000009999123100000010000000000000BREALTACNPR1133
012020091602ECOR3       010ECORODOVIAS ON      NM   R$  000000000133900000000013390000000001300000000000131200000000013080000000001307000000000130814596000000000003671700000000004817525500000000000000009999123100000010000000000000BRECORACNOR8116
012020091602EGIE3       010ENGIE BRASILON      NM   R$  000000000437900000000043860000000004257000000000430500000000042730000000004273000000000428007834000000000001359800000000005855172500000000000000009999123100000010000000000000BREGIEACNOR9113
012020091602EKTR3       010ELEKTRO     ON           R$  000000000210000000000024100000000002100000000000232800000000024100000000002120000000000241000008000000000000000800000000000001862400000000000000009999123100000010000000000000BREKTRACNOR0144
012020091602EKTR4       010ELEKTRO     PN           R$  000000000216100000000021610000000002161000000000216100000000021610000000002000000000000217800002000000000000000200000000000000432200000000000000009999123100000010000000000000BREKTRACNPR7144
012020091602ELET3       010ELETROBRAS  ON      N1   R$  000000000332200000000033730000000003305000000000333600000000033380000000003338000000000334414497000000000003845400000000012828362100000000000000009999123100000010000000000000BRELETACNOR6155
012020091602ELET6       010ELETROBRAS  PNB     N1   R$  000000000345700000000034820000000003416000000000344300000000034350000000003435000000000344010517000000000002198500000000007570039000000000000000009999123100000010000000000000BRELETACNPB7072
012020091602EMAE4       010EMAE        PN           R$  000000000336400000000033700000000003308000000000335500000000033470000000003346000000000336000011000000000000001600000000000005368700000000000000009999123100000010000000000000BREMAEACNPR1114
012020091602EMBR3       010EMBRAER     ON      NM   R$  000000000068500000000007000000000000678000000000068800000000006920000000000692000000000069312022000000000007853400000000005410039200000000000000009999123100000010000000000000BREMBRACNOR4189
012020091602ENAT3       010ENAUTA PART ON      NM   R$  000000000107600000000010940000000001066000000000108400000000010780000000001078000000000107903743000000000000711100000000000770881900000000000000009999123100000010000000000000BRENATACNOR0101
012020091602ENBR3       010ENERGIAS BR ON      NM   R$  000000000186600000000018770000000001853000000000186300000000018570000000001857000000000186009245000000000001788100000000003331290600000000000000009999123100000010000000000000BRENBRACNOR2129
012020091602ENEV3       010ENEVA       ON      NM   R$  000000000482400000000048550000000004756000000000479400000000047560000000004756000000000476603582000000000000715200000000003429153900000000000000009999123100000010000000000000BRENEVACNOR8104
012020091602ENGI3       010ENERGISA    ON      N2   R$  000000000133300000000013640000000001333000000000135200000000013410000000001339000000000136500042000000000000005100000000000006895400000000000000009999123100000010000000000000BRENGIACNOR0138
012020091602ENGI4       010ENERGISA    PN      N2   R$  000000000079100000000008090000000000787000000000080000000000008050000000000775000000000080700061000000000000015100000000000012083500000000000000009999123100000010000000000000BRENGIACNPR7134
012020091602ENGI11      010ENERGISA    UNT     N2   R$  000000000445700000000045970000000004457000000000454100000000045620000000004559000000000456408689000000000001497800000000006802228700000000000000009999123100000010000000000000BRENGICDAM16128
012020091602ENMT3       010ENERGISA MT ON           R$  000000000299000000000029900000000002750000000000288400000000029900000000002650000000000299000022000000000000002500000000000007211100000000000000009999123100000010000000000000BRENMTACNOR5111
012020091602ENMT4       010ENERGISA MT PN           R$  000000000299000000000029900000000002900000000000296600000000029900000000002650000000000299000008000000000000000800000000000002372800000000000000009999123100000010000000000000BRENMTACNPR2114
012020091602EQPA3       010EQTL PARA   ON           R$  000000000033300000000003370000000000324000000000033000000000003350000000000326000000000033500068000000000000014500000000000004786000000000000000009999123100000010000000000000BREQPAACNOR1101
012020091602EQTL3       010EQUATORIAL  ON      NM   R$  000000000228400000000023200000000002272000000000230200000000023140000000002306000000000231415835000000000004701600000000010824666300000000000000009999123100000010000000000000BREQTLACNOR0126
012020091602ESTR4       010ESTRELA     PN           R$  000000000291000000000029100000000002850000000000288000000000028500000000002800000000000299000002000000000000000200000000000000576000000000000000009999123100000010000000000000BRESTRACNPR0143
012020091602EUCA3       010EUCATEX     ON      N1   R$  000000000227800000000022980000000002277000000000228200000000022800000000002280000000000229800012000000000000001400000000000003196000000000000000009999123100000010000000000000BREUCAACNOR1151
012020091602EUCA4       010EUCATEX     PN      N1   R$  000000000066600000000006920000000000666000000000068100000000006910000000000673000000000069100146000000000000032200000000000021940700000000000000009999123100000010000000000000BREUCAACNPR8038
012020091602EVEN3       010EVEN        ON      NM   R$  000000000126800000000012760000000001240000000000125500000000012400000000001240000000000124210951000000000002625000000000003295218800000000000000009999123100000010000000000000BREVENACNOR8112
012020091602EXXO34      010EXXON MOBIL DRN          R$  000000000480900000000049720000000004809000000000486500000000049720000000004900000000000497200003000000000000001870000000000009099140000000000000009999123100000010000000000000BREXXOBDR006140
012020091602EZTC3       010EZTEC       ON      NM   R$  000000000409900000000041340000000003991000000000406000000000040090000000004007000000000400914988000000000003292200000000013368847600000000000000009999123100000010000000000000BREZTCACNOR0114
012020091602F1IS34      010FISERV INC  DRN          R$  000000002690000000000269000000000026900000000002690000000000269000000000000000000000000000000001000000000000000100000000000002690000000000000000009999123100000010000000000000BRF1ISBDR003100
012020091602F1NI34      010FIDELITY NATDRN ED       R$  000000001952500000000195250000000019525000000001952500000000195250000000000000000000000000000001000000000000000140000000000002733500000000000000009999123100000010000000000000BRF1NIBDR004103
012020091602FBOK34      010FACEBOOK    DRN          R$  000000007184700000000718470000000068690000000006965900000000691000000000069100000000007968800059000000000000008980000000000625542890000000000000009999123100000010000000000000BRFBOKBDR006100
012020091602FDXB34      010FEDEX CORP  DRN          R$  000000013118600000001317150000000130999000000013140300000001309990000000000000000000000000000003000000000000000040000000000005256150000000000000009999123100000010000000000000BRFDXBBDR002128
012020091602FESA3       010FERBASA     ON  EJ  N1   R$  000000000270000000000027000000000002550000000000260400000000025570000000002479000000000270000015000000000000002800000000000007291400000000000000009999123100000010000000000000BRFESAACNOR8171
012020091602FESA4       010FERBASA     PN  EJ  N1   R$  000000000182900000000018390000000001800000000000181800000000018270000000001810000000000182700560000000000000129800000000000236098100000000000000009999123100000010000000000000BRFESAACNPR5067
012020091602FLRY3       010FLEURY      ON      NM   R$  000000000292100000000029810000000002920000000000295900000000029700000000002967000000000297113880000000000002148100000000006357651900000000000000009999123100000010000000000000BRFLRYACNOR5127
012020091602FMXB34      010FEMSA       DRN          R$  000000002964400000000296440000000029644000000002964400000000296440000000000000000000000000000002000000000000000040000000000001185760000000000000009999123100000010000000000000BRFMXBBDR003105
012020091602FRAS3       010FRAS-LE     ON      N1   R$  000000000054300000000005450000000000535000000000053800000000005440000000000535000000000054400172000000000000081200000000000043700100000000000000009999123100000010000000000000BRFRASACNOR0149
012020091602GEOO34      010GE          DRN          R$  000000000326100000000035520000000003261000000000338600000000035460000000002989000000000354600004000000000000000900000000000003048270000000000000009999123100000010000000000000BRGEOOBDR000140
012020091602GEPA3       010GER PARANAP ON           R$  000000000419300000000041930000000004193000000000419300000000041930000000004193000000000435900001000000000000000100000000000000419300000000000000009999123100000010000000000000BRGEPAACNOR2146
012020091602GEPA4       010GER PARANAP PN           R$  000000000457000000000046000000000004570000000000458500000000046000000000004570000000000460000002000000000000000200000000000000917000000000000000009999123100000010000000000000BRGEPAACNPR9153
012020091602GFSA3       010GAFISA      ON      NM   R$  000000000046500000000004710000000000452000000000046000000000004540000000000453000000000045404549000000000005529800000000002545028500000000000000009999123100000010000000000000BRGFSAACNOR3119
012020091602GGBR3       010GERDAU      ON      N1   R$  000000000176000000000017600000000001725000000000173900000000017560000000001733000000000175600223000000000000061900000000000107670100000000000000009999123100000010000000000000BRGGBRACNOR1173
012020091602GGBR4       010GERDAU      PN      N1   R$  000000000214200000000021450000000002088000000000211100000000021190000000002115000000000211924050000000000012745300000000026910362900000000000000009999123100000010000000000000BRGGBRACNPR8173
012020091602GILD34      010GILEAD      DRN ED       R$  000000001746000000000174600000000017460000000001746000000000174600000000000000000000000000000001000000000000002400000000000041904000000000000000009999123100000010000000000000BRGILDBDR000118
012020091602GMCO34      010GENERAL MOT DRN          R$  000000001720000000000172000000000016744000000001682200000000167590000000016100000000001690000033000000000000000990000000000016654630000000000000009999123100000010000000000000BRGMCOBDR008115
012020091602GNDI3       010INTERMEDICA ON      NM   R$  000000000718500000000073600000000007155000000000724900000000071860000000007185000000000721114892000000000002490800000000018058267700000000000000009999123100000010000000000000BRGNDIACNOR2102
012020091602GOAU3       010GERDAU MET  ON      N1   R$  000000000084800000000008480000000000821000000000083000000000008340000000000834000000000083600306000000000000098300000000000081645300000000000000009999123100000010000000000000BRGOAUACNOR1250
012020091602GOAU4       010GERDAU MET  PN      N1   R$  000000000096200000000009620000000000932000000000094000000000009440000000000943000000000094413153000000000015712600000000014783769600000000000000009999123100000010000000000000BRGOAUACNPR8251
012020091602GOGL34      010ALPHABET    DRN A        R$  000000003250700000000327300000000031800000000003201300000000320020000000031720000000003200200073000000000000009420000000000301571080000000000000009999123100000010000000000000BRGOGLBDR001100
012020091602GOGL35      010ALPHABET    DRN C        R$  000000003237900000000323790000000032178000000003237300000000321780000000000000000000003217800002000000000000001850000000000059891100000000000000009999123100000010000000000000BRGOGLBDR019100
012020091602GOLL4       010GOL         PN      N2   R$  000000000209500000000021910000000002072000000000215000000000021570000000002157000000000215825377000000000011386200000000024482387800000000000000009999123100000010000000000000BRGOLLACNPR4125
012020091602GPAR3       010CELGPAR     ON           R$  000000000290000000000030500000000002900000000000297800000000029990000000002905000000000304400006000000000000000600000000000001786900000000000000009999123100000010000000000000BRGPARACNOR4104
012020091602GPIV33      010GP INVEST   DR3          R$  000000000048900000000005000000000000481000000000048500000000004880000000000486000000000048800183000000000000126700000000000061516000000000000000009999123100000010000000000000BRGPIVBDR003104
012020091602GPRO34      010GOPRO       DRN          R$  000000000212400000000021240000000002124000000000212400000000021240000000001580000000000250000001000000000000000030000000000000063720000000000000009999123100000010000000000000BRGPROBDR009100
012020091602GRND3       010GRENDENE    ON      NM   R$  000000000078800000000007910000000000781000000000078600000000007910000000000790000000000079102322000000000000935900000000000735641300000000000000009999123100000010000000000000BRGRNDACNOR3158
012020091602GSGI34      010GOLDMANSACHSDRN          R$  000000001061900000000106500000000010581000000001062000000000106050000000000000000000000000000004000000000000001410000000000014974590000000000000009999123100000010000000000000BRGSGIBDR008140
012020091602GSHP3       010GENERALSHOPPON      NM   R$  000000000479000000000047900000000004790000000000479000000000047900000000004770000000000490000001000000000000000100000000000000479000000000000000009999123100000010000000000000BRGSHPACNOR7102
012020091602GUAR3       010GUARARAPES  ON           R$  000000000170800000000017570000000001690000000000173300000000017250000000001725000000000173903293000000000000891300000000001544717700000000000000009999123100000010000000000000BRGUARACNOR4165
012020091602HAGA3       010HAGA S/A    ON           R$  000000000032400000000003350000000000310000000000032100000000003220000000000322000000000033700041000000000000012500000000000004023100000000000000009999123100000010000000000000BRHAGAACNOR7103
012020091602HAGA4       010HAGA S/A    PN           R$  000000000019800000000001990000000000196000000000019700000000001970000000000197000000000019800069000000000000041800000000000008241400000000000000009999123100000010000000000000BRHAGAACNPR4103
012020091602HALI34      010HALLIBURTON DRN          R$  000000000787500000000078750000000007875000000000787500000000078750000000006040000000000000000001000000000000000120000000000000945000000000000000009999123100000010000000000000BRHALIBDR004135
012020091602HAPV3       010HAPVIDA     ON  EJ  NM   R$  000000000666100000000067890000000006589000000000669400000000066240000000006624000000000663511042000000000001806900000000012096063300000000000000009999123100000010000000000000BRHAPVACNOR4106
012020091602HBOR3       010HELBOR      ON      NM   R$  000000000115200000000011920000000001150000000000117600000000011650000000001165000000000116602174000000000001352100000000001590223400000000000000009999123100000010000000000000BRHBORACNOR3114
012020091602HBTS5       010HABITASUL   PNA          R$  000000000278500000000027850000000002785000000000278500000000027850000000002100000000000270100002000000000000000200000000000000557000000000000000009999123100000010000000000000BRHBTSACNPA3124
012020091602HETA4       010HERCULES    PN           R$  000000000082300000000008230000000000771000000000080000000000007730000000000775000000000080000005000000000000000500000000000000400000000000000000009999123100000010000000000000BRHETAACNPR9136
012020091602HGTX3       010CIA HERING  ON      NM   R$  000000000191000000000019200000000001858000000000187700000000018670000000001865000000000186709632000000000003302500000000006202018800000000000000009999123100000010000000000000BRHGTXACNOR9151
012020091602HOME34      010HOME DEPOT  DRN          R$  000000007400000000000742460000000074000000000007422300000000742240000000000000000000000000000003000000000000002760000000000204857100000000000000009999123100000010000000000000BRHOMEBDR002134
012020091602HYPE3       010HYPERA      ON      NM   R$  000000000317700000000031850000000003070000000000311400000000030860000000003085000000000308617880000000000003214200000000010009192700000000000000009999123100000010000000000000BRHYPEACNOR0122
012020091602I1LM34      010ILLUMINA INCDRN          R$  000000003774000000000377400000000036000000000003708700000000360000000000000000000000000000000003000000000000000320000000000011868000000000000000009999123100000010000000000000BRI1LMBDR007100
012020091602IBOV11      010IBOVESPA    IBO          R$  000001001550000000100155000000010015500000001001550000000100155000000000000000000000000000000098000000000000015411000000154348870500000000000000009999123100000010000000000000BRIBOVINDM18007
012020091602IDVL3       010INDUSVAL    ON      N2   R$  000000000025500000000002620000000000246000000000025400000000002540000000000254000000000025700066000000000000027900000000000007102800000000000000009999123100000010000000000000BRIDVLACNOR5130
012020091602IDVL4       010INDUSVAL    PN      N2   R$  000000000025200000000002750000000000241000000000026000000000002640000000000258000000000026400239000000000000444200000000000115777400000000000000009999123100000010000000000000BRIDVLACNPR2130
012020091602IGTA3       010IGUATEMI    ON      NM   R$  000000000362200000000037500000000003599000000000369100000000036820000000003682000000000368312011000000000002543900000000009391805500000000000000009999123100000010000000000000BRIGTAACNOR5124
012020091602INGG34      010ING GROEP   DRN          R$  000000000432100000000043210000000004321000000000432100000000043210000000000000000000000000000001000000000000000400000000000001728400000000000000009999123100000010000000000000BRINGGBDR009100
012020091602IRBR3       010IRBBRASIL REON      NM   R$  000000000059600000000006020000000000590000000000059500000000005920000000000591000000000059219710000000000019682400000000011723445200000000000000009999123100000010000000000000BRIRBRACNOR4108
012020091602ITLC34      010INTEL       DRN          R$  000000002656300000000266490000000026563000000002656700000000266490000000025600000000002664900003000000000000001490000000000039585950000000000000009999123100000010000000000000BRITLCBDR005139
012020091602ITSA3       010ITAUSA      ON      N1   R$  000000000106500000000010760000000001050000000000106000000000010520000000001052000000000105500671000000000000208200000000000220801400000000000000009999123100000010000000000000BRITSAACNOR0401
012020091602ITSA4       010ITAUSA      PN      N1   R$  000000000093000000000009440000000000923000000000093200000000009260000000000925000000000092627939000000000028857300000000026919363100000000000000009999123100000010000000000000BRITSAACNPR7401
012020091602ITUB3       010ITAUUNIBANCOON      N1   R$  000000000225000000000022890000000002231000000000225500000000022310000000002230000000000224401957000000000000381000000000000859506700000000000000009999123100000010000000000000BRITUBACNOR4273
012020091602ITUB4       010ITAUUNIBANCOPN      N1   R$  000000000237600000000024220000000002364000000000238700000000023660000000002366000000000236844025000000000025625200000000061177219700000000000000009999123100000010000000000000BRITUBACNPR1273
012020091602JBDU3       010J B DUARTE  ON           R$  000000000020100000000002110000000000200000000000020500000000002070000000000201000000000020700027000000000000009100000000000001873800000000000000009999123100000010000000000000BRJBDUACNOR6142
012020091602JBDU4       010J B DUARTE  PN           R$  000000000012400000000001290000000000122000000000012500000000001250000000000123000000000012500041000000000000015700000000000001972600000000000000009999123100000010000000000000BRJBDUACNPR3142
012020091602JBSS3       010JBS         ON      NM   R$  000000000240600000000024240000000002323000000000235500000000023340000000002334000000000233528054000000000012655500000000029814524700000000000000009999123100000010000000000000BRJBSSACNOR8115
012020091602JDCO34      010JD COM      DRN          R$  000000003960000000000396000000000039479000000003959300000000394790000000039099000000004700000002000000000000000530000000000020984370000000000000009999123100000010000000000000BRJDCOBDR001100
012020091602JHSF3       010JHSF PART   ON      NM   R$  000000000075000000000007780000000000750000000000076600000000007590000000000758000000000075911218000000000009035300000000006928599100000000000000009999123100000010000000000000BRJHSFACNOR2116
012020091602JNJB34      010JOHNSON     DRN          R$  000000007830100000000786000000000078000000000007835400000000782990000000000000000000007829900007000000000000002290000000000179432070000000000000009999123100000010000000000000BRJNJBBDR002135
012020091602JOPA3       010JOSAPAR     ON           R$  000000000329100000000032910000000003291000000000329100000000032910000000003192000000000335500001000000000000000100000000000000329100000000000000009999123100000010000000000000BRJOPAACNOR5131
012020091602JPMC34      010JPMORGAN    DRN          R$  000000002629300000000264900000000026219000000002631900000000262690000000025500000000002626900028000000000000003140000000000082642410000000000000009999123100000010000000000000BRJPMCBDR009134
012020091602JPSA3       010JEREISSATI  ON           R$  000000000237900000000024280000000002342000000000238900000000024000000000002396000000000240701438000000000000646200000000001544249900000000000000009999123100000010000000000000BRJPSAACNOR6103
012020091602JSLG11      010JSL         ON  P   NM   R$  000000000098000000000009800000000000920000000000093400000000009300000000000930000000000093500331000000000000264700000000000247270800000000000000009999123100000010000000000000BRJSLGA02OR1100
012020091602JSLG3       010JSL         ON      NM   R$  000000000309700000000031180000000003031000000000307300000000030580000000003056000000000305802300000000000000495800000000001523941600000000000000009999123100000010000000000000BRJSLGACNOR2114
012020091602KEPL3       010KEPLER WEBERON           R$  000000000428900000000043090000000004199000000000425300000000042500000000004220000000000425000346000000000000064900000000000276051200000000000000009999123100000010000000000000BRKEPLACNOR1049
012020091602KHCB34      010KRAFT HEINZ DRN          R$  000000001650000000000166400000000016500000000001653900000000165400000000016200000000001736700004000000000000000650000000000010750730000000000000009999123100000010000000000000BRKHCBBDR007121
012020091602KLBN3       010KLABIN S/A  ON      N2   R$  000000000054400000000005490000000000521000000000053300000000005280000000000527000000000052800925000000000000278600000000000148557900000000000000009999123100000010000000000000BRKLBNACNOR2156
012020091602KLBN4       010KLABIN S/A  PN      N2   R$  000000000050400000000005150000000000487000000000049700000000004940000000000494000000000049502776000000000001894100000000000942402500000000000000009999123100000010000000000000BRKLBNACNPR9156
012020091602KLBN11      010KLABIN S/A  UNT     N2   R$  000000000258600000000026080000000002467000000000251100000000025070000000002505000000000250721265000000000004876100000000012247809200000000000000009999123100000010000000000000BRKLBNCDAM18128
012020091602LAME3       010LOJAS AMERICON      N1   R$  000000000270000000000027000000000002648000000000267400000000026800000000002680000000000268410627000000000002477500000000006625785100000000000000009999123100000010000000000000BRLAMEACNOR9202
012020091602LAME4       010LOJAS AMERICPN      N1   R$  000000000312700000000031380000000003077000000000310800000000030880000000003088000000000309021067000000000004767900000000014818800900000000000000009999123100000010000000000000BRLAMEACNPR6202
012020091602LAVV3       010LAVVI       ON      NM   R$  000000000079700000000008350000000000790000000000081300000000008200000000000819000000000082005660000000000004338600000000003527928000000000000000009999123100000010000000000000BRLAVVACNOR4100
012020091602LBRN34      010L BRANDS    DRN          R$  000000000391500000000039150000000003915000000000391500000000039150000000000000000000000000000001000000000000000080000000000000313200000000000000009999123100000010000000000000BRLBRNBDR001119
012020091602LCAM3       010LOCAMERICA  ON      NM   R$  000000000217100000000022180000000002160000000000218700000000021800000000002180000000000218907386000000000001996200000000004367572700000000000000009999123100000010000000000000BRLCAMACNOR3133
012020091602LEVE3       010METAL LEVE  ON      NM   R$  000000000177600000000018060000000001772000000000179400000000018040000000001802000000000180401753000000000000346500000000000621651500000000000000009999123100000010000000000000BRLEVEACNOR2187
012020091602LIGT3       010LIGHT S/A   ON      NM   R$  000000000148500000000015480000000001473000000000151900000000015180000000001518000000000152005423000000000001471100000000002234887400000000000000009999123100000010000000000000BRLIGTACNOR2120
012020091602LINX3       010LINX        ON      NM   R$  000000000362900000000036500000000003580000000000361500000000036040000000003602000000000361504509000000000001045700000000003780287900000000000000009999123100000010000000000000BRLINXACNOR0118
012020091602LJQQ3       010QUERO-QUERO ON      NM   R$  000000000150900000000016000000000001489000000000152800000000014910000000001491000000000151007085000000000002653700000000004057306000000000000000009999123100000010000000000000BRLJQQACNOR5100
012020091602LOGG3       010LOG COM PROPON      NM   R$  000000000320000000000033320000000003150000000000327500000000032210000000003221000000000323003221000000000000539000000000001765289800000000000000009999123100000010000000000000BRLOGGACNOR7103
012020091602LOGN3       010LOG-IN      ON      NM   R$  000000000181000000000018530000000001796000000000181000000000018000000000001799000000000181403384000000000000969400000000001755379200000000000000009999123100000010000000000000BRLOGNACNOR3104
012020091602LPSB3       010LOPES BRASILON      NM   R$  000000000057100000000005910000000000564000000000057600000000005700000000000570000000000057302356000000000000877000000000000505481800000000000000009999123100000010000000000000BRLPSBACNOR0111
012020091602LREN3       010LOJAS RENNERON      NM   R$  000000000444900000000045050000000004382000000000446100000000044760000000004476000000000447736896000000000011028900000000049209585700000000000000009999123100000010000000000000BRLRENACNOR1203
012020091602LUXM4       010TREVISA     PN           R$  000000000460000000000046000000000004600000000000460000000000046000000000003833000000000469000002000000000000000200000000000000920000000000000000009999123100000010000000000000BRLUXMACNPR4047
012020091602LWSA3       010LOCAWEB     ON      NM   R$  000000000610400000000062000000000006069000000000614600000000061010000000006101000000000610704657000000000000795600000000004890076200000000000000009999123100000010000000000000BRLWSAACNOR8100
012020091602M1CH34      010MICROCHIP TEDRN          R$  000000002747900000000274790000000027479000000002747900000000274790000000000000000000000000000001000000000000000100000000000002747900000000000000009999123100000010000000000000BRM1CHBDR000103
012020091602M1NS34      010MONSTER BEVEDRN          R$  000000004305000000000430500000000043050000000004305000000000430500000000000000000000000000000001000000000000000010000000000000430500000000000000009999123100000010000000000000BRM1NSBDR004100
012020091602M1TT34      010MARRIOTT INTDRN          R$  000000001393800000000139380000000013938000000001393800000000139380000000000000000000000000000001000000000000000210000000000002926980000000000000009999123100000010000000000000BRM1TTBDR009101
012020091602MACY34      010MACY S      DRN          R$  000000000366700000000036670000000003667000000000366700000000036670000000003500000000000420000001000000000000000200000000000000733400000000000000009999123100000010000000000000BRMACYBDR000116
012020091602MCDC34      010MCDONALDS   DRN          R$  000000002939900000000294390000000029399000000002943300000000294210000000000000000000003000000006000000000000002150000000000063281450000000000000009999123100000010000000000000BRMCDCBDR000140
012020091602MDIA3       010M.DIASBRANCOON      NM   R$  000000000383300000000038930000000003773000000000382700000000037900000000003786000000000379008032000000000001633200000000006251292300000000000000009999123100000010000000000000BRMDIAACNOR7118
012020091602MDNE3       010MOURA DUBEUXON      NM   R$  000000000088500000000008990000000000867000000000087800000000008800000000000874000000000088000917000000000000221200000000000194286900000000000000009999123100000010000000000000BRMDNEACNOR9100
012020091602MEAL3       010IMC S/A     ON      NM   R$  000000000037000000000003720000000000365000000000036700000000003680000000000368000000000036910432000000000013749500000000005053013100000000000000009999123100000010000000000000BRMEALACNOR9105
012020091602MELI34      010MERCADOLIBREDRN          R$  000000005539900000000553990000000052500000000005373800000000529810000000052700000000005298100217000000000000008670000000000465910080000000000000009999123100000010000000000000BRMELIBDR006100
012020091602MERC4       010MERC FINANC PN           R$  000000000119800000000011980000000001198000000000119800000000011980000000001160000000000129900001000000000000000100000000000000119800000000000000009999123100000010000000000000BRMERCACNPR9173
012020091602MGEL4       010MANGELS INDLPN           R$  000000000059600000000006300000000000560000000000061200000000006300000000000570000000000063000029000000000000018000000000000011020900000000000000009999123100000010000000000000BRMGELACNPR3147
012020091602MGLU3       010MAGAZ LUIZA ON      NM   R$  000000000898200000000090900000000008863000000000895000000000089170000000008917000000000892034623000000000009244900000000082746141000000000000000009999123100000010000000000000BRMGLUACNOR2116
012020091602MILS3       010MILLS       ON      NM   R$  000000000067500000000006900000000000668000000000067600000000006700000000000670000000000067304135000000000001651500000000001117616400000000000000009999123100000010000000000000BRMILSACNOR2112
012020091602MMMC34      0103M          DRN          R$  000000002216800000000223010000000022168000000002221900000000223010000000015000000000000000000002000000000000001300000000000028884900000000000000009999123100000010000000000000BRMMMCBDR000134
012020091602MNDL3       010MUNDIAL     ON           R$  000000000230000000000023000000000002300000000000230000000000023000000000002300000000000240000001000000000000000100000000000000230000000000000000009999123100000010000000000000BRMNDLACNOR4107
012020091602MNPR3       010MINUPAR     ON           R$  000000000061500000000006200000000000580000000000061200000000006140000000000585000000000061300025000000000000009200000000000005636600000000000000009999123100000010000000000000BRMNPRACNOR5122
012020091602MOAR3       010MONT ARANHA ON           R$  000000001970000000000200000000000017800000000001899000000000200000000000018900000000002030000023000000000000002300000000000043679000000000000000009999123100000010000000000000BRMOARACNOR5212
012020091602MOVI3       010MOVIDA      ON      NM   R$  000000000176900000000018030000000001760000000000178500000000017900000000001790000000000179104571000000000001388000000000002478633000000000000000009999123100000010000000000000BRMOVIACNOR0111
012020091602MRCK34      010MERCK       DRN ED       R$  000000004498500000000449850000000044985000000004498500000000449850000000000000000000004550000001000000000000000200000000000008997000000000000000009999123100000010000000000000BRMRCKBDR003140
012020091602MRFG3       010MARFRIG     ON      NM   R$  000000000172200000000017370000000001628000000000166000000000016700000000001669000000000167047030000000000020169200000000033499738100000000000000009999123100000010000000000000BRMRFGACNOR0109
012020091602MRVE3       010MRV         ON      NM   R$  000000000176600000000017720000000001736000000000175100000000017490000000001749000000000175014668000000000003488500000000006110242700000000000000009999123100000010000000000000BRMRVEACNOR2120
012020091602MSBR34      010MORGAN STAN DRN          R$  000000002688000000000268800000000026880000000002688000000000268800000000000000000000000000000003000000000000000250000000000006720000000000000000009999123100000010000000000000BRMSBRBDR008129
012020091602MSCD34      010MASTERCARD  DRN          R$  000000017987900000001798790000000179879000000017987900000001798790000000151600000000000000000001000000000000000300000000000053963700000000000000009999123100000010000000000000BRMSCDBDR006137
012020091602MSFT34      010MICROSOFT   DRN          R$  000000011070700000001107070000000107600000000010860000000001083220000000107600000000010832200037000000000000005000000000000543004980000000000000009999123100000010000000000000BRMSFTBDR005139
012020091602MTRE3       010MITRE REALTYON      NM   R$  000000000153900000000015850000000001530000000000156000000000015590000000001555000000000155906401000000000001387300000000002165237500000000000000009999123100000010000000000000BRMTREACNOR6100
012020091602MTSA4       010METISA      PN           R$  000000000269900000000027800000000002696000000000274000000000027800000000002740000000000278000031000000000000012200000000000033428800000000000000009999123100000010000000000000BRMTSAACNPR9056
012020091602MULT3       010MULTIPLAN   ON      N2   R$  000000000227100000000023450000000002252000000000232100000000023120000000002312000000000231320908000000000005152900000000011964614500000000000000009999123100000010000000000000BRMULTACNOR5127
012020091602MYPK3       010IOCHP-MAXIONON      NM   R$  000000000131200000000013380000000001307000000000132000000000013180000000001313000000000131805156000000000000968700000000001279131100000000000000009999123100000010000000000000BRMYPKACNOR7148
012020091602N1EM34      010NEWMONT GOLDDRN ED       R$  000000003554000000000359100000000035540000000003587700000000356340000000033000000000000000000004000000000000000350000000000012557240000000000000009999123100000010000000000000BRN1EMBDR005103
012020091602N1TR34      010NORTHERN TRUDRN ED       R$  000000002207700000000220770000000021879000000002198100000000218790000000000000000000000000000004000000000000000580000000000012749220000000000000009999123100000010000000000000BRN1TRBDR002103
012020091602N1VR34      010NVR INC     DRN          R$  000000004321400000000432140000000043214000000004321400000000432140000000000000000000000000000001000000000000000200000000000008642800000000000000009999123100000010000000000000BRN1VRBDR008100
012020091602NEOE3       010NEOENERGIA  ON      NM   R$  000000000179500000000018140000000001769000000000178700000000017900000000001790000000000179113466000000000002418800000000004322789800000000000000009999123100000010000000000000BRNEOEACNOR3111
012020091602NFLX34      010NETFLIX     DRN          R$  000000026000000000002600000000000255200000000025699600000002552000000000247000000000027500000007000000000000000480000000000123358510000000000000009999123100000010000000000000BRNFLXBDR000101
012020091602NOKI34      010NOKIA CORP  DRN          R$  000000000220100000000022010000000002159000000000219600000000021610000000000000000000000000000003000000000000000290000000000000637070000000000000009999123100000010000000000000BRNOKIBDR005100
012020091602NORD3       010NORDON MET  ON           R$  000000000056400000000005650000000000502000000000055800000000005020000000000501000000000056100017000000000000002300000000000001285100000000000000009999123100000010000000000000BRNORDACNOR7135
012020091602NTCO3       010GRUPO NATURAON      NM   R$  000000000540000000000054600000000005251000000000533300000000052730000000005272000000000528130008000000000006303400000000033620309600000000000000009999123100000010000000000000BRNTCOACNOR5101
012020091602NVDC34      010NVIDIA CORP DRN          R$  000000006909900000000690990000000065899000000006674500000000658990000000068200000000006900000055000000000000004130000000000275657680000000000000009999123100000010000000000000BRNVDCBDR008106
012020091602ODPV3       010ODONTOPREV  ON      NM   R$  000000000127200000000012860000000001264000000000127700000000012820000000001280000000000128204974000000000001433400000000001831519100000000000000009999123100000010000000000000BRODPVACNOR4178
012020091602OFSA3       010OUROFINO S/AON      NM   R$  000000000287700000000028880000000002851000000000288200000000028870000000002852000000000288800038000000000000019000000000000054767000000000000000009999123100000010000000000000BROFSAACNOR7109
012020091602OMGE3       010OMEGA GER   ON      NM   R$  000000000396600000000039660000000003889000000000391500000000039240000000003920000000000392403568000000000001090500000000004270190600000000000000009999123100000010000000000000BROMGEACNOR0101
012020091602P1SX34      010PHILLIPS 66 DRN          R$  000000001550000000000155000000000015500000000001550000000000155000000000000000000000000000000001000000000000000070000000000001085000000000000000009999123100000010000000000000BRP1SXBDR000103
012020091602PARD3       010IHPARDINI   ON      NM   R$  000000000242100000000024750000000002372000000000241600000000023870000000002387000000000239505049000000000001101500000000002662154900000000000000009999123100000010000000000000BRPARDACNOR1114
012020091602PATI4       010PANATLANTICAPN           R$  000000000286500000000028650000000002865000000000286500000000028650000000002800000000000289000003000000000000003000000000000008595000000000000000009999123100000010000000000000BRPATIACNPR3060
012020091602PCAR3       010P.ACUCAR-CBDON      NM   R$  000000000740000000000075580000000007397000000000750100000000075070000000007507000000000750809398000000000001852900000000013899246500000000000000009999123100000010000000000000BRPCARACNOR3163
012020091602PDTC3       010PADTEC      ON           R$  000000000055700000000005580000000000531000000000054100000000005350000000000535000000000054500105000000000000035900000000000019435800000000000000009999123100000010000000000000BRPDTCACNOR3100
012020091602PEPB34      010PEPSICO INC DRN          R$  000000007107300000000710730000000071073000000007107300000000710730000000065100000000000000000001000000000000000800000000000056858400000000000000009999123100000010000000000000BRPEPBBDR005132
012020091602PETR3       010PETROBRAS   ON      N2   R$  000000000220800000000022290000000002173000000000220700000000021950000000002195000000000219735551000000000015243600000000033656083500000000000000009999123100000010000000000000BRPETRACNOR9191
012020091602PETR4       010PETROBRAS   PN      N2   R$  000000000218500000000021990000000002160000000000218100000000021730000000002173000000000217554412000000000050379500000000109878614700000000000000009999123100000010000000000000BRPETRACNPR6197
012020091602PETZ3       010PETZ        ON      NM   R$  000000000155000000000015820000000001536000000000155600000000015450000000001544000000000155007038000000000002698000000000004200549300000000000000009999123100000010000000000000BRPETZACNOR2100
012020091602PFIZ34      010PFIZER      DRN          R$  000000001962000000000196200000000019322000000001946500000000194260000000019300000000001942600017000000000000003410000000000066378300000000000000009999123100000010000000000000BRPFIZBDR006140
012020091602PFRM3       010PROFARMA    ON      NM   R$  000000000048600000000004970000000000486000000000049100000000004950000000000490000000000049501937000000000000563400000000000276702300000000000000009999123100000010000000000000BRPFRMACNOR1112
012020091602PGCO34      010PG          DRN          R$  000000007278900000000727890000000072789000000007278900000000727890000000000000000000007278900001000000000000000040000000000002911560000000000000009999123100000010000000000000BRPGCOBDR001139
012020091602PGMN3       010PAGUE MENOS ON      NM   R$  000000000097600000000009870000000000962000000000097000000000009870000000000979000000000098800752000000000000252900000000000245562400000000000000009999123100000010000000000000BRPGMNACNOR8100
012020091602PHMO34      010PHILIP MORRIDRN          R$  000000002170000000000217000000000021700000000002170000000000217000000000000000000000000000000001000000000000000050000000000001085000000000000000009999123100000010000000000000BRPHMOBDR008113
012020091602PINE4       010PINE        PN      N2   R$  000000000027200000000002750000000000270000000000027100000000002720000000000271000000000027200161000000000000077800000000000021089000000000000000009999123100000010000000000000BRPINEACNPR8144
012020091602PLAS3       010PLASCAR PARTON           R$  000000000046400000000004690000000000442000000000045300000000004440000000000445000000000045600012000000000000001400000000000000635500000000000000009999123100000010000000000000BRPLASACNOR2106
012020091602PMAM3       010PARANAPANEMAON      NM   R$  000000000115000000000011760000000001150000000000116100000000011520000000001152000000000115800208000000000000051700000000000060031500000000000000009999123100000010000000000000BRPMAMACNOR3037
012020091602PNVL3       010DIMED       ON           R$  000000000241200000000024600000000002405000000000243700000000024470000000002447000000000245001006000000000000329300000000000802664200000000000000009999123100000010000000000000BRPNVLACNOR9196
012020091602PNVL4       010DIMED       PN           R$  000000000214900000000021700000000002121000000000214400000000021430000000002143000000000214400070000000000000011900000000000025518000000000000000009999123100000010000000000000BRPNVLACNPR6196
012020091602POMO3       010MARCOPOLO   ON      N2   R$  000000000027700000000002790000000000276000000000027700000000002760000000000276000000000027700176000000000000063700000000000017649400000000000000009999123100000010000000000000BRPOMOACNOR0087
012020091602POMO4       010MARCOPOLO   PN      N2   R$  000000000030100000000003040000000000295000000000029900000000003000000000000299000000000030002305000000000005081600000000001521203900000000000000009999123100000010000000000000BRPOMOACNPR7087
012020091602POSI3       010POSITIVO TECON      NM   R$  000000000048400000000005040000000000478000000000049300000000004950000000000495000000000049603398000000000002749700000000001355651400000000000000009999123100000010000000000000BRPOSIACNOR9112
012020091602PPLA11      010PPLA        UNT          R$  000000000168000000000018450000000001660000000000176600000000017260000000001680000000000172600158000000000000034000000000000060072300000000000000009999123100000010000000000000BRPPLAUNT007101
012020091602PRIO3       010PETRORIO    ON      NM   R$  000000000396200000000039700000000003871000000000392200000000038770000000003876000000000387707652000000000002083000000000008170215100000000000000009999123100000010000000000000BRPRIOACNOR1102
012020091602PRNR3       010PRINER      ON      NM   R$  000000000095900000000009810000000000943000000000096000000000009430000000000943000000000094900302000000000000084900000000000081546300000000000000009999123100000010000000000000BRPRNRACNOR4105
012020091602PSSA3       010PORTO SEGUROON      NM   R$  000000000516000000000051870000000005093000000000512500000000050930000000005093000000000511201775000000000000417000000000002137510700000000000000009999123100000010000000000000BRPSSAACNOR7142
012020091602PTBL3       010PORTOBELLO  ON      NM   R$  000000000055100000000005650000000000544000000000055400000000005540000000000554000000000055502332000000000001922200000000001065739800000000000000009999123100000010000000000000BRPTBLACNOR8125
012020091602PTNT3       010PETTENATI   ON           R$  000000000058100000000006000000000000575000000000059100000000006000000000000586000000000059900034000000000000009100000000000005385500000000000000009999123100000010000000000000BRPTNTACNOR6039
012020091602PTNT4       010PETTENATI   PN           R$  000000000046600000000005000000000000460000000000048100000000005000000000000490000000000050000082000000000000023800000000000011455000000000000000009999123100000010000000000000BRPTNTACNPR3044
012020091602PYPL34      010PAYPAL HOLD DRN          R$  000000004842000000000484200000000047999000000004840300000000479990000000000000000000005000000004000000000000000550000000000026621970000000000000009999123100000010000000000000BRPYPLBDR002101
012020091602QCOM34      010QUALCOMM    DRN          R$  000000006180000000000618000000000061800000000006180000000000618000000000000000000000000000000001000000000000000010000000000000618000000000000000009999123100000010000000000000BRQCOMBDR007135
012020091602QUAL3       010QUALICORP   ON      NM   R$  000000000330800000000033420000000003276000000000331000000000033080000000003308000000000331012762000000000002259900000000007480766900000000000000009999123100000010000000000000BRQUALACNOR6113
012020091602R1IN34      010REALTY INCOMDRN          R$  000000001725000000000172500000000017250000000001725000000000172500000000000000000000000000000001000000000000000020000000000000345000000000000000009999123100000010000000000000BRR1INBDR000108
012020091602RADL3       010RAIADROGASILON      NM   R$  000000001159000000000117600000000011350000000001149300000000114310000000011431000000001145109309000000000001477000000000016976313200000000000000009999123100000010000000000000BRRADLACNOR0136
012020091602RAIL3       010RUMO S.A.   ON      NM   R$  000000000213500000000021770000000002126000000000215000000000021500000000002150000000000215228401000000000009124400000000019618815300000000000000009999123100000010000000000000BRRAILACNOR9101
012020091602RANI3       010IRANI       ON           R$  000000000052000000000005240000000000510000000000051300000000005140000000000513000000000051404849000000000001832600000000000941889700000000000000009999123100000010000000000000BRRANIACNOR5053
012020091602RANI4       010IRANI       PN           R$  000000000088500000000008990000000000880000000000088200000000008840000000000880000000000088400045000000000000009400000000000008299600000000000000009999123100000010000000000000BRRANIACNPR2054
012020091602RAPT3       010RANDON PART ON      N1   R$  000000000099500000000009950000000000929000000000094900000000009290000000000929000000000094900058000000000000008000000000000007596200000000000000009999123100000010000000000000BRRAPTACNOR7153
012020091602RAPT4       010RANDON PART PN      N1   R$  000000000123000000000012400000000001184000000000120300000000011840000000001183000000000118408161000000000002732000000000003289201200000000000000009999123100000010000000000000BRRAPTACNPR4153
012020091602RCSL3       010RECRUSUL    ON           R$  000000000021000000000002140000000000200000000000020200000000002030000000000200000000000020400083000000000000058700000000000011902700000000000000009999123100000010000000000000BRRCSLACNOR4130
012020091602RCSL4       010RECRUSUL    PN           R$  000000000016300000000001680000000000140000000000015400000000001400000000000140000000000014123712000000000021563900000000003321988000000000000000009999123100000010000000000000BRRCSLACNPR1130
012020091602RDNI3       010RNI         ON      NM   R$  000000000103100000000010380000000000995000000000101500000000010290000000001000000000000103000098000000000000036500000000000037071900000000000000009999123100000010000000000000BRRDNIACNOR9113
012020091602REDE3       010REDE ENERGIAON           R$  000000000104800000000010480000000001048000000000104800000000010480000000001031000000000104800001000000000000000100000000000000104800000000000000009999123100000010000000000000BRREDEACNOR7115
012020091602RENT3       010LOCALIZA    ON  EJ  NM   R$  000000000531000000000053400000000005250000000000528700000000052680000000005268000000000527011451000000000003079800000000016283263200000000000000009999123100000010000000000000BRRENTACNOR4179
012020091602RIGG34      010TRANSOCEAN  DRN          R$  000000000056100000000006040000000000561000000000057900000000005610000000000490000000000060000012000000000000005470000000000003167490000000000000009999123100000010000000000000BRRIGGBDR000100
012020091602RLOG3       010COSAN LOG   ON      NM   R$  000000000200700000000020440000000001999000000000202000000000020280000000002021000000000202801587000000000000744700000000001504716800000000000000009999123100000010000000000000BRRLOGACNOR4106
012020091602ROMI3       010INDS ROMI   ON      NM   R$  000000000122600000000012970000000001220000000000126700000000012960000000001295000000000129703057000000000000874500000000001108597000000000000000009999123100000010000000000000BRROMIACNOR8173
012020091602RPAD3       010ALFA HOLDINGON           R$  000000000063500000000006350000000000625000000000063100000000006260000000000627000000000063500010000000000000003700000000000002335200000000000000009999123100000010000000000000BRRPADACNOR1197
012020091602RPAD5       010ALFA HOLDINGPNA          R$  000000000090000000000009000000000000891000000000089400000000008920000000000892000000000091600004000000000000000400000000000000357800000000000000009999123100000010000000000000BRRPADACNPA4211
012020091602RPAD6       010ALFA HOLDINGPNB          R$  000000000060000000000006000000000000600000000000060000000000006000000000000600000000000060700004000000000000000900000000000000540000000000000000009999123100000010000000000000BRRPADACNPB2197
012020091602RSID3       010ROSSI RESID ON      NM   R$  000000000053000000000005470000000000529000000000053500000000005330000000000527000000000053300176000000000000047200000000000025280400000000000000009999123100000010000000000000BRRSIDACNOR8119
012020091602S1PO34      010SPOTIFY TECHDRN          R$  000000002992900000000299290000000029929000000002992900000000299290000000000000000000000000000001000000000000000010000000000000299290000000000000009999123100000010000000000000BRS1POBDR002100
012020091602SANB3       010SANTANDER BRON           R$  000000000136800000000013680000000001331000000000134000000000013370000000001337000000000134500551000000000000115000000000000154205500000000000000009999123100000010000000000000BRSANBACNOR8153
012020091602SANB4       010SANTANDER BRPN           R$  000000000149400000000015080000000001487000000000149600000000014890000000001489000000000149600683000000000000150400000000000225018700000000000000009999123100000010000000000000BRSANBACNPR5153
012020091602SANB11      010SANTANDER BRUNT          R$  000000000284400000000028640000000002816000000000283600000000028230000000002823000000000282610545000000000002472800000000007013823100000000000000009999123100000010000000000000BRSANBCDAM13146
012020091602SAPP34      010SAP SE      DRN          R$  000000008500000000000850000000000084299000000008449900000000842990000000000000000000000000000002000000000000000070000000000005914950000000000000009999123100000010000000000000BRSAPPBDR007101
012020091602SAPR3       010SANEPAR     ON      N2   R$  000000000055600000000005660000000000553000000000055900000000005630000000000560000000000056300457000000000000118900000000000066571200000000000000009999123100000010000000000000BRSAPRACNOR9150
012020091602SAPR4       010SANEPAR     PN      N2   R$  000000000053800000000005450000000000536000000000054000000000005370000000000537000000000053904449000000000002791900000000001508659000000000000000009999123100000010000000000000BRSAPRACNPR6150
012020091602SAPR11      010SANEPAR     UNT     N2   R$  000000000269100000000027350000000002691000000000271200000000027000000000002700000000000270507724000000000001655900000000004491801000000000000000009999123100000010000000000000BRSAPRCDAM13109
012020091602SBSP3       010SABESP      ON      NM   R$  000000000468600000000047640000000004650000000000470100000000046880000000004683000000000468813854000000000002521100000000011854202600000000000000009999123100000010000000000000BRSBSPACNOR5157
012020091602SCAR3       010SAO CARLOS  ON      NM   R$  000000000389900000000039330000000003842000000000389300000000038560000000003855000000000391600018000000000000002300000000000008954100000000000000009999123100000010000000000000BRSCARACNOR7128
012020091602SEER3       010SER EDUCA   ON      NM   R$  000000000158000000000016490000000001576000000000162600000000016300000000001629000000000163006421000000000001559900000000002536672900000000000000009999123100000010000000000000BRSEERACNOR5115
012020091602SGPS3       010SPRINGS     ON      NM   R$  000000000070000000000007280000000000700000000000071300000000007200000000000710000000000072000424000000000000231000000000000164824600000000000000009999123100000010000000000000BRSGPSACNOR4104
012020091602SHOW3       010TIME FOR FUNON      NM   R$  000000000028100000000002890000000000278000000000028300000000002820000000000282000000000028400653000000000000556400000000000157647000000000000000009999123100000010000000000000BRSHOWACNOR7105
012020091602SHUL4       010SCHULZ      PN           R$  000000000132800000000013630000000001308000000000133600000000013500000000001350000000000135100626000000000000234500000000000313438700000000000000009999123100000010000000000000BRSHULACNPR4136
012020091602SIMN34      010SIMON PROP  DRN          R$  000000000978000000000097800000000009780000000000978000000000097800000000006666000000000000000001000000000000000040000000000000391200000000000000009999123100000010000000000000BRSIMNBDR002104
012020091602SLBG34      010SCHLUMBERGERDRN          R$  000000001003200000000100320000000010032000000001003200000000100320000000000000000000000000000001000000000000000100000000000001003200000000000000009999123100000010000000000000BRSLBGBDR003137
012020091602SLCE3       010SLC AGRICOLAON      NM   R$  000000000258600000000026080000000002559000000000258100000000025800000000002575000000000258002630000000000000556600000000001436884600000000000000009999123100000010000000000000BRSLCEACNOR2115
012020091602SMLS3       010SMILES      ON      NM   R$  000000000164400000000016980000000001631000000000167400000000016720000000001672000000000167307329000000000001987000000000003327428900000000000000009999123100000010000000000000BRSMLSACNOR1109
012020091602SMTO3       010SAO MARTINHOON      NM   R$  000000000245400000000024700000000002373000000000240200000000023730000000002373000000000238506796000000000000982600000000002360692600000000000000009999123100000010000000000000BRSMTOACNOR3117
012020091602SOMA3       010GRUPO SOMA  ON      NM   R$  000000000104900000000010700000000001026000000000105200000000010590000000001050000000000105902624000000000000660900000000000695283200000000000000009999123100000010000000000000BRSOMAACNOR3100
012020091602SQIA3       010SINQIA      ON      NM   R$  000000000238200000000024070000000002356000000000238300000000023560000000002355000000000235702100000000000000412000000000000981996900000000000000009999123100000010000000000000BRSQIAACNOR6102
012020091602SSFO34      010SALESFORCE  DRN          R$  000000006623200000000662320000000066026000000006609000000000660260000000033333000000000000000003000000000000001020000000000067412440000000000000009999123100000010000000000000BRSSFOBDR003100
012020091602STBP3       010SANTOS BRP  ON      NM   R$  000000000051400000000005230000000000509000000000051600000000005120000000000512000000000051403518000000000003055500000000001578392800000000000000009999123100000010000000000000BRSTBPACNOR3117
012020091602SULA3       010SUL AMERICA ON      N2   R$  000000000174000000000017500000000001683000000000171700000000016900000000001690000000000172000025000000000000002500000000000004293600000000000000009999123100000010000000000000BRSULAACNOR2141
012020091602SULA4       010SUL AMERICA PN      N2   R$  000000000120500000000012300000000001205000000000122200000000012110000000001210000000000122000024000000000000003700000000000004522300000000000000009999123100000010000000000000BRSULAACNPR9141
012020091602SULA11      010SUL AMERICA UNT     N2   R$  000000000414400000000042090000000004111000000000415900000000041250000000004121000000000412512532000000000001906700000000007931073600000000000000009999123100000010000000000000BRSULACDAM12141
012020091602SUZB3       010SUZANO S.A. ON      NM   R$  000000000487400000000048820000000004702000000000475000000000047580000000004753000000000475815519000000000004656300000000022118191400000000000000009999123100000010000000000000BRSUZBACNOR0124
012020091602T1OW34      010AMERICAN TOWDRN          R$  000000003470000000000347000000000034700000000003470000000000347000000000000000000000000000000001000000000000000070000000000002429000000000000000009999123100000010000000000000BRT1OWBDR007102
012020091602TAEE3       010TAESA       ON      N2   R$  000000000095600000000009640000000000952000000000095800000000009550000000000956000000000095700168000000000000031500000000000030191500000000000000009999123100000010000000000000BRTAEEACNOR9132
012020091602TAEE4       010TAESA       PN      N2   R$  000000000096400000000009640000000000954000000000096000000000009590000000000956000000000095900246000000000000056200000000000053968700000000000000009999123100000010000000000000BRTAEEACNPR6132
012020091602TAEE11      010TAESA       UNT     N2   R$  000000000286400000000028940000000002861000000000287600000000028710000000002871000000000287411257000000000002201500000000006332531400000000000000009999123100000010000000000000BRTAEECDAM10132
012020091602TASA3       010TAURUS ARMASON      N2   R$  000000000084800000000008540000000000795000000000082900000000008230000000000823000000000083201319000000000000364700000000000302635000000000000000009999123100000010000000000000BRTASAACNOR7100
012020091602TASA4       010TAURUS ARMASPN      N2   R$  000000000092600000000009440000000000865000000000088900000000008660000000000865000000000086608346000000000004791300000000004260743600000000000000009999123100000010000000000000BRTASAACNPR4100
012020091602TCSA3       010TECNISA     ON      NM   R$  000000000107500000000011000000000001062000000000107400000000010780000000001078000000000108001875000000000000692300000000000743640700000000000000009999123100000010000000000000BRTCSAACNOR3112
012020091602TECN3       010TECHNOS     ON      NM   R$  000000000010900000000001110000000000107000000000010900000000001080000000000107000000000010800434000000000000590200000000000064466800000000000000009999123100000010000000000000BRTECNACNOR6106
012020091602TELB3       010TELEBRAS    ON           R$  000000001250000000000125000000000012000000000001217500000000121000000000012100000000001220000003000000000000000400000000000004870000000000000000009999123100000010000000000000BRTELBACNOR2139
012020091602TELB4       010TELEBRAS    PN           R$  000000000329000000000033000000000003250000000000327700000000032500000000003222000000000328900057000000000000014200000000000046541800000000000000009999123100000010000000000000BRTELBACNPR9139
012020091602TEND3       010TENDA       ON      NM   R$  000000000307400000000030910000000002989000000000303400000000029890000000002989000000000300005564000000000000811100000000002461573000000000000000009999123100000010000000000000BRTENDACNOR4108
012020091602TESA3       010TERRA SANTA ON      NM   R$  000000000174000000000018000000000001740000000000178000000000017820000000001782000000000179200047000000000000008600000000000015312200000000000000009999123100000010000000000000BRTESAACNOR9101
012020091602TEXA34      010TEXAS INC   DRN          R$  000000007445000000000744500000000073645000000007376000000000736450000000000000000000000000000002000000000000000350000000000025816000000000000000009999123100000010000000000000BRTEXABDR003120
012020091602TGMA3       010TEGMA       ON      NM   R$  000000000255100000000026190000000002534000000000257500000000025570000000002557000000000257302748000000000000451800000000001163718800000000000000009999123100000010000000000000BRTGMAACNOR7133
012020091602TGTB34      010TARGET CORP DRN          R$  000000007781100000000778110000000077811000000007781100000000778110000000000000000000000000000001000000000000000400000000000031124400000000000000009999123100000010000000000000BRTGTBBDR004120
012020091602TIET3       010AES TIETE E ON      N2   R$  000000000029700000000002980000000000295000000000029600000000002960000000000295000000000029600339000000000000109500000000000032516200000000000000009999123100000010000000000000BRTIETACNOR0125
012020091602TIET4       010AES TIETE E PN      N2   R$  000000000029700000000002980000000000295000000000029600000000002950000000000295000000000029600648000000000000556800000000000165328100000000000000009999123100000010000000000000BRTIETACNPR7125
012020091602TIET11      010AES TIETE E UNT     N2   R$  000000000148100000000014920000000001470000000000147900000000014700000000001470000000000147503131000000000001015600000000001503009800000000000000009999123100000010000000000000BRTIETCDAM15125
012020091602TIMP3       010TIM PART S/AON      NM   R$  000000000143900000000014500000000001415000000000142700000000014230000000001423000000000142716276000000000006174100000000008811271100000000000000009999123100000010000000000000BRTIMPACNOR1114
012020091602TKNO4       010TEKNO       PN           R$  000000000391600000000039160000000003916000000000391600000000039160000000003915000000001000000003000000000000000500000000000001958000000000000000009999123100000010000000000000BRTKNOACNPR5064
012020091602TOTS3       010TOTVS       ON      NM   R$  000000000291500000000029300000000002864000000000290200000000029150000000002913000000000291515052000000000003306700000000009598202800000000000000009999123100000010000000000000BRTOTSACNOR8136
