00COTAHIST.2020BOVESPA 20200909                                                                                                                                                                                                                      
012020090902A1AP34      010ADVANCE AUTODRN          R$  000000002057800000000205780000000020578000000002057800000000205780000000000000000000000000000001000000000000000640000000000013169920000000000000009999123100000010000000000000BRA1APBDR001102
012020090902A1BM34      010ABIOMED INC DRN          R$  000000003676500000000367650000000036765000000003676500000000367650000000000000000000000000000004000000000000000040000000000001470600000000000000009999123100000010000000000000BRA1BMBDR006100
012020090902A1DI34      010ANALOG DEVICDRN          R$  000000003030300000000303030000000030303000000003030300000000303030000000000000000000000000000001000000000000001000000000000030303000000000000000009999123100000010000000000000BRA1DIBDR000103
012020090902A1DM34      010ARCHER DANIEDRN          R$  000000002394900000000239490000000023920000000002393400000000239200000000000000000000000000000002000000000000000020000000000000478690000000000000009999123100000010000000000000BRA1DMBDR002103
012020090902A1ES34      010AES CORP    DRN          R$  000000000918900000000091890000000009189000000000918900000000091890000000000000000000000000000001000000000000000010000000000000091890000000000000009999123100000010000000000000BRA1ESBDR007103
012020090902A1FL34      010AFLAC INC   DRN          R$  000000001979400000000197940000000019794000000001979400000000197940000000000000000000000000000001000000000000000130000000000002573220000000000000009999123100000010000000000000BRA1FLBDR009103
012020090902A1KA34      010AKAMAI TECHNDRN          R$  000000002869900000000286990000000028699000000002869900000000286990000000000000000000000000000001000000000000000590000000000016932410000000000000009999123100000010000000000000BRA1KABDR002100
012020090902A1LG34      010ALIGN TECHNODRN          R$  000000004283900000000429040000000042839000000004287100000000429040000000000000000000000000000002000000000000000020000000000000857430000000000000009999123100000010000000000000BRA1LGBDR007100
012020090902A1LK34      010ALASKA AIR GDRN          R$  000000002117800000000211780000000021178000000002117800000000211780000000000000000000000000000001000000000000000010000000000000211780000000000000009999123100000010000000000000BRA1LKBDR009101
012020090902A1MD34      010ADVANCED MICDRN          R$  000000004317000000000433000000000042954000000004308100000000433000000000000000000000005250000005000000000000003930000000000169309380000000000000009999123100000010000000000000BRA1MDBDR002100
012020090902A1MT34      010APPLIED MATEDRN          R$  000000002925000000000292500000000029250000000002925000000000292500000000000000000000000000000001000000000000001000000000000029250000000000000000009999123100000010000000000000BRA1MTBDR008103
012020090902A1NE34      010ARISTA NETWODRN          R$  000000002810000000000281000000000028100000000002810000000000281000000000000000000000000000000001000000000000000010000000000000281000000000000000009999123100000010000000000000BRA1NEBDR008100
012020090902A1PA34      010APACHE CORP DRN          R$  000000000691000000000069400000000006910000000000693700000000069400000000000000000000000000000010000000000000001090000000000007561900000000000000009999123100000010000000000000BRA1PABDR001103
012020090902AALL34      010AMERICAN AIRDRN          R$  000000000721400000000072140000000006868000000000691400000000068680000000006800000000000840000004000000000000002150000000000014865420000000000000009999123100000010000000000000BRAALLBDR003115
012020090902AALR3       010ALLIAR      ON      NM   R$  000000000126200000000012740000000001196000000000121500000000011980000000001198000000000120202492000000000000722300000000000878289800000000000000009999123100000010000000000000BRAALRACNOR6102
012020090902AAPL34      010APPLE       DRN EB       R$  000000000620000000000063070000000005970000000000619100000000061800000000006153000000000618000489000000000000431200000000002669921340000000000000009999123100000010000000000000BRAAPLBDR004135
012020090902ABBV34      010ABBVIE      DRN          R$  000000004815000000000487790000000048150000000004816200000000487790000000000000000000000000000002000000000000002040000000000098251160000000000000009999123100000010000000000000BRABBVBDR001118
012020090902ABCB4       010ABC BRASIL  PN      N2   R$  000000000140100000000014120000000001350000000000136300000000013530000000001353000000000136104415000000000000888500000000001211402500000000000000009999123100000010000000000000BRABCBACNPR4134
012020090902ABEV3       010AMBEV S/A   ON           R$  000000000124100000000012470000000001217000000000123000000000012350000000001234000000000123529399000000000017716100000000021794916400000000000000009999123100000010000000000000BRABEVACNOR1122
012020090902ABTT34      010ABBOTT      DRN          R$  000000001406000000000140990000000014060000000001406000000000140990000000000000000000001799500002000000000000007020000000000098701980000000000000009999123100000010000000000000BRABTTBDR007135
012020090902ABUD34      010AB INBEV    DRN          R$  000000002997000000000302000000000029970000000002997200000000302000000000000000000000000000000002000000000000002020000000000060544000000000000000009999123100000010000000000000BRABUDBDR009102
012020090902ACNB34      010ACCENTURE   DRN          R$  000000012650000000001265000000000126500000000012650000000001265000000000000000000000000000000001000000000000001000000000000126500000000000000000009999123100000010000000000000BRACNBBDR006112
012020090902ADBE34      010ADOBE INC   DRN          R$  000000005037000000000507830000000050370000000005045200000000507390000000000000000000000000000003000000000000002570000000000129661670000000000000009999123100000010000000000000BRADBEBDR003100
012020090902ADHM3       010ADVANCED-DH ON           R$  000000000021500000000002150000000000212000000000021200000000002120000000000212000000000021400011000000000000004400000000000000933600000000000000009999123100000010000000000000BRADHMACNOR9102
012020090902ADPR34      010AUTOMATIC DTDRN          R$  000000003573000000000357300000000035730000000003573000000000357300000000030825000000000000000001000000000000001000000000000035730000000000000000009999123100000010000000000000BRADPRBDR005104
012020090902AFLT3       010AFLUENTE T  ON           R$  000000000105000000000010500000000001050000000000105000000000010500000000001019000000000104900001000000000000000100000000000000105000000000000000009999123100000010000000000000BRAFLTACNOR1115
012020090902AGRO3       010BRASILAGRO  ON      NM   R$  000000000210200000000021250000000002100000000000211100000000021070000000002107000000000212000540000000000000113800000000000240261900000000000000009999123100000010000000000000BRAGROACNOR7109
012020090902AHEB3       010SPTURIS     ON           R$  000000000250000000000025890000000002400000000000249100000000025890000000002401000000000259000019000000000000001900000000000004732900000000000000009999123100000010000000000000BRAHEBACNOR0106
012020090902ALPA3       010ALPARGATAS  ON      N1   R$  000000000337900000000034500000000003341000000000338200000000033410000000003345000000000345000010000000000000001000000000000003382400000000000000009999123100000010000000000000BRALPAACNOR0229
012020090902ALPA4       010ALPARGATAS  PN      N1   R$  000000000375000000000037940000000003672000000000371400000000037150000000003715000000000373707795000000000001540700000000005722842800000000000000009999123100000010000000000000BRALPAACNPR7229
012020090902ALPK3       010ESTAPAR     ON      NM   R$  000000000094800000000009610000000000930000000000094500000000009580000000000939000000000095800092000000000000024600000000000023264000000000000000009999123100000010000000000000BRALPKACNOR9100
012020090902ALSO3       010ALIANSCSONAEON      NM   R$  000000000283800000000028560000000002755000000000277800000000027780000000002777000000000277804126000000000000901200000000002504395700000000000000009999123100000010000000000000BRALSOACNOR5100
012020090902ALUP3       010ALUPAR      ON      N2   R$  000000000096600000000009700000000000960000000000096400000000009690000000000961000000000096900054000000000000006900000000000006656700000000000000009999123100000010000000000000BRALUPACNOR8111
012020090902ALUP4       010ALUPAR      PN      N2   R$  000000000071900000000007240000000000706000000000071500000000007220000000000722000000000072400104000000000000015000000000000010734200000000000000009999123100000010000000000000BRALUPACNPR5111
012020090902ALUP11      010ALUPAR      UNT     N2   R$  000000000240700000000024310000000002367000000000239700000000024310000000002428000000000243107040000000000001136500000000002724429100000000000000009999123100000010000000000000BRALUPCDAM15111
012020090902AMAR3       010LOJAS MARISAON      NM   R$  000000000082400000000008340000000000794000000000080800000000008160000000000812000000000081607556000000000003629200000000002933506400000000000000009999123100000010000000000000BRAMARACNOR4112
012020090902AMBP3       010AMBIPAR     ON      NM   R$  000000000313000000000031790000000003122000000000314500000000031450000000003142000000000314500821000000000000611100000000001922146500000000000000009999123100000010000000000000BRAMBPACNOR6100
012020090902AMGN34      010AMGEN       DRN          R$  000000012940000000001311560000000129400000000012967600000001311560000000000000000000000000000003000000000000001240000000000160799460000000000000009999123100000010000000000000BRAMGNBDR004135
012020090902AMZO34      010AMAZON      DRN          R$  000000085300000000008725000000000847736000000086838200000008725000000000720000000000089990000020000000000000002710000000002353316130000000000000009999123100000010000000000000BRAMZOBDR002101
012020090902ANIM3       010ANIMA       ON      NM   R$  000000000312400000000031800000000003065000000000313900000000031450000000003143000000000314503663000000000000685900000000002153618000000000000000009999123100000010000000000000BRANIMACNOR6106
012020090902APER3       010ALPER S.A.  ON      NM   R$  000000000298900000000030950000000002924000000000300800000000030950000000003031000000000309500101000000000000019400000000000058373900000000000000009999123100000010000000000000BRAPERACNOR9102
012020090902ARMT34      010ARCELOR     DRN          R$  000000000342000000000034200000000003420000000000342000000000034200000000002764000000000380000001000000000000000010000000000000034200000000000000009999123100000010000000000000BRARMTBDR008117
012020090902ARZZ3       010AREZZO CO   ON      NM   R$  000000000590700000000060830000000005870000000000600800000000060220000000006021000000000602204848000000000000604800000000003633945200000000000000009999123100000010000000000000BRARZZACNOR3137
012020090902ASML34      010ASML HOLD   DRN          R$  000000018955300000001895530000000189553000000018955300000001895530000000000000000000000000000001000000000000001000000000000189553000000000000000009999123100000010000000000000BRASMLBDR003102
012020090902ATOM3       010ATOMPAR     ON           R$  000000000030600000000003080000000000302000000000030400000000003040000000000303000000000030400148000000000000085300000000000026007100000000000000009999123100000010000000000000BRATOMACNOR1103
012020090902ATTB34      010ATT INC     DRN          R$  000000001569700000000156970000000015620000000001569100000000156200000000015500000000001562000019000000000000016120000000000252941400000000000000009999123100000010000000000000BRATTBBDR007132
012020090902ATVI34      010ACTIVISION  DRN          R$  000000004176000000000420340000000041760000000004200000000000420000000000041500000000000000000003000000000000008500000000000357008200000000000000009999123100000010000000000000BRATVIBDR008101
012020090902AURA32      010AURA 360    DR2          R$  000000000655100000000066000000000006481000000000652200000000065000000000006500000000000659000214000000000000060700000000000395927400000000000000009999123100000010000000000000BRAURABDR001102
012020090902AVGO34      010BROADCOM INCDRN          R$  000000003797700000000381500000000037977000000003798900000000381500000000000000000000000000000002000000000000004300000000000163353000000000000000009999123100000010000000000000BRAVGOBDR003105
012020090902AXPB34      010AMERICAN EXPDRN          R$  000000005477100000000554330000000054771000000005484900000000554330000000047700000000000000000002000000000000002270000000000124508910000000000000009999123100000010000000000000BRAXPBBDR007133
012020090902AZEV3       010AZEVEDO     ON           R$  000000000107800000000011000000000001078000000000108700000000010910000000001090000000000112000004000000000000000400000000000000434800000000000000009999123100000010000000000000BRAZEVACNOR0117
012020090902AZEV4       010AZEVEDO     PN           R$  000000000035300000000003850000000000353000000000037000000000003750000000000370000000000037600051000000000000019800000000000007330500000000000000009999123100000010000000000000BRAZEVACNPR7117
012020090902AZUL4       010AZUL        PN      N2   R$  000000000266000000000027220000000002569000000000261700000000026220000000002620000000000262239575000000000019611500000000051329293800000000000000009999123100000010000000000000BRAZULACNPR4100
012020090902B1DX34      010BECTON DICKIDRN ED       R$  000000002520000000000252000000000025200000000002520000000000252000000000000000000000000000000001000000000000000300000000000007560000000000000000009999123100000010000000000000BRB1DXBDR008103
012020090902B1SX34      010BOSTON SCIENDRN          R$  000000002200500000000220050000000022005000000002200500000000220050000000000000000000000000000001000000000000003000000000000066015000000000000000009999123100000010000000000000BRB1SXBDR006100
012020090902B3SA3       010B3          ON      NM   R$  000000000577600000000058600000000005663000000000578200000000058260000000005826000000000583034289000000000010822200000000062579751900000000000000009999123100000010000000000000BRB3SAACNOR6111
012020090902BABA34      010ALIBABAGR   DRN          R$  000000014579900000001499950000000144467000000014562300000001499950000000143000000000014999700031000000000000003720000000000541717990000000000000009999123100000010000000000000BRBABABDR005100
012020090902BALM3       010BAUMER      ON           R$  000000000167300000000016890000000001600000000000162800000000016000000000001200000000000160000024000000000000006900000000000011236800000000000000009999123100000010000000000000BRBALMACNOR5050
012020090902BALM4       010BAUMER      PN           R$  000000000120500000000012390000000001205000000000121500000000012390000000001185000000000122900004000000000000000900000000000001093700000000000000009999123100000010000000000000BRBALMACNPR2051
012020090902BAUH4       010EXCELSIOR   PN           R$  000000000899900000000089990000000008751000000000893700000000089990000000008700000000000900000004000000000000000400000000000003574800000000000000009999123100000010000000000000BRBAUHACNPR3115
012020090902BAZA3       010AMAZONIA    ON           R$  000000000402000000000041100000000004020000000000406800000000040750000000004072000000000410100030000000000000006500000000000026442700000000000000009999123100000010000000000000BRBAZAACNOR0174
012020090902BBAS3       010BRASIL      ON      NM   R$  000000000335800000000033720000000003296000000000332500000000033220000000003320000000000332229818000000000012591200000000041866969000000000000000009999123100000010000000000000BRBBASACNOR3292
012020090902BBDC3       010BRADESCO    ON  EJ  N1   R$  000000000201000000000020260000000001984000000000200000000000019980000000001996000000000199810717000000000003510200000000007021798400000000000000009999123100000010000000000000BRBBDCACNOR1715
012020090902BBDC4       010BRADESCO    PN  EJ  N1   R$  000000000218000000000021990000000002143000000000215800000000021560000000002156000000000215745040000000000029537200000000063749237700000000000000009999123100000010000000000000BRBBDCACNPR8715
012020090902BBRK3       010BR BROKERS  ON      NM   R$  000000000017100000000001740000000000166000000000016900000000001680000000000168000000000017000844000000000000499600000000000084485500000000000000009999123100000010000000000000BRBBRKACNOR4113
012020090902BBSE3       010BBSEGURIDADEON      NM   R$  000000000266900000000026840000000002647000000000266000000000026600000000002659000000000266012279000000000002225700000000005920607600000000000000009999123100000010000000000000BRBBSEACNOR5117
012020090902BBYY34      010BEST BUY    DRN          R$  000000005680100000000576500000000056801000000005758000000000576500000000000000000000000000000004000000000000000250000000000014395220000000000000009999123100000010000000000000BRBBYYBDR005113
012020090902BCSA34      010SANTANDER   DRN          R$  000000000115600000000011810000000001156000000000117000000000011680000000001161000000000117200020000000000000063530000000000074392490000000000000009999123100000010000000000000BRBCSABDR005101
012020090902BEEF3       010MINERVA     ON      NM   R$  000000000125800000000012710000000001253000000000126100000000012670000000001267000000000126808604000000000003094100000000003904613300000000000000009999123100000010000000000000BRBEEFACNOR6108
012020090902BEES3       010BANESTES    ON  EJ       R$  000000000053800000000005410000000000537000000000053900000000005380000000000538000000000054000059000000000000012700000000000006848600000000000000009999123100000010000000000000BRBEESACNOR9339
012020090902BEES4       010BANESTES    PN  EJ       R$  000000000057100000000005770000000000566000000000057000000000005740000000000567000000000057400023000000000000005700000000000003250200000000000000009999123100000010000000000000BRBEESACNPR6264
012020090902BERK34      010BERKSHIRE   DRN          R$  000000011727900000001176000000000116200000000011670100000001164930000000116202000000011703400052000000000000008340000000000973288120000000000000009999123100000010000000000000BRBERKBDR002100
012020090902BGIP3       010BANESE      ON           R$  000000000447600000000046990000000004400000000000453000000000044100000000004301000000000460000018000000000000001800000000000008155600000000000000009999123100000010000000000000BRBGIPACNOR1199
012020090902BGIP4       010BANESE      PN           R$  000000000269700000000026970000000002695000000000269600000000026970000000002624000000000269800004000000000000001200000000000003236200000000000000009999123100000010000000000000BRBGIPACNPR8199
012020090902BHPG34      010BHP GROUP   DRN ED       R$  000000002860800000000286080000000028608000000002860800000000286080000000000000000000000000000001000000000000003000000000000085824000000000000000009999123100000010000000000000BRBHPGBDR007102
012020090902BIDI3       010BANCO INTER ON      N2   R$  000000000181300000000018400000000001741000000000177800000000017470000000001747000000000175103613000000000000671100000000001193402400000000000000009999123100000010000000000000BRBIDIACNOR3107
012020090902BIDI4       010BANCO INTER PN      N2   R$  000000000204600000000020780000000001998000000000202100000000020020000000002002000000000200309571000000000002419600000000004891853000000000000000009999123100000010000000000000BRBIDIACNPR0111
012020090902BIDI11      010BANCO INTER UNT     N2   R$  000000000581400000000059540000000005725000000000580700000000057500000000005745000000000575011623000000000001848900000000010738386000000000000000009999123100000010000000000000BRBIDICDAXX3106
012020090902BIIB34      010BIOGEN      DRN          R$  000000002390000000000239000000000023900000000002390000000000239000000000000000000000000000000001000000000000003000000000000071700000000000000000009999123100000010000000000000BRBIIBBDR001101
012020090902BIOM3       010BIOMM       ON      MA   R$  000000000162500000000016250000000001605000000000161000000000016100000000001610000000000161800043000000000000006400000000000010304800000000000000009999123100000010000000000000BRBIOMACNOR2107
012020090902BKBR3       010BK BRASIL   ON      NM   R$  000000000115600000000011650000000001113000000000112500000000011230000000001123000000000112504376000000000001180800000000001328926300000000000000009999123100000010000000000000BRBKBRACNOR4103
012020090902BKNG34      010BOOKING     DRN          R$  000000004002000000000400200000000039000000000003951500000000395990000000039000000000003990000016000000000000005290000000000209037290000000000000009999123100000010000000000000BRBKNGBDR006100
012020090902BLAK34      010BLACKROCK   DRN ED       R$  000000004980000000000498000000000049369000000004940600000000493690000000000000000000000000000002000000000000002190000000000108200000000000000000009999123100000010000000000000BRBLAKBDR003118
012020090902BMEB4       010MERC BRASIL PN           R$  000000000154000000000015690000000001502000000000155300000000015680000000001540000000000156800022000000000000003500000000000005438100000000000000009999123100000010000000000000BRBMEBACNPR5201
012020090902BMGB4       010BANCO BMG   PN      N1   R$  000000000052500000000005320000000000517000000000052500000000005290000000000528000000000052903788000000000002325300000000001221426800000000000000009999123100000010000000000000BRBMGBACNPR0101
012020090902BMIN3       010MERC INVEST ON           R$  000000000215000000000022000000000002056000000000213100000000020560000000001920000000000215000019000000000000002200000000000004689000000000000000009999123100000010000000000000BRBMINACNOR4168
012020090902BMIN4       010MERC INVEST PN           R$  000000000209500000000020950000000001950000000000201500000000019500000000001919000000000209500006000000000000000600000000000001209500000000000000009999123100000010000000000000BRBMINACNPR1171
012020090902BMKS3       010BIC MONARK  ON           R$  000000002200500000000220050000000022000000000002200000000000220000000000022000000000002310000002000000000000000009000000000000198005000000000000009999123100000010000000000000BRBMKSACNOR9162
012020090902BMYB34      010BRISTOLMYERSDRN          R$  000000003122100000000312210000000031221000000003122100000000312210000000028400000000000000000001000000000000005000000000000156105000000000000000009999123100000010000000000000BRBMYBBDR000127
012020090902BOAC34      010BANK AMERICADRN ED       R$  000000001360000000000136000000000013573000000001358200000000135730000000012100000000001357300007000000000000013640000000000185269590000000000000009999123100000010000000000000BRBOACBDR004140
012020090902BOBR4       010BOMBRIL     PN           R$  000000000019800000000002010000000000197000000000019900000000002000000000000199000000000020000106000000000000027400000000000005462400000000000000009999123100000010000000000000BRBOBRACNPR3128
012020090902BOEI34      010BOEING      DRN          R$  000000008470000000000859000000000084500000000008451500000000859000000000080000000000010850000003000000000000001020000000000086206000000000000000009999123100000010000000000000BRBOEIBDR003132
012020090902BOXP34      010BOSTON PROP DRN          R$  000000000457100000000045710000000004565000000000456800000000045650000000000000000000000592000002000000000000000100000000000000456800000000000000009999123100000010000000000000BRBOXPBDR008120
012020090902BPAC3       010BTGP BANCO  ON      N2   R$  000000000457500000000046680000000004571000000000461200000000046010000000004585000000000467900018000000000000002300000000000010607800000000000000009999123100000010000000000000BRBPACACNOR7122
012020090902BPAC5       010BTGP BANCO  PNA     N2   R$  000000000173900000000017600000000001739000000000175000000000017600000000001745000000000176800013000000000000001800000000000003151600000000000000009999123100000010000000000000BRBPACACNPA0122
012020090902BPAC11      010BTGP BANCO  UNT     N2   R$  000000000790000000000081890000000007875000000000807100000000081510000000008151000000000815815449000000000003621200000000029227279100000000000000009999123100000010000000000000BRBPACUNT006107
012020090902BPAN4       010BANCO PAN   PN      N1   R$  000000000091800000000009300000000000896000000000090500000000009110000000000909000000000091114437000000000004810000000000004353619400000000000000009999123100000010000000000000BRBPANACNPR1109
012020090902BRAP3       010BRADESPAR   ON      N1   R$  000000000384400000000038910000000003825000000000386300000000038350000000003808000000000388000047000000000000016100000000000062200200000000000000009999123100000010000000000000BRBRAPACNOR5136
012020090902BRAP4       010BRADESPAR   PN      N1   R$  000000000438800000000044460000000004361000000000438900000000043730000000004373000000000437712427000000000002017500000000008856182000000000000000009999123100000010000000000000BRBRAPACNPR2136
012020090902BRDT3       010PETROBRAS BRON      NM   R$  000000000230000000000023270000000002246000000000229500000000023090000000002309000000000231130088000000000007962500000000018279968700000000000000009999123100000010000000000000BRBRDTACNOR1120
012020090902BRFS3       010BRF SA      ON      NM   R$  000000000200400000000020360000000001976000000000200000000000019880000000001987000000000198820009000000000007543100000000015090433900000000000000009999123100000010000000000000BRBRFSACNOR8119
012020090902BRGE11      010ALFA CONSORCPNE          R$  000000000098200000000009820000000000975000000000098000000000009750000000000850000000000107000004000000000000000700000000000000686000000000000000009999123100000010000000000000BRBRGEACNPE1105
012020090902BRGE12      010ALFA CONSORCPNF          R$  000000000069900000000006990000000000650000000000066600000000006500000000000606000000000064000002000000000000000300000000000000199900000000000000009999123100000010000000000000BRBRGEACNPF8096
012020090902BRIV4       010ALFA INVEST PN           R$  000000000073300000000007380000000000731000000000073200000000007310000000000716000000000073800007000000000000003400000000000002488800000000000000009999123100000010000000000000BRBRIVACNPR3211
012020090902BRKM3       010BRASKEM     ON      N1   R$  000000000225000000000022790000000002219000000000223900000000022330000000002207000000000225000053000000000000008600000000000019256900000000000000009999123100000010000000000000BRBRKMACNOR1117
012020090902BRKM5       010BRASKEM     PNA     N1   R$  000000000222600000000022850000000002190000000000222900000000022170000000002217000000000221907777000000000001979100000000004412662700000000000000009999123100000010000000000000BRBRKMACNPA4117
012020090902BRML3       010BR MALLS PARON      NM   R$  000000000099000000000009980000000000957000000000097000000000009660000000000965000000000096631834000000000015944600000000015476858100000000000000009999123100000010000000000000BRBRMLACNOR9115
012020090902BRPR3       010BR PROPERT  ON      NM   R$  000000000096300000000009660000000000933000000000094600000000009540000000000952000000000095407291000000000001654500000000001566014400000000000000009999123100000010000000000000BRBRPRACNOR9119
012020090902BRSR3       010BANRISUL    ON      N1   R$  000000000149300000000015430000000001493000000000150800000000015000000000001498000000000150000059000000000000012900000000000019459300000000000000009999123100000010000000000000BRBRSRACNOR3168
012020090902BRSR6       010BANRISUL    PNB     N1   R$  000000000135500000000013820000000001354000000000136800000000013540000000001354000000000136006111000000000001799900000000002463804200000000000000009999123100000010000000000000BRBRSRACNPB4171
012020090902BSEV3       010BIOSEV      ON      NM   R$  000000000043300000000005300000000000422000000000050400000000005160000000000516000000000051900663000000000000790100000000000398281000000000000000009999123100000010000000000000BRBSEVACNOR3102
012020090902BTOW3       010B2W DIGITAL ON      NM   R$  000000001008200000000103190000000010035000000001018400000000102800000000010280000000001028617772000000000003209900000000032691542600000000000000009999123100000010000000000000BRBTOWACNOR8111
012020090902BTTL3       010BATTISTELLA ON           R$  000000000128500000000012850000000001201000000000122900000000012210000000001221000000000124200038000000000000007200000000000008850700000000000000009999123100000010000000000000BRBTTLACNOR0108
012020090902C1CL34      010CARNIVAL CORDRN          R$  000000000936800000000093680000000009368000000000936800000000093680000000000000000000001300000001000000000000003000000000000028104000000000000000009999123100000010000000000000BRC1CLBDR004101
012020090902C1HR34      010CH ROBINSON DRN ED       R$  000000002628300000000262830000000026283000000002628300000000262830000000000000000000000000000001000000000000000510000000000013404330000000000000009999123100000010000000000000BRC1HRBDR000103
012020090902C1IC34      010CIGNA CORP  DRN          R$  000000002300000000000230000000000023000000000002300000000000230000000000000000000000000000000001000000000000000130000000000002990000000000000000009999123100000010000000000000BRC1ICBDR000101
012020090902CAMB3       010CAMBUCI     ON           R$  000000000041800000000004220000000000415000000000041800000000004200000000000420000000000042200054000000000000018000000000000007538100000000000000009999123100000010000000000000BRCAMBACNOR4119
012020090902CAML3       010CAMIL       ON  EJ  NM   R$  000000000132800000000013320000000001303000000000131800000000013190000000001319000000000132707202000000000001983500000000002614961800000000000000009999123100000010000000000000BRCAMLACNOR3111
012020090902CARD3       010CSU CARDSYSTON      NM   R$  000000000155600000000015800000000001483000000000152500000000015160000000001516000000000152601219000000000000257500000000000392931200000000000000009999123100000010000000000000BRCARDACNOR9118
012020090902CATP34      010CATERPILLAR DRN          R$  000000008140600000000814060000000081406000000008140600000000814060000000000000000000000000000001000000000000001000000000000081406000000000000000009999123100000010000000000000BRCATPBDR003136
012020090902CCPR3       010CYRE COM-CCPON      NM   R$  000000000150400000000015140000000001445000000000147000000000014650000000001465000000000147501253000000000000193500000000000284487300000000000000009999123100000010000000000000BRCCPRACNOR9114
012020090902CCRO3       010CCR SA      ON      NM   R$  000000000146300000000014800000000001453000000000146800000000014800000000001476000000000148013442000000000006685700000000009820148300000000000000009999123100000010000000000000BRCCROACNOR2137
012020090902CEAB3       010CEA MODAS   ON      NM   R$  000000000127100000000012870000000001249000000000126600000000012860000000001273000000000128604964000000000001396200000000001767771100000000000000009999123100000010000000000000BRCEABACNOR1101
012020090902CEBR3       010CEB         ON           R$  000000000640000000000067000000000006200000000000645200000000063000000000006250000000000670000125000000000000012500000000000080651700000000000000009999123100000010000000000000BRCEBRACNOR5118
012020090902CEDO3       010CEDRO       ON      N1   R$  000000000107000000000010700000000001070000000000107000000000010700000000000980000000000104900001000000000000000100000000000000107000000000000000009999123100000010000000000000BRCEDOACNOR8096
012020090902CEDO4       010CEDRO       PN      N1   R$  000000000054000000000005690000000000540000000000055400000000005690000000000545000000000058900002000000000000000200000000000000110900000000000000009999123100000010000000000000BRCEDOACNPR5128
012020090902CEEB3       010COELBA      ON           R$  000000000417400000000041740000000003901000000000406100000000040010000000003955000000000415500004000000000000000400000000000001624500000000000000009999123100000010000000000000BRCEEBACNOR3179
012020090902CEED3       010CEEE-D      ON      N1   R$  000000000652000000000065200000000005960000000000634200000000059600000000005802000000000626000013000000000000001400000000000008879800000000000000009999123100000010000000000000BRCEEDACNOR9102
012020090902CESP3       010CESP        ON      N1   R$  000000000333200000000033370000000003300000000000332400000000033000000000003280000000000333700018000000000000002800000000000009307300000000000000009999123100000010000000000000BRCESPACNOR3169
012020090902CESP6       010CESP        PNB     N1   R$  000000000296900000000030090000000002952000000000299000000000029970000000002993000000000299707694000000000001356500000000004056176100000000000000009999123100000010000000000000BRCESPACNPB4128
012020090902CGAS3       010COMGAS      ON           R$  000000001740000000000174000000000017400000000001740000000000174000000000017110000000001830000001000000000000000100000000000001740000000000000000009999123100000010000000000000BRCGASACNOR0151
012020090902CGAS5       010COMGAS      PNA          R$  000000001938100000000193810000000019087000000001922600000000190870000000018608000000001937000010000000000000001300000000000024994500000000000000009999123100000010000000000000BRCGASACNPA3148
012020090902CGRA3       010GRAZZIOTIN  ON           R$  000000000263100000000026400000000002603000000000262000000000026030000000002602000000000264800015000000000000002000000000000005241800000000000000009999123100000010000000000000BRCGRAACNOR2071
012020090902CGRA4       010GRAZZIOTIN  PN           R$  000000000259600000000026230000000002596000000000260600000000025970000000002595000000000260000084000000000000012200000000000031793200000000000000009999123100000010000000000000BRCGRAACNPR9071
012020090902CHCM34      010CHARTER COMMDRN          R$  000000006408000000000640800000000064080000000006408000000000640800000000000000000000000000000001000000000000002000000000000128160000000000000000009999123100000010000000000000BRCHCMBDR001100
012020090902CHME34      010CME GROUP   DRN ED       R$  000000002206800000000220680000000022068000000002206800000000220680000000000000000000000000000002000000000000003000000000000066204000000000000000009999123100000010000000000000BRCHMEBDR007106
012020090902CHVX34      010CHEVRON     DRN          R$  000000002117800000000213290000000021155000000002132700000000212940000000000000000000002129400004000000000000008130000000000173389090000000000000009999123100000010000000000000BRCHVXBDR008138
012020090902CIEL3       010CIELO       ON      NM   R$  000000000047400000000004810000000000462000000000046900000000004690000000000468000000000046915367000000000038421800000000018058211800000000000000009999123100000010000000000000BRCIELACNOR3142
012020090902CLSC3       010CELESC      ON      N2   R$  000000000619900000000061990000000005900000000000602400000000060000000000005825000000000600000004000000000000000400000000000002409900000000000000009999123100000010000000000000BRCLSCACNOR6136
012020090902CLSC4       010CELESC      PN      N2   R$  000000000570000000000057000000000005620000000000568500000000056990000000005630000000000569900012000000000000002800000000000015918300000000000000009999123100000010000000000000BRCLSCACNPR3115
012020090902CMCS34      010COMCAST     DRN          R$  000000002350000000000237710000000023500000000002364900000000237710000000022000000000002377100010000000000000010890000000000257541920000000000000009999123100000010000000000000BRCMCSBDR008135
012020090902CMIG3       010CEMIG       ON      N1   R$  000000000111000000000011490000000001110000000000113900000000011490000000001147000000000114903235000000000000871100000000000992852900000000000000009999123100000010000000000000BRCMIGACNOR6224
012020090902CMIG4       010CEMIG       PN      N1   R$  000000000108100000000011200000000001080000000000110900000000011190000000001115000000000111921271000000000011796900000000013089472800000000000000009999123100000010000000000000BRCMIGACNPR3225
012020090902CNIC34      010CANAD NATIONDRN ED       R$  000000002730900000000274240000000027309000000002742200000000274240000000000000000000000000000002000000000000003050000000000083637450000000000000009999123100000010000000000000BRCNICBDR007105
012020090902CNTO3       010CENTAURO    ON      NM   R$  000000000307400000000031400000000002960000000000302200000000030270000000003027000000000303911774000000000002119000000000006403707000000000000000009999123100000010000000000000BRCNTOACNOR5100
012020090902COCA34      010COCA COLA   DRN          R$  000000002670200000000268250000000026702000000002675200000000267660000000026000000000002700000022000000000000013520000000000361688820000000000000009999123100000010000000000000BRCOCABDR002135
012020090902COCE3       010COELCE      ON           R$  000000000739900000000073990000000006700000000000704000000000067000000000006800000000000706000004000000000000000400000000000002816300000000000000009999123100000010000000000000BRCOCEACNOR0139
012020090902COCE5       010COELCE      PNA          R$  000000000616300000000061630000000005965000000000601500000000059650000000005963000000000599900234000000000000036600000000000220149300000000000000009999123100000010000000000000BRCOCEACNPA3140
012020090902COGN3       010COGNA ON    ON      NM   R$  000000000062100000000006260000000000588000000000059800000000005900000000000590000000000059141777000000000075574200000000045224194200000000000000009999123100000010000000000000BRCOGNACNOR2101
012020090902COLG34      010COLGATE     DRN          R$  000000004126000000000412600000000040976000000004099800000000409760000000000000000000000000000002000000000000002170000000000088966200000000000000009999123100000010000000000000BRCOLGBDR000137
012020090902COPH34      010COPHILLIPS  DRN          R$  000000000453900000000045390000000004539000000000453900000000045390000000004500000000000000000002000000000000010000000000000045390000000000000000009999123100000010000000000000BRCOPHBDR009135
012020090902COTY34      010COTY INC    DRN          R$  000000000100900000000010090000000000958000000000097900000000009640000000000950000000000105000015000000000000012460000000000012204880000000000000009999123100000010000000000000BRCOTYBDR006116
012020090902COWC34      010COSTCO      DRN          R$  000000004561400000000460190000000045614000000004568400000000459900000000000000000000004620000003000000000000003660000000000167205840000000000000009999123100000010000000000000BRCOWCBDR006119
012020090902CPFE3       010CPFL ENERGIAON      NM   R$  000000000297900000000030470000000002979000000000302800000000030440000000003031000000000304412341000000000003162500000000009578823900000000000000009999123100000010000000000000BRCPFEACNOR0130
012020090902CPLE3       010COPEL       ON      N1   R$  000000000630300000000065150000000006303000000000645400000000064320000000006432000000000644003041000000000000520900000000003362068400000000000000009999123100000010000000000000BRCPLEACNOR8139
012020090902CPLE6       010COPEL       PNB     N1   R$  000000000643400000000067500000000006434000000000664600000000066290000000006629000000000664907875000000000001380600000000009176555900000000000000009999123100000010000000000000BRCPLEACNPB9136
012020090902CRDE3       010CR2         ON           R$  000000000218000000000022000000000002179000000000219300000000022000000000002110000000000220000035000000000000015800000000000034653300000000000000009999123100000010000000000000BRCRDEACNOR1112
012020090902CRFB3       010CARREFOUR BRON      NM   R$  000000000208700000000021170000000002072000000000209100000000020870000000002087000000000208814175000000000005992200000000012534064200000000000000009999123100000010000000000000BRCRFBACNOR2107
012020090902CRIV3       010ALFA FINANC ON           R$  000000000054200000000005640000000000542000000000054700000000005640000000000540000000000056400004000000000000000700000000000000383100000000000000009999123100000010000000000000BRCRIVACNOR4194
012020090902CRIV4       010ALFA FINANC PN           R$  000000000063900000000006390000000000639000000000063900000000006390000000000607000000000063900002000000000000000500000000000000319500000000000000009999123100000010000000000000BRCRIVACNPR1204
012020090902CRPG3       010CRISTAL     ON           R$  000000000232600000000023260000000002326000000000232600000000023260000000002330000000000280000001000000000000000100000000000000232600000000000000009999123100000010000000000000BRCRPGACNOR0108
012020090902CRPG5       010CRISTAL     PNA          R$  000000000205500000000020640000000002031000000000204900000000020400000000002040000000000206000036000000000000005400000000000011068500000000000000009999123100000010000000000000BRCRPGACNPA3108
012020090902CRPG6       010CRISTAL     PNB          R$  000000000205000000000020600000000002050000000000205700000000020600000000002003000000000209900004000000000000000400000000000000823000000000000000009999123100000010000000000000BRCRPGACNPB1108
012020090902CSAB3       010SEG AL BAHIAON           R$  000000000510000000000051000000000004900000000000497300000000049000000000004711000000000499900003000000000000000300000000000001492000000000000000009999123100000010000000000000BRCSABACNOR1058
012020090902CSAN3       010COSAN       ON      NM   R$  000000000767600000000078730000000007619000000000774800000000078310000000007810000000000783112002000000000002677300000000020744209700000000000000009999123100000010000000000000BRCSANACNOR6120
012020090902CSCO34      010CISCO       DRN          R$  000000002139700000000213970000000021397000000002139700000000213970000000000000000000000000000001000000000000005000000000000106985000000000000000009999123100000010000000000000BRCSCOBDR004138
012020090902CSMG3       010COPASA      ON      NM   R$  000000000487500000000049360000000004860000000000491000000000049360000000004932000000000493605824000000000001256200000000006168795900000000000000009999123100000010000000000000BRCSMGACNOR5156
012020090902CSNA3       010SID NACIONALON           R$  000000000151000000000015900000000001510000000000156900000000015810000000001581000000000158228919000000000015844300000000024867047000000000000000009999123100000010000000000000BRCSNAACNOR6252
012020090902CSRN3       010COSERN      ON           R$  000000000178900000000017900000000001660000000000172800000000017900000000001671000000000179000021000000000000004800000000000008296000000000000000009999123100000010000000000000BRCSRNACNOR0172
012020090902CSXC34      010CSX CORP    DRN ED       R$  000000002028000000000202800000000020280000000002028000000000202800000000000000000000000000000001000000000000003000000000000060840000000000000000009999123100000010000000000000BRCSXCBDR005105
012020090902CTGP34      010CITIGROUP   DRN          R$  000000002695400000000273360000000026954000000002695600000000273360000000026500000000002733600002000000000000005030000000000135590080000000000000009999123100000010000000000000BRCTGPBDR000139
012020090902CTNM3       010COTEMINAS   ON           R$  000000000108600000000010860000000001085000000000108500000000010850000000001085000000000113700004000000000000000700000000000000759700000000000000009999123100000010000000000000BRCTNMACNOR9130
012020090902CTNM4       010COTEMINAS   PN           R$  000000000059000000000006000000000000575000000000058500000000005770000000000577000000000059900081000000000000046000000000000026922200000000000000009999123100000010000000000000BRCTNMACNPR6129
012020090902CTSA3       010SANTANENSE  ON           R$  000000000025500000000002600000000000251000000000025300000000002510000000000251000000000026200038000000000000008300000000000002107900000000000000009999123100000010000000000000BRCTSAACNOR3060
012020090902CTSA4       010SANTANENSE  PN           R$  000000000022600000000002300000000000224000000000022500000000002250000000000224000000000022500019000000000000004400000000000000992000000000000000009999123100000010000000000000BRCTSAACNPR0060
012020090902CVCB3       010CVC BRASIL  ON      NM   R$  000000000181600000000018380000000001755000000000177800000000017710000000001771000000000177315139000000000004614900000000008208061900000000000000009999123100000010000000000000BRCVCBACNOR1113
012020090902CVSH34      010CVS HEALTH  DRN          R$  000000001588300000000158830000000015815000000001588000000000158150000000000000000000001690000002000000000000006190000000000098302850000000000000009999123100000010000000000000BRCVSHBDR008117
012020090902CYRE3       010CYRELA REALTON      NM   R$  000000000242000000000025040000000002420000000000246000000000024480000000002448000000000244931723000000000009196100000000022627996700000000000000009999123100000010000000000000BRCYREACNOR7134
012020090902D1LR34      010DIGITAL REALDRN          R$  000000001964000000000196800000000019540000000001966500000000196800000000019090000000000000000003000000000000000350000000000006883000000000000000009999123100000010000000000000BRD1LRBDR001102
012020090902D1OM34      010DOMINION ENEDRN ED       R$  000000002115400000000211540000000021154000000002115400000000211540000000000000000000000000000001000000000000003000000000000063462000000000000000009999123100000010000000000000BRD1OMBDR006103
012020090902DASA3       010DASA        ON           R$  000000000650000000000065010000000006500000000000650000000000065010000000006500000000000690000003000000000000000300000000000001950200000000000000009999123100000010000000000000BRDASAACNOR1119
012020090902DDNB34      010DUPONT N INCDRN          R$  000000003060000000000306000000000030600000000003060000000000306000000000027100000000000000000001000000000000005000000000000153000000000000000000009999123100000010000000000000BRDDNBBDR008105
012020090902DEAI34      010DELTA       DRN          R$  000000001670000000000169200000000016700000000001670100000000169200000000013361000000002300000003000000000000002030000000000033903200000000000000009999123100000010000000000000BRDEAIBDR008116
012020090902DEEC34      010DEERE CO    DRN          R$  000000005657500000000565750000000056575000000005657500000000565750000000000000000000000000000001000000000000001000000000000056575000000000000000009999123100000010000000000000BRDEECBDR003105
012020090902DEOP34      010DIAGEO PL   DRN          R$  000000007356800000000735680000000072721000000007279800000000727210000000000000000000000000000002000000000000001100000000000080077800000000000000009999123100000010000000000000BRDEOPBDR004102
012020090902DGCO34      010DOLLAR GENERDRN          R$  000000005168100000000516810000000051681000000005168100000000516810000000000000000000000000000001000000000000001000000000000051681000000000000000009999123100000010000000000000BRDGCOBDR007105
012020090902DHER34      010DANAHER CORPDRN          R$  000000002665800000000266580000000026658000000002665800000000266580000000000000000000000000000001000000000000006000000000000159948000000000000000009999123100000010000000000000BRDHERBDR004121
012020090902DIRR3       010DIRECIONAL  ON      NM   R$  000000000157000000000015870000000001554000000000157300000000015830000000001575000000000158303712000000000001064000000000001674323000000000000000009999123100000010000000000000BRDIRRACNOR0112
012020090902DISB34      010WALT DISNEY DRN          R$  000000007227400000000722740000000070432000000007134100000000708330000000070600000000007220000038000000000000006230000000000444457290000000000000009999123100000010000000000000BRDISBBDR006114
012020090902DMMO3       010DOMMO       ON           R$  000000000012400000000001270000000000122000000000012300000000001220000000000122000000000012301295000000000002787100000000000344715500000000000000009999123100000010000000000000BRDMMOACNOR0102
012020090902DMVF3       010D1000VFARMA ON      NM   R$  000000000119100000000012000000000001179000000000118800000000011870000000001186000000000118700497000000000000147600000000000175370700000000000000009999123100000010000000000000BRDMVFACNOR9100
012020090902DOHL4       010DOHLER      PN           R$  000000000050500000000005150000000000505000000000051400000000005150000000000508000000000051500012000000000000006000000000000003085100000000000000009999123100000010000000000000BRDOHLACNPR9061
012020090902DTCY3       010DTCOM-DIRECTON           R$  000000000064700000000006470000000000647000000000064700000000006470000000000647000000000066000005000000000000001500000000000000970500000000000000009999123100000010000000000000BRDTCYACNOR5109
012020090902DTEX3       010DURATEX     ON      NM   R$  000000000174900000000017850000000001712000000000174800000000017560000000001755000000000175608844000000000002419800000000004231299600000000000000009999123100000010000000000000BRDTEXACNOR3128
012020090902DUKB34      010DUKE ENERGY DRN          R$  000000004395400000000439540000000043954000000004395400000000439540000000043000000000000000000001000000000000001000000000000043954000000000000000009999123100000010000000000000BRDUKBBDR008116
012020090902EAIN34      010ELECTR ARTS DRN          R$  000000003353100000000339730000000033500000000003374600000000339730000000032900000000003690100004000000000000001030000000000034759040000000000000009999123100000010000000000000BREAINBDR007100
012020090902EALT4       010ACO ALTONA  PN           R$  000000000053100000000005370000000000515000000000052400000000005300000000000530000000000053200081000000000000029900000000000015680900000000000000009999123100000010000000000000BREALTACNPR1133
012020090902EBAY34      010EBAY        DRN ED       R$  000000001392000000000139200000000013920000000001392000000000139200000000000000000000000000000001000000000000004000000000000055680000000000000000009999123100000010000000000000BREBAYBDR009108
012020090902ECOR3       010ECORODOVIAS ON      NM   R$  000000000136700000000014030000000001345000000000136500000000013650000000001364000000000136614218000000000005512700000000007525032600000000000000009999123100000010000000000000BRECORACNOR8116
012020090902ECPR4       010ENCORPAR    PN           R$  000000000760000000000076000000000007600000000000760000000000076000000000000000000000000770000001000000000000000100000000000000760000000000000000009999123100000010000000000000BRECPRACNPR2111
012020090902EGIE3       010ENGIE BRASILON      NM   R$  000000000443500000000045300000000004435000000000449300000000045300000000004510000000000453007887000000000001337600000000006010508700000000000000009999123100000010000000000000BREGIEACNOR9113
012020090902EKTR3       010ELEKTRO     ON           R$  000000000239600000000024000000000002200000000000228800000000024000000000002175000000000240000070000000000000007500000000000017164800000000000000009999123100000010000000000000BREKTRACNOR0144
012020090902ELCI34      010ESTEE LAUDERDRN ED       R$  000000005776000000000577600000000057760000000005776000000000577600000000000000000000000000000001000000000000001000000000000057760000000000000000009999123100000010000000000000BRELCIBDR007104
012020090902ELET3       010ELETROBRAS  ON      N1   R$  000000000365700000000037400000000003635000000000367900000000036380000000003638000000000364016504000000000004552600000000016752883300000000000000009999123100000010000000000000BRELETACNOR6155
012020090902ELET6       010ELETROBRAS  PNB     N1   R$  000000000371500000000037960000000003682000000000372400000000036820000000003682000000000369308332000000000001709800000000006367373500000000000000009999123100000010000000000000BRELETACNPB7072
012020090902EMAE4       010EMAE        PN           R$  000000000309800000000030980000000002957000000000303000000000030100000000003010000000000308000044000000000000016600000000000050305400000000000000009999123100000010000000000000BREMAEACNPR1114
012020090902EMBR3       010EMBRAER     ON      NM   R$  000000000074000000000007660000000000714000000000072900000000007190000000000718000000000071922358000000000020989800000000015308754600000000000000009999123100000010000000000000BREMBRACNOR4189
012020090902ENAT3       010ENAUTA PART ON      NM   R$  000000000111700000000011260000000001101000000000110800000000011060000000001105000000000110604490000000000001216500000000001348402800000000000000009999123100000010000000000000BRENATACNOR0101
012020090902ENBR3       010ENERGIAS BR ON      NM   R$  000000000189600000000019430000000001896000000000192200000000019120000000001912000000000191911561000000000002384700000000004584471100000000000000009999123100000010000000000000BRENBRACNOR2129
012020090902ENEV3       010ENEVA       ON      NM   R$  000000000491500000000049740000000004896000000000493500000000049620000000004952000000000496205437000000000000958600000000004731389800000000000000009999123100000010000000000000BRENEVACNOR8104
012020090902ENGI3       010ENERGISA    ON      N2   R$  000000000131400000000013500000000001311000000000134300000000013500000000001334000000000134900076000000000000008000000000000010749800000000000000009999123100000010000000000000BRENGIACNOR0138
012020090902ENGI4       010ENERGISA    PN      N2   R$  000000000076400000000008040000000000764000000000079100000000007660000000000766000000000079800154000000000000031000000000000024530400000000000000009999123100000010000000000000BRENGIACNPR7134
012020090902ENGI11      010ENERGISA    UNT     N2   R$  000000000441700000000045560000000004416000000000450700000000044810000000004481000000000450306819000000000001399700000000006309637500000000000000009999123100000010000000000000BRENGICDAM16128
012020090902ENMT3       010ENERGISA MT ON           R$  000000000299000000000029900000000002810000000000292300000000029900000000002805000000000299000029000000000000002900000000000008479200000000000000009999123100000010000000000000BRENMTACNOR5111
012020090902ENMT4       010ENERGISA MT PN           R$  000000000299000000000029900000000002820000000000294100000000029900000000002825000000000299000030000000000000003200000000000009413300000000000000009999123100000010000000000000BRENMTACNPR2114
012020090902EQIX34      010EQUINIX INC DRN          R$  000000008095700000000809570000000080013000000008010900000000801990000000000000000000000000000003000000000000001310000000000104942910000000000000009999123100000010000000000000BREQIXBDR002106
012020090902EQPA3       010EQTL PARA   ON           R$  000000000033700000000003400000000000327000000000033200000000003360000000000329000000000033600055000000000000015400000000000005116800000000000000009999123100000010000000000000BREQPAACNOR1101
012020090902EQPA7       010EQTL PARA   PNC          R$  000000000056900000000005970000000000569000000000058000000000005970000000000570000000000059700003000000000000000300000000000000174100000000000000009999123100000010000000000000BREQPAACNPC0101
012020090902EQTL3       010EQUATORIAL  ON      NM   R$  000000000236900000000024230000000002365000000000241000000000024120000000002412000000000241811894000000000003409700000000008217907600000000000000009999123100000010000000000000BREQTLACNOR0126
012020090902ESTR4       010ESTRELA     PN           R$  000000000329300000000038060000000003024000000000320200000000038060000000003806000000000390000243000000000000069900000000000223838300000000000000009999123100000010000000000000BRESTRACNPR0143
012020090902EUCA3       010EUCATEX     ON      N1   R$  000000000228000000000022800000000002243000000000227300000000022430000000002242000000000230000005000000000000000600000000000001364300000000000000009999123100000010000000000000BREUCAACNOR1151
012020090902EUCA4       010EUCATEX     PN      N1   R$  000000000063500000000006420000000000627000000000063200000000006290000000000629000000000063700085000000000000031900000000000020163800000000000000009999123100000010000000000000BREUCAACNPR8038
012020090902EVEN3       010EVEN        ON      NM   R$  000000000126800000000012830000000001252000000000127300000000012660000000001266000000000126904339000000000001226500000000001562519200000000000000009999123100000010000000000000BREVENACNOR8112
012020090902EXXO34      010EXXON MOBIL DRN          R$  000000000514500000000051500000000005021000000000511300000000050400000000005021000000000504000019000000000000030650000000000156732360000000000000009999123100000010000000000000BREXXOBDR006140
012020090902EZTC3       010EZTEC       ON      NM   R$  000000000398000000000041500000000003980000000000408800000000040940000000004094000000000409518988000000000003955200000000016172679000000000000000009999123100000010000000000000BREZTCACNOR0114
012020090902F1IS34      010FISERV INC  DRN          R$  000000002521100000000252110000000025211000000002521100000000252110000000000000000000000000000001000000000000003000000000000075633000000000000000009999123100000010000000000000BRF1ISBDR003100
012020090902F1NI34      010FIDELITY NATDRN          R$  000000001946000000000194600000000019460000000001946000000000194600000000000000000000000000000001000000000000005000000000000097300000000000000000009999123100000010000000000000BRF1NIBDR004102
012020090902F1RI34      010FEDERAL REALDRN          R$  000000001082000000000108200000000010600000000001060700000000106000000000000000000000001208000002000000000000000310000000000003288200000000000000009999123100000010000000000000BRF1RIBDR005102
012020090902FBOK34      010FACEBOOK    DRN          R$  000000007259400000000734740000000072362000000007296000000000725760000000076930000000007968800043000000000000020140000000001469414740000000000000009999123100000010000000000000BRFBOKBDR006100
012020090902FCXO34      010FREEPORT    DRN          R$  000000000857000000000085800000000008570000000000857300000000085800000000000000000000000000000003000000000000001500000000000012860000000000000000009999123100000010000000000000BRFCXOBDR007132
012020090902FDXB34      010FEDEX CORP  DRN ED       R$  000000012029100000001202910000000120291000000012029100000001202910000000000000000000000000000001000000000000001000000000000120291000000000000000009999123100000010000000000000BRFDXBBDR002128
012020090902FESA3       010FERBASA     ON  EJ  N1   R$  000000000281000000000029700000000002660000000000284600000000027060000000002705000000000292000109000000000000017500000000000049805800000000000000009999123100000010000000000000BRFESAACNOR8171
012020090902FESA4       010FERBASA     PN  EJ  N1   R$  000000000181700000000018310000000001798000000000181600000000018260000000001816000000000182700644000000000000130100000000000236380800000000000000009999123100000010000000000000BRFESAACNPR5067
012020090902FLRY3       010FLEURY      ON      NM   R$  000000000287000000000028930000000002851000000000287000000000028710000000002863000000000287109450000000000001286300000000003692135300000000000000009999123100000010000000000000BRFLRYACNOR5127
012020090902FRAS3       010FRAS-LE     ON      N1   R$  000000000054600000000005470000000000536000000000053800000000005360000000000535000000000054000275000000000000066100000000000035626300000000000000009999123100000010000000000000BRFRASACNOR0149
012020090902G1LW34      010CORNING INC DRN          R$  000000001729100000000172910000000017291000000001729100000000172910000000000000000000000000000003000000000000000400000000000006916400000000000000009999123100000010000000000000BRG1LWBDR008103
012020090902G1WW34      010WW GRAINGER DRN          R$  000000003836400000000383640000000038364000000003836400000000383640000000000000000000000000000001000000000000000370000000000014194680000000000000009999123100000010000000000000BRG1WWBDR005103
012020090902GDBR34      010GEN DYNAMICSDRN          R$  000000007771400000000777140000000077714000000007771400000000777140000000000000000000000000000001000000000000001000000000000077714000000000000000009999123100000010000000000000BRGDBRBDR002120
012020090902GEOO34      010GE          DRN          R$  000000000327900000000032790000000003221000000000322800000000032670000000003225000000000326700009000000000000017410000000000056200000000000000000009999123100000010000000000000BRGEOOBDR000140
012020090902GEPA3       010GER PARANAP ON           R$  000000000443900000000044390000000004170000000000427200000000042000000000004200000000000443900049000000000000009800000000000041873800000000000000009999123100000010000000000000BRGEPAACNOR2146
012020090902GEPA4       010GER PARANAP PN           R$  000000000480200000000048020000000004802000000000480200000000048020000000004621000000000480200001000000000000000100000000000000480200000000000000009999123100000010000000000000BRGEPAACNPR9153
012020090902GFSA3       010GAFISA      ON      NM   R$  000000000048500000000004880000000000466000000000047300000000004680000000000467000000000046807786000000000005792400000000002741901100000000000000009999123100000010000000000000BRGFSAACNOR3119
012020090902GGBR3       010GERDAU      ON      N1   R$  000000000164400000000017230000000001644000000000169600000000016990000000001693000000000170200685000000000000230600000000000391243300000000000000009999123100000010000000000000BRGGBRACNOR1173
012020090902GGBR4       010GERDAU      PN      N1   R$  000000000200600000000020820000000001994000000000205500000000020530000000002053000000000205430037000000000013996000000000028774993900000000000000009999123100000010000000000000BRGGBRACNPR8173
012020090902GILD34      010GILEAD      DRN          R$  000000001710800000000171080000000017105000000001710500000000171050000000000000000000002156000002000000000000004480000000000076631840000000000000009999123100000010000000000000BRGILDBDR000117
012020090902GMCO34      010GENERAL MOT DRN          R$  000000001714100000000171410000000017000000000001707000000000170190000000016013000000000000000024000000000000004320000000000073746360000000000000009999123100000010000000000000BRGMCOBDR008115
012020090902GNDI3       010INTERMEDICA ON      NM   R$  000000000760000000000076490000000007390000000000751100000000075170000000007517000000000752516755000000000002723500000000020458507900000000000000009999123100000010000000000000BRGNDIACNOR2102
012020090902GOAU3       010GERDAU MET  ON      N1   R$  000000000078900000000008200000000000770000000000080600000000008160000000000806000000000081600557000000000000254800000000000205621400000000000000009999123100000010000000000000BRGOAUACNOR1250
012020090902GOAU4       010GERDAU MET  PN      N1   R$  000000000090000000000009460000000000900000000000093100000000009370000000000936000000000093718810000000000019386100000000018052456600000000000000009999123100000010000000000000BRGOAUACNPR8251
012020090902GOGL34      010ALPHABET    DRN A        R$  000000003300600000000330060000000032500000000003270700000000328720000000032781000000003287200104000000000000020410000000000667556380000000000000009999123100000010000000000000BRGOGLBDR001100
012020090902GOGL35      010ALPHABET    DRN C        R$  000000003271700000000332000000000032717000000003316700000000330950000000032200000000003309500015000000000000012090000000000400996920000000000000009999123100000010000000000000BRGOGLBDR019100
012020090902GOLL4       010GOL         PN      N2   R$  000000000208800000000021150000000001951000000000200400000000019840000000001982000000000198426997000000000011413400000000022881682700000000000000009999123100000010000000000000BRGOLLACNPR4125
012020090902GPAR3       010CELGPAR     ON           R$  000000000321700000000033200000000002955000000000314100000000029550000000002953000000000325000183000000000000034900000000000109623100000000000000009999123100000010000000000000BRGPARACNOR4104
012020090902GPIV33      010GP INVEST   DR3          R$  000000000052100000000005430000000000498000000000051800000000005010000000000497000000000050100255000000000000144400000000000074878500000000000000009999123100000010000000000000BRGPIVBDR003104
012020090902GPRK34      010GEOPARK LTD DRN          R$  000000000442400000000044240000000004424000000000442400000000044240000000000000000000000000000001000000000000000700000000000003096800000000000000009999123100000010000000000000BRGPRKBDR007103
012020090902GRND3       010GRENDENE    ON      NM   R$  000000000084500000000008520000000000822000000000083100000000008380000000000835000000000083805026000000000001511200000000001256667800000000000000009999123100000010000000000000BRGRNDACNOR3158
012020090902GSGI34      010GOLDMANSACHSDRN ED       R$  000000001084000000000108400000000010819000000001083800000000108190000000000000000000000000000002000000000000008800000000000095375200000000000000009999123100000010000000000000BRGSGIBDR008140
012020090902GUAR3       010GUARARAPES  ON           R$  000000000182000000000018200000000001743000000000176900000000017870000000001782000000000178806211000000000001122400000000001986021000000000000000009999123100000010000000000000BRGUARACNOR4165
012020090902H1CA34      010HCA HEALTHCADRN          R$  000000003531800000000353180000000035318000000003531800000000353180000000000000000000000000000001000000000000001000000000000035318000000000000000009999123100000010000000000000BRH1CABDR002101
012020090902HAGA3       010HAGA S/A    ON           R$  000000000036600000000003940000000000360000000000036700000000003680000000000361000000000036800049000000000000014700000000000005403400000000000000009999123100000010000000000000BRHAGAACNOR7103
012020090902HAGA4       010HAGA S/A    PN           R$  000000000019700000000002020000000000197000000000019800000000001970000000000197000000000019900047000000000000021700000000000004300700000000000000009999123100000010000000000000BRHAGAACNPR4103
012020090902HALI34      010HALLIBURTON DRN ED       R$  000000000795000000000079850000000007950000000000795000000000079850000000000000000000000000000007000000000000000610000000000004849850000000000000009999123100000010000000000000BRHALIBDR004135
012020090902HAPV3       010HAPVIDA     ON      NM   R$  000000000679100000000068680000000006601000000000676000000000068290000000006829000000000683712005000000000002403300000000016247641200000000000000009999123100000010000000000000BRHAPVACNOR4105
012020090902HBOR3       010HELBOR      ON      NM   R$  000000000120000000000012160000000001160000000000118200000000011660000000001166000000000116704641000000000003135600000000003709216800000000000000009999123100000010000000000000BRHBORACNOR3114
012020090902HETA4       010HERCULES    PN           R$  000000000080000000000008380000000000777000000000080600000000007780000000000703000000000078400186000000000000076200000000000061443000000000000000009999123100000010000000000000BRHETAACNPR9136
012020090902HGTX3       010CIA HERING  ON      NM   R$  000000000197000000000019940000000001891000000000192900000000019260000000001925000000000192610109000000000003677400000000007096753700000000000000009999123100000010000000000000BRHGTXACNOR9151
012020090902HOME34      010HOME DEPOT  DRN ED       R$  000000007260000000000738840000000072600000000007290200000000736490000000000000000000000000000003000000000000006950000000000506674300000000000000009999123100000010000000000000BRHOMEBDR002134
012020090902HONB34      010HONEYWELL   DRN          R$  000000008755200000000875520000000087552000000008755200000000875520000000000000000000000000000001000000000000001000000000000087552000000000000000009999123100000010000000000000BRHONBBDR006127
012020090902HOND34      010HONDA MO    DRN          R$  000000001332000000000133200000000013320000000001332000000000133200000000000000000000000000000001000000000000003000000000000039960000000000000000009999123100000010000000000000BRHONDBDR002103
012020090902HYPE3       010HYPERA      ON      NM   R$  000000000317300000000032000000000003064000000000312200000000031620000000003151000000000316224390000000000006152600000000019210409400000000000000009999123100000010000000000000BRHYPEACNOR0122
012020090902I1NF34      010IHS MARKIT LDRN          R$  000000002072700000000207270000000020727000000002072700000000207270000000000000000000000000000001000000000000000800000000000016581600000000000000009999123100000010000000000000BRI1NFBDR007103
012020090902I1RM34      010IRON MOUNTAIDRN          R$  000000001628000000000162800000000016100000000001614500000000161000000000000000000000000000000002000000000000000040000000000000645800000000000000009999123100000010000000000000BRI1RMBDR004102
012020090902IBMB34      010IBM         DRN          R$  000000006472000000000647200000000064720000000006472000000000647200000000000000000000000000000001000000000000002000000000000129440000000000000000009999123100000010000000000000BRIBMBBDR003135
012020090902IDVL3       010INDUSVAL    ON      N2   R$  000000000023800000000002540000000000236000000000024900000000002450000000000246000000000025100053000000000000032600000000000008121800000000000000009999123100000010000000000000BRIDVLACNOR5130
012020090902IDVL4       010INDUSVAL    PN      N2   R$  000000000025500000000002550000000000255000000000025500000000002550000000000242000000000025700001000000000000000100000000000000025500000000000000009999123100000010000000000000BRIDVLACNPR2130
012020090902IGTA3       010IGUATEMI    ON      NM   R$  000000000362000000000036220000000003490000000000353300000000035300000000003527000000000353008654000000000001692000000000005978078700000000000000009999123100000010000000000000BRIGTAACNOR5124
012020090902INTU34      010INTUIT INC  DRN          R$  000000004287000000000428700000000042870000000004287000000000428700000000000000000000000000000001000000000000002000000000000085740000000000000000009999123100000010000000000000BRINTUBDR003105
012020090902IRBR3       010IRBBRASIL REON      NM   R$  000000000067700000000006800000000000646000000000065700000000006510000000000650000000000065129932000000000029200100000000019206680400000000000000009999123100000010000000000000BRIRBRACNOR4108
012020090902ITLC34      010INTEL       DRN          R$  000000002610100000000263390000000026101000000002633700000000263390000000026000000000002633900004000000000000006050000000000159342180000000000000009999123100000010000000000000BRITLCBDR005139
012020090902ITSA3       010ITAUSA      ON  ED  N1   R$  000000000110000000000011000000000001079000000000108500000000010900000000001086000000000109000417000000000000106600000000000115696200000000000000009999123100000010000000000000BRITSAACNOR0401
012020090902ITSA4       010ITAUSA      PN  ED  N1   R$  000000000097000000000009780000000000962000000000096900000000009680000000000968000000000096922655000000000016523600000000016012016100000000000000009999123100000010000000000000BRITSAACNPR7401
012020090902ITUB3       010ITAUUNIBANCOON  ED  N1   R$  000000000234300000000023520000000002304000000000232200000000023110000000002311000000000231801237000000000000265800000000000617350300000000000000009999123100000010000000000000BRITUBACNOR4273
012020090902ITUB4       010ITAUUNIBANCOPN  ED  N1   R$  000000000246000000000024810000000002416000000000243900000000024430000000002441000000000244350517000000000029670800000000072385982200000000000000009999123100000010000000000000BRITUBACNPR1273
012020090902JBDU3       010J B DUARTE  ON           R$  000000000023100000000002310000000000229000000000022900000000002290000000000227000000000022900007000000000000002700000000000000620900000000000000009999123100000010000000000000BRJBDUACNOR6142
012020090902JBDU4       010J B DUARTE  PN           R$  000000000012500000000001280000000000125000000000012500000000001260000000000125000000000012600039000000000000014700000000000001844400000000000000009999123100000010000000000000BRJBDUACNPR3142
012020090902JBSS3       010JBS         ON      NM   R$  000000000219600000000022300000000002185000000000220600000000022000000000002200000000000220524385000000000010844300000000023923902200000000000000009999123100000010000000000000BRJBSSACNOR8115
012020090902JDCO34      010JD COM      DRN          R$  000000004058300000000409190000000040583000000004068400000000408770000000000000000000004700000003000000000000003040000000000123680180000000000000009999123100000010000000000000BRJDCOBDR001100
012020090902JHSF3       010JHSF PART   ON      NM   R$  000000000073900000000007430000000000712000000000072600000000007200000000000719000000000072009906000000000008205100000000005957115000000000000000009999123100000010000000000000BRJHSFACNOR2116
012020090902JNJB34      010JOHNSON     DRN          R$  000000007992900000000799290000000079700000000007992600000000797000000000079500000000007970000004000000000000004040000000000322904000000000000000009999123100000010000000000000BRJNJBBDR002135
012020090902JOPA3       010JOSAPAR     ON           R$  000000000300000000000030000000000003000000000000300000000000030000000000002801000000000320000001000000000000000100000000000000300000000000000000009999123100000010000000000000BRJOPAACNOR5131
012020090902JPMC34      010JPMORGAN    DRN          R$  000000002650100000000269330000000026501000000002678400000000268640000000026615000000002686400014000000000000009180000000000245879410000000000000009999123100000010000000000000BRJPMCBDR009134
012020090902JPSA3       010JEREISSATI  ON           R$  000000000240000000000024480000000002356000000000238300000000023790000000002375000000000237901234000000000000172000000000000409945000000000000000009999123100000010000000000000BRJPSAACNOR6103
012020090902JSLG3       010JSL         ON      NM   R$  000000000326400000000033200000000003174000000000322200000000032060000000003206000000000321003093000000000000763500000000002460301400000000000000009999123100000010000000000000BRJSLGACNOR2114
012020090902K1RC34      010KROGER CO   DRN          R$  000000001861500000000186150000000018615000000001861500000000186150000000000000000000000000000001000000000000000010000000000000186150000000000000009999123100000010000000000000BRK1RCBDR001103
012020090902KEPL3       010KEPLER WEBERON           R$  000000000445000000000044500000000004155000000000428800000000042500000000004205000000000425002387000000000000429700000000001842753100000000000000009999123100000010000000000000BRKEPLACNOR1049
012020090902KHCB34      010KRAFT HEINZ DRN          R$  000000001684500000000168720000000016725000000001684100000000168720000000000000000000001950000004000000000000002090000000000035198540000000000000009999123100000010000000000000BRKHCBBDR007121
012020090902KLBN3       010KLABIN S/A  ON      N2   R$  000000000052700000000005320000000000516000000000052200000000005260000000000523000000000052800835000000000000264100000000000137904000000000000000009999123100000010000000000000BRKLBNACNOR2156
012020090902KLBN4       010KLABIN S/A  PN      N2   R$  000000000048200000000004920000000000481000000000048500000000004850000000000485000000000048802602000000000001255700000000000609508700000000000000009999123100000010000000000000BRKLBNACNPR9156
012020090902KLBN11      010KLABIN S/A  UNT     N2   R$  000000000245800000000025000000000002438000000000246900000000024840000000002481000000000248411475000000000002722900000000006725075800000000000000009999123100000010000000000000BRKLBNCDAM18128
012020090902KMBB34      010KIMBERLY CL DRN ED       R$  000000008033900000000803390000000080339000000008033900000000803390000000000000000000000000000001000000000000001000000000000080339000000000000000009999123100000010000000000000BRKMBBBDR009121
012020090902L1HX34      010L3HARRIS TECDRN ED       R$  000000002390000000000239000000000023900000000002390000000000239000000000000000000000000000000001000000000000000120000000000002868000000000000000009999123100000010000000000000BRL1HXBDR007103
012020090902L1UL34      010LULULEMON ATDRN          R$  000000004457800000000445780000000044164000000004423300000000441640000000000000000000000000000002000000000000000360000000000015923880000000000000009999123100000010000000000000BRL1ULBDR005100
012020090902LAME3       010LOJAS AMERICON      N1   R$  000000000267000000000026840000000002609000000000264700000000026680000000002661000000000267010493000000000001749400000000004632164500000000000000009999123100000010000000000000BRLAMEACNOR9202
012020090902LAME4       010LOJAS AMERICPN      N1   R$  000000000313100000000031410000000003034000000000308500000000030910000000003091000000000311224182000000000006597900000000020360921600000000000000009999123100000010000000000000BRLAMEACNPR6202
012020090902LAVV3       010LAVVI       ON      NM   R$  000000000083000000000008410000000000811000000000082400000000008270000000000827000000000082903626000000000002285500000000001884051800000000000000009999123100000010000000000000BRLAVVACNOR4100
012020090902LBRN34      010L BRANDS    DRN          R$  000000000379600000000037960000000003796000000000379600000000037960000000000000000000000000000001000000000000000130000000000000493480000000000000009999123100000010000000000000BRLBRNBDR001119
012020090902LCAM3       010LOCAMERICA  ON      NM   R$  000000000223500000000022880000000002175000000000223100000000022840000000002276000000000228511437000000000003417500000000007627576700000000000000009999123100000010000000000000BRLCAMACNOR3133
012020090902LEVE3       010METAL LEVE  ON      NM   R$  000000000180900000000018200000000001752000000000177100000000017660000000001766000000000176703715000000000000606900000000001075333700000000000000009999123100000010000000000000BRLEVEACNOR2187
012020090902LIGT3       010LIGHT S/A   ON      NM   R$  000000000156000000000016040000000001560000000000158600000000015710000000001571000000000157805564000000000001442800000000002288512900000000000000009999123100000010000000000000BRLIGTACNOR2120
012020090902LILY34      010LILLY       DRN          R$  000000004039200000000403920000000040392000000004039200000000403920000000000000000000004120000001000000000000004000000000000161568000000000000000009999123100000010000000000000BRLILYBDR006134
012020090902LINX3       010LINX        ON      NM   R$  000000000355000000000035900000000003525000000000354600000000035520000000003552000000000355414727000000000004741600000000016818002700000000000000009999123100000010000000000000BRLINXACNOR0118
012020090902LIPR3       010ELETROPAR   ON           R$  000000000705000000000070500000000006900000000000699300000000070120000000007011000000000750000004000000000000000400000000000002797400000000000000009999123100000010000000000000BRLIPRACNOR7117
012020090902LJQQ3       010QUERO-QUERO ON      NM   R$  000000000143700000000014620000000001430000000000145000000000014500000000001450000000000146003049000000000001017400000000001475872400000000000000009999123100000010000000000000BRLJQQACNOR5100
012020090902LMTB34      010LOCKHEED    DRN ED       R$  000000020353500000002035350000000203535000000020353500000002035350000000000000000000000000000001000000000000001000000000000203535000000000000000009999123100000010000000000000BRLMTBBDR009134
012020090902LOGG3       010LOG COM PROPON      NM   R$  000000000330500000000033050000000003188000000000323000000000032250000000003215000000000322503553000000000000570300000000001842144000000000000000009999123100000010000000000000BRLOGGACNOR7103
012020090902LOGN3       010LOG-IN      ON      NM   R$  000000000197300000000020160000000001920000000000194600000000019370000000001937000000000193903966000000000000795400000000001548458500000000000000009999123100000010000000000000BRLOGNACNOR3104
012020090902LOWC34      010LOWES COMPA DRN          R$  000000004200000000000420000000000042000000000004200000000000420000000000000000000000000000000001000000000000003000000000000126000000000000000000009999123100000010000000000000BRLOWCBDR007105
012020090902LPSB3       010LOPES BRASILON      NM   R$  000000000060900000000006160000000000582000000000059300000000005840000000000584000000000058503987000000000001308500000000000776905500000000000000009999123100000010000000000000BRLPSBACNOR0111
012020090902LREN3       010LOJAS RENNERON      NM   R$  000000000461700000000046880000000004582000000000462000000000046110000000004611000000000461517382000000000004416400000000020404541600000000000000009999123100000010000000000000BRLRENACNOR1203
012020090902LUXM4       010TREVISA     PN           R$  000000000452800000000046000000000004500000000000453400000000046000000000004400000000000460000020000000000000002100000000000009522300000000000000009999123100000010000000000000BRLUXMACNPR4047
012020090902LWSA3       010LOCAWEB     ON      NM   R$  000000000608200000000061370000000005855000000000595000000000059150000000005915000000000591708277000000000001527200000000009086997300000000000000009999123100000010000000000000BRLWSAACNOR8100
012020090902M1CH34      010MICROCHIP TEDRN          R$  000000002729900000000272990000000027299000000002729900000000272990000000000000000000000000000001000000000000000080000000000002183920000000000000009999123100000010000000000000BRM1CHBDR000103
012020090902M1GM34      010MGM RESORTS DRN ED       R$  000000001224000000000122400000000012240000000001224000000000122400000000012240000000000000000001000000000000000050000000000000612000000000000000009999123100000010000000000000BRM1GMBDR019103
012020090902MACY34      010MACY S      DRN          R$  000000000396500000000039990000000003965000000000396800000000039990000000002600000000000890000002000000000000001100000000000004364900000000000000009999123100000010000000000000BRMACYBDR000116
012020090902MAPT3       010CEMEPE      ON           R$  000000000500100000000050010000000005001000000000500100000000050010000000005000000000000650000001000000000000000100000000000000500100000000000000009999123100000010000000000000BRMAPTACNOR8106
012020090902MCDC34      010MCDONALDS   DRN ED       R$  000000002877000000000288320000000028700000000002877700000000288320000000000000000000003000000004000000000000006910000000000198855300000000000000009999123100000010000000000000BRMCDCBDR000140
012020090902MCOR34      010MOODYS CORP DRN          R$  000000003814100000000381410000000038141000000003814100000000381410000000000000000000000000000001000000000000001000000000000038141000000000000000009999123100000010000000000000BRMCORBDR005105
012020090902MDIA3       010M.DIASBRANCOON      NM   R$  000000000372500000000037480000000003637000000000368000000000036890000000003683000000000368904388000000000000735400000000002706377000000000000000009999123100000010000000000000BRMDIAACNOR7118
012020090902MDLZ34      010MONDELEZ INTDRN          R$  000000001520000000000152000000000015146000000001514600000000151460000000000000000000000000000002000000000000006020000000000091180000000000000000009999123100000010000000000000BRMDLZBDR002120
012020090902MDNE3       010MOURA DUBEUXON      NM   R$  000000000089300000000009040000000000882000000000088800000000008850000000000885000000000089301476000000000000361100000000000320855700000000000000009999123100000010000000000000BRMDNEACNOR9100
012020090902MDTC34      010MEDTRONIC   DRN          R$  000000002817600000000284130000000028176000000002818200000000284130000000000000000000000000000003000000000000005190000000000146266040000000000000009999123100000010000000000000BRMDTCBDR004117
012020090902MEAL3       010IMC S/A     ON      NM   R$  000000000040400000000004060000000000378000000000038500000000003810000000000381000000000038226028000000000045938400000000017695569200000000000000009999123100000010000000000000BRMEALACNOR9105
012020090902MELI34      010MERCADOLIBREDRN          R$  000000005600000000000569600000000054800000000005596600000000563700000000056166000000005637000086000000000000021810000000001220638910000000000000009999123100000010000000000000BRMELIBDR006100
012020090902MERC4       010MERC FINANC PN           R$  000000000122000000000012200000000001219000000000121900000000012190000000001161000000000122000002000000000000000200000000000000243900000000000000009999123100000010000000000000BRMERCACNPR9173
012020090902METB34      010METLIFE INC DRN          R$  000000002018300000000201830000000020183000000002018300000000201830000000000000000000000000000001000000000000002000000000000040366000000000000000009999123100000010000000000000BRMETBBDR004121
012020090902MGEL4       010MANGELS INDLPN           R$  000000000054900000000005490000000000540000000000054700000000005490000000000530000000000054900005000000000000000700000000000000383400000000000000009999123100000010000000000000BRMGELACNPR3147
012020090902MGLU3       010MAGAZ LUIZA ON      NM   R$  000000000890300000000091430000000008903000000000904200000000091200000000009120000000000913047092000000000011440700000000103453568400000000000000009999123100000010000000000000BRMGLUACNOR2116
012020090902MILS3       010MILLS       ON      NM   R$  000000000070000000000007190000000000692000000000070200000000006940000000000694000000000070103308000000000001368400000000000960924200000000000000009999123100000010000000000000BRMILSACNOR2112
012020090902MMMC34      0103M          DRN          R$  000000002216800000000221930000000022109000000002219000000000221090000000015000000000000000000003000000000000004450000000000098747010000000000000009999123100000010000000000000BRMMMCBDR000134
012020090902MNDL3       010MUNDIAL     ON           R$  000000000238000000000023800000000002280000000000230900000000022800000000002280000000000230000012000000000000001600000000000003695200000000000000009999123100000010000000000000BRMNDLACNOR4107
012020090902MNPR3       010MINUPAR     ON           R$  000000000055100000000005620000000000551000000000055400000000005530000000000553000000000056100010000000000000002100000000000001163700000000000000009999123100000010000000000000BRMNPRACNOR5122
012020090902MOAR3       010MONT ARANHA ON           R$  000000002079900000000207990000000020799000000002079900000000207990000000019400000000002049900001000000000000000100000000000002079900000000000000009999123100000010000000000000BRMOARACNOR5212
012020090902MOOO34      010ALTRIA GROUPDRN          R$  000000002325000000000232500000000022980000000002311000000000231110000000000000000000000000000003000000000000004070000000000094058000000000000000009999123100000010000000000000BRMOOOBDR007104
012020090902MOVI3       010MOVIDA      ON      NM   R$  000000000180000000000018420000000001755000000000179500000000017980000000001798000000000179911500000000000003375200000000006059365000000000000000009999123100000010000000000000BRMOVIACNOR0111
012020090902MRCK34      010MERCK       DRN          R$  000000004500000000000450000000000044922000000004492200000000449220000000044137000000000000000002000000000000005030000000000225960000000000000000009999123100000010000000000000BRMRCKBDR003139
012020090902MRFG3       010MARFRIG     ON      NM   R$  000000000164000000000016550000000001620000000000163000000000016270000000001627000000000163120325000000000006069700000000009898241500000000000000009999123100000010000000000000BRMRFGACNOR0109
012020090902MRVE3       010MRV         ON      NM   R$  000000000180400000000018370000000001793000000000181500000000018210000000001821000000000182809498000000000002504000000000004545697000000000000000009999123100000010000000000000BRMRVEACNOR2120
012020090902MSCD34      010MASTERCARD  DRN          R$  000000017867900000001807270000000178679000000018054000000001807270000000151600000000000000000002000000000000000550000000000099297450000000000000009999123100000010000000000000BRMSCDBDR006137
012020090902MSFT34      010MICROSOFT   DRN          R$  000000010982600000001130610000000109600000000011190500000001121830000000110000000000011218300040000000000000014850000000001661802500000000000000009999123100000010000000000000BRMSFTBDR005139
012020090902MTRE3       010MITRE REALTYON      NM   R$  000000000154200000000015640000000001520000000000154500000000015510000000001545000000000155102529000000000000509900000000000788031700000000000000009999123100000010000000000000BRMTREACNOR6100
012020090902MTSA4       010METISA      PN           R$  000000000249900000000025990000000002499000000000254200000000025800000000002460000000000258000020000000000000005400000000000013727600000000000000009999123100000010000000000000BRMTSAACNPR9056
012020090902MULT3       010MULTIPLAN   ON      N2   R$  000000000233300000000023400000000002270000000000229100000000022800000000002279000000000228016154000000000003686200000000008448287800000000000000009999123100000010000000000000BRMULTACNOR5127
012020090902MUTC34      010MICRON TECHNDRN          R$  000000002389800000000238980000000023749000000002387200000000237490000000000000000000000000000002000000000000011500000000000274529000000000000000009999123100000010000000000000BRMUTCBDR008100
012020090902MYPK3       010IOCHP-MAXIONON      NM   R$  000000000123600000000012610000000001196000000000122700000000012380000000001235000000000123810519000000000002756600000000003384827100000000000000009999123100000010000000000000BRMYPKACNOR7148
012020090902N1DA34      010NASDAQ INC  DRN          R$  000000003456000000000345600000000034560000000003456000000000345600000000000000000000003840000001000000000000000010000000000000345600000000000000009999123100000010000000000000BRN1DABDR002102
012020090902N1EM34      010NEWMONT GOLDDRN ED       R$  000000003570000000000362400000000035700000000003608700000000362400000000033000000000003650000003000000000000001020000000000036809400000000000000009999123100000010000000000000BRN1EMBDR005103
012020090902NEOE3       010NEOENERGIA  ON      NM   R$  000000000191700000000019390000000001896000000000191500000000019160000000001915000000000191608549000000000001997400000000003825255400000000000000009999123100000010000000000000BRNEOEACNOR3111
012020090902NETE34      010NETEASE     DRN          R$  000000024968000000002517000000000249680000000024970000000002517000000000000000000000000000000003000000000000000980000000000244706600000000000000009999123100000010000000000000BRNETEBDR006104
012020090902NEXT34      010NEXTERA ENERDRN          R$  000000003752300000000375230000000037523000000003752300000000375230000000000000000000000000000001000000000000004000000000000150092000000000000000009999123100000010000000000000BRNEXTBDR006105
012020090902NFLX34      010NETFLIX     DRN          R$  000000027500000000002750000000000261200000000026742300000002624000000000253400000000026918300017000000000000003130000000000837034670000000000000009999123100000010000000000000BRNFLXBDR000101
012020090902NIKE34      010NIKE        DRN ED       R$  000000006073800000000607380000000060738000000006073800000000607380000000000000000000006120000001000000000000003000000000000182214000000000000000009999123100000010000000000000BRNIKEBDR006139
012020090902NOCG34      010NORTHROP GRUDRN ED       R$  000000003567200000000356720000000035672000000003567200000000356720000000000000000000000000000001000000000000002000000000000071344000000000000000009999123100000010000000000000BRNOCGBDR006105
012020090902NOKI34      010NOKIA CORP  DRN          R$  000000000222200000000022220000000002210000000000221800000000022100000000000000000000000000000003000000000000000060000000000000133080000000000000009999123100000010000000000000BRNOKIBDR005100
012020090902NORD3       010NORDON MET  ON           R$  000000000052000000000005200000000000520000000000052000000000005200000000000465000000000052000001000000000000000100000000000000052000000000000000009999123100000010000000000000BRNORDACNOR7135
012020090902NTCO3       010GRUPO NATURAON      NM   R$  000000000491100000000051230000000004911000000000505400000000050720000000005072000000000509829099000000000005411400000000027351085900000000000000009999123100000010000000000000BRNTCOACNOR5101
012020090902NVDC34      010NVIDIA CORP DRN ED       R$  000000006530000000000699950000000065300000000006705800000000699950000000066800000000006999600068000000000000011810000000000791963880000000000000009999123100000010000000000000BRNVDCBDR008106
012020090902ODPV3       010ODONTOPREV  ON      NM   R$  000000000132500000000013270000000001307000000000131300000000013220000000001322000000000132305187000000000004967000000000006522335500000000000000009999123100000010000000000000BRODPVACNOR4178
012020090902OFSA3       010OUROFINO S/AON      NM   R$  000000000292600000000029490000000002895000000000292400000000029360000000002900000000000293800051000000000000007500000000000021934800000000000000009999123100000010000000000000BROFSAACNOR7109
012020090902OMGE3       010OMEGA GER   ON      NM   R$  000000000404500000000041420000000003991000000000405000000000040590000000004043000000000406007876000000000001737500000000007038001600000000000000009999123100000010000000000000BROMGEACNOR0101
012020090902ORCL34      010ORACLE      DRN          R$  000000003006600000000300660000000030066000000003006600000000300660000000000000000000000000000001000000000000009000000000000270594000000000000000009999123100000010000000000000BRORCLBDR007134
012020090902OXYP34      010OCCIDENT PTRDRN          R$  000000000293300000000029330000000002933000000000293300000000029330000000002850000000000318500001000000000000007000000000000020531000000000000000009999123100000010000000000000BROXYPBDR000105
012020090902P1DT34      010PRUDENTIAL FDRN          R$  000000001821900000000182190000000018219000000001821900000000182190000000015151000000000000000001000000000000000060000000000001093140000000000000009999123100000010000000000000BRP1DTBDR000103
012020090902P1SX34      010PHILLIPS 66 DRN          R$  000000001525100000000152510000000015251000000001525100000000152510000000000000000000000000000003000000000000000180000000000002745180000000000000009999123100000010000000000000BRP1SXBDR000103
012020090902PARD3       010IHPARDINI   ON      NM   R$  000000000245600000000024870000000002415000000000245600000000024610000000002461000000000246205844000000000001011100000000002483653000000000000000009999123100000010000000000000BRPARDACNOR1114
012020090902PATI3       010PANATLANTICAON           R$  000000000224000000000022400000000002110000000000219200000000021100000000002124000000000219000021000000000000002100000000000004605100000000000000009999123100000010000000000000BRPATIACNOR6060
012020090902PATI4       010PANATLANTICAPN           R$  000000000285000000000028500000000002751000000000278700000000027610000000002760000000000289500003000000000000000300000000000000836200000000000000009999123100000010000000000000BRPATIACNPR3060
012020090902PCAR3       010P.ACUCAR-CBDON      NM   R$  000000000628200000000063160000000006157000000000621100000000062150000000006194000000000621505612000000000001096700000000006812406500000000000000009999123100000010000000000000BRPCARACNOR3163
012020090902PDTC3       010PADTEC      ON           R$  000000000055500000000005640000000000520000000000053600000000005220000000000522000000000053000270000000000000110000000000000059059100000000000000009999123100000010000000000000BRPDTCACNOR3100
012020090902PEPB34      010PEPSICO INC DRN ED       R$  000000007246100000000724610000000072400000000007246000000000724000000000065100000000000000000002000000000000003010000000000218107000000000000000009999123100000010000000000000BRPEPBBDR005132
012020090902PETR3       010PETROBRAS   ON      N2   R$  000000000227600000000023080000000002270000000000229000000000023020000000002298000000000230236390000000000016878600000000038661533200000000000000009999123100000010000000000000BRPETRACNOR9191
012020090902PETR4       010PETROBRAS   PN      N2   R$  000000000224900000000022770000000002249000000000226300000000022730000000002273000000000227453510000000000042171500000000095471815500000000000000009999123100000010000000000000BRPETRACNPR6197
012020090902PFIZ34      010PFIZER      DRN          R$  000000001933000000000193300000000019258000000001928400000000192850000000019202000000001928500010000000000000009150000000000176456880000000000000009999123100000010000000000000BRPFIZBDR006140
012020090902PFRM3       010PROFARMA    ON      NM   R$  000000000052000000000005200000000000493000000000050200000000005010000000000500000000000050102335000000000000829400000000000416980100000000000000009999123100000010000000000000BRPFRMACNOR1112
012020090902PGCO34      010PG          DRN          R$  000000007303200000000735690000000073032000000007303200000000735690000000000000000000007356900002000000000000006010000000000438927690000000000000009999123100000010000000000000BRPGCOBDR001139
012020090902PGMN3       010PAGUE MENOS ON      NM   R$  000000000103500000000010440000000001019000000000102800000000010290000000001025000000000102902259000000000001223400000000001257845800000000000000009999123100000010000000000000BRPGMNACNOR8100
012020090902PHGN34      010KOPHILIPS   DRN          R$  000000002523700000000252370000000025237000000002523700000000252370000000000000000000000000000001000000000000002000000000000050474000000000000000009999123100000010000000000000BRPHGNBDR002102
012020090902PHMO34      010PHILIP MORRIDRN          R$  000000002125300000000214510000000021150000000002117600000000214510000000000000000000000000000004000000000000006070000000000128540540000000000000009999123100000010000000000000BRPHMOBDR008113
012020090902PINE4       010PINE        PN      N2   R$  000000000028400000000002840000000000275000000000027800000000002770000000000276000000000027700211000000000000135000000000000037549600000000000000009999123100000010000000000000BRPINEACNPR8144
012020090902PLAS3       010PLASCAR PARTON           R$  000000000045700000000004570000000000432000000000044500000000004430000000000443000000000044900004000000000000000400000000000000178100000000000000009999123100000010000000000000BRPLASACNOR2106
012020090902PMAM3       010PARANAPANEMAON      NM   R$  000000000120000000000012270000000001159000000000118600000000011590000000001158000000000115900273000000000000073900000000000087697300000000000000009999123100000010000000000000BRPMAMACNOR3037
012020090902PNCS34      010PNCFNANCIAL DRN          R$  000000002917900000000291790000000029179000000002917900000000291790000000000000000000000000000001000000000000002000000000000058358000000000000000009999123100000010000000000000BRPNCSBDR008105
012020090902PNVL3       010DIMED       ON           R$  000000000268000000000027430000000002610000000000265800000000026550000000002655000000000265803664000000000000659800000000001754233100000000000000009999123100000010000000000000BRPNVLACNOR9196
012020090902PNVL4       010DIMED       PN           R$  000000000221800000000022870000000002216000000000227300000000022800000000002264000000000228000567000000000000101200000000000230031900000000000000009999123100000010000000000000BRPNVLACNPR6196
012020090902POMO3       010MARCOPOLO   ON      N2   R$  000000000028000000000002820000000000276000000000028000000000002790000000000279000000000028000369000000000000132700000000000037164500000000000000009999123100000010000000000000BRPOMOACNOR0087
012020090902POMO4       010MARCOPOLO   PN      N2   R$  000000000030300000000003040000000000294000000000029800000000002990000000000299000000000030003020000000000007404100000000002212829200000000000000009999123100000010000000000000BRPOMOACNPR7087
012020090902POSI3       010POSITIVO TECON      NM   R$  000000000048300000000004850000000000475000000000047800000000004780000000000477000000000047801756000000000000929900000000000445174600000000000000009999123100000010000000000000BRPOSIACNOR9112
012020090902PPLA11      010PPLA        UNT          R$  000000000150100000000015160000000001501000000000151100000000015160000000001516000000000154700007000000000000000700000000000001057900000000000000009999123100000010000000000000BRPPLAUNT007101
012020090902PRIO3       010PETRORIO    ON      NM   R$  000000000422700000000042630000000004124000000000416600000000041310000000004130000000000413712294000000000003234400000000013476434600000000000000009999123100000010000000000000BRPRIOACNOR1102
012020090902PRNR3       010PRINER      ON      NM   R$  000000000098400000000009890000000000957000000000096800000000009650000000000965000000000097000428000000000000149400000000000144766300000000000000009999123100000010000000000000BRPRNRACNOR4105
012020090902PSSA3       010PORTO SEGUROON      NM   R$  000000000526200000000052870000000005196000000000524900000000052750000000005272000000000527906043000000000000802600000000004213356100000000000000009999123100000010000000000000BRPSSAACNOR7142
012020090902PTBL3       010PORTOBELLO  ON      NM   R$  000000000052500000000005390000000000513000000000052700000000005380000000000536000000000053803346000000000002643600000000001394728800000000000000009999123100000010000000000000BRPTBLACNOR8125
012020090902PTNT3       010PETTENATI   ON           R$  000000000061000000000006100000000000588000000000059800000000005880000000000587000000000059700017000000000000003800000000000002274000000000000000009999123100000010000000000000BRPTNTACNOR6039
012020090902PTNT4       010PETTENATI   PN           R$  000000000049300000000004930000000000474000000000048600000000004920000000000480000000000049300027000000000000005100000000000002481200000000000000009999123100000010000000000000BRPTNTACNPR3044
012020090902PYPL34      010PAYPAL HOLD DRN          R$  000000005135300000000513530000000051114000000005135200000000513000000000048800000000005900000004000000000000004040000000000207462140000000000000009999123100000010000000000000BRPYPLBDR002101
012020090902Q1RV34      010QORVO INC   DRN          R$  000000003260400000000326040000000032604000000003260400000000326040000000000000000000000000000001000000000000000120000000000003912480000000000000009999123100000010000000000000BRQ1RVBDR005100
