00COTAHIST.2020BOVESPA 20200924                                                                                                                                                                                                                      
012020092402A1BM34      010ABIOMED INC DRN          R$  000000003651200000000365120000000036500000000003650100000000365000000000000000000000000000000002000000000000000070000000000002555120000000000000009999123100000010000000000000BRA1BMBDR006100
012020092402A1MB34      010AMERISOURCEBDRN          R$  000000002627900000000262790000000026279000000002627900000000262790000000000000000000000000000001000000000000000050000000000001313950000000000000009999123100000010000000000000BRA1MBBDR006103
012020092402A1MD34      010ADVANCED MICDRN          R$  000000004287100000000428710000000042366000000004279800000000423660000000000000000000005250000003000000000000000120000000000005135840000000000000009999123100000010000000000000BRA1MDBDR002100
012020092402A1PA34      010APACHE CORP DRN          R$  000000000613100000000061310000000006131000000000613100000000061310000000000000000000000000000001000000000000000400000000000002452400000000000000009999123100000010000000000000BRA1PABDR001103
012020092402AALL34      010AMERICAN AIRDRN          R$  000000000642500000000065530000000006425000000000643600000000065530000000005333000000000850000002000000000000000110000000000000708030000000000000009999123100000010000000000000BRAALLBDR003115
012020092402AALR3       010ALLIAR      ON      NM   R$  000000000106800000000010900000000001051000000000107100000000010680000000001067000000000106801963000000000000528000000000000565558800000000000000009999123100000010000000000000BRAALRACNOR6102
012020092402AAPL34      010APPLE       DRN          R$  000000000610000000000061150000000005867000000000601000000000060060000000005971000000000600600277000000000000169600000000001019436670000000000000009999123100000010000000000000BRAAPLBDR004135
012020092402ABBV34      010ABBVIE      DRN          R$  000000004739900000000474000000000047399000000004739900000000474000000000000000000000000000000002000000000000000300000000000014219800000000000000009999123100000010000000000000BRABBVBDR001118
012020092402ABCB4       010ABC BRASIL  PN      N2   R$  000000000123600000000012660000000001226000000000124100000000012430000000001242000000000124302868000000000000818000000000001015602200000000000000009999123100000010000000000000BRABCBACNPR4134
012020092402ABEV3       010AMBEV S/A   ON           R$  000000000125000000000012830000000001236000000000126400000000012670000000001267000000000127036016000000000030902200000000039082512000000000000000009999123100000010000000000000BRABEVACNOR1122
012020092402ADBE34      010ADOBE INC   DRN          R$  000000005191900000000519190000000051919000000005191900000000519190000000000000000000005320000001000000000000000400000000000020767600000000000000009999123100000010000000000000BRADBEBDR003100
012020092402ADHM3       010ADVANCED-DH ON           R$  000000000020100000000002070000000000200000000000020100000000002010000000000202000000000020800009000000000000002000000000000000403000000000000000009999123100000010000000000000BRADHMACNOR9102
012020092402AFLT3       010AFLUENTE T  ON  ED       R$  000000000099000000000009920000000000966000000000097900000000009920000000000982000000000099300026000000000000006800000000000006661400000000000000009999123100000010000000000000BRAFLTACNOR1116
012020092402AGRO3       010BRASILAGRO  ON      NM   R$  000000000224400000000022560000000002173000000000219900000000021920000000002192000000000219500991000000000000208000000000000457477700000000000000009999123100000010000000000000BRAGROACNOR7109
012020092402AHEB3       010SPTURIS     ON           R$  000000000250000000000025000000000002500000000000250000000000025000000000002410000000000250000001000000000000000100000000000000250000000000000000009999123100000010000000000000BRAHEBACNOR0106
012020092402ALPA3       010ALPARGATAS  ON      N1   R$  000000000315200000000032400000000003152000000000319000000000032130000000003180000000000324000013000000000000002700000000000008614200000000000000009999123100000010000000000000BRALPAACNOR0229
012020092402ALPA4       010ALPARGATAS  PN      N1   R$  000000000355800000000037180000000003507000000000366900000000036820000000003663000000000368212497000000000002079900000000007632705400000000000000009999123100000010000000000000BRALPAACNPR7229
012020092402ALPK3       010ESTAPAR     ON      NM   R$  000000000092400000000009240000000000913000000000092000000000009210000000000921000000000092300033000000000000012500000000000011506800000000000000009999123100000010000000000000BRALPKACNOR9100
012020092402ALSO3       010ALIANSCSONAEON      NM   R$  000000000253000000000025760000000002501000000000253600000000025240000000002523000000000252704761000000000000939900000000002383684800000000000000009999123100000010000000000000BRALSOACNOR5100
012020092402ALUP3       010ALUPAR      ON      N2   R$  000000000097400000000010050000000000974000000000099200000000010040000000000963000000000100400050000000000000005500000000000005461000000000000000009999123100000010000000000000BRALUPACNOR8111
012020092402ALUP4       010ALUPAR      PN      N2   R$  000000000071200000000007150000000000705000000000071000000000007080000000000701000000000071500069000000000000014200000000000010082400000000000000009999123100000010000000000000BRALUPACNPR5111
012020092402ALUP11      010ALUPAR      UNT     N2   R$  000000000238900000000024330000000002386000000000241700000000024180000000002417000000000242002852000000000000673000000000001626713800000000000000009999123100000010000000000000BRALUPCDAM15111
012020092402AMAR3       010LOJAS MARISAON      NM   R$  000000000074400000000007460000000000713000000000073000000000007370000000000737000000000073814866000000000005974600000000004365626900000000000000009999123100000010000000000000BRAMARACNOR4112
012020092402AMBP3       010AMBIPAR     ON      NM   R$  000000000303900000000030460000000002938000000000300700000000030250000000003023000000000302501287000000000000165200000000000496917100000000000000009999123100000010000000000000BRAMBPACNOR6100
012020092402AMZO34      010AMAZON      DRN          R$  000000082800000000008490000000000827401000000083564500000008335000000000819500000000088500000013000000000000000160000000000133703200000000000000009999123100000010000000000000BRAMZOBDR002101
012020092402ANIM3       010ANIMA       ON      NM   R$  000000000277500000000028690000000002764000000000282100000000028360000000002833000000000283702571000000000000376500000000001062176500000000000000009999123100000010000000000000BRANIMACNOR6106
012020092402APER3       010ALPER S.A.  ON      NM   R$  000000000305000000000030500000000002890000000000295600000000029000000000002896000000000290000175000000000000032000000000000094609900000000000000009999123100000010000000000000BRAPERACNOR9102
012020092402ARMT34      010ARCELOR     DRN          R$  000000000339700000000033970000000003397000000000339700000000033970000000002764000000000000000001000000000000000010000000000000033970000000000000009999123100000010000000000000BRARMTBDR008117
012020092402ARZZ3       010AREZZO CO   ON      NM   R$  000000000536800000000054690000000005320000000000540100000000053900000000005389000000000539003284000000000000462700000000002499054000000000000000009999123100000010000000000000BRARZZACNOR3137
012020092402ATOM3       010ATOMPAR     ON           R$  000000000028600000000003100000000000286000000000029900000000003010000000000300000000000030100426000000000000186400000000000055915800000000000000009999123100000010000000000000BRATOMACNOR1103
012020092402ATTB34      010ATT INC     DRN          R$  000000001566200000000156620000000015482000000001563200000000154820000000014333000000001548200004000000000000002400000000000037518140000000000000009999123100000010000000000000BRATTBBDR007132
012020092402AURA32      010AURA 360    DR2          R$  000000000620000000000062000000000006024000000000610000000000060600000000006031000000000609000136000000000000020400000000000124448000000000000000009999123100000010000000000000BRAURABDR001102
012020092402AXPB34      010AMERICAN EXPDRN          R$  000000005311900000000531190000000052784000000005295100000000527840000000047700000000000000000002000000000000000020000000000001059030000000000000009999123100000010000000000000BRAXPBBDR007133
012020092402AZEV3       010AZEVEDO     ON           R$  000000000097900000000010100000000000975000000000100000000000009800000000000976000000000100000012000000000000004600000000000004602900000000000000009999123100000010000000000000BRAZEVACNOR0117
012020092402AZEV4       010AZEVEDO     PN           R$  000000000032000000000003310000000000320000000000032300000000003200000000000320000000000032100020000000000000004000000000000001294400000000000000009999123100000010000000000000BRAZEVACNPR7117
012020092402AZUL4       010AZUL        PN      N2   R$  000000000267600000000027390000000002592000000000268000000000026850000000002685000000000268626974000000000013132200000000035200542000000000000000009999123100000010000000000000BRAZULACNPR4100
012020092402B3SA3       010B3          ON      NM   R$  000000000557200000000059200000000005566000000000584300000000058970000000005896000000000589759076000000000017040300000000099569576300000000000000009999123100000010000000000000BRB3SAACNOR6111
012020092402BABA34      010ALIBABAGR   DRN          R$  000000015038300000001505880000000148050000000014963000000001480500000000148000000000015380000015000000000000000500000000000074815210000000000000009999123100000010000000000000BRBABABDR005100
012020092402BAHI3       010BAHEMA      ON      MA   R$  000000001079100000000112000000000010750000000001085900000000107560000000010755000000001175000038000000000000004700000000000051038200000000000000009999123100000010000000000000BRBAHIACNOR1071
012020092402BALM3       010BAUMER      ON           R$  000000000159000000000015900000000001590000000000159000000000015900000000001540000000000160000001000000000000000100000000000000159000000000000000009999123100000010000000000000BRBALMACNOR5050
012020092402BALM4       010BAUMER      PN           R$  000000000140000000000014500000000001400000000000144900000000014500000000001300000000000145000018000000000000005100000000000007390000000000000000009999123100000010000000000000BRBALMACNPR2051
012020092402BAUH4       010EXCELSIOR   PN           R$  000000000869700000000086970000000008697000000000869700000000086970000000008112000000000878000003000000000000000300000000000002609100000000000000009999123100000010000000000000BRBAUHACNPR3115
012020092402BAZA3       010AMAZONIA    ON           R$  000000000392500000000039290000000003925000000000392500000000039290000000003925000000000392700005000000000000000500000000000001962900000000000000009999123100000010000000000000BRBAZAACNOR0174
012020092402BBAS3       010BRASIL      ON      NM   R$  000000000301800000000030900000000002991000000000305200000000030420000000003041000000000304234257000000000015943300000000048674740200000000000000009999123100000010000000000000BRBBASACNOR3293
012020092402BBDC3       010BRADESCO    ON      N1   R$  000000000181500000000018690000000001809000000000184700000000018430000000001843000000000184512273000000000004713300000000008709939700000000000000009999123100000010000000000000BRBBDCACNOR1715
012020092402BBDC4       010BRADESCO    PN      N1   R$  000000000194400000000019970000000001939000000000197800000000019800000000001980000000000198152506000000000034170000000000067621890300000000000000009999123100000010000000000000BRBBDCACNPR8715
012020092402BBRK3       010BR BROKERS  ON      NM   R$  000000000016100000000001760000000000157000000000017100000000001690000000000169000000000017100987000000000001179400000000000202016000000000000000009999123100000010000000000000BRBBRKACNOR4113
012020092402BBSE3       010BBSEGURIDADEON      NM   R$  000000000248500000000025590000000002470000000000252900000000025270000000002525000000000252724908000000000004716700000000011932687300000000000000009999123100000010000000000000BRBBSEACNOR5117
012020092402BCSA34      010SANTANDER   DRN          R$  000000000100700000000010180000000001000000000000101400000000010000000000001000000000000108000028000000000000007330000000000007437990000000000000009999123100000010000000000000BRBCSABDR005101
012020092402BEEF3       010MINERVA     ON      NM   R$  000000000123000000000012460000000001197000000000122200000000012140000000001214000000000121714129000000000006622500000000008093288300000000000000009999123100000010000000000000BRBEEFACNOR6108
012020092402BEES3       010BANESTES    ON           R$  000000000050200000000005050000000000500000000000050200000000005000000000000500000000000050200099000000000000025000000000000012551200000000000000009999123100000010000000000000BRBEESACNOR9339
012020092402BEES4       010BANESTES    PN           R$  000000000051600000000005500000000000516000000000053400000000005160000000000516000000000052600030000000000000004000000000000002136000000000000000009999123100000010000000000000BRBEESACNPR6264
012020092402BERK34      010BERKSHIRE   DRN          R$  000000011663400000001166350000000114700000000011529600000001152760000000112000000000011527600027000000000000001720000000000198310560000000000000009999123100000010000000000000BRBERKBDR002100
012020092402BIDI3       010BANCO INTER ON      N2   R$  000000000168000000000017660000000001643000000000171900000000017210000000001721000000000172702364000000000000385500000000000662743700000000000000009999123100000010000000000000BRBIDIACNOR3107
012020092402BIDI4       010BANCO INTER PN      N2   R$  000000000175800000000018360000000001727000000000179500000000018140000000001813000000000181404943000000000001585300000000002846350200000000000000009999123100000010000000000000BRBIDIACNPR0111
012020092402BIDI11      010BANCO INTER UNT     N2   R$  000000000523400000000054440000000005116000000000531700000000053500000000005348000000000535006500000000000000982300000000005222951000000000000000009999123100000010000000000000BRBIDICDAXX3106
012020092402BIOM3       010BIOMM       ON      MA   R$  000000000165200000000016700000000001633000000000165300000000016550000000001631000000000166000072000000000000013000000000000021499500000000000000009999123100000010000000000000BRBIOMACNOR2107
012020092402BKBR3       010BK BRASIL   ON      NM   R$  000000000109200000000011320000000001081000000000111500000000011060000000001105000000000110606585000000000001697800000000001894262700000000000000009999123100000010000000000000BRBKBRACNOR4103
012020092402BKNG34      010BOOKING     DRN          R$  000000003623400000000370470000000036234000000003625700000000362430000000036234000000004010300004000000000000001030000000000037344770000000000000009999123100000010000000000000BRBKNGBDR006100
012020092402BLAK34      010BLACKROCK   DRN          R$  000000005080000000000508000000000050800000000005080000000000508000000000000000000000000000000003000000000000000030000000000001524000000000000000009999123100000010000000000000BRBLAKBDR003118
012020092402BMEB3       010MERC BRASIL ON           R$  000000000199000000000019900000000001990000000000199000000000019900000000001600000000000199000001000000000000000300000000000000597000000000000000009999123100000010000000000000BRBMEBACNOR8196
012020092402BMEB4       010MERC BRASIL PN           R$  000000000189700000000020290000000001897000000000196600000000019000000000001900000000000196400096000000000000047400000000000093215600000000000000009999123100000010000000000000BRBMEBACNPR5201
012020092402BMGB4       010BANCO BMG   PN      N1   R$  000000000048500000000005030000000000480000000000049100000000005030000000000495000000000050303297000000000001185900000000000582838100000000000000009999123100000010000000000000BRBMGBACNPR0101
012020092402BMIN3       010MERC INVEST ON           R$  000000000200000000000020000000000002000000000000200000000000020000000000001980000000000210000002000000000000000200000000000000400000000000000000009999123100000010000000000000BRBMINACNOR4168
012020092402BMIN4       010MERC INVEST PN           R$  000000000192000000000019200000000001800000000000183100000000018750000000001851000000000190000014000000000000002500000000000004579400000000000000009999123100000010000000000000BRBMINACNPR1171
012020092402BMKS3       010BIC MONARK  ON           R$  000000002353000000000235300000000021600000000002268700000000233880000000022500000000002338800009000000000000000136000000000003085518000000000000009999123100000010000000000000BRBMKSACNOR9162
012020092402BMYB34      010BRISTOLMYERSDRN          R$  000000003210100000000321010000000032101000000003210100000000321010000000028400000000000000000001000000000000000300000000000009630300000000000000009999123100000010000000000000BRBMYBBDR000127
012020092402BOAC34      010BANK AMERICADRN          R$  000000001302200000000130220000000012888000000001301100000000129170000000012400000000001291700007000000000000004530000000000058940990000000000000009999123100000010000000000000BRBOACBDR004140
012020092402BOBR4       010BOMBRIL     PN           R$  000000000019500000000001980000000000195000000000019600000000001960000000000196000000000019800067000000000000014200000000000002792900000000000000009999123100000010000000000000BRBOBRACNPR3128
012020092402BOEI34      010BOEING      DRN          R$  000000008150000000000815100000000080800000000008140700000000808000000000000000000000010850000003000000000000000070000000000005698500000000000000009999123100000010000000000000BRBOEIBDR003132
012020092402BONY34      010BNY MELLON  DRN          R$  000000001827800000000182780000000018278000000001827800000000182780000000000000000000000000000001000000000000000010000000000000182780000000000000009999123100000010000000000000BRBONYBDR001120
012020092402BPAC3       010BTGP BANCO  ON      N2   R$  000000000409900000000040990000000003961000000000400600000000039760000000003976000000000402900191000000000000034500000000000138207600000000000000009999123100000010000000000000BRBPACACNOR7122
012020092402BPAC5       010BTGP BANCO  PNA     N2   R$  000000000168000000000017080000000001651000000000167600000000016600000000001660000000000168000170000000000000044700000000000074955500000000000000009999123100000010000000000000BRBPACACNPA0122
012020092402BPAC11      010BTGP BANCO  UNT     N2   R$  000000000734400000000074790000000007263000000000740300000000074070000000007407000000000742015494000000000003925000000000029057664300000000000000009999123100000010000000000000BRBPACUNT006107
012020092402BPAN4       010BANCO PAN   PN      N1   R$  000000000080100000000008320000000000784000000000081000000000008210000000000820000000000082106334000000000003110800000000002522253700000000000000009999123100000010000000000000BRBPANACNPR1109
012020092402BRAP3       010BRADESPAR   ON      N1   R$  000000000391100000000039680000000003859000000000392400000000039040000000003904000000000397500056000000000000012000000000000047098300000000000000009999123100000010000000000000BRBRAPACNOR5136
012020092402BRAP4       010BRADESPAR   PN      N1   R$  000000000449400000000045880000000004458000000000453200000000045180000000004518000000000452416147000000000003123900000000014158644300000000000000009999123100000010000000000000BRBRAPACNPR2136
012020092402BRDT3       010PETROBRAS BRON      NM   R$  000000000209500000000021400000000002081000000000210900000000021090000000002109000000000211015289000000000005244700000000011066086100000000000000009999123100000010000000000000BRBRDTACNOR1120
012020092402BRFS3       010BRF SA      ON      NM   R$  000000000198700000000020120000000001945000000000198200000000019820000000001982000000000198319605000000000006112100000000012118330600000000000000009999123100000010000000000000BRBRFSACNOR8119
012020092402BRGE8       010ALFA CONSORCPND          R$  000000000085000000000008500000000000850000000000085000000000008500000000000700000000000089000001000000000000000100000000000000085000000000000000009999123100000010000000000000BRBRGEACNPD3214
012020092402BRIV3       010ALFA INVEST ON           R$  000000000085000000000008500000000000850000000000085000000000008500000000000800000000000087000002000000000000000300000000000000255000000000000000009999123100000010000000000000BRBRIVACNOR6205
012020092402BRIV4       010ALFA INVEST PN           R$  000000000081700000000008800000000000817000000000085000000000008800000000000830000000000087800016000000000000007900000000000006720400000000000000009999123100000010000000000000BRBRIVACNPR3211
012020092402BRKM3       010BRASKEM     ON      N1   R$  000000000208900000000021160000000002062000000000208600000000020730000000002065000000000207300059000000000000014200000000000029624900000000000000009999123100000010000000000000BRBRKMACNOR1117
012020092402BRKM5       010BRASKEM     PNA     N1   R$  000000000213600000000021460000000002088000000000211800000000021020000000002101000000000210207910000000000001908300000000004042700700000000000000009999123100000010000000000000BRBRKMACNPA4117
012020092402BRML3       010BR MALLS PARON      NM   R$  000000000088200000000009020000000000869000000000088700000000008820000000000882000000000088430035000000000013212500000000011726602100000000000000009999123100000010000000000000BRBRMLACNOR9115
012020092402BRPR3       010BR PROPERT  ON      NM   R$  000000000091200000000009310000000000902000000000092000000000009250000000000922000000000092508117000000000002066600000000001902462200000000000000009999123100000010000000000000BRBRPRACNOR9119
012020092402BRSR3       010BANRISUL    ON      N1   R$  000000000138000000000014150000000001300000000000136200000000014030000000001386000000000140300056000000000000010800000000000014718600000000000000009999123100000010000000000000BRBRSRACNOR3168
012020092402BRSR6       010BANRISUL    PNB     N1   R$  000000000119900000000012400000000001190000000000122000000000012260000000001225000000000122607578000000000002707000000000003303273400000000000000009999123100000010000000000000BRBRSRACNPB4171
012020092402BSEV3       010BIOSEV      ON      NM   R$  000000000042500000000004340000000000425000000000042900000000004300000000000430000000000043500234000000000000086900000000000037292600000000000000009999123100000010000000000000BRBSEVACNOR3102
012020092402BTOW3       010B2W DIGITAL ON      NM   R$  000000000914500000000096700000000009101000000000948000000000095150000000009515000000000952616956000000000003832500000000036334218000000000000000009999123100000010000000000000BRBTOWACNOR8111
012020092402BTTL3       010BATTISTELLA ON           R$  000000000116400000000011980000000001164000000000116700000000011980000000001165000000000118000017000000000000004800000000000005602600000000000000009999123100000010000000000000BRBTTLACNOR0108
012020092402C1CI34      010CROWN CASTLEDRN          R$  000000002189900000000218990000000021899000000002189900000000218990000000000000000000000000000001000000000000000320000000000007007680000000000000009999123100000010000000000000BRC1CIBDR000103
012020092402C1HR34      010CH ROBINSON DRN          R$  000000002834700000000283470000000028347000000002834700000000283470000000000000000000000000000001000000000000000030000000000000850410000000000000009999123100000010000000000000BRC1HRBDR000103
012020092402CAMB3       010CAMBUCI     ON           R$  000000000039700000000004250000000000390000000000040300000000004080000000000400000000000040900085000000000000048900000000000019707800000000000000009999123100000010000000000000BRCAMBACNOR4119
012020092402CAML3       010CAMIL       ON      NM   R$  000000000131200000000013210000000001271000000000130400000000013060000000001306000000000130707523000000000002058700000000002686336000000000000000009999123100000010000000000000BRCAMLACNOR3111
012020092402CARD3       010CSU CARDSYSTON      NM   R$  000000000137200000000014800000000001372000000000142700000000014500000000001415000000000145001115000000000000278800000000000398113100000000000000009999123100000010000000000000BRCARDACNOR9118
012020092402CCPR3       010CYRE COM-CCPON      NM   R$  000000000135500000000013760000000001337000000000135200000000013550000000001350000000000135501680000000000000277900000000000375820900000000000000009999123100000010000000000000BRCCPRACNOR9114
012020092402CCRO3       010CCR SA      ON      NM   R$  000000000136900000000014050000000001361000000000138500000000013790000000001378000000000137921083000000000006399400000000008863759300000000000000009999123100000010000000000000BRCCROACNOR2137
012020092402CEAB3       010CEA MODAS   ON      NM   R$  000000000120300000000012150000000001187000000000120000000000011930000000001193000000000119406002000000000001588600000000001907452700000000000000009999123100000010000000000000BRCEABACNOR1101
012020092402CEBR3       010CEB         ON           R$  000000000699800000000069980000000006900000000000695800000000069000000000006610000000000670000005000000000000000700000000000004871200000000000000009999123100000010000000000000BRCEBRACNOR5118
012020092402CEBR5       010CEB         PNA          R$  000000000950000000000096890000000008600000000000913300000000087950000000008500000000000879600018000000000000001800000000000016440300000000000000009999123100000010000000000000BRCEBRACNPA8117
012020092402CEBR6       010CEB         PNB          R$  000000000759700000000075970000000007597000000000759700000000075970000000007010000000000750000001000000000000000100000000000000759700000000000000009999123100000010000000000000BRCEBRACNPB6117
012020092402CEDO3       010CEDRO       ON      N1   R$  000000000086500000000008700000000000865000000000086700000000008700000000000865000000000093000002000000000000000200000000000000173500000000000000009999123100000010000000000000BRCEDOACNOR8096
012020092402CEDO4       010CEDRO       PN      N1   R$  000000000052100000000005400000000000521000000000053900000000005400000000000516000000000055000006000000000000003100000000000001672100000000000000009999123100000010000000000000BRCEDOACNPR5128
012020092402CEPE5       010CELPE       PNA          R$  000000000262100000000026210000000002621000000000262100000000026210000000002623000000000270000001000000000000000100000000000000262100000000000000009999123100000010000000000000BRCEPEACNPA6163
012020092402CESP3       010CESP        ON      N1   R$  000000000326300000000032990000000003263000000000328000000000032890000000003247000000000329000010000000000000001100000000000003609000000000000000009999123100000010000000000000BRCESPACNOR3169
012020092402CESP6       010CESP        PNB     N1   R$  000000000285300000000029230000000002853000000000289500000000028980000000002898000000000290505020000000000001081900000000003133013900000000000000009999123100000010000000000000BRCESPACNPB4128
012020092402CGAS5       010COMGAS      PNA          R$  000000001801400000000180140000000017690000000001778400000000177220000000017611000000001775000018000000000000001900000000000033791200000000000000009999123100000010000000000000BRCGASACNPA3148
012020092402CGRA3       010GRAZZIOTIN  ON           R$  000000000268100000000027870000000002681000000000272500000000027870000000002650000000000278700005000000000000001200000000000003270200000000000000009999123100000010000000000000BRCGRAACNOR2071
012020092402CGRA4       010GRAZZIOTIN  PN           R$  000000000261000000000026390000000002600000000000261100000000026390000000002639000000000264700031000000000000006000000000000015668500000000000000009999123100000010000000000000BRCGRAACNPR9071
012020092402CHVX34      010CHEVRON     DRN          R$  000000001982400000000198240000000019824000000001982400000000198240000000000000000000001982400001000000000000000190000000000003766560000000000000009999123100000010000000000000BRCHVXBDR008138
012020092402CIEL3       010CIELO       ON      NM   R$  000000000041400000000004290000000000409000000000041800000000004170000000000416000000000041716027000000000031842100000000013313657300000000000000009999123100000010000000000000BRCIELACNOR3142
012020092402CLSC4       010CELESC      PN      N2   R$  000000000535000000000053500000000005301000000000531900000000053010000000005301000000000532000015000000000000003000000000000015958200000000000000009999123100000010000000000000BRCLSCACNPR3115
012020092402CMCS34      010COMCAST     DRN          R$  000000002550000000000255000000000025203000000002533300000000253080000000022000000000002530800005000000000000003840000000000097279240000000000000009999123100000010000000000000BRCMCSBDR008135
012020092402CMIG3       010CEMIG       ON      N1   R$  000000000108500000000011330000000001083000000000111400000000011210000000001121000000000112302768000000000000778400000000000867408200000000000000009999123100000010000000000000BRCMIGACNOR6224
012020092402CMIG4       010CEMIG       PN      N1   R$  000000000104300000000010890000000001035000000000107300000000010780000000001077000000000107824645000000000012048300000000012937366300000000000000009999123100000010000000000000BRCMIGACNPR3225
012020092402CNTO3       010CENTAURO    ON      NM   R$  000000000263000000000026500000000002562000000000261000000000026110000000002608000000000261114892000000000003887300000000010148318300000000000000009999123100000010000000000000BRCNTOACNOR5100
012020092402COCA34      010COCA COLA   DRN          R$  000000002678900000000270000000000026789000000002679200000000269000000000022900000000002760000004000000000000002340000000000062693680000000000000009999123100000010000000000000BRCOCABDR002136
012020092402COCE5       010COELCE      PNA          R$  000000000580000000000058980000000005761000000000581200000000058500000000005837000000000589900193000000000000030000000000000174377700000000000000009999123100000010000000000000BRCOCEACNPA3140
012020092402COGN3       010COGNA ON    ON      NM   R$  000000000055000000000005710000000000544000000000055700000000005500000000000550000000000055133015000000000050290900000000028054615200000000000000009999123100000010000000000000BRCOGNACNOR2101
012020092402COTY34      010COTY INC    DRN          R$  000000000080100000000008010000000000753000000000077600000000007830000000000760000000000087300015000000000000009160000000000007114930000000000000009999123100000010000000000000BRCOTYBDR006116
012020092402COWC34      010COSTCO      DRN          R$  000000004766900000000476690000000047669000000004766900000000476690000000045269000000000000000001000000000000000900000000000042902100000000000000009999123100000010000000000000BRCOWCBDR006119
012020092402CPFE3       010CPFL ENERGIAON      NM   R$  000000000286000000000028800000000002827000000000285300000000028630000000002863000000000286507421000000000001643000000000004688889400000000000000009999123100000010000000000000BRCPFEACNOR0130
012020092402CPLE3       010COPEL       ON      N1   R$  000000000611600000000062530000000006032000000000609100000000061620000000006155000000000616204447000000000001515500000000009231849500000000000000009999123100000010000000000000BRCPLEACNOR8139
012020092402CPLE6       010COPEL       PNB     N1   R$  000000000635000000000066790000000006340000000000655100000000065490000000006548000000000654911033000000000002354400000000015424437800000000000000009999123100000010000000000000BRCPLEACNPB9136
012020092402CRDE3       010CR2         ON           R$  000000000223000000000022300000000002200000000000222100000000022000000000002150000000000220000003000000000000001100000000000002444000000000000000009999123100000010000000000000BRCRDEACNOR1112
012020092402CRFB3       010CARREFOUR BRON      NM   R$  000000000205900000000021300000000002046000000000210300000000021070000000002098000000000210716897000000000005326000000000011203846800000000000000009999123100000010000000000000BRCRFBACNOR2107
012020092402CRIP34      010CTRIPCOM    DRN          R$  000000001542800000000154380000000015428000000001542800000000154380000000000000000000000000000004000000000000000410000000000006325580000000000000009999123100000010000000000000BRCRIPBDR000100
012020092402CRIV4       010ALFA FINANC PN           R$  000000000067900000000006790000000000667000000000067600000000006670000000000624000000000066700004000000000000000400000000000000270400000000000000009999123100000010000000000000BRCRIVACNPR1204
012020092402CRPG3       010CRISTAL     ON           R$  000000000255000000000025500000000002400000000000247500000000024000000000002200000000000250000002000000000000000200000000000000495000000000000000009999123100000010000000000000BRCRPGACNOR0108
012020092402CRPG5       010CRISTAL     PNA          R$  000000000205900000000020590000000001950000000000200900000000019500000000001900000000000200000015000000000000004500000000000009043800000000000000009999123100000010000000000000BRCRPGACNPA3108
012020092402CRPG6       010CRISTAL     PNB          R$  000000000199900000000020200000000001999000000000200600000000020000000000001901000000000199900003000000000000000300000000000000601900000000000000009999123100000010000000000000BRCRPGACNPB1108
012020092402CSAN3       010COSAN       ON      NM   R$  000000000689000000000070530000000006833000000000695000000000069490000000006949000000000695608636000000000001882600000000013084127500000000000000009999123100000010000000000000BRCSANACNOR6120
012020092402CSCO34      010CISCO       DRN          R$  000000002102800000000210280000000021028000000002102800000000210280000000020100000000002140000001000000000000000800000000000016822400000000000000009999123100000010000000000000BRCSCOBDR004138
012020092402CSMG3       010COPASA      ON  EJ  NM   R$  000000000485900000000049810000000004831000000000489900000000048820000000004882000000000488304731000000000000709400000000003475507400000000000000009999123100000010000000000000BRCSMGACNOR5157
012020092402CSNA3       010SID NACIONALON           R$  000000000161300000000016220000000001566000000000158200000000015820000000001580000000000158221066000000000015457900000000024466413200000000000000009999123100000010000000000000BRCSNAACNOR6252
012020092402CSRN5       010COSERN      PNA          R$  000000000183000000000018300000000001682000000000173400000000016850000000001681000000000182500005000000000000000500000000000000867200000000000000009999123100000010000000000000BRCSRNACNPA3172
012020092402CSRN6       010COSERN      PNB          R$  000000000184500000000018450000000001650000000000175600000000016500000000001641000000000183900007000000000000000700000000000001229500000000000000009999123100000010000000000000BRCSRNACNPB1173
012020092402CTGP34      010CITIGROUP   DRN          R$  000000002329100000000232910000000023291000000002329100000000232910000000020466000000002329100001000000000000000100000000000002329100000000000000009999123100000010000000000000BRCTGPBDR000139
012020092402CTKA4       010KARSTEN     PN           R$  000000000120000000000012020000000001190000000000120000000000012020000000001170000000000121000004000000000000001400000000000001681000000000000000009999123100000010000000000000BRCTKAACNPR7043
012020092402CTNM3       010COTEMINAS   ON           R$  000000000108500000000010850000000001085000000000108500000000010850000000001085000000000111500003000000000000000400000000000000434000000000000000009999123100000010000000000000BRCTNMACNOR9130
012020092402CTNM4       010COTEMINAS   PN           R$  000000000053500000000005430000000000533000000000053800000000005380000000000538000000000053900031000000000000008900000000000004792600000000000000009999123100000010000000000000BRCTNMACNPR6129
012020092402CTSA3       010SANTANENSE  ON           R$  000000000024700000000002590000000000245000000000024800000000002450000000000245000000000024900021000000000000004300000000000001067800000000000000009999123100000010000000000000BRCTSAACNOR3060
012020092402CTSA4       010SANTANENSE  PN           R$  000000000022300000000002230000000000204000000000021200000000002040000000000204000000000021000021000000000000007900000000000001679400000000000000009999123100000010000000000000BRCTSAACNPR0060
012020092402CURY3       010CURY S/A    ON      NM   R$  000000000095700000000010000000000000952000000000098000000000010000000000001000000000000100102401000000000001182700000000001159624900000000000000009999123100000010000000000000BRCURYACNOR3100
012020092402CVCB3       010CVC BRASIL  ON      NM   R$  000000000168100000000017590000000001665000000000171000000000017120000000001710000000000171218906000000000008036600000000013750504200000000000000009999123100000010000000000000BRCVCBACNOR1113
012020092402CVSH34      010CVS HEALTH  DRN          R$  000000001597900000000159790000000015979000000001597900000000159790000000015100000000001585000001000000000000000200000000000003195800000000000000009999123100000010000000000000BRCVSHBDR008117
012020092402CYRE3       010CYRELA REALTON      NM   R$  000000000228100000000024050000000002261000000000234700000000023420000000002342000000000234329760000000000009121500000000021414253400000000000000009999123100000010000000000000BRCYREACNOR7134
012020092402D1RI34      010DARDEN RESTADRN          R$  000000001327900000000132790000000013279000000001327900000000132790000000000000000000000000000001000000000000000500000000000006639500000000000000009999123100000010000000000000BRD1RIBDR007100
012020092402D1XC34      010DXC TECHNOLODRN          R$  000000000896200000000089620000000008825000000000889300000000088250000000008820000000000000000002000000000000000140000000000001245090000000000000009999123100000010000000000000BRD1XCBDR008101
012020092402DASA3       010DASA        ON           R$  000000000600000000000063000000000005500000000000583000000000058340000000005800000000000625000012000000000000001200000000000006996900000000000000009999123100000010000000000000BRDASAACNOR1119
012020092402DCVY34      010DISCOVERY INDRN A        R$  000000001174700000000117700000000011747000000001175800000000117700000000000000000000000000000002000000000000000020000000000000235170000000000000009999123100000010000000000000BRDCVYBDR005100
012020092402DEAI34      010DELTA       DRN          R$  000000001598000000000161200000000015980000000001599600000000161200000000015001000000002300000002000000000000000680000000000010877600000000000000009999123100000010000000000000BRDEAIBDR008116
012020092402DEEC34      010DEERE CO    DRN          R$  000000005983500000000598350000000059835000000005983500000000598350000000000000000000000000000001000000000000000020000000000001196700000000000000009999123100000010000000000000BRDEECBDR003105
012020092402DIRR3       010DIRECIONAL  ON      NM   R$  000000000136000000000013920000000001330000000000137200000000013810000000001379000000000138103128000000000000580800000000000797041400000000000000009999123100000010000000000000BRDIRRACNOR0112
012020092402DISB34      010WALT DISNEY DRN          R$  000000006810000000000687090000000067453000000006793600000000677500000000067000000000007100000013000000000000000790000000000053669900000000000000009999123100000010000000000000BRDISBBDR006114
012020092402DMMO3       010DOMMO       ON           R$  000000000010600000000001090000000000104000000000010600000000001070000000000106000000000010700999000000000002518600000000000268746600000000000000009999123100000010000000000000BRDMMOACNOR0102
012020092402DMVF3       010D1000VFARMA ON      NM   R$  000000000138800000000013990000000001290000000000133400000000012940000000001294000000000130003831000000000001854400000000002474111000000000000000009999123100000010000000000000BRDMVFACNOR9100
012020092402DOHL3       010DOHLER      ON           R$  000000000130000000000013490000000001225000000000128400000000012250000000001210000000000129000005000000000000000500000000000000642400000000000000009999123100000010000000000000BRDOHLACNOR2058
012020092402DOHL4       010DOHLER      PN           R$  000000000048000000000004960000000000480000000000048900000000004960000000000484000000000049700004000000000000000400000000000000195600000000000000009999123100000010000000000000BRDOHLACNPR9061
012020092402DTCY3       010DTCOM-DIRECTON           R$  000000000064700000000006470000000000647000000000064700000000006470000000000647000000000066400003000000000000000500000000000000323500000000000000009999123100000010000000000000BRDTCYACNOR5109
012020092402DTEX3       010DURATEX     ON      NM   R$  000000000170000000000017930000000001674000000000175300000000017600000000001757000000000176010073000000000002603700000000004565554500000000000000009999123100000010000000000000BRDTEXACNOR3128
012020092402E1SS34      010ESSEX PROPERDRN          R$  000000001120500000000112050000000011205000000001120500000000112050000000000000000000000000000002000000000000000610000000000006835050000000000000009999123100000010000000000000BRE1SSBDR003102
012020092402EAIN34      010ELECTR ARTS DRN          R$  000000003583700000000358370000000035702000000003571400000000357020000000032000000000000000000002000000000000000110000000000003928570000000000000009999123100000010000000000000BREAINBDR007100
012020092402EALT3       010ACO ALTONA  ON           R$  000000000119100000000012400000000001190000000000119800000000011900000000001190000000000124000007000000000000001400000000000001678300000000000000009999123100000010000000000000BREALTACNOR4133
012020092402EALT4       010ACO ALTONA  PN           R$  000000000052600000000005280000000000516000000000052000000000005170000000000517000000000052700033000000000000014500000000000007542500000000000000009999123100000010000000000000BREALTACNPR1133
012020092402EBAY34      010EBAY        DRN          R$  000000001433000000000143410000000014330000000001433200000000143410000000000000000000000000000002000000000000000040000000000000573310000000000000009999123100000010000000000000BREBAYBDR009108
012020092402ECOR3       010ECORODOVIAS ON      NM   R$  000000000125900000000012950000000001259000000000127700000000012740000000001272000000000127508783000000000002404000000000003071669400000000000000009999123100000010000000000000BRECORACNOR8116
012020092402EGIE3       010ENGIE BRASILON      NM   R$  000000000416300000000041860000000004108000000000415900000000041720000000004164000000000417207210000000000001271900000000005290374700000000000000009999123100000010000000000000BREGIEACNOR9113
012020092402ELET3       010ELETROBRAS  ON      N1   R$  000000000320000000000032950000000003180000000000323200000000032010000000003201000000000321015486000000000004785800000000015468147600000000000000009999123100000010000000000000BRELETACNOR6155
012020092402ELET5       010ELETROBRAS  PNA     N1   R$  000000000400000000000040000000000004000000000000400000000000040000000000003519000000000410000001000000000000000100000000000000400000000000000000009999123100000010000000000000BRELETACNPA9072
012020092402ELET6       010ELETROBRAS  PNB     N1   R$  000000000329400000000034020000000003285000000000332900000000032920000000003292000000000330008091000000000001752200000000005834053700000000000000009999123100000010000000000000BRELETACNPB7072
012020092402EMAE4       010EMAE        PN           R$  000000000337500000000034150000000003372000000000337900000000034150000000003374000000000342000006000000000000000700000000000002365500000000000000009999123100000010000000000000BREMAEACNPR1114
012020092402EMBR3       010EMBRAER     ON      NM   R$  000000000060900000000006290000000000598000000000061000000000006180000000000617000000000061820626000000000019809800000000012099668600000000000000009999123100000010000000000000BREMBRACNOR4189
012020092402ENAT3       010ENAUTA PART ON      NM   R$  000000000101600000000010310000000001005000000000101800000000010180000000001018000000000101904010000000000000886300000000000902895800000000000000009999123100000010000000000000BRENATACNOR0101
012020092402ENBR3       010ENERGIAS BR ON      NM   R$  000000000179400000000018230000000001783000000000180300000000017960000000001796000000000180308843000000000002178500000000003928161800000000000000009999123100000010000000000000BRENBRACNOR2129
012020092402ENEV3       010ENEVA       ON      NM   R$  000000000516400000000052340000000005030000000000512400000000050300000000005028000000000503008590000000000001489200000000007631158900000000000000009999123100000010000000000000BRENEVACNOR8104
012020092402ENGI3       010ENERGISA    ON      N2   R$  000000000125500000000012800000000001254000000000126900000000012790000000001255000000000128000035000000000000003800000000000004822800000000000000009999123100000010000000000000BRENGIACNOR0138
012020092402ENGI4       010ENERGISA    PN      N2   R$  000000000072300000000007540000000000720000000000073400000000007310000000000730000000000075300063000000000000014600000000000010723700000000000000009999123100000010000000000000BRENGIACNPR7134
012020092402ENGI11      010ENERGISA    UNT     N2   R$  000000000415600000000042690000000004142000000000422300000000042240000000004224000000000423310259000000000001902000000000008033210200000000000000009999123100000010000000000000BRENGICDAM16128
012020092402ENMT3       010ENERGISA MT ON           R$  000000000297000000000029900000000002970000000000298300000000029900000000002702000000000298900003000000000000000300000000000000895000000000000000009999123100000010000000000000BRENMTACNOR5111
012020092402ENMT4       010ENERGISA MT PN           R$  000000000299000000000029900000000002990000000000299000000000029900000000002755000000000299000001000000000000000100000000000000299000000000000000009999123100000010000000000000BRENMTACNPR2114
012020092402EQPA3       010EQTL PARA   ON           R$  000000000031400000000003250000000000314000000000031800000000003210000000000316000000000032100054000000000000019600000000000006251600000000000000009999123100000010000000000000BREQPAACNOR1101
012020092402EQPA5       010EQTL PARA   PNA          R$  000000000063900000000006390000000000563000000000058300000000005630000000000552000000000061000006000000000000000600000000000000349800000000000000009999123100000010000000000000BREQPAACNPA4101
012020092402EQPA7       010EQTL PARA   PNC          R$  000000000059400000000006000000000000540000000000056500000000005980000000000546000000000059800021000000000000008600000000000004864400000000000000009999123100000010000000000000BREQPAACNPC0101
012020092402EQTL3       010EQUATORIAL  ON      NM   R$  000000000221400000000022480000000002191000000000222300000000022450000000002245000000000224624940000000000012118200000000026943140000000000000000009999123100000010000000000000BREQTLACNOR0126
012020092402ESTR4       010ESTRELA     PN           R$  000000000265000000000026500000000002600000000000264500000000026500000000002645000000000288000006000000000000001100000000000002910000000000000000009999123100000010000000000000BRESTRACNPR0143
012020092402EUCA3       010EUCATEX     ON      N1   R$  000000000220000000000022000000000002182000000000219600000000021960000000002182000000000224900007000000000000000700000000000001537400000000000000009999123100000010000000000000BREUCAACNOR1151
012020092402EUCA4       010EUCATEX     PN      N1   R$  000000000062400000000006440000000000624000000000063700000000006440000000000636000000000064400171000000000000057900000000000036926400000000000000009999123100000010000000000000BREUCAACNPR8038
012020092402EVEN3       010EVEN        ON      NM   R$  000000000114900000000011990000000001128000000000117500000000011840000000001178000000000118406933000000000002448800000000002878903000000000000000009999123100000010000000000000BREVENACNOR8112
012020092402EXXO34      010EXXON MOBIL DRN          R$  000000000480100000000048010000000004711000000000477400000000047350000000004701000000000473500020000000000000008830000000000042161490000000000000009999123100000010000000000000BREXXOBDR006140
012020092402EZTC3       010EZTEC       ON      NM   R$  000000000365500000000037930000000003602000000000371600000000036920000000003691000000000369211075000000000002093600000000007780398600000000000000009999123100000010000000000000BREZTCACNOR0114
012020092402F1IS34      010FISERV INC  DRN          R$  000000002734200000000273420000000027342000000002734200000000273420000000000000000000000000000001000000000000000020000000000000546840000000000000009999123100000010000000000000BRF1ISBDR003100
012020092402F1RI34      010FEDERAL REALDRN ED       R$  000000001010000000000101000000000010100000000001010000000000101000000000000000000000000000000001000000000000000100000000000001010000000000000000009999123100000010000000000000BRF1RIBDR005103
012020092402FBOK34      010FACEBOOK    DRN          R$  000000006864000000000702000000000068389000000006940500000000683890000000066200000000007100000032000000000000002350000000000163102150000000000000009999123100000010000000000000BRFBOKBDR006100
012020092402FDMO34      010FORD MOTORS DRN          R$  000000000365500000000036750000000003655000000000366400000000036720000000003450000000000000000004000000000000003600000000000013191600000000000000009999123100000010000000000000BRFDMOBDR008133
012020092402FDXB34      010FEDEX CORP  DRN          R$  000000013660000000001366000000000136600000000013660000000001366000000000000000000000000000000001000000000000000010000000000001366000000000000000009999123100000010000000000000BRFDXBBDR002128
012020092402FESA3       010FERBASA     ON      N1   R$  000000000268000000000026800000000002500000000000258400000000025140000000002513000000000269800021000000000000002700000000000006977400000000000000009999123100000010000000000000BRFESAACNOR8171
012020092402FESA4       010FERBASA     PN      N1   R$  000000000177700000000018000000000001753000000000177100000000017560000000001756000000000177201066000000000000197800000000000350351600000000000000009999123100000010000000000000BRFESAACNPR5067
012020092402FLRY3       010FLEURY      ON      NM   R$  000000000277700000000028250000000002751000000000279300000000027850000000002785000000000278713119000000000002940900000000008215841600000000000000009999123100000010000000000000BRFLRYACNOR5127
012020092402FRAS3       010FRAS-LE     ON      N1   R$  000000000056300000000005750000000000556000000000056600000000005690000000000565000000000056900303000000000000088300000000000049997000000000000000009999123100000010000000000000BRFRASACNOR0149
012020092402GEOO34      010GE          DRN          R$  000000000341200000000034120000000003355000000000340600000000033550000000003230000000000335500002000000000000004550000000000015498950000000000000009999123100000010000000000000BRGEOOBDR000140
012020092402GEPA4       010GER PARANAP PN           R$  000000000451800000000045180000000004518000000000451800000000045180000000004470000000000464200004000000000000000900000000000004066200000000000000009999123100000010000000000000BRGEPAACNPR9153
012020092402GFSA3       010GAFISA      ON      NM   R$  000000000042500000000004370000000000419000000000042700000000004250000000000425000000000042603863000000000004314300000000001843810400000000000000009999123100000010000000000000BRGFSAACNOR3119
012020092402GGBR3       010GERDAU      ON      N1   R$  000000000170400000000017140000000001671000000000169100000000016850000000001685000000000169300162000000000000046300000000000078296000000000000000009999123100000010000000000000BRGGBRACNOR1173
012020092402GGBR4       010GERDAU      PN      N1   R$  000000000206900000000020910000000002043000000000206800000000020680000000002068000000000206921734000000000012507700000000025868508000000000000000009999123100000010000000000000BRGGBRACNPR8173
012020092402GILD34      010GILEAD      DRN          R$  000000001756000000000175600000000017560000000001756000000000175600000000000000000000000000000001000000000000000200000000000003512000000000000000009999123100000010000000000000BRGILDBDR000118
012020092402GMCO34      010GENERAL MOT DRN          R$  000000001596800000000161620000000015968000000001608600000000160450000000015000000000000000000071000000000000015480000000000249022620000000000000009999123100000010000000000000BRGMCOBDR008115
012020092402GNDI3       010INTERMEDICA ON      NM   R$  000000000671600000000068950000000006659000000000679500000000067870000000006785000000000682313380000000000001909700000000012978286100000000000000009999123100000010000000000000BRGNDIACNOR2102
012020092402GOAU3       010GERDAU MET  ON      N1   R$  000000000080400000000008150000000000796000000000080600000000008100000000000805000000000081000159000000000000054700000000000044113000000000000000009999123100000010000000000000BRGOAUACNOR1250
012020092402GOAU4       010GERDAU MET  PN      N1   R$  000000000092700000000009400000000000912000000000092600000000009280000000000927000000000092815496000000000016546300000000015328048800000000000000009999123100000010000000000000BRGOAUACNPR8251
012020092402GOGL34      010ALPHABET    DRN A        R$  000000003110000000000321000000000031100000000003148300000000313500000000031270000000003135000069000000000000006560000000000206533030000000000000009999123100000010000000000000BRGOGLBDR001100
012020092402GOGL35      010ALPHABET    DRN C        R$  000000003175000000000321280000000031558000000003209500000000315670000000000000000000003156700006000000000000001920000000000061622650000000000000009999123100000010000000000000BRGOGLBDR019100
012020092402GOLL4       010GOL         PN      N2   R$  000000000178100000000018190000000001740000000000178400000000017940000000001794000000000179524695000000000010305700000000018389739500000000000000009999123100000010000000000000BRGOLLACNPR4125
012020092402GPIV33      010GP INVEST   DR3          R$  000000000044000000000004650000000000438000000000044700000000004420000000000442000000000044800082000000000000067500000000000030205500000000000000009999123100000010000000000000BRGPIVBDR003104
012020092402GPRK34      010GEOPARK LTD DRN          R$  000000000438000000000043800000000004380000000000438000000000043800000000000000000000000000000002000000000000000170000000000000744600000000000000009999123100000010000000000000BRGPRKBDR007103
012020092402GRND3       010GRENDENE    ON      NM   R$  000000000076200000000007760000000000762000000000076900000000007710000000000771000000000077203339000000000000877900000000000675748000000000000000009999123100000010000000000000BRGRNDACNOR3158
012020092402GSGI34      010GOLDMANSACHSDRN          R$  000000001072300000000107600000000010723000000001072600000000107600000000000000000000000000000004000000000000002120000000000022740900000000000000009999123100000010000000000000BRGSGIBDR008140
012020092402GUAR3       010GUARARAPES  ON           R$  000000000152800000000015330000000001498000000000151200000000015070000000001506000000000151202655000000000000683500000000001034042000000000000000009999123100000010000000000000BRGUARACNOR4165
012020092402HAGA3       010HAGA S/A    ON           R$  000000000031200000000003320000000000310000000000031500000000003160000000000305000000000031600010000000000000002600000000000000819000000000000000009999123100000010000000000000BRHAGAACNOR7103
012020092402HAGA4       010HAGA S/A    PN           R$  000000000018500000000001910000000000184000000000018700000000001880000000000187000000000018800048000000000000019700000000000003694000000000000000009999123100000010000000000000BRHAGAACNPR4103
012020092402HALI34      010HALLIBURTON DRN          R$  000000000679100000000067910000000006791000000000679100000000067910000000006040000000000000000001000000000000000050000000000000339550000000000000009999123100000010000000000000BRHALIBDR004135
012020092402HAPV3       010HAPVIDA     ON      NM   R$  000000000628300000000063880000000006212000000000630400000000062700000000006270000000000628706989000000000001135700000000007159599900000000000000009999123100000010000000000000BRHAPVACNOR4106
012020092402HBOR3       010HELBOR      ON      NM   R$  000000000103100000000010890000000001020000000000106100000000010670000000001061000000000106704132000000000002093800000000002222700300000000000000009999123100000010000000000000BRHBORACNOR3114
012020092402HBTS5       010HABITASUL   PNA          R$  000000000240000000000024000000000002400000000000240000000000024000000000002310000000000250000001000000000000000100000000000000240000000000000000009999123100000010000000000000BRHBTSACNPA3124
012020092402HETA4       010HERCULES    PN           R$  000000000080000000000008000000000000799000000000079900000000007990000000000701000000000079900003000000000000000500000000000000399700000000000000009999123100000010000000000000BRHETAACNPR9136
012020092402HGTX3       010CIA HERING  ON      NM   R$  000000000175500000000017950000000001747000000000176800000000017650000000001762000000000176507736000000000002007700000000003550828700000000000000009999123100000010000000000000BRHGTXACNOR9151
012020092402HOME34      010HOME DEPOT  DRN          R$  000000007330400000000733040000000073304000000007330400000000733040000000000000000000000000000001000000000000000700000000000051312800000000000000009999123100000010000000000000BRHOMEBDR002134
012020092402HYPE3       010HYPERA      ON      NM   R$  000000000299000000000031160000000002983000000000308000000000030770000000003075000000000307716773000000000002741300000000008445191600000000000000009999123100000010000000000000BRHYPEACNOR0122
012020092402I1VZ34      010INVESCO LTD DRN          R$  000000000595000000000059500000000005950000000000595000000000059500000000000000000000000000000001000000000000000400000000000002380000000000000000009999123100000010000000000000BRI1VZBDR008103
012020092402IDVL3       010INDUSVAL    ON      N2   R$  000000000023900000000002450000000000239000000000024200000000002400000000000240000000000024500020000000000000009100000000000002204400000000000000009999123100000010000000000000BRIDVLACNOR5130
012020092402IDVL4       010INDUSVAL    PN      N2   R$  000000000024700000000002470000000000239000000000024000000000002400000000000239000000000024000010000000000000002900000000000000697500000000000000009999123100000010000000000000BRIDVLACNPR2130
012020092402IGTA3       010IGUATEMI    ON      NM   R$  000000000326100000000032800000000003215000000000324600000000032430000000003242000000000324312161000000000002458500000000007980941300000000000000009999123100000010000000000000BRIGTAACNOR5124
012020092402IRBR3       010IRBBRASIL REON      NM   R$  000000000066000000000007300000000000641000000000069200000000007080000000000707000000000070876175000000000128481700000000088965616300000000000000009999123100000010000000000000BRIRBRACNOR4108
012020092402ITLC34      010INTEL       DRN          R$  000000002736300000000275070000000027138000000002742500000000271380000000000000000000002713800007000000000000003200000000000087761900000000000000009999123100000010000000000000BRITLCBDR005139
012020092402ITSA3       010ITAUSA      ON      N1   R$  000000000101600000000010490000000001006000000000103400000000010380000000001038000000000104300576000000000000145500000000000150497600000000000000009999123100000010000000000000BRITSAACNOR0401
012020092402ITSA4       010ITAUSA      PN      N1   R$  000000000088500000000009160000000000880000000000090400000000009030000000000903000000000090433123000000000026227400000000023716716100000000000000009999123100000010000000000000BRITSAACNPR7401
012020092402ITUB3       010ITAUUNIBANCOON      N1   R$  000000000215300000000022170000000002140000000000218500000000021830000000002183000000000218902465000000000002051500000000004482997200000000000000009999123100000010000000000000BRITUBACNOR4273
012020092402ITUB4       010ITAUUNIBANCOPN      N1   R$  000000000225000000000023340000000002242000000000230300000000023030000000002303000000000230460163000000000040036100000000092221117800000000000000009999123100000010000000000000BRITUBACNPR1273
012020092402J1WN34      010NORDSTROM INDRN          R$  000000000670100000000067010000000006701000000000670100000000067010000000005816000000001571500001000000000000000400000000000002680400000000000000009999123100000010000000000000BRJ1WNBDR001101
012020092402JBDU3       010J B DUARTE  ON           R$  000000000021200000000002280000000000211000000000021500000000002170000000000217000000000021900031000000000000006900000000000001489000000000000000009999123100000010000000000000BRJBDUACNOR6142
012020092402JBDU4       010J B DUARTE  PN           R$  000000000012500000000001260000000000120000000000012100000000001200000000000120000000000012100101000000000000056700000000000006882500000000000000009999123100000010000000000000BRJBDUACNPR3142
012020092402JBSS3       010JBS         ON      NM   R$  000000000216700000000021970000000002141000000000217100000000021660000000002165000000000216628806000000000011050800000000023991691800000000000000009999123100000010000000000000BRJBSSACNOR8115
012020092402JDCO34      010JD COM      DRN          R$  000000004105800000000411110000000039993000000004061400000000399930000000039900000000004200000014000000000000000320000000000012996620000000000000009999123100000010000000000000BRJDCOBDR001100
012020092402JHSF3       010JHSF PART   ON      NM   R$  000000000070400000000007310000000000690000000000071400000000007120000000000712000000000071509968000000000008250700000000005897669200000000000000009999123100000010000000000000BRJHSFACNOR2116
012020092402JNJB34      010JOHNSON     DRN          R$  000000008306000000000830600000000079430000000008072500000000799330000000070000000000007993300012000000000000003030000000000244596780000000000000009999123100000010000000000000BRJNJBBDR002135
012020092402JOPA3       010JOSAPAR     ON           R$  000000000334900000000033490000000003100000000000319300000000031100000000002833000000000335000013000000000000001300000000000004150900000000000000009999123100000010000000000000BRJOPAACNOR5131
012020092402JPMC34      010JPMORGAN    DRN          R$  000000002588900000000258890000000025600000000002583700000000256180000000025000000000002561800007000000000000003320000000000085780820000000000000009999123100000010000000000000BRJPMCBDR009134
012020092402JPSA3       010JEREISSATI  ON           R$  000000000217000000000022050000000002143000000000217700000000021500000000002150000000000217901148000000000000230800000000000502612100000000000000009999123100000010000000000000BRJPSAACNOR6103
012020092402JSLG11      010JSL         ON  P   NM   R$  000000000086500000000008700000000000791000000000085300000000008600000000000850000000000086000845000000000000368700000000000314743100000000000000009999123100000010000000000000BRJSLGA02OR1100
012020092402KEPL3       010KEPLER WEBERON           R$  000000000403300000000040330000000003850000000000392100000000038500000000003850000000000392600315000000000000064400000000000252556400000000000000009999123100000010000000000000BRKEPLACNOR1049
012020092402KHCB34      010KRAFT HEINZ DRN          R$  000000001621900000000162190000000016038000000001621400000000160380000000000000000000001620000002000000000000000410000000000006647980000000000000009999123100000010000000000000BRKHCBBDR007121
012020092402KLBN3       010KLABIN S/A  ON      N2   R$  000000000050500000000005190000000000497000000000050700000000005010000000000501000000000051200934000000000000279500000000000141798400000000000000009999123100000010000000000000BRKLBNACNOR2156
012020092402KLBN4       010KLABIN S/A  PN      N2   R$  000000000047900000000004880000000000471000000000048000000000004840000000000482000000000048401916000000000001004800000000000483043300000000000000009999123100000010000000000000BRKLBNACNPR9156
012020092402KLBN11      010KLABIN S/A  UNT     N2   R$  000000000242900000000024700000000002385000000000243600000000024430000000002443000000000244924077000000000004879800000000011889554400000000000000009999123100000010000000000000BRKLBNCDAM18128
012020092402L1HX34      010L3HARRIS TECDRN          R$  000000002413100000000241310000000024131000000002413100000000241310000000000000000000000000000001000000000000000030000000000000723930000000000000009999123100000010000000000000BRL1HXBDR007103
012020092402L1KQ34      010LKQ CORP    DRN          R$  000000001526700000000152670000000015184000000001523900000000151840000000012148000000000000000008000000000000001200000000000018287200000000000000009999123100000010000000000000BRL1KQBDR005100
012020092402L1UL34      010LULULEMON ATDRN          R$  000000004351100000000435110000000043511000000004351100000000435110000000000000000000000000000001000000000000000010000000000000435110000000000000009999123100000010000000000000BRL1ULBDR005100
012020092402LAME3       010LOJAS AMERICON      N1   R$  000000000246000000000025040000000002443000000000247600000000024660000000002466000000000247008502000000000001587600000000003932389700000000000000009999123100000010000000000000BRLAMEACNOR9202
012020092402LAME4       010LOJAS AMERICPN      N1   R$  000000000290000000000029440000000002871000000000291000000000028880000000002888000000000289021381000000000007183500000000020908303500000000000000009999123100000010000000000000BRLAMEACNPR6202
012020092402LAVV3       010LAVVI       ON      NM   R$  000000000077500000000007980000000000764000000000078900000000007920000000000792000000000079301917000000000001256100000000000991218700000000000000009999123100000010000000000000BRLAVVACNOR4100
012020092402LBRN34      010L BRANDS    DRN          R$  000000000412200000000041220000000004122000000000412200000000041220000000000000000000000000000002000000000000002370000000000009769140000000000000009999123100000010000000000000BRLBRNBDR001119
012020092402LCAM3       010LOCAMERICA  ON  EJ  NM   R$  000000000245900000000025150000000002402000000000246500000000024600000000002458000000000246230009000000000010606500000000026152580100000000000000009999123100000010000000000000BRLCAMACNOR3134
012020092402LEVE3       010METAL LEVE  ON      NM   R$  000000000170000000000017200000000001677000000000169500000000016980000000001698000000000170201637000000000000288800000000000489535400000000000000009999123100000010000000000000BRLEVEACNOR2187
012020092402LIGT3       010LIGHT S/A   ON      NM   R$  000000000147300000000015040000000001431000000000148000000000014750000000001475000000000147907645000000000002610200000000003863958300000000000000009999123100000010000000000000BRLIGTACNOR2120
012020092402LINX3       010LINX        ON      NM   R$  000000000348000000000035010000000003420000000000346300000000034720000000003472000000000347710744000000000002758800000000009554627000000000000000009999123100000010000000000000BRLINXACNOR0118
012020092402LIPR3       010ELETROPAR   ON           R$  000000000700000000000072000000000007000000000000710000000000072000000000000000000000000700000002000000000000000200000000000001420000000000000000009999123100000010000000000000BRLIPRACNOR7117
012020092402LJQQ3       010QUERO-QUERO ON      NM   R$  000000000150400000000015300000000001461000000000148900000000015250000000001522000000000152602119000000000001300700000000001937038100000000000000009999123100000010000000000000BRLJQQACNOR5100
012020092402LOGG3       010LOG COM PROPON      NM   R$  000000000291600000000029460000000002860000000000290200000000028770000000002877000000000288503854000000000000621300000000001803190100000000000000009999123100000010000000000000BRLOGGACNOR7103
012020092402LOGN3       010LOG-IN      ON      NM   R$  000000000162000000000016530000000001584000000000161700000000016160000000001616000000000162002660000000000000815700000000001319000100000000000000009999123100000010000000000000BRLOGNACNOR3104
012020092402LOWC34      010LOWES COMPA DRN          R$  000000004452000000000445200000000044520000000004452000000000445200000000000000000000000000000001000000000000000010000000000000445200000000000000009999123100000010000000000000BRLOWCBDR007105
012020092402LPSB3       010LOPES BRASILON      NM   R$  000000000050000000000005190000000000496000000000050400000000004960000000000496000000000050302324000000000001548900000000000780994300000000000000009999123100000010000000000000BRLPSBACNOR0111
012020092402LREN3       010LOJAS RENNERON  EJ  NM   R$  000000000401800000000040580000000003981000000000402400000000040230000000004023000000000403433488000000000011738600000000047242185600000000000000009999123100000010000000000000BRLRENACNOR1204
012020092402LUXM4       010TREVISA     PN           R$  000000000468000000000046800000000004500000000000461600000000046800000000003803000000000468000009000000000000001200000000000005539800000000000000009999123100000010000000000000BRLUXMACNPR4047
012020092402LWSA3       010LOCAWEB     ON      NM   R$  000000000585600000000059420000000005687000000000583100000000057810000000005771000000000578107659000000000001334200000000007780774200000000000000009999123100000010000000000000BRLWSAACNOR8100
012020092402M1PC34      010MARATHON PETDRN          R$  000000001577100000000157710000000015771000000001577100000000157710000000000000000000000000000001000000000000000200000000000003154200000000000000009999123100000010000000000000BRM1PCBDR003103
012020092402MACY34      010MACY S      DRN          R$  000000000338700000000034270000000003387000000000340200000000033920000000002600000000000890000004000000000000001200000000000004082400000000000000009999123100000010000000000000BRMACYBDR000116
012020092402MCDC34      010MCDONALDS   DRN          R$  000000002996900000000299690000000029765000000002984100000000297650000000000000000000000000000003000000000000001610000000000048045600000000000000009999123100000010000000000000BRMCDCBDR000140
012020092402MDIA3       010M.DIASBRANCOON      NM   R$  000000000357100000000036770000000003527000000000362400000000036080000000003608000000000361409200000000000001494500000000005416495000000000000000009999123100000010000000000000BRMDIAACNOR7118
012020092402MDNE3       010MOURA DUBEUXON      NM   R$  000000000091300000000009390000000000891000000000092100000000009390000000000926000000000093901459000000000000590400000000000543846300000000000000009999123100000010000000000000BRMDNEACNOR9100
012020092402MEAL3       010IMC S/A     ON      NM   R$  000000000033700000000003500000000000327000000000033600000000003430000000000343000000000034412617000000000018324600000000006164667100000000000000009999123100000010000000000000BRMEALACNOR9105
012020092402MELI34      010MERCADOLIBREDRN          R$  000000005640000000000581500000000054943000000005642400000000576990000000056800000000005769900061000000000000006500000000000366758470000000000000009999123100000010000000000000BRMELIBDR006100
012020092402MGEL4       010MANGELS INDLPN           R$  000000000058100000000005810000000000581000000000058100000000005810000000000581000000000060000001000000000000000100000000000000058100000000000000009999123100000010000000000000BRMGELACNPR3147
012020092402MGLU3       010MAGAZ LUIZA ON      NM   R$  000000000869000000000089790000000008570000000000884400000000089300000000008925000000000893048513000000000012112500000000107129521800000000000000009999123100000010000000000000BRMGLUACNOR2116
012020092402MILS3       010MILLS       ON      NM   R$  000000000059000000000006270000000000577000000000060400000000006070000000000607000000000061306157000000000002340100000000001414535400000000000000009999123100000010000000000000BRMILSACNOR2112
012020092402MMMC34      0103M          DRN          R$  000000002255900000000225590000000022472000000002248200000000224720000000015000000000000000000004000000000000001480000000000033274220000000000000009999123100000010000000000000BRMMMCBDR000134
012020092402MNDL3       010MUNDIAL     ON           R$  000000000227000000000022700000000002270000000000227000000000022700000000002270000000000240000001000000000000000100000000000000227000000000000000009999123100000010000000000000BRMNDLACNOR4107
012020092402MNPR3       010MINUPAR     ON           R$  000000000060500000000006050000000000562000000000059000000000005930000000000572000000000059300013000000000000003700000000000002185400000000000000009999123100000010000000000000BRMNPRACNOR5122
012020092402MOAR3       010MONT ARANHA ON  EDJ      R$  000000002080000000000208000000000020800000000002080000000000208000000000019200000000002080000001000000000000000100000000000002080000000000000000009999123100000010000000000000BRMOARACNOR5213
012020092402MOSC34      010MOSAIC CO   DRN          R$  000000000506300000000050630000000005063000000000506300000000050630000000004501000000000000000001000000000000001200000000000006075600000000000000009999123100000010000000000000BRMOSCBDR003121
012020092402MOVI3       010MOVIDA      ON      NM   R$  000000000179500000000018500000000001767000000000181600000000017860000000001785000000000178615675000000000004910700000000008918246900000000000000009999123100000010000000000000BRMOVIACNOR0111
012020092402MRFG3       010MARFRIG     ON      NM   R$  000000000155100000000016030000000001515000000000156400000000015670000000001567000000000156931166000000000012297000000000019233909100000000000000009999123100000010000000000000BRMRFGACNOR0109
012020092402MRVE3       010MRV         ON      NM   R$  000000000164500000000016800000000001623000000000165800000000016600000000001659000000000166012659000000000003169400000000005256214400000000000000009999123100000010000000000000BRMRVEACNOR2120
012020092402MSCD34      010MASTERCARD  DRN          R$  000000018028600000001802860000000180286000000018028600000001802860000000151600000000000000000001000000000000000300000000000054085800000000000000009999123100000010000000000000BRMSCDBDR006137
012020092402MSFT34      010MICROSOFT   DRN          R$  000000011080000000001142000000000110800000000011349300000001123080000000108000000000011230800040000000000000005860000000000665071540000000000000009999123100000010000000000000BRMSFTBDR005139
012020092402MTIG4       010METAL IGUACUPN           R$  000000000419900000000041990000000003900000000000404700000000039000000000003575000000000400000033000000000000003300000000000013356800000000000000009999123100000010000000000000BRMTIGACNPR7086
012020092402MTRE3       010MITRE REALTYON      NM   R$  000000000139000000000014180000000001369000000000139500000000014090000000001393000000000140901933000000000000341600000000000476652600000000000000009999123100000010000000000000BRMTREACNOR6100
012020092402MTSA4       010METISA      PN           R$  000000000274800000000027590000000002748000000000275300000000027590000000002705000000000278400007000000000000003200000000000008810400000000000000009999123100000010000000000000BRMTSAACNPR9056
012020092402MULT3       010MULTIPLAN   ON      N2   R$  000000000209600000000021030000000002052000000000207800000000020740000000002073000000000207418519000000000004861200000000010103560400000000000000009999123100000010000000000000BRMULTACNOR5127
012020092402MYPK3       010IOCHP-MAXIONON      NM   R$  000000000135700000000014080000000001336000000000138300000000014060000000001405000000000140609370000000000002546000000000003523127300000000000000009999123100000010000000000000BRMYPKACNOR7148
012020092402N1EM34      010NEWMONT GOLDDRN          R$  000000003408000000000341730000000033940000000003407700000000340750000000032500000000000000000013000000000000002420000000000082466830000000000000009999123100000010000000000000BRN1EMBDR005103
012020092402N1OV34      010NATIONAL OILDRN          R$  000000000557900000000055790000000005579000000000557900000000055790000000000000000000000000000001000000000000000010000000000000055790000000000000009999123100000010000000000000BRN1OVBDR005101
012020092402N1WL34      010NEWELL BRANDDRN          R$  000000000929000000000092900000000009290000000000929000000000092900000000000000000000000000000001000000000000000010000000000000092900000000000000009999123100000010000000000000BRN1WLBDR009103
012020092402NEOE3       010NEOENERGIA  ON      NM   R$  000000000176200000000017950000000001739000000000177900000000017820000000001780000000000178204336000000000002427400000000004319911100000000000000009999123100000010000000000000BRNEOEACNOR3111
012020092402NFLX34      010NETFLIX     DRN          R$  000000026367200000002636720000000260941000000026324000000002609410000000251100000000026350000003000000000000000130000000000034221210000000000000009999123100000010000000000000BRNFLXBDR000101
012020092402NIKE34      010NIKE        DRN          R$  000000006999900000000699990000000068800000000006911400000000688990000000000000000000000000000004000000000000000190000000000013131830000000000000009999123100000010000000000000BRNIKEBDR006139
012020092402NTCO3       010GRUPO NATURAON      NM   R$  000000000502400000000051580000000004986000000000508200000000050210000000005020000000000502124102000000000004996900000000025397738800000000000000009999123100000010000000000000BRNTCOACNOR5101
012020092402NVDC34      010NVIDIA CORP DRN          R$  000000006680000000000692000000000066800000000006835000000000678420000000066000000000006920000008000000000000001190000000000081337680000000000000009999123100000010000000000000BRNVDCBDR008106
012020092402ODPV3       010ODONTOPREV  ON  EJ  NM   R$  000000000120900000000012230000000001191000000000120700000000012090000000001209000000000121114216000000000003324600000000004014485900000000000000009999123100000010000000000000BRODPVACNOR4179
012020092402OFSA3       010OUROFINO S/AON      NM   R$  000000000272500000000027870000000002640000000000270300000000026720000000002671000000000269000141000000000000026800000000000072450000000000000000009999123100000010000000000000BROFSAACNOR7109
012020092402OMGE3       010OMEGA GER   ON      NM   R$  000000000374400000000037800000000003660000000000372200000000037150000000003715000000000371904206000000000001080700000000004022434200000000000000009999123100000010000000000000BROMGEACNOR0101
012020092402ORCL34      010ORACLE      DRN          R$  000000003200000000000320000000000032000000000003200000000000320000000000032000000000000000000001000000000000000030000000000000960000000000000000009999123100000010000000000000BRORCLBDR007134
012020092402OXYP34      010OCCIDENT PTRDRN          R$  000000000290000000000029000000000002877000000000287700000000028770000000000000000000000310500002000000000000003500000000000010069730000000000000009999123100000010000000000000BROXYPBDR000106
012020092402P1DT34      010PRUDENTIAL FDRN          R$  000000001698000000000169800000000016980000000001698000000000169800000000015151000000000000000001000000000000000010000000000000169800000000000000009999123100000010000000000000BRP1DTBDR000103
012020092402P1HM34      010PULTEGROUP IDRN ED       R$  000000002472000000000247200000000024720000000002472000000000247200000000000000000000000000000001000000000000000020000000000000494400000000000000009999123100000010000000000000BRP1HMBDR006104
012020092402PARD3       010IHPARDINI   ON  EJ  NM   R$  000000000230300000000023380000000002221000000000229800000000023100000000002309000000000231007031000000000001510200000000003471831100000000000000009999123100000010000000000000BRPARDACNOR1115
012020092402PATI3       010PANATLANTICAON           R$  000000000220000000000022000000000002200000000000220000000000022000000000002200000000000238000003000000000000000400000000000000880000000000000000009999123100000010000000000000BRPATIACNOR6060
012020092402PCAR3       010P.ACUCAR-CBDON      NM   R$  000000000718000000000076290000000007173000000000746800000000074830000000007483000000000750311426000000000002463800000000018401508200000000000000009999123100000010000000000000BRPCARACNOR3163
012020092402PDTC3       010PADTEC      ON           R$  000000000049800000000005000000000000472000000000048200000000004730000000000473000000000048000152000000000000040600000000000019602600000000000000009999123100000010000000000000BRPDTCACNOR3100
012020092402PEAB3       010PAR AL BAHIAON           R$  000000000634000000000063400000000006340000000000634000000000063400000000006340000000001000000001000000000000000100000000000000634000000000000000009999123100000010000000000000BRPEABACNOR3124
012020092402PEAB4       010PAR AL BAHIAPN           R$  000000000660100000000066010000000006601000000000660100000000066010000000006601000000001000000001000000000000000100000000000000660100000000000000009999123100000010000000000000BRPEABACNPR0124
012020092402PEPB34      010PEPSICO INC DRN          R$  000000007231600000000723160000000072316000000007231600000000723160000000065100000000000000000001000000000000000800000000000057852800000000000000009999123100000010000000000000BRPEPBBDR005132
012020092402PETR3       010PETROBRAS   ON      N2   R$  000000000207800000000021220000000002056000000000208900000000020900000000002090000000000209238035000000000019709300000000041185870800000000000000009999123100000010000000000000BRPETRACNOR9191
012020092402PETR4       010PETROBRAS   PN      N2   R$  000000000202400000000020710000000002006000000000203000000000020400000000002039000000000204063610000000000076310000000000154959122400000000000000009999123100000010000000000000BRPETRACNPR6197
012020092402PETZ3       010PETZ        ON      NM   R$  000000000149000000000015250000000001450000000000149200000000015230000000001520000000000152309706000000000004979900000000007433857200000000000000009999123100000010000000000000BRPETZACNOR2100
012020092402PFIZ34      010PFIZER      DRN          R$  000000002015000000000201500000000019626000000001984000000000197650000000019625000000001976500020000000000000003730000000000074004930000000000000009999123100000010000000000000BRPFIZBDR006140
012020092402PFRM3       010PROFARMA    ON      NM   R$  000000000048500000000004940000000000471000000000048000000000004910000000000490000000000049101559000000000000679800000000000326342800000000000000009999123100000010000000000000BRPFRMACNOR1112
012020092402PGCO34      010PG          DRN          R$  000000007561500000000756150000000075615000000007561500000000756150000000000000000000007561500001000000000000000050000000000003780750000000000000009999123100000010000000000000BRPGCOBDR001139
012020092402PGMN3       010PAGUE MENOS ON      NM   R$  000000000095700000000009700000000000930000000000095600000000009600000000000960000000000096800607000000000000400200000000000382981300000000000000009999123100000010000000000000BRPGMNACNOR8100
012020092402PINE4       010PINE        PN      N2   R$  000000000026000000000002720000000000258000000000026400000000002680000000000267000000000026800335000000000000209300000000000055327500000000000000009999123100000010000000000000BRPINEACNPR8144
012020092402PLAS3       010PLASCAR PARTON           R$  000000000045900000000004590000000000445000000000045000000000004490000000000435000000000044900004000000000000000400000000000000180200000000000000009999123100000010000000000000BRPLASACNOR2106
012020092402PLPL3       010PLANOEPLANO ON      NM   R$  000000000089000000000009240000000000872000000000090800000000009180000000000908000000000091802251000000000001642100000000001492440300000000000000009999123100000010000000000000BRPLPLACNOR5100
012020092402PMAM3       010PARANAPANEMAON      NM   R$  000000000103400000000010470000000001002000000000101900000000010200000000001015000000000102000439000000000000133300000000000135942000000000000000009999123100000010000000000000BRPMAMACNOR3037
012020092402PNVL3       010DIMED       ON           R$  000000000227800000000023140000000002224000000000227000000000022800000000002262000000000228001558000000000000347800000000000789619700000000000000009999123100000010000000000000BRPNVLACNOR9196
012020092402PNVL4       010DIMED       PN           R$  000000000201700000000020300000000001965000000000198900000000019990000000001990000000000199900551000000000000104700000000000208259400000000000000009999123100000010000000000000BRPNVLACNPR6196
012020092402POMO3       010MARCOPOLO   ON      N2   R$  000000000026200000000002660000000000259000000000026200000000002630000000000262000000000026300267000000000000108100000000000028384900000000000000009999123100000010000000000000BRPOMOACNOR0087
012020092402POMO4       010MARCOPOLO   PN      N2   R$  000000000027000000000002770000000000266000000000027100000000002720000000000272000000000027303144000000000006085000000000001653831600000000000000009999123100000010000000000000BRPOMOACNPR7087
012020092402POSI3       010POSITIVO TECON      NM   R$  000000000044300000000004520000000000434000000000044100000000004410000000000440000000000044102302000000000001696600000000000749250500000000000000009999123100000010000000000000BRPOSIACNOR9112
012020092402PPLA11      010PPLA        UNT          R$  000000000157000000000016300000000001526000000000155700000000015550000000001555000000000159400013000000000000002800000000000004360200000000000000009999123100000010000000000000BRPPLAUNT007101
012020092402PRIO3       010PETRORIO    ON      NM   R$  000000000348500000000037170000000003432000000000361100000000036500000000003650000000000365612461000000000003233300000000011677127000000000000000009999123100000010000000000000BRPRIOACNOR1102
012020092402PRNR3       010PRINER      ON      NM   R$  000000000089700000000009100000000000885000000000089600000000008850000000000885000000000089900559000000000000170300000000000152723200000000000000009999123100000010000000000000BRPRNRACNOR4105
012020092402PSSA3       010PORTO SEGUROON      NM   R$  000000000492800000000049920000000004889000000000493700000000049250000000004925000000000492705517000000000001139400000000005625603700000000000000009999123100000010000000000000BRPSSAACNOR7142
012020092402PTBL3       010PORTOBELLO  ON      NM   R$  000000000053000000000005580000000000521000000000054100000000005300000000000530000000000054203259000000000003450300000000001869732400000000000000009999123100000010000000000000BRPTBLACNOR8125
012020092402PTNT3       010PETTENATI   ON           R$  000000000049900000000005000000000000484000000000049600000000004990000000000486000000000049900012000000000000001500000000000000744500000000000000009999123100000010000000000000BRPTNTACNOR6039
012020092402PTNT4       010PETTENATI   PN           R$  000000000046200000000004730000000000459000000000046200000000004730000000000464000000000047300018000000000000004800000000000002222000000000000000009999123100000010000000000000BRPTNTACNPR3044
012020092402PYPL34      010PAYPAL HOLD DRN          R$  000000005119900000000511990000000049918000000005072400000000499180000000000000000000005890000014000000000000002800000000000142027980000000000000009999123100000010000000000000BRPYPLBDR002101
012020092402QUAL3       010QUALICORP   ON      NM   R$  000000000312500000000033200000000003092000000000325700000000032790000000003276000000000327923636000000000006086100000000019824052000000000000000009999123100000010000000000000BRQUALACNOR6113
012020092402RADL3       010RAIADROGASILON  EB  NM   R$  000000000229500000000023630000000002243000000000232900000000023400000000002339000000000234019665000000000005746800000000013389651700000000000000009999123100000010000000000000BRRADLACNOR0137
012020092402RAIL3       010RUMO S.A.   ON      NM   R$  000000000208000000000021280000000002058000000000208800000000020700000000002070000000000207117634000000000006247200000000013048685900000000000000009999123100000010000000000000BRRAILACNOR9101
012020092402RANI3       010IRANI       ON           R$  000000000048100000000004920000000000466000000000048000000000004890000000000488000000000048903132000000000001578100000000000757541000000000000000009999123100000010000000000000BRRANIACNOR5053
012020092402RANI4       010IRANI       PN           R$  000000000083000000000008320000000000820000000000082400000000008250000000000815000000000082500013000000000000002600000000000002144400000000000000009999123100000010000000000000BRRANIACNPR2054
012020092402RAPT3       010RANDON PART ON      N1   R$  000000000094000000000009890000000000935000000000096200000000009820000000000935000000000098000086000000000000013600000000000013087800000000000000009999123100000010000000000000BRRAPTACNOR7153
012020092402RAPT4       010RANDON PART PN      N1   R$  000000000116000000000012490000000001151000000000121000000000012020000000001202000000000120414898000000000005077000000000006144061400000000000000009999123100000010000000000000BRRAPTACNPR4153
012020092402RCSL3       010RECRUSUL    ON           R$  000000000020700000000002150000000000201000000000020700000000002080000000000202000000000020700088000000000000044200000000000009171100000000000000009999123100000010000000000000BRRCSLACNOR4130
012020092402RCSL4       010RECRUSUL    PN           R$  000000000016900000000001800000000000153000000000016600000000001550000000000155000000000015720217000000000016233200000000002709697400000000000000009999123100000010000000000000BRRCSLACNPR1130
012020092402RDNI3       010RNI         ON      NM   R$  000000000102500000000010500000000001000000000000101100000000010000000000001000000000000102500083000000000000020100000000000020333700000000000000009999123100000010000000000000BRRDNIACNOR9113
012020092402REDE3       010REDE ENERGIAON           R$  000000000105000000000010500000000001040000000000104000000000010450000000001032000000000104500003000000000000009600000000000009987500000000000000009999123100000010000000000000BRREDEACNOR7115
012020092402RENT3       010LOCALIZA    ON      NM   R$  000000000586000000000059150000000005736000000000582500000000057990000000005797000000000579933772000000000007790200000000045385134000000000000000009999123100000010000000000000BRRENTACNOR4179
012020092402RIGG34      010TRANSOCEAN  DRN          R$  000000000049000000000005070000000000470000000000050200000000005070000000000476000000000055500012000000000000007050000000000003540950000000000000009999123100000010000000000000BRRIGGBDR000100
012020092402RLOG3       010COSAN LOG   ON      NM   R$  000000000194000000000019730000000001922000000000194400000000019420000000001942000000000194303434000000000000762200000000001482086500000000000000009999123100000010000000000000BRRLOGACNOR4106
012020092402ROMI3       010INDS ROMI   ON      NM   R$  000000000112000000000011500000000001101000000000113100000000011290000000001126000000000112901710000000000000268100000000000303330900000000000000009999123100000010000000000000BRROMIACNOR8173
012020092402RPAD3       010ALFA HOLDINGON           R$  000000000059900000000005990000000000599000000000059900000000005990000000000599000000000062000001000000000000000100000000000000059900000000000000009999123100000010000000000000BRRPADACNOR1197
012020092402RPAD6       010ALFA HOLDINGPNB          R$  000000000054200000000005420000000000542000000000054200000000005420000000000541000000000060000001000000000000000100000000000000054200000000000000009999123100000010000000000000BRRPADACNPB2197
012020092402RSID3       010ROSSI RESID ON      NM   R$  000000000050400000000005400000000000496000000000051600000000005220000000000514000000000052200260000000000000099400000000000051381000000000000000009999123100000010000000000000BRRSIDACNOR8119
012020092402SANB3       010SANTANDER BRON           R$  000000000128300000000013080000000001253000000000128400000000012790000000001277000000000127900341000000000000082400000000000105870500000000000000009999123100000010000000000000BRSANBACNOR8153
012020092402SANB4       010SANTANDER BRPN           R$  000000000141800000000014650000000001418000000000144600000000014420000000001441000000000145500738000000000000144200000000000208537100000000000000009999123100000010000000000000BRSANBACNPR5153
012020092402SANB11      010SANTANDER BRUNT          R$  000000000267600000000027770000000002672000000000273800000000027440000000002741000000000274406824000000000001301700000000003564134700000000000000009999123100000010000000000000BRSANBCDAM13146
012020092402SAPR3       010SANEPAR     ON      N2   R$  000000000054900000000005580000000000549000000000055300000000005550000000000553000000000055500476000000000000141800000000000078462100000000000000009999123100000010000000000000BRSAPRACNOR9150
012020092402SAPR4       010SANEPAR     PN      N2   R$  000000000053600000000005460000000000534000000000054000000000005340000000000534000000000053803040000000000002022500000000001093556600000000000000009999123100000010000000000000BRSAPRACNPR6150
012020092402SAPR11      010SANEPAR     UNT     N2   R$  000000000269700000000027270000000002675000000000270900000000026900000000002689000000000269008740000000000002226900000000006032718500000000000000009999123100000010000000000000BRSAPRCDAM13109
012020092402SBSP3       010SABESP      ON      NM   R$  000000000478100000000049280000000004751000000000484100000000048200000000004820000000000482217313000000000003994900000000019343074200000000000000009999123100000010000000000000BRSBSPACNOR5157
012020092402SCAR3       010SAO CARLOS  ON      NM   R$  000000000373500000000037520000000003688000000000372400000000037280000000003688000000000372900033000000000000003500000000000013035300000000000000009999123100000010000000000000BRSCARACNOR7128
012020092402SEER3       010SER EDUCA   ON      NM   R$  000000000155900000000015650000000001509000000000153600000000015450000000001545000000000154606339000000000001232400000000001893952700000000000000009999123100000010000000000000BRSEERACNOR5115
012020092402SGPS3       010SPRINGS     ON      NM   R$  000000000067600000000006760000000000635000000000064700000000006600000000000660000000000066500663000000000000298800000000000193499100000000000000009999123100000010000000000000BRSGPSACNOR4104
012020092402SHOW3       010TIME FOR FUNON      NM   R$  000000000027800000000002780000000000269000000000027300000000002750000000000275000000000027600728000000000000400800000000000109661800000000000000009999123100000010000000000000BRSHOWACNOR7105
012020092402SHUL4       010SCHULZ      PN           R$  000000000117100000000012190000000001159000000000119200000000011890000000001185000000000118900438000000000000124800000000000148802900000000000000009999123100000010000000000000BRSHULACNPR4136
012020092402SIMH3       010SIMPAR      ON      NM   R$  000000000281900000000028980000000002800000000000284200000000028100000000002810000000000284101627000000000000285700000000000812143200000000000000009999123100000010000000000000BRSIMHACNOR0100
012020092402SIMN34      010SIMON PROP  DRN          R$  000000000870300000000087030000000008700000000000870200000000087020000000006666000000000000000003000000000000001470000000000012792600000000000000009999123100000010000000000000BRSIMNBDR002104
012020092402SLCE3       010SLC AGRICOLAON      NM   R$  000000000256000000000025810000000002531000000000255800000000025580000000002558000000000255903800000000000000994000000000002542916700000000000000009999123100000010000000000000BRSLCEACNOR2115
012020092402SMLS3       010SMILES      ON      NM   R$  000000000153700000000015630000000001514000000000153800000000015380000000001537000000000153805163000000000001179200000000001813733900000000000000009999123100000010000000000000BRSMLSACNOR1109
012020092402SMTO3       010SAO MARTINHOON      NM   R$  000000000222500000000023100000000002202000000000226200000000022430000000002243000000000225805145000000000000792300000000001792259500000000000000009999123100000010000000000000BRSMTOACNOR3117
012020092402SOMA3       010GRUPO SOMA  ON      NM   R$  000000000100000000000010230000000000994000000000100200000000010000000000000999000000000100003401000000000001439000000000001442468100000000000000009999123100000010000000000000BRSOMAACNOR3100
012020092402SQIA3       010SINQIA      ON      NM   R$  000000000220700000000022560000000002137000000000221300000000022280000000002228000000000223202518000000000000542100000000001200006200000000000000009999123100000010000000000000BRSQIAACNOR6102
012020092402SRXM34      010SIRIUS XM HDDRN          R$  000000000279200000000027920000000002792000000000279200000000027920000000000000000000000000000002000000000000002100000000000005863200000000000000009999123100000010000000000000BRSRXMBDR002104
012020092402SSFO34      010SALESFORCE  DRN          R$  000000006650000000000668630000000064985000000006601900000000649850000000033333000000000000000005000000000000000750000000000049514450000000000000009999123100000010000000000000BRSSFOBDR003100
012020092402STBP3       010SANTOS BRP  ON      NM   R$  000000000047200000000004750000000000433000000000044600000000004340000000000434000000000043514000000000000013587900000000006064668200000000000000009999123100000010000000000000BRSTBPACNOR3117
012020092402SULA3       010SUL AMERICA ON      N2   R$  000000000163100000000016970000000001631000000000167500000000016820000000001639000000000171000023000000000000002300000000000003854200000000000000009999123100000010000000000000BRSULAACNOR2141
012020092402SULA4       010SUL AMERICA PN      N2   R$  000000000120700000000012340000000001201000000000121200000000012160000000001209000000000121700025000000000000003200000000000003879700000000000000009999123100000010000000000000BRSULAACNPR9141
012020092402SULA11      010SUL AMERICA UNT     N2   R$  000000000405700000000041370000000004002000000000409900000000041230000000004115000000000412313779000000000002958500000000012128375000000000000000009999123100000010000000000000BRSULACDAM12141
012020092402SUZB3       010SUZANO S.A. ON      NM   R$  000000000465300000000047070000000004538000000000462300000000046000000000004600000000000460114155000000000004358100000000020149684900000000000000009999123100000010000000000000BRSUZBACNOR0124
012020092402TAEE3       010TAESA       ON      N2   R$  000000000094800000000009500000000000938000000000094500000000009450000000000945000000000095000239000000000000039800000000000037622400000000000000009999123100000010000000000000BRTAEEACNOR9132
012020092402TAEE4       010TAESA       PN      N2   R$  000000000094100000000009540000000000941000000000094800000000009520000000000946000000000095300337000000000000072700000000000068932200000000000000009999123100000010000000000000BRTAEEACNPR6132
012020092402TAEE11      010TAESA       UNT     N2   R$  000000000282700000000028600000000002821000000000284200000000028500000000002846000000000285007512000000000002074400000000005896340600000000000000009999123100000010000000000000BRTAEECDAM10132
012020092402TASA3       010TAURUS ARMASON      N2   R$  000000000077500000000008070000000000762000000000078300000000007920000000000776000000000079200322000000000000089000000000000069757500000000000000009999123100000010000000000000BRTASAACNOR7100
012020092402TASA4       010TAURUS ARMASPN      N2   R$  000000000080400000000008450000000000797000000000082600000000008300000000000824000000000083003673000000000002104100000000001738479400000000000000009999123100000010000000000000BRTASAACNPR4100
012020092402TCSA3       010TECNISA     ON      NM   R$  000000000096000000000009770000000000934000000000095800000000009600000000000960000000000096104887000000000001488900000000001426503100000000000000009999123100000010000000000000BRTCSAACNOR3112
012020092402TECN3       010TECHNOS     ON      NM   R$  000000000010200000000001040000000000101000000000010200000000001020000000000102000000000010300530000000000000427600000000000043947000000000000000009999123100000010000000000000BRTECNACNOR6106
012020092402TELB3       010TELEBRAS    ON           R$  000000001020000000000102990000000010190000000001020800000000102100000000010200000000001030000011000000000000001200000000000012249900000000000000009999123100000010000000000000BRTELBACNOR2139
012020092402TELB4       010TELEBRAS    PN           R$  000000000304200000000031500000000003016000000000310700000000031500000000003068000000000315000060000000000000013400000000000041633900000000000000009999123100000010000000000000BRTELBACNPR9139
012020092402TEND3       010TENDA       ON      NM   R$  000000000277100000000028740000000002728000000000283300000000028440000000002841000000000284406931000000000001124800000000003187391000000000000000009999123100000010000000000000BRTENDACNOR4108
012020092402TESA3       010TERRA SANTA ON      NM   R$  000000000175300000000017990000000001730000000000176600000000017700000000001770000000000178700203000000000000031700000000000055993700000000000000009999123100000010000000000000BRTESAACNOR9101
012020092402TGMA3       010TEGMA       ON      NM   R$  000000000221000000000022940000000002200000000000224400000000022500000000002226000000000225104819000000000001168400000000002622584100000000000000009999123100000010000000000000BRTGMAACNOR7133
012020092402TIET3       010AES TIETE E ON      N2   R$  000000000029400000000002950000000000291000000000029200000000002940000000000294000000000029500768000000000000229100000000000067123200000000000000009999123100000010000000000000BRTIETACNOR0125
012020092402TIET4       010AES TIETE E PN      N2   R$  000000000029400000000002940000000000290000000000029200000000002940000000000293000000000029401498000000000001028800000000000300426800000000000000009999123100000010000000000000BRTIETACNPR7125
012020092402TIET11      010AES TIETE E UNT     N2   R$  000000000146100000000014720000000001447000000000145900000000014640000000001464000000000146506891000000000001876000000000002738189300000000000000009999123100000010000000000000BRTIETCDAM15125
