00COTAHIST.2020BOVESPA 20200904                                                                                                                                                                                                                      
012020090402A1BM34      010ABIOMED INC DRN          R$  000000003705000000000370500000000037050000000003705000000000370500000000000000000000000000000011000000000000000110000000000004075500000000000000009999123100000010000000000000BRA1BMBDR006100
012020090402A1DI34      010ANALOG DEVICDRN ED       R$  000000003066100000000312580000000030661000000003076500000000312580000000000000000000000000000005000000000000004920000000000151364240000000000000009999123100000010000000000000BRA1DIBDR000103
012020090402A1DM34      010ARCHER DANIEDRN          R$  000000002469100000000246910000000024660000000002468200000000246910000000000000000000000000000004000000000000000070000000000001727750000000000000009999123100000010000000000000BRA1DMBDR002103
012020090402A1EP34      010AMERICAN ELEDRN          R$  000000002100100000000210310000000021001000000002101700000000210310000000000000000000000000000007000000000000002260000000000047498440000000000000009999123100000010000000000000BRA1EPBDR003103
012020090402A1FL34      010AFLAC INC   DRN          R$  000000001998100000000201010000000019981000000002006100000000201010000000000000000000000000000007000000000000001960000000000039320540000000000000009999123100000010000000000000BRA1FLBDR009103
012020090402A1KA34      010AKAMAI TECHNDRN          R$  000000002867800000000289130000000028678000000002887000000000289130000000000000000000000000000002000000000000003290000000000094982770000000000000009999123100000010000000000000BRA1KABDR002100
012020090402A1LK34      010ALASKA AIR GDRN          R$  000000002104500000000210450000000021045000000002104500000000210450000000000000000000000000000002000000000000000200000000000004209000000000000000009999123100000010000000000000BRA1LKBDR009101
012020090402A1LX34      010ALEXION PHARDRN          R$  000000002952100000000300290000000029521000000003002000000000300170000000000000000000000000000004000000000000001260000000000037825720000000000000009999123100000010000000000000BRA1LXBDR002100
012020090402A1MD34      010ADVANCED MICDRN          R$  000000004299700000000432890000000040804000000004258900000000432890000000041732000000005250000043000000000000006000000000000255536730000000000000009999123100000010000000000000BRA1MDBDR002100
012020090402A1MT34      010APPLIED MATEDRN          R$  000000003218100000000326100000000032181000000003224200000000326100000000000000000000000000000007000000000000006190000000000199579020000000000000009999123100000010000000000000BRA1MTBDR008103
012020090402A1OS34      010AO SMITH CORDRN          R$  000000002603600000000260360000000025927000000002603200000000259270000000000000000000000000000003000000000000000310000000000008070070000000000000009999123100000010000000000000BRA1OSBDR006103
012020090402A1PA34      010APACHE CORP DRN          R$  000000000769900000000077210000000007651000000000769700000000077210000000000000000000000000000006000000000000000760000000000005850280000000000000009999123100000010000000000000BRA1PABDR001103
012020090402A1UT34      010AUTODESK INCDRN          R$  000000003074900000000311990000000030749000000003104200000000311990000000000000000000000000000016000000000000003660000000000113614160000000000000009999123100000010000000000000BRA1UTBDR001100
012020090402A1WK34      010AMERICAN WATDRN          R$  000000001914000000000191400000000019140000000001914000000000191400000000000000000000000000000001000000000000000030000000000000574200000000000000009999123100000010000000000000BRA1WKBDR006103
012020090402AALL34      010AMERICAN AIRDRN          R$  000000000717800000000072010000000006927000000000711200000000071870000000005333000000000840000018000000000000003650000000000025959030000000000000009999123100000010000000000000BRAALLBDR003115
012020090402AALR3       010ALLIAR      ON      NM   R$  000000000123100000000012780000000001174000000000124500000000012600000000001247000000000126004396000000000001453500000000001810794500000000000000009999123100000010000000000000BRAALRACNOR6102
012020090402AAPL34      010APPLE       DRN EB       R$  000000000632000000000065090000000005900000000000626100000000064500000000006440000000000645002857000000000001041190000000006518983680000000000000009999123100000010000000000000BRAAPLBDR004135
012020090402ABBV34      010ABBVIE      DRN          R$  000000004887100000000491390000000048210000000004853300000000490000000000000000000000000000000043000000000000015750000000000764397730000000000000009999123100000010000000000000BRABBVBDR001118
012020090402ABCB4       010ABC BRASIL  PN      N2   R$  000000000138400000000013980000000001356000000000137800000000013880000000001388000000000139105357000000000001000800000000001379639500000000000000009999123100000010000000000000BRABCBACNPR4134
012020090402ABEV3       010AMBEV S/A   ON           R$  000000000126900000000012720000000001241000000000125400000000012600000000001260000000000126132384000000000022149500000000027793320500000000000000009999123100000010000000000000BRABEVACNOR1122
012020090402ABTT34      010ABBOTT      DRN          R$  000000001370400000000139190000000013660000000001371200000000139190000000000000000000001799500045000000000000063500000000000870720010000000000000009999123100000010000000000000BRABTTBDR007135
012020090402ABUD34      010AB INBEV    DRN          R$  000000003071900000000309080000000030686000000003073500000000308100000000000000000000000000000033000000000000018360000000000564303620000000000000009999123100000010000000000000BRABUDBDR009102
012020090402ACNB34      010ACCENTURE   DRN          R$  000000012440000000001265150000000124400000000012474900000001265150000000000000000000000000000028000000000000005210000000000649946770000000000000009999123100000010000000000000BRACNBBDR006112
012020090402ADBE34      010ADOBE INC   DRN          R$  000000005100600000000526400000000050799000000005189500000000526400000000000000000000000000000073000000000000034100000000001769646250000000000000009999123100000010000000000000BRADBEBDR003100
012020090402ADHM3       010ADVANCED-DH ON           R$  000000000021900000000002220000000000211000000000021400000000002110000000000214000000000022000014000000000000003000000000000000643000000000000000009999123100000010000000000000BRADHMACNOR9102
012020090402ADPR34      010AUTOMATIC DTDRN          R$  000000003644800000000370990000000036448000000003652200000000370990000000030825000000000000000004000000000000005200000000000189915900000000000000009999123100000010000000000000BRADPRBDR005104
012020090402AFLT3       010AFLUENTE T  ON           R$  000000000102800000000010500000000001025000000000102900000000010500000000001020000000000105000007000000000000000700000000000000720900000000000000009999123100000010000000000000BRAFLTACNOR1115
012020090402AGRO3       010BRASILAGRO  ON      NM   R$  000000000213500000000021370000000002089000000000211000000000021010000000002101000000000211000775000000000000142800000000000301360400000000000000009999123100000010000000000000BRAGROACNOR7109
012020090402AHEB3       010SPTURIS     ON           R$  000000000274900000000027490000000002470000000000256200000000024700000000002453000000000274000033000000000000004500000000000011532900000000000000009999123100000010000000000000BRAHEBACNOR0106
012020090402AIGB34      010AIG GROUP   DRN          R$  000000001586200000000159000000000015862000000001588000000000158830000000000000000000000000000006000000000000002920000000000046370490000000000000009999123100000010000000000000BRAIGBBDR007115
012020090402ALPA3       010ALPARGATAS  ON      N1   R$  000000000339000000000034000000000003390000000000339100000000034000000000003360000000000340000006000000000000000600000000000002035000000000000000009999123100000010000000000000BRALPAACNOR0229
012020090402ALPA4       010ALPARGATAS  PN      N1   R$  000000000374800000000037800000000003621000000000370500000000037100000000003710000000000372805501000000000001309100000000004850289300000000000000009999123100000010000000000000BRALPAACNPR7229
012020090402ALPK3       010ESTAPAR     ON      NM   R$  000000000096800000000009680000000000946000000000095600000000009460000000000946000000000096600066000000000000013500000000000012913900000000000000009999123100000010000000000000BRALPKACNOR9100
012020090402ALSO3       010ALIANSCSONAEON      NM   R$  000000000270000000000027530000000002630000000000270800000000027400000000002736000000000274007263000000000001203000000000003257754800000000000000009999123100000010000000000000BRALSOACNOR5100
012020090402ALUP3       010ALUPAR      ON      N2   R$  000000000095600000000009650000000000938000000000094900000000009490000000000948000000000095700062000000000000007300000000000006929900000000000000009999123100000010000000000000BRALUPACNOR8111
012020090402ALUP4       010ALUPAR      PN      N2   R$  000000000071200000000007130000000000701000000000070700000000007050000000000705000000000071200090000000000000013300000000000009404900000000000000009999123100000010000000000000BRALUPACNPR5111
012020090402ALUP11      010ALUPAR      UNT     N2   R$  000000000238200000000023870000000002345000000000236800000000023840000000002372000000000238404004000000000000816800000000001934586800000000000000009999123100000010000000000000BRALUPCDAM15111
012020090402AMAR3       010LOJAS MARISAON      NM   R$  000000000086200000000008640000000000788000000000082600000000008430000000000840000000000084312379000000000007382800000000006102742500000000000000009999123100000010000000000000BRAMARACNOR4112
012020090402AMBP3       010AMBIPAR     ON      NM   R$  000000000317400000000032350000000003069000000000312700000000031700000000003126000000000317001186000000000000256100000000000800972600000000000000009999123100000010000000000000BRAMBPACNOR6100
012020090402AMGN34      010AMGEN       DRN          R$  000000013280000000001328940000000130097000000013092100000001328010000000000000000000000000000035000000000000005950000000000778984720000000000000009999123100000010000000000000BRAMGNBDR004135
012020090402AMZO34      010AMAZON      DRN          R$  000000087960000000008900000000000826000000000086212300000008770110000000883400000000092000000196000000000000006230000000005371027990000000000000009999123100000010000000000000BRAMZOBDR002101
012020090402ANIM3       010ANIMA       ON      NM   R$  000000000304100000000030900000000002957000000000302700000000030900000000003088000000000309003415000000000000728500000000002205213200000000000000009999123100000010000000000000BRANIMACNOR6106
012020090402APER3       010ALPER S.A.  ON      NM   R$  000000000283500000000029970000000002811000000000289700000000029800000000002900000000000298000138000000000000038000000000000110104200000000000000009999123100000010000000000000BRAPERACNOR9102
012020090402APTV34      010APTIV PLC   DRN          R$  000000002277200000000229530000000022741000000002291200000000229510000000000000000000000000000006000000000000003440000000000078818450000000000000009999123100000010000000000000BRAPTVBDR003102
012020090402ARMT34      010ARCELOR     DRN          R$  000000000340800000000034460000000003376000000000342000000000034460000000002764000000000380000011000000000000019660000000000067252000000000000000009999123100000010000000000000BRARMTBDR008117
012020090402ARNC34      010HOWMET AERO DRN          R$  000000000951100000000095110000000009451000000000947300000000094510000000000000000000000000000004000000000000001330000000000012599490000000000000009999123100000010000000000000BRARNCBDR002115
012020090402ARZZ3       010AREZZO CO   ON      NM   R$  000000000586300000000059500000000005703000000000584400000000058830000000005883000000000588503090000000000000413400000000002415929500000000000000009999123100000010000000000000BRARZZACNOR3137
012020090402ASML34      010ASML HOLD   DRN          R$  000000019250000000001952010000000189001000000019306500000001952010000000000000000000000000000020000000000000004460000000000861071390000000000000009999123100000010000000000000BRASMLBDR003102
012020090402ATOM3       010ATOMPAR     ON           R$  000000000029600000000003120000000000296000000000030500000000003080000000000305000000000030900228000000000000168300000000000051444900000000000000009999123100000010000000000000BRATOMACNOR1103
012020090402ATTB34      010ATT INC     DRN          R$  000000001573300000000157590000000015510000000001570800000000156920000000015100000000001569200015000000000000007710000000000121113550000000000000009999123100000010000000000000BRATTBBDR007132
012020090402ATVI34      010ACTIVISION  DRN          R$  000000004200000000000421200000000041200000000004137800000000421200000000042120000000000000000008000000000000005030000000000208132470000000000000009999123100000010000000000000BRATVIBDR008101
012020090402AURA32      010AURA 360    DR2 EB       R$  000000000659900000000066000000000006416000000000651500000000066000000000006600000000000663500242000000000000066500000000000433250100000000000000009999123100000010000000000000BRAURABDR001102
012020090402AVGO34      010BROADCOM INCDRN          R$  000000003775000000000391190000000037750000000003837900000000390560000000000000000000000000000038000000000000008520000000000326990820000000000000009999123100000010000000000000BRAVGOBDR003105
012020090402AWII34      010ARMSTRONG   DRN          R$  000000003765100000000379510000000037651000000003781700000000379510000000000000000000000000000003000000000000000140000000000005294500000000000000009999123100000010000000000000BRAWIIBDR009104
012020090402AXPB34      010AMERICAN EXPDRN          R$  000000005617500000000562390000000055750000000005600100000000562390000000047800000000000000000006000000000000001740000000000097442380000000000000009999123100000010000000000000BRAXPBBDR007133
012020090402AZEV3       010AZEVEDO     ON           R$  000000000105000000000011000000000001011000000000107600000000010400000000001015000000000109800012000000000000003500000000000003768700000000000000009999123100000010000000000000BRAZEVACNOR0117
012020090402AZEV4       010AZEVEDO     PN           R$  000000000036100000000003780000000000359000000000036700000000003700000000000369000000000037000040000000000000011000000000000004045100000000000000009999123100000010000000000000BRAZEVACNPR7117
012020090402AZOI34      010AUTOZONE INCDRN          R$  000000003192100000000321010000000031921000000003202900000000321010000000000000000000000000000009000000000000001670000000000053488670000000000000009999123100000010000000000000BRAZOIBDR000100
012020090402AZUL4       010AZUL        PN      N2   R$  000000000242100000000024800000000002379000000000243600000000024590000000002459000000000246038613000000000016928000000000041245212100000000000000009999123100000010000000000000BRAZULACNPR4100
012020090402B1BT34      010TRUIST FINANDRN          R$  000000002068600000000209100000000020686000000002081100000000209100000000000000000000000000000008000000000000003780000000000078666650000000000000009999123100000010000000000000BRB1BTBDR000103
012020090402B1DX34      010BECTON DICKIDRN          R$  000000002497800000000251630000000024978000000002508800000000251630000000000000000000000000000015000000000000005600000000000140495600000000000000009999123100000010000000000000BRB1DXBDR008102
012020090402B1KR34      010BAKER HUGHESDRN          R$  000000000768100000000077800000000007681000000000775400000000077800000000000000000000000000000003000000000000000070000000000000542810000000000000009999123100000010000000000000BRB1KRBDR005103
012020090402B1SX34      010BOSTON SCIENDRN          R$  000000002191600000000221690000000021916000000002207500000000221690000000000000000000000000000006000000000000002670000000000058942530000000000000009999123100000010000000000000BRB1SXBDR006100
012020090402B3SA3       010B3          ON      NM   R$  000000000580000000000058330000000005610000000000577100000000058330000000005830000000000583351535000000000030338400000000175107469400000000000000009999123100000010000000000000BRB3SAACNOR6111
012020090402BABA34      010ALIBABAGR   DRN          R$  000000014705500000001520790000000142932000000014717800000001520790000000152078000000015490000116000000000000020620000000003034818700000000000000009999123100000010000000000000BRBABABDR005100
012020090402BALM3       010BAUMER      ON           R$  000000000169100000000017990000000001690000000000172600000000017990000000001660000000000178500003000000000000000300000000000000518000000000000000009999123100000010000000000000BRBALMACNOR5050
012020090402BALM4       010BAUMER      PN           R$  000000000117300000000012090000000001173000000000118400000000012090000000001174000000000120900011000000000000002500000000000002961500000000000000009999123100000010000000000000BRBALMACNPR2051
012020090402BAUH4       010EXCELSIOR   PN           R$  000000000899900000000089990000000008999000000000899900000000089990000000008400000000000900000003000000000000000600000000000005399400000000000000009999123100000010000000000000BRBAUHACNPR3115
012020090402BAZA3       010AMAZONIA    ON           R$  000000000404000000000040990000000004040000000000407300000000040990000000004050000000000409900009000000000000001700000000000006925000000000000000009999123100000010000000000000BRBAZAACNOR0174
012020090402BBAS3       010BRASIL      ON      NM   R$  000000000341000000000034370000000003333000000000339200000000033950000000003395000000000340038511000000000020865000000000070779266900000000000000009999123100000010000000000000BRBBASACNOR3292
012020090402BBDC3       010BRADESCO    ON  EJ  N1   R$  000000000205700000000020670000000002010000000000203200000000020320000000002032000000000203515777000000000008644800000000017572587300000000000000009999123100000010000000000000BRBBDCACNOR1715
012020090402BBDC4       010BRADESCO    PN  EJ  N1   R$  000000000222900000000022440000000002178000000000220500000000021970000000002197000000000219857670000000000047532900000000104823058300000000000000009999123100000010000000000000BRBBDCACNPR8715
012020090402BBRK3       010BR BROKERS  ON      NM   R$  000000000017400000000001750000000000169000000000017200000000001740000000000173000000000017400766000000000000469800000000000081108500000000000000009999123100000010000000000000BRBBRKACNOR4113
012020090402BBSE3       010BBSEGURIDADEON      NM   R$  000000000270000000000027080000000002650000000000268600000000027000000000002695000000000270014886000000000003416400000000009176991200000000000000009999123100000010000000000000BRBBSEACNOR5117
012020090402BBYY34      010BEST BUY    DRN          R$  000000005640000000000568010000000056400000000005668400000000568010000000000000000000006200000006000000000000001130000000000064053840000000000000009999123100000010000000000000BRBBYYBDR005113
012020090402BCSA34      010SANTANDER   DRN          R$  000000000118800000000012030000000001177000000000119700000000011970000000001190000000000120500089000000000000072610000000000086977000000000000000009999123100000010000000000000BRBCSABDR005101
012020090402BEEF3       010MINERVA     ON      NM   R$  000000000127600000000012900000000001226000000000125700000000012730000000001273000000000127417078000000000007245300000000009114415200000000000000009999123100000010000000000000BRBEEFACNOR6108
012020090402BEES3       010BANESTES    ON  EJ       R$  000000000054200000000005430000000000539000000000054100000000005420000000000541000000000054300071000000000000012500000000000006765600000000000000009999123100000010000000000000BRBEESACNOR9339
012020090402BEES4       010BANESTES    PN  EJ       R$  000000000056000000000005700000000000560000000000056400000000005650000000000562000000000057000011000000000000001100000000000000621200000000000000009999123100000010000000000000BRBEESACNPR6264
012020090402BERK34      010BERKSHIRE   DRN          R$  000000011540100000001166500000000114538000000011605000000001162130000000114500000000011680500041000000000000003730000000000432868410000000000000009999123100000010000000000000BRBERKBDR002100
012020090402BGIP3       010BANESE      ON           R$  000000000458100000000048500000000004400000000000465600000000046800000000004300000000000469000061000000000000008400000000000039110800000000000000009999123100000010000000000000BRBGIPACNOR1199
012020090402BGIP4       010BANESE      PN           R$  000000000269900000000027490000000002699000000000272700000000027480000000002665000000000274900006000000000000000600000000000001636200000000000000009999123100000010000000000000BRBGIPACNPR8199
012020090402BHPG34      010BHP GROUP   DRN ED       R$  000000002805100000000285330000000028051000000002837400000000285330000000000000000000000000000016000000000000004830000000000137047830000000000000009999123100000010000000000000BRBHPGBDR007102
012020090402BIDI3       010BANCO INTER ON      N2   R$  000000000204400000000020440000000001867000000000191400000000018840000000001884000000000188805117000000000000819300000000001568493200000000000000009999123100000010000000000000BRBIDIACNOR3107
012020090402BIDI4       010BANCO INTER PN      N2   R$  000000000225000000000022610000000002080000000000214500000000021370000000002137000000000214013371000000000004020500000000008624152400000000000000009999123100000010000000000000BRBIDIACNPR0111
012020090402BIDI11      010BANCO INTER UNT     N2   R$  000000000650000000000065800000000006025000000000616700000000061060000000006106000000000612714061000000000002797700000000017255948700000000000000009999123100000010000000000000BRBIDICDAXX3106
012020090402BIDU34      010BAIDU INC   DRN          R$  000000006360000000000644980000000063600000000006418300000000644980000000000000000000000000000007000000000000000960000000000061616560000000000000009999123100000010000000000000BRBIDUBDR002100
012020090402BIIB34      010BIOGEN      DRN          R$  000000002432000000000247780000000024320000000002460200000000247780000000000000000000000000000005000000000000000220000000000005412640000000000000009999123100000010000000000000BRBIIBBDR001101
012020090402BILB34      010BILBAOVIZ   DRN          R$  000000000160900000000016090000000001600000000000160300000000016050000000000000000000000000000005000000000000021390000000000034288950000000000000009999123100000010000000000000BRBILBBDR005101
012020090402BIOM3       010BIOMM       ON      MA   R$  000000000158500000000015970000000001570000000000158000000000015900000000001590000000000159900059000000000000015000000000000023701900000000000000009999123100000010000000000000BRBIOMACNOR2107
012020090402BKBR3       010BK BRASIL   ON      NM   R$  000000000114300000000011430000000001094000000000111900000000011350000000001131000000000113504038000000000000911600000000001020434200000000000000009999123100000010000000000000BRBKBRACNOR4103
012020090402BKNG34      010BOOKING     DRN          R$  000000004104000000000411890000000040635000000004098700000000409430000000040700000000005000000013000000000000004420000000000181166150000000000000009999123100000010000000000000BRBKNGBDR006100
012020090402BLAK34      010BLACKROCK   DRN ED       R$  000000005450300000000545030000000050079000000005037100000000503990000000000000000000000000000007000000000000000820000000000041304450000000000000009999123100000010000000000000BRBLAKBDR003118
012020090402BMEB3       010MERC BRASIL ON           R$  000000000158000000000016700000000001550000000000160300000000015700000000001581000000000165000024000000000000005600000000000008977600000000000000009999123100000010000000000000BRBMEBACNOR8196
012020090402BMEB4       010MERC BRASIL PN           R$  000000000153500000000015790000000001535000000000155200000000015690000000001540000000000156900018000000000000012400000000000019255900000000000000009999123100000010000000000000BRBMEBACNPR5201
012020090402BMGB4       010BANCO BMG   PN      N1   R$  000000000053500000000005530000000000515000000000053600000000005340000000000533000000000054008705000000000004535600000000002435237100000000000000009999123100000010000000000000BRBMGBACNPR0101
012020090402BMIN3       010MERC INVEST ON           R$  000000000225000000000022500000000002100000000000215700000000021000000000002013000000000219000008000000000000000800000000000001726200000000000000009999123100000010000000000000BRBMINACNOR4168
012020090402BMKS3       010BIC MONARK  ON           R$  000000002210000000000238000000000022100000000002303900000000237500000000022204000000002395000028000000000000000615000000000014169520000000000000009999123100000010000000000000BRBMKSACNOR9162
012020090402BMYB34      010BRISTOLMYERSDRN          R$  000000003193900000000320990000000031750000000003195500000000320050000000028400000000000000000040000000000000008900000000000284405400000000000000009999123100000010000000000000BRBMYBBDR000127
012020090402BNBR3       010NORD BRASIL ON           R$  000000000839900000000084000000000008000000000000824400000000083500000000008000000000000835000010000000000000001000000000000008244900000000000000009999123100000010000000000000BRBNBRACNOR8200
012020090402BOAC34      010BANK AMERICADRN ED       R$  000000001372300000000141650000000013723000000001411100000000141520000000013500000000001415200017000000000000004050000000000057149910000000000000009999123100000010000000000000BRBOACBDR004140
012020090402BOBR4       010BOMBRIL     PN           R$  000000000020300000000002060000000000200000000000020100000000002030000000000202000000000020400166000000000000049600000000000010017200000000000000009999123100000010000000000000BRBOBRACNPR3128
012020090402BOEI34      010BOEING      DRN          R$  000000009069900000000910000000000090500000000009085700000000910000000000085000000000009690000004000000000000000190000000000017262960000000000000009999123100000010000000000000BRBOEIBDR003132
012020090402BONY34      010BNY MELLON  DRN          R$  000000002000100000000200430000000019941000000001998400000000200430000000018600000000000000000012000000000000003380000000000067547740000000000000009999123100000010000000000000BRBONYBDR001120
012020090402BOXP34      010BOSTON PROP DRN          R$  000000000467800000000046780000000004646000000000465200000000046460000000004400000000000592000007000000000000004870000000000022657340000000000000009999123100000010000000000000BRBOXPBDR008120
012020090402BPAC3       010BTGP BANCO  ON      N2   R$  000000000458500000000047480000000004410000000000458100000000047480000000004601000000000474900055000000000000006100000000000027949700000000000000009999123100000010000000000000BRBPACACNOR7122
012020090402BPAC5       010BTGP BANCO  PNA     N2   R$  000000000177700000000017770000000001698000000000171400000000017400000000001745000000000176000040000000000000006000000000000010286900000000000000009999123100000010000000000000BRBPACACNPA0122
012020090402BPAC11      010BTGP BANCO  UNT     N2   R$  000000000819300000000082850000000007757000000000795300000000079500000000007950000000000797922677000000000006429300000000051134101800000000000000009999123100000010000000000000BRBPACUNT006107
012020090402BPAN4       010BANCO PAN   PN      N1   R$  000000000091000000000009420000000000898000000000091900000000009250000000000924000000000092511173000000000007490000000000006890206700000000000000009999123100000010000000000000BRBPANACNPR1109
012020090402BRAP3       010BRADESPAR   ON      N1   R$  000000000387400000000039000000000003807000000000384400000000038670000000003867000000000396800120000000000000043500000000000167256400000000000000009999123100000010000000000000BRBRAPACNOR5136
012020090402BRAP4       010BRADESPAR   PN      N1   R$  000000000438600000000044470000000004316000000000439500000000044300000000004426000000000443011359000000000002130200000000009363567800000000000000009999123100000010000000000000BRBRAPACNPR2136
012020090402BRDT3       010PETROBRAS BRON      NM   R$  000000000220000000000022650000000002174000000000223200000000022380000000002238000000000224131605000000000027347000000000061057194800000000000000009999123100000010000000000000BRBRDTACNOR1120
012020090402BRFS3       010BRF SA      ON      NM   R$  000000000199000000000020080000000001941000000000197500000000019980000000001998000000000199918742000000000007764700000000015337907800000000000000009999123100000010000000000000BRBRFSACNOR8119
012020090402BRGE8       010ALFA CONSORCPND          R$  000000000077000000000008000000000000770000000000078500000000008000000000000760000000000081000002000000000000000200000000000000157000000000000000009999123100000010000000000000BRBRGEACNPD3214
012020090402BRGE12      010ALFA CONSORCPNF          R$  000000000060000000000006000000000000600000000000060000000000006000000000000591000000000062500002000000000000000500000000000000300000000000000000009999123100000010000000000000BRBRGEACNPF8096
012020090402BRIV3       010ALFA INVEST ON           R$  000000000079900000000008000000000000799000000000079900000000008000000000000761000000000081000003000000000000000800000000000000639800000000000000009999123100000010000000000000BRBRIVACNOR6205
012020090402BRIV4       010ALFA INVEST PN           R$  000000000073600000000007360000000000731000000000073100000000007310000000000733000000000074500004000000000000001800000000000001317100000000000000009999123100000010000000000000BRBRIVACNPR3211
012020090402BRKM3       010BRASKEM     ON      N1   R$  000000000223000000000022530000000002189000000000222100000000022380000000002206000000000223800047000000000000007700000000000017102700000000000000009999123100000010000000000000BRBRKMACNOR1117
012020090402BRKM5       010BRASKEM     PNA     N1   R$  000000000211200000000021980000000002090000000000216400000000021880000000002185000000000218814186000000000003991400000000008638191100000000000000009999123100000010000000000000BRBRKMACNPA4117
012020090402BRML3       010BR MALLS PARON      NM   R$  000000000093900000000009530000000000903000000000093100000000009450000000000945000000000094633425000000000017333000000000016152366300000000000000009999123100000010000000000000BRBRMLACNOR9115
012020090402BRPR3       010BR PROPERT  ON      NM   R$  000000000092500000000009400000000000896000000000091800000000009310000000000931000000000093507843000000000002480900000000002279941000000000000000009999123100000010000000000000BRBRPRACNOR9119
012020090402BRSR3       010BANRISUL    ON      N1   R$  000000000149500000000015050000000001479000000000149500000000015000000000001483000000000150500034000000000000006900000000000010320800000000000000009999123100000010000000000000BRBRSRACNOR3168
012020090402BRSR5       010BANRISUL    PNA     N1   R$  000000000209000000000020900000000002090000000000209000000000020900000000001940000000000209000001000000000000000100000000000000209000000000000000009999123100000010000000000000BRBRSRACNPA6172
012020090402BRSR6       010BANRISUL    PNB     N1   R$  000000000136000000000013830000000001340000000000136200000000013680000000001368000000000136914703000000000003612100000000004923133800000000000000009999123100000010000000000000BRBRSRACNPB4171
012020090402BSEV3       010BIOSEV      ON      NM   R$  000000000042500000000004540000000000414000000000043900000000004350000000000435000000000043800343000000000000213300000000000093832800000000000000009999123100000010000000000000BRBSEVACNOR3102
012020090402BTOW3       010B2W DIGITAL ON      NM   R$  000000001026800000000103080000000009584000000000994900000000102300000000010223000000001023036117000000000007001000000000069657286100000000000000009999123100000010000000000000BRBTOWACNOR8111
012020090402BTTL3       010BATTISTELLA ON           R$  000000000125000000000013500000000001210000000000131400000000013300000000001310000000000133000162000000000000031900000000000041924200000000000000009999123100000010000000000000BRBTTLACNOR0108
012020090402C1AG34      010CONAGRA BRANDRN          R$  000000001958100000000196870000000019581000000001966000000000196870000000000000000000000000000003000000000000000060000000000001179620000000000000009999123100000010000000000000BRC1AGBDR008103
012020090402C1AH34      010CARDINAL HEADRN          R$  000000002631100000000265190000000026311000000002646700000000265190000000000000000000000000000002000000000000000040000000000001058680000000000000009999123100000010000000000000BRC1AHBDR006103
012020090402C1BS34      010VIACOMCBS   DRN          R$  000000001514100000000151410000000015081000000001509600000000150810000000000000000000000000000002000000000000000040000000000000603840000000000000009999123100000010000000000000BRC1BSBDR001103
012020090402C1CI34      010CROWN CASTLEDRN          R$  000000002123800000000212780000000021238000000002126300000000212690000000000000000000000000000009000000000000006840000000000145442340000000000000009999123100000010000000000000BRC1CIBDR000102
012020090402C1CL34      010CARNIVAL CORDRN          R$  000000000965600000000098590000000009269000000000958900000000098590000000005616000000001300000045000000000000006270000000000060124500000000000000009999123100000010000000000000BRC1CLBDR004101
012020090402C1FG34      010CITIZENS FINDRN          R$  000000001426200000000144620000000014262000000001439400000000144620000000000000000000000000000003000000000000000060000000000000863680000000000000009999123100000010000000000000BRC1FGBDR007102
012020090402C1FI34      010CF INDUSTRIEDRN          R$  000000001764100000000176410000000017622000000001762800000000176220000000000000000000000000000002000000000000000030000000000000528850000000000000009999123100000010000000000000BRC1FIBDR003103
012020090402C1HR34      010CH ROBINSON DRN ED       R$  000000002596400000000259640000000025964000000002596400000000259640000000000000000000000000000001000000000000003660000000000095028240000000000000009999123100000010000000000000BRC1HRBDR000103
012020090402C1IC34      010CIGNA CORP  DRN          R$  000000002363600000000238780000000023636000000002378000000000238780000000000000000000000000000014000000000000006330000000000150527640000000000000009999123100000010000000000000BRC1ICBDR000101
012020090402C1MA34      010COMERICA INCDRN          R$  000000001101400000000110140000000011014000000001101400000000110140000000000000000000000000000001000000000000000400000000000004405600000000000000009999123100000010000000000000BRC1MABDR006102
012020090402C1NC34      010CENTENE CORPDRN          R$  000000003138100000000316710000000031380000000003149600000000316710000000000000000000000000000003000000000000000050000000000001574830000000000000009999123100000010000000000000BRC1NCBDR000100
012020090402C1NP34      010CENTERPOINT DRN          R$  000000001062100000000106210000000010568000000001058200000000105680000000000000000000000000000003000000000000000060000000000000634970000000000000009999123100000010000000000000BRC1NPBDR002103
012020090402C1OG34      010CABOT OIL   DRN          R$  000000000968100000000097410000000009681000000000968300000000097410000000000000000000000000000004000000000000000940000000000009102520000000000000009999123100000010000000000000BRC1OGBDR009103
012020090402C1PB34      010CAMPBELL SOUDRN          R$  000000002562400000000256240000000025570000000002560100000000255700000000000000000000000000000005000000000000000580000000000014848600000000000000009999123100000010000000000000BRC1PBBDR007102
012020090402C1TA34      010CINTAS CORP DRN          R$  000000003497000000000349700000000034970000000003497000000000349700000000000000000000000000000001000000000000000040000000000001398800000000000000009999123100000010000000000000BRC1TABDR001100
012020090402C1TL34      010CENTURYLINK DRN ED       R$  000000000571100000000057490000000005711000000000572400000000057490000000000000000000000000000004000000000000000150000000000000858700000000000000009999123100000010000000000000BRC1TLBDR008103
012020090402C1TX34      010CITRIX SYSTEDRN          R$  000000003605800000000365550000000036058000000003609300000000365550000000000000000000000000000004000000000000000330000000000011910700000000000000009999123100000010000000000000BRC1TXBDR003102
012020090402C1XO34      010CONCHO RESOUDRN          R$  000000001330100000000133210000000013260000000001329200000000133210000000000000000000000000000003000000000000000050000000000000664630000000000000009999123100000010000000000000BRC1XOBDR004103
012020090402CAJI34      010CANON INC   DRN          R$  000000000862100000000086610000000008621000000000864500000000086610000000008677000000000000000006000000000000004200000000000036311940000000000000009999123100000010000000000000BRCAJIBDR009102
012020090402CAMB3       010CAMBUCI     ON           R$  000000000041800000000004320000000000407000000000041400000000004160000000000412000000000041600090000000000000032700000000000013555900000000000000009999123100000010000000000000BRCAMBACNOR4119
012020090402CAML3       010CAMIL       ON  EJ  NM   R$  000000000129300000000013150000000001278000000000129700000000013080000000001306000000000130807530000000000001950900000000002531852800000000000000009999123100000010000000000000BRCAMLACNOR3111
012020090402CAON34      010CAPITAL ONE DRN          R$  000000001940100000000195620000000019401000000001947700000000195620000000000000000000000000000010000000000000002940000000000057263390000000000000009999123100000010000000000000BRCAONBDR009105
012020090402CAPH34      010CAPRI HOLDI DRN          R$  000000000888100000000091510000000008881000000000905100000000091510000000000000000000000000000003000000000000000510000000000004616490000000000000009999123100000010000000000000BRCAPHBDR008100
012020090402CARD3       010CSU CARDSYSTON      NM   R$  000000000160800000000016260000000001509000000000156200000000016200000000001600000000000162001221000000000000365000000000000570296700000000000000009999123100000010000000000000BRCARDACNOR9118
012020090402CATP34      010CATERPILLAR DRN          R$  000000007959900000000797990000000079149000000007952200000000791490000000000000000000000000000006000000000000000670000000000053279850000000000000009999123100000010000000000000BRCATPBDR003136
012020090402CCPR3       010CYRE COM-CCPON      NM   R$  000000000149000000000014930000000001441000000000146500000000014930000000001466000000000149301675000000000000260000000000000381074600000000000000009999123100000010000000000000BRCCPRACNOR9114
012020090402CCRO3       010CCR SA      ON      NM   R$  000000000138900000000014500000000001382000000000142600000000014400000000001439000000000144130504000000000015477600000000022071948600000000000000009999123100000010000000000000BRCCROACNOR2137
012020090402CEAB3       010CEA MODAS   ON      NM   R$  000000000125900000000012830000000001192000000000124000000000012690000000001266000000000126907984000000000002020400000000002506760900000000000000009999123100000010000000000000BRCEABACNOR1101
012020090402CEBR3       010CEB         ON           R$  000000000610100000000062400000000006100000000000614100000000062390000000006110000000000624000007000000000000000800000000000004913500000000000000009999123100000010000000000000BRCEBRACNOR5118
012020090402CEBR5       010CEB         PNA          R$  000000000934000000000093400000000009340000000000934000000000093400000000007200000000000933900001000000000000000100000000000000934000000000000000009999123100000010000000000000BRCEBRACNPA8117
012020090402CEDO3       010CEDRO       ON      N1   R$  000000000103500000000010350000000000975000000000101100000000009750000000000980000000000107900004000000000000000500000000000000505500000000000000009999123100000010000000000000BRCEDOACNOR8096
012020090402CEDO4       010CEDRO       PN      N1   R$  000000000055500000000005730000000000550000000000056000000000005730000000000551000000000058000004000000000000000400000000000000224100000000000000009999123100000010000000000000BRCEDOACNPR5128
012020090402CEEB3       010COELBA      ON           R$  000000000410000000000041000000000003900000000000402600000000040000000000003750000000000415000033000000000000003400000000000013689600000000000000009999123100000010000000000000BRCEEBACNOR3179
012020090402CEED3       010CEEE-D      ON      N1   R$  000000000629000000000067000000000005950000000000633200000000059500000000005901000000000670000037000000000000003700000000000023429500000000000000009999123100000010000000000000BRCEEDACNOR9102
012020090402CESP3       010CESP        ON      N1   R$  000000000344000000000034500000000003360000000000342100000000033600000000003312000000000343500016000000000000002100000000000007184200000000000000009999123100000010000000000000BRCESPACNOR3169
012020090402CESP5       010CESP        PNA     N1   R$  000000000330000000000033000000000003300000000000330000000000033000000000003260000000000359000003000000000000002400000000000007920000000000000000009999123100000010000000000000BRCESPACNPA6116
012020090402CESP6       010CESP        PNB     N1   R$  000000000294200000000029860000000002893000000000295300000000029860000000002959000000000298605703000000000001954900000000005773604200000000000000009999123100000010000000000000BRCESPACNPB4128
012020090402CGAS3       010COMGAS      ON           R$  000000001750000000000175000000000017300000000001735300000000173000000000017301000000001797500008000000000000001000000000000017353300000000000000009999123100000010000000000000BRCGASACNOR0151
012020090402CGAS5       010COMGAS      PNA          R$  000000001915000000000191740000000018917000000001908500000000191000000000018938000000001910000008000000000000001100000000000020994500000000000000009999123100000010000000000000BRCGASACNPA3148
012020090402CGRA3       010GRAZZIOTIN  ON           R$  000000000267900000000026790000000002658000000000266300000000026580000000002644000000000267500004000000000000000400000000000001065300000000000000009999123100000010000000000000BRCGRAACNOR2071
012020090402CGRA4       010GRAZZIOTIN  PN           R$  000000000266600000000027060000000002661000000000268400000000026760000000002676000000000271500066000000000000008000000000000021472500000000000000009999123100000010000000000000BRCGRAACNPR9071
012020090402CHCM34      010CHARTER COMMDRN          R$  000000006312100000000639290000000063121000000006365100000000639290000000000000000000000000000003000000000000000350000000000022277870000000000000009999123100000010000000000000BRCHCMBDR001100
012020090402CHDC34      010CHURCH DWIGHDRN          R$  000000004932100000000496510000000049321000000004951200000000496510000000000000000000000000000005000000000000000780000000000038619680000000000000009999123100000010000000000000BRCHDCBDR000104
012020090402CHME34      010CME GROUP   DRN          R$  000000002240600000000226900000000022406000000002258600000000226900000000000000000000000000000005000000000000001500000000000033879200000000000000009999123100000010000000000000BRCHMEBDR007105
012020090402CHVX34      010CHEVRON     DRN          R$  000000002188900000000220490000000021570000000002183200000000217750000000021000000000002177500045000000000000012760000000000278582810000000000000009999123100000010000000000000BRCHVXBDR008138
012020090402CIEL3       010CIELO       ON      NM   R$  000000000045800000000004700000000000446000000000045700000000004680000000000467000000000046826404000000000044743900000000020476544700000000000000009999123100000010000000000000BRCIELACNOR3142
012020090402CINF34      010CINCINNATI  DRN          R$  000000002150100000000215810000000021401000000002151300000000215810000000000000000000000000000005000000000000001050000000000022589250000000000000009999123100000010000000000000BRCINFBDR000103
012020090402CLSC3       010CELESC      ON      N2   R$  000000000638000000000063800000000005985000000000612400000000061000000000005600000000000618900013000000000000001500000000000009186100000000000000009999123100000010000000000000BRCLSCACNOR6136
012020090402CLSC4       010CELESC      PN      N2   R$  000000000560000000000056850000000005600000000000566300000000056850000000005350000000000568600008000000000000000800000000000004530400000000000000009999123100000010000000000000BRCLSCACNPR3115
012020090402CLXC34      010CLOROX CO   DRN          R$  000000002808000000000282310000000028080000000002819000000000282310000000000000000000000000000007000000000000001670000000000047077420000000000000009999123100000010000000000000BRCLXCBDR000104
012020090402CMCS34      010COMCAST     DRN          R$  000000002369500000000237090000000023417000000002363700000000237090000000022000000000002370900020000000000000006080000000000143716650000000000000009999123100000010000000000000BRCMCSBDR008135
012020090402CMIG3       010CEMIG       ON      N1   R$  000000000110400000000011140000000001090000000000109900000000011110000000001099000000000111105106000000000003395700000000003733492400000000000000009999123100000010000000000000BRCMIGACNOR6224
012020090402CMIG4       010CEMIG       PN      N1   R$  000000000109100000000010960000000001067000000000107700000000010790000000001078000000000108125018000000000011475700000000012365485900000000000000009999123100000010000000000000BRCMIGACNPR3225
012020090402CNIC34      010CANAD NATIONDRN          R$  000000002745000000000275770000000027450000000002751100000000275100000000000000000000000000000009000000000000004640000000000127655190000000000000009999123100000010000000000000BRCNICBDR007104
012020090402CNTO3       010CENTAURO    ON      NM   R$  000000000314900000000031620000000002965000000000306400000000030970000000003091000000000309710840000000000002510700000000007694165600000000000000009999123100000010000000000000BRCNTOACNOR5100
012020090402COCA34      010COCA COLA   DRN          R$  000000002700000000000272400000000026700000000002711800000000270000000000025000000000000000000012000000000000002960000000000080269930000000000000009999123100000010000000000000BRCOCABDR002135
012020090402COCE3       010COELCE      ON           R$  000000000725000000000075000000000006900000000000717300000000073990000000006900000000000740000017000000000000001700000000000012195100000000000000009999123100000010000000000000BRCOCEACNOR0139
012020090402COCE5       010COELCE      PNA          R$  000000000608400000000061620000000006011000000000607700000000060110000000006002000000000612800167000000000000027200000000000165302700000000000000009999123100000010000000000000BRCOCEACNPA3140
012020090402COGN3       010COGNA ON    ON      NM   R$  000000000058600000000006080000000000573000000000059100000000006010000000000601000000000060245025000000000064297200000000038006498300000000000000009999123100000010000000000000BRCOGNACNOR2101
012020090402COLG34      010COLGATE     DRN          R$  000000004086100000000411300000000040861000000004104500000000411300000000000000000000000000000004000000000000000770000000000031604700000000000000009999123100000010000000000000BRCOLGBDR000137
012020090402COPH34      010COPHILLIPS  DRN          R$  000000000472900000000047940000000004729000000000476000000000047560000000004500000000000000000020000000000000016250000000000077350640000000000000009999123100000010000000000000BRCOPHBDR009135
012020090402COTY34      010COTY INC    DRN          R$  000000000099100000000010330000000000991000000000101600000000010180000000000959000000000110100020000000000000016520000000000016790630000000000000009999123100000010000000000000BRCOTYBDR006116
012020090402COWC34      010COSTCO      DRN          R$  000000004650000000000465000000000045847000000004602700000000460500000000000000000000000000000009000000000000003120000000000143605320000000000000009999123100000010000000000000BRCOWCBDR006119
012020090402CPFE3       010CPFL ENERGIAON      NM   R$  000000000295800000000029720000000002910000000000294000000000029350000000002933000000000293510572000000000002669900000000007850157900000000000000009999123100000010000000000000BRCPFEACNOR0130
012020090402CPLE3       010COPEL       ON      N1   R$  000000000632500000000063260000000006082000000000620100000000062450000000006218000000000624501801000000000000351600000000002180609600000000000000009999123100000010000000000000BRCPLEACNOR8139
012020090402CPLE6       010COPEL       PNB     N1   R$  000000000636600000000064040000000006251000000000633700000000063960000000006380000000000639605619000000000000850400000000005389528200000000000000009999123100000010000000000000BRCPLEACNPB9136
012020090402CPRL34      010CANAD PACIFIDRN          R$  000000003852100000000387310000000038521000000003865300000000387310000000000000000000000000000009000000000000001910000000000073828550000000000000009999123100000010000000000000BRCPRLBDR004103
012020090402CRDA34      010CREDIT ACCEPDRN          R$  000000001980100000000198300000000019734000000001979600000000198300000000000000000000000000000003000000000000000520000000000010294390000000000000009999123100000010000000000000BRCRDABDR003100
012020090402CRDE3       010CR2         ON           R$  000000000211000000000021900000000002110000000000216700000000021900000000002100000000000217900007000000000000002300000000000004986000000000000000009999123100000010000000000000BRCRDEACNOR1112
012020090402CRFB3       010CARREFOUR BRON      NM   R$  000000000208700000000020870000000002037000000000205800000000020620000000002062000000000206411967000000000006451300000000013283171600000000000000009999123100000010000000000000BRCRFBACNOR2107
012020090402CRHP34      010CRH PLC     DRN ED       R$  000000001932200000000194550000000019322000000001940600000000194550000000000000000000000000000008000000000000002770000000000053756580000000000000009999123100000010000000000000BRCRHPBDR002102
012020090402CRIN34      010CARTERS INC DRN          R$  000000002128100000000214810000000021260000000002137800000000214810000000000000000000000000000003000000000000000310000000000006627430000000000000009999123100000010000000000000BRCRINBDR005102
012020090402CRIP34      010CTRIPCOM    DRN          R$  000000001600100000000162220000000016001000000001614300000000162220000000000000000000000000000005000000000000001830000000000029542650000000000000009999123100000010000000000000BRCRIPBDR000100
012020090402CRIV3       010ALFA FINANC ON           R$  000000000055100000000005700000000000551000000000056100000000005700000000000533000000000057000003000000000000001100000000000000617500000000000000009999123100000010000000000000BRCRIVACNOR4194
012020090402CRPG5       010CRISTAL     PNA          R$  000000000203800000000020390000000002014000000000202800000000020350000000002035000000000203900033000000000000004500000000000009127200000000000000009999123100000010000000000000BRCRPGACNPA3108
012020090402CRPG6       010CRISTAL     PNB          R$  000000000200100000000020380000000002001000000000201800000000020190000000002001000000000202000007000000000000000700000000000001412800000000000000009999123100000010000000000000BRCRPGACNPB1108
012020090402CSAB3       010SEG AL BAHIAON           R$  000000000498900000000049890000000004989000000000498900000000049890000000004601000000000499000001000000000000000100000000000000498900000000000000009999123100000010000000000000BRCSABACNOR1058
012020090402CSAN3       010COSAN       ON      NM   R$  000000000770000000000078230000000007579000000000766900000000076870000000007680000000000768710982000000000002931300000000022482790700000000000000009999123100000010000000000000BRCSANACNOR6120
012020090402CSCO34      010CISCO       DRN          R$  000000002178000000000218380000000021530000000002176400000000218380000000000000000000000000000007000000000000001950000000000042440480000000000000009999123100000010000000000000BRCSCOBDR004138
012020090402CSMG3       010COPASA      ON      NM   R$  000000000490000000000049080000000004758000000000481900000000048840000000004880000000000488405706000000000000804300000000003876174700000000000000009999123100000010000000000000BRCSMGACNOR5156
012020090402CSNA3       010SID NACIONALON           R$  000000000149800000000015190000000001457000000000148800000000014970000000001496000000000149727719000000000024478000000000036427909900000000000000009999123100000010000000000000BRCSNAACNOR6252
012020090402CSRN3       010COSERN      ON           R$  000000000175500000000017550000000001755000000000175500000000017550000000001616000000000179000001000000000000000100000000000000175500000000000000009999123100000010000000000000BRCSRNACNOR0172
012020090402CSRN5       010COSERN      PNA          R$  000000000167800000000016780000000001678000000000167800000000016780000000001656000000000178100002000000000000000200000000000000335600000000000000009999123100000010000000000000BRCSRNACNPA3172
012020090402CSXC34      010CSX CORP    DRN ED       R$  000000002006900000000201880000000020069000000002014500000000201880000000000000000000000000000005000000000000001310000000000026391040000000000000009999123100000010000000000000BRCSXCBDR005105
012020090402CTGP34      010CITIGROUP   DRN          R$  000000002747900000000279590000000027479000000002785800000000279590000000027000000000002795900006000000000000000980000000000027301650000000000000009999123100000010000000000000BRCTGPBDR000139
012020090402CTKA4       010KARSTEN     PN           R$  000000000119000000000012000000000001162000000000118300000000011710000000001171000000000119200019000000000000003900000000000004616300000000000000009999123100000010000000000000BRCTKAACNPR7043
012020090402CTNM3       010COTEMINAS   ON           R$  000000000112000000000011580000000001090000000000111100000000010900000000001090000000000112000010000000000000001100000000000001223000000000000000009999123100000010000000000000BRCTNMACNOR9130
012020090402CTNM4       010COTEMINAS   PN           R$  000000000059400000000006000000000000586000000000059300000000005900000000000585000000000058800039000000000000022600000000000013403400000000000000009999123100000010000000000000BRCTNMACNPR6129
012020090402CTSA3       010SANTANENSE  ON           R$  000000000026800000000002680000000000251000000000025500000000002590000000000254000000000026000043000000000000016300000000000004163300000000000000009999123100000010000000000000BRCTSAACNOR3060
012020090402CTSA4       010SANTANENSE  PN           R$  000000000023500000000002350000000000221000000000023000000000002320000000000232000000000023400019000000000000008700000000000002003900000000000000009999123100000010000000000000BRCTSAACNPR0060
012020090402CTSH34      010COGNIZANT   DRN          R$  000000003528100000000356210000000035281000000003549200000000356210000000000000000000000000000010000000000000001910000000000067789940000000000000009999123100000010000000000000BRCTSHBDR002114
012020090402CVCB3       010CVC BRASIL  ON      NM   R$  000000000181500000000018350000000001749000000000179700000000018070000000001806000000000180714645000000000006262800000000011254598500000000000000009999123100000010000000000000BRCVCBACNOR1113
012020090402CVSH34      010CVS HEALTH  DRN          R$  000000001595600000000161030000000015820000000001605100000000161030000000000000000000001690000011000000000000005150000000000082663550000000000000009999123100000010000000000000BRCVSHBDR008117
012020090402CYRE3       010CYRELA REALTON      NM   R$  000000000243000000000024340000000002295000000000237000000000023850000000002385000000000238932884000000000009819900000000023273353900000000000000009999123100000010000000000000BRCYREACNOR7134
012020090402D1EL34      010DELL TECHNOLDRN          R$  000000003375100000000343210000000033751000000003403600000000343210000000031000000000000000000002000000000000000020000000000000680720000000000000009999123100000010000000000000BRD1ELBDR009100
012020090402D1HI34      010DR HORTON INDRN          R$  000000003654200000000365420000000036240000000003644200000000365110000000000000000000000000000004000000000000000090000000000003279840000000000000009999123100000010000000000000BRD1HIBDR008103
012020090402D1IS34      010DISH NETWORKDRN          R$  000000001788100000000179310000000017881000000001791400000000179310000000000000000000000000000002000000000000000030000000000000537430000000000000009999123100000010000000000000BRD1ISBDR005100
012020090402D1OM34      010DOMINION ENEDRN ED       R$  000000002086900000000209850000000020840000000002090900000000209850000000000000000000000000000005000000000000003380000000000070672900000000000000009999123100000010000000000000BRD1OMBDR006103
012020090402D1VN34      010DEVON ENERGYDRN          R$  000000000553200000000055960000000005511000000000558700000000055960000000000000000000000000000004000000000000000250000000000001396760000000000000009999123100000010000000000000BRD1VNBDR009103
012020090402D1XC34      010DXC TECHNOLODRN          R$  000000001108900000000111510000000010832000000001098500000000110330000000000000000000000000000018000000000000000560000000000006152030000000000000009999123100000010000000000000BRD1XCBDR008101
012020090402DASA3       010DASA        ON           R$  000000000650000000000065000000000006400000000000645000000000064000000000005901000000000640000002000000000000000200000000000001290000000000000000009999123100000010000000000000BRDASAACNOR1119
012020090402DBAG34      010DEUTSCHE AK DRN          R$  000000000509500000000051740000000005095000000000516200000000051740000000000000000000000000000015000000000000006900000000000035618040000000000000009999123100000010000000000000BRDBAGBDR008100
012020090402DCVY34      010DISCOVERY INDRN A        R$  000000001184100000000120630000000011841000000001197300000000120630000000000000000000000000000007000000000000000900000000000010776410000000000000009999123100000010000000000000BRDCVYBDR005100
012020090402DDNB34      010DUPONT N INCDRN          R$  000000003105100000000310820000000030960000000003103800000000310820000000028000000000000000000027000000000000007520000000000233408360000000000000009999123100000010000000000000BRDDNBBDR008105
012020090402DEAI34      010DELTA       DRN          R$  000000001658000000000168200000000016580000000001670100000000167200000000011500000000002300000010000000000000002920000000000048767200000000000000009999123100000010000000000000BRDEAIBDR008116
012020090402DEEC34      010DEERE CO    DRN          R$  000000005629000000000565590000000056290000000005642300000000565590000000047500000000000000000004000000000000000670000000000037803750000000000000009999123100000010000000000000BRDEECBDR003105
012020090402DEOP34      010DIAGEO PL   DRN          R$  000000007030100000000706860000000070301000000007054400000000706860000000000000000000000000000017000000000000001910000000000134740510000000000000009999123100000010000000000000BRDEOPBDR004102
012020090402DGCO34      010DOLLAR GENERDRN          R$  000000005208100000000520810000000051519000000005192100000000519660000000000000000000000000000007000000000000000590000000000030633830000000000000009999123100000010000000000000BRDGCOBDR007105
012020090402DHER34      010DANAHER CORPDRN          R$  000000002610700000000262790000000026107000000002619500000000262790000000000000000000000000000004000000000000002060000000000053963140000000000000009999123100000010000000000000BRDHERBDR004121
012020090402DIRR3       010DIRECIONAL  ON      NM   R$  000000000150000000000015300000000001439000000000148700000000015170000000001517000000000151904520000000000001054800000000001569243300000000000000009999123100000010000000000000BRDIRRACNOR0112
012020090402DISB34      010WALT DISNEY DRN          R$  000000007040000000000704000000000068900000000006999900000000703270000000069850000000000000000049000000000000006000000000000419998090000000000000009999123100000010000000000000BRDISBBDR006114
012020090402DLTR34      010DOLLAR TREE DRN          R$  000000002421200000000242410000000024200000000002422300000000242410000000000000000000000000000006000000000000001570000000000038030660000000000000009999123100000010000000000000BRDLTRBDR004100
012020090402DMMO3       010DOMMO       ON           R$  000000000012400000000001260000000000121000000000012300000000001260000000000125000000000012601536000000000003026900000000000374644800000000000000009999123100000010000000000000BRDMMOACNOR0102
012020090402DMVF3       010D1000VFARMA ON      NM   R$  000000000120100000000012020000000001182000000000119300000000011880000000001187000000000118800470000000000000122800000000000146570500000000000000009999123100000010000000000000BRDMVFACNOR9100
012020090402DOHL4       010DOHLER      PN           R$  000000000051500000000005150000000000502000000000051300000000005130000000000505000000000051400007000000000000001600000000000000821800000000000000009999123100000010000000000000BRDOHLACNPR9061
012020090402DTCY3       010DTCOM-DIRECTON           R$  000000000066800000000006680000000000648000000000065600000000006480000000000649000000000067500007000000000000000800000000000000525200000000000000009999123100000010000000000000BRDTCYACNOR5109
012020090402DTEX3       010DURATEX     ON      NM   R$  000000000172400000000017290000000001636000000000168100000000017090000000001701000000000170910270000000000003394400000000005709340000000000000000009999123100000010000000000000BRDTEXACNOR3128
012020090402DUKB34      010DUKE ENERGY DRN          R$  000000004296100000000432520000000042961000000004317700000000432520000000042300000000000000000004000000000000000870000000000037564780000000000000009999123100000010000000000000BRDUKBBDR008116
012020090402DVAI34      010DAVITA INC  DRN          R$  000000004590100000000461930000000045901000000004611800000000461860000000000000000000000000000004000000000000000620000000000028593690000000000000009999123100000010000000000000BRDVAIBDR002100
012020090402E1CL34      010ECOLAB INC  DRN          R$  000000002739900000000274190000000027324000000002736300000000274190000000000000000000000000000005000000000000007510000000000205503330000000000000009999123100000010000000000000BRE1CLBDR002102
012020090402E1IX34      010EDISON INTERDRN          R$  000000001398100000000139810000000013900000000001391900000000139030000000000000000000000000000003000000000000000090000000000001252740000000000000009999123100000010000000000000BRE1IXBDR004103
012020090402E1OG34      010EOG RESOURCEDRN          R$  000000001140100000000114690000000011401000000001144200000000114690000000000000000000000000000007000000000000003240000000000037072890000000000000009999123100000010000000000000BRE1OGBDR007103
012020090402E1TF34      010E TRADE FINADRN          R$  000000002875500000000290500000000028755000000002885300000000290500000000000000000000000000000003000000000000000030000000000000865600000000000000009999123100000010000000000000BRE1TFBDR008103
012020090402E1WL34      010EDWARDS LIFEDRN          R$  000000001111900000000112190000000011119000000001116900000000112190000000000000000000001200000019000000000000011010000000000122972950000000000000009999123100000010000000000000BRE1WLBDR000101
012020090402E1XC34      010EXELON CORP DRN          R$  000000001976200000000197620000000019727000000001973600000000197270000000000000000000000000000009000000000000002440000000000048156450000000000000009999123100000010000000000000BRE1XCBDR007103
012020090402EAIN34      010ELECTR ARTS DRN          R$  000000003450000000000346980000000033901000000003438000000000346500000000034650000000000000000023000000000000002350000000000080794530000000000000009999123100000010000000000000BREAINBDR007100
012020090402EALT4       010ACO ALTONA  PN           R$  000000000056300000000005690000000000545000000000055500000000005520000000000552000000000055500095000000000000050400000000000027978200000000000000009999123100000010000000000000BREALTACNPR1133
012020090402EBAY34      010EBAY        DRN ED       R$  000000001378100000000140010000000013762000000001390800000000140010000000013900000000001452300006000000000000006880000000000095693640000000000000009999123100000010000000000000BREBAYBDR009108
012020090402ECOR3       010ECORODOVIAS ON      NM   R$  000000000131400000000013540000000001280000000000132000000000013540000000001343000000000135420355000000000006725600000000008883966400000000000000009999123100000010000000000000BRECORACNOR8116
012020090402EGIE3       010ENGIE BRASILON      NM   R$  000000000434500000000043970000000004311000000000433600000000043280000000004328000000000433108647000000000002173400000000009425285400000000000000009999123100000010000000000000BREGIEACNOR9113
012020090402EKTR3       010ELEKTRO     ON           R$  000000000224900000000022490000000002170000000000220000000000021700000000002008000000000217000007000000000000000700000000000001540200000000000000009999123100000010000000000000BREKTRACNOR0144
012020090402EKTR4       010ELEKTRO     PN           R$  000000000216200000000021630000000002162000000000216200000000021630000000002018000000000216800002000000000000000200000000000000432500000000000000009999123100000010000000000000BREKTRACNPR7144
012020090402ELCI34      010ESTEE LAUDERDRN ED       R$  000000005633000000000569620000000056330000000005679000000000569620000000000000000000000000000012000000000000001410000000000080073980000000000000009999123100000010000000000000BRELCIBDR007104
012020090402ELET3       010ELETROBRAS  ON      N1   R$  000000000371000000000037120000000003562000000000363800000000036450000000003645000000000364617677000000000004056500000000014761221100000000000000009999123100000010000000000000BRELETACNOR6155
012020090402ELET6       010ELETROBRAS  PNB     N1   R$  000000000375200000000037910000000003630000000000370500000000037140000000003714000000000371507023000000000001492000000000005529035700000000000000009999123100000010000000000000BRELETACNPB7072
012020090402EMAE4       010EMAE        PN           R$  000000000296100000000030500000000002961000000000302200000000030240000000003003000000000302500065000000000000015500000000000046848300000000000000009999123100000010000000000000BREMAEACNPR1114
012020090402EMBR3       010EMBRAER     ON      NM   R$  000000000074300000000007440000000000718000000000073300000000007410000000000741000000000074215741000000000013079900000000009590447500000000000000009999123100000010000000000000BREMBRACNOR4189
012020090402ENAT3       010ENAUTA PART ON      NM   R$  000000000113000000000011470000000001105000000000113000000000011450000000001140000000000114504860000000000001065900000000001204677400000000000000009999123100000010000000000000BRENATACNOR0101
012020090402ENBR3       010ENERGIAS BR ON      NM   R$  000000000188000000000018990000000001849000000000187800000000018900000000001886000000000189011727000000000003299900000000006198521900000000000000009999123100000010000000000000BRENBRACNOR2129
012020090402ENEV3       010ENEVA       ON      NM   R$  000000000487300000000048790000000004745000000000482000000000048650000000004865000000000486807193000000000001044400000000005034387000000000000000009999123100000010000000000000BRENEVACNOR8104
012020090402ENGI3       010ENERGISA    ON      N2   R$  000000000131100000000013680000000001300000000000130900000000013240000000001324000000000134400035000000000000003800000000000004977600000000000000009999123100000010000000000000BRENGIACNOR0138
012020090402ENGI4       010ENERGISA    PN      N2   R$  000000000077000000000007770000000000752000000000076300000000007620000000000762000000000077200063000000000000012100000000000009241400000000000000009999123100000010000000000000BRENGIACNPR7134
012020090402ENGI11      010ENERGISA    UNT     N2   R$  000000000441900000000044410000000004311000000000438300000000044110000000004404000000000441105706000000000001137400000000004985363700000000000000009999123100000010000000000000BRENGICDAM16128
012020090402ENMT3       010ENERGISA MT ON           R$  000000000299000000000029900000000002990000000000299000000000029900000000002600000000000299000001000000000000000100000000000000299000000000000000009999123100000010000000000000BRENMTACNOR5111
012020090402ENMT4       010ENERGISA MT PN           R$  000000000299000000000029900000000002990000000000299000000000029900000000002600000000000299000001000000000000000100000000000000299000000000000000009999123100000010000000000000BRENMTACNPR2114
012020090402EQIX34      010EQUINIX INC DRN          R$  000000007946700000000800990000000079467000000007986500000000800990000000000000000000000000000004000000000000000520000000000041530190000000000000009999123100000010000000000000BREQIXBDR002106
012020090402EQPA3       010EQTL PARA   ON           R$  000000000033700000000003380000000000325000000000032900000000003360000000000328000000000033600091000000000000042400000000000013954400000000000000009999123100000010000000000000BREQPAACNOR1101
012020090402EQTL3       010EQUATORIAL  ON      NM   R$  000000000236500000000023860000000002323000000000236400000000023780000000002372000000000237814902000000000006564900000000015523602100000000000000009999123100000010000000000000BREQTLACNOR0126
012020090402EUCA3       010EUCATEX     ON      N1   R$  000000000229200000000023000000000002290000000000229200000000022910000000002291000000000235900010000000000000001600000000000003667200000000000000009999123100000010000000000000BREUCAACNOR1151
012020090402EUCA4       010EUCATEX     PN      N1   R$  000000000064500000000006500000000000625000000000063100000000006250000000000625000000000063400241000000000000138100000000000087167300000000000000009999123100000010000000000000BREUCAACNPR8038
012020090402EVEN3       010EVEN        ON      NM   R$  000000000127500000000012830000000001207000000000124400000000012630000000001263000000000126507403000000000002058700000000002561750500000000000000009999123100000010000000000000BREVENACNOR8112
012020090402EXGR34      010EXPEDIA GROUDRN          R$  000000002622100000000264910000000026192000000002640800000000264610000000000000000000000000000005000000000000000880000000000023239200000000000000009999123100000010000000000000BREXGRBDR004103
012020090402EXXO34      010EXXON MOBIL DRN          R$  000000000520900000000052100000000005145000000000519100000000052000000000005181000000000520000043000000000000030670000000000159213930000000000000009999123100000010000000000000BREXXOBDR006140
012020090402EZTC3       010EZTEC       ON      NM   R$  000000000397700000000040500000000003764000000000394300000000039700000000003970000000000397417247000000000006593500000000026002790100000000000000009999123100000010000000000000BREZTCACNOR0114
012020090402F1EC34      010FIRSTENERGY DRN          R$  000000001568100000000156810000000015654000000001567100000000156780000000012632000000000000000003000000000000000070000000000001097010000000000000009999123100000010000000000000BRF1ECBDR006103
012020090402F1IS34      010FISERV INC  DRN          R$  000000002635200000000265490000000026040000000002635400000000265490000000000000000000000000000005000000000000001250000000000032942630000000000000009999123100000010000000000000BRF1ISBDR003100
012020090402F1NI34      010FIDELITY NATDRN          R$  000000001967700000000197990000000019500000000001967700000000197990000000000000000000000000000008000000000000006530000000000128492510000000000000009999123100000010000000000000BRF1NIBDR004102
012020090402F1RI34      010FEDERAL REALDRN          R$  000000001079700000000109200000000010797000000001081700000000109200000000000000000000001208000003000000000000000260000000000002812600000000000000009999123100000010000000000000BRF1RIBDR005102
012020090402FASL34      010FASTENAL    DRN          R$  000000002448100000000246080000000024481000000002457600000000246080000000000000000000000000000012000000000000001810000000000044483330000000000000009999123100000010000000000000BRFASLBDR007106
012020090402FBOK34      010FACEBOOK    DRN          R$  000000007572000000000764290000000072241000000007469300000000757000000000074000000000007714700218000000000000031570000000002358078500000000000000009999123100000010000000000000BRFBOKBDR006100
012020090402FCXO34      010FREEPORT    DRN          R$  000000000825100000000085130000000008251000000000844600000000085130000000000000000000000000000010000000000000004860000000000041048880000000000000009999123100000010000000000000BRFCXOBDR007132
012020090402FDMO34      010FORD MOTORS DRN          R$  000000000366400000000036730000000003661000000000366400000000036730000000002911000000000000000008000000000000012310000000000045115630000000000000009999123100000010000000000000BRFDMOBDR008133
012020090402FDXB34      010FEDEX CORP  DRN ED       R$  000000011979900000001212000000000119300000000012010900000001212000000000000000000000000000000005000000000000000260000000000031228490000000000000009999123100000010000000000000BRFDXBBDR002128
012020090402FESA4       010FERBASA     PN      N1   R$  000000000180600000000018430000000001770000000000180700000000018350000000001829000000000183500706000000000000184400000000000333335900000000000000009999123100000010000000000000BRFESAACNPR5066
012020090402FFTD34      010FIFTH THIRD DRN          R$  000000001138400000000114610000000011341000000001142900000000114610000000000000000000000000000010000000000000002600000000000029716500000000000000009999123100000010000000000000BRFFTDBDR001104
012020090402FLRY3       010FLEURY      ON      NM   R$  000000000279500000000028730000000002737000000000281700000000028490000000002849000000000285412577000000000002784800000000007845213500000000000000009999123100000010000000000000BRFLRYACNOR5127
012020090402FLTC34      010FLEETCOR TECDRN          R$  000000003174200000000320440000000031742000000003191200000000320440000000000000000000000000000005000000000000001080000000000034465230000000000000009999123100000010000000000000BRFLTCBDR001100
012020090402FMSC34      010FRESENIUS   DRN ED       R$  000000002214100000000223090000000022141000000002224600000000223090000000000000000000000000000006000000000000001950000000000043379770000000000000009999123100000010000000000000BRFMSCBDR001101
012020090402FMXB34      010FEMSA       DRN          R$  000000002985100000000300310000000029851000000002997700000000300310000000000000000000000000000007000000000000001150000000000034473940000000000000009999123100000010000000000000BRFMXBBDR003105
012020090402FOXC34      010FOX CORP    DRN ED       R$  000000001466200000000146810000000014593000000001465300000000146810000000000000000000000000000004000000000000001120000000000016411880000000000000009999123100000010000000000000BRFOXCBDR007102
012020090402FRAS3       010FRAS-LE     ON      N1   R$  000000000052100000000005430000000000521000000000053300000000005400000000000533000000000054000217000000000000051200000000000027331200000000000000009999123100000010000000000000BRFRASACNOR0149
012020090402FSLR34      010FIRST SOLAR DRN          R$  000000001878100000000190220000000018781000000001893100000000190220000000000000000000000000000004000000000000000780000000000014766650000000000000009999123100000010000000000000BRFSLRBDR001100
012020090402G1LW34      010CORNING INC DRN ED       R$  000000001692200000000170410000000016922000000001698600000000170410000000000000000000000000000003000000000000000100000000000001698690000000000000009999123100000010000000000000BRG1LWBDR008103
012020090402G1PI34      010GLOBAL PAYMEDRN          R$  000000002300900000000231880000000023009000000002311300000000231880000000000000000000000000000017000000000000005170000000000119495050000000000000009999123100000010000000000000BRG1PIBDR008102
012020090402G1WW34      010WW GRAINGER DRN          R$  000000003822100000000382210000000038221000000003822100000000382210000000000000000000000000000001000000000000001200000000000045865200000000000000009999123100000010000000000000BRG1WWBDR005103
012020090402GDBR34      010GEN DYNAMICSDRN          R$  000000008100100000000810010000000080334000000008065100000000806420000000000000000000000000000008000000000000000960000000000077425480000000000000009999123100000010000000000000BRGDBRBDR002120
012020090402GEOO34      010GE          DRN          R$  000000000341900000000034330000000003409000000000342200000000034090000000000000000000000340900008000000000000013210000000000045210100000000000000009999123100000010000000000000BRGEOOBDR000140
012020090402GEPA3       010GER PARANAP ON           R$  000000000412000000000042000000000004100000000000415500000000042000000000004200000000000439900003000000000000000400000000000001662000000000000000009999123100000010000000000000BRGEPAACNOR2146
012020090402GEPA4       010GER PARANAP PN           R$  000000000471000000000047100000000004680000000000469900000000046800000000004500000000000468000003000000000000000400000000000001879600000000000000009999123100000010000000000000BRGEPAACNPR9153
012020090402GFSA3       010GAFISA      ON      NM   R$  000000000047500000000004940000000000463000000000048300000000004930000000000486000000000049310448000000000010142700000000004902951600000000000000009999123100000010000000000000BRGFSAACNOR3119
012020090402GGBR3       010GERDAU      ON      N1   R$  000000000161100000000016770000000001594000000000165000000000016650000000001659000000000166500927000000000000408000000000000673375000000000000000009999123100000010000000000000BRGGBRACNOR1173
012020090402GGBR4       010GERDAU      PN      N1   R$  000000000195200000000020270000000001904000000000197500000000019920000000001992000000000199527487000000000013927600000000027519245500000000000000009999123100000010000000000000BRGGBRACNPR8173
012020090402GILD34      010GILEAD      DRN          R$  000000001762500000000176380000000017511000000001758300000000176380000000000000000000002156000005000000000000002650000000000046595370000000000000009999123100000010000000000000BRGILDBDR000117
012020090402GMCO34      010GENERAL MOT DRN          R$  000000001582400000000160360000000015613000000001589900000000160360000000010000000000000000000042000000000000010960000000000174258790000000000000009999123100000010000000000000BRGMCOBDR008115
012020090402GNDI3       010INTERMEDICA ON      NM   R$  000000000749300000000075800000000007362000000000747300000000074580000000007458000000000746522102000000000008036000000000060055904300000000000000009999123100000010000000000000BRGNDIACNOR2102
012020090402GOAU3       010GERDAU MET  ON      N1   R$  000000000078900000000008020000000000765000000000078900000000007990000000000795000000000079900232000000000000103800000000000081956000000000000000009999123100000010000000000000BRGOAUACNOR1250
012020090402GOAU4       010GERDAU MET  PN      N1   R$  000000000088600000000009190000000000866000000000089600000000009070000000000906000000000090718322000000000017561900000000015747407800000000000000009999123100000010000000000000BRGOAUACNPR8251
012020090402GOGL34      010ALPHABET    DRN A        R$  000000003435100000000343510000000032760000000003343900000000339000000000033658000000003400000369000000000000049040000000001639852650000000000000009999123100000010000000000000BRGOGLBDR001100
012020090402GOGL35      010ALPHABET    DRN C        R$  000000003360000000000339880000000033106000000003356600000000339880000000000000000000003398800078000000000000041450000000001391328700000000000000009999123100000010000000000000BRGOGLBDR019100
012020090402GOLL4       010GOL         PN      N2   R$  000000000194000000000020000000000001905000000000196100000000019980000000001997000000000199819807000000000009253500000000018153431100000000000000009999123100000010000000000000BRGOLLACNPR4125
012020090402GPAR3       010CELGPAR     ON           R$  000000000300500000000032250000000003005000000000312100000000032250000000003005000000000322900017000000000000001700000000000005306000000000000000009999123100000010000000000000BRGPARACNOR4104
012020090402GPIV33      010GP INVEST   DR3          R$  000000000053800000000005430000000000511000000000052400000000005280000000000525000000000052800131000000000000066500000000000034872300000000000000009999123100000010000000000000BRGPIVBDR003104
012020090402GPRK34      010GEOPARK LTD DRN          R$  000000000473700000000047370000000004728000000000473100000000047310000000000000000000000000000003000000000000000180000000000000851670000000000000009999123100000010000000000000BRGPRKBDR007103
012020090402GPRO34      010GOPRO       DRN          R$  000000000214200000000021870000000002142000000000217700000000021870000000001580000000000000000003000000000000000340000000000000740490000000000000009999123100000010000000000000BRGPROBDR009100
012020090402GPSI34      010GAP         DRN          R$  000000000934100000000093410000000009280000000000929800000000092800000000000000000000000000000003000000000000001160000000000010786090000000000000009999123100000010000000000000BRGPSIBDR009113
012020090402GRND3       010GRENDENE    ON      NM   R$  000000000083500000000008490000000000818000000000083800000000008480000000000845000000000084804466000000000001374600000000001152753900000000000000009999123100000010000000000000BRGRNDACNOR3158
012020090402GSGI34      010GOLDMANSACHSDRN ED       R$  000000001101900000000111810000000011001000000001111400000000111810000000000000000000000000000003000000000000001140000000000012670920000000000000009999123100000010000000000000BRGSGIBDR008140
012020090402GSHP3       010GENERALSHOPPON      NM   R$  000000000480000000000048000000000004800000000000480000000000048000000000004780000000000490000001000000000000000100000000000000480000000000000000009999123100000010000000000000BRGSHPACNOR7102
012020090402GUAR3       010GUARARAPES  ON           R$  000000000184000000000018400000000001725000000000177700000000017940000000001791000000000179704086000000000001062100000000001887959900000000000000009999123100000010000000000000BRGUARACNOR4165
012020090402H1BA34      010HUNTINGTON BDRN          R$  000000000526100000000052820000000005260000000000527200000000052820000000000000000000000000000003000000000000000130000000000000685370000000000000009999123100000010000000000000BRH1BABDR004103
012020090402H1CA34      010HCA HEALTHCADRN          R$  000000003591100000000362970000000035911000000003626500000000362970000000000000000000000000000009000000000000001930000000000069992690000000000000009999123100000010000000000000BRH1CABDR002101
012020090402H1LT34      010HILTON WORLDDRN          R$  000000002427200000000242720000000024210000000002423600000000242410000000000000000000000000000003000000000000000070000000000001696560000000000000009999123100000010000000000000BRH1LTBDR003101
012020090402H1PE34      010HEWLETT PACKDRN          R$  000000000507000000000051310000000005070000000000510600000000051100000000000000000000000000000003000000000000000170000000000000868150000000000000009999123100000010000000000000BRH1PEBDR006102
012020090402H1RB34      010HER BLOCK INDRN          R$  000000000802600000000080260000000008026000000000802600000000080260000000000000000000000000000002000000000000000600000000000004815600000000000000009999123100000010000000000000BRH1RBBDR008102
012020090402H1RL34      010HORMEL FOODSDRN          R$  000000002702100000000271210000000027021000000002708300000000271210000000000000000000000000000003000000000000000070000000000001895870000000000000009999123100000010000000000000BRH1RLBDR007103
012020090402H1ST34      010HOST HOTELS DRN          R$  000000000633200000000063410000000006332000000000633500000000063320000000004353000000000000000003000000000000000090000000000000570150000000000000009999123100000010000000000000BRH1STBDR008102
012020090402H1UM34      010HUMANA INC  DRN          R$  000000004408200000000444290000000044082000000004426300000000444290000000000000000000000000000010000000000000002810000000000124380440000000000000009999123100000010000000000000BRH1UMBDR009102
012020090402HAGA3       010HAGA S/A    ON           R$  000000000037600000000004100000000000370000000000039800000000003900000000000383000000000039000078000000000000026500000000000010548200000000000000009999123100000010000000000000BRHAGAACNOR7103
012020090402HAGA4       010HAGA S/A    PN           R$  000000000020600000000002070000000000199000000000020100000000001990000000000199000000000020000109000000000000040400000000000008143800000000000000009999123100000010000000000000BRHAGAACNPR4103
012020090402HALI34      010HALLIBURTON DRN ED       R$  000000000838700000000084850000000008341000000000844900000000084850000000000000000000000000000014000000000000002960000000000025010080000000000000009999123100000010000000000000BRHALIBDR004135
012020090402HAPV3       010HAPVIDA     ON      NM   R$  000000000672000000000068250000000006532000000000664400000000066410000000006641000000000665013360000000000001928100000000012810335100000000000000009999123100000010000000000000BRHAPVACNOR4105
012020090402HBOR3       010HELBOR      ON      NM   R$  000000000118900000000011990000000001133000000000116400000000011670000000001167000000000116804451000000000001898100000000002210864400000000000000009999123100000010000000000000BRHBORACNOR3114
012020090402HBTS5       010HABITASUL   PNA          R$  000000000230000000000023000000000002300000000000230000000000023000000000002300000000000258900001000000000000000100000000000000230000000000000000009999123100000010000000000000BRHBTSACNPA3124
012020090402HGTX3       010CIA HERING  ON      NM   R$  000000000208700000000021140000000001909000000000198000000000019780000000001978000000000197926663000000000009399500000000018619518800000000000000009999123100000010000000000000BRHGTXACNOR9151
012020090402HOME34      010HOME DEPOT  DRN ED       R$  000000007170600000000721920000000071568000000007190300000000721870000000000000000000000000000080000000000000013420000000000964948610000000000000009999123100000010000000000000BRHOMEBDR002134
012020090402HONB34      010HONEYWELL   DRN          R$  000000008900000000000892990000000088837000000008909600000000892990000000000000000000000000000004000000000000000450000000000040093230000000000000009999123100000010000000000000BRHONBBDR006127
012020090402HOND34      010HONDA MO    DRN          R$  000000001370100000000138000000000013701000000001377500000000138000000000000000000000000000000008000000000000006010000000000082789500000000000000009999123100000010000000000000BRHONDBDR002103
012020090402HPQB34      010HP COMPANY  DRN          R$  000000001013300000000102290000000010133000000001019300000000102290000000006800000000000000000007000000000000005410000000000055146730000000000000009999123100000010000000000000BRHPQBBDR006132
012020090402HSHY34      010HERSHEY CO  DRN          R$  000000001572200000000157750000000015722000000001576100000000157750000000000000000000000000000005000000000000002340000000000036882760000000000000009999123100000010000000000000BRHSHYBDR001121
012020090402HYPE3       010HYPERA      ON      NM   R$  000000000323800000000032830000000003156000000000321100000000032270000000003227000000000322916894000000000002622700000000008423738700000000000000009999123100000010000000000000BRHYPEACNOR0122
012020090402I1CE34      010INTERCONTINEDRN          R$  000000002651900000000266800000000026519000000002659100000000266800000000000000000000000000000017000000000000004620000000000122852940000000000000009999123100000010000000000000BRI1CEBDR003102
012020090402I1LM34      010ILLUMINA INCDRN          R$  000000003599900000000365390000000035999000000003631800000000365390000000000000000000000000000011000000000000003000000000000108954000000000000000009999123100000010000000000000BRI1LMBDR007100
012020090402I1NF34      010IHS MARKIT LDRN          R$  000000002110200000000211020000000021055000000002106400000000210550000000000000000000000000000002000000000000002020000000000042549900000000000000009999123100000010000000000000BRI1NFBDR007103
012020090402I1PC34      010INTERNATIONADRN          R$  000000002064100000000207070000000020641000000002068600000000207070000000000000000000000000000003000000000000000050000000000001034320000000000000009999123100000010000000000000BRI1PCBDR009103
012020090402I1SR34      010INTUITIVE SUDRN          R$  000000003869900000000391790000000038699000000003898400000000391790000000000000000000000000000018000000000000005000000000000194921250000000000000009999123100000010000000000000BRI1SRBDR001100
012020090402I1VZ34      010INVESCO LTD DRN          R$  000000000604100000000060860000000006020000000000606500000000060860000000000000000000000000000009000000000000000980000000000005944060000000000000009999123100000010000000000000BRI1VZBDR008103
012020090402IBMB34      010IBM         DRN          R$  000000006500000000000655990000000064560000000006540300000000655990000000000000000000000000000008000000000000000860000000000056247250000000000000009999123100000010000000000000BRIBMBBDR003135
012020090402IDVL3       010INDUSVAL    ON      N2   R$  000000000024200000000002490000000000242000000000024200000000002490000000000243000000000024900012000000000000011400000000000002770000000000000000009999123100000010000000000000BRIDVLACNOR5130
012020090402IDVL4       010INDUSVAL    PN      N2   R$  000000000025700000000002580000000000256000000000025700000000002560000000000256000000000026000003000000000000000900000000000000231700000000000000009999123100000010000000000000BRIDVLACNPR2130
012020090402IGTA3       010IGUATEMI    ON      NM   R$  000000000341400000000034570000000003321000000000340200000000034530000000003440000000000345310147000000000001948100000000006628238100000000000000009999123100000010000000000000BRIGTAACNOR5124
012020090402INGG34      010ING GROEP   DRN          R$  000000000437800000000044030000000004377000000000439100000000044030000000000000000000000000000012000000000000013030000000000057218090000000000000009999123100000010000000000000BRINGGBDR009100
012020090402INTU34      010INTUIT INC  DRN          R$  000000004391900000000445790000000043919000000004432000000000445790000000000000000000000000000005000000000000000900000000000039888730000000000000009999123100000010000000000000BRINTUBDR003105
012020090402IRBR3       010IRBBRASIL REON      NM   R$  000000000069100000000007040000000000666000000000068800000000006950000000000695000000000069632493000000000045802800000000031548917300000000000000009999123100000010000000000000BRIRBRACNOR4108
012020090402ISBC34      010INVEST BCORPDRN          R$  000000000433900000000043680000000004339000000000436000000000043680000000000000000000000000000002000000000000000820000000000003575960000000000000009999123100000010000000000000BRISBCBDR008104
012020090402ITLC34      010INTEL       DRN          R$  000000002650000000000267770000000026381000000002665000000000267770000000025600000000002677700010000000000000003420000000000091145900000000000000009999123100000010000000000000BRITLCBDR005139
012020090402ITSA3       010ITAUSA      ON  ED  N1   R$  000000000107600000000010940000000001076000000000108500000000010800000000001080000000000108500510000000000000141000000000000153092900000000000000009999123100000010000000000000BRITSAACNOR0401
012020090402ITSA4       010ITAUSA      PN  ED  N1   R$  000000000098700000000009920000000000971000000000097800000000009770000000000977000000000097933620000000000024377900000000023853106100000000000000009999123100000010000000000000BRITSAACNPR7401
012020090402ITUB3       010ITAUUNIBANCOON  ED  N1   R$  000000000235600000000023870000000002321000000000236300000000023760000000002360000000000237602322000000000001170600000000002766582000000000000000009999123100000010000000000000BRITUBACNOR4273
012020090402ITUB4       010ITAUUNIBANCOPN  ED  N1   R$  000000000251600000000025290000000002455000000000248400000000024960000000002495000000000249662140000000000041679900000000103572837300000000000000009999123100000010000000000000BRITUBACNPR1273
012020090402J1CI34      010JOHNSON CONTDRN          R$  000000002196200000000219910000000021915000000002196400000000219910000000000000000000000000000008000000000000002060000000000045247150000000000000009999123100000010000000000000BRJ1CIBDR003102
012020090402J1WN34      010NORDSTROM INDRN          R$  000000000850100000000085600000000008501000000000853000000000085600000000005927000000001571500002000000000000000020000000000000170610000000000000009999123100000010000000000000BRJ1WNBDR001101
012020090402JBDU3       010J B DUARTE  ON           R$  000000000024000000000002400000000000238000000000023900000000002380000000000242000000000024700002000000000000000200000000000000047800000000000000009999123100000010000000000000BRJBDUACNOR6142
012020090402JBDU4       010J B DUARTE  PN           R$  000000000013100000000001320000000000125000000000012700000000001310000000000131000000000013200069000000000000034100000000000004359400000000000000009999123100000010000000000000BRJBDUACNPR3142
012020090402JBSS3       010JBS         ON      NM   R$  000000000219700000000022140000000002144000000000217500000000021870000000002186000000000218734802000000000015029800000000032698627500000000000000009999123100000010000000000000BRJBSSACNOR8115
012020090402JDCO34      010JD COM      DRN          R$  000000004044200000000426000000000040442000000004191500000000426000000000000000000000004700000018000000000000004660000000000195326070000000000000009999123100000010000000000000BRJDCOBDR001100
012020090402JHSF3       010JHSF PART   ON      NM   R$  000000000069000000000007210000000000668000000000069800000000007110000000000710000000000071120595000000000013754800000000009606588600000000000000009999123100000010000000000000BRJHSFACNOR2116
012020090402JNJB34      010JOHNSON     DRN          R$  000000007988900000000798890000000078658000000007913800000000790110000000075000000000007901100065000000000000006540000000000517565430000000000000009999123100000010000000000000BRJNJBBDR002135
012020090402JOPA3       010JOSAPAR     ON           R$  000000000303000000000030500000000003030000000000304000000000030500000000002752000000000325000002000000000000000200000000000000608000000000000000009999123100000010000000000000BRJOPAACNOR5131
012020090402JPMC34      010JPMORGAN    DRN          R$  000000002745200000000276290000000026930000000002742500000000275730000000026000000000002757300048000000000000011790000000000323346610000000000000009999123100000010000000000000BRJPMCBDR009134
012020090402JPSA3       010JEREISSATI  ON           R$  000000000237800000000024000000000002290000000000236200000000024000000000002393000000000240401016000000000000240100000000000567266500000000000000009999123100000010000000000000BRJPSAACNOR6103
012020090402JSLG3       010JSL         ON      NM   R$  000000000335900000000033780000000003091000000000321000000000032300000000003230000000000323907238000000000001934500000000006210770200000000000000009999123100000010000000000000BRJSLGACNOR2114
012020090402K1EY34      010KEYCORP     DRN ED       R$  000000000675100000000068590000000006751000000000678000000000068590000000000000000000000000000004000000000000000140000000000000949220000000000000009999123100000010000000000000BRK1EYBDR003103
012020090402K1RC34      010KROGER CO   DRN          R$  000000001898100000000189810000000018740000000001879700000000188190000000000000000000000000000005000000000000000260000000000004887330000000000000009999123100000010000000000000BRK1RCBDR001103
012020090402K1SS34      010KOHLS CORP  DRN          R$  000000001162300000000117210000000011623000000001167200000000117210000000000000000000000000000002000000000000000020000000000000233440000000000000009999123100000010000000000000BRK1SSBDR005101
012020090402KEPL3       010KEPLER WEBERON           R$  000000000445000000000044500000000004357000000000441100000000044200000000004401000000000443000778000000000000142900000000000630396000000000000000009999123100000010000000000000BRKEPLACNOR1049
012020090402KHCB34      010KRAFT HEINZ DRN ED       R$  000000001766200000000178070000000017641000000001774600000000178070000000017000000000001950000008000000000000003840000000000068146500000000000000009999123100000010000000000000BRKHCBBDR007121
012020090402KLBN3       010KLABIN S/A  ON      N2   R$  000000000054100000000005410000000000524000000000053300000000005400000000000537000000000054000727000000000000245300000000000130946100000000000000009999123100000010000000000000BRKLBNACNOR2156
012020090402KLBN4       010KLABIN S/A  PN      N2   R$  000000000049500000000004960000000000483000000000048900000000004900000000000490000000000049102422000000000001186500000000000580523600000000000000009999123100000010000000000000BRKLBNACNPR9156
012020090402KLBN11      010KLABIN S/A  UNT     N2   R$  000000000251300000000025240000000002458000000000249300000000024950000000002495000000000249812446000000000004880300000000012169563300000000000000009999123100000010000000000000BRKLBNCDAM18128
012020090402KMBB34      010KIMBERLY CL DRN ED       R$  000000008069900000000811990000000080699000000008100700000000811990000000000000000000000000000004000000000000000280000000000022682170000000000000009999123100000010000000000000BRKMBBBDR009121
012020090402KMIC34      010KINDER MORGADRN          R$  000000000711100000000071310000000007111000000000712200000000071310000000000000000000000000000012000000000000007400000000000052704500000000000000009999123100000010000000000000BRKMICBDR002105
012020090402KMPR34      010KEMPER CORP DRN          R$  000000002000000000000201400000000020000000000002008400000000201400000000000000000000000000000003000000000000000370000000000007431300000000000000009999123100000010000000000000BRKMPRBDR005104
012020090402L1BT34      010LIBERTY GLOBDRN          R$  000000001156100000000116490000000011561000000001161600000000116490000000000000000000000000000003000000000000000070000000000000813170000000000000009999123100000010000000000000BRL1BTBDR016100
012020090402L1EN34      010LENNAR CORP DRN          R$  000000003948100000000394810000000039421000000003943600000000394210000000000000000000000000000002000000000000000040000000000001577440000000000000009999123100000010000000000000BRL1ENBDR005103
012020090402L1RC34      010LAM RESEARCHDRN          R$  000000004435800000000445580000000043518000000004425900000000445580000000000000000000000000000013000000000000002980000000000131892130000000000000009999123100000010000000000000BRL1RCBDR000102
012020090402L1UL34      010LULULEMON ATDRN          R$  000000004724700000000472470000000047247000000004724700000000472470000000000000000000000000000002000000000000000300000000000014174100000000000000009999123100000010000000000000BRL1ULBDR005100
012020090402L1YB34      010LYONDELLBASEDRN ED       R$  000000001885200000000191580000000018852000000001897400000000191580000000000000000000000000000003000000000000000500000000000009487200000000000000009999123100000010000000000000BRL1YBBDR008103
012020090402LAME3       010LOJAS AMERICON      N1   R$  000000000262200000000026480000000002496000000000260300000000026350000000002635000000000263613208000000000003041400000000007919138400000000000000009999123100000010000000000000BRLAMEACNOR9202
012020090402LAME4       010LOJAS AMERICPN      N1   R$  000000000309500000000031230000000002941000000000303900000000030840000000003084000000000309034463000000000009476900000000028804306900000000000000009999123100000010000000000000BRLAMEACNPR6202
012020090402LAVV3       010LAVVI       ON      NM   R$  000000000089100000000008950000000000835000000000085500000000008630000000000861000000000086306097000000000004466000000000003819790600000000000000009999123100000010000000000000BRLAVVACNOR4100
012020090402LBRD34      010LIBERTY BROADRN          R$  000000003600100000000363090000000036001000000003623300000000363090000000000000000000000000000003000000000000001020000000000036958180000000000000009999123100000010000000000000BRLBRDBDR002100
012020090402LBRN34      010L BRANDS    DRN          R$  000000000403700000000040370000000003989000000000399800000000040010000000000000000000000000000024000000000000003610000000000014433230000000000000009999123100000010000000000000BRLBRNBDR001119
012020090402LCAM3       010LOCAMERICA  ON      NM   R$  000000000212900000000021680000000002040000000000212200000000021590000000002149000000000215915628000000000003850100000000008173196800000000000000009999123100000010000000000000BRLCAMACNOR3133
012020090402LEVE3       010METAL LEVE  ON      NM   R$  000000000175600000000018050000000001746000000000178200000000018050000000001799000000000180503394000000000000643700000000001147577100000000000000009999123100000010000000000000BRLEVEACNOR2187
012020090402LIGT3       010LIGHT S/A   ON      NM   R$  000000000157200000000015770000000001522000000000154200000000015330000000001533000000000153408410000000000002345100000000003616796700000000000000009999123100000010000000000000BRLIGTACNOR2120
012020090402LILY34      010LILLY       DRN          R$  000000003982000000000403330000000039811000000003983600000000403330000000000000000000000000000031000000000000006290000000000250572490000000000000009999123100000010000000000000BRLILYBDR006134
012020090402LINX3       010LINX        ON      NM   R$  000000000366700000000036950000000003512000000000355400000000035830000000003580000000000358316950000000000003936300000000013991393600000000000000009999123100000010000000000000BRLINXACNOR0118
012020090402LJQQ3       010QUERO-QUERO ON      NM   R$  000000000145300000000015060000000001410000000000144200000000014520000000001431000000000145203782000000000001639100000000002365040100000000000000009999123100000010000000000000BRLJQQACNOR5100
